{"abi":[{"type":"constructor","inputs":[{"name":"_liq","type":"address","internalType":"address"},{"name":"_authority","type":"address","internalType":"address"}],"stateMutability":"nonpayable"},{"type":"function","name":"addSynth","inputs":[{"name":"_synth","type":"address","internalType":"address"}],"outputs":[],"stateMutability":"nonpayable"},{"type":"function","name":"authority","inputs":[],"outputs":[{"name":"","type":"address","internalType":"address"}],"stateMutability":"view"},{"type":"function","name":"getAllSynths","inputs":[],"outputs":[{"name":"","type":"address[]","internalType":"address[]"}],"stateMutability":"view"},{"type":"function","name":"getLiquidity","inputs":[],"outputs":[{"name":"totalLiquidity","type":"uint256","internalType":"uint256"}],"stateMutability":"view"},{"type":"function","name":"isConsumingScheduledOp","inputs":[],"outputs":[{"name":"","type":"bytes4","internalType":"bytes4"}],"stateMutability":"view"},{"type":"function","name":"liquidity","inputs":[],"outputs":[{"name":"","type":"address","internalType":"contract Liquidity"}],"stateMutability":"view"},{"type":"function","name":"removeSynth","inputs":[{"name":"_synth","type":"address","internalType":"address"}],"outputs":[],"stateMutability":"nonpayable"},{"type":"function","name":"setAuthority","inputs":[{"name":"newAuthority","type":"address","internalType":"address"}],"outputs":[],"stateMutability":"nonpayable"},{"type":"function","name":"swap","inputs":[{"name":"from","type":"address","internalType":"address"},{"name":"to","type":"address","internalType":"address"},{"name":"amount","type":"uint256","internalType":"uint256"},{"name":"toAddress","type":"address","internalType":"address"}],"outputs":[{"name":"","type":"uint256","internalType":"uint256"},{"name":"","type":"uint256","internalType":"uint256"}],"stateMutability":"nonpayable"},{"type":"function","name":"swapFromLP","inputs":[{"name":"to","type":"address","internalType":"address"},{"name":"amount","type":"uint256","internalType":"uint256"},{"name":"toAddress","type":"address","internalType":"address"}],"outputs":[{"name":"","type":"uint256","internalType":"uint256"},{"name":"","type":"uint256","internalType":"uint256"}],"stateMutability":"nonpayable"},{"type":"function","name":"swapToLP","inputs":[{"name":"from","type":"address","internalType":"address"},{"name":"amount","type":"uint256","internalType":"uint256"},{"name":"toAddress","type":"address","internalType":"address"}],"outputs":[{"name":"","type":"uint256","internalType":"uint256"},{"name":"","type":"uint256","internalType":"uint256"}],"stateMutability":"nonpayable"},{"type":"function","name":"synthConfig","inputs":[{"name":"","type":"address","internalType":"address"}],"outputs":[{"name":"mintFee","type":"uint256","internalType":"uint256"},{"name":"burnFee","type":"uint256","internalType":"uint256"},{"name":"canBeMinted","type":"bool","internalType":"bool"},{"name":"canBeBurned","type":"bool","internalType":"bool"}],"stateMutability":"view"},{"type":"function","name":"synths","inputs":[{"name":"","type":"uint256","internalType":"uint256"}],"outputs":[{"name":"","type":"address","internalType":"address"}],"stateMutability":"view"},{"type":"function","name":"updateSynth","inputs":[{"name":"_synth","type":"address","internalType":"address"},{"name":"config","type":"tuple","internalType":"struct SynthPlugin.Synth","components":[{"name":"mintFee","type":"uint256","internalType":"uint256"},{"name":"burnFee","type":"uint256","internalType":"uint256"},{"name":"canBeMinted","type":"bool","internalType":"bool"},{"name":"canBeBurned","type":"bool","internalType":"bool"}]}],"outputs":[],"stateMutability":"nonpayable"},{"type":"event","name":"AuthorityUpdated","inputs":[{"name":"authority","type":"address","indexed":false,"internalType":"address"}],"anonymous":false},{"type":"event","name":"SynthAdded","inputs":[{"name":"synth","type":"address","indexed":false,"internalType":"address"}],"anonymous":false},{"type":"event","name":"SynthRemoved","inputs":[{"name":"synth","type":"address","indexed":false,"internalType":"address"}],"anonymous":false},{"type":"event","name":"SynthUpdated","inputs":[{"name":"synth","type":"address","indexed":false,"internalType":"address"},{"name":"config","type":"tuple","indexed":false,"internalType":"struct SynthPlugin.Synth","components":[{"name":"mintFee","type":"uint256","internalType":"uint256"},{"name":"burnFee","type":"uint256","internalType":"uint256"},{"name":"canBeMinted","type":"bool","internalType":"bool"},{"name":"canBeBurned","type":"bool","internalType":"bool"}]}],"anonymous":false},{"type":"error","name":"AccessManagedInvalidAuthority","inputs":[{"name":"authority","type":"address","internalType":"address"}]},{"type":"error","name":"AccessManagedRequiredDelay","inputs":[{"name":"caller","type":"address","internalType":"address"},{"name":"delay","type":"uint32","internalType":"uint32"}]},{"type":"error","name":"AccessManagedUnauthorized","inputs":[{"name":"caller","type":"address","internalType":"address"}]}],"bytecode":{"object":"0x60806040523480156200001157600080fd5b5060405162001d6838038062001d688339810160408190526200003491620000de565b81818062000042816200006d565b5050600180546001600160a01b0319166001600160a01b039290921691909117905550620001169050565b600080546001600160a01b0319166001600160a01b0383169081179091556040519081527f2f658b440c35314f52658ea8a740e05b284cdc84dc9ae01e891f21b8933e7cad9060200160405180910390a150565b80516001600160a01b0381168114620000d957600080fd5b919050565b60008060408385031215620000f257600080fd5b620000fd83620000c1565b91506200010d60208401620000c1565b90509250929050565b611c4280620001266000396000f3fe608060405234801561001057600080fd5b50600436106100ea5760003560e01c80636e81221c1161008c5780638fb36037116100665780638fb36037146101e65780639cf31d3f14610207578063bf7e214f1461026a578063fcf09c6c1461027b57600080fd5b80636e81221c146101ad5780637a9e5e4b146101c0578063849cf588146101d357600080fd5b806330edd961116100c857806330edd9611461014a57806334a9a5541461015d57806335a7ede6146101855780633f44f2191461019a57600080fd5b80630910a510146100ef57806319b12aec1461010a5780631a6865021461011f575b600080fd5b6100f761028e565b6040519081526020015b60405180910390f35b61011261045f565b60405161010191906116f2565b600154610132906001600160a01b031681565b6040516001600160a01b039091168152602001610101565b61013261015836600461173f565b6104c1565b61017061016b366004611770565b6104eb565b60408051928352602083019190915201610101565b6101986101933660046117b2565b61075b565b005b6101986101a836600461182b565b6108a7565b6101706101bb3660046118c9565b61096a565b6101986101ce3660046117b2565b610af5565b6101986101e13660046117b2565b610b74565b6101ee610c5e565b6040516001600160e01b03199091168152602001610101565b6102426102153660046117b2565b60036020526000908152604090208054600182015460029092015490919060ff8082169161010090041684565b6040805194855260208501939093529015159183019190915215156060820152608001610101565b6000546001600160a01b0316610132565b610170610289366004611770565b610c82565b600080600160009054906101000a90046001600160a01b03166001600160a01b0316637dc0d1d06040518163ffffffff1660e01b8152600401602060405180830381865afa1580156102e4573d6000803e3d6000fd5b505050506040513d601f19601f82011682018060405250810190610308919061191c565b90506000816001600160a01b0316639d23d9f260026040518263ffffffff1660e01b81526004016103399190611939565b600060405180830381865afa158015610356573d6000803e3d6000fd5b505050506040513d6000823e601f3d908101601f1916820160405261037e919081019061197d565b905060005b600254811015610459576305f5e1008282815181106103a4576103a4611a23565b6020026020010151600283815481106103bf576103bf611a23565b60009182526020918290200154604080516318160ddd60e01b815290516001600160a01b03909216926318160ddd926004808401938290030181865afa15801561040d573d6000803e3d6000fd5b505050506040513d601f19601f820116820180604052508101906104319190611a39565b61043b9190611a68565b6104459190611a85565b61044f9085611aa7565b9350600101610383565b50505090565b606060028054806020026020016040519081016040528092919081815260200182805480156104b757602002820191906000526020600020905b81546001600160a01b03168152600190910190602001808311610499575b5050505050905090565b600281815481106104d157600080fd5b6000918252602090912001546001600160a01b0316905081565b6000806000600160009054906101000a90046001600160a01b03166001600160a01b0316637dc0d1d06040518163ffffffff1660e01b8152600401602060405180830381865afa158015610543573d6000803e3d6000fd5b505050506040513d601f19601f82011682018060405250810190610567919061191c565b60405163b3596f0760e01b81526001600160a01b03888116600483015291925060009183169063b3596f0790602401602060405180830381865afa1580156105b3573d6000803e3d6000fd5b505050506040513d601f19601f820116820180604052508101906105d79190611a39565b905060006402540be400600160009054906101000a90046001600160a01b03166001600160a01b0316634c7198f46040518163ffffffff1660e01b8152600401602060405180830381865afa158015610634573d6000803e3d6000fd5b505050506040513d601f19601f820116820180604052508101906106589190611a39565b6106629190611a85565b6040805160028082526060820183529293506000929091602083019080368337019050509050828160008151811061069c5761069c611a23565b60200260200101818152505081816001815181106106bc576106bc611a23565b60200260200101818152505061074b89600160009054906101000a90046001600160a01b03166001600160a01b0316635fcbd2856040518163ffffffff1660e01b8152600401602060405180830381865afa15801561071f573d6000803e3d6000fd5b505050506040513d601f19601f82011682018060405250810190610743919061191c565b8a8a85610ede565b9550955050505050935093915050565b610768335b600036611498565b60005b60025481101561086657816001600160a01b03166002828154811061079257610792611a23565b6000918252602090912001546001600160a01b03160361085e57600280546107bc90600190611aba565b815481106107cc576107cc611a23565b600091825260209091200154600280546001600160a01b0390921691839081106107f8576107f8611a23565b9060005260206000200160006101000a8154816001600160a01b0302191690836001600160a01b03160217905550600280548061083757610837611acd565b600082815260209020810160001990810180546001600160a01b0319169055019055610866565b60010161076b565b506040516001600160a01b03821681527ff804291aceae84499f2c1ee0cdd31db3f4f8e357c39784952e32b3398441d430906020015b60405180910390a150565b6108b033610760565b6001600160a01b03821660008181526003602090815260409182902084518155848201805160018301558584018051600290930180546060808a01805161ffff1990931696151561ff0019169690961761010092151592909202919091179091558551968752875194870194909452905193850193909352915115159083015251151560808201527f16ddd73ca471e703152788138de1138eb6c7d2a404fc06f83c0565851192a9219060a0015b60405180910390a15050565b6000806000600160009054906101000a90046001600160a01b03166001600160a01b0316637dc0d1d06040518163ffffffff1660e01b8152600401602060405180830381865afa1580156109c2573d6000803e3d6000fd5b505050506040513d601f19601f820116820180604052508101906109e6919061191c565b60408051600280825260608201835292935060009290916020830190803683370190505090508781600081518110610a2057610a20611a23565b60200260200101906001600160a01b031690816001600160a01b0316815250508681600181518110610a5457610a54611a23565b6001600160a01b039283166020918202929092010152604051634e91ecf960e11b8152600091841690639d23d9f290610a919085906004016116f2565b600060405180830381865afa158015610aae573d6000803e3d6000fd5b505050506040513d6000823e601f3d908101601f19168201604052610ad6919081019061197d565b9050610ae58989898985610ede565b9450945050505094509492505050565b60005433906001600160a01b03168114610b315760405162d1953b60e31b81526001600160a01b03821660048201526024015b60405180910390fd5b816001600160a01b03163b600003610b67576040516361798f2f60e11b81526001600160a01b0383166004820152602401610b28565b610b7082611598565b5050565b610b7d33610760565b6000805b600254811015610bd357826001600160a01b031660028281548110610ba857610ba8611a23565b6000918252602090912001546001600160a01b031603610bcb5760019150610bd3565b600101610b81565b5080610c2557600280546001810182556000919091527f405787fa12a823e0f2b7631cc41b3ba8828b3321ca811111fa75cd3aa3bb5ace0180546001600160a01b0319166001600160a01b0384161790555b6040516001600160a01b03831681527fe58082970e120225831e7612aa2616579362b79d2d17a295f7eb8ed6b927fbda9060200161095e565b60008054600160a01b900460ff16610c765750600090565b50638fb3603760e01b90565b6000806000600160009054906101000a90046001600160a01b03166001600160a01b0316637dc0d1d06040518163ffffffff1660e01b8152600401602060405180830381865afa158015610cda573d6000803e3d6000fd5b505050506040513d601f19601f82011682018060405250810190610cfe919061191c565b60405163b3596f0760e01b81526001600160a01b03888116600483015291925060009183169063b3596f0790602401602060405180830381865afa158015610d4a573d6000803e3d6000fd5b505050506040513d601f19601f82011682018060405250810190610d6e9190611a39565b905060006402540be400600160009054906101000a90046001600160a01b03166001600160a01b0316634c7198f46040518163ffffffff1660e01b8152600401602060405180830381865afa158015610dcb573d6000803e3d6000fd5b505050506040513d601f19601f82011682018060405250810190610def9190611a39565b610df99190611a85565b60408051600280825260608201835292935060009290916020830190803683370190505090508181600081518110610e3357610e33611a23565b6020026020010181815250508281600181518110610e5357610e53611a23565b60200260200101818152505061074b600160009054906101000a90046001600160a01b03166001600160a01b0316635fcbd2856040518163ffffffff1660e01b8152600401602060405180830381865afa158015610eb5573d6000803e3d6000fd5b505050506040513d601f19601f82011682018060405250810190610ed9919061191c565b8a8a8a855b600080856001600160a01b0316876001600160a01b031603610f525760405162461bcd60e51b815260206004820152602760248201527f53796e7468506c7567696e3a2043616e6e6f742073776170207468652073616d6044820152660ca40e6f2dce8d60cb1b6064820152608401610b28565b60008511610fb55760405162461bcd60e51b815260206004820152602a60248201527f53796e7468506c7567696e3a20416d6f756e74206d75737420626520677265616044820152690746572207468616e20360b41b6064820152608401610b28565b6001600160a01b03841661100b5760405162461bcd60e51b815260206004820152601c60248201527f53796e7468506c7567696e3a20496e76616c69642061646472657373000000006044820152606401610b28565b600060036000896001600160a01b03166001600160a01b0316815260200190815260200160002060405180608001604052908160008201548152602001600182015481526020016002820160009054906101000a900460ff161515151581526020016002820160019054906101000a900460ff1615151515815250509050600060036000896001600160a01b03166001600160a01b0316815260200190815260200160002060405180608001604052908160008201548152602001600182015481526020016002820160009054906101000a900460ff161515151581526020016002820160019054906101000a900460ff161515151581525050905081606001516111645760405162461bcd60e51b815260206004820152602360248201527f53796e7468506c7567696e3a2043616e6e6f74206275726e20746869732073796044820152620dce8d60eb1b6064820152608401610b28565b80604001516111c15760405162461bcd60e51b815260206004820152602360248201527f53796e7468506c7567696e3a2043616e6e6f74206d696e7420746869732073796044820152620dce8d60eb1b6064820152608401610b28565b6000198703611235576040516370a0823160e01b81523360048201526001600160a01b038a16906370a0823190602401602060405180830381865afa15801561120e573d6000803e3d6000fd5b505050506040513d601f19601f820116820180604052508101906112329190611a39565b96505b600061271083602001518961124a9190611a68565b6112549190611a85565b90506000611262828a611aba565b60405163079cc67960e41b8152336004820152602481018b90529091506001600160a01b038c16906379cc679090604401600060405180830381600087803b1580156112ad57600080fd5b505af11580156112c1573d6000803e3d6000fd5b505050506000876001815181106112da576112da611a23565b6020026020010151886000815181106112f5576112f5611a23565b6020026020010151836113089190611a68565b6113129190611a85565b905060006127108560000151836113299190611a68565b6113339190611a85565b905060006113418284611aba565b6040516340c10f1960e01b81526001600160a01b038d8116600483015260248201839052919250908e16906340c10f1990604401600060405180830381600087803b15801561138f57600080fd5b505af11580156113a3573d6000803e3d6000fd5b505050506000851115611417576001546040516340c10f1960e01b81526001600160a01b03918216600482015260248101879052908f16906340c10f1990604401600060405180830381600087803b1580156113fe57600080fd5b505af1158015611412573d6000803e3d6000fd5b505050505b8115611484576001546040516340c10f1960e01b81526001600160a01b03918216600482015260248101849052908e16906340c10f1990604401600060405180830381600087803b15801561146b57600080fd5b505af115801561147f573d6000803e3d6000fd5b505050505b9a9d9a9c50999a5050505050505050505050565b6000806114ce6114b06000546001600160a01b031690565b86306114c060046000898b611ae3565b6114c991611b0d565b6115e6565b91509150816115915763ffffffff81161561156e576000805460ff60a01b198116600160a01b17909155604051634a63ebf760e11b81526001600160a01b03909116906394c7d7ee9061152990889088908890600401611b3d565b600060405180830381600087803b15801561154357600080fd5b505af1158015611557573d6000803e3d6000fd5b50506000805460ff60a01b19169055506115919050565b60405162d1953b60e31b81526001600160a01b0386166004820152602401610b28565b5050505050565b600080546001600160a01b0319166001600160a01b0383169081179091556040519081527f2f658b440c35314f52658ea8a740e05b284cdc84dc9ae01e891f21b8933e7cad9060200161089c565b6040516001600160a01b03848116602483015283811660448301526001600160e01b03198316606483015260009182918291829189169060840160408051601f198184030181529181526020820180516001600160e01b031663b700961360e01b179052516116559190611b7d565b600060405180830381855afa9150503d8060008114611690576040519150601f19603f3d011682016040523d82523d6000602084013e611695565b606091505b509150915081156116e75760408151106116c757808060200190518101906116bd9190611bac565b90945092506116e7565b60208151106116e757808060200190518101906116e49190611bef565b93505b505094509492505050565b6020808252825182820181905260009190848201906040850190845b818110156117335783516001600160a01b03168352928401929184019160010161170e565b50909695505050505050565b60006020828403121561175157600080fd5b5035919050565b6001600160a01b038116811461176d57600080fd5b50565b60008060006060848603121561178557600080fd5b833561179081611758565b92506020840135915060408401356117a781611758565b809150509250925092565b6000602082840312156117c457600080fd5b81356117cf81611758565b9392505050565b634e487b7160e01b600052604160045260246000fd5b604051601f8201601f1916810167ffffffffffffffff81118282101715611815576118156117d6565b604052919050565b801515811461176d57600080fd5b60008082840360a081121561183f57600080fd5b833561184a81611758565b92506080601f198201121561185e57600080fd5b506040516080810181811067ffffffffffffffff82111715611882576118826117d6565b8060405250602084013581526040840135602082015260608401356118a68161181d565b604082015260808401356118b98161181d565b6060820152919491935090915050565b600080600080608085870312156118df57600080fd5b84356118ea81611758565b935060208501356118fa81611758565b925060408501359150606085013561191181611758565b939692955090935050565b60006020828403121561192e57600080fd5b81516117cf81611758565b6020808252825482820181905260008481528281209092916040850190845b818110156117335783546001600160a01b031683526001938401939285019201611958565b6000602080838503121561199057600080fd5b825167ffffffffffffffff808211156119a857600080fd5b818501915085601f8301126119bc57600080fd5b8151818111156119ce576119ce6117d6565b8060051b91506119df8483016117ec565b81815291830184019184810190888411156119f957600080fd5b938501935b83851015611a17578451825293850193908501906119fe565b98975050505050505050565b634e487b7160e01b600052603260045260246000fd5b600060208284031215611a4b57600080fd5b5051919050565b634e487b7160e01b600052601160045260246000fd5b8082028115828204841417611a7f57611a7f611a52565b92915050565b600082611aa257634e487b7160e01b600052601260045260246000fd5b500490565b80820180821115611a7f57611a7f611a52565b81810381811115611a7f57611a7f611a52565b634e487b7160e01b600052603160045260246000fd5b60008085851115611af357600080fd5b83861115611b0057600080fd5b5050820193919092039150565b6001600160e01b03198135818116916004851015611b355780818660040360031b1b83161692505b505092915050565b6001600160a01b03841681526040602082018190528101829052818360608301376000818301606090810191909152601f909201601f1916010192915050565b6000825160005b81811015611b9e5760208186018101518583015201611b84565b506000920191825250919050565b60008060408385031215611bbf57600080fd5b8251611bca8161181d565b602084015190925063ffffffff81168114611be457600080fd5b809150509250929050565b600060208284031215611c0157600080fd5b81516117cf8161181d56fea26469706673582212207880f18a539ad066fb2727fa5bcbb02443d13957db195a3854e2c8444aa6cec364736f6c63430008170033","linkReferences":{}},"methodIdentifiers":{"addSynth(address)":"849cf588","authority()":"bf7e214f","getAllSynths()":"19b12aec","getLiquidity()":"0910a510","isConsumingScheduledOp()":"8fb36037","liquidity()":"1a686502","removeSynth(address)":"35a7ede6","setAuthority(address)":"7a9e5e4b","swap(address,address,uint256,address)":"6e81221c","swapFromLP(address,uint256,address)":"fcf09c6c","swapToLP(address,uint256,address)":"34a9a554","synthConfig(address)":"9cf31d3f","synths(uint256)":"30edd961","updateSynth(address,(uint256,uint256,bool,bool))":"3f44f219"},"id":74}