{"abi":[{"type":"constructor","inputs":[{"name":"_name","type":"string","internalType":"string"},{"name":"_symbol","type":"string","internalType":"string"},{"name":"_authority","type":"address","internalType":"address"}],"stateMutability":"nonpayable"},{"type":"function","name":"DOMAIN_SEPARATOR","inputs":[],"outputs":[{"name":"","type":"bytes32","internalType":"bytes32"}],"stateMutability":"view"},{"type":"function","name":"allowance","inputs":[{"name":"owner","type":"address","internalType":"address"},{"name":"spender","type":"address","internalType":"address"}],"outputs":[{"name":"","type":"uint256","internalType":"uint256"}],"stateMutability":"view"},{"type":"function","name":"approve","inputs":[{"name":"spender","type":"address","internalType":"address"},{"name":"value","type":"uint256","internalType":"uint256"}],"outputs":[{"name":"","type":"bool","internalType":"bool"}],"stateMutability":"nonpayable"},{"type":"function","name":"authority","inputs":[],"outputs":[{"name":"","type":"address","internalType":"address"}],"stateMutability":"view"},{"type":"function","name":"balanceOf","inputs":[{"name":"account","type":"address","internalType":"address"}],"outputs":[{"name":"","type":"uint256","internalType":"uint256"}],"stateMutability":"view"},{"type":"function","name":"burn","inputs":[{"name":"value","type":"uint256","internalType":"uint256"}],"outputs":[],"stateMutability":"nonpayable"},{"type":"function","name":"burnFrom","inputs":[{"name":"account","type":"address","internalType":"address"},{"name":"value","type":"uint256","internalType":"uint256"}],"outputs":[],"stateMutability":"nonpayable"},{"type":"function","name":"decimals","inputs":[],"outputs":[{"name":"","type":"uint8","internalType":"uint8"}],"stateMutability":"view"},{"type":"function","name":"eip712Domain","inputs":[],"outputs":[{"name":"fields","type":"bytes1","internalType":"bytes1"},{"name":"name","type":"string","internalType":"string"},{"name":"version","type":"string","internalType":"string"},{"name":"chainId","type":"uint256","internalType":"uint256"},{"name":"verifyingContract","type":"address","internalType":"address"},{"name":"salt","type":"bytes32","internalType":"bytes32"},{"name":"extensions","type":"uint256[]","internalType":"uint256[]"}],"stateMutability":"view"},{"type":"function","name":"isConsumingScheduledOp","inputs":[],"outputs":[{"name":"","type":"bytes4","internalType":"bytes4"}],"stateMutability":"view"},{"type":"function","name":"mint","inputs":[{"name":"account","type":"address","internalType":"address"},{"name":"amount","type":"uint256","internalType":"uint256"}],"outputs":[],"stateMutability":"nonpayable"},{"type":"function","name":"name","inputs":[],"outputs":[{"name":"","type":"string","internalType":"string"}],"stateMutability":"view"},{"type":"function","name":"nonces","inputs":[{"name":"owner","type":"address","internalType":"address"}],"outputs":[{"name":"","type":"uint256","internalType":"uint256"}],"stateMutability":"view"},{"type":"function","name":"permit","inputs":[{"name":"owner","type":"address","internalType":"address"},{"name":"spender","type":"address","internalType":"address"},{"name":"value","type":"uint256","internalType":"uint256"},{"name":"deadline","type":"uint256","internalType":"uint256"},{"name":"v","type":"uint8","internalType":"uint8"},{"name":"r","type":"bytes32","internalType":"bytes32"},{"name":"s","type":"bytes32","internalType":"bytes32"}],"outputs":[],"stateMutability":"nonpayable"},{"type":"function","name":"setAuthority","inputs":[{"name":"newAuthority","type":"address","internalType":"address"}],"outputs":[],"stateMutability":"nonpayable"},{"type":"function","name":"symbol","inputs":[],"outputs":[{"name":"","type":"string","internalType":"string"}],"stateMutability":"view"},{"type":"function","name":"totalSupply","inputs":[],"outputs":[{"name":"","type":"uint256","internalType":"uint256"}],"stateMutability":"view"},{"type":"function","name":"transfer","inputs":[{"name":"to","type":"address","internalType":"address"},{"name":"value","type":"uint256","internalType":"uint256"}],"outputs":[{"name":"","type":"bool","internalType":"bool"}],"stateMutability":"nonpayable"},{"type":"function","name":"transferFrom","inputs":[{"name":"from","type":"address","internalType":"address"},{"name":"to","type":"address","internalType":"address"},{"name":"value","type":"uint256","internalType":"uint256"}],"outputs":[{"name":"","type":"bool","internalType":"bool"}],"stateMutability":"nonpayable"},{"type":"event","name":"Approval","inputs":[{"name":"owner","type":"address","indexed":true,"internalType":"address"},{"name":"spender","type":"address","indexed":true,"internalType":"address"},{"name":"value","type":"uint256","indexed":false,"internalType":"uint256"}],"anonymous":false},{"type":"event","name":"AuthorityUpdated","inputs":[{"name":"authority","type":"address","indexed":false,"internalType":"address"}],"anonymous":false},{"type":"event","name":"EIP712DomainChanged","inputs":[],"anonymous":false},{"type":"event","name":"Transfer","inputs":[{"name":"from","type":"address","indexed":true,"internalType":"address"},{"name":"to","type":"address","indexed":true,"internalType":"address"},{"name":"value","type":"uint256","indexed":false,"internalType":"uint256"}],"anonymous":false},{"type":"error","name":"AccessManagedInvalidAuthority","inputs":[{"name":"authority","type":"address","internalType":"address"}]},{"type":"error","name":"AccessManagedRequiredDelay","inputs":[{"name":"caller","type":"address","internalType":"address"},{"name":"delay","type":"uint32","internalType":"uint32"}]},{"type":"error","name":"AccessManagedUnauthorized","inputs":[{"name":"caller","type":"address","internalType":"address"}]},{"type":"error","name":"ECDSAInvalidSignature","inputs":[]},{"type":"error","name":"ECDSAInvalidSignatureLength","inputs":[{"name":"length","type":"uint256","internalType":"uint256"}]},{"type":"error","name":"ECDSAInvalidSignatureS","inputs":[{"name":"s","type":"bytes32","internalType":"bytes32"}]},{"type":"error","name":"ERC20InsufficientAllowance","inputs":[{"name":"spender","type":"address","internalType":"address"},{"name":"allowance","type":"uint256","internalType":"uint256"},{"name":"needed","type":"uint256","internalType":"uint256"}]},{"type":"error","name":"ERC20InsufficientBalance","inputs":[{"name":"sender","type":"address","internalType":"address"},{"name":"balance","type":"uint256","internalType":"uint256"},{"name":"needed","type":"uint256","internalType":"uint256"}]},{"type":"error","name":"ERC20InvalidApprover","inputs":[{"name":"approver","type":"address","internalType":"address"}]},{"type":"error","name":"ERC20InvalidReceiver","inputs":[{"name":"receiver","type":"address","internalType":"address"}]},{"type":"error","name":"ERC20InvalidSender","inputs":[{"name":"sender","type":"address","internalType":"address"}]},{"type":"error","name":"ERC20InvalidSpender","inputs":[{"name":"spender","type":"address","internalType":"address"}]},{"type":"error","name":"ERC2612ExpiredSignature","inputs":[{"name":"deadline","type":"uint256","internalType":"uint256"}]},{"type":"error","name":"ERC2612InvalidSigner","inputs":[{"name":"signer","type":"address","internalType":"address"},{"name":"owner","type":"address","internalType":"address"}]},{"type":"error","name":"InvalidAccountNonce","inputs":[{"name":"account","type":"address","internalType":"address"},{"name":"currentNonce","type":"uint256","internalType":"uint256"}]},{"type":"error","name":"InvalidShortString","inputs":[]},{"type":"error","name":"StringTooLong","inputs":[{"name":"str","type":"string","internalType":"string"}]}],"bytecode":{"object":"0x6101606040523480156200001257600080fd5b5060405162001a4e38038062001a4e8339810160408190526200003591620002f4565b8282828280604051806040016040528060018152602001603160f81b81525085858562000068816200014e60201b60201c565b50600462000077838262000412565b50600562000086828262000412565b506200009891508390506006620001a2565b61012052620000a9816007620001a2565b61014052815160208084019190912060e052815190820120610100524660a0526200013760e05161010051604080517f8b73c3c69bb8fe3d512ecc4cf759cc79239f7b179b0ffacaa9a75d522b39400f60208201529081019290925260608201524660808201523060a082015260009060c00160405160208183030381529060405280519060200120905090565b60805250503060c052506200053895505050505050565b600080546001600160a01b0319166001600160a01b0383169081179091556040519081527f2f658b440c35314f52658ea8a740e05b284cdc84dc9ae01e891f21b8933e7cad9060200160405180910390a150565b6000602083511015620001c257620001ba83620001db565b9050620001d5565b81620001cf848262000412565b5060ff90505b92915050565b600080829050601f8151111562000212578260405163305a27a960e01b8152600401620002099190620004de565b60405180910390fd5b80516200021f8262000513565b179392505050565b634e487b7160e01b600052604160045260246000fd5b60005b838110156200025a57818101518382015260200162000240565b50506000910152565b600082601f8301126200027557600080fd5b81516001600160401b038082111562000292576200029262000227565b604051601f8301601f19908116603f01168101908282118183101715620002bd57620002bd62000227565b81604052838152866020858801011115620002d757600080fd5b620002ea8460208301602089016200023d565b9695505050505050565b6000806000606084860312156200030a57600080fd5b83516001600160401b03808211156200032257600080fd5b620003308783880162000263565b945060208601519150808211156200034757600080fd5b50620003568682870162000263565b604086015190935090506001600160a01b03811681146200037657600080fd5b809150509250925092565b600181811c908216806200039657607f821691505b602082108103620003b757634e487b7160e01b600052602260045260246000fd5b50919050565b601f8211156200040d576000816000526020600020601f850160051c81016020861015620003e85750805b601f850160051c820191505b818110156200040957828155600101620003f4565b5050505b505050565b81516001600160401b038111156200042e576200042e62000227565b62000446816200043f845462000381565b84620003bd565b602080601f8311600181146200047e5760008415620004655750858301515b600019600386901b1c1916600185901b17855562000409565b600085815260208120601f198616915b82811015620004af578886015182559484019460019091019084016200048e565b5085821015620004ce5787850151600019600388901b60f8161c191681555b5050505050600190811b01905550565b6020815260008251806020840152620004ff8160408501602087016200023d565b601f01601f19169190910160400192915050565b80516020808301519190811015620003b75760001960209190910360031b1b16919050565b60805160a05160c05160e0516101005161012051610140516114bb620005936000396000610a6e01526000610a4101526000610829015260006108010152600061075c01526000610786015260006107b001526114bb6000f3fe608060405234801561001057600080fd5b50600436106101215760003560e01c806379cc6790116100ad57806395d89b411161007157806395d89b4114610269578063a9059cbb14610271578063bf7e214f14610284578063d505accf1461029f578063dd62ed3e146102b257600080fd5b806379cc6790146101f45780637a9e5e4b146102075780637ecebe001461021a57806384b0196e1461022d5780638fb360371461024857600080fd5b8063313ce567116100f4578063313ce5671461018c5780633644e5151461019b57806340c10f19146101a357806342966c68146101b857806370a08231146101cb57600080fd5b806306fdde0314610126578063095ea7b31461014457806318160ddd1461016757806323b872dd14610179575b600080fd5b61012e6102eb565b60405161013b91906110e4565b60405180910390f35b61015761015236600461111a565b61037d565b604051901515815260200161013b565b6003545b60405190815260200161013b565b610157610187366004611144565b610397565b6040516012815260200161013b565b61016b6103bb565b6101b66101b136600461111a565b6103ca565b005b6101b66101c6366004611180565b6103e4565b61016b6101d9366004611199565b6001600160a01b031660009081526001602052604090205490565b6101b661020236600461111a565b6103f1565b6101b6610215366004611199565b610406565b61016b610228366004611199565b610481565b61023561049f565b60405161013b97969594939291906111b4565b6102506104e5565b6040516001600160e01b0319909116815260200161013b565b61012e610509565b61015761027f36600461111a565b610518565b6000546040516001600160a01b03909116815260200161013b565b6101b66102ad36600461124d565b610526565b61016b6102c03660046112c0565b6001600160a01b03918216600090815260026020908152604080832093909416825291909152205490565b6060600480546102fa906112f3565b80601f0160208091040260200160405190810160405280929190818152602001828054610326906112f3565b80156103735780601f1061034857610100808354040283529160200191610373565b820191906000526020600020905b81548152906001019060200180831161035657829003601f168201915b5050505050905090565b60003361038b818585610660565b60019150505b92915050565b6000336103a5858285610672565b6103b08585856106f0565b506001949350505050565b60006103c561074f565b905090565b6103d63360003661087a565b6103e0828261097a565b5050565b6103ee33826109b0565b50565b6103fc823383610672565b6103e082826109b0565b60005433906001600160a01b031681146104425760405162d1953b60e31b81526001600160a01b03821660048201526024015b60405180910390fd5b816001600160a01b03163b600003610478576040516361798f2f60e11b81526001600160a01b0383166004820152602401610439565b6103e0826109e6565b6001600160a01b038116600090815260086020526040812054610391565b6000606080600080600060606104b3610a3a565b6104bb610a67565b60408051600080825260208201909252600f60f81b9b939a50919850469750309650945092509050565b60008054600160a01b900460ff166104fd5750600090565b50638fb3603760e01b90565b6060600580546102fa906112f3565b60003361038b8185856106f0565b8342111561054a5760405163313c898160e11b815260048101859052602401610439565b60007f6e71edae12b1b97f4d1f60370fef10105fa2faae0126114a169c64845d6126c98888886105978c6001600160a01b0316600090815260086020526040902080546001810190915590565b6040805160208101969096526001600160a01b0394851690860152929091166060840152608083015260a082015260c0810186905260e00160405160208183030381529060405280519060200120905060006105f282610a94565b9050600061060282878787610ac1565b9050896001600160a01b0316816001600160a01b031614610649576040516325c0072360e11b81526001600160a01b0380831660048301528b166024820152604401610439565b6106548a8a8a610660565b50505050505050505050565b61066d8383836001610aef565b505050565b6001600160a01b0383811660009081526002602090815260408083209386168352929052205460001981146106ea57818110156106db57604051637dc7a0d960e11b81526001600160a01b03841660048201526024810182905260448101839052606401610439565b6106ea84848484036000610aef565b50505050565b6001600160a01b03831661071a57604051634b637e8f60e11b815260006004820152602401610439565b6001600160a01b0382166107445760405163ec442f0560e01b815260006004820152602401610439565b61066d838383610bc4565b6000306001600160a01b037f0000000000000000000000000000000000000000000000000000000000000000161480156107a857507f000000000000000000000000000000000000000000000000000000000000000046145b156107d257507f000000000000000000000000000000000000000000000000000000000000000090565b6103c5604080517f8b73c3c69bb8fe3d512ecc4cf759cc79239f7b179b0ffacaa9a75d522b39400f60208201527f0000000000000000000000000000000000000000000000000000000000000000918101919091527f000000000000000000000000000000000000000000000000000000000000000060608201524660808201523060a082015260009060c00160405160208183030381529060405280519060200120905090565b6000806108b06108926000546001600160a01b031690565b86306108a260046000898b61132d565b6108ab91611357565b610cee565b91509150816109735763ffffffff811615610950576000805460ff60a01b198116600160a01b17909155604051634a63ebf760e11b81526001600160a01b03909116906394c7d7ee9061090b90889088908890600401611387565b600060405180830381600087803b15801561092557600080fd5b505af1158015610939573d6000803e3d6000fd5b50506000805460ff60a01b19169055506109739050565b60405162d1953b60e31b81526001600160a01b0386166004820152602401610439565b5050505050565b6001600160a01b0382166109a45760405163ec442f0560e01b815260006004820152602401610439565b6103e060008383610bc4565b6001600160a01b0382166109da57604051634b637e8f60e11b815260006004820152602401610439565b6103e082600083610bc4565b600080546001600160a01b0319166001600160a01b0383169081179091556040519081527f2f658b440c35314f52658ea8a740e05b284cdc84dc9ae01e891f21b8933e7cad9060200160405180910390a150565b60606103c57f00000000000000000000000000000000000000000000000000000000000000006006610dfa565b60606103c57f00000000000000000000000000000000000000000000000000000000000000006007610dfa565b6000610391610aa161074f565b8360405161190160f01b8152600281019290925260228201526042902090565b600080600080610ad388888888610ea5565b925092509250610ae38282610f74565b50909695505050505050565b6001600160a01b038416610b195760405163e602df0560e01b815260006004820152602401610439565b6001600160a01b038316610b4357604051634a1406b160e11b815260006004820152602401610439565b6001600160a01b03808516600090815260026020908152604080832093871683529290522082905580156106ea57826001600160a01b0316846001600160a01b03167f8c5be1e5ebec7d5bd14f71427d1e84f3dd0314c0f7b2291e5b200ac8c7c3b92584604051610bb691815260200190565b60405180910390a350505050565b6001600160a01b038316610bef578060036000828254610be491906113c7565b90915550610c619050565b6001600160a01b03831660009081526001602052604090205481811015610c425760405163391434e360e21b81526001600160a01b03851660048201526024810182905260448101839052606401610439565b6001600160a01b03841660009081526001602052604090209082900390555b6001600160a01b038216610c7d57600380548290039055610c9c565b6001600160a01b03821660009081526001602052604090208054820190555b816001600160a01b0316836001600160a01b03167fddf252ad1be2c89b69c2b068fc378daa952ba7f163c4a11628f55a4df523b3ef83604051610ce191815260200190565b60405180910390a3505050565b6040516001600160a01b03848116602483015283811660448301526001600160e01b03198316606483015260009182918291829189169060840160408051601f198184030181529181526020820180516001600160e01b031663b700961360e01b17905251610d5d91906113e8565b600060405180830381855afa9150503d8060008114610d98576040519150601f19603f3d011682016040523d82523d6000602084013e610d9d565b606091505b50915091508115610def576040815110610dcf5780806020019051810190610dc59190611414565b9094509250610def565b6020815110610def5780806020019051810190610dec9190611454565b93505b505094509492505050565b606060ff8314610e1457610e0d8361102d565b9050610391565b818054610e20906112f3565b80601f0160208091040260200160405190810160405280929190818152602001828054610e4c906112f3565b8015610e995780601f10610e6e57610100808354040283529160200191610e99565b820191906000526020600020905b815481529060010190602001808311610e7c57829003601f168201915b50505050509050610391565b600080807f7fffffffffffffffffffffffffffffff5d576e7357a4501ddfe92f46681b20a0841115610ee05750600091506003905082610f6a565b604080516000808252602082018084528a905260ff891692820192909252606081018790526080810186905260019060a0016020604051602081039080840390855afa158015610f34573d6000803e3d6000fd5b5050604051601f1901519150506001600160a01b038116610f6057506000925060019150829050610f6a565b9250600091508190505b9450945094915050565b6000826003811115610f8857610f8861146f565b03610f91575050565b6001826003811115610fa557610fa561146f565b03610fc35760405163f645eedf60e01b815260040160405180910390fd5b6002826003811115610fd757610fd761146f565b03610ff85760405163fce698f760e01b815260048101829052602401610439565b600382600381111561100c5761100c61146f565b036103e0576040516335e2f38360e21b815260048101829052602401610439565b6060600061103a8361106c565b604080516020808252818301909252919250600091906020820181803683375050509182525060208101929092525090565b600060ff8216601f81111561039157604051632cd44ac360e21b815260040160405180910390fd5b60005b838110156110af578181015183820152602001611097565b50506000910152565b600081518084526110d0816020860160208601611094565b601f01601f19169290920160200192915050565b6020815260006110f760208301846110b8565b9392505050565b80356001600160a01b038116811461111557600080fd5b919050565b6000806040838503121561112d57600080fd5b611136836110fe565b946020939093013593505050565b60008060006060848603121561115957600080fd5b611162846110fe565b9250611170602085016110fe565b9150604084013590509250925092565b60006020828403121561119257600080fd5b5035919050565b6000602082840312156111ab57600080fd5b6110f7826110fe565b60ff60f81b881681526000602060e060208401526111d560e084018a6110b8565b83810360408501526111e7818a6110b8565b606085018990526001600160a01b038816608086015260a0850187905284810360c08601528551808252602080880193509091019060005b8181101561123b5783518352928401929184019160010161121f565b50909c9b505050505050505050505050565b600080600080600080600060e0888a03121561126857600080fd5b611271886110fe565b965061127f602089016110fe565b95506040880135945060608801359350608088013560ff811681146112a357600080fd5b9699959850939692959460a0840135945060c09093013592915050565b600080604083850312156112d357600080fd5b6112dc836110fe565b91506112ea602084016110fe565b90509250929050565b600181811c9082168061130757607f821691505b60208210810361132757634e487b7160e01b600052602260045260246000fd5b50919050565b6000808585111561133d57600080fd5b8386111561134a57600080fd5b5050820193919092039150565b6001600160e01b0319813581811691600485101561137f5780818660040360031b1b83161692505b505092915050565b6001600160a01b03841681526040602082018190528101829052818360608301376000818301606090810191909152601f909201601f1916010192915050565b8082018082111561039157634e487b7160e01b600052601160045260246000fd5b600082516113fa818460208701611094565b9190910192915050565b8051801515811461111557600080fd5b6000806040838503121561142757600080fd5b61143083611404565b9150602083015163ffffffff8116811461144957600080fd5b809150509250929050565b60006020828403121561146657600080fd5b6110f782611404565b634e487b7160e01b600052602160045260246000fdfea26469706673582212200c3061ccc79fb618acc06320ea768e7a08add0b18027ae26d0f2522c67b1a0e664736f6c63430008170033","linkReferences":{}},"methodIdentifiers":{"DOMAIN_SEPARATOR()":"3644e515","allowance(address,address)":"dd62ed3e","approve(address,uint256)":"095ea7b3","authority()":"bf7e214f","balanceOf(address)":"70a08231","burn(uint256)":"42966c68","burnFrom(address,uint256)":"79cc6790","decimals()":"313ce567","eip712Domain()":"84b0196e","isConsumingScheduledOp()":"8fb36037","mint(address,uint256)":"40c10f19","name()":"06fdde03","nonces(address)":"7ecebe00","permit(address,address,uint256,uint256,uint8,bytes32,bytes32)":"d505accf","setAuthority(address)":"7a9e5e4b","symbol()":"95d89b41","totalSupply()":"18160ddd","transfer(address,uint256)":"a9059cbb","transferFrom(address,address,uint256)":"23b872dd"},"id":67}