{"abi":[{"type":"constructor","inputs":[{"name":"_oracle","type":"address","internalType":"address"},{"name":"_authority","type":"address","internalType":"address"}],"stateMutability":"nonpayable"},{"type":"function","name":"addCollateral","inputs":[{"name":"asset","type":"address","internalType":"address"},{"name":"config","type":"tuple","internalType":"struct Reserve.Collateral","components":[{"name":"vault","type":"address","internalType":"address"},{"name":"baseLTV","type":"uint256","internalType":"uint256"},{"name":"liquidationThreshold","type":"uint256","internalType":"uint256"},{"name":"liquidationBonus","type":"uint256","internalType":"uint256"},{"name":"liquidationFee","type":"uint256","internalType":"uint256"},{"name":"maxDeposits","type":"uint256","internalType":"uint256"},{"name":"active","type":"bool","internalType":"bool"}]}],"outputs":[],"stateMutability":"nonpayable"},{"type":"function","name":"authority","inputs":[],"outputs":[{"name":"","type":"address","internalType":"address"}],"stateMutability":"view"},{"type":"function","name":"enabledCollaterals","inputs":[{"name":"","type":"address","internalType":"address"},{"name":"","type":"uint256","internalType":"uint256"}],"outputs":[{"name":"","type":"address","internalType":"address"}],"stateMutability":"view"},{"type":"function","name":"executeStake","inputs":[{"name":"user","type":"address","internalType":"address"},{"name":"asset","type":"address","internalType":"address"},{"name":"amount","type":"uint256","internalType":"uint256"},{"name":"onBehalfOf","type":"address","internalType":"address"},{"name":"data","type":"bytes","internalType":"bytes"}],"outputs":[{"name":"","type":"uint256","internalType":"uint256"}],"stateMutability":"nonpayable"},{"type":"function","name":"executeUnstake","inputs":[{"name":"user","type":"address","internalType":"address"},{"name":"receiver","type":"address","internalType":"address"},{"name":"asset","type":"address","internalType":"address"},{"name":"amount","type":"uint256","internalType":"uint256"},{"name":"","type":"bytes","internalType":"bytes"}],"outputs":[{"name":"","type":"uint256","internalType":"uint256"}],"stateMutability":"nonpayable"},{"type":"function","name":"getAllCollaterals","inputs":[],"outputs":[{"name":"","type":"address[]","internalType":"address[]"}],"stateMutability":"view"},{"type":"function","name":"getCollateralConfig","inputs":[{"name":"asset","type":"address","internalType":"address"}],"outputs":[{"name":"","type":"tuple","internalType":"struct Reserve.Collateral","components":[{"name":"vault","type":"address","internalType":"address"},{"name":"baseLTV","type":"uint256","internalType":"uint256"},{"name":"liquidationThreshold","type":"uint256","internalType":"uint256"},{"name":"liquidationBonus","type":"uint256","internalType":"uint256"},{"name":"liquidationFee","type":"uint256","internalType":"uint256"},{"name":"maxDeposits","type":"uint256","internalType":"uint256"},{"name":"active","type":"bool","internalType":"bool"}]}],"stateMutability":"view"},{"type":"function","name":"getUserAssetsUSD","inputs":[{"name":"user","type":"address","internalType":"address"}],"outputs":[{"name":"","type":"uint256","internalType":"uint256"}],"stateMutability":"view"},{"type":"function","name":"isConsumingScheduledOp","inputs":[],"outputs":[{"name":"","type":"bytes4","internalType":"bytes4"}],"stateMutability":"view"},{"type":"function","name":"oracle","inputs":[],"outputs":[{"name":"","type":"address","internalType":"contract Oracle"}],"stateMutability":"view"},{"type":"function","name":"removeCollateral","inputs":[{"name":"asset","type":"address","internalType":"address"}],"outputs":[],"stateMutability":"nonpayable"},{"type":"function","name":"setAuthority","inputs":[{"name":"newAuthority","type":"address","internalType":"address"}],"outputs":[],"stateMutability":"nonpayable"},{"type":"function","name":"updateCollateral","inputs":[{"name":"asset","type":"address","internalType":"address"},{"name":"config","type":"tuple","internalType":"struct Reserve.Collateral","components":[{"name":"vault","type":"address","internalType":"address"},{"name":"baseLTV","type":"uint256","internalType":"uint256"},{"name":"liquidationThreshold","type":"uint256","internalType":"uint256"},{"name":"liquidationBonus","type":"uint256","internalType":"uint256"},{"name":"liquidationFee","type":"uint256","internalType":"uint256"},{"name":"maxDeposits","type":"uint256","internalType":"uint256"},{"name":"active","type":"bool","internalType":"bool"}]}],"outputs":[],"stateMutability":"nonpayable"},{"type":"event","name":"AuthorityUpdated","inputs":[{"name":"authority","type":"address","indexed":false,"internalType":"address"}],"anonymous":false},{"type":"event","name":"CollateralRemoved","inputs":[{"name":"asset","type":"address","indexed":true,"internalType":"address"}],"anonymous":false},{"type":"event","name":"CollateralUpdated","inputs":[{"name":"asset","type":"address","indexed":true,"internalType":"address"},{"name":"collateral","type":"tuple","indexed":true,"internalType":"struct Reserve.Collateral","components":[{"name":"vault","type":"address","internalType":"address"},{"name":"baseLTV","type":"uint256","internalType":"uint256"},{"name":"liquidationThreshold","type":"uint256","internalType":"uint256"},{"name":"liquidationBonus","type":"uint256","internalType":"uint256"},{"name":"liquidationFee","type":"uint256","internalType":"uint256"},{"name":"maxDeposits","type":"uint256","internalType":"uint256"},{"name":"active","type":"bool","internalType":"bool"}]}],"anonymous":false},{"type":"event","name":"NewCollateral","inputs":[{"name":"asset","type":"address","indexed":true,"internalType":"address"},{"name":"collateral","type":"tuple","indexed":true,"internalType":"struct Reserve.Collateral","components":[{"name":"vault","type":"address","internalType":"address"},{"name":"baseLTV","type":"uint256","internalType":"uint256"},{"name":"liquidationThreshold","type":"uint256","internalType":"uint256"},{"name":"liquidationBonus","type":"uint256","internalType":"uint256"},{"name":"liquidationFee","type":"uint256","internalType":"uint256"},{"name":"maxDeposits","type":"uint256","internalType":"uint256"},{"name":"active","type":"bool","internalType":"bool"}]}],"anonymous":false},{"type":"error","name":"AccessManagedInvalidAuthority","inputs":[{"name":"authority","type":"address","internalType":"address"}]},{"type":"error","name":"AccessManagedRequiredDelay","inputs":[{"name":"caller","type":"address","internalType":"address"},{"name":"delay","type":"uint32","internalType":"uint32"}]},{"type":"error","name":"AccessManagedUnauthorized","inputs":[{"name":"caller","type":"address","internalType":"address"}]}],"bytecode":{"object":"0x60806040523480156200001157600080fd5b5060405162001b7638038062001b768339810160408190526200003491620000d9565b80620000408162000068565b5050600180546001600160a01b0319166001600160a01b039290921691909117905562000111565b600080546001600160a01b0319166001600160a01b0383169081179091556040519081527f2f658b440c35314f52658ea8a740e05b284cdc84dc9ae01e891f21b8933e7cad9060200160405180910390a150565b80516001600160a01b0381168114620000d457600080fd5b919050565b60008060408385031215620000ed57600080fd5b620000f883620000bc565b91506200010860208401620000bc565b90509250929050565b611a5580620001216000396000f3fe608060405234801561001057600080fd5b50600436106100cf5760003560e01c80638fb360371161008c578063bf7e214f11610066578063bf7e214f146101bc578063c99d3a06146101cd578063d6599934146101e0578063f6a44b38146101f357600080fd5b80638fb3603714610173578063a41c8c0b14610194578063ace6c09c146101a957600080fd5b80631dbb3b09146100d45780632b2b3e01146100fa57806342a0513d1461010d57806359c6b038146101225780637a9e5e4b146101355780637dc0d1d014610148575b600080fd5b6100e76100e2366004611476565b610262565b6040519081526020015b60405180910390f35b6100e76101083660046114ef565b6104c7565b61012061011b366004611560565b61075d565b005b610120610130366004611560565b610829565b6101206101433660046115f9565b610b79565b60015461015b906001600160a01b031681565b6040516001600160a01b0390911681526020016100f1565b61017b610bf3565b6040516001600160e01b031990911681526020016100f1565b61019c610c17565b6040516100f1919061161b565b6100e76101b73660046115f9565b610c79565b6000546001600160a01b031661015b565b6101206101db3660046115f9565b610e52565b61015b6101ee366004611668565b611024565b6102066102013660046115f9565b61105c565b6040516100f1919081516001600160a01b031681526020808301519082015260408083015190820152606080830151908201526080808301519082015260a0828101519082015260c09182015115159181019190915260e00190565b6000610271335b60003661111a565b6001600160a01b038481166000908152600260205260409081902080549151636ce5768960e11b815289841660048201528884166024820152604481018790529092919091169063d9caed1290606401600060405180830381600087803b1580156102db57600080fd5b505af11580156102ef573d6000803e3d6000fd5b50508254604051630359f7eb60e11b81526001600160a01b038b8116600483015290911692506306b3efd69150602401602060405180830381865afa15801561033c573d6000803e3d6000fd5b505050506040513d601f19601f820116820180604052508101906103609190611692565b6000036104bc5760005b6001600160a01b0388166000908152600360205260409020548110156104ba576001600160a01b038881166000908152600360205260409020805491881691839081106103b9576103b96116ab565b6000918252602090912001546001600160a01b0316036104b2576001600160a01b038816600090815260036020526040902080546103f9906001906116d7565b81548110610409576104096116ab565b60009182526020808320909101546001600160a01b038b8116845260039092526040909220805491909216919083908110610446576104466116ab565b600091825260208083209190910180546001600160a01b0319166001600160a01b03948516179055918a16815260039091526040902080548061048b5761048b6116f0565b600082815260209020810160001990810180546001600160a01b03191690550190556104ba565b60010161036a565b505b509195945050505050565b60006104d233610269565b6001600160a01b0385166000908152600260205260409020600681015460ff166105515760405162461bcd60e51b815260206004820152602560248201527f526573657276654d616e616765723a20436f6c6c61746572616c206e6f742061604482015264637469766560d81b60648201526084015b60405180910390fd5b600581015481546040805163ad7a672f60e01b815290516001600160a01b039092169163ad7a672f916004808201926020929091908290030181865afa15801561059f573d6000803e3d6000fd5b505050506040513d601f19601f820116820180604052508101906105c39190611692565b1061061c5760405162461bcd60e51b8152602060048201526024808201527f526573657276654d616e616765723a204d6178206465706f736974732072656160448201526318da195960e21b6064820152608401610548565b8054604051630359f7eb60e11b81526001600160a01b038681166004830152909116906306b3efd690602401602060405180830381865afa158015610665573d6000803e3d6000fd5b505050506040513d601f19601f820116820180604052508101906106899190611692565b1580156106965750600085115b156106da576001600160a01b0384811660009081526003602090815260408220805460018101825590835291200180546001600160a01b0319169188169190911790555b80546040516328a1d4ff60e11b81526001600160a01b0390911690635143a9fe9061070f908a9089908990899060040161172a565b6020604051808303816000875af115801561072e573d6000803e3d6000fd5b505050506040513d601f19601f820116820180604052508101906107529190611692565b979650505050505050565b61076633610269565b6001600160a01b03828116600090815260026020818152604092839020855181546001600160a01b031916951694909417845584015160018401558382015190830155606083015160038301556080830151600483015560a0830151600583015560c083015160068301805460ff1916911515919091179055516107ea919061177e565b604051908190038120906001600160a01b038416907f865761f7d4b36be681fcc07404e334da0bf6bac1767a28b0aad18fc299b7035f90600090a35050565b61083233610269565b600081602001511161089e5760405162461bcd60e51b815260206004820152602f60248201527f526573657276654d616e616765723a2042617365204c5456206d75737420626560448201526e02067726561746572207468616e203608c1b6064820152608401610548565b60008160400151116109185760405162461bcd60e51b815260206004820152603c60248201527f526573657276654d616e616765723a204c69717569646174696f6e207468726560448201527f73686f6c64206d7573742062652067726561746572207468616e2030000000006064820152608401610548565b8060c0015161097b5760405162461bcd60e51b815260206004820152602960248201527f526573657276654d616e616765723a20436f6c6c61746572616c206d7573742060448201526862652061637469766560b81b6064820152608401610548565b60008160600151116109f55760405162461bcd60e51b815260206004820152603860248201527f526573657276654d616e616765723a204c69717569646174696f6e20626f6e7560448201527f73206d7573742062652067726561746572207468616e203000000000000000006064820152608401610548565b6001600160a01b038281166000908152600260208181526040808420865181546001600160a01b031916961695909517855590850151600185015584015190830155606083015160038301556080830151600483015560a0830151600583015560c08301516006909201805460ff1916921515929092179091555b600454811015610b1357826001600160a01b031660048281548110610a9757610a976116ab565b6000918252602090912001546001600160a01b031603610b0b5760405162461bcd60e51b815260206004820152602960248201527f526573657276654d616e616765723a20436f6c6c61746572616c20616c72656160448201526864792065786973747360b81b6064820152608401610548565b600101610a70565b5060048054600181019091557f8a35acfbc15ff81a39ae7d344fd709f28e8600b4aa8c65c6b64bfe7fe36bd19b0180546001600160a01b0319166001600160a01b0384169081179091556000908152600260205260409081902090516107ea919061177e565b60005433906001600160a01b03168114610bb05760405162d1953b60e31b81526001600160a01b0382166004820152602401610548565b816001600160a01b03163b600003610be6576040516361798f2f60e11b81526001600160a01b0383166004820152602401610548565b610bef8261121a565b5050565b60008054600160a01b900460ff16610c0b5750600090565b50638fb3603760e01b90565b60606004805480602002602001604051908101604052809291908181526020018280548015610c6f57602002820191906000526020600020905b81546001600160a01b03168152600190910190602001808311610c51575b5050505050905090565b6001546001600160a01b038281166000908152600360205260408082209051634e91ecf960e11b8152919384938493911691639d23d9f291610cbe91906004016117d3565b600060405180830381865afa158015610cdb573d6000803e3d6000fd5b505050506040513d6000823e601f3d908101601f19168201604052610d039190810190611817565b905060005b6001600160a01b038516600090815260036020526040902054811015610e49576001600160a01b03851660009081526003602052604081208054600291839185908110610d5757610d576116ab565b60009182526020808320909101546001600160a01b0316835282019290925260400190206001810154845191925064e8d4a5100091859085908110610d9e57610d9e6116ab565b60209081029190910101518354604051630359f7eb60e11b81526001600160a01b038b81166004830152909116906306b3efd690602401602060405180830381865afa158015610df2573d6000803e3d6000fd5b505050506040513d601f19601f82011682018060405250810190610e169190611692565b610e2091906118bd565b610e2a91906118bd565b610e3491906118d4565b610e3e90856118f6565b935050600101610d08565b50909392505050565b610e5b33610269565b6001600160a01b0381166000908152600260208190526040822080546001600160a01b031916815560018101839055908101829055600381018290556004810182905560058101829055600601805460ff191690555b33600090815260036020526040902054811015610fec5733600090815260036020526040902080546001600160a01b038416919083908110610ef557610ef56116ab565b6000918252602090912001546001600160a01b031603610fe4573360009081526003602052604090208054610f2c906001906116d7565b81548110610f3c57610f3c6116ab565b60009182526020808320909101543383526003909152604090912080546001600160a01b039092169183908110610f7557610f756116ab565b600091825260208083209190910180546001600160a01b0319166001600160a01b039490941693909317909255338152600390915260409020805480610fbd57610fbd6116f0565b600082815260209020810160001990810180546001600160a01b0319169055019055610fec565b600101610eb1565b506040516001600160a01b038216907fd89d2ee68ab04dca0193f48a4aff55e20fa5ec0429a8a8c1c51b8dad6178a59390600090a250565b6003602052816000526040600020818154811061104057600080fd5b6000918252602090912001546001600160a01b03169150829050565b6110a76040518060e0016040528060006001600160a01b0316815260200160008152602001600081526020016000815260200160008152602001600081526020016000151581525090565b506001600160a01b03908116600090815260026020818152604092839020835160e0810185528154909516855260018101549185019190915290810154918301919091526003810154606083015260048101546080830152600581015460a08301526006015460ff16151560c082015290565b6000806111506111326000546001600160a01b031690565b863061114260046000898b611909565b61114b91611933565b61126e565b91509150816112135763ffffffff8116156111f0576000805460ff60a01b198116600160a01b17909155604051634a63ebf760e11b81526001600160a01b03909116906394c7d7ee906111ab90889088908890600401611963565b600060405180830381600087803b1580156111c557600080fd5b505af11580156111d9573d6000803e3d6000fd5b50506000805460ff60a01b19169055506112139050565b60405162d1953b60e31b81526001600160a01b0386166004820152602401610548565b5050505050565b600080546001600160a01b0319166001600160a01b0383169081179091556040519081527f2f658b440c35314f52658ea8a740e05b284cdc84dc9ae01e891f21b8933e7cad9060200160405180910390a150565b6040516001600160a01b03848116602483015283811660448301526001600160e01b03198316606483015260009182918291829189169060840160408051601f198184030181529181526020820180516001600160e01b031663b700961360e01b179052516112dd91906119a3565b600060405180830381855afa9150503d8060008114611318576040519150601f19603f3d011682016040523d82523d6000602084013e61131d565b606091505b5091509150811561136f57604081511061134f578080602001905181019061134591906119bf565b909450925061136f565b602081511061136f578080602001905181019061136c9190611a02565b93505b505094509492505050565b80356001600160a01b038116811461139157600080fd5b919050565b634e487b7160e01b600052604160045260246000fd5b60405160e0810167ffffffffffffffff811182821017156113cf576113cf611396565b60405290565b604051601f8201601f1916810167ffffffffffffffff811182821017156113fe576113fe611396565b604052919050565b600082601f83011261141757600080fd5b813567ffffffffffffffff81111561143157611431611396565b611444601f8201601f19166020016113d5565b81815284602083860101111561145957600080fd5b816020850160208301376000918101602001919091529392505050565b600080600080600060a0868803121561148e57600080fd5b6114978661137a565b94506114a56020870161137a565b93506114b36040870161137a565b925060608601359150608086013567ffffffffffffffff8111156114d657600080fd5b6114e288828901611406565b9150509295509295909350565b600080600080600060a0868803121561150757600080fd5b6115108661137a565b945061151e6020870161137a565b9350604086013592506115336060870161137a565b9150608086013567ffffffffffffffff8111156114d657600080fd5b801515811461155d57600080fd5b50565b60008082840361010081121561157557600080fd5b61157e8461137a565b925060e0601f198201121561159257600080fd5b5061159b6113ac565b6115a76020850161137a565b815260408401356020820152606084013560408201526080840135606082015260a0840135608082015260c084013560a082015260e08401356115e98161154f565b60c0820152919491935090915050565b60006020828403121561160b57600080fd5b6116148261137a565b9392505050565b6020808252825182820181905260009190848201906040850190845b8181101561165c5783516001600160a01b031683529284019291840191600101611637565b50909695505050505050565b6000806040838503121561167b57600080fd5b6116848361137a565b946020939093013593505050565b6000602082840312156116a457600080fd5b5051919050565b634e487b7160e01b600052603260045260246000fd5b634e487b7160e01b600052601160045260246000fd5b818103818111156116ea576116ea6116c1565b92915050565b634e487b7160e01b600052603160045260246000fd5b60005b83811015611721578181015183820152602001611709565b50506000910152565b600060018060a01b0380871683528560208401528085166040840152506080606083015282518060808401526117678160a0850160208701611706565b601f01601f19169190910160a00195945050505050565b81546001600160a01b0316815260018201546020820152600282015460408201526003820154606082015260048201546080820152600582015460a082015260069091015460ff16151560c082015260e00190565b6020808252825482820181905260008481528281209092916040850190845b8181101561165c5783546001600160a01b0316835260019384019392850192016117f2565b6000602080838503121561182a57600080fd5b825167ffffffffffffffff8082111561184257600080fd5b818501915085601f83011261185657600080fd5b81518181111561186857611868611396565b8060051b91506118798483016113d5565b818152918301840191848101908884111561189357600080fd5b938501935b838510156118b157845182529385019390850190611898565b98975050505050505050565b80820281158282048414176116ea576116ea6116c1565b6000826118f157634e487b7160e01b600052601260045260246000fd5b500490565b808201808211156116ea576116ea6116c1565b6000808585111561191957600080fd5b8386111561192657600080fd5b5050820193919092039150565b6001600160e01b0319813581811691600485101561195b5780818660040360031b1b83161692505b505092915050565b6001600160a01b03841681526040602082018190528101829052818360608301376000818301606090810191909152601f909201601f1916010192915050565b600082516119b5818460208701611706565b9190910192915050565b600080604083850312156119d257600080fd5b82516119dd8161154f565b602084015190925063ffffffff811681146119f757600080fd5b809150509250929050565b600060208284031215611a1457600080fd5b81516116148161154f56fea2646970667358221220182fa0860e35f0353bbbf2c73e0043129408a96e59efe8f1e2de0169d3bcd17164736f6c63430008170033","linkReferences":{}},"methodIdentifiers":{"addCollateral(address,(address,uint256,uint256,uint256,uint256,uint256,bool))":"59c6b038","authority()":"bf7e214f","enabledCollaterals(address,uint256)":"d6599934","executeStake(address,address,uint256,address,bytes)":"2b2b3e01","executeUnstake(address,address,address,uint256,bytes)":"1dbb3b09","getAllCollaterals()":"a41c8c0b","getCollateralConfig(address)":"f6a44b38","getUserAssetsUSD(address)":"ace6c09c","isConsumingScheduledOp()":"8fb36037","oracle()":"7dc0d1d0","removeCollateral(address)":"c99d3a06","setAuthority(address)":"7a9e5e4b","updateCollateral(address,(address,uint256,uint256,uint256,uint256,uint256,bool))":"42a0513d"},"id":75}