{"abi":[{"type":"constructor","inputs":[{"name":"_oracle","type":"address","internalType":"address"}],"stateMutability":"nonpayable"},{"type":"function","name":"enabledCollaterals","inputs":[{"name":"","type":"address","internalType":"address"},{"name":"","type":"uint256","internalType":"uint256"}],"outputs":[{"name":"","type":"address","internalType":"address"}],"stateMutability":"view"},{"type":"function","name":"getAllCollaterals","inputs":[],"outputs":[{"name":"","type":"address[]","internalType":"address[]"}],"stateMutability":"view"},{"type":"function","name":"getCollateralConfig","inputs":[{"name":"asset","type":"address","internalType":"address"}],"outputs":[{"name":"","type":"tuple","internalType":"struct Reserve.Collateral","components":[{"name":"vault","type":"address","internalType":"address"},{"name":"baseLTV","type":"uint256","internalType":"uint256"},{"name":"liquidationThreshold","type":"uint256","internalType":"uint256"},{"name":"liquidationBonus","type":"uint256","internalType":"uint256"},{"name":"liquidationFee","type":"uint256","internalType":"uint256"},{"name":"maxDeposits","type":"uint256","internalType":"uint256"},{"name":"active","type":"bool","internalType":"bool"}]}],"stateMutability":"view"},{"type":"function","name":"getUserAssetsUSD","inputs":[{"name":"user","type":"address","internalType":"address"}],"outputs":[{"name":"totalAssetsUSD","type":"uint256","internalType":"uint256"},{"name":"adjustedUSD","type":"uint256","internalType":"uint256"},{"name":"thresholdUSD","type":"uint256","internalType":"uint256"}],"stateMutability":"view"},{"type":"function","name":"oracle","inputs":[],"outputs":[{"name":"","type":"address","internalType":"contract Oracle"}],"stateMutability":"view"},{"type":"function","name":"stake","inputs":[{"name":"asset","type":"address","internalType":"address"},{"name":"amount","type":"uint256","internalType":"uint256"},{"name":"onBehalfOf","type":"address","internalType":"address"}],"outputs":[{"name":"","type":"uint256","internalType":"uint256"}],"stateMutability":"nonpayable"},{"type":"function","name":"stakedBalance","inputs":[{"name":"asset","type":"address","internalType":"address"},{"name":"user","type":"address","internalType":"address"}],"outputs":[{"name":"","type":"uint256","internalType":"uint256"}],"stateMutability":"view"},{"type":"function","name":"unstake","inputs":[{"name":"receiver","type":"address","internalType":"address"},{"name":"asset","type":"address","internalType":"address"},{"name":"amount","type":"uint256","internalType":"uint256"}],"outputs":[{"name":"","type":"uint256","internalType":"uint256"}],"stateMutability":"nonpayable"},{"type":"event","name":"CollateralRemoved","inputs":[{"name":"asset","type":"address","indexed":true,"internalType":"address"}],"anonymous":false},{"type":"event","name":"CollateralUpdated","inputs":[{"name":"asset","type":"address","indexed":true,"internalType":"address"},{"name":"config","type":"tuple","indexed":false,"internalType":"struct Reserve.Collateral","components":[{"name":"vault","type":"address","internalType":"address"},{"name":"baseLTV","type":"uint256","internalType":"uint256"},{"name":"liquidationThreshold","type":"uint256","internalType":"uint256"},{"name":"liquidationBonus","type":"uint256","internalType":"uint256"},{"name":"liquidationFee","type":"uint256","internalType":"uint256"},{"name":"maxDeposits","type":"uint256","internalType":"uint256"},{"name":"active","type":"bool","internalType":"bool"}]}],"anonymous":false},{"type":"event","name":"NewCollateral","inputs":[{"name":"asset","type":"address","indexed":true,"internalType":"address"},{"name":"config","type":"tuple","indexed":false,"internalType":"struct Reserve.Collateral","components":[{"name":"vault","type":"address","internalType":"address"},{"name":"baseLTV","type":"uint256","internalType":"uint256"},{"name":"liquidationThreshold","type":"uint256","internalType":"uint256"},{"name":"liquidationBonus","type":"uint256","internalType":"uint256"},{"name":"liquidationFee","type":"uint256","internalType":"uint256"},{"name":"maxDeposits","type":"uint256","internalType":"uint256"},{"name":"active","type":"bool","internalType":"bool"}]}],"anonymous":false}],"bytecode":{"object":"0x6080604052348015600f57600080fd5b506040516110fe3803806110fe833981016040819052602c916050565b600080546001600160a01b0319166001600160a01b0392909216919091179055607e565b600060208284031215606157600080fd5b81516001600160a01b0381168114607757600080fd5b9392505050565b6110718061008d6000396000f3fe608060405234801561001057600080fd5b50600436106100885760003560e01c8063a41c8c0b1161005b578063a41c8c0b14610104578063ace6c09c14610119578063d659993414610147578063f6a44b381461015a57600080fd5b8063294091cd1461008d57806360829f8a146100b35780637dc0d1d0146100c65780638229084b146100f1575b600080fd5b6100a061009b366004610bc2565b6101c9565b6040519081526020015b60405180910390f35b6100a06100c1366004610bfe565b61047f565b6000546100d9906001600160a01b031681565b6040516001600160a01b0390911681526020016100aa565b6100a06100ff366004610c3a565b610731565b61010c6107b7565b6040516100aa9190610c6d565b61012c610127366004610cba565b610819565b604080519384526020840192909252908201526060016100aa565b6100d9610155366004610cd5565b610ab3565b61016d610168366004610cba565b610aeb565b6040516100aa919081516001600160a01b031681526020808301519082015260408083015190820152606080830151908201526080808301519082015260a0828101519082015260c09182015115159181019190915260e00190565b60008083116101f35760405162461bcd60e51b81526004016101ea90610cff565b60405180910390fd5b6001600160a01b0384166000908152600160205260409020600681015460ff1661026d5760405162461bcd60e51b815260206004820152602560248201527f526573657276654d616e616765723a20436f6c6c61746572616c206e6f742061604482015264637469766560d81b60648201526084016101ea565b8054604051630359f7eb60e11b81526001600160a01b038581166004830152909116906306b3efd690602401602060405180830381865afa1580156102b6573d6000803e3d6000fd5b505050506040513d601f19601f820116820180604052508101906102da9190610d4c565b600003610320576001600160a01b0383811660009081526002602090815260408220805460018101825590835291200180546001600160a01b0319169187169190911790555b8054604051633d14d1b760e21b8152336004820152602481018690526001600160a01b0385811660448301529091169063f45346dc906064016020604051808303816000875af1158015610378573d6000803e3d6000fd5b505050506040513d601f19601f8201168201806040525081019061039c9190610d4c565b935080600501548160000160009054906101000a90046001600160a01b03166001600160a01b031663ad7a672f6040518163ffffffff1660e01b8152600401602060405180830381865afa1580156103f8573d6000803e3d6000fd5b505050506040513d601f19601f8201168201806040525081019061041c9190610d4c565b11156104765760405162461bcd60e51b8152602060048201526024808201527f526573657276654d616e616765723a2045786365656473206d6178206465706f6044820152637369747360e01b60648201526084016101ea565b50919392505050565b6001600160a01b0382166000908152600160205260408120826104b45760405162461bcd60e51b81526004016101ea90610cff565b80546001600160a01b031661050b5760405162461bcd60e51b815260206004820152601d60248201527f526573657276654d616e616765723a20496e76616c6964207661756c7400000060448201526064016101ea565b8054604051636ce5768960e11b81523360048201526001600160a01b038781166024830152604482018690529091169063d9caed1290606401600060405180830381600087803b15801561055e57600080fd5b505af1158015610572573d6000803e3d6000fd5b50508254604051630359f7eb60e11b81523360048201526001600160a01b0390911692506306b3efd69150602401602060405180830381865afa1580156105bd573d6000803e3d6000fd5b505050506040513d601f19601f820116820180604052508101906105e19190610d4c565b6000036107285760005b336000908152600260205260409020548110156107265733600090815260026020526040902080546001600160a01b03871691908390811061062f5761062f610d65565b6000918252602090912001546001600160a01b03160361071e57336000908152600260205260409020805461066690600190610d91565b8154811061067657610676610d65565b60009182526020808320909101543383526002909152604090912080546001600160a01b0390921691839081106106af576106af610d65565b600091825260208083209190910180546001600160a01b0319166001600160a01b0394909416939093179092553381526002909152604090208054806106f7576106f7610da4565b600082815260209020810160001990810180546001600160a01b0319169055019055610726565b6001016105eb565b505b50909392505050565b6001600160a01b03828116600090815260016020526040808220549051630359f7eb60e11b81528484166004820152919216906306b3efd690602401602060405180830381865afa15801561078a573d6000803e3d6000fd5b505050506040513d601f19601f820116820180604052508101906107ae9190610d4c565b90505b92915050565b6060600380548060200260200160405190810160405280929190818152602001828054801561080f57602002820191906000526020600020905b81546001600160a01b031681526001909101906020018083116107f1575b5050505050905090565b600080546001600160a01b038381168352600260205260408084209051634e91ecf960e11b8152849384938493911691639d23d9f29161085b91600401610dba565b600060405180830381865afa158015610878573d6000803e3d6000fd5b505050506040513d6000823e601f3d908101601f191682016040526108a09190810190610e14565b905060005b6001600160a01b038616600090815260026020526040902054811015610aaa576001600160a01b03861660009081526002602052604081208054839081106108ef576108ef610d65565b60009182526020808320909101546001600160a01b0316808352600182526040808420815163313ce56760e01b815291519295509392859263313ce5679260048082019392918290030181865afa15801561094e573d6000803e3d6000fd5b505050506040513d601f19601f820116820180604052508101906109729190610ed2565b61097d90600a610fe0565b61098b906305f5e100610fef565b85858151811061099d5761099d610d65565b60209081029190910101518354604051630359f7eb60e11b81526001600160a01b038d81166004830152909116906306b3efd690602401602060405180830381865afa1580156109f1573d6000803e3d6000fd5b505050506040513d601f19601f82011682018060405250810190610a159190610d4c565b610a2790670de0b6b3a7640000610fef565b610a319190610fef565b610a3b9190611006565b9050610a478189611028565b9750612710826001015482610a5c9190610fef565b610a669190611006565b610a709088611028565b9650612710826002015482610a859190610fef565b610a8f9190611006565b610a999087611028565b955050600190920191506108a59050565b50509193909250565b60026020528160005260406000208181548110610acf57600080fd5b6000918252602090912001546001600160a01b03169150829050565b610b366040518060e0016040528060006001600160a01b0316815260200160008152602001600081526020016000815260200160008152602001600081526020016000151581525090565b506001600160a01b03908116600090815260016020818152604092839020835160e0810185528154909516855291820154908401526002810154918301919091526003810154606083015260048101546080830152600581015460a08301526006015460ff16151560c082015290565b80356001600160a01b0381168114610bbd57600080fd5b919050565b600080600060608486031215610bd757600080fd5b610be084610ba6565b925060208401359150610bf560408501610ba6565b90509250925092565b600080600060608486031215610c1357600080fd5b610c1c84610ba6565b9250610c2a60208501610ba6565b9150604084013590509250925092565b60008060408385031215610c4d57600080fd5b610c5683610ba6565b9150610c6460208401610ba6565b90509250929050565b6020808252825182820181905260009190848201906040850190845b81811015610cae5783516001600160a01b031683529284019291840191600101610c89565b50909695505050505050565b600060208284031215610ccc57600080fd5b6107ae82610ba6565b60008060408385031215610ce857600080fd5b610cf183610ba6565b946020939093013593505050565b6020808252602d908201527f526573657276654d616e616765723a20416d6f756e74206d757374206265206760408201526c0726561746572207468616e203609c1b606082015260800190565b600060208284031215610d5e57600080fd5b5051919050565b634e487b7160e01b600052603260045260246000fd5b634e487b7160e01b600052601160045260246000fd5b818103818111156107b1576107b1610d7b565b634e487b7160e01b600052603160045260246000fd5b6020808252825482820181905260008481528281209092916040850190845b81811015610cae5783546001600160a01b031683526001938401939285019201610dd9565b634e487b7160e01b600052604160045260246000fd5b60006020808385031215610e2757600080fd5b825167ffffffffffffffff80821115610e3f57600080fd5b818501915085601f830112610e5357600080fd5b815181811115610e6557610e65610dfe565b8060051b604051601f19603f83011681018181108582111715610e8a57610e8a610dfe565b604052918252848201925083810185019188831115610ea857600080fd5b938501935b82851015610ec657845184529385019392850192610ead565b98975050505050505050565b600060208284031215610ee457600080fd5b815160ff81168114610ef557600080fd5b9392505050565b600181815b80851115610f37578160001904821115610f1d57610f1d610d7b565b80851615610f2a57918102915b93841c9390800290610f01565b509250929050565b600082610f4e575060016107b1565b81610f5b575060006107b1565b8160018114610f715760028114610f7b57610f97565b60019150506107b1565b60ff841115610f8c57610f8c610d7b565b50506001821b6107b1565b5060208310610133831016604e8410600b8410161715610fba575081810a6107b1565b610fc48383610efc565b8060001904821115610fd857610fd8610d7b565b029392505050565b60006107ae60ff841683610f3f565b80820281158282048414176107b1576107b1610d7b565b60008261102357634e487b7160e01b600052601260045260246000fd5b500490565b808201808211156107b1576107b1610d7b56fea2646970667358221220938fa32aa12922649356763eead74b789305eafa54d9cfa25438563aa7464a6664736f6c63430008190033","linkReferences":{}},"methodIdentifiers":{"enabledCollaterals(address,uint256)":"d6599934","getAllCollaterals()":"a41c8c0b","getCollateralConfig(address)":"f6a44b38","getUserAssetsUSD(address)":"ace6c09c","oracle()":"7dc0d1d0","stake(address,uint256,address)":"294091cd","stakedBalance(address,address)":"8229084b","unstake(address,address,uint256)":"60829f8a"},"id":73}