{"abi":[{"type":"constructor","inputs":[{"name":"__oracle","type":"address","internalType":"address"}],"stateMutability":"nonpayable"},{"type":"function","name":"_oracle","inputs":[],"outputs":[{"name":"","type":"address","internalType":"contract AbstractOracle"}],"stateMutability":"view"},{"type":"function","name":"allCollaterals","inputs":[{"name":"","type":"uint256","internalType":"uint256"}],"outputs":[{"name":"","type":"address","internalType":"address"}],"stateMutability":"view"},{"type":"function","name":"collaterals","inputs":[{"name":"","type":"address","internalType":"address"}],"outputs":[{"name":"vault","type":"address","internalType":"address"},{"name":"baseLTV","type":"uint256","internalType":"uint256"},{"name":"liquidationThreshold","type":"uint256","internalType":"uint256"},{"name":"liquidationBonus","type":"uint256","internalType":"uint256"},{"name":"liquidationFee","type":"uint256","internalType":"uint256"},{"name":"maxDeposits","type":"uint256","internalType":"uint256"},{"name":"active","type":"bool","internalType":"bool"}],"stateMutability":"view"},{"type":"function","name":"enabledCollaterals","inputs":[{"name":"","type":"address","internalType":"address"},{"name":"","type":"uint256","internalType":"uint256"}],"outputs":[{"name":"","type":"address","internalType":"address"}],"stateMutability":"view"},{"type":"function","name":"getAllCollaterals","inputs":[],"outputs":[{"name":"","type":"address[]","internalType":"address[]"}],"stateMutability":"view"},{"type":"function","name":"getAssetPrice","inputs":[{"name":"asset","type":"address","internalType":"address"}],"outputs":[{"name":"","type":"uint256","internalType":"uint256"}],"stateMutability":"view"},{"type":"function","name":"getAssetPrices","inputs":[{"name":"assets","type":"address[]","internalType":"address[]"}],"outputs":[{"name":"","type":"uint256[]","internalType":"uint256[]"}],"stateMutability":"view"},{"type":"function","name":"getCollateralConfig","inputs":[{"name":"asset","type":"address","internalType":"address"}],"outputs":[{"name":"","type":"tuple","internalType":"struct ReserveStorage.Collateral","components":[{"name":"vault","type":"address","internalType":"address"},{"name":"baseLTV","type":"uint256","internalType":"uint256"},{"name":"liquidationThreshold","type":"uint256","internalType":"uint256"},{"name":"liquidationBonus","type":"uint256","internalType":"uint256"},{"name":"liquidationFee","type":"uint256","internalType":"uint256"},{"name":"maxDeposits","type":"uint256","internalType":"uint256"},{"name":"active","type":"bool","internalType":"bool"}]}],"stateMutability":"view"},{"type":"function","name":"getOracle","inputs":[],"outputs":[{"name":"","type":"address","internalType":"contract AbstractOracle"}],"stateMutability":"view"},{"type":"function","name":"getUserAssetsUSD","inputs":[{"name":"user","type":"address","internalType":"address"}],"outputs":[{"name":"totalAssetsUSD","type":"uint256","internalType":"uint256"},{"name":"adjustedUSD","type":"uint256","internalType":"uint256"},{"name":"thresholdUSD","type":"uint256","internalType":"uint256"}],"stateMutability":"view"},{"type":"function","name":"stake","inputs":[{"name":"asset","type":"address","internalType":"address"},{"name":"amount","type":"uint256","internalType":"uint256"},{"name":"onBehalfOf","type":"address","internalType":"address"}],"outputs":[{"name":"","type":"uint256","internalType":"uint256"}],"stateMutability":"nonpayable"},{"type":"function","name":"stakedBalance","inputs":[{"name":"asset","type":"address","internalType":"address"},{"name":"user","type":"address","internalType":"address"}],"outputs":[{"name":"","type":"uint256","internalType":"uint256"}],"stateMutability":"view"},{"type":"function","name":"unstake","inputs":[{"name":"receiver","type":"address","internalType":"address"},{"name":"asset","type":"address","internalType":"address"},{"name":"amount","type":"uint256","internalType":"uint256"}],"outputs":[{"name":"","type":"uint256","internalType":"uint256"}],"stateMutability":"nonpayable"},{"type":"event","name":"CollateralRemoved","inputs":[{"name":"asset","type":"address","indexed":true,"internalType":"address"}],"anonymous":false},{"type":"event","name":"CollateralUpdated","inputs":[{"name":"asset","type":"address","indexed":true,"internalType":"address"},{"name":"config","type":"tuple","indexed":false,"internalType":"struct ReserveStorage.Collateral","components":[{"name":"vault","type":"address","internalType":"address"},{"name":"baseLTV","type":"uint256","internalType":"uint256"},{"name":"liquidationThreshold","type":"uint256","internalType":"uint256"},{"name":"liquidationBonus","type":"uint256","internalType":"uint256"},{"name":"liquidationFee","type":"uint256","internalType":"uint256"},{"name":"maxDeposits","type":"uint256","internalType":"uint256"},{"name":"active","type":"bool","internalType":"bool"}]}],"anonymous":false},{"type":"event","name":"NewCollateral","inputs":[{"name":"asset","type":"address","indexed":true,"internalType":"address"},{"name":"config","type":"tuple","indexed":false,"internalType":"struct ReserveStorage.Collateral","components":[{"name":"vault","type":"address","internalType":"address"},{"name":"baseLTV","type":"uint256","internalType":"uint256"},{"name":"liquidationThreshold","type":"uint256","internalType":"uint256"},{"name":"liquidationBonus","type":"uint256","internalType":"uint256"},{"name":"liquidationFee","type":"uint256","internalType":"uint256"},{"name":"maxDeposits","type":"uint256","internalType":"uint256"},{"name":"active","type":"bool","internalType":"bool"}]}],"anonymous":false}],"bytecode":{"object":"0x608060405234801561000f575f80fd5b5060405161140a38038061140a83398101604081905261002e916100c8565b6100378161003d565b506100f5565b6001600160a01b0381166100a65760405162461bcd60e51b815260206004820152602660248201527f4f7261636c6552656769737472793a20496e76616c6964206f7261636c65206160448201526564647265737360d01b606482015260840160405180910390fd5b600380546001600160a01b0319166001600160a01b0392909216919091179055565b5f602082840312156100d8575f80fd5b81516001600160a01b03811681146100ee575f80fd5b9392505050565b611308806101025f395ff3fe608060405234801561000f575f80fd5b50600436106100cb575f3560e01c8063933d649511610088578063b3596f0711610063578063b3596f07146101d1578063d6599934146101e4578063eeb97d3b146101f7578063f6a44b381461028f575f80fd5b8063933d64951461017b578063a41c8c0b1461018e578063ace6c09c146101a3575f80fd5b8063053c81b5146100cf578063247ac063146100f8578063294091cd1461012357806360829f8a146101445780638229084b14610157578063833b1fce1461016a575b5f80fd5b6100e26100dd366004610e31565b6102fe565b6040516100ef9190610ec9565b60405180910390f35b60035461010b906001600160a01b031681565b6040516001600160a01b0390911681526020016100ef565b610136610131366004610f0c565b610376565b6040519081526020016100ef565b610136610152366004610f45565b61061e565b610136610165366004610f7e565b6108c0565b6003546001600160a01b031661010b565b61010b610189366004610faf565b610941565b610196610969565b6040516100ef9190610fc6565b6101b66101b1366004611006565b6109c9565b604080519384526020840192909252908201526060016100ef565b6101366101df366004611006565b610c59565b61010b6101f236600461101f565b610cc5565b61024e610205366004611006565b5f6020819052908152604090208054600182015460028301546003840154600485015460058601546006909601546001600160a01b039095169593949293919290919060ff1687565b604080516001600160a01b0390981688526020880196909652948601939093526060850191909152608084015260a0830152151560c082015260e0016100ef565b6102a261029d366004611006565b610cf9565b6040516100ef919081516001600160a01b031681526020808301519082015260408083015190820152606080830151908201526080808301519082015260a0828101519082015260c09182015115159181019190915260e00190565b600354604051634e91ecf960e11b81526060916001600160a01b031690639d23d9f29061032f908590600401610fc6565b5f60405180830381865afa158015610349573d5f803e3d5ffd5b505050506040513d5f823e601f3d908101601f191682016040526103709190810190611047565b92915050565b5f80831161039f5760405162461bcd60e51b8152600401610396906110c8565b60405180910390fd5b6001600160a01b0384165f908152602081905260409020600681015460ff166104185760405162461bcd60e51b815260206004820152602560248201527f526573657276654d616e616765723a20436f6c6c61746572616c206e6f742061604482015264637469766560d81b6064820152608401610396565b8054604051630359f7eb60e11b81526001600160a01b038581166004830152909116906306b3efd690602401602060405180830381865afa15801561045f573d5f803e3d5ffd5b505050506040513d601f19601f820116820180604052508101906104839190611115565b5f036104c6576001600160a01b038381165f90815260016020818152604083208054928301815583529091200180546001600160a01b0319169187169190911790555b8054604051633d14d1b760e21b8152336004820152602481018690526001600160a01b0385811660448301529091169063f45346dc906064016020604051808303815f875af115801561051b573d5f803e3d5ffd5b505050506040513d601f19601f8201168201806040525081019061053f9190611115565b93508060050154815f015f9054906101000a90046001600160a01b03166001600160a01b031663ad7a672f6040518163ffffffff1660e01b8152600401602060405180830381865afa158015610597573d5f803e3d5ffd5b505050506040513d601f19601f820116820180604052508101906105bb9190611115565b11156106155760405162461bcd60e51b8152602060048201526024808201527f526573657276654d616e616765723a2045786365656473206d6178206465706f6044820152637369747360e01b6064820152608401610396565b50919392505050565b6001600160a01b0382165f908152602081905260408120826106525760405162461bcd60e51b8152600401610396906110c8565b80546001600160a01b03166106a95760405162461bcd60e51b815260206004820152601d60248201527f526573657276654d616e616765723a20496e76616c6964207661756c740000006044820152606401610396565b8054604051636ce5768960e11b81523360048201526001600160a01b038781166024830152604482018690529091169063d9caed12906064015f604051808303815f87803b1580156106f9575f80fd5b505af115801561070b573d5f803e3d5ffd5b50508254604051630359f7eb60e11b81523360048201526001600160a01b0390911692506306b3efd69150602401602060405180830381865afa158015610754573d5f803e3d5ffd5b505050506040513d601f19601f820116820180604052508101906107789190611115565b5f036108b7575f5b335f908152600160205260409020548110156108b557335f90815260016020526040902080546001600160a01b0387169190839081106107c2576107c261112c565b5f918252602090912001546001600160a01b0316036108ad57335f908152600160208190526040909120805490916107f991611154565b815481106108095761080961112c565b5f9182526020808320909101543383526001909152604090912080546001600160a01b0390921691839081106108415761084161112c565b5f91825260208083209190910180546001600160a01b0319166001600160a01b03949094169390931790925533815260019091526040902080548061088857610888611167565b5f8281526020902081015f1990810180546001600160a01b03191690550190556108b5565b600101610780565b505b50909392505050565b6001600160a01b038281165f90815260208190526040808220549051630359f7eb60e11b81528484166004820152919216906306b3efd690602401602060405180830381865afa158015610916573d5f803e3d5ffd5b505050506040513d601f19601f8201168201806040525081019061093a9190611115565b9392505050565b60028181548110610950575f80fd5b5f918252602090912001546001600160a01b0316905081565b606060028054806020026020016040519081016040528092919081815260200182805480156109bf57602002820191905f5260205f20905b81546001600160a01b031681526001909101906020018083116109a1575b5050505050905090565b5f805f80610a4f60015f876001600160a01b03166001600160a01b031681526020019081526020015f20805480602002602001604051908101604052809291908181526020018280548015610a4557602002820191905f5260205f20905b81546001600160a01b03168152600190910190602001808311610a27575b50505050506102fe565b90505f5b6001600160a01b0386165f90815260016020526040902054811015610c50576001600160a01b0386165f908152600160205260408120805483908110610a9b57610a9b61112c565b5f9182526020808320909101546001600160a01b03168083528282526040808420815163313ce56760e01b815291519295509392859263313ce5679260048082019392918290030181865afa158015610af6573d5f803e3d5ffd5b505050506040513d601f19601f82011682018060405250810190610b1a919061117b565b610b2590600a61127b565b610b33906305f5e100611289565b858581518110610b4557610b4561112c565b60209081029190910101518354604051630359f7eb60e11b81526001600160a01b038d81166004830152909116906306b3efd690602401602060405180830381865afa158015610b97573d5f803e3d5ffd5b505050506040513d601f19601f82011682018060405250810190610bbb9190611115565b610bcd90670de0b6b3a7640000611289565b610bd79190611289565b610be191906112a0565b9050610bed81896112bf565b9750612710826001015482610c029190611289565b610c0c91906112a0565b610c1690886112bf565b9650612710826002015482610c2b9190611289565b610c3591906112a0565b610c3f90876112bf565b95505060019092019150610a539050565b50509193909250565b60035460405163b3596f0760e01b81526001600160a01b0383811660048301525f92169063b3596f0790602401602060405180830381865afa158015610ca1573d5f803e3d5ffd5b505050506040513d601f19601f820116820180604052508101906103709190611115565b6001602052815f5260405f208181548110610cde575f80fd5b5f918252602090912001546001600160a01b03169150829050565b610d3d6040518060e001604052805f6001600160a01b031681526020015f81526020015f81526020015f81526020015f81526020015f81526020015f151581525090565b506001600160a01b039081165f9081526020818152604091829020825160e081018452815490941684526001810154918401919091526002810154918301919091526003810154606083015260048101546080830152600581015460a08301526006015460ff16151560c082015290565b634e487b7160e01b5f52604160045260245ffd5b604051601f8201601f1916810167ffffffffffffffff81118282101715610deb57610deb610dae565b604052919050565b5f67ffffffffffffffff821115610e0c57610e0c610dae565b5060051b60200190565b80356001600160a01b0381168114610e2c575f80fd5b919050565b5f6020808385031215610e42575f80fd5b823567ffffffffffffffff811115610e58575f80fd5b8301601f81018513610e68575f80fd5b8035610e7b610e7682610df3565b610dc2565b81815260059190911b82018301908381019087831115610e99575f80fd5b928401925b82841015610ebe57610eaf84610e16565b82529284019290840190610e9e565b979650505050505050565b602080825282518282018190525f9190848201906040850190845b81811015610f0057835183529284019291840191600101610ee4565b50909695505050505050565b5f805f60608486031215610f1e575f80fd5b610f2784610e16565b925060208401359150610f3c60408501610e16565b90509250925092565b5f805f60608486031215610f57575f80fd5b610f6084610e16565b9250610f6e60208501610e16565b9150604084013590509250925092565b5f8060408385031215610f8f575f80fd5b610f9883610e16565b9150610fa660208401610e16565b90509250929050565b5f60208284031215610fbf575f80fd5b5035919050565b602080825282518282018190525f9190848201906040850190845b81811015610f005783516001600160a01b031683529284019291840191600101610fe1565b5f60208284031215611016575f80fd5b61093a82610e16565b5f8060408385031215611030575f80fd5b61103983610e16565b946020939093013593505050565b5f6020808385031215611058575f80fd5b825167ffffffffffffffff81111561106e575f80fd5b8301601f8101851361107e575f80fd5b805161108c610e7682610df3565b81815260059190911b820183019083810190878311156110aa575f80fd5b928401925b82841015610ebe578351825292840192908401906110af565b6020808252602d908201527f526573657276654d616e616765723a20416d6f756e74206d757374206265206760408201526c0726561746572207468616e203609c1b606082015260800190565b5f60208284031215611125575f80fd5b5051919050565b634e487b7160e01b5f52603260045260245ffd5b634e487b7160e01b5f52601160045260245ffd5b8181038181111561037057610370611140565b634e487b7160e01b5f52603160045260245ffd5b5f6020828403121561118b575f80fd5b815160ff8116811461093a575f80fd5b600181815b808511156111d557815f19048211156111bb576111bb611140565b808516156111c857918102915b93841c93908002906111a0565b509250929050565b5f826111eb57506001610370565b816111f757505f610370565b816001811461120d576002811461121757611233565b6001915050610370565b60ff84111561122857611228611140565b50506001821b610370565b5060208310610133831016604e8410600b8410161715611256575081810a610370565b611260838361119b565b805f190482111561127357611273611140565b029392505050565b5f61093a60ff8416836111dd565b808202811582820484141761037057610370611140565b5f826112ba57634e487b7160e01b5f52601260045260245ffd5b500490565b808201808211156103705761037061114056fea2646970667358221220578a0cade9d18a7696b68efff6170957ff7c43e7671210ded4b03b7859a7d1a764736f6c63430008190033","linkReferences":{}},"methodIdentifiers":{"_oracle()":"247ac063","allCollaterals(uint256)":"933d6495","collaterals(address)":"eeb97d3b","enabledCollaterals(address,uint256)":"d6599934","getAllCollaterals()":"a41c8c0b","getAssetPrice(address)":"b3596f07","getAssetPrices(address[])":"053c81b5","getCollateralConfig(address)":"f6a44b38","getOracle()":"833b1fce","getUserAssetsUSD(address)":"ace6c09c","stake(address,uint256,address)":"294091cd","stakedBalance(address,address)":"8229084b","unstake(address,address,uint256)":"60829f8a"},"id":97}