{"abi":[{"type":"constructor","inputs":[{"name":"_oracle","type":"address","internalType":"address"},{"name":"_authority","type":"address","internalType":"address"}],"stateMutability":"nonpayable"},{"type":"function","name":"addCollateral","inputs":[{"name":"asset","type":"address","internalType":"address"},{"name":"config","type":"tuple","internalType":"struct Reserve.Collateral","components":[{"name":"vault","type":"address","internalType":"address"},{"name":"baseLTV","type":"uint256","internalType":"uint256"},{"name":"liquidationThreshold","type":"uint256","internalType":"uint256"},{"name":"liquidationBonus","type":"uint256","internalType":"uint256"},{"name":"liquidationFee","type":"uint256","internalType":"uint256"},{"name":"maxDeposits","type":"uint256","internalType":"uint256"},{"name":"active","type":"bool","internalType":"bool"}]}],"outputs":[],"stateMutability":"nonpayable"},{"type":"function","name":"authority","inputs":[],"outputs":[{"name":"","type":"address","internalType":"address"}],"stateMutability":"view"},{"type":"function","name":"enabledCollaterals","inputs":[{"name":"","type":"address","internalType":"address"},{"name":"","type":"uint256","internalType":"uint256"}],"outputs":[{"name":"","type":"address","internalType":"address"}],"stateMutability":"view"},{"type":"function","name":"executeStake","inputs":[{"name":"user","type":"address","internalType":"address"},{"name":"asset","type":"address","internalType":"address"},{"name":"amount","type":"uint256","internalType":"uint256"},{"name":"onBehalfOf","type":"address","internalType":"address"},{"name":"data","type":"bytes","internalType":"bytes"}],"outputs":[{"name":"","type":"uint256","internalType":"uint256"}],"stateMutability":"nonpayable"},{"type":"function","name":"executeUnstake","inputs":[{"name":"user","type":"address","internalType":"address"},{"name":"receiver","type":"address","internalType":"address"},{"name":"asset","type":"address","internalType":"address"},{"name":"amount","type":"uint256","internalType":"uint256"},{"name":"","type":"bytes","internalType":"bytes"}],"outputs":[{"name":"","type":"uint256","internalType":"uint256"}],"stateMutability":"nonpayable"},{"type":"function","name":"getAllCollaterals","inputs":[],"outputs":[{"name":"","type":"address[]","internalType":"address[]"}],"stateMutability":"view"},{"type":"function","name":"getCollateralConfig","inputs":[{"name":"asset","type":"address","internalType":"address"}],"outputs":[{"name":"","type":"tuple","internalType":"struct Reserve.Collateral","components":[{"name":"vault","type":"address","internalType":"address"},{"name":"baseLTV","type":"uint256","internalType":"uint256"},{"name":"liquidationThreshold","type":"uint256","internalType":"uint256"},{"name":"liquidationBonus","type":"uint256","internalType":"uint256"},{"name":"liquidationFee","type":"uint256","internalType":"uint256"},{"name":"maxDeposits","type":"uint256","internalType":"uint256"},{"name":"active","type":"bool","internalType":"bool"}]}],"stateMutability":"view"},{"type":"function","name":"getUserAssetsUSD","inputs":[{"name":"user","type":"address","internalType":"address"}],"outputs":[{"name":"totalAssetsUSD","type":"uint256","internalType":"uint256"},{"name":"adjustedUSD","type":"uint256","internalType":"uint256"},{"name":"thresholdUSD","type":"uint256","internalType":"uint256"}],"stateMutability":"view"},{"type":"function","name":"isConsumingScheduledOp","inputs":[],"outputs":[{"name":"","type":"bytes4","internalType":"bytes4"}],"stateMutability":"view"},{"type":"function","name":"oracle","inputs":[],"outputs":[{"name":"","type":"address","internalType":"contract Oracle"}],"stateMutability":"view"},{"type":"function","name":"removeCollateral","inputs":[{"name":"asset","type":"address","internalType":"address"}],"outputs":[],"stateMutability":"nonpayable"},{"type":"function","name":"setAuthority","inputs":[{"name":"newAuthority","type":"address","internalType":"address"}],"outputs":[],"stateMutability":"nonpayable"},{"type":"function","name":"updateCollateral","inputs":[{"name":"asset","type":"address","internalType":"address"},{"name":"config","type":"tuple","internalType":"struct Reserve.Collateral","components":[{"name":"vault","type":"address","internalType":"address"},{"name":"baseLTV","type":"uint256","internalType":"uint256"},{"name":"liquidationThreshold","type":"uint256","internalType":"uint256"},{"name":"liquidationBonus","type":"uint256","internalType":"uint256"},{"name":"liquidationFee","type":"uint256","internalType":"uint256"},{"name":"maxDeposits","type":"uint256","internalType":"uint256"},{"name":"active","type":"bool","internalType":"bool"}]}],"outputs":[],"stateMutability":"nonpayable"},{"type":"event","name":"AuthorityUpdated","inputs":[{"name":"authority","type":"address","indexed":false,"internalType":"address"}],"anonymous":false},{"type":"event","name":"CollateralRemoved","inputs":[{"name":"asset","type":"address","indexed":true,"internalType":"address"}],"anonymous":false},{"type":"event","name":"CollateralUpdated","inputs":[{"name":"asset","type":"address","indexed":true,"internalType":"address"},{"name":"collateral","type":"tuple","indexed":true,"internalType":"struct Reserve.Collateral","components":[{"name":"vault","type":"address","internalType":"address"},{"name":"baseLTV","type":"uint256","internalType":"uint256"},{"name":"liquidationThreshold","type":"uint256","internalType":"uint256"},{"name":"liquidationBonus","type":"uint256","internalType":"uint256"},{"name":"liquidationFee","type":"uint256","internalType":"uint256"},{"name":"maxDeposits","type":"uint256","internalType":"uint256"},{"name":"active","type":"bool","internalType":"bool"}]}],"anonymous":false},{"type":"event","name":"NewCollateral","inputs":[{"name":"asset","type":"address","indexed":true,"internalType":"address"},{"name":"collateral","type":"tuple","indexed":true,"internalType":"struct Reserve.Collateral","components":[{"name":"vault","type":"address","internalType":"address"},{"name":"baseLTV","type":"uint256","internalType":"uint256"},{"name":"liquidationThreshold","type":"uint256","internalType":"uint256"},{"name":"liquidationBonus","type":"uint256","internalType":"uint256"},{"name":"liquidationFee","type":"uint256","internalType":"uint256"},{"name":"maxDeposits","type":"uint256","internalType":"uint256"},{"name":"active","type":"bool","internalType":"bool"}]}],"anonymous":false},{"type":"error","name":"AccessManagedInvalidAuthority","inputs":[{"name":"authority","type":"address","internalType":"address"}]},{"type":"error","name":"AccessManagedRequiredDelay","inputs":[{"name":"caller","type":"address","internalType":"address"},{"name":"delay","type":"uint32","internalType":"uint32"}]},{"type":"error","name":"AccessManagedUnauthorized","inputs":[{"name":"caller","type":"address","internalType":"address"}]}],"bytecode":{"object":"0x60806040523480156200001157600080fd5b5060405162001da938038062001da98339810160408190526200003491620000d9565b80620000408162000068565b5050600180546001600160a01b0319166001600160a01b039290921691909117905562000111565b600080546001600160a01b0319166001600160a01b0383169081179091556040519081527f2f658b440c35314f52658ea8a740e05b284cdc84dc9ae01e891f21b8933e7cad9060200160405180910390a150565b80516001600160a01b0381168114620000d457600080fd5b919050565b60008060408385031215620000ed57600080fd5b620000f883620000bc565b91506200010860208401620000bc565b90509250929050565b611c8880620001216000396000f3fe608060405234801561001057600080fd5b50600436106100cf5760003560e01c80638fb360371161008c578063bf7e214f11610066578063bf7e214f146101d7578063c99d3a06146101e8578063d6599934146101fb578063f6a44b381461020e57600080fd5b80638fb3603714610173578063a41c8c0b14610194578063ace6c09c146101a957600080fd5b80631dbb3b09146100d45780632b2b3e01146100fa57806342a0513d1461010d57806359c6b038146101225780637a9e5e4b146101355780637dc0d1d014610148575b600080fd5b6100e76100e2366004611593565b61027d565b6040519081526020015b60405180910390f35b6100e761010836600461160c565b6104e2565b61012061011b36600461167d565b610778565b005b61012061013036600461167d565b610844565b610120610143366004611716565b610b94565b60015461015b906001600160a01b031681565b6040516001600160a01b0390911681526020016100f1565b61017b610c0e565b6040516001600160e01b031990911681526020016100f1565b61019c610c32565b6040516100f19190611738565b6101bc6101b7366004611716565b610c94565b604080519384526020840192909252908201526060016100f1565b6000546001600160a01b031661015b565b6101206101f6366004611716565b610f6f565b61015b610209366004611785565b611141565b61022161021c366004611716565b611179565b6040516100f1919081516001600160a01b031681526020808301519082015260408083015190820152606080830151908201526080808301519082015260a0828101519082015260c09182015115159181019190915260e00190565b600061028c335b600036611237565b6001600160a01b038481166000908152600260205260409081902080549151636ce5768960e11b815289841660048201528884166024820152604481018790529092919091169063d9caed1290606401600060405180830381600087803b1580156102f657600080fd5b505af115801561030a573d6000803e3d6000fd5b50508254604051630359f7eb60e11b81526001600160a01b038b8116600483015290911692506306b3efd69150602401602060405180830381865afa158015610357573d6000803e3d6000fd5b505050506040513d601f19601f8201168201806040525081019061037b91906117af565b6000036104d75760005b6001600160a01b0388166000908152600360205260409020548110156104d5576001600160a01b038881166000908152600360205260409020805491881691839081106103d4576103d46117c8565b6000918252602090912001546001600160a01b0316036104cd576001600160a01b03881660009081526003602052604090208054610414906001906117f4565b81548110610424576104246117c8565b60009182526020808320909101546001600160a01b038b8116845260039092526040909220805491909216919083908110610461576104616117c8565b600091825260208083209190910180546001600160a01b0319166001600160a01b03948516179055918a1681526003909152604090208054806104a6576104a661180d565b600082815260209020810160001990810180546001600160a01b03191690550190556104d5565b600101610385565b505b509195945050505050565b60006104ed33610284565b6001600160a01b0385166000908152600260205260409020600681015460ff1661056c5760405162461bcd60e51b815260206004820152602560248201527f526573657276654d616e616765723a20436f6c6c61746572616c206e6f742061604482015264637469766560d81b60648201526084015b60405180910390fd5b600581015481546040805163ad7a672f60e01b815290516001600160a01b039092169163ad7a672f916004808201926020929091908290030181865afa1580156105ba573d6000803e3d6000fd5b505050506040513d601f19601f820116820180604052508101906105de91906117af565b106106375760405162461bcd60e51b8152602060048201526024808201527f526573657276654d616e616765723a204d6178206465706f736974732072656160448201526318da195960e21b6064820152608401610563565b8054604051630359f7eb60e11b81526001600160a01b038681166004830152909116906306b3efd690602401602060405180830381865afa158015610680573d6000803e3d6000fd5b505050506040513d601f19601f820116820180604052508101906106a491906117af565b1580156106b15750600085115b156106f5576001600160a01b0384811660009081526003602090815260408220805460018101825590835291200180546001600160a01b0319169188169190911790555b80546040516328a1d4ff60e11b81526001600160a01b0390911690635143a9fe9061072a908a90899089908990600401611847565b6020604051808303816000875af1158015610749573d6000803e3d6000fd5b505050506040513d601f19601f8201168201806040525081019061076d91906117af565b979650505050505050565b61078133610284565b6001600160a01b03828116600090815260026020818152604092839020855181546001600160a01b031916951694909417845584015160018401558382015190830155606083015160038301556080830151600483015560a0830151600583015560c083015160068301805460ff191691151591909117905551610805919061189b565b604051908190038120906001600160a01b038416907f865761f7d4b36be681fcc07404e334da0bf6bac1767a28b0aad18fc299b7035f90600090a35050565b61084d33610284565b60008160200151116108b95760405162461bcd60e51b815260206004820152602f60248201527f526573657276654d616e616765723a2042617365204c5456206d75737420626560448201526e02067726561746572207468616e203608c1b6064820152608401610563565b60008160400151116109335760405162461bcd60e51b815260206004820152603c60248201527f526573657276654d616e616765723a204c69717569646174696f6e207468726560448201527f73686f6c64206d7573742062652067726561746572207468616e2030000000006064820152608401610563565b8060c001516109965760405162461bcd60e51b815260206004820152602960248201527f526573657276654d616e616765723a20436f6c6c61746572616c206d7573742060448201526862652061637469766560b81b6064820152608401610563565b6000816060015111610a105760405162461bcd60e51b815260206004820152603860248201527f526573657276654d616e616765723a204c69717569646174696f6e20626f6e7560448201527f73206d7573742062652067726561746572207468616e203000000000000000006064820152608401610563565b6001600160a01b038281166000908152600260208181526040808420865181546001600160a01b031916961695909517855590850151600185015584015190830155606083015160038301556080830151600483015560a0830151600583015560c08301516006909201805460ff1916921515929092179091555b600454811015610b2e57826001600160a01b031660048281548110610ab257610ab26117c8565b6000918252602090912001546001600160a01b031603610b265760405162461bcd60e51b815260206004820152602960248201527f526573657276654d616e616765723a20436f6c6c61746572616c20616c72656160448201526864792065786973747360b81b6064820152608401610563565b600101610a8b565b5060048054600181019091557f8a35acfbc15ff81a39ae7d344fd709f28e8600b4aa8c65c6b64bfe7fe36bd19b0180546001600160a01b0319166001600160a01b038416908117909155600090815260026020526040908190209051610805919061189b565b60005433906001600160a01b03168114610bcb5760405162d1953b60e31b81526001600160a01b0382166004820152602401610563565b816001600160a01b03163b600003610c01576040516361798f2f60e11b81526001600160a01b0383166004820152602401610563565b610c0a82611337565b5050565b60008054600160a01b900460ff16610c265750600090565b50638fb3603760e01b90565b60606004805480602002602001604051908101604052809291908181526020018280548015610c8a57602002820191906000526020600020905b81546001600160a01b03168152600190910190602001808311610c6c575b5050505050905090565b6001546001600160a01b038281166000908152600360205260408082209051634e91ecf960e11b815291938493849384939190921691639d23d9f291610cdc916004016118f0565b600060405180830381865afa158015610cf9573d6000803e3d6000fd5b505050506040513d6000823e601f3d908101601f19168201604052610d219190810190611934565b905060005b6001600160a01b038616600090815260036020526040902054811015610f66576001600160a01b03861660009081526003602052604081208054600291839185908110610d7557610d756117c8565b60009182526020808320909101546001600160a01b0390811684528382019490945260409283018220938b168252600390529081208054929350909184908110610dc157610dc16117c8565b600091825260209182902001546040805163313ce56760e01b815290516001600160a01b039092169263313ce567926004808401938290030181865afa158015610e0f573d6000803e3d6000fd5b505050506040513d601f19601f82011682018060405250810190610e3391906119da565b610e3e90600a611ae1565b610e4c906305f5e100611af0565b848481518110610e5e57610e5e6117c8565b60209081029190910101518354604051630359f7eb60e11b81526001600160a01b038c81166004830152909116906306b3efd690602401602060405180830381865afa158015610eb2573d6000803e3d6000fd5b505050506040513d601f19601f82011682018060405250810190610ed691906117af565b610ee890670de0b6b3a7640000611af0565b610ef29190611af0565b610efc9190611b07565b9050610f088188611b29565b9650612710826001015482610f1d9190611af0565b610f279190611b07565b610f319087611b29565b9550612710826002015482610f469190611af0565b610f509190611b07565b610f5a9086611b29565b94505050600101610d26565b50509193909250565b610f7833610284565b6001600160a01b0381166000908152600260208190526040822080546001600160a01b031916815560018101839055908101829055600381018290556004810182905560058101829055600601805460ff191690555b336000908152600360205260409020548110156111095733600090815260036020526040902080546001600160a01b038416919083908110611012576110126117c8565b6000918252602090912001546001600160a01b031603611101573360009081526003602052604090208054611049906001906117f4565b81548110611059576110596117c8565b60009182526020808320909101543383526003909152604090912080546001600160a01b039092169183908110611092576110926117c8565b600091825260208083209190910180546001600160a01b0319166001600160a01b0394909416939093179092553381526003909152604090208054806110da576110da61180d565b600082815260209020810160001990810180546001600160a01b0319169055019055611109565b600101610fce565b506040516001600160a01b038216907fd89d2ee68ab04dca0193f48a4aff55e20fa5ec0429a8a8c1c51b8dad6178a59390600090a250565b6003602052816000526040600020818154811061115d57600080fd5b6000918252602090912001546001600160a01b03169150829050565b6111c46040518060e0016040528060006001600160a01b0316815260200160008152602001600081526020016000815260200160008152602001600081526020016000151581525090565b506001600160a01b03908116600090815260026020818152604092839020835160e0810185528154909516855260018101549185019190915290810154918301919091526003810154606083015260048101546080830152600581015460a08301526006015460ff16151560c082015290565b60008061126d61124f6000546001600160a01b031690565b863061125f60046000898b611b3c565b61126891611b66565b61138b565b91509150816113305763ffffffff81161561130d576000805460ff60a01b198116600160a01b17909155604051634a63ebf760e11b81526001600160a01b03909116906394c7d7ee906112c890889088908890600401611b96565b600060405180830381600087803b1580156112e257600080fd5b505af11580156112f6573d6000803e3d6000fd5b50506000805460ff60a01b19169055506113309050565b60405162d1953b60e31b81526001600160a01b0386166004820152602401610563565b5050505050565b600080546001600160a01b0319166001600160a01b0383169081179091556040519081527f2f658b440c35314f52658ea8a740e05b284cdc84dc9ae01e891f21b8933e7cad9060200160405180910390a150565b6040516001600160a01b03848116602483015283811660448301526001600160e01b03198316606483015260009182918291829189169060840160408051601f198184030181529181526020820180516001600160e01b031663b700961360e01b179052516113fa9190611bd6565b600060405180830381855afa9150503d8060008114611435576040519150601f19603f3d011682016040523d82523d6000602084013e61143a565b606091505b5091509150811561148c57604081511061146c57808060200190518101906114629190611bf2565b909450925061148c565b602081511061148c57808060200190518101906114899190611c35565b93505b505094509492505050565b80356001600160a01b03811681146114ae57600080fd5b919050565b634e487b7160e01b600052604160045260246000fd5b60405160e0810167ffffffffffffffff811182821017156114ec576114ec6114b3565b60405290565b604051601f8201601f1916810167ffffffffffffffff8111828210171561151b5761151b6114b3565b604052919050565b600082601f83011261153457600080fd5b813567ffffffffffffffff81111561154e5761154e6114b3565b611561601f8201601f19166020016114f2565b81815284602083860101111561157657600080fd5b816020850160208301376000918101602001919091529392505050565b600080600080600060a086880312156115ab57600080fd5b6115b486611497565b94506115c260208701611497565b93506115d060408701611497565b925060608601359150608086013567ffffffffffffffff8111156115f357600080fd5b6115ff88828901611523565b9150509295509295909350565b600080600080600060a0868803121561162457600080fd5b61162d86611497565b945061163b60208701611497565b93506040860135925061165060608701611497565b9150608086013567ffffffffffffffff8111156115f357600080fd5b801515811461167a57600080fd5b50565b60008082840361010081121561169257600080fd5b61169b84611497565b925060e0601f19820112156116af57600080fd5b506116b86114c9565b6116c460208501611497565b815260408401356020820152606084013560408201526080840135606082015260a0840135608082015260c084013560a082015260e08401356117068161166c565b60c0820152919491935090915050565b60006020828403121561172857600080fd5b61173182611497565b9392505050565b6020808252825182820181905260009190848201906040850190845b818110156117795783516001600160a01b031683529284019291840191600101611754565b50909695505050505050565b6000806040838503121561179857600080fd5b6117a183611497565b946020939093013593505050565b6000602082840312156117c157600080fd5b5051919050565b634e487b7160e01b600052603260045260246000fd5b634e487b7160e01b600052601160045260246000fd5b81810381811115611807576118076117de565b92915050565b634e487b7160e01b600052603160045260246000fd5b60005b8381101561183e578181015183820152602001611826565b50506000910152565b600060018060a01b0380871683528560208401528085166040840152506080606083015282518060808401526118848160a0850160208701611823565b601f01601f19169190910160a00195945050505050565b81546001600160a01b0316815260018201546020820152600282015460408201526003820154606082015260048201546080820152600582015460a082015260069091015460ff16151560c082015260e00190565b6020808252825482820181905260008481528281209092916040850190845b818110156117795783546001600160a01b03168352600193840193928501920161190f565b6000602080838503121561194757600080fd5b825167ffffffffffffffff8082111561195f57600080fd5b818501915085601f83011261197357600080fd5b815181811115611985576119856114b3565b8060051b91506119968483016114f2565b81815291830184019184810190888411156119b057600080fd5b938501935b838510156119ce578451825293850193908501906119b5565b98975050505050505050565b6000602082840312156119ec57600080fd5b815160ff8116811461173157600080fd5b600181815b80851115611a38578160001904821115611a1e57611a1e6117de565b80851615611a2b57918102915b93841c9390800290611a02565b509250929050565b600082611a4f57506001611807565b81611a5c57506000611807565b8160018114611a725760028114611a7c57611a98565b6001915050611807565b60ff841115611a8d57611a8d6117de565b50506001821b611807565b5060208310610133831016604e8410600b8410161715611abb575081810a611807565b611ac583836119fd565b8060001904821115611ad957611ad96117de565b029392505050565b600061173160ff841683611a40565b8082028115828204841417611807576118076117de565b600082611b2457634e487b7160e01b600052601260045260246000fd5b500490565b80820180821115611807576118076117de565b60008085851115611b4c57600080fd5b83861115611b5957600080fd5b5050820193919092039150565b6001600160e01b03198135818116916004851015611b8e5780818660040360031b1b83161692505b505092915050565b6001600160a01b03841681526040602082018190528101829052818360608301376000818301606090810191909152601f909201601f1916010192915050565b60008251611be8818460208701611823565b9190910192915050565b60008060408385031215611c0557600080fd5b8251611c108161166c565b602084015190925063ffffffff81168114611c2a57600080fd5b809150509250929050565b600060208284031215611c4757600080fd5b81516117318161166c56fea2646970667358221220330bee191c9c429d3ce5f2323fb55f4c557abd6a03bb86fe81c6c5e9e7ccf69464736f6c63430008170033","linkReferences":{}},"methodIdentifiers":{"addCollateral(address,(address,uint256,uint256,uint256,uint256,uint256,bool))":"59c6b038","authority()":"bf7e214f","enabledCollaterals(address,uint256)":"d6599934","executeStake(address,address,uint256,address,bytes)":"2b2b3e01","executeUnstake(address,address,address,uint256,bytes)":"1dbb3b09","getAllCollaterals()":"a41c8c0b","getCollateralConfig(address)":"f6a44b38","getUserAssetsUSD(address)":"ace6c09c","isConsumingScheduledOp()":"8fb36037","oracle()":"7dc0d1d0","removeCollateral(address)":"c99d3a06","setAuthority(address)":"7a9e5e4b","updateCollateral(address,(address,uint256,uint256,uint256,uint256,uint256,bool))":"42a0513d"},"id":75}