{"abi":[{"type":"function","name":"getPythAddress","inputs":[{"name":"chainId","type":"uint256","internalType":"uint256"}],"outputs":[{"name":"","type":"address","internalType":"address"}],"stateMutability":"pure"},{"type":"function","name":"getSynthConfig","inputs":[],"outputs":[{"name":"synthPythIds","type":"bytes32[]","internalType":"bytes32[]"},{"name":"synthAssetNames","type":"string[]","internalType":"string[]"},{"name":"synthAssetSymbol","type":"string[]","internalType":"string[]"}],"stateMutability":"pure"}],"bytecode":{"object":"0x6105d9610039600b82828239805160001a607314602c57634e487b7160e01b600052600060045260246000fd5b30600052607381538281f3fe73000000000000000000000000000000000000000030146080604052600436106100405760003560e01c8063905ec5b214610045578063d1c86df214610075575b600080fd5b61005861005336600461047f565b61008c565b6040516001600160a01b0390911681526020015b60405180910390f35b61007d6101b5565b60405161006c93929190610520565b60008162014a34036100b3575073a2aa501b19aff244d90cc15a4cf739d2725b5729919050565b81610152036100d757507336825bf3fbdf5a29e2d5148bfe7dcf7b5639e320919050565b8161138b036100fb57507398046bd286715d3b0bc227dd7a956b83d8978603919050565b8162066eee036101205750734374e5a8b9c22271e9eb878a2aa31de97df15daf919050565b8162aa36a703610145575073dd24f84d36bf92c65f92307595335bdfab5bbd21919050565b81602903610168575073dd24f84d36bf92c65f92307595335bdfab5bbd21919050565b816101520361018c57507336825bf3fbdf5a29e2d5148bfe7dcf7b5639e320919050565b81610539036101b0575073a2aa501b19aff244d90cc15a4cf739d2725b5729919050565b919050565b60408051600380825260808201909252606091829182916020820183803683370190505092507fff61491a931112ddf1bd8147cd1b641375f79f5825126d665480874634fd0ace60001b836000815181106102125761021261058d565b6020026020010181815250507fe62df6c8b4a85fe1a67db44dc12de5db330f7ac66b72dc658afedf0f4a415b4360001b836001815181106102555761025561058d565b6020026020010181815250507fef0d8b6fda2ceba41da15d4095d1da392a0d2f8ed0c6c7bc0f4cfac8c280b56d60001b836002815181106102985761029861058d565b60209081029190910101526040805160038082526080820190925290816020015b60608152602001906001900390816102b95790505091506040518060400160405280600d81526020016c5245415820457468657265756d60981b815250826000815181106103095761030961058d565b60200260200101819052506040518060400160405280600c81526020016b2922a0ac102134ba31b7b4b760a11b8152508260018151811061034c5761034c61058d565b60200260200101819052506040518060400160405280600b81526020016a5245415820536f6c616e6160a81b8152508260028151811061038e5761038e61058d565b60209081029190910101526040805160038082526080820190925290816020015b60608152602001906001900390816103af579050509050604051806040016040528060058152602001640a4b08aa8960db1b815250816000815181106103f7576103f761058d565b602002602001018190525060405180604001604052806005815260200164525842544360d81b815250816001815181106104335761043361058d565b602002602001018190525060405180604001604052806005815260200164149614d3d360da1b8152508160028151811061046f5761046f61058d565b6020026020010181905250909192565b60006020828403121561049157600080fd5b5035919050565b600082825180855260208086019550808260051b8401018186016000805b8581101561051257601f1980888603018b5283518051808752845b818110156104ec578281018901518882018a015288016104d1565b5086810188018590529b87019b601f0190911690940185019350918401916001016104b6565b509198975050505050505050565b606080825284519082018190526000906020906080840190828801845b828110156105595781518452928401929084019060010161053d565b505050838103602085015261056e8187610498565b91505082810360408401526105838185610498565b9695505050505050565b634e487b7160e01b600052603260045260246000fdfea26469706673582212204dee4dd1e9e21a728289ea1ffee93c3462986385b4e1f518c369c0d8c783a72164736f6c63430008190033","linkReferences":{}},"methodIdentifiers":{"getPythAddress(uint256)":"905ec5b2","getSynthConfig()":"d1c86df2"},"id":57}