{"abi":[{"type":"constructor","inputs":[{"name":"_name","type":"string","internalType":"string"},{"name":"_symbol","type":"string","internalType":"string"},{"name":"_authority","type":"address","internalType":"address"}],"stateMutability":"nonpayable"},{"type":"function","name":"DOMAIN_SEPARATOR","inputs":[],"outputs":[{"name":"","type":"bytes32","internalType":"bytes32"}],"stateMutability":"view"},{"type":"function","name":"allowance","inputs":[{"name":"owner","type":"address","internalType":"address"},{"name":"spender","type":"address","internalType":"address"}],"outputs":[{"name":"","type":"uint256","internalType":"uint256"}],"stateMutability":"view"},{"type":"function","name":"approve","inputs":[{"name":"spender","type":"address","internalType":"address"},{"name":"value","type":"uint256","internalType":"uint256"}],"outputs":[{"name":"","type":"bool","internalType":"bool"}],"stateMutability":"nonpayable"},{"type":"function","name":"authority","inputs":[],"outputs":[{"name":"","type":"address","internalType":"address"}],"stateMutability":"view"},{"type":"function","name":"balanceOf","inputs":[{"name":"account","type":"address","internalType":"address"}],"outputs":[{"name":"","type":"uint256","internalType":"uint256"}],"stateMutability":"view"},{"type":"function","name":"decimals","inputs":[],"outputs":[{"name":"","type":"uint8","internalType":"uint8"}],"stateMutability":"view"},{"type":"function","name":"eip712Domain","inputs":[],"outputs":[{"name":"fields","type":"bytes1","internalType":"bytes1"},{"name":"name","type":"string","internalType":"string"},{"name":"version","type":"string","internalType":"string"},{"name":"chainId","type":"uint256","internalType":"uint256"},{"name":"verifyingContract","type":"address","internalType":"address"},{"name":"salt","type":"bytes32","internalType":"bytes32"},{"name":"extensions","type":"uint256[]","internalType":"uint256[]"}],"stateMutability":"view"},{"type":"function","name":"isConsumingScheduledOp","inputs":[],"outputs":[{"name":"","type":"bytes4","internalType":"bytes4"}],"stateMutability":"view"},{"type":"function","name":"mint","inputs":[{"name":"account","type":"address","internalType":"address"},{"name":"amount","type":"uint256","internalType":"uint256"}],"outputs":[],"stateMutability":"nonpayable"},{"type":"function","name":"name","inputs":[],"outputs":[{"name":"","type":"string","internalType":"string"}],"stateMutability":"view"},{"type":"function","name":"nonces","inputs":[{"name":"owner","type":"address","internalType":"address"}],"outputs":[{"name":"","type":"uint256","internalType":"uint256"}],"stateMutability":"view"},{"type":"function","name":"permit","inputs":[{"name":"owner","type":"address","internalType":"address"},{"name":"spender","type":"address","internalType":"address"},{"name":"value","type":"uint256","internalType":"uint256"},{"name":"deadline","type":"uint256","internalType":"uint256"},{"name":"v","type":"uint8","internalType":"uint8"},{"name":"r","type":"bytes32","internalType":"bytes32"},{"name":"s","type":"bytes32","internalType":"bytes32"}],"outputs":[],"stateMutability":"nonpayable"},{"type":"function","name":"setAuthority","inputs":[{"name":"newAuthority","type":"address","internalType":"address"}],"outputs":[],"stateMutability":"nonpayable"},{"type":"function","name":"symbol","inputs":[],"outputs":[{"name":"","type":"string","internalType":"string"}],"stateMutability":"view"},{"type":"function","name":"totalSupply","inputs":[],"outputs":[{"name":"","type":"uint256","internalType":"uint256"}],"stateMutability":"view"},{"type":"function","name":"transfer","inputs":[{"name":"to","type":"address","internalType":"address"},{"name":"value","type":"uint256","internalType":"uint256"}],"outputs":[{"name":"","type":"bool","internalType":"bool"}],"stateMutability":"nonpayable"},{"type":"function","name":"transferFrom","inputs":[{"name":"from","type":"address","internalType":"address"},{"name":"to","type":"address","internalType":"address"},{"name":"value","type":"uint256","internalType":"uint256"}],"outputs":[{"name":"","type":"bool","internalType":"bool"}],"stateMutability":"nonpayable"},{"type":"event","name":"Approval","inputs":[{"name":"owner","type":"address","indexed":true,"internalType":"address"},{"name":"spender","type":"address","indexed":true,"internalType":"address"},{"name":"value","type":"uint256","indexed":false,"internalType":"uint256"}],"anonymous":false},{"type":"event","name":"AuthorityUpdated","inputs":[{"name":"authority","type":"address","indexed":false,"internalType":"address"}],"anonymous":false},{"type":"event","name":"EIP712DomainChanged","inputs":[],"anonymous":false},{"type":"event","name":"Transfer","inputs":[{"name":"from","type":"address","indexed":true,"internalType":"address"},{"name":"to","type":"address","indexed":true,"internalType":"address"},{"name":"value","type":"uint256","indexed":false,"internalType":"uint256"}],"anonymous":false},{"type":"error","name":"AccessManagedInvalidAuthority","inputs":[{"name":"authority","type":"address","internalType":"address"}]},{"type":"error","name":"AccessManagedRequiredDelay","inputs":[{"name":"caller","type":"address","internalType":"address"},{"name":"delay","type":"uint32","internalType":"uint32"}]},{"type":"error","name":"AccessManagedUnauthorized","inputs":[{"name":"caller","type":"address","internalType":"address"}]},{"type":"error","name":"ECDSAInvalidSignature","inputs":[]},{"type":"error","name":"ECDSAInvalidSignatureLength","inputs":[{"name":"length","type":"uint256","internalType":"uint256"}]},{"type":"error","name":"ECDSAInvalidSignatureS","inputs":[{"name":"s","type":"bytes32","internalType":"bytes32"}]},{"type":"error","name":"ERC20InsufficientAllowance","inputs":[{"name":"spender","type":"address","internalType":"address"},{"name":"allowance","type":"uint256","internalType":"uint256"},{"name":"needed","type":"uint256","internalType":"uint256"}]},{"type":"error","name":"ERC20InsufficientBalance","inputs":[{"name":"sender","type":"address","internalType":"address"},{"name":"balance","type":"uint256","internalType":"uint256"},{"name":"needed","type":"uint256","internalType":"uint256"}]},{"type":"error","name":"ERC20InvalidApprover","inputs":[{"name":"approver","type":"address","internalType":"address"}]},{"type":"error","name":"ERC20InvalidReceiver","inputs":[{"name":"receiver","type":"address","internalType":"address"}]},{"type":"error","name":"ERC20InvalidSender","inputs":[{"name":"sender","type":"address","internalType":"address"}]},{"type":"error","name":"ERC20InvalidSpender","inputs":[{"name":"spender","type":"address","internalType":"address"}]},{"type":"error","name":"ERC2612ExpiredSignature","inputs":[{"name":"deadline","type":"uint256","internalType":"uint256"}]},{"type":"error","name":"ERC2612InvalidSigner","inputs":[{"name":"signer","type":"address","internalType":"address"},{"name":"owner","type":"address","internalType":"address"}]},{"type":"error","name":"InvalidAccountNonce","inputs":[{"name":"account","type":"address","internalType":"address"},{"name":"currentNonce","type":"uint256","internalType":"uint256"}]},{"type":"error","name":"InvalidShortString","inputs":[]},{"type":"error","name":"StringTooLong","inputs":[{"name":"str","type":"string","internalType":"string"}]}],"bytecode":{"object":"0x610160604052348015610010575f80fd5b5060405161188338038061188383398101604081905261002f91610299565b808380604051806040016040528060018152602001603160f81b8152508686816003908161005d919061039c565b50600461006a828261039c565b5061007a91508390506005610131565b61012052610089816006610131565b61014052815160208084019190912060e052815190820120610100524660a05261011560e05161010051604080517f8b73c3c69bb8fe3d512ecc4cf759cc79239f7b179b0ffacaa9a75d522b39400f60208201529081019290925260608201524660808201523060a08201525f9060c00160405160208183030381529060405280519060200120905090565b60805250503060c0525061012881610163565b505050506104b3565b5f60208351101561014c57610145836101b7565b905061015d565b81610157848261039c565b5060ff90505b92915050565b600880546001600160a01b0319166001600160a01b0383169081179091556040519081527f2f658b440c35314f52658ea8a740e05b284cdc84dc9ae01e891f21b8933e7cad9060200160405180910390a150565b5f80829050601f815111156101ea578260405163305a27a960e01b81526004016101e1919061045b565b60405180910390fd5b80516101f582610490565b179392505050565b634e487b7160e01b5f52604160045260245ffd5b5f82601f830112610220575f80fd5b81516001600160401b038082111561023a5761023a6101fd565b604051601f8301601f19908116603f01168101908282118183101715610262576102626101fd565b8160405283815286602085880101111561027a575f80fd5b8360208701602083015e5f602085830101528094505050505092915050565b5f805f606084860312156102ab575f80fd5b83516001600160401b03808211156102c1575f80fd5b6102cd87838801610211565b945060208601519150808211156102e2575f80fd5b506102ef86828701610211565b604086015190935090506001600160a01b038116811461030d575f80fd5b809150509250925092565b600181811c9082168061032c57607f821691505b60208210810361034a57634e487b7160e01b5f52602260045260245ffd5b50919050565b601f82111561039757805f5260205f20601f840160051c810160208510156103755750805b601f840160051c820191505b81811015610394575f8155600101610381565b50505b505050565b81516001600160401b038111156103b5576103b56101fd565b6103c9816103c38454610318565b84610350565b602080601f8311600181146103fc575f84156103e55750858301515b5f19600386901b1c1916600185901b178555610453565b5f85815260208120601f198616915b8281101561042a5788860151825594840194600190910190840161040b565b508582101561044757878501515f19600388901b60f8161c191681555b505060018460011b0185555b505050505050565b602081525f82518060208401528060208501604085015e5f604082850101526040601f19601f83011684010191505092915050565b8051602080830151919081101561034a575f1960209190910360031b1b16919050565b60805160a05160c05160e05161010051610120516101405161137f6105045f395f6109b101525f61098401525f6107ac01525f61078401525f6106df01525f61070901525f610733015261137f5ff3fe608060405234801561000f575f80fd5b5060043610610106575f3560e01c80637a9e5e4b1161009e57806395d89b411161006e57806395d89b4114610226578063a9059cbb1461022e578063bf7e214f14610241578063d505accf1461025c578063dd62ed3e1461026f575f80fd5b80637a9e5e4b146101c45780637ecebe00146101d757806384b0196e146101ea5780638fb3603714610205575f80fd5b8063313ce567116100d9578063313ce567146101705780633644e5151461017f57806340c10f191461018757806370a082311461019c575f80fd5b806306fdde031461010a578063095ea7b31461012857806318160ddd1461014b57806323b872dd1461015d575b5f80fd5b6101126102a7565b60405161011f9190610fea565b60405180910390f35b61013b61013636600461101e565b610337565b604051901515815260200161011f565b6002545b60405190815260200161011f565b61013b61016b366004611046565b610350565b6040516012815260200161011f565b61014f610373565b61019a61019536600461101e565b610381565b005b61014f6101aa36600461107f565b6001600160a01b03165f9081526020819052604090205490565b61019a6101d236600461107f565b61039a565b61014f6101e536600461107f565b610414565b6101f2610431565b60405161011f9796959493929190611098565b61020d610473565b6040516001600160e01b0319909116815260200161011f565b610112610497565b61013b61023c36600461101e565b6104a6565b6008546040516001600160a01b03909116815260200161011f565b61019a61026a36600461112f565b6104b3565b61014f61027d36600461119c565b6001600160a01b039182165f90815260016020908152604080832093909416825291909152205490565b6060600380546102b6906111cd565b80601f01602080910402602001604051908101604052809291908181526020018280546102e2906111cd565b801561032d5780601f106103045761010080835404028352916020019161032d565b820191905f5260205f20905b81548152906001019060200180831161031057829003601f168201915b5050505050905090565b5f336103448185856105e9565b60019150505b92915050565b5f3361035d8582856105fb565b610368858585610676565b506001949350505050565b5f61037c6106d3565b905090565b61038c335f366107fc565b61039682826108f5565b5050565b60085433906001600160a01b031681146103d65760405162d1953b60e31b81526001600160a01b03821660048201526024015b60405180910390fd5b816001600160a01b03163b5f0361040b576040516361798f2f60e11b81526001600160a01b03831660048201526024016103cd565b61039682610929565b6001600160a01b0381165f9081526007602052604081205461034a565b5f6060805f805f606061044261097d565b61044a6109aa565b604080515f80825260208201909252600f60f81b9b939a50919850469750309650945092509050565b6008545f90600160a01b900460ff1661048b57505f90565b50638fb3603760e01b90565b6060600480546102b6906111cd565b5f33610344818585610676565b834211156104d75760405163313c898160e11b8152600481018590526024016103cd565b5f7f6e71edae12b1b97f4d1f60370fef10105fa2faae0126114a169c64845d6126c98888886105228c6001600160a01b03165f90815260076020526040902080546001810190915590565b6040805160208101969096526001600160a01b0394851690860152929091166060840152608083015260a082015260c0810186905260e0016040516020818303038152906040528051906020012090505f61057c826109d7565b90505f61058b82878787610a03565b9050896001600160a01b0316816001600160a01b0316146105d2576040516325c0072360e11b81526001600160a01b0380831660048301528b1660248201526044016103cd565b6105dd8a8a8a6105e9565b50505050505050505050565b6105f68383836001610a2f565b505050565b6001600160a01b038381165f908152600160209081526040808320938616835292905220545f198114610670578181101561066257604051637dc7a0d960e11b81526001600160a01b038416600482015260248101829052604481018390526064016103cd565b61067084848484035f610a2f565b50505050565b6001600160a01b03831661069f57604051634b637e8f60e11b81525f60048201526024016103cd565b6001600160a01b0382166106c85760405163ec442f0560e01b81525f60048201526024016103cd565b6105f6838383610b01565b5f306001600160a01b037f00000000000000000000000000000000000000000000000000000000000000001614801561072b57507f000000000000000000000000000000000000000000000000000000000000000046145b1561075557507f000000000000000000000000000000000000000000000000000000000000000090565b61037c604080517f8b73c3c69bb8fe3d512ecc4cf759cc79239f7b179b0ffacaa9a75d522b39400f60208201527f0000000000000000000000000000000000000000000000000000000000000000918101919091527f000000000000000000000000000000000000000000000000000000000000000060608201524660808201523060a08201525f9060c00160405160208183030381529060405280519060200120905090565b5f806108306108136008546001600160a01b031690565b863061082260045f898b611205565b61082b9161122c565b610c27565b91509150816108ee5763ffffffff8116156108cb576008805460ff60a01b198116600160a01b17909155604051634a63ebf760e11b81526001600160a01b03909116906394c7d7ee9061088b9088908890889060040161125c565b5f604051808303815f87803b1580156108a2575f80fd5b505af11580156108b4573d5f803e3d5ffd5b50506008805460ff60a01b19169055506108ee9050565b60405162d1953b60e31b81526001600160a01b03861660048201526024016103cd565b5050505050565b6001600160a01b03821661091e5760405163ec442f0560e01b81525f60048201526024016103cd565b6103965f8383610b01565b600880546001600160a01b0319166001600160a01b0383169081179091556040519081527f2f658b440c35314f52658ea8a740e05b284cdc84dc9ae01e891f21b8933e7cad9060200160405180910390a150565b606061037c7f00000000000000000000000000000000000000000000000000000000000000006005610d2f565b606061037c7f00000000000000000000000000000000000000000000000000000000000000006006610d2f565b5f61034a6109e36106d3565b8360405161190160f01b8152600281019290925260228201526042902090565b5f805f80610a1388888888610dd8565b925092509250610a238282610ea0565b50909695505050505050565b6001600160a01b038416610a585760405163e602df0560e01b81525f60048201526024016103cd565b6001600160a01b038316610a8157604051634a1406b160e11b81525f60048201526024016103cd565b6001600160a01b038085165f908152600160209081526040808320938716835292905220829055801561067057826001600160a01b0316846001600160a01b03167f8c5be1e5ebec7d5bd14f71427d1e84f3dd0314c0f7b2291e5b200ac8c7c3b92584604051610af391815260200190565b60405180910390a350505050565b6001600160a01b038316610b2b578060025f828254610b20919061129b565b90915550610b9b9050565b6001600160a01b0383165f9081526020819052604090205481811015610b7d5760405163391434e360e21b81526001600160a01b038516600482015260248101829052604481018390526064016103cd565b6001600160a01b0384165f9081526020819052604090209082900390555b6001600160a01b038216610bb757600280548290039055610bd5565b6001600160a01b0382165f9081526020819052604090208054820190555b816001600160a01b0316836001600160a01b03167fddf252ad1be2c89b69c2b068fc378daa952ba7f163c4a11628f55a4df523b3ef83604051610c1a91815260200190565b60405180910390a3505050565b6040516001600160a01b03848116602483015283811660448301526001600160e01b0319831660648301525f9182918291829189169060840160408051601f198184030181529181526020820180516001600160e01b031663b700961360e01b17905251610c9591906112ba565b5f60405180830381855afa9150503d805f8114610ccd576040519150601f19603f3d011682016040523d82523d5f602084013e610cd2565b606091505b50915091508115610d24576040815110610d045780806020019051810190610cfa91906112df565b9094509250610d24565b6020815110610d245780806020019051810190610d21919061131c565b93505b505094509492505050565b606060ff8314610d4957610d4283610f58565b905061034a565b818054610d55906111cd565b80601f0160208091040260200160405190810160405280929190818152602001828054610d81906111cd565b8015610dcc5780601f10610da357610100808354040283529160200191610dcc565b820191905f5260205f20905b815481529060010190602001808311610daf57829003601f168201915b5050505050905061034a565b5f80807f7fffffffffffffffffffffffffffffff5d576e7357a4501ddfe92f46681b20a0841115610e1157505f91506003905082610e96565b604080515f808252602082018084528a905260ff891692820192909252606081018790526080810186905260019060a0016020604051602081039080840390855afa158015610e62573d5f803e3d5ffd5b5050604051601f1901519150506001600160a01b038116610e8d57505f925060019150829050610e96565b92505f91508190505b9450945094915050565b5f826003811115610eb357610eb3611335565b03610ebc575050565b6001826003811115610ed057610ed0611335565b03610eee5760405163f645eedf60e01b815260040160405180910390fd5b6002826003811115610f0257610f02611335565b03610f235760405163fce698f760e01b8152600481018290526024016103cd565b6003826003811115610f3757610f37611335565b03610396576040516335e2f38360e21b8152600481018290526024016103cd565b60605f610f6483610f95565b6040805160208082528183019092529192505f91906020820181803683375050509182525060208101929092525090565b5f60ff8216601f81111561034a57604051632cd44ac360e21b815260040160405180910390fd5b5f81518084528060208401602086015e5f602082860101526020601f19601f83011685010191505092915050565b602081525f610ffc6020830184610fbc565b9392505050565b80356001600160a01b0381168114611019575f80fd5b919050565b5f806040838503121561102f575f80fd5b61103883611003565b946020939093013593505050565b5f805f60608486031215611058575f80fd5b61106184611003565b925061106f60208501611003565b9150604084013590509250925092565b5f6020828403121561108f575f80fd5b610ffc82611003565b60ff60f81b881681525f602060e060208401526110b860e084018a610fbc565b83810360408501526110ca818a610fbc565b606085018990526001600160a01b038816608086015260a0850187905284810360c0860152855180825260208088019350909101905f5b8181101561111d57835183529284019291840191600101611101565b50909c9b505050505050505050505050565b5f805f805f805f60e0888a031215611145575f80fd5b61114e88611003565b965061115c60208901611003565b95506040880135945060608801359350608088013560ff8116811461117f575f80fd5b9699959850939692959460a0840135945060c09093013592915050565b5f80604083850312156111ad575f80fd5b6111b683611003565b91506111c460208401611003565b90509250929050565b600181811c908216806111e157607f821691505b6020821081036111ff57634e487b7160e01b5f52602260045260245ffd5b50919050565b5f8085851115611213575f80fd5b8386111561121f575f80fd5b5050820193919092039150565b6001600160e01b031981358181169160048510156112545780818660040360031b1b83161692505b505092915050565b6001600160a01b03841681526040602082018190528101829052818360608301375f818301606090810191909152601f909201601f1916010192915050565b8082018082111561034a57634e487b7160e01b5f52601160045260245ffd5b5f82518060208501845e5f920191825250919050565b80518015158114611019575f80fd5b5f80604083850312156112f0575f80fd5b6112f9836112d0565b9150602083015163ffffffff81168114611311575f80fd5b809150509250929050565b5f6020828403121561132c575f80fd5b610ffc826112d0565b634e487b7160e01b5f52602160045260245ffdfea26469706673582212204dc611b033b9cd629ca4041857d00051555b470ce63d3cdd75912ec033259aaa64736f6c63430008190033","linkReferences":{}},"methodIdentifiers":{"DOMAIN_SEPARATOR()":"3644e515","allowance(address,address)":"dd62ed3e","approve(address,uint256)":"095ea7b3","authority()":"bf7e214f","balanceOf(address)":"70a08231","decimals()":"313ce567","eip712Domain()":"84b0196e","isConsumingScheduledOp()":"8fb36037","mint(address,uint256)":"40c10f19","name()":"06fdde03","nonces(address)":"7ecebe00","permit(address,address,uint256,uint256,uint8,bytes32,bytes32)":"d505accf","setAuthority(address)":"7a9e5e4b","symbol()":"95d89b41","totalSupply()":"18160ddd","transfer(address,uint256)":"a9059cbb","transferFrom(address,address,uint256)":"23b872dd"},"id":80}