{"abi":[{"type":"constructor","inputs":[{"name":"_name","type":"string","internalType":"string"},{"name":"_symbol","type":"string","internalType":"string"},{"name":"_authority","type":"address","internalType":"address"}],"stateMutability":"nonpayable"},{"type":"function","name":"DOMAIN_SEPARATOR","inputs":[],"outputs":[{"name":"","type":"bytes32","internalType":"bytes32"}],"stateMutability":"view"},{"type":"function","name":"allowance","inputs":[{"name":"owner","type":"address","internalType":"address"},{"name":"spender","type":"address","internalType":"address"}],"outputs":[{"name":"","type":"uint256","internalType":"uint256"}],"stateMutability":"view"},{"type":"function","name":"approve","inputs":[{"name":"spender","type":"address","internalType":"address"},{"name":"value","type":"uint256","internalType":"uint256"}],"outputs":[{"name":"","type":"bool","internalType":"bool"}],"stateMutability":"nonpayable"},{"type":"function","name":"authority","inputs":[],"outputs":[{"name":"","type":"address","internalType":"address"}],"stateMutability":"view"},{"type":"function","name":"balanceOf","inputs":[{"name":"account","type":"address","internalType":"address"}],"outputs":[{"name":"","type":"uint256","internalType":"uint256"}],"stateMutability":"view"},{"type":"function","name":"decimals","inputs":[],"outputs":[{"name":"","type":"uint8","internalType":"uint8"}],"stateMutability":"view"},{"type":"function","name":"eip712Domain","inputs":[],"outputs":[{"name":"fields","type":"bytes1","internalType":"bytes1"},{"name":"name","type":"string","internalType":"string"},{"name":"version","type":"string","internalType":"string"},{"name":"chainId","type":"uint256","internalType":"uint256"},{"name":"verifyingContract","type":"address","internalType":"address"},{"name":"salt","type":"bytes32","internalType":"bytes32"},{"name":"extensions","type":"uint256[]","internalType":"uint256[]"}],"stateMutability":"view"},{"type":"function","name":"isConsumingScheduledOp","inputs":[],"outputs":[{"name":"","type":"bytes4","internalType":"bytes4"}],"stateMutability":"view"},{"type":"function","name":"mint","inputs":[{"name":"account","type":"address","internalType":"address"},{"name":"amount","type":"uint256","internalType":"uint256"}],"outputs":[],"stateMutability":"nonpayable"},{"type":"function","name":"name","inputs":[],"outputs":[{"name":"","type":"string","internalType":"string"}],"stateMutability":"view"},{"type":"function","name":"nonces","inputs":[{"name":"owner","type":"address","internalType":"address"}],"outputs":[{"name":"","type":"uint256","internalType":"uint256"}],"stateMutability":"view"},{"type":"function","name":"permit","inputs":[{"name":"owner","type":"address","internalType":"address"},{"name":"spender","type":"address","internalType":"address"},{"name":"value","type":"uint256","internalType":"uint256"},{"name":"deadline","type":"uint256","internalType":"uint256"},{"name":"v","type":"uint8","internalType":"uint8"},{"name":"r","type":"bytes32","internalType":"bytes32"},{"name":"s","type":"bytes32","internalType":"bytes32"}],"outputs":[],"stateMutability":"nonpayable"},{"type":"function","name":"setAuthority","inputs":[{"name":"newAuthority","type":"address","internalType":"address"}],"outputs":[],"stateMutability":"nonpayable"},{"type":"function","name":"symbol","inputs":[],"outputs":[{"name":"","type":"string","internalType":"string"}],"stateMutability":"view"},{"type":"function","name":"totalSupply","inputs":[],"outputs":[{"name":"","type":"uint256","internalType":"uint256"}],"stateMutability":"view"},{"type":"function","name":"transfer","inputs":[{"name":"to","type":"address","internalType":"address"},{"name":"value","type":"uint256","internalType":"uint256"}],"outputs":[{"name":"","type":"bool","internalType":"bool"}],"stateMutability":"nonpayable"},{"type":"function","name":"transferFrom","inputs":[{"name":"from","type":"address","internalType":"address"},{"name":"to","type":"address","internalType":"address"},{"name":"value","type":"uint256","internalType":"uint256"}],"outputs":[{"name":"","type":"bool","internalType":"bool"}],"stateMutability":"nonpayable"},{"type":"event","name":"Approval","inputs":[{"name":"owner","type":"address","indexed":true,"internalType":"address"},{"name":"spender","type":"address","indexed":true,"internalType":"address"},{"name":"value","type":"uint256","indexed":false,"internalType":"uint256"}],"anonymous":false},{"type":"event","name":"AuthorityUpdated","inputs":[{"name":"authority","type":"address","indexed":false,"internalType":"address"}],"anonymous":false},{"type":"event","name":"EIP712DomainChanged","inputs":[],"anonymous":false},{"type":"event","name":"Transfer","inputs":[{"name":"from","type":"address","indexed":true,"internalType":"address"},{"name":"to","type":"address","indexed":true,"internalType":"address"},{"name":"value","type":"uint256","indexed":false,"internalType":"uint256"}],"anonymous":false},{"type":"error","name":"AccessManagedInvalidAuthority","inputs":[{"name":"authority","type":"address","internalType":"address"}]},{"type":"error","name":"AccessManagedRequiredDelay","inputs":[{"name":"caller","type":"address","internalType":"address"},{"name":"delay","type":"uint32","internalType":"uint32"}]},{"type":"error","name":"AccessManagedUnauthorized","inputs":[{"name":"caller","type":"address","internalType":"address"}]},{"type":"error","name":"ECDSAInvalidSignature","inputs":[]},{"type":"error","name":"ECDSAInvalidSignatureLength","inputs":[{"name":"length","type":"uint256","internalType":"uint256"}]},{"type":"error","name":"ECDSAInvalidSignatureS","inputs":[{"name":"s","type":"bytes32","internalType":"bytes32"}]},{"type":"error","name":"ERC20InsufficientAllowance","inputs":[{"name":"spender","type":"address","internalType":"address"},{"name":"allowance","type":"uint256","internalType":"uint256"},{"name":"needed","type":"uint256","internalType":"uint256"}]},{"type":"error","name":"ERC20InsufficientBalance","inputs":[{"name":"sender","type":"address","internalType":"address"},{"name":"balance","type":"uint256","internalType":"uint256"},{"name":"needed","type":"uint256","internalType":"uint256"}]},{"type":"error","name":"ERC20InvalidApprover","inputs":[{"name":"approver","type":"address","internalType":"address"}]},{"type":"error","name":"ERC20InvalidReceiver","inputs":[{"name":"receiver","type":"address","internalType":"address"}]},{"type":"error","name":"ERC20InvalidSender","inputs":[{"name":"sender","type":"address","internalType":"address"}]},{"type":"error","name":"ERC20InvalidSpender","inputs":[{"name":"spender","type":"address","internalType":"address"}]},{"type":"error","name":"ERC2612ExpiredSignature","inputs":[{"name":"deadline","type":"uint256","internalType":"uint256"}]},{"type":"error","name":"ERC2612InvalidSigner","inputs":[{"name":"signer","type":"address","internalType":"address"},{"name":"owner","type":"address","internalType":"address"}]},{"type":"error","name":"InvalidAccountNonce","inputs":[{"name":"account","type":"address","internalType":"address"},{"name":"currentNonce","type":"uint256","internalType":"uint256"}]},{"type":"error","name":"InvalidShortString","inputs":[]},{"type":"error","name":"StringTooLong","inputs":[{"name":"str","type":"string","internalType":"string"}]}],"bytecode":{"object":"0x61016060405234801561001157600080fd5b50604051611952380380611952833981016040819052610030916102c2565b808380604051806040016040528060018152602001603160f81b8152508686816003908161005e91906103d2565b50600461006b82826103d2565b5061007b91508390506005610133565b6101205261008a816006610133565b61014052815160208084019190912060e052815190820120610100524660a05261011760e05161010051604080517f8b73c3c69bb8fe3d512ecc4cf759cc79239f7b179b0ffacaa9a75d522b39400f60208201529081019290925260608201524660808201523060a082015260009060c00160405160208183030381529060405280519060200120905090565b60805250503060c0525061012a81610166565b505050506104e8565b600060208351101561014f57610148836101ba565b9050610160565b8161015a84826103d2565b5060ff90505b92915050565b600880546001600160a01b0319166001600160a01b0383169081179091556040519081527f2f658b440c35314f52658ea8a740e05b284cdc84dc9ae01e891f21b8933e7cad9060200160405180910390a150565b600080829050601f815111156101ee578260405163305a27a960e01b81526004016101e59190610491565b60405180910390fd5b80516101f9826104c4565b179392505050565b634e487b7160e01b600052604160045260246000fd5b60005b8381101561023257818101518382015260200161021a565b50506000910152565b600082601f83011261024c57600080fd5b81516001600160401b038082111561026657610266610201565b604051601f8301601f19908116603f0116810190828211818310171561028e5761028e610201565b816040528381528660208588010111156102a757600080fd5b6102b8846020830160208901610217565b9695505050505050565b6000806000606084860312156102d757600080fd5b83516001600160401b03808211156102ee57600080fd5b6102fa8783880161023b565b9450602086015191508082111561031057600080fd5b5061031d8682870161023b565b604086015190935090506001600160a01b038116811461033c57600080fd5b809150509250925092565b600181811c9082168061035b57607f821691505b60208210810361037b57634e487b7160e01b600052602260045260246000fd5b50919050565b601f8211156103cd576000816000526020600020601f850160051c810160208610156103aa5750805b601f850160051c820191505b818110156103c9578281556001016103b6565b5050505b505050565b81516001600160401b038111156103eb576103eb610201565b6103ff816103f98454610347565b84610381565b602080601f831160018114610434576000841561041c5750858301515b600019600386901b1c1916600185901b1785556103c9565b600085815260208120601f198616915b8281101561046357888601518255948401946001909101908401610444565b50858210156104815787850151600019600388901b60f8161c191681555b5050505050600190811b01905550565b60208152600082518060208401526104b0816040850160208701610217565b601f01601f19169190910160400192915050565b8051602080830151919081101561037b5760001960209190910360031b1b16919050565b60805160a05160c05160e05161010051610120516101405161141061054260003960006109dc015260006109af015260006107cd015260006107a5015260006107000152600061072a0152600061075401526114106000f3fe608060405234801561001057600080fd5b506004361061010b5760003560e01c80637a9e5e4b116100a257806395d89b411161007157806395d89b411461022d578063a9059cbb14610235578063bf7e214f14610248578063d505accf14610263578063dd62ed3e1461027657600080fd5b80637a9e5e4b146101cb5780637ecebe00146101de57806384b0196e146101f15780638fb360371461020c57600080fd5b8063313ce567116100de578063313ce567146101765780633644e5151461018557806340c10f191461018d57806370a08231146101a257600080fd5b806306fdde0314610110578063095ea7b31461012e57806318160ddd1461015157806323b872dd14610163575b600080fd5b6101186102af565b6040516101259190611052565b60405180910390f35b61014161013c366004611088565b610341565b6040519015158152602001610125565b6002545b604051908152602001610125565b6101416101713660046110b2565b61035b565b60405160128152602001610125565b61015561037f565b6101a061019b366004611088565b61038e565b005b6101556101b03660046110ee565b6001600160a01b031660009081526020819052604090205490565b6101a06101d93660046110ee565b6103a8565b6101556101ec3660046110ee565b610423565b6101f9610441565b6040516101259796959493929190611109565b610214610487565b6040516001600160e01b03199091168152602001610125565b6101186104ad565b610141610243366004611088565b6104bc565b6008546040516001600160a01b039091168152602001610125565b6101a06102713660046111a2565b6104ca565b610155610284366004611215565b6001600160a01b03918216600090815260016020908152604080832093909416825291909152205490565b6060600380546102be90611248565b80601f01602080910402602001604051908101604052809291908181526020018280546102ea90611248565b80156103375780601f1061030c57610100808354040283529160200191610337565b820191906000526020600020905b81548152906001019060200180831161031a57829003601f168201915b5050505050905090565b60003361034f818585610604565b60019150505b92915050565b600033610369858285610616565b610374858585610694565b506001949350505050565b60006103896106f3565b905090565b61039a3360003661081e565b6103a4828261091e565b5050565b60085433906001600160a01b031681146103e45760405162d1953b60e31b81526001600160a01b03821660048201526024015b60405180910390fd5b816001600160a01b03163b60000361041a576040516361798f2f60e11b81526001600160a01b03831660048201526024016103db565b6103a482610954565b6001600160a01b038116600090815260076020526040812054610355565b6000606080600080600060606104556109a8565b61045d6109d5565b60408051600080825260208201909252600f60f81b9b939a50919850469750309650945092509050565b600854600090600160a01b900460ff166104a15750600090565b50638fb3603760e01b90565b6060600480546102be90611248565b60003361034f818585610694565b834211156104ee5760405163313c898160e11b8152600481018590526024016103db565b60007f6e71edae12b1b97f4d1f60370fef10105fa2faae0126114a169c64845d6126c988888861053b8c6001600160a01b0316600090815260076020526040902080546001810190915590565b6040805160208101969096526001600160a01b0394851690860152929091166060840152608083015260a082015260c0810186905260e001604051602081830303815290604052805190602001209050600061059682610a02565b905060006105a682878787610a2f565b9050896001600160a01b0316816001600160a01b0316146105ed576040516325c0072360e11b81526001600160a01b0380831660048301528b1660248201526044016103db565b6105f88a8a8a610604565b50505050505050505050565b6106118383836001610a5d565b505050565b6001600160a01b03838116600090815260016020908152604080832093861683529290522054600019811461068e578181101561067f57604051637dc7a0d960e11b81526001600160a01b038416600482015260248101829052604481018390526064016103db565b61068e84848484036000610a5d565b50505050565b6001600160a01b0383166106be57604051634b637e8f60e11b8152600060048201526024016103db565b6001600160a01b0382166106e85760405163ec442f0560e01b8152600060048201526024016103db565b610611838383610b32565b6000306001600160a01b037f00000000000000000000000000000000000000000000000000000000000000001614801561074c57507f000000000000000000000000000000000000000000000000000000000000000046145b1561077657507f000000000000000000000000000000000000000000000000000000000000000090565b610389604080517f8b73c3c69bb8fe3d512ecc4cf759cc79239f7b179b0ffacaa9a75d522b39400f60208201527f0000000000000000000000000000000000000000000000000000000000000000918101919091527f000000000000000000000000000000000000000000000000000000000000000060608201524660808201523060a082015260009060c00160405160208183030381529060405280519060200120905090565b6000806108546108366008546001600160a01b031690565b863061084660046000898b611282565b61084f916112ac565b610c5c565b91509150816109175763ffffffff8116156108f4576008805460ff60a01b198116600160a01b17909155604051634a63ebf760e11b81526001600160a01b03909116906394c7d7ee906108af908890889088906004016112dc565b600060405180830381600087803b1580156108c957600080fd5b505af11580156108dd573d6000803e3d6000fd5b50506008805460ff60a01b19169055506109179050565b60405162d1953b60e31b81526001600160a01b03861660048201526024016103db565b5050505050565b6001600160a01b0382166109485760405163ec442f0560e01b8152600060048201526024016103db565b6103a460008383610b32565b600880546001600160a01b0319166001600160a01b0383169081179091556040519081527f2f658b440c35314f52658ea8a740e05b284cdc84dc9ae01e891f21b8933e7cad9060200160405180910390a150565b60606103897f00000000000000000000000000000000000000000000000000000000000000006005610d68565b60606103897f00000000000000000000000000000000000000000000000000000000000000006006610d68565b6000610355610a0f6106f3565b8360405161190160f01b8152600281019290925260228201526042902090565b600080600080610a4188888888610e13565b925092509250610a518282610ee2565b50909695505050505050565b6001600160a01b038416610a875760405163e602df0560e01b8152600060048201526024016103db565b6001600160a01b038316610ab157604051634a1406b160e11b8152600060048201526024016103db565b6001600160a01b038085166000908152600160209081526040808320938716835292905220829055801561068e57826001600160a01b0316846001600160a01b03167f8c5be1e5ebec7d5bd14f71427d1e84f3dd0314c0f7b2291e5b200ac8c7c3b92584604051610b2491815260200190565b60405180910390a350505050565b6001600160a01b038316610b5d578060026000828254610b52919061131c565b90915550610bcf9050565b6001600160a01b03831660009081526020819052604090205481811015610bb05760405163391434e360e21b81526001600160a01b038516600482015260248101829052604481018390526064016103db565b6001600160a01b03841660009081526020819052604090209082900390555b6001600160a01b038216610beb57600280548290039055610c0a565b6001600160a01b03821660009081526020819052604090208054820190555b816001600160a01b0316836001600160a01b03167fddf252ad1be2c89b69c2b068fc378daa952ba7f163c4a11628f55a4df523b3ef83604051610c4f91815260200190565b60405180910390a3505050565b6040516001600160a01b03848116602483015283811660448301526001600160e01b03198316606483015260009182918291829189169060840160408051601f198184030181529181526020820180516001600160e01b031663b700961360e01b17905251610ccb919061133d565b600060405180830381855afa9150503d8060008114610d06576040519150601f19603f3d011682016040523d82523d6000602084013e610d0b565b606091505b50915091508115610d5d576040815110610d3d5780806020019051810190610d339190611369565b9094509250610d5d565b6020815110610d5d5780806020019051810190610d5a91906113a9565b93505b505094509492505050565b606060ff8314610d8257610d7b83610f9b565b9050610355565b818054610d8e90611248565b80601f0160208091040260200160405190810160405280929190818152602001828054610dba90611248565b8015610e075780601f10610ddc57610100808354040283529160200191610e07565b820191906000526020600020905b815481529060010190602001808311610dea57829003601f168201915b50505050509050610355565b600080807f7fffffffffffffffffffffffffffffff5d576e7357a4501ddfe92f46681b20a0841115610e4e5750600091506003905082610ed8565b604080516000808252602082018084528a905260ff891692820192909252606081018790526080810186905260019060a0016020604051602081039080840390855afa158015610ea2573d6000803e3d6000fd5b5050604051601f1901519150506001600160a01b038116610ece57506000925060019150829050610ed8565b9250600091508190505b9450945094915050565b6000826003811115610ef657610ef66113c4565b03610eff575050565b6001826003811115610f1357610f136113c4565b03610f315760405163f645eedf60e01b815260040160405180910390fd5b6002826003811115610f4557610f456113c4565b03610f665760405163fce698f760e01b8152600481018290526024016103db565b6003826003811115610f7a57610f7a6113c4565b036103a4576040516335e2f38360e21b8152600481018290526024016103db565b60606000610fa883610fda565b604080516020808252818301909252919250600091906020820181803683375050509182525060208101929092525090565b600060ff8216601f81111561035557604051632cd44ac360e21b815260040160405180910390fd5b60005b8381101561101d578181015183820152602001611005565b50506000910152565b6000815180845261103e816020860160208601611002565b601f01601f19169290920160200192915050565b6020815260006110656020830184611026565b9392505050565b80356001600160a01b038116811461108357600080fd5b919050565b6000806040838503121561109b57600080fd5b6110a48361106c565b946020939093013593505050565b6000806000606084860312156110c757600080fd5b6110d08461106c565b92506110de6020850161106c565b9150604084013590509250925092565b60006020828403121561110057600080fd5b6110658261106c565b60ff60f81b881681526000602060e0602084015261112a60e084018a611026565b838103604085015261113c818a611026565b606085018990526001600160a01b038816608086015260a0850187905284810360c08601528551808252602080880193509091019060005b8181101561119057835183529284019291840191600101611174565b50909c9b505050505050505050505050565b600080600080600080600060e0888a0312156111bd57600080fd5b6111c68861106c565b96506111d46020890161106c565b95506040880135945060608801359350608088013560ff811681146111f857600080fd5b9699959850939692959460a0840135945060c09093013592915050565b6000806040838503121561122857600080fd5b6112318361106c565b915061123f6020840161106c565b90509250929050565b600181811c9082168061125c57607f821691505b60208210810361127c57634e487b7160e01b600052602260045260246000fd5b50919050565b6000808585111561129257600080fd5b8386111561129f57600080fd5b5050820193919092039150565b6001600160e01b031981358181169160048510156112d45780818660040360031b1b83161692505b505092915050565b6001600160a01b03841681526040602082018190528101829052818360608301376000818301606090810191909152601f909201601f1916010192915050565b8082018082111561035557634e487b7160e01b600052601160045260246000fd5b6000825161134f818460208701611002565b9190910192915050565b8051801515811461108357600080fd5b6000806040838503121561137c57600080fd5b61138583611359565b9150602083015163ffffffff8116811461139e57600080fd5b809150509250929050565b6000602082840312156113bb57600080fd5b61106582611359565b634e487b7160e01b600052602160045260246000fdfea26469706673582212200a8f86595c10a451607d1c8de83424707f67c25685ba1f09f4789a6238843d5464736f6c63430008190033","linkReferences":{}},"methodIdentifiers":{"DOMAIN_SEPARATOR()":"3644e515","allowance(address,address)":"dd62ed3e","approve(address,uint256)":"095ea7b3","authority()":"bf7e214f","balanceOf(address)":"70a08231","decimals()":"313ce567","eip712Domain()":"84b0196e","isConsumingScheduledOp()":"8fb36037","mint(address,uint256)":"40c10f19","name()":"06fdde03","nonces(address)":"7ecebe00","permit(address,address,uint256,uint256,uint8,bytes32,bytes32)":"d505accf","setAuthority(address)":"7a9e5e4b","symbol()":"95d89b41","totalSupply()":"18160ddd","transfer(address,uint256)":"a9059cbb","transferFrom(address,address,uint256)":"23b872dd"},"id":66}