{"abi":[{"type":"function","name":"assetConfig","inputs":[{"name":"","type":"address","internalType":"address"}],"outputs":[{"name":"buyFee","type":"uint256","internalType":"uint256"},{"name":"sellFee","type":"uint256","internalType":"uint256"}],"stateMutability":"view"},{"type":"event","name":"AssetConfigUpdated","inputs":[{"name":"synth","type":"address","indexed":true,"internalType":"address"},{"name":"config","type":"tuple","indexed":false,"internalType":"struct SwapPluginStorage.AssetConfig","components":[{"name":"buyFee","type":"uint256","internalType":"uint256"},{"name":"sellFee","type":"uint256","internalType":"uint256"}]}],"anonymous":false}],"bytecode":{"object":"0x6080604052348015600e575f80fd5b5060c780601a5f395ff3fe6080604052348015600e575f80fd5b50600436106026575f3560e01c8063d6dbaf5814602a575b5f80fd5b604d60353660046066565b5f602081905290815260409020805460019091015482565b6040805192835260208301919091520160405180910390f35b5f602082840312156075575f80fd5b81356001600160a01b0381168114608a575f80fd5b939250505056fea2646970667358221220e614b580c84a1a28a9bfcb221bfd0d7092be9e2d84b4a0a9edcbfd392148702b64736f6c63430008190033","linkReferences":{}},"methodIdentifiers":{"assetConfig(address)":"d6dbaf58"},"id":105}