{"abi":[{"type":"constructor","inputs":[{"name":"__interestRate","type":"uint256","internalType":"uint256"},{"name":"_authority","type":"address","internalType":"address"}],"stateMutability":"nonpayable"},{"type":"function","name":"authority","inputs":[],"outputs":[{"name":"","type":"address","internalType":"address"}],"stateMutability":"view"},{"type":"function","name":"interestRate","inputs":[],"outputs":[{"name":"","type":"uint256","internalType":"uint256"}],"stateMutability":"view"},{"type":"function","name":"isConsumingScheduledOp","inputs":[],"outputs":[{"name":"","type":"bytes4","internalType":"bytes4"}],"stateMutability":"view"},{"type":"function","name":"setAuthority","inputs":[{"name":"newAuthority","type":"address","internalType":"address"}],"outputs":[],"stateMutability":"nonpayable"},{"type":"function","name":"setInterestRate","inputs":[{"name":"__interestRate","type":"uint256","internalType":"uint256"}],"outputs":[],"stateMutability":"nonpayable"},{"type":"event","name":"AuthorityUpdated","inputs":[{"name":"authority","type":"address","indexed":false,"internalType":"address"}],"anonymous":false},{"type":"error","name":"AccessManagedInvalidAuthority","inputs":[{"name":"authority","type":"address","internalType":"address"}]},{"type":"error","name":"AccessManagedRequiredDelay","inputs":[{"name":"caller","type":"address","internalType":"address"},{"name":"delay","type":"uint32","internalType":"uint32"}]},{"type":"error","name":"AccessManagedUnauthorized","inputs":[{"name":"caller","type":"address","internalType":"address"}]}],"bytecode":{"object":"0x6080604052348015600f57600080fd5b5060405161067d38038061067d833981016040819052602c916091565b80603481603d565b505060015560cc565b600080546001600160a01b0319166001600160a01b0383169081179091556040519081527f2f658b440c35314f52658ea8a740e05b284cdc84dc9ae01e891f21b8933e7cad9060200160405180910390a150565b6000806040838503121560a357600080fd5b825160208401519092506001600160a01b038116811460c157600080fd5b809150509250929050565b6105a2806100db6000396000f3fe608060405234801561001057600080fd5b50600436106100575760003560e01c80635f84f3021461005c5780637a9e5e4b146100715780637c3a00fd146100845780638fb360371461009a578063bf7e214f146100bb575b600080fd5b61006f61006a3660046103ea565b6100d6565b005b61006f61007f366004610403565b6100e7565b6001546040519081526020015b60405180910390f35b6100a2610166565b6040516001600160e01b03199091168152602001610091565b6000546040516001600160a01b039091168152602001610091565b6100e23360003661018a565b600155565b60005433906001600160a01b031681146101235760405162d1953b60e31b81526001600160a01b03821660048201526024015b60405180910390fd5b816001600160a01b03163b600003610159576040516361798f2f60e11b81526001600160a01b038316600482015260240161011a565b6101628261028a565b5050565b60008054600160a01b900460ff1661017e5750600090565b50638fb3603760e01b90565b6000806101c06101a26000546001600160a01b031690565b86306101b260046000898b610433565b6101bb9161045d565b6102de565b91509150816102835763ffffffff811615610260576000805460ff60a01b198116600160a01b17909155604051634a63ebf760e11b81526001600160a01b03909116906394c7d7ee9061021b9088908890889060040161048d565b600060405180830381600087803b15801561023557600080fd5b505af1158015610249573d6000803e3d6000fd5b50506000805460ff60a01b19169055506102839050565b60405162d1953b60e31b81526001600160a01b038616600482015260240161011a565b5050505050565b600080546001600160a01b0319166001600160a01b0383169081179091556040519081527f2f658b440c35314f52658ea8a740e05b284cdc84dc9ae01e891f21b8933e7cad9060200160405180910390a150565b6040516001600160a01b03848116602483015283811660448301526001600160e01b03198316606483015260009182918291829189169060840160408051601f198184030181529181526020820180516001600160e01b031663b700961360e01b1790525161034d91906104cd565b600060405180830381855afa9150503d8060008114610388576040519150601f19603f3d011682016040523d82523d6000602084013e61038d565b606091505b509150915081156103df5760408151106103bf57808060200190518101906103b59190610511565b90945092506103df565b60208151106103df57808060200190518101906103dc9190610551565b93505b505094509492505050565b6000602082840312156103fc57600080fd5b5035919050565b60006020828403121561041557600080fd5b81356001600160a01b038116811461042c57600080fd5b9392505050565b6000808585111561044357600080fd5b8386111561045057600080fd5b5050820193919092039150565b6001600160e01b031981358181169160048510156104855780818660040360031b1b83161692505b505092915050565b6001600160a01b03841681526040602082018190528101829052818360608301376000818301606090810191909152601f909201601f1916010192915050565b6000825160005b818110156104ee57602081860181015185830152016104d4565b506000920191825250919050565b8051801515811461050c57600080fd5b919050565b6000806040838503121561052457600080fd5b61052d836104fc565b9150602083015163ffffffff8116811461054657600080fd5b809150509250929050565b60006020828403121561056357600080fd5b61042c826104fc56fea2646970667358221220f083427c6291e30e8bdd3dbd75ff92bd9758956eebb503576e539d0b4dfe006564736f6c63430008190033","linkReferences":{}},"methodIdentifiers":{"authority()":"bf7e214f","interestRate()":"7c3a00fd","isConsumingScheduledOp()":"8fb36037","setAuthority(address)":"7a9e5e4b","setInterestRate(uint256)":"5f84f302"},"id":71}