{"abi":[{"type":"constructor","inputs":[{"name":"__interestRate","type":"uint256","internalType":"uint256"},{"name":"_authority","type":"address","internalType":"address"}],"stateMutability":"nonpayable"},{"type":"function","name":"authority","inputs":[],"outputs":[{"name":"","type":"address","internalType":"address"}],"stateMutability":"view"},{"type":"function","name":"interestRate","inputs":[],"outputs":[{"name":"","type":"uint256","internalType":"uint256"}],"stateMutability":"view"},{"type":"function","name":"isConsumingScheduledOp","inputs":[],"outputs":[{"name":"","type":"bytes4","internalType":"bytes4"}],"stateMutability":"view"},{"type":"function","name":"setAuthority","inputs":[{"name":"newAuthority","type":"address","internalType":"address"}],"outputs":[],"stateMutability":"nonpayable"},{"type":"function","name":"setInterestRate","inputs":[{"name":"__interestRate","type":"uint256","internalType":"uint256"}],"outputs":[],"stateMutability":"nonpayable"},{"type":"event","name":"AuthorityUpdated","inputs":[{"name":"authority","type":"address","indexed":false,"internalType":"address"}],"anonymous":false},{"type":"error","name":"AccessManagedInvalidAuthority","inputs":[{"name":"authority","type":"address","internalType":"address"}]},{"type":"error","name":"AccessManagedRequiredDelay","inputs":[{"name":"caller","type":"address","internalType":"address"},{"name":"delay","type":"uint32","internalType":"uint32"}]},{"type":"error","name":"AccessManagedUnauthorized","inputs":[{"name":"caller","type":"address","internalType":"address"}]}],"bytecode":{"object":"0x6080604052348015600e575f80fd5b50604051610636380380610636833981016040819052602b91608f565b80603381603c565b505060015560c7565b5f80546001600160a01b0319166001600160a01b0383169081179091556040519081527f2f658b440c35314f52658ea8a740e05b284cdc84dc9ae01e891f21b8933e7cad9060200160405180910390a150565b5f8060408385031215609f575f80fd5b825160208401519092506001600160a01b038116811460bc575f80fd5b809150509250929050565b610562806100d45f395ff3fe608060405234801561000f575f80fd5b5060043610610055575f3560e01c80635f84f302146100595780637a9e5e4b1461006e5780637c3a00fd146100815780638fb3603714610097578063bf7e214f146100b8575b5f80fd5b61006c6100673660046103d2565b6100d2565b005b61006c61007c3660046103e9565b6100e2565b6001546040519081526020015b60405180910390f35b61009f61015f565b6040516001600160e01b0319909116815260200161008e565b5f546040516001600160a01b03909116815260200161008e565b6100dd335f36610181565b600155565b5f5433906001600160a01b0316811461011d5760405162d1953b60e31b81526001600160a01b03821660048201526024015b60405180910390fd5b816001600160a01b03163b5f03610152576040516361798f2f60e11b81526001600160a01b0383166004820152602401610114565b61015b82610277565b5050565b5f8054600160a01b900460ff1661017557505f90565b50638fb3603760e01b90565b5f806101b46101975f546001600160a01b031690565b86306101a660045f898b610416565b6101af9161043d565b6102ca565b91509150816102705763ffffffff81161561024d575f805460ff60a01b198116600160a01b17909155604051634a63ebf760e11b81526001600160a01b03909116906394c7d7ee9061020e9088908890889060040161046d565b5f604051808303815f87803b158015610225575f80fd5b505af1158015610237573d5f803e3d5ffd5b50505f805460ff60a01b19169055506102709050565b60405162d1953b60e31b81526001600160a01b0386166004820152602401610114565b5050505050565b5f80546001600160a01b0319166001600160a01b0383169081179091556040519081527f2f658b440c35314f52658ea8a740e05b284cdc84dc9ae01e891f21b8933e7cad9060200160405180910390a150565b6040516001600160a01b03848116602483015283811660448301526001600160e01b0319831660648301525f9182918291829189169060840160408051601f198184030181529181526020820180516001600160e01b031663b700961360e01b1790525161033891906104ac565b5f60405180830381855afa9150503d805f8114610370576040519150601f19603f3d011682016040523d82523d5f602084013e610375565b606091505b509150915081156103c75760408151106103a7578080602001905181019061039d91906104d6565b90945092506103c7565b60208151106103c757808060200190518101906103c49190610513565b93505b505094509492505050565b5f602082840312156103e2575f80fd5b5035919050565b5f602082840312156103f9575f80fd5b81356001600160a01b038116811461040f575f80fd5b9392505050565b5f8085851115610424575f80fd5b83861115610430575f80fd5b5050820193919092039150565b6001600160e01b031981358181169160048510156104655780818660040360031b1b83161692505b505092915050565b6001600160a01b03841681526040602082018190528101829052818360608301375f818301606090810191909152601f909201601f1916010192915050565b5f82518060208501845e5f920191825250919050565b805180151581146104d1575f80fd5b919050565b5f80604083850312156104e7575f80fd5b6104f0836104c2565b9150602083015163ffffffff81168114610508575f80fd5b809150509250929050565b5f60208284031215610523575f80fd5b61040f826104c256fea2646970667358221220156ef7f12fa2df3f2724d5b4d1d7e1a4a7a3450c4ea80957fe0ae5a4965295f364736f6c63430008190033","linkReferences":{}},"methodIdentifiers":{"authority()":"bf7e214f","interestRate()":"7c3a00fd","isConsumingScheduledOp()":"8fb36037","setAuthority(address)":"7a9e5e4b","setInterestRate(uint256)":"5f84f302"},"id":95}