{"abi":[{"type":"constructor","inputs":[{"name":"_reserve","type":"address","internalType":"address"},{"name":"_liquidity","type":"address","internalType":"address"},{"name":"_authority","type":"address","internalType":"address"}],"stateMutability":"nonpayable"},{"type":"function","name":"authority","inputs":[],"outputs":[{"name":"","type":"address","internalType":"address"}],"stateMutability":"view"},{"type":"function","name":"burn","inputs":[{"name":"onBehalfOf","type":"address","internalType":"address"},{"name":"amount","type":"uint256","internalType":"uint256"}],"outputs":[],"stateMutability":"nonpayable"},{"type":"function","name":"ensurePositive","inputs":[{"name":"user","type":"address","internalType":"address"}],"outputs":[{"name":"","type":"bool","internalType":"bool"}],"stateMutability":"view"},{"type":"function","name":"isConsumingScheduledOp","inputs":[],"outputs":[{"name":"","type":"bytes4","internalType":"bytes4"}],"stateMutability":"view"},{"type":"function","name":"liquidity","inputs":[],"outputs":[{"name":"","type":"address","internalType":"contract Liquidity"}],"stateMutability":"view"},{"type":"function","name":"mint","inputs":[{"name":"amount","type":"uint256","internalType":"uint256"},{"name":"onBehalfOf","type":"address","internalType":"address"},{"name":"receiver","type":"address","internalType":"address"}],"outputs":[],"stateMutability":"nonpayable"},{"type":"function","name":"reserve","inputs":[],"outputs":[{"name":"","type":"address","internalType":"contract Reserve"}],"stateMutability":"view"},{"type":"function","name":"setAuthority","inputs":[{"name":"newAuthority","type":"address","internalType":"address"}],"outputs":[],"stateMutability":"nonpayable"},{"type":"function","name":"stake","inputs":[{"name":"asset","type":"address","internalType":"address"},{"name":"onBehalfOf","type":"address","internalType":"address"},{"name":"amount","type":"uint256","internalType":"uint256"},{"name":"data","type":"bytes","internalType":"bytes"}],"outputs":[],"stateMutability":"nonpayable"},{"type":"function","name":"unstake","inputs":[{"name":"asset","type":"address","internalType":"address"},{"name":"receiver","type":"address","internalType":"address"},{"name":"amount","type":"uint256","internalType":"uint256"},{"name":"data","type":"bytes","internalType":"bytes"}],"outputs":[],"stateMutability":"nonpayable"},{"type":"event","name":"AuthorityUpdated","inputs":[{"name":"authority","type":"address","indexed":false,"internalType":"address"}],"anonymous":false},{"type":"error","name":"AccessManagedInvalidAuthority","inputs":[{"name":"authority","type":"address","internalType":"address"}]},{"type":"error","name":"AccessManagedRequiredDelay","inputs":[{"name":"caller","type":"address","internalType":"address"},{"name":"delay","type":"uint32","internalType":"uint32"}]},{"type":"error","name":"AccessManagedUnauthorized","inputs":[{"name":"caller","type":"address","internalType":"address"}]}],"bytecode":{"object":"0x608060405234801561001057600080fd5b50604051610a10380380610a1083398101604081905261002f916100dc565b806100398161006c565b5050600180546001600160a01b039384166001600160a01b0319918216179091556002805492909316911617905561011f565b600080546001600160a01b0319166001600160a01b0383169081179091556040519081527f2f658b440c35314f52658ea8a740e05b284cdc84dc9ae01e891f21b8933e7cad9060200160405180910390a150565b80516001600160a01b03811681146100d757600080fd5b919050565b6000806000606084860312156100f157600080fd5b6100fa846100c0565b9250610108602085016100c0565b9150610116604085016100c0565b90509250925092565b6108e28061012e6000396000f3fe608060405234801561001057600080fd5b506004361061009e5760003560e01c8063bf7e214f11610066578063bf7e214f1461012f578063c148cf8514610140578063ca66118714610153578063cd3293de14610176578063da39b3e71461018957600080fd5b80631a686502146100a35780634854b143146100d35780637a9e5e4b146100e85780638fb36037146100fb5780639dc29fac1461011c575b600080fd5b6002546100b6906001600160a01b031681565b6040516001600160a01b0390911681526020015b60405180910390f35b6100e66100e13660046105f0565b61019c565b005b6100e66100f63660046106cc565b61021e565b61010361029d565b6040516001600160e01b031990911681526020016100ca565b6100e661012a3660046106ee565b6102c1565b6000546001600160a01b03166100b6565b6100e661014e3660046105f0565b610331565b6101666101613660046106cc565b6103d8565b60405190151581526020016100ca565b6001546100b6906001600160a01b031681565b6100e6610197366004610718565b6104cc565b600154604051632b2b3e0160e01b81526001600160a01b0390911690632b2b3e01906101d4903390889087908990889060040161079a565b6020604051808303816000875af11580156101f3573d6000803e3d6000fd5b505050506040513d601f19601f8201168201806040525081019061021791906107e0565b5050505050565b60005433906001600160a01b0316811461025a5760405162d1953b60e31b81526001600160a01b03821660048201526024015b60405180910390fd5b816001600160a01b03163b600003610290576040516361798f2f60e11b81526001600160a01b0383166004820152602401610251565b6102998261056a565b5050565b60008054600160a01b900460ff166102b55750600090565b50638fb3603760e01b90565b600254604051636ba97d5960e11b81523360048201526001600160a01b038481166024830152604482018490529091169063d752fab290606401600060405180830381600087803b15801561031557600080fd5b505af1158015610329573d6000803e3d6000fd5b505050505050565b600154604051631dbb3b0960e01b81526001600160a01b0390911690631dbb3b099061036990339087908990889088906004016107f9565b6020604051808303816000875af1158015610388573d6000803e3d6000fd5b505050506040513d601f19601f820116820180604052508101906103ac91906107e0565b506103b6336103d8565b6103d25760405162461bcd60e51b815260040161025190610834565b50505050565b60025460405163d28e512d60e01b81526001600160a01b038381166004830152600092839291169063d28e512d90602401602060405180830381865afa158015610426573d6000803e3d6000fd5b505050506040513d601f19601f8201168201806040525081019061044a91906107e0565b600154604051632b39b02760e21b81526001600160a01b0386811660048301529293506000929091169063ace6c09c90602401606060405180830381865afa15801561049a573d6000803e3d6000fd5b505050506040513d601f19601f820116820180604052508101906104be919061087e565b509290921015949350505050565b6002546040516315d177b960e01b81523360048201526001600160a01b038481166024830152604482018690528381166064830152909116906315d177b990608401600060405180830381600087803b15801561052857600080fd5b505af115801561053c573d6000803e3d6000fd5b50505050610549826103d8565b6105655760405162461bcd60e51b815260040161025190610834565b505050565b600080546001600160a01b0319166001600160a01b0383169081179091556040519081527f2f658b440c35314f52658ea8a740e05b284cdc84dc9ae01e891f21b8933e7cad9060200160405180910390a150565b80356001600160a01b03811681146105d557600080fd5b919050565b634e487b7160e01b600052604160045260246000fd5b6000806000806080858703121561060657600080fd5b61060f856105be565b935061061d602086016105be565b925060408501359150606085013567ffffffffffffffff8082111561064157600080fd5b818701915087601f83011261065557600080fd5b813581811115610667576106676105da565b604051601f8201601f19908116603f0116810190838211818310171561068f5761068f6105da565b816040528281528a60208487010111156106a857600080fd5b82602086016020830137600060208483010152809550505050505092959194509250565b6000602082840312156106de57600080fd5b6106e7826105be565b9392505050565b6000806040838503121561070157600080fd5b61070a836105be565b946020939093013593505050565b60008060006060848603121561072d57600080fd5b8335925061073d602085016105be565b915061074b604085016105be565b90509250925092565b6000815180845260005b8181101561077a5760208185018101518683018201520161075e565b506000602082860101526020601f19601f83011685010191505092915050565b6001600160a01b0386811682528581166020830152604082018590528316606082015260a0608082018190526000906107d590830184610754565b979650505050505050565b6000602082840312156107f257600080fd5b5051919050565b6001600160a01b0386811682528581166020830152841660408201526060810183905260a0608082018190526000906107d590830184610754565b6020808252602a908201527f5278506f6f6c3a204163636f756e74206865616c74682062656c6f77204c5456604082015269081d1a1c995cda1bdb1960b21b606082015260800190565b60008060006060848603121561089357600080fd5b835192506020840151915060408401519050925092509256fea26469706673582212204a5278f6f95e37e7f7e170ebd3061acc1d67d6c5e987067a51ed3ce805ed986964736f6c63430008170033","linkReferences":{}},"methodIdentifiers":{"authority()":"bf7e214f","burn(address,uint256)":"9dc29fac","ensurePositive(address)":"ca661187","isConsumingScheduledOp()":"8fb36037","liquidity()":"1a686502","mint(uint256,address,address)":"da39b3e7","reserve()":"cd3293de","setAuthority(address)":"7a9e5e4b","stake(address,address,uint256,bytes)":"4854b143","unstake(address,address,uint256,bytes)":"c148cf85"},"id":77}