{"abi":[{"type":"constructor","inputs":[{"name":"_oracleAddress","type":"address","internalType":"address"},{"name":"_authority","type":"address","internalType":"address"},{"name":"_synthsToAdd","type":"address[]","internalType":"address[]"},{"name":"_maxSupplies","type":"uint256[]","internalType":"uint256[]"}],"stateMutability":"nonpayable"},{"type":"function","name":"_oracle","inputs":[],"outputs":[{"name":"","type":"address","internalType":"contract Oracle"}],"stateMutability":"view"},{"type":"function","name":"_plugins","inputs":[{"name":"","type":"uint256","internalType":"uint256"}],"outputs":[{"name":"","type":"address","internalType":"address"}],"stateMutability":"view"},{"type":"function","name":"_synthConfig","inputs":[{"name":"","type":"address","internalType":"address"}],"outputs":[{"name":"maxSupply","type":"uint256","internalType":"uint256"},{"name":"active","type":"bool","internalType":"bool"}],"stateMutability":"view"},{"type":"function","name":"_synths","inputs":[{"name":"","type":"uint256","internalType":"uint256"}],"outputs":[{"name":"","type":"address","internalType":"address"}],"stateMutability":"view"},{"type":"function","name":"addPlugin","inputs":[{"name":"plugin","type":"address","internalType":"address"}],"outputs":[],"stateMutability":"nonpayable"},{"type":"function","name":"authority","inputs":[],"outputs":[{"name":"","type":"address","internalType":"address"}],"stateMutability":"view"},{"type":"function","name":"getAllPlugins","inputs":[],"outputs":[{"name":"","type":"address[]","internalType":"address[]"}],"stateMutability":"view"},{"type":"function","name":"getAllSynths","inputs":[],"outputs":[{"name":"","type":"address[]","internalType":"address[]"}],"stateMutability":"view"},{"type":"function","name":"getAssetPrices","inputs":[{"name":"assets","type":"address[]","internalType":"address[]"}],"outputs":[{"name":"","type":"uint256[]","internalType":"uint256[]"}],"stateMutability":"view"},{"type":"function","name":"getOracle","inputs":[],"outputs":[{"name":"","type":"address","internalType":"contract Oracle"}],"stateMutability":"view"},{"type":"function","name":"getSynth","inputs":[{"name":"synth","type":"address","internalType":"address"}],"outputs":[{"name":"","type":"tuple","internalType":"struct RxPoolStorage.SynthConfig","components":[{"name":"maxSupply","type":"uint256","internalType":"uint256"},{"name":"active","type":"bool","internalType":"bool"}]}],"stateMutability":"view"},{"type":"function","name":"isConsumingScheduledOp","inputs":[],"outputs":[{"name":"","type":"bytes4","internalType":"bytes4"}],"stateMutability":"view"},{"type":"function","name":"mint","inputs":[{"name":"synth","type":"address","internalType":"address"},{"name":"amount","type":"uint256","internalType":"uint256"},{"name":"account","type":"address","internalType":"address"}],"outputs":[],"stateMutability":"nonpayable"},{"type":"function","name":"removePlugin","inputs":[{"name":"plugin","type":"address","internalType":"address"}],"outputs":[],"stateMutability":"nonpayable"},{"type":"function","name":"setAuthority","inputs":[{"name":"newAuthority","type":"address","internalType":"address"}],"outputs":[],"stateMutability":"nonpayable"},{"type":"function","name":"setOracle","inputs":[{"name":"_oracleAddress","type":"address","internalType":"address"}],"outputs":[],"stateMutability":"nonpayable"},{"type":"event","name":"AuthorityUpdated","inputs":[{"name":"authority","type":"address","indexed":false,"internalType":"address"}],"anonymous":false},{"type":"event","name":"PluginAdded","inputs":[{"name":"plugin","type":"address","indexed":true,"internalType":"address"}],"anonymous":false},{"type":"event","name":"PluginRemoved","inputs":[{"name":"plugin","type":"address","indexed":true,"internalType":"address"}],"anonymous":false},{"type":"event","name":"SynthAdded","inputs":[{"name":"synth","type":"address","indexed":false,"internalType":"address"}],"anonymous":false},{"type":"event","name":"SynthRemoved","inputs":[{"name":"synth","type":"address","indexed":false,"internalType":"address"}],"anonymous":false},{"type":"event","name":"SynthUpdated","inputs":[{"name":"synth","type":"address","indexed":false,"internalType":"address"},{"name":"config","type":"tuple","indexed":false,"internalType":"struct RxPoolStorage.SynthConfig","components":[{"name":"maxSupply","type":"uint256","internalType":"uint256"},{"name":"active","type":"bool","internalType":"bool"}]}],"anonymous":false},{"type":"error","name":"AccessManagedInvalidAuthority","inputs":[{"name":"authority","type":"address","internalType":"address"}]},{"type":"error","name":"AccessManagedRequiredDelay","inputs":[{"name":"caller","type":"address","internalType":"address"},{"name":"delay","type":"uint32","internalType":"uint32"}]},{"type":"error","name":"AccessManagedUnauthorized","inputs":[{"name":"caller","type":"address","internalType":"address"}]}],"bytecode":{"object":"0x608060405234801561001057600080fd5b506040516115ef3803806115ef83398101604081905261002f9161045f565b826100398161013d565b5061004384610191565b80518251146100a55760405162461bcd60e51b815260206004820152602360248201527f5278506f6f6c3a20496e76616c69642073796e746820636f6e6669677572617460448201526234b7b760e91b60648201526084015b60405180910390fd5b60005b8251811015610133576100d98382815181106100c6576100c6610543565b602002602001015161020960201b60201c565b61012b8382815181106100ee576100ee610543565b6020026020010151604051806040016040528085858151811061011357610113610543565b602090810291909101810151825260019101526102f2565b6001016100a8565b5050505050610559565b600080546001600160a01b0319166001600160a01b0383169081179091556040519081527f2f658b440c35314f52658ea8a740e05b284cdc84dc9ae01e891f21b8933e7cad9060200160405180910390a150565b6001600160a01b0381166101e75760405162461bcd60e51b815260206004820152601e60248201527f5278506f6f6c3a20496e76616c6964206f7261636c6520616464726573730000604482015260640161009c565b600180546001600160a01b0319166001600160a01b0392909216919091179055565b6000805b60035481101561025f57826001600160a01b03166003828154811061023457610234610543565b6000918252602090912001546001600160a01b031603610257576001915061025f565b60010161020d565b50806102b157600380546001810182556000919091527fc2575a0e9e593c00f959f8c92f12db2869c3395a3b0502d05e2516446f71f85b0180546001600160a01b0319166001600160a01b0384161790555b6040516001600160a01b03831681527fe58082970e120225831e7612aa2616579362b79d2d17a295f7eb8ed6b927fbda906020015b60405180910390a15050565b6001600160a01b0382166000818152600460209081526040918290208451815584820180516001909201805460ff1916921515929092179091558251938452845191840191909152511515908201527fffc4a1bfd3f5c9c5a166992c673d02d55194974a415fe59c14abcf6ac8d9da8b906060016102e6565b80516001600160a01b038116811461038257600080fd5b919050565b634e487b7160e01b600052604160045260246000fd5b604051601f8201601f191681016001600160401b03811182821017156103c5576103c5610387565b604052919050565b60006001600160401b038211156103e6576103e6610387565b5060051b60200190565b600082601f83011261040157600080fd5b81516020610416610411836103cd565b61039d565b8083825260208201915060208460051b87010193508684111561043857600080fd5b602086015b84811015610454578051835291830191830161043d565b509695505050505050565b6000806000806080858703121561047557600080fd5b61047e8561036b565b9350602061048d81870161036b565b60408701519094506001600160401b03808211156104aa57600080fd5b818801915088601f8301126104be57600080fd5b81516104cc610411826103cd565b81815260059190911b8301840190848101908b8311156104eb57600080fd5b938501935b82851015610510576105018561036b565b825293850193908501906104f0565b60608b0151909750945050508083111561052957600080fd5b5050610537878288016103f0565b91505092959194509250565b634e487b7160e01b600052603260045260246000fd5b611087806105686000396000f3fe608060405234801561001057600080fd5b50600436106101005760003560e01c80637adbf97311610097578063b471b60111610066578063b471b60114610248578063bf7e214f1461025b578063d8867fc81461026c578063dcec81161461027f57600080fd5b80637adbf973146101f0578063833b1fce146102035780638fb3603714610214578063a4d95b641461023557600080fd5b8063247ac063116100d3578063247ac063146101835780636b86400e146101965780637a4f12be1461019e5780637a9e5e4b146101dd57600080fd5b8063053c81b5146101055780630d4d15131461012e57806319b12aec14610143578063212f893414610158575b600080fd5b610118610113366004610cb1565b6102f6565b6040516101259190610d4e565b60405180910390f35b61014161013c366004610d92565b610372565b005b61014b61054f565b6040516101259190610dce565b61016b610166366004610e0f565b6105b1565b6040516001600160a01b039091168152602001610125565b60015461016b906001600160a01b031681565b61014b6105db565b6101c86101ac366004610e28565b6004602052600090815260409020805460019091015460ff1682565b60408051928352901515602083015201610125565b6101416101eb366004610e28565b61063b565b6101416101fe366004610e28565b6106b5565b6001546001600160a01b031661016b565b61021c6106ce565b6040516001600160e01b03199091168152602001610125565b610141610243366004610e28565b6106f2565b61016b610256366004610e0f565b61082c565b6000546001600160a01b031661016b565b61014161027a366004610e28565b61083c565b6102d961028d366004610e28565b6040805180820190915260008082526020820152506001600160a01b03166000908152600460209081526040918290208251808401909352805483526001015460ff1615159082015290565b604080518251815260209283015115159281019290925201610125565b600154604051634e91ecf960e11b81526060916001600160a01b031690639d23d9f290610327908590600401610dce565b600060405180830381865afa158015610344573d6000803e3d6000fd5b505050506040513d6000823e601f3d908101601f1916820160405261036c9190810190610e4a565b92915050565b6000805b6002548110156103c857336001600160a01b03166002828154811061039d5761039d610ed0565b6000918252602090912001546001600160a01b0316036103c057600191506103c8565b600101610376565b50806104145760405162461bcd60e51b8152602060048201526016602482015275293c2837b7b61d1024b73b30b634b21031b0b63632b960511b60448201526064015b60405180910390fd5b6001600160a01b03841660009081526004602052604090206001015460ff1661047f5760405162461bcd60e51b815260206004820152601b60248201527f5278506f6f6c3a2053796e7468206973206e6f74206163746976650000000000604482015260640161040b565b6001600160a01b0384166000908152600460205260409020548311156104e75760405162461bcd60e51b815260206004820152601a60248201527f5278506f6f6c3a2045786365656473206d617820737570706c79000000000000604482015260640161040b565b6040516394bf804d60e01b8152600481018490526001600160a01b0383811660248301528516906394bf804d90604401600060405180830381600087803b15801561053157600080fd5b505af1158015610545573d6000803e3d6000fd5b5050505050505050565b606060038054806020026020016040519081016040528092919081815260200182805480156105a757602002820191906000526020600020905b81546001600160a01b03168152600190910190602001808311610589575b5050505050905090565b600381815481106105c157600080fd5b6000918252602090912001546001600160a01b0316905081565b606060028054806020026020016040519081016040528092919081815260200182805480156105a7576020028201919060005260206000209081546001600160a01b03168152600190910190602001808311610589575050505050905090565b60005433906001600160a01b031681146106725760405162d1953b60e31b81526001600160a01b038216600482015260240161040b565b816001600160a01b03163b6000036106a8576040516361798f2f60e11b81526001600160a01b038316600482015260240161040b565b6106b182610952565b5050565b6106c2335b6000366109a6565b6106cb81610aa6565b50565b60008054600160a01b900460ff166106e65750600090565b50638fb3603760e01b90565b6106fb336106ba565b60005b6002548110156106b157816001600160a01b03166002828154811061072557610725610ed0565b6000918252602090912001546001600160a01b031603610824576002805461074f90600190610ee6565b8154811061075f5761075f610ed0565b600091825260209091200154600280546001600160a01b03909216918390811061078b5761078b610ed0565b9060005260206000200160006101000a8154816001600160a01b0302191690836001600160a01b0316021790555060028054806107ca576107ca610f07565b600082815260208120820160001990810180546001600160a01b03191690559091019091556040516001600160a01b038416917f51284fda28afcf93bd679c4a813b5933700648505545b368f84bc5697a63e82b91a25050565b6001016106fe565b600281815481106105c157600080fd5b610845336106ba565b60005b6002548110156108d957816001600160a01b03166002828154811061086f5761086f610ed0565b6000918252602090912001546001600160a01b0316036108d15760405162461bcd60e51b815260206004820152601c60248201527f5278506f6f6c3a20506c7567696e20616c726561647920616464656400000000604482015260640161040b565b600101610848565b506002805460018101825560009182527f405787fa12a823e0f2b7631cc41b3ba8828b3321ca811111fa75cd3aa3bb5ace0180546001600160a01b0319166001600160a01b03841690811790915560405190917f49c5bdfe3f492f82069fd409e316805f181989678a8f5e036fa91c572900184c91a250565b600080546001600160a01b0319166001600160a01b0383169081179091556040519081527f2f658b440c35314f52658ea8a740e05b284cdc84dc9ae01e891f21b8933e7cad9060200160405180910390a150565b6000806109dc6109be6000546001600160a01b031690565b86306109ce60046000898b610f1d565b6109d791610f47565b610b1e565b9150915081610a9f5763ffffffff811615610a7c576000805460ff60a01b198116600160a01b17909155604051634a63ebf760e11b81526001600160a01b03909116906394c7d7ee90610a3790889088908890600401610f77565b600060405180830381600087803b158015610a5157600080fd5b505af1158015610a65573d6000803e3d6000fd5b50506000805460ff60a01b1916905550610a9f9050565b60405162d1953b60e31b81526001600160a01b038616600482015260240161040b565b5050505050565b6001600160a01b038116610afc5760405162461bcd60e51b815260206004820152601e60248201527f5278506f6f6c3a20496e76616c6964206f7261636c6520616464726573730000604482015260640161040b565b600180546001600160a01b0319166001600160a01b0392909216919091179055565b6040516001600160a01b03848116602483015283811660448301526001600160e01b03198316606483015260009182918291829189169060840160408051601f198184030181529181526020820180516001600160e01b031663b700961360e01b17905251610b8d9190610fb7565b600060405180830381855afa9150503d8060008114610bc8576040519150601f19603f3d011682016040523d82523d6000602084013e610bcd565b606091505b50915091508115610c1f576040815110610bff5780806020019051810190610bf59190610ff6565b9094509250610c1f565b6020815110610c1f5780806020019051810190610c1c9190611036565b93505b505094509492505050565b634e487b7160e01b600052604160045260246000fd5b604051601f8201601f1916810167ffffffffffffffff81118282101715610c6957610c69610c2a565b604052919050565b600067ffffffffffffffff821115610c8b57610c8b610c2a565b5060051b60200190565b80356001600160a01b0381168114610cac57600080fd5b919050565b60006020808385031215610cc457600080fd5b823567ffffffffffffffff811115610cdb57600080fd5b8301601f81018513610cec57600080fd5b8035610cff610cfa82610c71565b610c40565b81815260059190911b82018301908381019087831115610d1e57600080fd5b928401925b82841015610d4357610d3484610c95565b82529284019290840190610d23565b979650505050505050565b6020808252825182820181905260009190848201906040850190845b81811015610d8657835183529284019291840191600101610d6a565b50909695505050505050565b600080600060608486031215610da757600080fd5b610db084610c95565b925060208401359150610dc560408501610c95565b90509250925092565b6020808252825182820181905260009190848201906040850190845b81811015610d865783516001600160a01b031683529284019291840191600101610dea565b600060208284031215610e2157600080fd5b5035919050565b600060208284031215610e3a57600080fd5b610e4382610c95565b9392505050565b60006020808385031215610e5d57600080fd5b825167ffffffffffffffff811115610e7457600080fd5b8301601f81018513610e8557600080fd5b8051610e93610cfa82610c71565b81815260059190911b82018301908381019087831115610eb257600080fd5b928401925b82841015610d4357835182529284019290840190610eb7565b634e487b7160e01b600052603260045260246000fd5b8181038181111561036c57634e487b7160e01b600052601160045260246000fd5b634e487b7160e01b600052603160045260246000fd5b60008085851115610f2d57600080fd5b83861115610f3a57600080fd5b5050820193919092039150565b6001600160e01b03198135818116916004851015610f6f5780818660040360031b1b83161692505b505092915050565b6001600160a01b03841681526040602082018190528101829052818360608301376000818301606090810191909152601f909201601f1916010192915050565b6000825160005b81811015610fd85760208186018101518583015201610fbe565b506000920191825250919050565b80518015158114610cac57600080fd5b6000806040838503121561100957600080fd5b61101283610fe6565b9150602083015163ffffffff8116811461102b57600080fd5b809150509250929050565b60006020828403121561104857600080fd5b610e4382610fe656fea2646970667358221220892b79bc67b0bc2885227aaa914da69c11a762e4b252fbf179501a2379a7975d64736f6c63430008190033","linkReferences":{}},"methodIdentifiers":{"_oracle()":"247ac063","_plugins(uint256)":"b471b601","_synthConfig(address)":"7a4f12be","_synths(uint256)":"212f8934","addPlugin(address)":"d8867fc8","authority()":"bf7e214f","getAllPlugins()":"6b86400e","getAllSynths()":"19b12aec","getAssetPrices(address[])":"053c81b5","getOracle()":"833b1fce","getSynth(address)":"dcec8116","isConsumingScheduledOp()":"8fb36037","mint(address,uint256,address)":"0d4d1513","removePlugin(address)":"a4d95b64","setAuthority(address)":"7a9e5e4b","setOracle(address)":"7adbf973"},"id":74}