{"abi":[{"type":"constructor","inputs":[{"name":"_reserve","type":"address","internalType":"address"},{"name":"_liquidity","type":"address","internalType":"address"},{"name":"_authority","type":"address","internalType":"address"}],"stateMutability":"nonpayable"},{"type":"function","name":"authority","inputs":[],"outputs":[{"name":"","type":"address","internalType":"address"}],"stateMutability":"view"},{"type":"function","name":"burn","inputs":[{"name":"onBehalfOf","type":"address","internalType":"address"},{"name":"amount","type":"uint256","internalType":"uint256"}],"outputs":[],"stateMutability":"nonpayable"},{"type":"function","name":"healthFactor","inputs":[{"name":"user","type":"address","internalType":"address"}],"outputs":[{"name":"","type":"uint256","internalType":"uint256"}],"stateMutability":"view"},{"type":"function","name":"isConsumingScheduledOp","inputs":[],"outputs":[{"name":"","type":"bytes4","internalType":"bytes4"}],"stateMutability":"view"},{"type":"function","name":"liquidity","inputs":[],"outputs":[{"name":"","type":"address","internalType":"contract Liquidity"}],"stateMutability":"view"},{"type":"function","name":"mint","inputs":[{"name":"amount","type":"uint256","internalType":"uint256"},{"name":"onBehalfOf","type":"address","internalType":"address"},{"name":"receiver","type":"address","internalType":"address"}],"outputs":[],"stateMutability":"nonpayable"},{"type":"function","name":"reserve","inputs":[],"outputs":[{"name":"","type":"address","internalType":"contract Reserve"}],"stateMutability":"view"},{"type":"function","name":"setAuthority","inputs":[{"name":"newAuthority","type":"address","internalType":"address"}],"outputs":[],"stateMutability":"nonpayable"},{"type":"function","name":"stake","inputs":[{"name":"asset","type":"address","internalType":"address"},{"name":"onBehalfOf","type":"address","internalType":"address"},{"name":"amount","type":"uint256","internalType":"uint256"},{"name":"data","type":"bytes","internalType":"bytes"}],"outputs":[],"stateMutability":"nonpayable"},{"type":"function","name":"unstake","inputs":[{"name":"asset","type":"address","internalType":"address"},{"name":"receiver","type":"address","internalType":"address"},{"name":"amount","type":"uint256","internalType":"uint256"},{"name":"data","type":"bytes","internalType":"bytes"}],"outputs":[],"stateMutability":"nonpayable"},{"type":"event","name":"AuthorityUpdated","inputs":[{"name":"authority","type":"address","indexed":false,"internalType":"address"}],"anonymous":false},{"type":"error","name":"AccessManagedInvalidAuthority","inputs":[{"name":"authority","type":"address","internalType":"address"}]},{"type":"error","name":"AccessManagedRequiredDelay","inputs":[{"name":"caller","type":"address","internalType":"address"},{"name":"delay","type":"uint32","internalType":"uint32"}]},{"type":"error","name":"AccessManagedUnauthorized","inputs":[{"name":"caller","type":"address","internalType":"address"}]}],"bytecode":{"object":"0x608060405234801561001057600080fd5b50604051610a75380380610a7583398101604081905261002f916100dc565b806100398161006c565b5050600180546001600160a01b039384166001600160a01b0319918216179091556002805492909316911617905561011f565b600080546001600160a01b0319166001600160a01b0383169081179091556040519081527f2f658b440c35314f52658ea8a740e05b284cdc84dc9ae01e891f21b8933e7cad9060200160405180910390a150565b80516001600160a01b03811681146100d757600080fd5b919050565b6000806000606084860312156100f157600080fd5b6100fa846100c0565b9250610108602085016100c0565b9150610116604085016100c0565b90509250925092565b6109478061012e6000396000f3fe608060405234801561001057600080fd5b506004361061009e5760003560e01c80639dc29fac116100665780639dc29fac1461013d578063bf7e214f14610150578063c148cf8514610161578063cd3293de14610174578063da39b3e71461018757600080fd5b80631a686502146100a35780634854b143146100d35780636ad9f9df146100e85780637a9e5e4b146101095780638fb360371461011c575b600080fd5b6002546100b6906001600160a01b031681565b6040516001600160a01b0390911681526020015b60405180910390f35b6100e66100e1366004610680565b61019a565b005b6100fb6100f636600461075c565b61021c565b6040519081526020016100ca565b6100e661011736600461075c565b61033c565b6101246103bb565b6040516001600160e01b031990911681526020016100ca565b6100e661014b36600461077e565b6103df565b6000546001600160a01b03166100b6565b6100e661016f366004610680565b61044f565b6001546100b6906001600160a01b031681565b6100e66101953660046107a8565b610529565b600154604051632b2b3e0160e01b81526001600160a01b0390911690632b2b3e01906101d2903390889087908990889060040161082a565b6020604051808303816000875af11580156101f1573d6000803e3d6000fd5b505050506040513d601f19601f820116820180604052508101906102159190610870565b5050505050565b60025460405163d28e512d60e01b81526001600160a01b038381166004830152600092839291169063d28e512d90602401602060405180830381865afa15801561026a573d6000803e3d6000fd5b505050506040513d601f19601f8201168201806040525081019061028e9190610870565b600154604051632b39b02760e21b81526001600160a01b0386811660048301529293506000929091169063ace6c09c90602401602060405180830381865afa1580156102de573d6000803e3d6000fd5b505050506040513d601f19601f820116820180604052508101906103029190610870565b90508160000361031757506000199392505050565b8161032a82670de0b6b3a7640000610889565b61033491906108b4565b949350505050565b60005433906001600160a01b031681146103785760405162d1953b60e31b81526001600160a01b03821660048201526024015b60405180910390fd5b816001600160a01b03163b6000036103ae576040516361798f2f60e11b81526001600160a01b038316600482015260240161036f565b6103b7826105fa565b5050565b60008054600160a01b900460ff166103d35750600090565b50638fb3603760e01b90565b600254604051636ba97d5960e11b81523360048201526001600160a01b038481166024830152604482018490529091169063d752fab290606401600060405180830381600087803b15801561043357600080fd5b505af1158015610447573d6000803e3d6000fd5b505050505050565b600154604051631dbb3b0960e01b81526001600160a01b0390911690631dbb3b099061048790339087908990889088906004016108d6565b6020604051808303816000875af11580156104a6573d6000803e3d6000fd5b505050506040513d601f19601f820116820180604052508101906104ca9190610870565b5060016104d63361021c565b116105235760405162461bcd60e51b815260206004820152601d60248201527f5278506f6f6c3a206865616c746820666163746f722062656c6f772031000000604482015260640161036f565b50505050565b6002546040516315d177b960e01b81523360048201526001600160a01b038481166024830152604482018690528381166064830152909116906315d177b990608401600060405180830381600087803b15801561058557600080fd5b505af1158015610599573d6000803e3d6000fd5b5050505060016105a83361021c565b116105f55760405162461bcd60e51b815260206004820152601d60248201527f5278506f6f6c3a206865616c746820666163746f722062656c6f772031000000604482015260640161036f565b505050565b600080546001600160a01b0319166001600160a01b0383169081179091556040519081527f2f658b440c35314f52658ea8a740e05b284cdc84dc9ae01e891f21b8933e7cad9060200160405180910390a150565b80356001600160a01b038116811461066557600080fd5b919050565b634e487b7160e01b600052604160045260246000fd5b6000806000806080858703121561069657600080fd5b61069f8561064e565b93506106ad6020860161064e565b925060408501359150606085013567ffffffffffffffff808211156106d157600080fd5b818701915087601f8301126106e557600080fd5b8135818111156106f7576106f761066a565b604051601f8201601f19908116603f0116810190838211818310171561071f5761071f61066a565b816040528281528a602084870101111561073857600080fd5b82602086016020830137600060208483010152809550505050505092959194509250565b60006020828403121561076e57600080fd5b6107778261064e565b9392505050565b6000806040838503121561079157600080fd5b61079a8361064e565b946020939093013593505050565b6000806000606084860312156107bd57600080fd5b833592506107cd6020850161064e565b91506107db6040850161064e565b90509250925092565b6000815180845260005b8181101561080a576020818501810151868301820152016107ee565b506000602082860101526020601f19601f83011685010191505092915050565b6001600160a01b0386811682528581166020830152604082018590528316606082015260a060808201819052600090610865908301846107e4565b979650505050505050565b60006020828403121561088257600080fd5b5051919050565b80820281158282048414176108ae57634e487b7160e01b600052601160045260246000fd5b92915050565b6000826108d157634e487b7160e01b600052601260045260246000fd5b500490565b6001600160a01b0386811682528581166020830152841660408201526060810183905260a060808201819052600090610865908301846107e456fea2646970667358221220668315a48a73d9f8028f4037207ac3f6c1cb9fa10d8b2133d1f6d5830e7d4a0d64736f6c63430008170033","linkReferences":{}},"methodIdentifiers":{"authority()":"bf7e214f","burn(address,uint256)":"9dc29fac","healthFactor(address)":"6ad9f9df","isConsumingScheduledOp()":"8fb36037","liquidity()":"1a686502","mint(uint256,address,address)":"da39b3e7","reserve()":"cd3293de","setAuthority(address)":"7a9e5e4b","stake(address,address,uint256,bytes)":"4854b143","unstake(address,address,uint256,bytes)":"c148cf85"},"id":77}