{"abi":[{"type":"constructor","inputs":[{"name":"_oracleAddress","type":"address","internalType":"address"},{"name":"_authority","type":"address","internalType":"address"},{"name":"_synthsToAdd","type":"address[]","internalType":"address[]"},{"name":"_maxSupplies","type":"uint256[]","internalType":"uint256[]"}],"stateMutability":"nonpayable"},{"type":"function","name":"_oracle","inputs":[],"outputs":[{"name":"","type":"address","internalType":"contract AbstractOracle"}],"stateMutability":"view"},{"type":"function","name":"_pluginConfig","inputs":[{"name":"","type":"address","internalType":"address"}],"outputs":[{"name":"active","type":"bool","internalType":"bool"}],"stateMutability":"view"},{"type":"function","name":"_plugins","inputs":[{"name":"","type":"uint256","internalType":"uint256"}],"outputs":[{"name":"","type":"address","internalType":"address"}],"stateMutability":"view"},{"type":"function","name":"_synthConfig","inputs":[{"name":"","type":"address","internalType":"address"}],"outputs":[{"name":"maxSupply","type":"uint256","internalType":"uint256"},{"name":"active","type":"bool","internalType":"bool"}],"stateMutability":"view"},{"type":"function","name":"_synths","inputs":[{"name":"","type":"uint256","internalType":"uint256"}],"outputs":[{"name":"","type":"address","internalType":"address"}],"stateMutability":"view"},{"type":"function","name":"addPlugin","inputs":[{"name":"_plugin","type":"address","internalType":"address"}],"outputs":[],"stateMutability":"nonpayable"},{"type":"function","name":"addSynth","inputs":[{"name":"_synth","type":"address","internalType":"address"},{"name":"_config","type":"tuple","internalType":"struct SynthRegistryStorage.SynthConfig","components":[{"name":"maxSupply","type":"uint256","internalType":"uint256"},{"name":"active","type":"bool","internalType":"bool"}]}],"outputs":[],"stateMutability":"nonpayable"},{"type":"function","name":"authority","inputs":[],"outputs":[{"name":"","type":"address","internalType":"address"}],"stateMutability":"view"},{"type":"function","name":"getAllPlugins","inputs":[],"outputs":[{"name":"","type":"address[]","internalType":"address[]"}],"stateMutability":"view"},{"type":"function","name":"getAllSynths","inputs":[],"outputs":[{"name":"","type":"address[]","internalType":"address[]"}],"stateMutability":"view"},{"type":"function","name":"getAssetPrice","inputs":[{"name":"asset","type":"address","internalType":"address"}],"outputs":[{"name":"","type":"uint256","internalType":"uint256"}],"stateMutability":"view"},{"type":"function","name":"getAssetPrices","inputs":[{"name":"assets","type":"address[]","internalType":"address[]"}],"outputs":[{"name":"","type":"uint256[]","internalType":"uint256[]"}],"stateMutability":"view"},{"type":"function","name":"getOracle","inputs":[],"outputs":[{"name":"","type":"address","internalType":"contract AbstractOracle"}],"stateMutability":"view"},{"type":"function","name":"getSynth","inputs":[{"name":"synth","type":"address","internalType":"address"}],"outputs":[{"name":"","type":"tuple","internalType":"struct SynthRegistryStorage.SynthConfig","components":[{"name":"maxSupply","type":"uint256","internalType":"uint256"},{"name":"active","type":"bool","internalType":"bool"}]}],"stateMutability":"view"},{"type":"function","name":"isConsumingScheduledOp","inputs":[],"outputs":[{"name":"","type":"bytes4","internalType":"bytes4"}],"stateMutability":"view"},{"type":"function","name":"mint","inputs":[{"name":"synth","type":"address","internalType":"address"},{"name":"amount","type":"uint256","internalType":"uint256"},{"name":"account","type":"address","internalType":"address"}],"outputs":[],"stateMutability":"nonpayable"},{"type":"function","name":"namePrefix","inputs":[],"outputs":[{"name":"","type":"string","internalType":"string"}],"stateMutability":"view"},{"type":"function","name":"removePlugin","inputs":[{"name":"_plugin","type":"address","internalType":"address"}],"outputs":[],"stateMutability":"nonpayable"},{"type":"function","name":"removeSynth","inputs":[{"name":"_synth","type":"address","internalType":"address"}],"outputs":[],"stateMutability":"nonpayable"},{"type":"function","name":"setAuthority","inputs":[{"name":"newAuthority","type":"address","internalType":"address"}],"outputs":[],"stateMutability":"nonpayable"},{"type":"function","name":"setOracle","inputs":[{"name":"_oracleAddress","type":"address","internalType":"address"}],"outputs":[],"stateMutability":"nonpayable"},{"type":"function","name":"symbolPrefix","inputs":[],"outputs":[{"name":"","type":"string","internalType":"string"}],"stateMutability":"view"},{"type":"function","name":"updateSynth","inputs":[{"name":"_synth","type":"address","internalType":"address"},{"name":"_config","type":"tuple","internalType":"struct SynthRegistryStorage.SynthConfig","components":[{"name":"maxSupply","type":"uint256","internalType":"uint256"},{"name":"active","type":"bool","internalType":"bool"}]}],"outputs":[],"stateMutability":"nonpayable"},{"type":"event","name":"AuthorityUpdated","inputs":[{"name":"authority","type":"address","indexed":false,"internalType":"address"}],"anonymous":false},{"type":"event","name":"PluginAdded","inputs":[{"name":"plugin","type":"address","indexed":false,"internalType":"address"}],"anonymous":false},{"type":"event","name":"PluginRemoved","inputs":[{"name":"plugin","type":"address","indexed":false,"internalType":"address"}],"anonymous":false},{"type":"event","name":"SynthAdded","inputs":[{"name":"synth","type":"address","indexed":false,"internalType":"address"}],"anonymous":false},{"type":"event","name":"SynthRemoved","inputs":[{"name":"synth","type":"address","indexed":false,"internalType":"address"}],"anonymous":false},{"type":"event","name":"SynthUpdated","inputs":[{"name":"synth","type":"address","indexed":false,"internalType":"address"},{"name":"config","type":"tuple","indexed":false,"internalType":"struct SynthRegistryStorage.SynthConfig","components":[{"name":"maxSupply","type":"uint256","internalType":"uint256"},{"name":"active","type":"bool","internalType":"bool"}]}],"anonymous":false},{"type":"error","name":"AccessManagedInvalidAuthority","inputs":[{"name":"authority","type":"address","internalType":"address"}]},{"type":"error","name":"AccessManagedRequiredDelay","inputs":[{"name":"caller","type":"address","internalType":"address"},{"name":"delay","type":"uint32","internalType":"uint32"}]},{"type":"error","name":"AccessManagedUnauthorized","inputs":[{"name":"caller","type":"address","internalType":"address"}]}],"bytecode":{"object":"0x60c060405260056080908152640a6f2dce8d60db1b60a05260049061002490826104a8565b506040805180820190915260018152607360f81b602082015260059061004a90826104a8565b50348015610056575f80fd5b50604051611e9b380380611e9b83398101604081905261007591610640565b8261007f81610182565b50610089846101d5565b80518251146100eb5760405162461bcd60e51b815260206004820152602360248201527f5278506f6f6c3a20496e76616c69642073796e746820636f6e6669677572617460448201526234b7b760e91b60648201526084015b60405180910390fd5b5f5b82518110156101785761011e83828151811061010b5761010b61071d565b602002602001015161025c60201b60201c565b6101708382815181106101335761013361071d565b602002602001015160405180604001604052808585815181106101585761015861071d565b60209081029190910181015182526001910152610398565b6001016100ed565b5050505050610731565b5f80546001600160a01b0319166001600160a01b0383169081179091556040519081527f2f658b440c35314f52658ea8a740e05b284cdc84dc9ae01e891f21b8933e7cad9060200160405180910390a150565b6001600160a01b03811661023a5760405162461bcd60e51b815260206004820152602660248201527f4f7261636c6552656769737472793a20496e76616c6964206f7261636c65206160448201526564647265737360d01b60648201526084016100e2565b600180546001600160a01b0319166001600160a01b0392909216919091179055565b6001600160a01b0381166102b25760405162461bcd60e51b815260206004820152601d60248201527f5278506f6f6c3a20496e76616c69642073796e7468206164647265737300000060448201526064016100e2565b5f805b60035481101561030657826001600160a01b0316600382815481106102dc576102dc61071d565b5f918252602090912001546001600160a01b0316036102fe5760019150610306565b6001016102b5565b508061035757600380546001810182555f919091527fc2575a0e9e593c00f959f8c92f12db2869c3395a3b0502d05e2516446f71f85b0180546001600160a01b0319166001600160a01b0384161790555b6040516001600160a01b03831681527fe58082970e120225831e7612aa2616579362b79d2d17a295f7eb8ed6b927fbda906020015b60405180910390a15050565b6001600160a01b0382165f818152600260209081526040918290208451815584820180516001909201805460ff1916921515929092179091558251938452845191840191909152511515908201527fffc4a1bfd3f5c9c5a166992c673d02d55194974a415fe59c14abcf6ac8d9da8b9060600161038c565b634e487b7160e01b5f52604160045260245ffd5b600181811c9082168061043857607f821691505b60208210810361045657634e487b7160e01b5f52602260045260245ffd5b50919050565b601f8211156104a357805f5260205f20601f840160051c810160208510156104815750805b601f840160051c820191505b818110156104a0575f815560010161048d565b50505b505050565b81516001600160401b038111156104c1576104c1610410565b6104d5816104cf8454610424565b8461045c565b602080601f831160018114610508575f84156104f15750858301515b5f19600386901b1c1916600185901b17855561055f565b5f85815260208120601f198616915b8281101561053657888601518255948401946001909101908401610517565b508582101561055357878501515f19600388901b60f8161c191681555b505060018460011b0185555b505050505050565b80516001600160a01b038116811461057d575f80fd5b919050565b604051601f8201601f191681016001600160401b03811182821017156105aa576105aa610410565b604052919050565b5f6001600160401b038211156105ca576105ca610410565b5060051b60200190565b5f82601f8301126105e3575f80fd5b815160206105f86105f3836105b2565b610582565b8083825260208201915060208460051b870101935086841115610619575f80fd5b602086015b84811015610635578051835291830191830161061e565b509695505050505050565b5f805f8060808587031215610653575f80fd5b61065c85610567565b9350602061066b818701610567565b60408701519094506001600160401b0380821115610687575f80fd5b818801915088601f83011261069a575f80fd5b81516106a86105f3826105b2565b81815260059190911b8301840190848101908b8311156106c6575f80fd5b938501935b828510156106eb576106dc85610567565b825293850193908501906106cb565b60608b01519097509450505080831115610703575f80fd5b5050610711878288016105d4565b91505092959194509250565b634e487b7160e01b5f52603260045260245ffd5b61175d8061073e5f395ff3fe608060405234801561000f575f80fd5b5060043610610148575f3560e01c80637a9e5e4b116100bf578063b471b60111610079578063b471b60114610311578063bf7e214f14610324578063d23c53cf14610334578063d8867fc814610347578063db4ecbc11461035a578063dcec81161461036d575f80fd5b80637a9e5e4b146102855780637adbf97314610298578063833b1fce146102ab5780638fb36037146102bc578063a4d95b64146102dd578063b3596f07146102f0575f80fd5b806335a7ede61161011057806335a7ede6146101dd57806338225b18146101f0578063590ceaaa1461020557806359a8a867146102375780636b86400e1461023f5780637a4f12be14610247575f80fd5b8063053c81b51461014c5780630d4d15131461017557806319b12aec1461018a578063212f89341461019f578063247ac063146101ca575b5f80fd5b61015f61015a36600461124c565b6103d2565b60405161016c91906112e4565b60405180910390f35b610188610183366004611327565b61044a565b005b610192610470565b60405161016c9190611360565b6101b26101ad3660046113a0565b6104d0565b6040516001600160a01b03909116815260200161016c565b6001546101b2906001600160a01b031681565b6101886101eb3660046113b7565b6104f8565b6101f8610510565b60405161016c9190611405565b6102276102133660046113b7565b60386020525f908152604090205460ff1681565b604051901515815260200161016c565b6101f861059c565b6101926105a9565b6102706102553660046113b7565b60026020525f90815260409020805460019091015460ff1682565b6040805192835290151560208301520161016c565b6101886102933660046113b7565b610607565b6101886102a63660046113b7565b610684565b6001546001600160a01b03166101b2565b6102c46106d5565b6040516001600160e01b0319909116815260200161016c565b6101886102eb3660046113b7565b6106f7565b6103036102fe3660046113b7565b610709565b60405190815260200161016c565b6101b261031f3660046113a0565b610775565b5f546001600160a01b03166101b2565b610188610342366004611424565b610784565b6101886103553660046113b7565b6107a0565b610188610368366004611424565b6107b2565b6103c561037b3660046113b7565b604080518082019091525f8082526020820152506001600160a01b03165f908152600260209081526040918290208251808401909352805483526001015460ff1615159082015290565b60405161016c919061149e565b600154604051634e91ecf960e11b81526060916001600160a01b031690639d23d9f290610403908590600401611360565b5f60405180830381865afa15801561041d573d5f803e3d5ffd5b505050506040513d5f823e601f3d908101601f1916820160405261044491908101906114b7565b92915050565b610456338484846107bb565b6104608383610834565b61046b83838361091a565b505050565b606060038054806020026020016040519081016040528092919081815260200182805480156104c657602002820191905f5260205f20905b81546001600160a01b031681526001909101906020018083116104a8575b5050505050905090565b600381815481106104df575f80fd5b5f918252602090912001546001600160a01b0316905081565b610504335b5f3661097c565b61050d81610a72565b50565b6004805461051d90611538565b80601f016020809104026020016040519081016040528092919081815260200182805461054990611538565b80156105945780601f1061056b57610100808354040283529160200191610594565b820191905f5260205f20905b81548152906001019060200180831161057757829003601f168201915b505050505081565b6005805461051d90611538565b606060398054806020026020016040519081016040528092919081815260200182805480156104c657602002820191905f5260205f209081546001600160a01b031681526001909101906020018083116104a8575050505050905090565b5f5433906001600160a01b031681146106425760405162d1953b60e31b81526001600160a01b03821660048201526024015b60405180910390fd5b816001600160a01b03163b5f03610677576040516361798f2f60e11b81526001600160a01b0383166004820152602401610639565b61068082610ba9565b5050565b61068d336104fd565b6106cc6040518060400160405280601a81526020017f2a2a2a2a2a2a2053657474696e67206f7261636c6520746f3a2000000000000081525082610bf6565b61050d81610c3b565b5f8054600160a01b900460ff166106eb57505f90565b50638fb3603760e01b90565b610700336104fd565b61050d81610cc2565b60015460405163b3596f0760e01b81526001600160a01b0383811660048301525f92169063b3596f0790602401602060405180830381865afa158015610751573d5f803e3d5ffd5b505050506040513d601f19601f820116820180604052508101906104449190611570565b603981815481106104df575f80fd5b61078d336104fd565b61079682610e0b565b6106808282610f3f565b6107a9336104fd565b61050d81610fa6565b610796336104fd565b6001600160a01b0384165f9081526038602052604090205460ff1661082e5760405162461bcd60e51b8152602060048201526024808201527f506c7567696e52656769737472793a20506c7567696e206973206e6f742061636044820152637469766560e01b6064820152608401610639565b50505050565b6001600160a01b0382165f9081526002602052604090206001015460ff166108a95760405162461bcd60e51b815260206004820152602260248201527f53796e746852656769737472793a2053796e7468206973206e6f742061637469604482015261766560f01b6064820152608401610639565b6001600160a01b0382165f908152600260205260409020548111156106805760405162461bcd60e51b815260206004820152602160248201527f53796e746852656769737472793a2045786365656473206d617820737570706c6044820152607960f81b6064820152608401610639565b6040516394bf804d60e01b8152600481018390526001600160a01b0382811660248301528416906394bf804d906044015f604051808303815f87803b158015610961575f80fd5b505af1158015610973573d5f803e3d5ffd5b50505050505050565b5f806109af6109925f546001600160a01b031690565b86306109a160045f898b611587565b6109aa916115ae565b61109d565b9150915081610a6b5763ffffffff811615610a48575f805460ff60a01b198116600160a01b17909155604051634a63ebf760e11b81526001600160a01b03909116906394c7d7ee90610a09908890889088906004016115de565b5f604051808303815f87803b158015610a20575f80fd5b505af1158015610a32573d5f803e3d5ffd5b50505f805460ff60a01b1916905550610a6b9050565b60405162d1953b60e31b81526001600160a01b0386166004820152602401610639565b5050505050565b5f5b600354811015610b6857816001600160a01b031660038281548110610a9b57610a9b61161d565b5f918252602090912001546001600160a01b031603610b605760038054610ac490600190611631565b81548110610ad457610ad461161d565b5f91825260209091200154600380546001600160a01b039092169183908110610aff57610aff61161d565b905f5260205f20015f6101000a8154816001600160a01b0302191690836001600160a01b031602179055506003805480610b3b57610b3b611650565b5f8281526020902081015f1990810180546001600160a01b0319169055019055610b68565b600101610a74565b506040516001600160a01b03821681527ff804291aceae84499f2c1ee0cdd31db3f4f8e357c39784952e32b3398441d430906020015b60405180910390a150565b5f80546001600160a01b0319166001600160a01b0383169081179091556040519081527f2f658b440c35314f52658ea8a740e05b284cdc84dc9ae01e891f21b8933e7cad90602001610b9e565b6106808282604051602401610c0c929190611664565b60408051601f198184030181529190526020810180516001600160e01b031663319af33360e01b1790526111a5565b6001600160a01b038116610ca05760405162461bcd60e51b815260206004820152602660248201527f4f7261636c6552656769737472793a20496e76616c6964206f7261636c65206160448201526564647265737360d01b6064820152608401610639565b600180546001600160a01b0319166001600160a01b0392909216919091179055565b5f5b60395481101561068057816001600160a01b031660398281548110610ceb57610ceb61161d565b5f918252602090912001546001600160a01b031603610e035760398054610d1490600190611631565b81548110610d2457610d2461161d565b5f91825260209091200154603980546001600160a01b039092169183908110610d4f57610d4f61161d565b905f5260205f20015f6101000a8154816001600160a01b0302191690836001600160a01b031602179055506039805480610d8b57610d8b611650565b5f82815260208082205f19908401810180546001600160a01b03191690559092019092556001600160a01b03841680835260388252604092839020805460ff1916905591519182527f51284fda28afcf93bd679c4a813b5933700648505545b368f84bc5697a63e82b91015b60405180910390a15050565b600101610cc4565b6001600160a01b038116610e615760405162461bcd60e51b815260206004820152601d60248201527f5278506f6f6c3a20496e76616c69642073796e746820616464726573730000006044820152606401610639565b5f805b600354811015610eb557826001600160a01b031660038281548110610e8b57610e8b61161d565b5f918252602090912001546001600160a01b031603610ead5760019150610eb5565b600101610e64565b5080610f0657600380546001810182555f919091527fc2575a0e9e593c00f959f8c92f12db2869c3395a3b0502d05e2516446f71f85b0180546001600160a01b0319166001600160a01b0384161790555b6040516001600160a01b03831681527fe58082970e120225831e7612aa2616579362b79d2d17a295f7eb8ed6b927fbda90602001610df7565b6001600160a01b0382165f9081526002602090815260409182902083518155908301516001909101805460ff1916911515919091179055517fffc4a1bfd3f5c9c5a166992c673d02d55194974a415fe59c14abcf6ac8d9da8b90610df7908490849061168d565b5f805b603954811015610ffa57826001600160a01b031660398281548110610fd057610fd061161d565b5f918252602090912001546001600160a01b031603610ff25760019150610ffa565b600101610fa9565b5080610680576039805460018082019092557fdc16fef70f8d5ddbc01ee3d903d1e69c18a3c7be080eb86a81e0578814ee58d30180546001600160a01b0319166001600160a01b03851690811790915560408051602080820183529381525f838152603885528290209051815460ff1916901515179055519081527f49c5bdfe3f492f82069fd409e316805f181989678a8f5e036fa91c572900184c9101610df7565b6040516001600160a01b03848116602483015283811660448301526001600160e01b0319831660648301525f9182918291829189169060840160408051601f198184030181529181526020820180516001600160e01b031663b700961360e01b1790525161110b91906116b6565b5f60405180830381855afa9150503d805f8114611143576040519150601f19603f3d011682016040523d82523d5f602084013e611148565b606091505b5091509150811561119a57604081511061117a578080602001905181019061117091906116cc565b909450925061119a565b602081511061119a5780806020019051810190611197919061170c565b93505b505094509492505050565b61050d8180516a636f6e736f6c652e6c6f67602083015f808483855afa5050505050565b634e487b7160e01b5f52604160045260245ffd5b604051601f8201601f1916810167ffffffffffffffff81118282101715611206576112066111c9565b604052919050565b5f67ffffffffffffffff821115611227576112276111c9565b5060051b60200190565b80356001600160a01b0381168114611247575f80fd5b919050565b5f602080838503121561125d575f80fd5b823567ffffffffffffffff811115611273575f80fd5b8301601f81018513611283575f80fd5b80356112966112918261120e565b6111dd565b81815260059190911b820183019083810190878311156112b4575f80fd5b928401925b828410156112d9576112ca84611231565b825292840192908401906112b9565b979650505050505050565b602080825282518282018190525f9190848201906040850190845b8181101561131b578351835292840192918401916001016112ff565b50909695505050505050565b5f805f60608486031215611339575f80fd5b61134284611231565b92506020840135915061135760408501611231565b90509250925092565b602080825282518282018190525f9190848201906040850190845b8181101561131b5783516001600160a01b03168352928401929184019160010161137b565b5f602082840312156113b0575f80fd5b5035919050565b5f602082840312156113c7575f80fd5b6113d082611231565b9392505050565b5f81518084528060208401602086015e5f602082860101526020601f19601f83011685010191505092915050565b602081525f6113d060208301846113d7565b801515811461050d575f80fd5b5f808284036060811215611436575f80fd5b61143f84611231565b92506040601f1982011215611452575f80fd5b506040516040810181811067ffffffffffffffff82111715611476576114766111c9565b60409081526020850135825284013561148e81611417565b6020820152919491935090915050565b8151815260208083015115159082015260408101610444565b5f60208083850312156114c8575f80fd5b825167ffffffffffffffff8111156114de575f80fd5b8301601f810185136114ee575f80fd5b80516114fc6112918261120e565b81815260059190911b8201830190838101908783111561151a575f80fd5b928401925b828410156112d95783518252928401929084019061151f565b600181811c9082168061154c57607f821691505b60208210810361156a57634e487b7160e01b5f52602260045260245ffd5b50919050565b5f60208284031215611580575f80fd5b5051919050565b5f8085851115611595575f80fd5b838611156115a1575f80fd5b5050820193919092039150565b6001600160e01b031981358181169160048510156115d65780818660040360031b1b83161692505b505092915050565b6001600160a01b03841681526040602082018190528101829052818360608301375f818301606090810191909152601f909201601f1916010192915050565b634e487b7160e01b5f52603260045260245ffd5b8181038181111561044457634e487b7160e01b5f52601160045260245ffd5b634e487b7160e01b5f52603160045260245ffd5b604081525f61167660408301856113d7565b905060018060a01b03831660208301529392505050565b6001600160a01b0383168152606081016113d06020830184805182526020908101511515910152565b5f82518060208501845e5f920191825250919050565b5f80604083850312156116dd575f80fd5b82516116e881611417565b602084015190925063ffffffff81168114611701575f80fd5b809150509250929050565b5f6020828403121561171c575f80fd5b81516113d08161141756fea26469706673582212204416a98419aaac7456e90e2361a5b1863946519f12b03bfb28c46ddf46a1b21664736f6c63430008190033","linkReferences":{}},"methodIdentifiers":{"_oracle()":"247ac063","_pluginConfig(address)":"590ceaaa","_plugins(uint256)":"b471b601","_synthConfig(address)":"7a4f12be","_synths(uint256)":"212f8934","addPlugin(address)":"d8867fc8","addSynth(address,(uint256,bool))":"d23c53cf","authority()":"bf7e214f","getAllPlugins()":"6b86400e","getAllSynths()":"19b12aec","getAssetPrice(address)":"b3596f07","getAssetPrices(address[])":"053c81b5","getOracle()":"833b1fce","getSynth(address)":"dcec8116","isConsumingScheduledOp()":"8fb36037","mint(address,uint256,address)":"0d4d1513","namePrefix()":"38225b18","removePlugin(address)":"a4d95b64","removeSynth(address)":"35a7ede6","setAuthority(address)":"7a9e5e4b","setOracle(address)":"7adbf973","symbolPrefix()":"59a8a867","updateSynth(address,(uint256,bool))":"db4ecbc1"},"id":106}