{"abi":[{"type":"constructor","inputs":[{"name":"_lpToken","type":"address","internalType":"address"},{"name":"_marketsPlugin","type":"address","internalType":"address"},{"name":"_pool","type":"address","internalType":"address"},{"name":"_authority","type":"address","internalType":"address"}],"stateMutability":"payable"},{"type":"function","name":"BASE_CURRENCY","inputs":[],"outputs":[{"name":"","type":"address","internalType":"address"}],"stateMutability":"view"},{"type":"function","name":"BASE_CURRENCY_UNIT","inputs":[],"outputs":[{"name":"","type":"uint256","internalType":"uint256"}],"stateMutability":"view"},{"type":"function","name":"ORACLE_TYPE","inputs":[],"outputs":[{"name":"","type":"uint8","internalType":"enum AbstractOracle.ORACLE_TYPES"}],"stateMutability":"view"},{"type":"function","name":"authority","inputs":[],"outputs":[{"name":"","type":"address","internalType":"address"}],"stateMutability":"view"},{"type":"function","name":"fallbackOracle","inputs":[],"outputs":[{"name":"","type":"address","internalType":"contract AbstractOracle"}],"stateMutability":"view"},{"type":"function","name":"getAssetPrice","inputs":[{"name":"asset","type":"address","internalType":"address"}],"outputs":[{"name":"price","type":"uint256","internalType":"uint256"}],"stateMutability":"view"},{"type":"function","name":"getAssetsPrices","inputs":[{"name":"assets","type":"address[]","internalType":"address[]"}],"outputs":[{"name":"","type":"uint256[]","internalType":"uint256[]"}],"stateMutability":"view"},{"type":"function","name":"isConsumingScheduledOp","inputs":[],"outputs":[{"name":"","type":"bytes4","internalType":"bytes4"}],"stateMutability":"view"},{"type":"function","name":"setAuthority","inputs":[{"name":"newAuthority","type":"address","internalType":"address"}],"outputs":[],"stateMutability":"nonpayable"},{"type":"function","name":"setFallbackOracle","inputs":[{"name":"_fallbackOracle","type":"address","internalType":"address"}],"outputs":[],"stateMutability":"nonpayable"},{"type":"event","name":"AuthorityUpdated","inputs":[{"name":"authority","type":"address","indexed":false,"internalType":"address"}],"anonymous":false},{"type":"event","name":"BaseCurrencySet","inputs":[{"name":"baseCurrency","type":"address","indexed":false,"internalType":"address"},{"name":"baseCurrencyUnit","type":"uint256","indexed":false,"internalType":"uint256"}],"anonymous":false},{"type":"event","name":"FallbackOracleUpdated","inputs":[{"name":"fallbackOracle","type":"address","indexed":false,"internalType":"address"}],"anonymous":false},{"type":"error","name":"AccessManagedInvalidAuthority","inputs":[{"name":"authority","type":"address","internalType":"address"}]},{"type":"error","name":"AccessManagedRequiredDelay","inputs":[{"name":"caller","type":"address","internalType":"address"},{"name":"delay","type":"uint32","internalType":"uint32"}]},{"type":"error","name":"AccessManagedUnauthorized","inputs":[{"name":"caller","type":"address","internalType":"address"}]}],"bytecode":{"object":"0x61014060405260405161157a38038061157a8339810160408190526100239161019b565b5f8080808480610032816100de565b50846002811115610045576100456101ec565b6080816002811115610059576100596101ec565b9052506001600160a01b03841660a05260c083905261007782610132565b604080516001600160a01b0386168152602081018590527fe27c4c1372396a3d15a9922f74f9dfc7c72b1ad6d63868470787249c356454c1910160405180910390a15050506001600160a01b0394851661012052505050918116610100521660e052610200565b5f80546001600160a01b0319166001600160a01b0383169081179091556040519081527f2f658b440c35314f52658ea8a740e05b284cdc84dc9ae01e891f21b8933e7cad906020015b60405180910390a150565b600180546001600160a01b0319166001600160a01b0383169081179091556040519081527fce7a780d33665b1ea097af5f155e3821b809ecbaa839d3b33aa83ba28168cefb90602001610127565b80516001600160a01b0381168114610196575f80fd5b919050565b5f805f80608085870312156101ae575f80fd5b6101b785610180565b93506101c560208601610180565b92506101d360408601610180565b91506101e160608601610180565b905092959194509250565b634e487b7160e01b5f52602160045260245ffd5b60805160a05160c05160e05161010051610120516113116102695f395f8181610641015261089401525f81816103bc0152818161059e01528181610a170152610aaf01525f818161043801526104bb01525f61013401525f6101cd01525f60b901526113115ff3fe608060405234801561000f575f80fd5b506004361061009b575f3560e01c80638fb36037116100635780638fb36037146101645780639d23d9f214610185578063b3596f07146101a5578063bf7e214f146101b8578063e19f4700146101c8575f80fd5b8063170aee731461009f5780632c5426f3146100b4578063629838e5146100f15780637a9e5e4b1461011c5780638c89b64f1461012f575b5f80fd5b6100b26100ad366004610e1a565b6101ef565b005b6100db7f000000000000000000000000000000000000000000000000000000000000000081565b6040516100e89190610e3c565b60405180910390f35b600154610104906001600160a01b031681565b6040516001600160a01b0390911681526020016100e8565b6100b261012a366004610e1a565b610206565b6101567f000000000000000000000000000000000000000000000000000000000000000081565b6040519081526020016100e8565b61016c610283565b6040516001600160e01b031990911681526020016100e8565b610198610193366004610e62565b6102a5565b6040516100e89190610ed1565b6101566101b3366004610e1a565b6103b9565b5f546001600160a01b0316610104565b6101047f000000000000000000000000000000000000000000000000000000000000000081565b6101fa335f36610b66565b61020381610c5c565b50565b5f5433906001600160a01b031681146102415760405162d1953b60e31b81526001600160a01b03821660048201526024015b60405180910390fd5b816001600160a01b03163b5f03610276576040516361798f2f60e11b81526001600160a01b0383166004820152602401610238565b61027f82610cb1565b5050565b5f8054600160a01b900460ff1661029957505f90565b50638fb3603760e01b90565b60605f8267ffffffffffffffff8111156102c1576102c1610f14565b6040519080825280602002602001820160405280156102ea578160200160208202803683370190505b5090505f5b838110156103af573063b3596f0786868481811061030f5761030f610f28565b90506020020160208101906103249190610e1a565b6040516001600160e01b031960e084901b1681526001600160a01b039091166004820152602401602060405180830381865afa158015610366573d5f803e3d5ffd5b505050506040513d601f19601f8201168201806040525081019061038a9190610f3c565b82828151811061039c5761039c610f28565b60209081029190910101526001016102ef565b5090505b92915050565b5f7f00000000000000000000000000000000000000000000000000000000000000006001600160a01b0316826001600160a01b0316146104345760405162461bcd60e51b81526020600482015260166024820152751059185c1d1bdc8e88125b9d985b1a5908185cdcd95d60521b6044820152606401610238565b5f807f00000000000000000000000000000000000000000000000000000000000000006001600160a01b031663833b1fce6040518163ffffffff1660e01b8152600401602060405180830381865afa158015610492573d5f803e3d5ffd5b505050506040513d601f19601f820116820180604052508101906104b69190610f53565b90505f7f00000000000000000000000000000000000000000000000000000000000000006001600160a01b03166319b12aec6040518163ffffffff1660e01b81526004015f60405180830381865afa158015610514573d5f803e3d5ffd5b505050506040513d5f823e601f3d908101601f1916820160405261053b9190810190610fc2565b90505f6001825161054c9190611070565b67ffffffffffffffff81111561056457610564610f14565b60405190808252806020026020018201604052801561058d578160200160208202803683370190505b5090505f805b835181101561075c577f00000000000000000000000000000000000000000000000000000000000000006001600160a01b03168482815181106105d8576105d8610f28565b60200260200101516001600160a01b03161461063f5783818151811061060057610600610f28565b602002602001015183828151811061061a5761061a610f28565b60200260200101906001600160a01b031690816001600160a01b031681525050610754565b7f00000000000000000000000000000000000000000000000000000000000000006001600160a01b03166360e0792385838151811061068057610680610f28565b60200260200101516040518263ffffffff1660e01b81526004016106b391906001600160a01b0391909116815260200190565b602060405180830381865afa1580156106ce573d5f803e3d5ffd5b505050506040513d601f19601f820116820180604052508101906106f29190610f53565b6001600160a01b03166318160ddd6040518163ffffffff1660e01b8152600401602060405180830381865afa15801561072d573d5f803e3d5ffd5b505050506040513d601f19601f820116820180604052508101906107519190610f3c565b91505b600101610593565b50604051634e91ecf960e11b81525f906001600160a01b03861690639d23d9f29061078b908690600401611083565b5f60405180830381865afa1580156107a5573d5f803e3d5ffd5b505050506040513d5f823e601f3d908101601f191682016040526107cc91908101906110c3565b90505f5b83518110156109ff576305f5e1008282815181106107f0576107f0610f28565b602002602001015185838151811061080a5761080a610f28565b60200260200101516001600160a01b03166318160ddd6040518163ffffffff1660e01b8152600401602060405180830381865afa15801561084d573d5f803e3d5ffd5b505050506040513d601f19601f820116820180604052508101906108719190610f3c565b61087b9190611144565b610885919061115b565b61088f908861117a565b96505f7f00000000000000000000000000000000000000000000000000000000000000006001600160a01b03166360e079238684815181106108d3576108d3610f28565b60200260200101516040518263ffffffff1660e01b815260040161090691906001600160a01b0391909116815260200190565b602060405180830381865afa158015610921573d5f803e3d5ffd5b505050506040513d601f19601f820116820180604052508101906109459190610f53565b90506001600160a01b038116156109f6576305f5e10083838151811061096d5761096d610f28565b6020026020010151826001600160a01b03166318160ddd6040518163ffffffff1660e01b8152600401602060405180830381865afa1580156109b1573d5f803e3d5ffd5b505050506040513d601f19601f820116820180604052508101906109d59190610f3c565b6109df9190611144565b6109e9919061115b565b6109f390896111a1565b97505b506001016107d0565b505f86131580610a975750610a15826002611144565b7f00000000000000000000000000000000000000000000000000000000000000006001600160a01b03166318160ddd6040518163ffffffff1660e01b8152600401602060405180830381865afa158015610a71573d5f803e3d5ffd5b505050506040513d601f19601f82011682018060405250810190610a959190610f3c565b115b15610aad57506305f5e100979650505050505050565b7f00000000000000000000000000000000000000000000000000000000000000006001600160a01b03166318160ddd6040518163ffffffff1660e01b8152600401602060405180830381865afa158015610b09573d5f803e3d5ffd5b505050506040513d601f19601f82011682018060405250810190610b2d9190610f3c565b610b38836002611144565b610b429190611070565b610b50876305f5e100611144565b610b5a919061115b565b98975050505050505050565b5f80610b99610b7c5f546001600160a01b031690565b8630610b8b60045f898b6111c7565b610b94916111ee565b610cfe565b9150915081610c555763ffffffff811615610c32575f805460ff60a01b198116600160a01b17909155604051634a63ebf760e11b81526001600160a01b03909116906394c7d7ee90610bf39088908890889060040161121c565b5f604051808303815f87803b158015610c0a575f80fd5b505af1158015610c1c573d5f803e3d5ffd5b50505f805460ff60a01b1916905550610c559050565b60405162d1953b60e31b81526001600160a01b0386166004820152602401610238565b5050505050565b600180546001600160a01b0319166001600160a01b0383169081179091556040519081527fce7a780d33665b1ea097af5f155e3821b809ecbaa839d3b33aa83ba28168cefb906020015b60405180910390a150565b5f80546001600160a01b0319166001600160a01b0383169081179091556040519081527f2f658b440c35314f52658ea8a740e05b284cdc84dc9ae01e891f21b8933e7cad90602001610ca6565b6040516001600160a01b03848116602483015283811660448301526001600160e01b0319831660648301525f9182918291829189169060840160408051601f198184030181529181526020820180516001600160e01b031663b700961360e01b17905251610d6c919061125b565b5f60405180830381855afa9150503d805f8114610da4576040519150601f19603f3d011682016040523d82523d5f602084013e610da9565b606091505b50915091508115610dfb576040815110610ddb5780806020019051810190610dd19190611285565b9094509250610dfb565b6020815110610dfb5780806020019051810190610df891906112c2565b93505b505094509492505050565b6001600160a01b0381168114610203575f80fd5b5f60208284031215610e2a575f80fd5b8135610e3581610e06565b9392505050565b6020810160038310610e5c57634e487b7160e01b5f52602160045260245ffd5b91905290565b5f8060208385031215610e73575f80fd5b823567ffffffffffffffff80821115610e8a575f80fd5b818501915085601f830112610e9d575f80fd5b813581811115610eab575f80fd5b8660208260051b8501011115610ebf575f80fd5b60209290920196919550909350505050565b602080825282518282018190525f9190848201906040850190845b81811015610f0857835183529284019291840191600101610eec565b50909695505050505050565b634e487b7160e01b5f52604160045260245ffd5b634e487b7160e01b5f52603260045260245ffd5b5f60208284031215610f4c575f80fd5b5051919050565b5f60208284031215610f63575f80fd5b8151610e3581610e06565b604051601f8201601f1916810167ffffffffffffffff81118282101715610f9757610f97610f14565b604052919050565b5f67ffffffffffffffff821115610fb857610fb8610f14565b5060051b60200190565b5f6020808385031215610fd3575f80fd5b825167ffffffffffffffff811115610fe9575f80fd5b8301601f81018513610ff9575f80fd5b805161100c61100782610f9f565b610f6e565b81815260059190911b8201830190838101908783111561102a575f80fd5b928401925b8284101561105157835161104281610e06565b8252928401929084019061102f565b979650505050505050565b634e487b7160e01b5f52601160045260245ffd5b818103818111156103b3576103b361105c565b602080825282518282018190525f9190848201906040850190845b81811015610f085783516001600160a01b03168352928401929184019160010161109e565b5f60208083850312156110d4575f80fd5b825167ffffffffffffffff8111156110ea575f80fd5b8301601f810185136110fa575f80fd5b805161110861100782610f9f565b81815260059190911b82018301908381019087831115611126575f80fd5b928401925b828410156110515783518252928401929084019061112b565b80820281158282048414176103b3576103b361105c565b5f8261117557634e487b7160e01b5f52601260045260245ffd5b500490565b8082018281125f8312801582168215821617156111995761119961105c565b505092915050565b8181035f8312801583831316838312821617156111c0576111c061105c565b5092915050565b5f80858511156111d5575f80fd5b838611156111e1575f80fd5b5050820193919092039150565b6001600160e01b031981358181169160048510156111995760049490940360031b84901b1690921692915050565b6001600160a01b03841681526040602082018190528101829052818360608301375f818301606090810191909152601f909201601f1916010192915050565b5f82518060208501845e5f920191825250919050565b80518015158114611280575f80fd5b919050565b5f8060408385031215611296575f80fd5b61129f83611271565b9150602083015163ffffffff811681146112b7575f80fd5b809150509250929050565b5f602082840312156112d2575f80fd5b610e358261127156fea2646970667358221220f2d57eb1526733f3a2d70d358c6023f837396f6d37735b0bfb6b26d5a7ec7f6564736f6c63430008190033","linkReferences":{}},"methodIdentifiers":{"BASE_CURRENCY()":"e19f4700","BASE_CURRENCY_UNIT()":"8c89b64f","ORACLE_TYPE()":"2c5426f3","authority()":"bf7e214f","fallbackOracle()":"629838e5","getAssetPrice(address)":"b3596f07","getAssetsPrices(address[])":"9d23d9f2","isConsumingScheduledOp()":"8fb36037","setAuthority(address)":"7a9e5e4b","setFallbackOracle(address)":"170aee73"},"id":85}