{"abi":[{"type":"constructor","inputs":[{"name":"_pool","type":"address","internalType":"address"},{"name":"_lpMarket","type":"address","internalType":"address"},{"name":"_authority","type":"address","internalType":"address"}],"stateMutability":"payable"},{"type":"function","name":"BASE_CURRENCY","inputs":[],"outputs":[{"name":"","type":"address","internalType":"address"}],"stateMutability":"view"},{"type":"function","name":"BASE_CURRENCY_UNIT","inputs":[],"outputs":[{"name":"","type":"uint256","internalType":"uint256"}],"stateMutability":"view"},{"type":"function","name":"ORACLE_TYPE","inputs":[],"outputs":[{"name":"","type":"uint8","internalType":"enum Oracle.ORACLE_TYPES"}],"stateMutability":"view"},{"type":"function","name":"authority","inputs":[],"outputs":[{"name":"","type":"address","internalType":"address"}],"stateMutability":"view"},{"type":"function","name":"fallbackOracle","inputs":[],"outputs":[{"name":"","type":"address","internalType":"contract Oracle"}],"stateMutability":"view"},{"type":"function","name":"getAssetPrice","inputs":[{"name":"asset","type":"address","internalType":"address"}],"outputs":[{"name":"price","type":"uint256","internalType":"uint256"}],"stateMutability":"view"},{"type":"function","name":"getAssetsPrices","inputs":[{"name":"assets","type":"address[]","internalType":"address[]"}],"outputs":[{"name":"","type":"uint256[]","internalType":"uint256[]"}],"stateMutability":"view"},{"type":"function","name":"isConsumingScheduledOp","inputs":[],"outputs":[{"name":"","type":"bytes4","internalType":"bytes4"}],"stateMutability":"view"},{"type":"function","name":"setAuthority","inputs":[{"name":"newAuthority","type":"address","internalType":"address"}],"outputs":[],"stateMutability":"nonpayable"},{"type":"function","name":"setFallbackOracle","inputs":[{"name":"_fallbackOracle","type":"address","internalType":"address"}],"outputs":[],"stateMutability":"nonpayable"},{"type":"event","name":"AuthorityUpdated","inputs":[{"name":"authority","type":"address","indexed":false,"internalType":"address"}],"anonymous":false},{"type":"event","name":"BaseCurrencySet","inputs":[{"name":"baseCurrency","type":"address","indexed":false,"internalType":"address"},{"name":"baseCurrencyUnit","type":"uint256","indexed":false,"internalType":"uint256"}],"anonymous":false},{"type":"event","name":"FallbackOracleUpdated","inputs":[{"name":"fallbackOracle","type":"address","indexed":false,"internalType":"address"}],"anonymous":false},{"type":"error","name":"AccessManagedInvalidAuthority","inputs":[{"name":"authority","type":"address","internalType":"address"}]},{"type":"error","name":"AccessManagedRequiredDelay","inputs":[{"name":"caller","type":"address","internalType":"address"},{"name":"delay","type":"uint32","internalType":"uint32"}]},{"type":"error","name":"AccessManagedUnauthorized","inputs":[{"name":"caller","type":"address","internalType":"address"}]}],"bytecode":{"object":"0x6101406040526040516113ba3803806113ba83398101604081905261002391610218565b600080808084806100338161015d565b5084600281111561004657610046610265565b608081600281111561005a5761005a610265565b9052506001600160a01b03841660a05260c0839052610078826101b2565b604080516001600160a01b0386168152602081018590527fe27c4c1372396a3d15a9922f74f9dfc7c72b1ad6d63868470787249c356454c1910160405180910390a15050505050816001600160a01b0316610120816001600160a01b031681525050610120516001600160a01b031663115f4fee6040518163ffffffff1660e01b8152600401602060405180830381865afa15801561011b573d6000803e3d6000fd5b505050506040513d601f19601f8201168201806040525081019061013f919061027b565b6001600160a01b03908116610100529290921660e0525061029f9050565b600080546001600160a01b0319166001600160a01b0383169081179091556040519081527f2f658b440c35314f52658ea8a740e05b284cdc84dc9ae01e891f21b8933e7cad906020015b60405180910390a150565b600180546001600160a01b0319166001600160a01b0383169081179091556040519081527fce7a780d33665b1ea097af5f155e3821b809ecbaa839d3b33aa83ba28168cefb906020016101a7565b6001600160a01b038116811461021557600080fd5b50565b60008060006060848603121561022d57600080fd5b835161023881610200565b602085015190935061024981610200565b604085015190925061025a81610200565b809150509250925092565b634e487b7160e01b600052602160045260246000fd5b60006020828403121561028d57600080fd5b815161029881610200565b9392505050565b60805160a05160c05160e05161010051610120516110b8610302600039600061082e0152600081816103cb015281816105b601526107ac01526000818161044801526104ce01526000610138015260006101d20152600060bd01526110b86000f3fe608060405234801561001057600080fd5b506004361061009e5760003560e01c80638fb36037116100665780638fb36037146101685780639d23d9f214610189578063b3596f07146101a9578063bf7e214f146101bc578063e19f4700146101cd57600080fd5b8063170aee73146100a35780632c5426f3146100b8578063629838e5146100f55780637a9e5e4b146101205780638c89b64f14610133575b600080fd5b6100b66100b1366004610baa565b6101f4565b005b6100df7f000000000000000000000000000000000000000000000000000000000000000081565b6040516100ec9190610bce565b60405180910390f35b600154610108906001600160a01b031681565b6040516001600160a01b0390911681526020016100ec565b6100b661012e366004610baa565b61020c565b61015a7f000000000000000000000000000000000000000000000000000000000000000081565b6040519081526020016100ec565b61017061028b565b6040516001600160e01b031990911681526020016100ec565b61019c610197366004610bf6565b6102af565b6040516100ec9190610c6b565b61015a6101b7366004610baa565b6103c7565b6000546001600160a01b0316610108565b6101087f000000000000000000000000000000000000000000000000000000000000000081565b610200336000366108e6565b610209816109e6565b50565b60005433906001600160a01b031681146102485760405162d1953b60e31b81526001600160a01b03821660048201526024015b60405180910390fd5b816001600160a01b03163b60000361027e576040516361798f2f60e11b81526001600160a01b038316600482015260240161023f565b61028782610a3b565b5050565b60008054600160a01b900460ff166102a35750600090565b50638fb3603760e01b90565b606060008267ffffffffffffffff8111156102cc576102cc610caf565b6040519080825280602002602001820160405280156102f5578160200160208202803683370190505b50905060005b838110156103bd573063b3596f0786868481811061031b5761031b610cc5565b90506020020160208101906103309190610baa565b6040516001600160e01b031960e084901b1681526001600160a01b039091166004820152602401602060405180830381865afa158015610374573d6000803e3d6000fd5b505050506040513d601f19601f820116820180604052508101906103989190610cdb565b8282815181106103aa576103aa610cc5565b60209081029190910101526001016102fb565b5090505b92915050565b60007f00000000000000000000000000000000000000000000000000000000000000006001600160a01b0316826001600160a01b0316146104435760405162461bcd60e51b81526020600482015260166024820152751059185c1d1bdc8e88125b9d985b1a5908185cdcd95d60521b604482015260640161023f565b6000807f00000000000000000000000000000000000000000000000000000000000000006001600160a01b031663833b1fce6040518163ffffffff1660e01b8152600401602060405180830381865afa1580156104a4573d6000803e3d6000fd5b505050506040513d601f19601f820116820180604052508101906104c89190610cf4565b905060007f00000000000000000000000000000000000000000000000000000000000000006001600160a01b03166319b12aec6040518163ffffffff1660e01b8152600401600060405180830381865afa15801561052a573d6000803e3d6000fd5b505050506040513d6000823e601f3d908101601f191682016040526105529190810190610d66565b90506000600182516105649190610e10565b67ffffffffffffffff81111561057c5761057c610caf565b6040519080825280602002602001820160405280156105a5578160200160208202803683370190505b50905060005b825181101561065b577f00000000000000000000000000000000000000000000000000000000000000006001600160a01b03168382815181106105f0576105f0610cc5565b60200260200101516001600160a01b0316146106535782818151811061061857610618610cc5565b602002602001015182828151811061063257610632610cc5565b60200260200101906001600160a01b031690816001600160a01b0316815250505b6001016105ab565b50604051634e91ecf960e11b81526000906001600160a01b03851690639d23d9f29061068b908590600401610e23565b600060405180830381865afa1580156106a8573d6000803e3d6000fd5b505050506040513d6000823e601f3d908101601f191682016040526106d09190810190610e64565b905060005b8251811015610791578181815181106106f0576106f0610cc5565b602002602001015183828151811061070a5761070a610cc5565b60200260200101516001600160a01b03166318160ddd6040518163ffffffff1660e01b8152600401602060405180830381865afa15801561074f573d6000803e3d6000fd5b505050506040513d601f19601f820116820180604052508101906107739190610cdb565b61077d9190610eea565b6107879087610f01565b95506001016106d5565b50600085136107aa57506305f5e1009695505050505050565b7f00000000000000000000000000000000000000000000000000000000000000006001600160a01b03166318160ddd6040518163ffffffff1660e01b8152600401602060405180830381865afa158015610808573d6000803e3d6000fd5b505050506040513d601f19601f8201168201806040525081019061082c9190610cdb565b7f00000000000000000000000000000000000000000000000000000000000000006001600160a01b03166318160ddd6040518163ffffffff1660e01b8152600401602060405180830381865afa15801561088a573d6000803e3d6000fd5b505050506040513d601f19601f820116820180604052508101906108ae9190610cdb565b6108b9906002610eea565b6108c39190610e10565b6108d1866305f5e100610eea565b6108db9190610f29565b979650505050505050565b60008061091c6108fe6000546001600160a01b031690565b863061090e60046000898b610f4b565b61091791610f75565b610a89565b91509150816109df5763ffffffff8116156109bc576000805460ff60a01b198116600160a01b17909155604051634a63ebf760e11b81526001600160a01b03909116906394c7d7ee9061097790889088908890600401610fa3565b600060405180830381600087803b15801561099157600080fd5b505af11580156109a5573d6000803e3d6000fd5b50506000805460ff60a01b19169055506109df9050565b60405162d1953b60e31b81526001600160a01b038616600482015260240161023f565b5050505050565b600180546001600160a01b0319166001600160a01b0383169081179091556040519081527fce7a780d33665b1ea097af5f155e3821b809ecbaa839d3b33aa83ba28168cefb906020015b60405180910390a150565b600080546001600160a01b0319166001600160a01b0383169081179091556040519081527f2f658b440c35314f52658ea8a740e05b284cdc84dc9ae01e891f21b8933e7cad90602001610a30565b6040516001600160a01b03848116602483015283811660448301526001600160e01b03198316606483015260009182918291829189169060840160408051601f198184030181529181526020820180516001600160e01b031663b700961360e01b17905251610af89190610fe3565b600060405180830381855afa9150503d8060008114610b33576040519150601f19603f3d011682016040523d82523d6000602084013e610b38565b606091505b50915091508115610b8a576040815110610b6a5780806020019051810190610b609190611027565b9094509250610b8a565b6020815110610b8a5780806020019051810190610b879190611067565b93505b505094509492505050565b6001600160a01b038116811461020957600080fd5b600060208284031215610bbc57600080fd5b8135610bc781610b95565b9392505050565b6020810160038310610bf057634e487b7160e01b600052602160045260246000fd5b91905290565b60008060208385031215610c0957600080fd5b823567ffffffffffffffff80821115610c2157600080fd5b818501915085601f830112610c3557600080fd5b813581811115610c4457600080fd5b8660208260051b8501011115610c5957600080fd5b60209290920196919550909350505050565b6020808252825182820181905260009190848201906040850190845b81811015610ca357835183529284019291840191600101610c87565b50909695505050505050565b634e487b7160e01b600052604160045260246000fd5b634e487b7160e01b600052603260045260246000fd5b600060208284031215610ced57600080fd5b5051919050565b600060208284031215610d0657600080fd5b8151610bc781610b95565b604051601f8201601f1916810167ffffffffffffffff81118282101715610d3a57610d3a610caf565b604052919050565b600067ffffffffffffffff821115610d5c57610d5c610caf565b5060051b60200190565b60006020808385031215610d7957600080fd5b825167ffffffffffffffff811115610d9057600080fd5b8301601f81018513610da157600080fd5b8051610db4610daf82610d42565b610d11565b81815260059190911b82018301908381019087831115610dd357600080fd5b928401925b828410156108db578351610deb81610b95565b82529284019290840190610dd8565b634e487b7160e01b600052601160045260246000fd5b818103818111156103c1576103c1610dfa565b6020808252825182820181905260009190848201906040850190845b81811015610ca35783516001600160a01b031683529284019291840191600101610e3f565b60006020808385031215610e7757600080fd5b825167ffffffffffffffff811115610e8e57600080fd5b8301601f81018513610e9f57600080fd5b8051610ead610daf82610d42565b81815260059190911b82018301908381019087831115610ecc57600080fd5b928401925b828410156108db57835182529284019290840190610ed1565b80820281158282048414176103c1576103c1610dfa565b8082018281126000831280158216821582161715610f2157610f21610dfa565b505092915050565b600082610f4657634e487b7160e01b600052601260045260246000fd5b500490565b60008085851115610f5b57600080fd5b83861115610f6857600080fd5b5050820193919092039150565b6001600160e01b03198135818116916004851015610f215760049490940360031b84901b1690921692915050565b6001600160a01b03841681526040602082018190528101829052818360608301376000818301606090810191909152601f909201601f1916010192915050565b6000825160005b818110156110045760208186018101518583015201610fea565b506000920191825250919050565b8051801515811461102257600080fd5b919050565b6000806040838503121561103a57600080fd5b61104383611012565b9150602083015163ffffffff8116811461105c57600080fd5b809150509250929050565b60006020828403121561107957600080fd5b610bc78261101256fea264697066735822122052d4cd933f2d66b3e1097d553e48738678a7020e077819215680d6f75f32dc6d64736f6c63430008190033","linkReferences":{}},"methodIdentifiers":{"BASE_CURRENCY()":"e19f4700","BASE_CURRENCY_UNIT()":"8c89b64f","ORACLE_TYPE()":"2c5426f3","authority()":"bf7e214f","fallbackOracle()":"629838e5","getAssetPrice(address)":"b3596f07","getAssetsPrices(address[])":"9d23d9f2","isConsumingScheduledOp()":"8fb36037","setAuthority(address)":"7a9e5e4b","setFallbackOracle(address)":"170aee73"},"id":65}