{"abi":[{"type":"function","name":"EZETH","inputs":[],"outputs":[{"name":"","type":"address","internalType":"contract MockToken"}],"stateMutability":"view"},{"type":"function","name":"RXLP","inputs":[],"outputs":[{"name":"","type":"address","internalType":"contract Synth"}],"stateMutability":"view"},{"type":"function","name":"RXUSD","inputs":[],"outputs":[{"name":"","type":"address","internalType":"contract Synth"}],"stateMutability":"view"},{"type":"function","name":"WSTETH","inputs":[],"outputs":[{"name":"","type":"address","internalType":"contract MockToken"}],"stateMutability":"view"},{"type":"function","name":"accessManager","inputs":[],"outputs":[{"name":"","type":"address","internalType":"contract AccessManager"}],"stateMutability":"view"},{"type":"function","name":"admin","inputs":[],"outputs":[{"name":"","type":"address","internalType":"address"}],"stateMutability":"view"},{"type":"function","name":"collaterals","inputs":[{"name":"","type":"uint256","internalType":"uint256"}],"outputs":[{"name":"","type":"address","internalType":"address"}],"stateMutability":"view"},{"type":"function","name":"debtLPToken","inputs":[],"outputs":[{"name":"","type":"address","internalType":"contract DebtToken"}],"stateMutability":"view"},{"type":"function","name":"getChainID","inputs":[],"outputs":[{"name":"","type":"uint256","internalType":"uint256"}],"stateMutability":"view"},{"type":"function","name":"lpCollateralOracle","inputs":[],"outputs":[{"name":"","type":"address","internalType":"contract PythOracle"}],"stateMutability":"view"},{"type":"function","name":"lpOracle","inputs":[],"outputs":[{"name":"","type":"address","internalType":"contract LPOracle"}],"stateMutability":"view"},{"type":"function","name":"markets","inputs":[{"name":"","type":"uint256","internalType":"uint256"}],"outputs":[{"name":"","type":"address","internalType":"contract Market"}],"stateMutability":"view"},{"type":"function","name":"marketsPlugin","inputs":[],"outputs":[{"name":"","type":"address","internalType":"contract MarketsPlugin"}],"stateMutability":"view"},{"type":"function","name":"pool","inputs":[],"outputs":[{"name":"","type":"address","internalType":"contract RxPool"}],"stateMutability":"view"},{"type":"function","name":"pyth","inputs":[],"outputs":[{"name":"","type":"address","internalType":"address"}],"stateMutability":"view"},{"type":"function","name":"reaxRouter","inputs":[],"outputs":[{"name":"","type":"address","internalType":"contract ReaxRouter"}],"stateMutability":"view"},{"type":"function","name":"swapPlugin","inputs":[],"outputs":[{"name":"","type":"address","internalType":"contract SwapPlugin"}],"stateMutability":"view"},{"type":"function","name":"synthOracle","inputs":[],"outputs":[{"name":"","type":"address","internalType":"contract PythOracle"}],"stateMutability":"view"},{"type":"function","name":"synthPythIds","inputs":[{"name":"","type":"uint256","internalType":"uint256"}],"outputs":[{"name":"","type":"bytes32","internalType":"bytes32"}],"stateMutability":"view"},{"type":"function","name":"synths","inputs":[{"name":"","type":"uint256","internalType":"uint256"}],"outputs":[{"name":"","type":"address","internalType":"address"}],"stateMutability":"view"},{"type":"function","name":"uiDataProvider","inputs":[],"outputs":[{"name":"","type":"address","internalType":"contract UIDataProvider"}],"stateMutability":"view"},{"type":"function","name":"weth9","inputs":[],"outputs":[{"name":"","type":"address","internalType":"contract WETH9"}],"stateMutability":"view"}],"bytecode":{"object":"0x6080604052348015600f57600080fd5b506103bd8061001f6000396000f3fe608060405234801561001057600080fd5b50600436106101425760003560e01c806371dbe46e116100b8578063ca66a9c51161007c578063ca66a9c514610291578063d9fb643a146102a4578063f46f4d0e146102b7578063f851a440146102ca578063f98d06f0146102dd578063fdcb6068146102f057600080fd5b806371dbe46e146102325780638852dfc81461024557806388badee81461025857806398c29cad1461026b578063b1283e771461027e57600080fd5b806330edd9611161010a57806330edd961146101c357806347a87dd9146101d657806350879c1c146101e9578063564b81ef146101fc57806358fe922d1461020c578063719992d51461021f57600080fd5b8063062b032f1461014757806316f0115b146101775780632443de4c1461018a57806324a2eb081461019d57806324c1173b146101b0575b600080fd5b600b5461015a906001600160a01b031681565b6040516001600160a01b0390911681526020015b60405180910390f35b600a5461015a906001600160a01b031681565b600d5461015a906001600160a01b031681565b60115461015a906001600160a01b031681565b61015a6101be36600461036e565b610303565b61015a6101d136600461036e565b61032d565b60075461015a906001600160a01b031681565b60145461015a906001600160a01b031681565b465b60405190815260200161016e565b600f5461015a906001600160a01b031681565b60085461015a906001600160a01b031681565b60125461015a906001600160a01b031681565b60135461015a906001600160a01b031681565b6101fe61026636600461036e565b61033d565b60095461015a906001600160a01b031681565b61015a61028c36600461036e565b61035e565b600c5461015a906001600160a01b031681565b60105461015a906001600160a01b031681565b60065461015a906001600160a01b031681565b60005461015a906001600160a01b031681565b60015461015a906001600160a01b031681565b60055461015a906001600160a01b031681565b6004818154811061031357600080fd5b6000918252602090912001546001600160a01b0316905081565b6003818154811061031357600080fd5b6002818154811061034d57600080fd5b600091825260209091200154905081565b600e818154811061031357600080fd5b60006020828403121561038057600080fd5b503591905056fea2646970667358221220bec695ac67de76f0e9331c6760acc6007a9bf633b64bc95d5b0d83dc9ec9c35c64736f6c63430008190033","linkReferences":{}},"methodIdentifiers":{"EZETH()":"58fe922d","RXLP()":"47a87dd9","RXUSD()":"719992d5","WSTETH()":"d9fb643a","accessManager()":"fdcb6068","admin()":"f851a440","collaterals(uint256)":"24c1173b","debtLPToken()":"98c29cad","getChainID()":"564b81ef","lpCollateralOracle()":"24a2eb08","lpOracle()":"062b032f","markets(uint256)":"b1283e77","marketsPlugin()":"2443de4c","pool()":"16f0115b","pyth()":"f98d06f0","reaxRouter()":"71dbe46e","swapPlugin()":"ca66a9c5","synthOracle()":"f46f4d0e","synthPythIds(uint256)":"88badee8","synths(uint256)":"30edd961","uiDataProvider()":"8852dfc8","weth9()":"50879c1c"},"id":59}