{"abi":[{"type":"function","name":"_synthConfig","inputs":[{"name":"","type":"address","internalType":"address"}],"outputs":[{"name":"maxSupply","type":"uint256","internalType":"uint256"},{"name":"active","type":"bool","internalType":"bool"}],"stateMutability":"view"},{"type":"function","name":"_synths","inputs":[{"name":"","type":"uint256","internalType":"uint256"}],"outputs":[{"name":"","type":"address","internalType":"address"}],"stateMutability":"view"},{"type":"function","name":"getAllSynths","inputs":[],"outputs":[{"name":"","type":"address[]","internalType":"address[]"}],"stateMutability":"view"},{"type":"function","name":"getSynth","inputs":[{"name":"synth","type":"address","internalType":"address"}],"outputs":[{"name":"","type":"tuple","internalType":"struct SynthRegistryStorage.SynthConfig","components":[{"name":"maxSupply","type":"uint256","internalType":"uint256"},{"name":"active","type":"bool","internalType":"bool"}]}],"stateMutability":"view"},{"type":"function","name":"namePrefix","inputs":[],"outputs":[{"name":"","type":"string","internalType":"string"}],"stateMutability":"view"},{"type":"function","name":"symbolPrefix","inputs":[],"outputs":[{"name":"","type":"string","internalType":"string"}],"stateMutability":"view"},{"type":"event","name":"SynthAdded","inputs":[{"name":"synth","type":"address","indexed":false,"internalType":"address"}],"anonymous":false},{"type":"event","name":"SynthRemoved","inputs":[{"name":"synth","type":"address","indexed":false,"internalType":"address"}],"anonymous":false},{"type":"event","name":"SynthUpdated","inputs":[{"name":"synth","type":"address","indexed":false,"internalType":"address"},{"name":"config","type":"tuple","indexed":false,"internalType":"struct SynthRegistryStorage.SynthConfig","components":[{"name":"maxSupply","type":"uint256","internalType":"uint256"},{"name":"active","type":"bool","internalType":"bool"}]}],"anonymous":false}],"bytecode":{"object":"0x60c060405260056080908152640a6f2dce8d60db1b60a05260029061002490826100f4565b506040805180820190915260018152607360f81b602082015260039061004a90826100f4565b50348015610056575f80fd5b506101b3565b634e487b7160e01b5f52604160045260245ffd5b600181811c9082168061008457607f821691505b6020821081036100a257634e487b7160e01b5f52602260045260245ffd5b50919050565b601f8211156100ef57805f5260205f20601f840160051c810160208510156100cd5750805b601f840160051c820191505b818110156100ec575f81556001016100d9565b50505b505050565b81516001600160401b0381111561010d5761010d61005c565b6101218161011b8454610070565b846100a8565b602080601f831160018114610154575f841561013d5750858301515b5f19600386901b1c1916600185901b1785556101ab565b5f85815260208120601f198616915b8281101561018257888601518255948401946001909101908401610163565b508582101561019f57878501515f19600388901b60f8161c191681555b505060018460011b0185555b505050505050565b6103cf806101c05f395ff3fe608060405234801561000f575f80fd5b5060043610610060575f3560e01c806319b12aec14610064578063212f89341461008257806338225b18146100ad57806359a8a867146100c25780637a4f12be146100ca578063dcec811614610108575b5f80fd5b61006c61017b565b604051610079919061029c565b60405180910390f35b6100956100903660046102e8565b6101db565b6040516001600160a01b039091168152602001610079565b6100b5610203565b60405161007991906102ff565b6100b561028f565b6100f36100d8366004610334565b5f602081905290815260409020805460019091015460ff1682565b60408051928352901515602083015201610079565b61015e610116366004610334565b604080518082019091525f8082526020820152506001600160a01b03165f90815260208181526040918290208251808401909352805483526001015460ff1615159082015290565b604080518251815260209283015115159281019290925201610079565b606060018054806020026020016040519081016040528092919081815260200182805480156101d157602002820191905f5260205f20905b81546001600160a01b031681526001909101906020018083116101b3575b5050505050905090565b600181815481106101ea575f80fd5b5f918252602090912001546001600160a01b0316905081565b6002805461021090610361565b80601f016020809104026020016040519081016040528092919081815260200182805461023c90610361565b80156102875780601f1061025e57610100808354040283529160200191610287565b820191905f5260205f20905b81548152906001019060200180831161026a57829003601f168201915b505050505081565b6003805461021090610361565b602080825282518282018190525f9190848201906040850190845b818110156102dc5783516001600160a01b0316835292840192918401916001016102b7565b50909695505050505050565b5f602082840312156102f8575f80fd5b5035919050565b602081525f82518060208401528060208501604085015e5f604082850101526040601f19601f83011684010191505092915050565b5f60208284031215610344575f80fd5b81356001600160a01b038116811461035a575f80fd5b9392505050565b600181811c9082168061037557607f821691505b60208210810361039357634e487b7160e01b5f52602260045260245ffd5b5091905056fea2646970667358221220cdee81928278289ef136364ee9d37e3afba645803421ef3fe0eec2138fc1cea664736f6c63430008190033","linkReferences":{}},"methodIdentifiers":{"_synthConfig(address)":"7a4f12be","_synths(uint256)":"212f8934","getAllSynths()":"19b12aec","getSynth(address)":"dcec8116","namePrefix()":"38225b18","symbolPrefix()":"59a8a867"},"id":110}