{"abi":[{"type":"constructor","inputs":[{"name":"_lpToken","type":"address","internalType":"address"},{"name":"_debtToken","type":"address","internalType":"address"},{"name":"_authority","type":"address","internalType":"address"}],"stateMutability":"nonpayable"},{"type":"function","name":"addLiquidity","inputs":[{"name":"user","type":"address","internalType":"address"},{"name":"onBehalfOf","type":"address","internalType":"address"},{"name":"amount","type":"uint256","internalType":"uint256"},{"name":"receiver","type":"address","internalType":"address"}],"outputs":[],"stateMutability":"nonpayable"},{"type":"function","name":"addPlugin","inputs":[{"name":"plugin","type":"address","internalType":"address"}],"outputs":[],"stateMutability":"nonpayable"},{"type":"function","name":"authority","inputs":[],"outputs":[{"name":"","type":"address","internalType":"address"}],"stateMutability":"view"},{"type":"function","name":"debtToken","inputs":[],"outputs":[{"name":"","type":"address","internalType":"address"}],"stateMutability":"view"},{"type":"function","name":"getLpPrice","inputs":[],"outputs":[{"name":"price","type":"uint256","internalType":"uint256"}],"stateMutability":"view"},{"type":"function","name":"getTotalDebtUSD","inputs":[],"outputs":[{"name":"","type":"uint256","internalType":"uint256"}],"stateMutability":"view"},{"type":"function","name":"getUserDebtUSD","inputs":[{"name":"user","type":"address","internalType":"address"}],"outputs":[{"name":"","type":"uint256","internalType":"uint256"}],"stateMutability":"view"},{"type":"function","name":"isConsumingScheduledOp","inputs":[],"outputs":[{"name":"","type":"bytes4","internalType":"bytes4"}],"stateMutability":"view"},{"type":"function","name":"lpToken","inputs":[],"outputs":[{"name":"","type":"address","internalType":"address"}],"stateMutability":"view"},{"type":"function","name":"oracle","inputs":[],"outputs":[{"name":"","type":"address","internalType":"contract Oracle"}],"stateMutability":"view"},{"type":"function","name":"plugins","inputs":[{"name":"","type":"uint256","internalType":"uint256"}],"outputs":[{"name":"","type":"address","internalType":"address"}],"stateMutability":"view"},{"type":"function","name":"removeLiquidity","inputs":[{"name":"user","type":"address","internalType":"address"},{"name":"onBehalfOf","type":"address","internalType":"address"},{"name":"amount","type":"uint256","internalType":"uint256"}],"outputs":[],"stateMutability":"nonpayable"},{"type":"function","name":"removePlugin","inputs":[{"name":"plugin","type":"address","internalType":"address"}],"outputs":[],"stateMutability":"nonpayable"},{"type":"function","name":"setAuthority","inputs":[{"name":"newAuthority","type":"address","internalType":"address"}],"outputs":[],"stateMutability":"nonpayable"},{"type":"function","name":"setOracle","inputs":[{"name":"_oracle","type":"address","internalType":"address"}],"outputs":[],"stateMutability":"nonpayable"},{"type":"event","name":"AuthorityUpdated","inputs":[{"name":"authority","type":"address","indexed":false,"internalType":"address"}],"anonymous":false},{"type":"error","name":"AccessManagedInvalidAuthority","inputs":[{"name":"authority","type":"address","internalType":"address"}]},{"type":"error","name":"AccessManagedRequiredDelay","inputs":[{"name":"caller","type":"address","internalType":"address"},{"name":"delay","type":"uint32","internalType":"uint32"}]},{"type":"error","name":"AccessManagedUnauthorized","inputs":[{"name":"caller","type":"address","internalType":"address"}]}],"bytecode":{"object":"0x60806040523480156200001157600080fd5b506040516200133e3803806200133e8339810160408190526200003491620000e5565b80620000408162000074565b5050600180546001600160a01b039384166001600160a01b031991821617909155600280549290931691161790556200012f565b600080546001600160a01b0319166001600160a01b0383169081179091556040519081527f2f658b440c35314f52658ea8a740e05b284cdc84dc9ae01e891f21b8933e7cad9060200160405180910390a150565b80516001600160a01b0381168114620000e057600080fd5b919050565b600080600060608486031215620000fb57600080fd5b6200010684620000c8565b92506200011660208501620000c8565b91506200012660408501620000c8565b90509250925092565b6111ff806200013f6000396000f3fe608060405234801561001057600080fd5b50600436106100f55760003560e01c8063a4d95b6411610097578063d8867fc811610066578063d8867fc8146101f9578063e3cdb9341461020c578063f0a317eb14610214578063f8d898981461022757600080fd5b8063a4d95b64146101af578063bf7e214f146101c2578063d28e512d146101d3578063d752fab2146101e657600080fd5b80637a9e5e4b116100d35780637a9e5e4b146101555780637adbf973146101685780637dc0d1d01461017b5780638fb360371461018e57600080fd5b806315d177b9146100fa5780634c7198f41461010f5780635fcbd2851461012a575b600080fd5b61010d610108366004610f17565b61023a565b005b610117610350565b6040519081526020015b60405180910390f35b60015461013d906001600160a01b031681565b6040516001600160a01b039091168152602001610121565b61010d610163366004610f64565b61070d565b61010d610176366004610f64565b610787565b60045461013d906001600160a01b031681565b6101966107b2565b6040516001600160e01b03199091168152602001610121565b61010d6101bd366004610f64565b6107d8565b6000546001600160a01b031661013d565b6101176101e1366004610f64565b6108de565b61010d6101f4366004610f86565b6109f5565b61010d610207366004610f64565b610b78565b610117610bd3565b61013d610222366004610fc2565b610c71565b60025461013d906001600160a01b031681565b610247335b600036610c9b565b6000610251610350565b90506000670de0b6b3a76400006102688386610ff1565b6102729190611008565b600254604051636361ddf360e11b81526001600160a01b03898116600483015288811660248301526044820184905292935091169063c6c3bbe690606401600060405180830381600087803b1580156102ca57600080fd5b505af11580156102de573d6000803e3d6000fd5b50506001546040516340c10f1960e01b81526001600160a01b0387811660048301526024820189905290911692506340c10f199150604401600060405180830381600087803b15801561033057600080fd5b505af1158015610344573d6000803e3d6000fd5b50505050505050505050565b600080805b6003548110156103f757600381815481106103725761037261102a565b600091825260209182902001546040805162910a5160e41b815290516001600160a01b0390921692630910a510926004808401938290030181865afa1580156103bf573d6000803e3d6000fd5b505050506040513d601f19601f820116820180604052508101906103e39190611040565b6103ed9083611059565b9150600101610355565b508060000361040f57670de0b6b3a764000091505090565b600260009054906101000a90046001600160a01b03166001600160a01b03166318160ddd6040518163ffffffff1660e01b8152600401602060405180830381865afa158015610462573d6000803e3d6000fd5b505050506040513d601f19601f820116820180604052508101906104869190611040565b60000361049c57670de0b6b3a764000091505090565b600160009054906101000a90046001600160a01b03166001600160a01b03166318160ddd6040518163ffffffff1660e01b8152600401602060405180830381865afa1580156104ef573d6000803e3d6000fd5b505050506040513d601f19601f820116820180604052508101906105139190611040565b600260009054906101000a90046001600160a01b03166001600160a01b03166318160ddd6040518163ffffffff1660e01b8152600401602060405180830381865afa158015610566573d6000803e3d6000fd5b505050506040513d601f19601f8201168201806040525081019061058a9190611040565b0361059e57670de0b6b3a764000091505090565b600160009054906101000a90046001600160a01b03166001600160a01b03166318160ddd6040518163ffffffff1660e01b8152600401602060405180830381865afa1580156105f1573d6000803e3d6000fd5b505050506040513d601f19601f820116820180604052508101906106159190611040565b600260009054906101000a90046001600160a01b03166001600160a01b03166318160ddd6040518163ffffffff1660e01b8152600401602060405180830381865afa158015610668573d6000803e3d6000fd5b505050506040513d601f19601f8201168201806040525081019061068c9190611040565b610696919061106c565b6106a882670de0b6b3a7640000610ff1565b6106b29190611008565b9150600082116107095760405162461bcd60e51b815260206004820152601960248201527f41646170746f723a20496e76616c6964204c502070726963650000000000000060448201526064015b60405180910390fd5b5090565b60005433906001600160a01b031681146107445760405162d1953b60e31b81526001600160a01b0382166004820152602401610700565b816001600160a01b03163b60000361077a576040516361798f2f60e11b81526001600160a01b0383166004820152602401610700565b61078382610d9b565b5050565b6107903361023f565b600480546001600160a01b0319166001600160a01b0392909216919091179055565b60008054600160a01b900460ff166107ca5750600090565b638fb3603760e01b5b905090565b6107e13361023f565b60005b60035481101561078357816001600160a01b03166003828154811061080b5761080b61102a565b6000918252602090912001546001600160a01b0316036108d657600380546108359060019061106c565b815481106108455761084561102a565b600091825260209091200154600380546001600160a01b0390921691839081106108715761087161102a565b9060005260206000200160006101000a8154816001600160a01b0302191690836001600160a01b0316021790555060038054806108b0576108b061107f565b600082815260209020810160001990810180546001600160a01b03191690550190555050565b6001016107e4565b6002546040516370a0823160e01b81526001600160a01b03838116600483015260009216906370a0823190602401602060405180830381865afa158015610929573d6000803e3d6000fd5b505050506040513d601f19601f8201168201806040525081019061094d9190611040565b60000361095c57506000919050565b670de0b6b3a764000061096d610350565b6002546040516370a0823160e01b81526001600160a01b038681166004830152909116906370a0823190602401602060405180830381865afa1580156109b7573d6000803e3d6000fd5b505050506040513d601f19601f820116820180604052508101906109db9190611040565b6109e59190610ff1565b6109ef9190611008565b92915050565b6109fe3361023f565b6000198103610a78576001546040516370a0823160e01b81526001600160a01b038581166004830152909116906370a0823190602401602060405180830381865afa158015610a51573d6000803e3d6000fd5b505050506040513d601f19601f82011682018060405250810190610a759190611040565b90505b60015460405163079cc67960e41b81526001600160a01b03858116600483015260248201849052909116906379cc679090604401600060405180830381600087803b158015610ac657600080fd5b505af1158015610ada573d6000803e3d6000fd5b505050506000610ae8610350565b90506000670de0b6b3a7640000610aff8385610ff1565b610b099190611008565b600254604051632770a7eb60e21b81526001600160a01b03878116600483015260248201849052929350911690639dc29fac90604401600060405180830381600087803b158015610b5957600080fd5b505af1158015610b6d573d6000803e3d6000fd5b505050505050505050565b610b813361023f565b600380546001810182556000919091527fc2575a0e9e593c00f959f8c92f12db2869c3395a3b0502d05e2516446f71f85b0180546001600160a01b0319166001600160a01b0392909216919091179055565b6000670de0b6b3a7640000610be6610350565b600260009054906101000a90046001600160a01b03166001600160a01b03166318160ddd6040518163ffffffff1660e01b8152600401602060405180830381865afa158015610c39573d6000803e3d6000fd5b505050506040513d601f19601f82011682018060405250810190610c5d9190611040565b610c679190610ff1565b6107d39190611008565b60038181548110610c8157600080fd5b6000918252602090912001546001600160a01b0316905081565b600080610cd1610cb36000546001600160a01b031690565b8630610cc360046000898b611095565b610ccc916110bf565b610def565b9150915081610d945763ffffffff811615610d71576000805460ff60a01b198116600160a01b17909155604051634a63ebf760e11b81526001600160a01b03909116906394c7d7ee90610d2c908890889088906004016110ef565b600060405180830381600087803b158015610d4657600080fd5b505af1158015610d5a573d6000803e3d6000fd5b50506000805460ff60a01b1916905550610d949050565b60405162d1953b60e31b81526001600160a01b0386166004820152602401610700565b5050505050565b600080546001600160a01b0319166001600160a01b0383169081179091556040519081527f2f658b440c35314f52658ea8a740e05b284cdc84dc9ae01e891f21b8933e7cad9060200160405180910390a150565b6040516001600160a01b03848116602483015283811660448301526001600160e01b03198316606483015260009182918291829189169060840160408051601f198184030181529181526020820180516001600160e01b031663b700961360e01b17905251610e5e919061112f565b600060405180830381855afa9150503d8060008114610e99576040519150601f19603f3d011682016040523d82523d6000602084013e610e9e565b606091505b50915091508115610ef0576040815110610ed05780806020019051810190610ec6919061116e565b9094509250610ef0565b6020815110610ef05780806020019051810190610eed91906111ae565b93505b505094509492505050565b80356001600160a01b0381168114610f1257600080fd5b919050565b60008060008060808587031215610f2d57600080fd5b610f3685610efb565b9350610f4460208601610efb565b925060408501359150610f5960608601610efb565b905092959194509250565b600060208284031215610f7657600080fd5b610f7f82610efb565b9392505050565b600080600060608486031215610f9b57600080fd5b610fa484610efb565b9250610fb260208501610efb565b9150604084013590509250925092565b600060208284031215610fd457600080fd5b5035919050565b634e487b7160e01b600052601160045260246000fd5b80820281158282048414176109ef576109ef610fdb565b60008261102557634e487b7160e01b600052601260045260246000fd5b500490565b634e487b7160e01b600052603260045260246000fd5b60006020828403121561105257600080fd5b5051919050565b808201808211156109ef576109ef610fdb565b818103818111156109ef576109ef610fdb565b634e487b7160e01b600052603160045260246000fd5b600080858511156110a557600080fd5b838611156110b257600080fd5b5050820193919092039150565b6001600160e01b031981358181169160048510156110e75780818660040360031b1b83161692505b505092915050565b6001600160a01b03841681526040602082018190528101829052818360608301376000818301606090810191909152601f909201601f1916010192915050565b6000825160005b818110156111505760208186018101518583015201611136565b506000920191825250919050565b80518015158114610f1257600080fd5b6000806040838503121561118157600080fd5b61118a8361115e565b9150602083015163ffffffff811681146111a357600080fd5b809150509250929050565b6000602082840312156111c057600080fd5b610f7f8261115e56fea2646970667358221220afb7a93b3a5164898b42462353b07672a75ee0af646854f7ff589a39ca12f60564736f6c63430008170033","linkReferences":{}},"methodIdentifiers":{"addLiquidity(address,address,uint256,address)":"15d177b9","addPlugin(address)":"d8867fc8","authority()":"bf7e214f","debtToken()":"f8d89898","getLpPrice()":"4c7198f4","getTotalDebtUSD()":"e3cdb934","getUserDebtUSD(address)":"d28e512d","isConsumingScheduledOp()":"8fb36037","lpToken()":"5fcbd285","oracle()":"7dc0d1d0","plugins(uint256)":"f0a317eb","removeLiquidity(address,address,uint256)":"d752fab2","removePlugin(address)":"a4d95b64","setAuthority(address)":"7a9e5e4b","setOracle(address)":"7adbf973"},"id":68}