{"abi":[{"type":"function","name":"_synthConfig","inputs":[{"name":"","type":"address","internalType":"address"}],"outputs":[{"name":"maxSupply","type":"uint256","internalType":"uint256"},{"name":"active","type":"bool","internalType":"bool"}],"stateMutability":"view"},{"type":"function","name":"_synths","inputs":[{"name":"","type":"uint256","internalType":"uint256"}],"outputs":[{"name":"","type":"address","internalType":"address"}],"stateMutability":"view"},{"type":"function","name":"namePrefix","inputs":[],"outputs":[{"name":"","type":"string","internalType":"string"}],"stateMutability":"view"},{"type":"function","name":"symbolPrefix","inputs":[],"outputs":[{"name":"","type":"string","internalType":"string"}],"stateMutability":"view"},{"type":"event","name":"SynthAdded","inputs":[{"name":"synth","type":"address","indexed":false,"internalType":"address"}],"anonymous":false},{"type":"event","name":"SynthRemoved","inputs":[{"name":"synth","type":"address","indexed":false,"internalType":"address"}],"anonymous":false},{"type":"event","name":"SynthUpdated","inputs":[{"name":"synth","type":"address","indexed":false,"internalType":"address"},{"name":"config","type":"tuple","indexed":false,"internalType":"struct SynthRegistryStorage.SynthConfig","components":[{"name":"maxSupply","type":"uint256","internalType":"uint256"},{"name":"active","type":"bool","internalType":"bool"}]}],"anonymous":false}],"bytecode":{"object":"0x60c060405260056080908152640a6f2dce8d60db1b60a05260029061002490826100f4565b506040805180820190915260018152607360f81b602082015260039061004a90826100f4565b50348015610056575f80fd5b506101b3565b634e487b7160e01b5f52604160045260245ffd5b600181811c9082168061008457607f821691505b6020821081036100a257634e487b7160e01b5f52602260045260245ffd5b50919050565b601f8211156100ef57805f5260205f20601f840160051c810160208510156100cd5750805b601f840160051c820191505b818110156100ec575f81556001016100d9565b50505b505050565b81516001600160401b0381111561010d5761010d61005c565b6101218161011b8454610070565b846100a8565b602080601f831160018114610154575f841561013d5750858301515b5f19600386901b1c1916600185901b1785556101ab565b5f85815260208120601f198616915b8281101561018257888601518255948401946001909101908401610163565b508582101561019f57878501515f19600388901b60f8161c191681555b505060018460011b0185555b505050505050565b610281806101c05f395ff3fe608060405234801561000f575f80fd5b506004361061004a575f3560e01c8063212f89341461004e57806338225b181461007e57806359a8a867146100935780637a4f12be1461009b575b5f80fd5b61006161005c36600461019a565b6100d9565b6040516001600160a01b0390911681526020015b60405180910390f35b610086610101565b60405161007591906101b1565b61008661018d565b6100c46100a93660046101e6565b5f602081905290815260409020805460019091015460ff1682565b60408051928352901515602083015201610075565b600181815481106100e8575f80fd5b5f918252602090912001546001600160a01b0316905081565b6002805461010e90610213565b80601f016020809104026020016040519081016040528092919081815260200182805461013a90610213565b80156101855780601f1061015c57610100808354040283529160200191610185565b820191905f5260205f20905b81548152906001019060200180831161016857829003601f168201915b505050505081565b6003805461010e90610213565b5f602082840312156101aa575f80fd5b5035919050565b602081525f82518060208401528060208501604085015e5f604082850101526040601f19601f83011684010191505092915050565b5f602082840312156101f6575f80fd5b81356001600160a01b038116811461020c575f80fd5b9392505050565b600181811c9082168061022757607f821691505b60208210810361024557634e487b7160e01b5f52602260045260245ffd5b5091905056fea26469706673582212209918d9c8708604e06d660e463ac8fa5a37827cd7988059f129f51a42dbd2c29c64736f6c63430008190033","linkReferences":{}},"methodIdentifiers":{"_synthConfig(address)":"7a4f12be","_synths(uint256)":"212f8934","namePrefix()":"38225b18","symbolPrefix()":"59a8a867"},"id":111}