{"abi":[{"type":"constructor","inputs":[{"name":"_name","type":"string","internalType":"string"},{"name":"_symbol","type":"string","internalType":"string"}],"stateMutability":"nonpayable"},{"type":"function","name":"DELEGATION_WITH_SIG_TYPEHASH","inputs":[],"outputs":[{"name":"","type":"bytes32","internalType":"bytes32"}],"stateMutability":"view"},{"type":"function","name":"allowance","inputs":[{"name":"owner","type":"address","internalType":"address"},{"name":"spender","type":"address","internalType":"address"}],"outputs":[{"name":"","type":"uint256","internalType":"uint256"}],"stateMutability":"view"},{"type":"function","name":"approve","inputs":[{"name":"spender","type":"address","internalType":"address"},{"name":"amount","type":"uint256","internalType":"uint256"}],"outputs":[{"name":"","type":"bool","internalType":"bool"}],"stateMutability":"nonpayable"},{"type":"function","name":"approveDelegation","inputs":[{"name":"delegatee","type":"address","internalType":"address"},{"name":"amount","type":"uint256","internalType":"uint256"}],"outputs":[],"stateMutability":"nonpayable"},{"type":"function","name":"balanceOf","inputs":[{"name":"account","type":"address","internalType":"address"}],"outputs":[{"name":"","type":"uint256","internalType":"uint256"}],"stateMutability":"view"},{"type":"function","name":"debtAllowance","inputs":[{"name":"delegator","type":"address","internalType":"address"},{"name":"delegatee","type":"address","internalType":"address"}],"outputs":[{"name":"","type":"uint256","internalType":"uint256"}],"stateMutability":"view"},{"type":"function","name":"decimals","inputs":[],"outputs":[{"name":"","type":"uint8","internalType":"uint8"}],"stateMutability":"view"},{"type":"function","name":"delegationWithSig","inputs":[{"name":"delegator","type":"address","internalType":"address"},{"name":"delegatee","type":"address","internalType":"address"},{"name":"value","type":"uint256","internalType":"uint256"},{"name":"deadline","type":"uint256","internalType":"uint256"},{"name":"v","type":"uint8","internalType":"uint8"},{"name":"r","type":"bytes32","internalType":"bytes32"},{"name":"s","type":"bytes32","internalType":"bytes32"}],"outputs":[],"stateMutability":"nonpayable"},{"type":"function","name":"eip712Domain","inputs":[],"outputs":[{"name":"fields","type":"bytes1","internalType":"bytes1"},{"name":"name","type":"string","internalType":"string"},{"name":"version","type":"string","internalType":"string"},{"name":"chainId","type":"uint256","internalType":"uint256"},{"name":"verifyingContract","type":"address","internalType":"address"},{"name":"salt","type":"bytes32","internalType":"bytes32"},{"name":"extensions","type":"uint256[]","internalType":"uint256[]"}],"stateMutability":"view"},{"type":"function","name":"name","inputs":[],"outputs":[{"name":"","type":"string","internalType":"string"}],"stateMutability":"view"},{"type":"function","name":"nonces","inputs":[{"name":"owner","type":"address","internalType":"address"}],"outputs":[{"name":"","type":"uint256","internalType":"uint256"}],"stateMutability":"view"},{"type":"function","name":"symbol","inputs":[],"outputs":[{"name":"","type":"string","internalType":"string"}],"stateMutability":"view"},{"type":"function","name":"totalSupply","inputs":[],"outputs":[{"name":"","type":"uint256","internalType":"uint256"}],"stateMutability":"view"},{"type":"function","name":"transfer","inputs":[{"name":"recipient","type":"address","internalType":"address"},{"name":"amount","type":"uint256","internalType":"uint256"}],"outputs":[{"name":"","type":"bool","internalType":"bool"}],"stateMutability":"nonpayable"},{"type":"function","name":"transferFrom","inputs":[{"name":"sender","type":"address","internalType":"address"},{"name":"recipient","type":"address","internalType":"address"},{"name":"amount","type":"uint256","internalType":"uint256"}],"outputs":[{"name":"","type":"bool","internalType":"bool"}],"stateMutability":"nonpayable"},{"type":"event","name":"Approval","inputs":[{"name":"owner","type":"address","indexed":true,"internalType":"address"},{"name":"spender","type":"address","indexed":true,"internalType":"address"},{"name":"value","type":"uint256","indexed":false,"internalType":"uint256"}],"anonymous":false},{"type":"event","name":"DebtAllowanceDelegated","inputs":[{"name":"delegator","type":"address","indexed":true,"internalType":"address"},{"name":"delegatee","type":"address","indexed":true,"internalType":"address"},{"name":"value","type":"uint256","indexed":false,"internalType":"uint256"}],"anonymous":false},{"type":"event","name":"EIP712DomainChanged","inputs":[],"anonymous":false},{"type":"event","name":"Transfer","inputs":[{"name":"from","type":"address","indexed":true,"internalType":"address"},{"name":"to","type":"address","indexed":true,"internalType":"address"},{"name":"value","type":"uint256","indexed":false,"internalType":"uint256"}],"anonymous":false},{"type":"error","name":"ECDSAInvalidSignature","inputs":[]},{"type":"error","name":"ECDSAInvalidSignatureLength","inputs":[{"name":"length","type":"uint256","internalType":"uint256"}]},{"type":"error","name":"ECDSAInvalidSignatureS","inputs":[{"name":"s","type":"bytes32","internalType":"bytes32"}]},{"type":"error","name":"ERC20InsufficientAllowance","inputs":[{"name":"spender","type":"address","internalType":"address"},{"name":"allowance","type":"uint256","internalType":"uint256"},{"name":"needed","type":"uint256","internalType":"uint256"}]},{"type":"error","name":"ERC20InsufficientBalance","inputs":[{"name":"sender","type":"address","internalType":"address"},{"name":"balance","type":"uint256","internalType":"uint256"},{"name":"needed","type":"uint256","internalType":"uint256"}]},{"type":"error","name":"ERC20InvalidApprover","inputs":[{"name":"approver","type":"address","internalType":"address"}]},{"type":"error","name":"ERC20InvalidReceiver","inputs":[{"name":"receiver","type":"address","internalType":"address"}]},{"type":"error","name":"ERC20InvalidSender","inputs":[{"name":"sender","type":"address","internalType":"address"}]},{"type":"error","name":"ERC20InvalidSpender","inputs":[{"name":"spender","type":"address","internalType":"address"}]},{"type":"error","name":"InvalidAccountNonce","inputs":[{"name":"account","type":"address","internalType":"address"},{"name":"currentNonce","type":"uint256","internalType":"uint256"}]},{"type":"error","name":"InvalidShortString","inputs":[]},{"type":"error","name":"StringTooLong","inputs":[{"name":"str","type":"string","internalType":"string"}]}],"bytecode":{"object":"0x61016060405234801561001157600080fd5b506040516111aa3803806111aa8339810160408190526100309161025d565b6040805180820190915260018152603160f81b6020820152829081836003610058838261034b565b506004610065828261034b565b5061007591508390506005610122565b61012052610084816006610122565b61014052815160208084019190912060e052815190820120610100524660a05261011160e05161010051604080517f8b73c3c69bb8fe3d512ecc4cf759cc79239f7b179b0ffacaa9a75d522b39400f60208201529081019290925260608201524660808201523060a082015260009060c00160405160208183030381529060405280519060200120905090565b60805250503060c052506104619050565b600060208351101561013e5761013783610155565b905061014f565b81610149848261034b565b5060ff90505b92915050565b600080829050601f81511115610189578260405163305a27a960e01b8152600401610180919061040a565b60405180910390fd5b80516101948261043d565b179392505050565b634e487b7160e01b600052604160045260246000fd5b60005b838110156101cd5781810151838201526020016101b5565b50506000910152565b600082601f8301126101e757600080fd5b81516001600160401b03808211156102015761020161019c565b604051601f8301601f19908116603f011681019082821181831017156102295761022961019c565b8160405283815286602085880101111561024257600080fd5b6102538460208301602089016101b2565b9695505050505050565b6000806040838503121561027057600080fd5b82516001600160401b038082111561028757600080fd5b610293868387016101d6565b935060208501519150808211156102a957600080fd5b506102b6858286016101d6565b9150509250929050565b600181811c908216806102d457607f821691505b6020821081036102f457634e487b7160e01b600052602260045260246000fd5b50919050565b601f821115610346576000816000526020600020601f850160051c810160208610156103235750805b601f850160051c820191505b818110156103425782815560010161032f565b5050505b505050565b81516001600160401b038111156103645761036461019c565b6103788161037284546102c0565b846102fa565b602080601f8311600181146103ad57600084156103955750858301515b600019600386901b1c1916600185901b178555610342565b600085815260208120601f198616915b828110156103dc578886015182559484019460019091019084016103bd565b50858210156103fa5787850151600019600388901b60f8161c191681555b5050505050600190811b01905550565b60208152600082518060208401526104298160408501602087016101b2565b601f01601f19169190910160400192915050565b805160208083015191908110156102f45760001960209190910360031b1b16919050565b60805160a05160c05160e051610100516101205161014051610cef6104bb600039600061064201526000610610015260006107420152600061071a015260006106750152600061069f015260006106c90152610cef6000f3fe608060405234801561001057600080fd5b50600436106100f55760003560e01c806370a0823111610097578063a9059cbb11610066578063a9059cbb14610118578063c04a8a101461020b578063dd62ed3e1461021e578063f3bfc7381461025757600080fd5b806370a08231146101965780637ecebe00146101bf57806384b0196e146101e857806395d89b411461020357600080fd5b80630b52d558116100d35780630b52d5581461015c57806318160ddd1461017157806323b872dd14610179578063313ce5671461018757600080fd5b806306fdde03146100fa578063095ea7b3146101185780630b2d90701461013b575b600080fd5b61010261027e565b60405161010f9190610a73565b60405180910390f35b61012b610126366004610aa9565b610310565b604051901515815260200161010f565b61014e610149366004610ad3565b610360565b60405190815260200161010f565b61016f61016a366004610b06565b61038d565b005b60025461014e565b61012b610126366004610b79565b6040516012815260200161010f565b61014e6101a4366004610bb5565b6001600160a01b031660009081526020819052604090205490565b61014e6101cd366004610bb5565b6001600160a01b031660009081526007602052604090205490565b6101f06104e9565b60405161010f9796959493929190610bd0565b61010261052f565b61016f610219366004610aa9565b61053e565b61014e61022c366004610ad3565b6001600160a01b03918216600090815260016020908152604080832093909416825291909152205490565b61014e7f3f8f1584d261c3704820464a741b70ed265924afb92939f833452d3a71c21c9c81565b60606003805461028d90610c69565b80601f01602080910402602001604051908101604052809291908181526020018280546102b990610c69565b80156103065780601f106102db57610100808354040283529160200191610306565b820191906000526020600020905b8154815290600101906020018083116102e957829003601f168201915b5050505050905090565b60405162461bcd60e51b815260206004820152601760248201527f4f5045524154494f4e5f4e4f545f535550504f5254454400000000000000000060448201526000906064015b60405180910390fd5b6001600160a01b038083166000908152600860209081526040808320938516835292905220545b92915050565b834211156103d25760405162461bcd60e51b815260206004820152601260248201527124a72b20a624a22fa2ac2824a920aa24a7a760711b6044820152606401610357565b6001600160a01b038781166000818152600860209081526040808320948b168084529482528083205481517f3f8f1584d261c3704820464a741b70ed265924afb92939f833452d3a71c21c9c81850152808301959095526060850195909552608084018a905260a084019490945260c08084018990528451808503909101815260e0909301909352815191909201209061046b8261054d565b9050600061047b8287878761057a565b9050896001600160a01b0316816001600160a01b0316146104d25760405162461bcd60e51b8152602060048201526011602482015270494e56414c49445f5349474e415455524560781b6044820152606401610357565b6104dd8a8a8a6105a8565b50505050505050505050565b6000606080600080600060606104fd610609565b61050561063b565b60408051600080825260208201909252600f60f81b9b939a50919850469750309650945092509050565b60606004805461028d90610c69565b6105493383836105a8565b5050565b600061038761055a610668565b8360405161190160f01b8152600281019290925260228201526042902090565b60008060008061058c88888888610793565b92509250925061059c8282610862565b50909695505050505050565b6001600160a01b0383811660008181526008602090815260408083209487168084529482529182902085905590518481527fe840c5397d4cc6701cb0a4091d296f8b9d45f0b6a02edfb20e83d45481db5fc1910160405180910390a3505050565b60606106367f0000000000000000000000000000000000000000000000000000000000000000600561091b565b905090565b60606106367f0000000000000000000000000000000000000000000000000000000000000000600661091b565b6000306001600160a01b037f0000000000000000000000000000000000000000000000000000000000000000161480156106c157507f000000000000000000000000000000000000000000000000000000000000000046145b156106eb57507f000000000000000000000000000000000000000000000000000000000000000090565b610636604080517f8b73c3c69bb8fe3d512ecc4cf759cc79239f7b179b0ffacaa9a75d522b39400f60208201527f0000000000000000000000000000000000000000000000000000000000000000918101919091527f000000000000000000000000000000000000000000000000000000000000000060608201524660808201523060a082015260009060c00160405160208183030381529060405280519060200120905090565b600080807f7fffffffffffffffffffffffffffffff5d576e7357a4501ddfe92f46681b20a08411156107ce5750600091506003905082610858565b604080516000808252602082018084528a905260ff891692820192909252606081018790526080810186905260019060a0016020604051602081039080840390855afa158015610822573d6000803e3d6000fd5b5050604051601f1901519150506001600160a01b03811661084e57506000925060019150829050610858565b9250600091508190505b9450945094915050565b600082600381111561087657610876610ca3565b0361087f575050565b600182600381111561089357610893610ca3565b036108b15760405163f645eedf60e01b815260040160405180910390fd5b60028260038111156108c5576108c5610ca3565b036108e65760405163fce698f760e01b815260048101829052602401610357565b60038260038111156108fa576108fa610ca3565b03610549576040516335e2f38360e21b815260048101829052602401610357565b606060ff83146109355761092e836109c6565b9050610387565b81805461094190610c69565b80601f016020809104026020016040519081016040528092919081815260200182805461096d90610c69565b80156109ba5780601f1061098f576101008083540402835291602001916109ba565b820191906000526020600020905b81548152906001019060200180831161099d57829003601f168201915b50505050509050610387565b606060006109d383610a05565b604080516020808252818301909252919250600091906020820181803683375050509182525060208101929092525090565b600060ff8216601f81111561038757604051632cd44ac360e21b815260040160405180910390fd5b6000815180845260005b81811015610a5357602081850181015186830182015201610a37565b506000602082860101526020601f19601f83011685010191505092915050565b602081526000610a866020830184610a2d565b9392505050565b80356001600160a01b0381168114610aa457600080fd5b919050565b60008060408385031215610abc57600080fd5b610ac583610a8d565b946020939093013593505050565b60008060408385031215610ae657600080fd5b610aef83610a8d565b9150610afd60208401610a8d565b90509250929050565b600080600080600080600060e0888a031215610b2157600080fd5b610b2a88610a8d565b9650610b3860208901610a8d565b95506040880135945060608801359350608088013560ff81168114610b5c57600080fd5b9699959850939692959460a0840135945060c09093013592915050565b600080600060608486031215610b8e57600080fd5b610b9784610a8d565b9250610ba560208501610a8d565b9150604084013590509250925092565b600060208284031215610bc757600080fd5b610a8682610a8d565b60ff60f81b881681526000602060e06020840152610bf160e084018a610a2d565b8381036040850152610c03818a610a2d565b606085018990526001600160a01b038816608086015260a0850187905284810360c08601528551808252602080880193509091019060005b81811015610c5757835183529284019291840191600101610c3b565b50909c9b505050505050505050505050565b600181811c90821680610c7d57607f821691505b602082108103610c9d57634e487b7160e01b600052602260045260246000fd5b50919050565b634e487b7160e01b600052602160045260246000fdfea2646970667358221220f41fdb1aea1dc25c23082cda49bc84a5dc620f519adb80168c060a448fb86c1f64736f6c63430008190033","linkReferences":{}},"methodIdentifiers":{"DELEGATION_WITH_SIG_TYPEHASH()":"f3bfc738","allowance(address,address)":"dd62ed3e","approve(address,uint256)":"095ea7b3","approveDelegation(address,uint256)":"c04a8a10","balanceOf(address)":"70a08231","debtAllowance(address,address)":"0b2d9070","decimals()":"313ce567","delegationWithSig(address,address,uint256,uint256,uint8,bytes32,bytes32)":"0b52d558","eip712Domain()":"84b0196e","name()":"06fdde03","nonces(address)":"7ecebe00","symbol()":"95d89b41","totalSupply()":"18160ddd","transfer(address,uint256)":"a9059cbb","transferFrom(address,address,uint256)":"23b872dd"},"id":78}