{"abi":[{"type":"constructor","inputs":[{"name":"_name","type":"string","internalType":"string"},{"name":"_symbol","type":"string","internalType":"string"}],"stateMutability":"nonpayable"},{"type":"function","name":"DELEGATION_WITH_SIG_TYPEHASH","inputs":[],"outputs":[{"name":"","type":"bytes32","internalType":"bytes32"}],"stateMutability":"view"},{"type":"function","name":"allowance","inputs":[{"name":"owner","type":"address","internalType":"address"},{"name":"spender","type":"address","internalType":"address"}],"outputs":[{"name":"","type":"uint256","internalType":"uint256"}],"stateMutability":"view"},{"type":"function","name":"approve","inputs":[{"name":"spender","type":"address","internalType":"address"},{"name":"amount","type":"uint256","internalType":"uint256"}],"outputs":[{"name":"","type":"bool","internalType":"bool"}],"stateMutability":"nonpayable"},{"type":"function","name":"approveDelegation","inputs":[{"name":"delegatee","type":"address","internalType":"address"},{"name":"amount","type":"uint256","internalType":"uint256"}],"outputs":[],"stateMutability":"nonpayable"},{"type":"function","name":"balanceOf","inputs":[{"name":"account","type":"address","internalType":"address"}],"outputs":[{"name":"","type":"uint256","internalType":"uint256"}],"stateMutability":"view"},{"type":"function","name":"debtAllowance","inputs":[{"name":"delegator","type":"address","internalType":"address"},{"name":"delegatee","type":"address","internalType":"address"}],"outputs":[{"name":"","type":"uint256","internalType":"uint256"}],"stateMutability":"view"},{"type":"function","name":"decimals","inputs":[],"outputs":[{"name":"","type":"uint8","internalType":"uint8"}],"stateMutability":"view"},{"type":"function","name":"delegationWithSig","inputs":[{"name":"delegator","type":"address","internalType":"address"},{"name":"delegatee","type":"address","internalType":"address"},{"name":"value","type":"uint256","internalType":"uint256"},{"name":"deadline","type":"uint256","internalType":"uint256"},{"name":"v","type":"uint8","internalType":"uint8"},{"name":"r","type":"bytes32","internalType":"bytes32"},{"name":"s","type":"bytes32","internalType":"bytes32"}],"outputs":[],"stateMutability":"nonpayable"},{"type":"function","name":"eip712Domain","inputs":[],"outputs":[{"name":"fields","type":"bytes1","internalType":"bytes1"},{"name":"name","type":"string","internalType":"string"},{"name":"version","type":"string","internalType":"string"},{"name":"chainId","type":"uint256","internalType":"uint256"},{"name":"verifyingContract","type":"address","internalType":"address"},{"name":"salt","type":"bytes32","internalType":"bytes32"},{"name":"extensions","type":"uint256[]","internalType":"uint256[]"}],"stateMutability":"view"},{"type":"function","name":"name","inputs":[],"outputs":[{"name":"","type":"string","internalType":"string"}],"stateMutability":"view"},{"type":"function","name":"nonces","inputs":[{"name":"owner","type":"address","internalType":"address"}],"outputs":[{"name":"","type":"uint256","internalType":"uint256"}],"stateMutability":"view"},{"type":"function","name":"symbol","inputs":[],"outputs":[{"name":"","type":"string","internalType":"string"}],"stateMutability":"view"},{"type":"function","name":"totalSupply","inputs":[],"outputs":[{"name":"","type":"uint256","internalType":"uint256"}],"stateMutability":"view"},{"type":"function","name":"transfer","inputs":[{"name":"recipient","type":"address","internalType":"address"},{"name":"amount","type":"uint256","internalType":"uint256"}],"outputs":[{"name":"","type":"bool","internalType":"bool"}],"stateMutability":"nonpayable"},{"type":"function","name":"transferFrom","inputs":[{"name":"sender","type":"address","internalType":"address"},{"name":"recipient","type":"address","internalType":"address"},{"name":"amount","type":"uint256","internalType":"uint256"}],"outputs":[{"name":"","type":"bool","internalType":"bool"}],"stateMutability":"nonpayable"},{"type":"event","name":"Approval","inputs":[{"name":"owner","type":"address","indexed":true,"internalType":"address"},{"name":"spender","type":"address","indexed":true,"internalType":"address"},{"name":"value","type":"uint256","indexed":false,"internalType":"uint256"}],"anonymous":false},{"type":"event","name":"DebtAllowanceDelegated","inputs":[{"name":"delegator","type":"address","indexed":true,"internalType":"address"},{"name":"delegatee","type":"address","indexed":true,"internalType":"address"},{"name":"value","type":"uint256","indexed":false,"internalType":"uint256"}],"anonymous":false},{"type":"event","name":"EIP712DomainChanged","inputs":[],"anonymous":false},{"type":"event","name":"Transfer","inputs":[{"name":"from","type":"address","indexed":true,"internalType":"address"},{"name":"to","type":"address","indexed":true,"internalType":"address"},{"name":"value","type":"uint256","indexed":false,"internalType":"uint256"}],"anonymous":false},{"type":"error","name":"ECDSAInvalidSignature","inputs":[]},{"type":"error","name":"ECDSAInvalidSignatureLength","inputs":[{"name":"length","type":"uint256","internalType":"uint256"}]},{"type":"error","name":"ECDSAInvalidSignatureS","inputs":[{"name":"s","type":"bytes32","internalType":"bytes32"}]},{"type":"error","name":"ERC20InsufficientAllowance","inputs":[{"name":"spender","type":"address","internalType":"address"},{"name":"allowance","type":"uint256","internalType":"uint256"},{"name":"needed","type":"uint256","internalType":"uint256"}]},{"type":"error","name":"ERC20InsufficientBalance","inputs":[{"name":"sender","type":"address","internalType":"address"},{"name":"balance","type":"uint256","internalType":"uint256"},{"name":"needed","type":"uint256","internalType":"uint256"}]},{"type":"error","name":"ERC20InvalidApprover","inputs":[{"name":"approver","type":"address","internalType":"address"}]},{"type":"error","name":"ERC20InvalidReceiver","inputs":[{"name":"receiver","type":"address","internalType":"address"}]},{"type":"error","name":"ERC20InvalidSender","inputs":[{"name":"sender","type":"address","internalType":"address"}]},{"type":"error","name":"ERC20InvalidSpender","inputs":[{"name":"spender","type":"address","internalType":"address"}]},{"type":"error","name":"InvalidAccountNonce","inputs":[{"name":"account","type":"address","internalType":"address"},{"name":"currentNonce","type":"uint256","internalType":"uint256"}]},{"type":"error","name":"InvalidShortString","inputs":[]},{"type":"error","name":"StringTooLong","inputs":[{"name":"str","type":"string","internalType":"string"}]}],"bytecode":{"object":"0x610160604052348015610010575f80fd5b5060405161111938038061111983398101604081905261002f91610234565b6040805180820190915260018152603160f81b60208201528290818360036100578382610317565b5060046100648282610317565b5061007491508390506005610120565b61012052610083816006610120565b61014052815160208084019190912060e052815190820120610100524660a05261010f60e05161010051604080517f8b73c3c69bb8fe3d512ecc4cf759cc79239f7b179b0ffacaa9a75d522b39400f60208201529081019290925260608201524660808201523060a08201525f9060c00160405160208183030381529060405280519060200120905090565b60805250503060c0525061042e9050565b5f60208351101561013b5761013483610152565b905061014c565b816101468482610317565b5060ff90505b92915050565b5f80829050601f81511115610185578260405163305a27a960e01b815260040161017c91906103d6565b60405180910390fd5b80516101908261040b565b179392505050565b634e487b7160e01b5f52604160045260245ffd5b5f82601f8301126101bb575f80fd5b81516001600160401b03808211156101d5576101d5610198565b604051601f8301601f19908116603f011681019082821181831017156101fd576101fd610198565b81604052838152866020858801011115610215575f80fd5b8360208701602083015e5f602085830101528094505050505092915050565b5f8060408385031215610245575f80fd5b82516001600160401b038082111561025b575f80fd5b610267868387016101ac565b9350602085015191508082111561027c575f80fd5b50610289858286016101ac565b9150509250929050565b600181811c908216806102a757607f821691505b6020821081036102c557634e487b7160e01b5f52602260045260245ffd5b50919050565b601f82111561031257805f5260205f20601f840160051c810160208510156102f05750805b601f840160051c820191505b8181101561030f575f81556001016102fc565b50505b505050565b81516001600160401b0381111561033057610330610198565b6103448161033e8454610293565b846102cb565b602080601f831160018114610377575f84156103605750858301515b5f19600386901b1c1916600185901b1785556103ce565b5f85815260208120601f198616915b828110156103a557888601518255948401946001909101908401610386565b50858210156103c257878501515f19600388901b60f8161c191681555b505060018460011b0185555b505050505050565b602081525f82518060208401528060208501604085015e5f604082850101526040601f19601f83011684010191505092915050565b805160208083015191908110156102c5575f1960209190910360031b1b16919050565b60805160a05160c05160e051610100516101205161014051610c9a61047f5f395f61062b01525f6105f901525f61072a01525f61070201525f61065d01525f61068701525f6106b10152610c9a5ff3fe608060405234801561000f575f80fd5b50600436106100f0575f3560e01c806370a0823111610093578063a9059cbb11610063578063a9059cbb14610112578063c04a8a1014610203578063dd62ed3e14610216578063f3bfc7381461024e575f80fd5b806370a08231146101905780637ecebe00146101b857806384b0196e146101e057806395d89b41146101fb575f80fd5b80630b52d558116100ce5780630b52d5581461015657806318160ddd1461016b57806323b872dd14610173578063313ce56714610181575f80fd5b806306fdde03146100f4578063095ea7b3146101125780630b2d907014610135575b5f80fd5b6100fc610275565b6040516101099190610a35565b60405180910390f35b610125610120366004610a69565b610305565b6040519015158152602001610109565b610148610143366004610a91565b610354565b604051908152602001610109565b610169610164366004610ac2565b610380565b005b600254610148565b610125610120366004610b2f565b60405160128152602001610109565b61014861019e366004610b68565b6001600160a01b03165f9081526020819052604090205490565b6101486101c6366004610b68565b6001600160a01b03165f9081526007602052604090205490565b6101e86104da565b6040516101099796959493929190610b81565b6100fc61051c565b610169610211366004610a69565b61052b565b610148610224366004610a91565b6001600160a01b039182165f90815260016020908152604080832093909416825291909152205490565b6101487f3f8f1584d261c3704820464a741b70ed265924afb92939f833452d3a71c21c9c81565b60606003805461028490610c18565b80601f01602080910402602001604051908101604052809291908181526020018280546102b090610c18565b80156102fb5780601f106102d2576101008083540402835291602001916102fb565b820191905f5260205f20905b8154815290600101906020018083116102de57829003601f168201915b5050505050905090565b60405162461bcd60e51b815260206004820152601760248201527f4f5045524154494f4e5f4e4f545f535550504f5254454400000000000000000060448201525f906064015b60405180910390fd5b6001600160a01b038083165f908152600860209081526040808320938516835292905220545b92915050565b834211156103c55760405162461bcd60e51b815260206004820152601260248201527124a72b20a624a22fa2ac2824a920aa24a7a760711b604482015260640161034b565b6001600160a01b038781165f818152600860209081526040808320948b168084529482528083205481517f3f8f1584d261c3704820464a741b70ed265924afb92939f833452d3a71c21c9c81850152808301959095526060850195909552608084018a905260a084019490945260c08084018990528451808503909101815260e0909301909352815191909201209061045d8261053a565b90505f61046c82878787610566565b9050896001600160a01b0316816001600160a01b0316146104c35760405162461bcd60e51b8152602060048201526011602482015270494e56414c49445f5349474e415455524560781b604482015260640161034b565b6104ce8a8a8a610592565b50505050505050505050565b5f6060805f805f60606104eb6105f2565b6104f3610624565b604080515f80825260208201909252600f60f81b9b939a50919850469750309650945092509050565b60606004805461028490610c18565b610536338383610592565b5050565b5f61037a610546610651565b8360405161190160f01b8152600281019290925260228201526042902090565b5f805f806105768888888861077a565b9250925092506105868282610842565b50909695505050505050565b6001600160a01b038381165f8181526008602090815260408083209487168084529482529182902085905590518481527fe840c5397d4cc6701cb0a4091d296f8b9d45f0b6a02edfb20e83d45481db5fc1910160405180910390a3505050565b606061061f7f000000000000000000000000000000000000000000000000000000000000000060056108fa565b905090565b606061061f7f000000000000000000000000000000000000000000000000000000000000000060066108fa565b5f306001600160a01b037f0000000000000000000000000000000000000000000000000000000000000000161480156106a957507f000000000000000000000000000000000000000000000000000000000000000046145b156106d357507f000000000000000000000000000000000000000000000000000000000000000090565b61061f604080517f8b73c3c69bb8fe3d512ecc4cf759cc79239f7b179b0ffacaa9a75d522b39400f60208201527f0000000000000000000000000000000000000000000000000000000000000000918101919091527f000000000000000000000000000000000000000000000000000000000000000060608201524660808201523060a08201525f9060c00160405160208183030381529060405280519060200120905090565b5f80807f7fffffffffffffffffffffffffffffff5d576e7357a4501ddfe92f46681b20a08411156107b357505f91506003905082610838565b604080515f808252602082018084528a905260ff891692820192909252606081018790526080810186905260019060a0016020604051602081039080840390855afa158015610804573d5f803e3d5ffd5b5050604051601f1901519150506001600160a01b03811661082f57505f925060019150829050610838565b92505f91508190505b9450945094915050565b5f82600381111561085557610855610c50565b0361085e575050565b600182600381111561087257610872610c50565b036108905760405163f645eedf60e01b815260040160405180910390fd5b60028260038111156108a4576108a4610c50565b036108c55760405163fce698f760e01b81526004810182905260240161034b565b60038260038111156108d9576108d9610c50565b03610536576040516335e2f38360e21b81526004810182905260240161034b565b606060ff83146109145761090d836109a3565b905061037a565b81805461092090610c18565b80601f016020809104026020016040519081016040528092919081815260200182805461094c90610c18565b80156109975780601f1061096e57610100808354040283529160200191610997565b820191905f5260205f20905b81548152906001019060200180831161097a57829003601f168201915b5050505050905061037a565b60605f6109af836109e0565b6040805160208082528183019092529192505f91906020820181803683375050509182525060208101929092525090565b5f60ff8216601f81111561037a57604051632cd44ac360e21b815260040160405180910390fd5b5f81518084528060208401602086015e5f602082860101526020601f19601f83011685010191505092915050565b602081525f610a476020830184610a07565b9392505050565b80356001600160a01b0381168114610a64575f80fd5b919050565b5f8060408385031215610a7a575f80fd5b610a8383610a4e565b946020939093013593505050565b5f8060408385031215610aa2575f80fd5b610aab83610a4e565b9150610ab960208401610a4e565b90509250929050565b5f805f805f805f60e0888a031215610ad8575f80fd5b610ae188610a4e565b9650610aef60208901610a4e565b95506040880135945060608801359350608088013560ff81168114610b12575f80fd5b9699959850939692959460a0840135945060c09093013592915050565b5f805f60608486031215610b41575f80fd5b610b4a84610a4e565b9250610b5860208501610a4e565b9150604084013590509250925092565b5f60208284031215610b78575f80fd5b610a4782610a4e565b60ff60f81b881681525f602060e06020840152610ba160e084018a610a07565b8381036040850152610bb3818a610a07565b606085018990526001600160a01b038816608086015260a0850187905284810360c0860152855180825260208088019350909101905f5b81811015610c0657835183529284019291840191600101610bea565b50909c9b505050505050505050505050565b600181811c90821680610c2c57607f821691505b602082108103610c4a57634e487b7160e01b5f52602260045260245ffd5b50919050565b634e487b7160e01b5f52602160045260245ffdfea2646970667358221220a3e8e59f21f5363254c28d82d9a09e2692f40c02157c594694874340950979a664736f6c63430008190033","linkReferences":{}},"methodIdentifiers":{"DELEGATION_WITH_SIG_TYPEHASH()":"f3bfc738","allowance(address,address)":"dd62ed3e","approve(address,uint256)":"095ea7b3","approveDelegation(address,uint256)":"c04a8a10","balanceOf(address)":"70a08231","debtAllowance(address,address)":"0b2d9070","decimals()":"313ce567","delegationWithSig(address,address,uint256,uint256,uint8,bytes32,bytes32)":"0b52d558","eip712Domain()":"84b0196e","name()":"06fdde03","nonces(address)":"7ecebe00","symbol()":"95d89b41","totalSupply()":"18160ddd","transfer(address,uint256)":"a9059cbb","transferFrom(address,address,uint256)":"23b872dd"},"id":100}