{"abi":[{"type":"constructor","inputs":[{"name":"_name","type":"string","internalType":"string"},{"name":"_symbol","type":"string","internalType":"string"},{"name":"_authority","type":"address","internalType":"address"}],"stateMutability":"nonpayable"},{"type":"function","name":"DELEGATION_WITH_SIG_TYPEHASH","inputs":[],"outputs":[{"name":"","type":"bytes32","internalType":"bytes32"}],"stateMutability":"view"},{"type":"function","name":"allowance","inputs":[{"name":"","type":"address","internalType":"address"},{"name":"","type":"address","internalType":"address"}],"outputs":[{"name":"","type":"uint256","internalType":"uint256"}],"stateMutability":"view"},{"type":"function","name":"approve","inputs":[{"name":"","type":"address","internalType":"address"},{"name":"","type":"uint256","internalType":"uint256"}],"outputs":[{"name":"","type":"bool","internalType":"bool"}],"stateMutability":"nonpayable"},{"type":"function","name":"approveDelegation","inputs":[{"name":"delegatee","type":"address","internalType":"address"},{"name":"amount","type":"uint256","internalType":"uint256"}],"outputs":[],"stateMutability":"nonpayable"},{"type":"function","name":"authority","inputs":[],"outputs":[{"name":"","type":"address","internalType":"address"}],"stateMutability":"view"},{"type":"function","name":"balanceOf","inputs":[{"name":"account","type":"address","internalType":"address"}],"outputs":[{"name":"","type":"uint256","internalType":"uint256"}],"stateMutability":"view"},{"type":"function","name":"burn","inputs":[{"name":"user","type":"address","internalType":"address"},{"name":"amount","type":"uint256","internalType":"uint256"}],"outputs":[],"stateMutability":"nonpayable"},{"type":"function","name":"debtAllowance","inputs":[{"name":"delegator","type":"address","internalType":"address"},{"name":"delegatee","type":"address","internalType":"address"}],"outputs":[{"name":"","type":"uint256","internalType":"uint256"}],"stateMutability":"view"},{"type":"function","name":"decimals","inputs":[],"outputs":[{"name":"","type":"uint8","internalType":"uint8"}],"stateMutability":"view"},{"type":"function","name":"delegationWithSig","inputs":[{"name":"delegator","type":"address","internalType":"address"},{"name":"delegatee","type":"address","internalType":"address"},{"name":"value","type":"uint256","internalType":"uint256"},{"name":"deadline","type":"uint256","internalType":"uint256"},{"name":"v","type":"uint8","internalType":"uint8"},{"name":"r","type":"bytes32","internalType":"bytes32"},{"name":"s","type":"bytes32","internalType":"bytes32"}],"outputs":[],"stateMutability":"nonpayable"},{"type":"function","name":"eip712Domain","inputs":[],"outputs":[{"name":"fields","type":"bytes1","internalType":"bytes1"},{"name":"name","type":"string","internalType":"string"},{"name":"version","type":"string","internalType":"string"},{"name":"chainId","type":"uint256","internalType":"uint256"},{"name":"verifyingContract","type":"address","internalType":"address"},{"name":"salt","type":"bytes32","internalType":"bytes32"},{"name":"extensions","type":"uint256[]","internalType":"uint256[]"}],"stateMutability":"view"},{"type":"function","name":"isConsumingScheduledOp","inputs":[],"outputs":[{"name":"","type":"bytes4","internalType":"bytes4"}],"stateMutability":"view"},{"type":"function","name":"mint","inputs":[{"name":"user","type":"address","internalType":"address"},{"name":"onBehalfOf","type":"address","internalType":"address"},{"name":"amount","type":"uint256","internalType":"uint256"}],"outputs":[],"stateMutability":"nonpayable"},{"type":"function","name":"name","inputs":[],"outputs":[{"name":"","type":"string","internalType":"string"}],"stateMutability":"view"},{"type":"function","name":"nonces","inputs":[{"name":"owner","type":"address","internalType":"address"}],"outputs":[{"name":"","type":"uint256","internalType":"uint256"}],"stateMutability":"view"},{"type":"function","name":"setAuthority","inputs":[{"name":"newAuthority","type":"address","internalType":"address"}],"outputs":[],"stateMutability":"nonpayable"},{"type":"function","name":"symbol","inputs":[],"outputs":[{"name":"","type":"string","internalType":"string"}],"stateMutability":"view"},{"type":"function","name":"totalSupply","inputs":[],"outputs":[{"name":"","type":"uint256","internalType":"uint256"}],"stateMutability":"view"},{"type":"function","name":"transfer","inputs":[{"name":"","type":"address","internalType":"address"},{"name":"","type":"uint256","internalType":"uint256"}],"outputs":[{"name":"","type":"bool","internalType":"bool"}],"stateMutability":"nonpayable"},{"type":"function","name":"transferFrom","inputs":[{"name":"","type":"address","internalType":"address"},{"name":"","type":"address","internalType":"address"},{"name":"","type":"uint256","internalType":"uint256"}],"outputs":[{"name":"","type":"bool","internalType":"bool"}],"stateMutability":"nonpayable"},{"type":"event","name":"Approval","inputs":[{"name":"owner","type":"address","indexed":true,"internalType":"address"},{"name":"spender","type":"address","indexed":true,"internalType":"address"},{"name":"value","type":"uint256","indexed":false,"internalType":"uint256"}],"anonymous":false},{"type":"event","name":"AuthorityUpdated","inputs":[{"name":"authority","type":"address","indexed":false,"internalType":"address"}],"anonymous":false},{"type":"event","name":"DebtAllowanceDelegated","inputs":[{"name":"delegator","type":"address","indexed":true,"internalType":"address"},{"name":"delegatee","type":"address","indexed":true,"internalType":"address"},{"name":"value","type":"uint256","indexed":false,"internalType":"uint256"}],"anonymous":false},{"type":"event","name":"EIP712DomainChanged","inputs":[],"anonymous":false},{"type":"event","name":"Transfer","inputs":[{"name":"from","type":"address","indexed":true,"internalType":"address"},{"name":"to","type":"address","indexed":true,"internalType":"address"},{"name":"value","type":"uint256","indexed":false,"internalType":"uint256"}],"anonymous":false},{"type":"error","name":"AccessManagedInvalidAuthority","inputs":[{"name":"authority","type":"address","internalType":"address"}]},{"type":"error","name":"AccessManagedRequiredDelay","inputs":[{"name":"caller","type":"address","internalType":"address"},{"name":"delay","type":"uint32","internalType":"uint32"}]},{"type":"error","name":"AccessManagedUnauthorized","inputs":[{"name":"caller","type":"address","internalType":"address"}]},{"type":"error","name":"ECDSAInvalidSignature","inputs":[]},{"type":"error","name":"ECDSAInvalidSignatureLength","inputs":[{"name":"length","type":"uint256","internalType":"uint256"}]},{"type":"error","name":"ECDSAInvalidSignatureS","inputs":[{"name":"s","type":"bytes32","internalType":"bytes32"}]},{"type":"error","name":"ERC20InsufficientAllowance","inputs":[{"name":"spender","type":"address","internalType":"address"},{"name":"allowance","type":"uint256","internalType":"uint256"},{"name":"needed","type":"uint256","internalType":"uint256"}]},{"type":"error","name":"ERC20InsufficientBalance","inputs":[{"name":"sender","type":"address","internalType":"address"},{"name":"balance","type":"uint256","internalType":"uint256"},{"name":"needed","type":"uint256","internalType":"uint256"}]},{"type":"error","name":"ERC20InvalidApprover","inputs":[{"name":"approver","type":"address","internalType":"address"}]},{"type":"error","name":"ERC20InvalidReceiver","inputs":[{"name":"receiver","type":"address","internalType":"address"}]},{"type":"error","name":"ERC20InvalidSender","inputs":[{"name":"sender","type":"address","internalType":"address"}]},{"type":"error","name":"ERC20InvalidSpender","inputs":[{"name":"spender","type":"address","internalType":"address"}]},{"type":"error","name":"InvalidAccountNonce","inputs":[{"name":"account","type":"address","internalType":"address"},{"name":"currentNonce","type":"uint256","internalType":"uint256"}]},{"type":"error","name":"InvalidShortString","inputs":[]},{"type":"error","name":"StringTooLong","inputs":[{"name":"str","type":"string","internalType":"string"}]}],"bytecode":{"object":"0x6101606040523480156200001257600080fd5b50604051620019d2380380620019d28339810160408190526200003591620002e5565b6040805180820190915260018152603160f81b6020820152819084908185600362000061838262000403565b50600462000070828262000403565b5062000082915083905060056200013f565b61012052620000938160066200013f565b61014052815160208084019190912060e052815190820120610100524660a0526200012160e05161010051604080517f8b73c3c69bb8fe3d512ecc4cf759cc79239f7b179b0ffacaa9a75d522b39400f60208201529081019290925260608201524660808201523060a082015260009060c00160405160208183030381529060405280519060200120905090565b60805250503060c052620001358162000178565b5050505062000529565b60006020835110156200015f576200015783620001cc565b905062000172565b816200016c848262000403565b5060ff90505b92915050565b600880546001600160a01b0319166001600160a01b0383169081179091556040519081527f2f658b440c35314f52658ea8a740e05b284cdc84dc9ae01e891f21b8933e7cad9060200160405180910390a150565b600080829050601f8151111562000203578260405163305a27a960e01b8152600401620001fa9190620004cf565b60405180910390fd5b8051620002108262000504565b179392505050565b634e487b7160e01b600052604160045260246000fd5b60005b838110156200024b57818101518382015260200162000231565b50506000910152565b600082601f8301126200026657600080fd5b81516001600160401b038082111562000283576200028362000218565b604051601f8301601f19908116603f01168101908282118183101715620002ae57620002ae62000218565b81604052838152866020858801011115620002c857600080fd5b620002db8460208301602089016200022e565b9695505050505050565b600080600060608486031215620002fb57600080fd5b83516001600160401b03808211156200031357600080fd5b620003218783880162000254565b945060208601519150808211156200033857600080fd5b50620003478682870162000254565b604086015190935090506001600160a01b03811681146200036757600080fd5b809150509250925092565b600181811c908216806200038757607f821691505b602082108103620003a857634e487b7160e01b600052602260045260246000fd5b50919050565b601f821115620003fe576000816000526020600020601f850160051c81016020861015620003d95750805b601f850160051c820191505b81811015620003fa57828155600101620003e5565b5050505b505050565b81516001600160401b038111156200041f576200041f62000218565b620004378162000430845462000372565b84620003ae565b602080601f8311600181146200046f5760008415620004565750858301515b600019600386901b1c1916600185901b178555620003fa565b600085815260208120601f198616915b82811015620004a0578886015182559484019460019091019084016200047f565b5085821015620004bf5787850151600019600388901b60f8161c191681555b5050505050600190811b01905550565b6020815260008251806020840152620004f08160408501602087016200022e565b601f01601f19169190910160400192915050565b80516020808301519190811015620003a85760001960209190910360031b1b16919050565b60805160a05160c05160e05161010051610120516101405161144e620005846000396000610809015260006107dc01526000610b1101526000610ae901526000610a4401526000610a6e01526000610a98015261144e6000f3fe608060405234801561001057600080fd5b506004361061012c5760003560e01c806384b0196e116100ad578063bf7e214f11610071578063bf7e214f14610289578063c04a8a10146102a4578063c6c3bbe6146102b7578063dd62ed3e146102ca578063f3bfc738146102d857600080fd5b806384b0196e146102325780638fb360371461024d57806395d89b411461026e5780639dc29fac14610276578063a9059cbb1461014f57600080fd5b806323b872dd116100f457806323b872dd146101b0578063313ce567146101be57806370a08231146101cd5780637a9e5e4b146101f65780637ecebe001461020957600080fd5b806306fdde0314610131578063095ea7b31461014f5780630b2d9070146101725780630b52d5581461019357806318160ddd146101a8575b600080fd5b6101396102ff565b6040516101469190611075565b60405180910390f35b61016261015d3660046110ab565b610391565b6040519015158152602001610146565b6101856101803660046110d5565b6103e1565b604051908152602001610146565b6101a66101a1366004611108565b61040e565b005b600254610185565b61016261015d36600461117b565b60405160128152602001610146565b6101856101db3660046111b7565b6001600160a01b031660009081526020819052604090205490565b6101a66102043660046111b7565b61056f565b6101856102173660046111b7565b6001600160a01b031660009081526007602052604090205490565b61023a6105e9565b60405161014697969594939291906111d2565b61025561062f565b6040516001600160e01b03199091168152602001610146565b610139610657565b6101a66102843660046110ab565b610666565b6008546040516001600160a01b039091168152602001610146565b6101a66102b23660046110ab565b61067d565b6101a66102c536600461117b565b610688565b61018561015d3660046110d5565b6101857f3f8f1584d261c3704820464a741b70ed265924afb92939f833452d3a71c21c9c81565b60606003805461030e9061126b565b80601f016020809104026020016040519081016040528092919081815260200182805461033a9061126b565b80156103875780601f1061035c57610100808354040283529160200191610387565b820191906000526020600020905b81548152906001019060200180831161036a57829003601f168201915b5050505050905090565b60405162461bcd60e51b815260206004820152601760248201527f4f5045524154494f4e5f4e4f545f535550504f5254454400000000000000000060448201526000906064015b60405180910390fd5b6001600160a01b038083166000908152600960209081526040808320938516835292905220545b92915050565b834211156104535760405162461bcd60e51b815260206004820152601260248201527124a72b20a624a22fa2ac2824a920aa24a7a760711b60448201526064016103d8565b6001600160a01b038781166000818152600960209081526040808320948b168084529482528083205481517f3f8f1584d261c3704820464a741b70ed265924afb92939f833452d3a71c21c9c938101939093529082019490945260608101929092526080820188905260a082019290925260c0810186905260e00160405160208183030381529060405280519060200120905060006104f1826106c4565b90506000610501828787876106f1565b9050896001600160a01b0316816001600160a01b0316146105585760405162461bcd60e51b8152602060048201526011602482015270494e56414c49445f5349474e415455524560781b60448201526064016103d8565b6105638a8a8a61071f565b50505050505050505050565b60085433906001600160a01b031681146105a65760405162d1953b60e31b81526001600160a01b03821660048201526024016103d8565b816001600160a01b03163b6000036105dc576040516361798f2f60e11b81526001600160a01b03831660048201526024016103d8565b6105e582610781565b5050565b6000606080600080600060606105fd6107d5565b610605610802565b60408051600080825260208201909252600f60f81b9b939a50919850469750309650945092509050565b600854600090600160a01b900460ff166106495750600090565b638fb3603760e01b5b905090565b60606004805461030e9061126b565b610673335b60003661082f565b6105e5828261092f565b6105e533838361071f565b6106913361066b565b816001600160a01b0316836001600160a01b0316146106b5576106b5828483610965565b6106bf8282610a01565b505050565b60006104086106d1610a37565b8360405161190160f01b8152600281019290925260228201526042902090565b60008060008061070388888888610b62565b9250925092506107138282610c31565b50909695505050505050565b6001600160a01b0383811660008181526009602090815260408083209487168084529482529182902085905590518481527fe840c5397d4cc6701cb0a4091d296f8b9d45f0b6a02edfb20e83d45481db5fc191015b60405180910390a3505050565b600880546001600160a01b0319166001600160a01b0383169081179091556040519081527f2f658b440c35314f52658ea8a740e05b284cdc84dc9ae01e891f21b8933e7cad9060200160405180910390a150565b60606106527f00000000000000000000000000000000000000000000000000000000000000006005610cea565b60606106527f00000000000000000000000000000000000000000000000000000000000000006006610cea565b6000806108656108476008546001600160a01b031690565b863061085760046000898b6112a5565b610860916112cf565b610d95565b91509150816109285763ffffffff811615610905576008805460ff60a01b198116600160a01b17909155604051634a63ebf760e11b81526001600160a01b03909116906394c7d7ee906108c0908890889088906004016112ff565b600060405180830381600087803b1580156108da57600080fd5b505af11580156108ee573d6000803e3d6000fd5b50506008805460ff60a01b19169055506109289050565b60405162d1953b60e31b81526001600160a01b03861660048201526024016103d8565b5050505050565b6001600160a01b03821661095957604051634b637e8f60e11b8152600060048201526024016103d8565b6105e582600083610ea1565b6001600160a01b038084166000908152600960209081526040808320938616835292905290812054610998908390611355565b6001600160a01b038581166000818152600960209081526040808320948916808452948252918290208590559051848152939450919290917fe840c5397d4cc6701cb0a4091d296f8b9d45f0b6a02edfb20e83d45481db5fc1910160405180910390a350505050565b6001600160a01b038216610a2b5760405163ec442f0560e01b8152600060048201526024016103d8565b6105e560008383610ea1565b6000306001600160a01b037f000000000000000000000000000000000000000000000000000000000000000016148015610a9057507f000000000000000000000000000000000000000000000000000000000000000046145b15610aba57507f000000000000000000000000000000000000000000000000000000000000000090565b610652604080517f8b73c3c69bb8fe3d512ecc4cf759cc79239f7b179b0ffacaa9a75d522b39400f60208201527f0000000000000000000000000000000000000000000000000000000000000000918101919091527f000000000000000000000000000000000000000000000000000000000000000060608201524660808201523060a082015260009060c00160405160208183030381529060405280519060200120905090565b600080807f7fffffffffffffffffffffffffffffff5d576e7357a4501ddfe92f46681b20a0841115610b9d5750600091506003905082610c27565b604080516000808252602082018084528a905260ff891692820192909252606081018790526080810186905260019060a0016020604051602081039080840390855afa158015610bf1573d6000803e3d6000fd5b5050604051601f1901519150506001600160a01b038116610c1d57506000925060019150829050610c27565b9250600091508190505b9450945094915050565b6000826003811115610c4557610c45611368565b03610c4e575050565b6001826003811115610c6257610c62611368565b03610c805760405163f645eedf60e01b815260040160405180910390fd5b6002826003811115610c9457610c94611368565b03610cb55760405163fce698f760e01b8152600481018290526024016103d8565b6003826003811115610cc957610cc9611368565b036105e5576040516335e2f38360e21b8152600481018290526024016103d8565b606060ff8314610d0457610cfd83610fbe565b9050610408565b818054610d109061126b565b80601f0160208091040260200160405190810160405280929190818152602001828054610d3c9061126b565b8015610d895780601f10610d5e57610100808354040283529160200191610d89565b820191906000526020600020905b815481529060010190602001808311610d6c57829003601f168201915b50505050509050610408565b6040516001600160a01b03848116602483015283811660448301526001600160e01b03198316606483015260009182918291829189169060840160408051601f198184030181529181526020820180516001600160e01b031663b700961360e01b17905251610e04919061137e565b600060405180830381855afa9150503d8060008114610e3f576040519150601f19603f3d011682016040523d82523d6000602084013e610e44565b606091505b50915091508115610e96576040815110610e765780806020019051810190610e6c91906113aa565b9094509250610e96565b6020815110610e965780806020019051810190610e9391906113ea565b93505b505094509492505050565b6001600160a01b038316610ecc578060026000828254610ec19190611405565b90915550610f3e9050565b6001600160a01b03831660009081526020819052604090205481811015610f1f5760405163391434e360e21b81526001600160a01b038516600482015260248101829052604481018390526064016103d8565b6001600160a01b03841660009081526020819052604090209082900390555b6001600160a01b038216610f5a57600280548290039055610f79565b6001600160a01b03821660009081526020819052604090208054820190555b816001600160a01b0316836001600160a01b03167fddf252ad1be2c89b69c2b068fc378daa952ba7f163c4a11628f55a4df523b3ef8360405161077491815260200190565b60606000610fcb83610ffd565b604080516020808252818301909252919250600091906020820181803683375050509182525060208101929092525090565b600060ff8216601f81111561040857604051632cd44ac360e21b815260040160405180910390fd5b60005b83811015611040578181015183820152602001611028565b50506000910152565b60008151808452611061816020860160208601611025565b601f01601f19169290920160200192915050565b6020815260006110886020830184611049565b9392505050565b80356001600160a01b03811681146110a657600080fd5b919050565b600080604083850312156110be57600080fd5b6110c78361108f565b946020939093013593505050565b600080604083850312156110e857600080fd5b6110f18361108f565b91506110ff6020840161108f565b90509250929050565b600080600080600080600060e0888a03121561112357600080fd5b61112c8861108f565b965061113a6020890161108f565b95506040880135945060608801359350608088013560ff8116811461115e57600080fd5b9699959850939692959460a0840135945060c09093013592915050565b60008060006060848603121561119057600080fd5b6111998461108f565b92506111a76020850161108f565b9150604084013590509250925092565b6000602082840312156111c957600080fd5b6110888261108f565b60ff60f81b881681526000602060e060208401526111f360e084018a611049565b8381036040850152611205818a611049565b606085018990526001600160a01b038816608086015260a0850187905284810360c08601528551808252602080880193509091019060005b818110156112595783518352928401929184019160010161123d565b50909c9b505050505050505050505050565b600181811c9082168061127f57607f821691505b60208210810361129f57634e487b7160e01b600052602260045260246000fd5b50919050565b600080858511156112b557600080fd5b838611156112c257600080fd5b5050820193919092039150565b6001600160e01b031981358181169160048510156112f75780818660040360031b1b83161692505b505092915050565b6001600160a01b03841681526040602082018190528101829052818360608301376000818301606090810191909152601f909201601f1916010192915050565b634e487b7160e01b600052601160045260246000fd5b818103818111156104085761040861133f565b634e487b7160e01b600052602160045260246000fd5b60008251611390818460208701611025565b9190910192915050565b805180151581146110a657600080fd5b600080604083850312156113bd57600080fd5b6113c68361139a565b9150602083015163ffffffff811681146113df57600080fd5b809150509250929050565b6000602082840312156113fc57600080fd5b6110888261139a565b808201808211156104085761040861133f56fea2646970667358221220e3aa94e30eaf8d7066e08e3bed1c861a08d6aac26ceb6b07c83b4e75c676b96364736f6c63430008170033","linkReferences":{}},"methodIdentifiers":{"DELEGATION_WITH_SIG_TYPEHASH()":"f3bfc738","allowance(address,address)":"dd62ed3e","approve(address,uint256)":"095ea7b3","approveDelegation(address,uint256)":"c04a8a10","authority()":"bf7e214f","balanceOf(address)":"70a08231","burn(address,uint256)":"9dc29fac","debtAllowance(address,address)":"0b2d9070","decimals()":"313ce567","delegationWithSig(address,address,uint256,uint256,uint8,bytes32,bytes32)":"0b52d558","eip712Domain()":"84b0196e","isConsumingScheduledOp()":"8fb36037","mint(address,address,uint256)":"c6c3bbe6","name()":"06fdde03","nonces(address)":"7ecebe00","setAuthority(address)":"7a9e5e4b","symbol()":"95d89b41","totalSupply()":"18160ddd","transfer(address,uint256)":"a9059cbb","transferFrom(address,address,uint256)":"23b872dd"},"id":66}