{"abi":[{"type":"constructor","inputs":[{"name":"_pool","type":"address","internalType":"address"},{"name":"_markets","type":"address","internalType":"address"},{"name":"_swaps","type":"address","internalType":"address"},{"name":"_pyth","type":"address","internalType":"contract IPyth"}],"stateMutability":"payable"},{"type":"function","name":"call","inputs":[{"name":"target","type":"address","internalType":"address"},{"name":"data","type":"bytes","internalType":"bytes"},{"name":"value","type":"uint256","internalType":"uint256"}],"outputs":[{"name":"","type":"bytes","internalType":"bytes"}],"stateMutability":"nonpayable"},{"type":"function","name":"closePosition","inputs":[{"name":"token1","type":"address","internalType":"address"},{"name":"token1Amount","type":"uint256","internalType":"uint256"},{"name":"token0","type":"address","internalType":"address"}],"outputs":[],"stateMutability":"nonpayable"},{"type":"function","name":"multicall","inputs":[{"name":"data","type":"bytes[]","internalType":"bytes[]"}],"outputs":[{"name":"results","type":"bytes[]","internalType":"bytes[]"}],"stateMutability":"payable"},{"type":"function","name":"onFlashLoan","inputs":[{"name":"initiator","type":"address","internalType":"address"},{"name":"asset","type":"address","internalType":"address"},{"name":"amount","type":"uint256","internalType":"uint256"},{"name":"fee","type":"uint256","internalType":"uint256"},{"name":"data","type":"bytes","internalType":"bytes"}],"outputs":[{"name":"","type":"bytes32","internalType":"bytes32"}],"stateMutability":"nonpayable"},{"type":"function","name":"openPosition","inputs":[{"name":"token0","type":"address","internalType":"address"},{"name":"token0Amount","type":"uint256","internalType":"uint256"},{"name":"token1","type":"address","internalType":"address"}],"outputs":[],"stateMutability":"nonpayable"},{"type":"function","name":"owner","inputs":[],"outputs":[{"name":"","type":"address","internalType":"address"}],"stateMutability":"view"},{"type":"function","name":"renounceOwnership","inputs":[],"outputs":[],"stateMutability":"nonpayable"},{"type":"function","name":"supply","inputs":[{"name":"asset","type":"address","internalType":"address"},{"name":"amount","type":"uint256","internalType":"uint256"},{"name":"forMarket","type":"address","internalType":"address"}],"outputs":[],"stateMutability":"nonpayable"},{"type":"function","name":"swap","inputs":[{"name":"fromAsset","type":"address","internalType":"address"},{"name":"amount","type":"uint256","internalType":"uint256"},{"name":"toAsset","type":"address","internalType":"address"}],"outputs":[],"stateMutability":"nonpayable"},{"type":"function","name":"transferOut","inputs":[{"name":"token","type":"address","internalType":"address"},{"name":"amount","type":"uint256","internalType":"uint256"}],"outputs":[],"stateMutability":"nonpayable"},{"type":"function","name":"transferOwnership","inputs":[{"name":"newOwner","type":"address","internalType":"address"}],"outputs":[],"stateMutability":"nonpayable"},{"type":"function","name":"updatePythData","inputs":[{"name":"pythUpdateData","type":"bytes[]","internalType":"bytes[]"}],"outputs":[],"stateMutability":"nonpayable"},{"type":"event","name":"OwnershipTransferred","inputs":[{"name":"previousOwner","type":"address","indexed":true,"internalType":"address"},{"name":"newOwner","type":"address","indexed":true,"internalType":"address"}],"anonymous":false},{"type":"error","name":"AddressEmptyCode","inputs":[{"name":"target","type":"address","internalType":"address"}]},{"type":"error","name":"FailedCall","inputs":[]},{"type":"error","name":"InsufficientBalance","inputs":[{"name":"balance","type":"uint256","internalType":"uint256"},{"name":"needed","type":"uint256","internalType":"uint256"}]},{"type":"error","name":"OwnableInvalidOwner","inputs":[{"name":"owner","type":"address","internalType":"address"}]},{"type":"error","name":"OwnableUnauthorizedAccount","inputs":[{"name":"account","type":"address","internalType":"address"}]},{"type":"error","name":"SafeERC20FailedOperation","inputs":[{"name":"token","type":"address","internalType":"address"}]}],"bytecode":{"object":"0x610100604052604051611efb380380611efb833981016040819052610023916100da565b338061004857604051631e4fbdf760e01b81525f600482015260240160405180910390fd5b61005181610074565b506001600160a01b0393841660e052918316608052821660a0521660c052610136565b5f80546001600160a01b038381166001600160a01b0319831681178455604051919092169283917f8be0079c531659141344cd1fd0a4f28419497f9722a3daafe3b4186f6b6457e09190a35050565b6001600160a01b03811681146100d7575f80fd5b50565b5f805f80608085870312156100ed575f80fd5b84516100f8816100c3565b6020860151909450610109816100c3565b604086015190935061011a816100c3565b606086015190925061012b816100c3565b939692955090935050565b60805160a05160c05160e051611d5a6101a15f395f6103e601525f81816108ba015261093201525f8181610a0f01528181610aa101528181610c0b01528181610c9a0152610f7901525f8181611121015281816112bf015281816113c001526114a90152611d5a5ff3fe6080604052600436106100a5575f3560e01c806376890c581161006257806376890c581461017a5780638b2a4df5146101995780638da5cb5b146101b8578063ac9650d8146101de578063bcfb99fa146101fe578063f2fde38b1461021d575f80fd5b806323e30c8b146100a95780633a41b2e7146100db5780634ae00041146100fc57806365264cd1146101285780636d069a6714610147578063715018a614610166575b5f80fd5b3480156100b4575f80fd5b506100c86100c33660046116bd565b61023c565b6040519081526020015b60405180910390f35b3480156100e6575f80fd5b506100fa6100f536600461175f565b61055a565b005b348015610107575f80fd5b5061011b61011636600461184f565b610689565b6040516100d291906118d2565b348015610133575f80fd5b506100fa61014236600461175f565b6106a8565b348015610152575f80fd5b506100fa61016136600461175f565b610725565b348015610171575f80fd5b506100fa61073f565b348015610185575f80fd5b506100fa6101943660046118e4565b610752565b3480156101a4575f80fd5b506100fa6101b336600461175f565b6107e3565b3480156101c3575f80fd5b505f546040516001600160a01b0390911681526020016100d2565b6101f16101ec366004611931565b6107ee565b6040516100d291906119e0565b348015610209575f80fd5b506100fa610218366004611931565b610899565b348015610228575f80fd5b506100fa610237366004611a42565b6109af565b5f6001600160a01b03871630146102895760405162461bcd60e51b815260206004820152600c60248201526b155b985d5d1a1bdc9a5e995960a21b60448201526064015b60405180910390fd5b336001600160a01b038716146102d05760405162461bcd60e51b815260206004820152600c60248201526b155b985d5d1a1bdc9a5e995960a21b6044820152606401610280565b6103106040518060a001604052805f6001600160a01b031681526020015f81526020015f81526020015f6001600160a01b03168152602001606081525090565b6001600160a01b038716815260208101869052604081018590525f61033784860186611a5d565b6001600160a01b0316606084015290505f6002604051908082528060200260200182016040528015610373578160200160208202803683370190505b509050825f0151815f8151811061038c5761038c611a97565b60200260200101906001600160a01b031690816001600160a01b0316815250508260600151816001815181106103c4576103c4611a97565b60200260200101906001600160a01b031690816001600160a01b0316815250507f00000000000000000000000000000000000000000000000000000000000000006001600160a01b031663833b1fce6040518163ffffffff1660e01b8152600401602060405180830381865afa158015610440573d5f803e3d5ffd5b505050506040513d601f19601f820116820180604052508101906104649190611aab565b6001600160a01b0316639d23d9f2826040518263ffffffff1660e01b815260040161048f9190611ac6565b5f60405180830381865afa1580156104a9573d5f803e3d5ffd5b505050506040513d5f823e601f3d908101601f191682016040526104d09190810190611b12565b60808401525f8260018111156104e8576104e8611b9e565b036104fb576104f6836109ec565b610529565b600182600181111561050f5761050f611b9e565b0361051d576104f683610be5565b505f9250610550915050565b7f439148f0bbc682ca079e46d6e2c2f0c1e3b820f1a291b069d8882abf8cf18dd993505050505b9695505050505050565b610562610e10565b5f82116105b15760405162461bcd60e51b815260206004820152601d60248201527f416d6f756e74206d7573742062652067726561746572207468616e20300000006044820152606401610280565b826001600160a01b0316635cffe9de3085855f866040516020016105d6929190611bb2565b6040516020818303038152906040526040518563ffffffff1660e01b81526004016106049493929190611bea565b6020604051808303815f875af1158015610620573d5f803e3d5ffd5b505050506040513d601f19601f820116820180604052508101906106449190611c1c565b6106845760405162461bcd60e51b8152602060048201526011602482015270119b185cda081b1bd85b8819985a5b1959607a1b6044820152606401610280565b505050565b6060610693610e10565b61069e848484610e3c565b90505b9392505050565b6106b0610e10565b5f82116106ff5760405162461bcd60e51b815260206004820152601d60248201527f416d6f756e74206d7573742062652067726561746572207468616e20300000006044820152606401610280565b826001600160a01b0316635cffe9de3085856001866040516020016105d6929190611bb2565b61072d610e10565b610738838383610ed2565b5050505050565b610747610e10565b6107505f610fee565b565b61075a610e10565b5f1981036107cb576040516370a0823160e01b81523060048201526001600160a01b038316906370a0823190602401602060405180830381865afa1580156107a4573d5f803e3d5ffd5b505050506040513d601f19601f820116820180604052508101906107c89190611c3b565b90505b6107df6001600160a01b038316338361103d565b5050565b61068483838361108f565b6060815167ffffffffffffffff81111561080a5761080a61179e565b60405190808252806020026020018201604052801561083d57816020015b60608152602001906001900390816108285790505b5090505f5b82518110156108935761086e3084838151811061086157610861611a97565b602002602001015161122a565b82828151811061088057610880611a97565b6020908102919091010152600101610842565b50919050565b6108a1610e10565b60405163d47eed4560e01b81525f906001600160a01b037f0000000000000000000000000000000000000000000000000000000000000000169063d47eed45906108ef9085906004016119e0565b602060405180830381865afa15801561090a573d5f803e3d5ffd5b505050506040513d601f19601f8201168201806040525081019061092e9190611c3b565b90507f00000000000000000000000000000000000000000000000000000000000000006001600160a01b031663ef9e5e2882846040518363ffffffff1660e01b815260040161097d91906119e0565b5f604051808303818588803b158015610994575f80fd5b505af11580156109a6573d5f803e3d5ffd5b50505050505050565b6109b7610e10565b6001600160a01b0381166109e057604051631e4fbdf760e01b81525f6004820152602401610280565b6109e981610fee565b50565b8051604051631adb75eb60e31b81526001600160a01b0391821660048201525f917f0000000000000000000000000000000000000000000000000000000000000000169063d6dbaf58906024016040805180830381865afa158015610a53573d5f803e3d5ffd5b505050506040513d601f19601f82011682018060405250810190610a779190611c52565b506060830151604051631adb75eb60e31b81526001600160a01b0391821660048201529192505f917f00000000000000000000000000000000000000000000000000000000000000009091169063d6dbaf58906024016040805180830381865afa158015610ae7573d5f803e3d5ffd5b505050506040513d601f19601f82011682018060405250810190610b0b9190611c52565b84516040860151919350610b64925090612710610b288587611c88565b8760200151610b379190611c9b565b610b419190611cb2565b8660200151610b509190611cd1565b610b5a9190611cd1565b856060015161108f565b5f8360800151600181518110610b7c57610b7c611a97565b602002602001015184608001515f81518110610b9a57610b9a611a97565b60200260200101518560200151610bb19190611c9b565b610bbb9190611cb2565b9050610bcb84606001518261129e565b610bdd846060015182865f0151610ed2565b505050505050565b6060810151604051631adb75eb60e31b81526001600160a01b0391821660048201525f917f0000000000000000000000000000000000000000000000000000000000000000169063d6dbaf58906024016040805180830381865afa158015610c4f573d5f803e3d5ffd5b505050506040513d601f19601f82011682018060405250810190610c739190611c52565b508251604051631adb75eb60e31b81526001600160a01b0391821660048201529192505f917f00000000000000000000000000000000000000000000000000000000000000009091169063d6dbaf58906024016040805180830381865afa158015610ce0573d5f803e3d5ffd5b505050506040513d601f19601f82011682018060405250810190610d049190611c52565b84516040860151919350610d64925090612710610d218587611c88565b60028860200151610d329190611c9b565b610d3c9190611c9b565b610d469190611cb2565b8660200151610d559190611cd1565b610d5f9190611cd1565b61139f565b5f8360800151600181518110610d7c57610d7c611a97565b602002602001015184608001515f81518110610d9a57610d9a611a97565b60200260200101518560200151610db19190611c9b565b610dbb9190611cb2565b905080610dd185606001518330885f0151611486565b14610bcb5760405162461bcd60e51b815260206004820152600f60248201526e15da5d1a191c985dc819985a5b1959608a1b6044820152606401610280565b5f546001600160a01b031633146107505760405163118cdaa760e01b8152336004820152602401610280565b606081471015610e685760405163cf47918160e01b815247600482015260248101839052604401610280565b5f80856001600160a01b03168486604051610e839190611ce4565b5f6040518083038185875af1925050503d805f8114610ebd576040519150601f19603f3d011682016040523d82523d5f602084013e610ec2565b606091505b50915091506105508683836115b2565b5f805f198403610f45576040516370a0823160e01b81523060048201526001600160a01b038616906370a0823190602401602060405180830381865afa158015610f1e573d5f803e3d5ffd5b505050506040513d601f19601f82011682018060405250810190610f429190611c3b565b93505b604051631ba0488760e21b81526001600160a01b0386811660048301528481166024830152604482018690523060648301527f00000000000000000000000000000000000000000000000000000000000000001690636e81221c9060840160408051808303815f875af1158015610fbe573d5f803e3d5ffd5b505050506040513d601f19601f82011682018060405250810190610fe29190611c52565b91509150935093915050565b5f80546001600160a01b038381166001600160a01b0319831681178455604051919092169283917f8be0079c531659141344cd1fd0a4f28419497f9722a3daafe3b4186f6b6457e09190a35050565b604080516001600160a01b038416602482015260448082018490528251808303909101815260649091019091526020810180516001600160e01b031663a9059cbb60e01b17905261068490849061160e565b5f198203611100576040516370a0823160e01b81523060048201526001600160a01b038416906370a0823190602401602060405180830381865afa1580156110d9573d5f803e3d5ffd5b505050506040513d601f19601f820116820180604052508101906110fd9190611c3b565b91505b6040516360e0792360e01b81526001600160a01b0382811660048301525f917f0000000000000000000000000000000000000000000000000000000000000000909116906360e0792390602401602060405180830381865afa158015611168573d5f803e3d5ffd5b505050506040513d601f19601f8201168201806040525081019061118c9190611aab565b90506001600160a01b0381166111b45760405162461bcd60e51b815260040161028090611cfa565b60405163294091cd60e01b81526001600160a01b0385811660048301526024820185905230604483015282169063294091cd906064016020604051808303815f875af1158015611206573d5f803e3d5ffd5b505050506040513d601f19601f820116820180604052508101906107389190611c3b565b60605f80846001600160a01b0316846040516112469190611ce4565b5f60405180830381855af49150503d805f811461127e576040519150601f19603f3d011682016040523d82523d5f602084013e611283565b606091505b50915091506112938583836115b2565b925050505b92915050565b6040516360e0792360e01b81526001600160a01b0383811660048301525f917f0000000000000000000000000000000000000000000000000000000000000000909116906360e0792390602401602060405180830381865afa158015611306573d5f803e3d5ffd5b505050506040513d601f19601f8201168201806040525081019061132a9190611aab565b90506001600160a01b0381166113525760405162461bcd60e51b815260040161028090611cfa565b60405163da39b3e760e01b815260048101839052306024820181905260448201526001600160a01b0382169063da39b3e7906064015b5f604051808303815f87803b158015610994575f80fd5b6040516360e0792360e01b81526001600160a01b0383811660048301525f917f0000000000000000000000000000000000000000000000000000000000000000909116906360e0792390602401602060405180830381865afa158015611407573d5f803e3d5ffd5b505050506040513d601f19601f8201168201806040525081019061142b9190611aab565b90506001600160a01b0381166114535760405162461bcd60e51b815260040161028090611cfa565b604051633f34d4cf60e21b8152600481018390523060248201526001600160a01b0382169063fcd3533c90604401611388565b6040516360e0792360e01b81526001600160a01b0382811660048301525f9182917f000000000000000000000000000000000000000000000000000000000000000016906360e0792390602401602060405180830381865afa1580156114ee573d5f803e3d5ffd5b505050506040513d601f19601f820116820180604052508101906115129190611aab565b90506001600160a01b03811661153a5760405162461bcd60e51b815260040161028090611cfa565b6040516330414fc560e11b81526001600160a01b0385811660048301528781166024830152604482018790528216906360829f8a906064016020604051808303815f875af115801561158e573d5f803e3d5ffd5b505050506040513d601f19601f820116820180604052508101906105509190611c3b565b6060826115c7576115c282611680565b6106a1565b81511580156115de57506001600160a01b0384163b155b1561160757604051639996b31560e01b81526001600160a01b0385166004820152602401610280565b50806106a1565b5f8060205f8451602086015f885af18061162d576040513d5f823e3d81fd5b50505f513d91508115611644578060011415611651565b6001600160a01b0384163b155b1561167a57604051635274afe760e01b81526001600160a01b0385166004820152602401610280565b50505050565b8051156116905780518082602001fd5b60405163d6bda27560e01b815260040160405180910390fd5b6001600160a01b03811681146109e9575f80fd5b5f805f805f8060a087890312156116d2575f80fd5b86356116dd816116a9565b955060208701356116ed816116a9565b94506040870135935060608701359250608087013567ffffffffffffffff80821115611717575f80fd5b818901915089601f83011261172a575f80fd5b813581811115611738575f80fd5b8a6020828501011115611749575f80fd5b6020830194508093505050509295509295509295565b5f805f60608486031215611771575f80fd5b833561177c816116a9565b9250602084013591506040840135611793816116a9565b809150509250925092565b634e487b7160e01b5f52604160045260245ffd5b604051601f8201601f1916810167ffffffffffffffff811182821017156117db576117db61179e565b604052919050565b5f82601f8301126117f2575f80fd5b813567ffffffffffffffff81111561180c5761180c61179e565b61181f601f8201601f19166020016117b2565b818152846020838601011115611833575f80fd5b816020850160208301375f918101602001919091529392505050565b5f805f60608486031215611861575f80fd5b833561186c816116a9565b9250602084013567ffffffffffffffff811115611887575f80fd5b611893868287016117e3565b925050604084013590509250925092565b5f81518084528060208401602086015e5f602082860101526020601f19601f83011685010191505092915050565b602081525f6106a160208301846118a4565b5f80604083850312156118f5575f80fd5b8235611900816116a9565b946020939093013593505050565b5f67ffffffffffffffff8211156119275761192761179e565b5060051b60200190565b5f6020808385031215611942575f80fd5b823567ffffffffffffffff80821115611959575f80fd5b818501915085601f83011261196c575f80fd5b813561197f61197a8261190e565b6117b2565b81815260059190911b8301840190848101908883111561199d575f80fd5b8585015b838110156119d3578035858111156119b7575f80fd5b6119c58b89838a01016117e3565b8452509186019186016119a1565b5098975050505050505050565b5f60208083016020845280855180835260408601915060408160051b8701019250602087015f5b82811015611a3557603f19888603018452611a238583516118a4565b94509285019290850190600101611a07565b5092979650505050505050565b5f60208284031215611a52575f80fd5b81356106a1816116a9565b5f8060408385031215611a6e575f80fd5b823560028110611a7c575f80fd5b91506020830135611a8c816116a9565b809150509250929050565b634e487b7160e01b5f52603260045260245ffd5b5f60208284031215611abb575f80fd5b81516106a1816116a9565b602080825282518282018190525f9190848201906040850190845b81811015611b065783516001600160a01b031683529284019291840191600101611ae1565b50909695505050505050565b5f6020808385031215611b23575f80fd5b825167ffffffffffffffff811115611b39575f80fd5b8301601f81018513611b49575f80fd5b8051611b5761197a8261190e565b81815260059190911b82018301908381019087831115611b75575f80fd5b928401925b82841015611b9357835182529284019290840190611b7a565b979650505050505050565b634e487b7160e01b5f52602160045260245ffd5b6040810160028410611bd257634e487b7160e01b5f52602160045260245ffd5b9281526001600160a01b039190911660209091015290565b6001600160a01b03858116825284166020820152604081018390526080606082018190525f90610550908301846118a4565b5f60208284031215611c2c575f80fd5b815180151581146106a1575f80fd5b5f60208284031215611c4b575f80fd5b5051919050565b5f8060408385031215611c63575f80fd5b505080516020909101519092909150565b634e487b7160e01b5f52601160045260245ffd5b8082018082111561129857611298611c74565b808202811582820484141761129857611298611c74565b5f82611ccc57634e487b7160e01b5f52601260045260245ffd5b500490565b8181038181111561129857611298611c74565b5f82518060208501845e5f920191825250919050565b60208082526010908201526f13585c9ad95d081b9bdd08199bdd5b9960821b60408201526060019056fea264697066735822122043c08d51c8129ab6492bc66cebd42a4f0a8f377393e55304e114830f27b1cf8c64736f6c63430008190033","linkReferences":{}},"methodIdentifiers":{"call(address,bytes,uint256)":"4ae00041","closePosition(address,uint256,address)":"65264cd1","multicall(bytes[])":"ac9650d8","onFlashLoan(address,address,uint256,uint256,bytes)":"23e30c8b","openPosition(address,uint256,address)":"3a41b2e7","owner()":"8da5cb5b","renounceOwnership()":"715018a6","supply(address,uint256,address)":"8b2a4df5","swap(address,uint256,address)":"6d069a67","transferOut(address,uint256)":"76890c58","transferOwnership(address)":"f2fde38b","updatePythData(bytes[])":"bcfb99fa"},"id":103}