{"abi":[{"type":"constructor","inputs":[{"name":"_name","type":"string","internalType":"string"},{"name":"_symbol","type":"string","internalType":"string"},{"name":"_ASSET","type":"address","internalType":"address"},{"name":"_POOL","type":"address","internalType":"address"},{"name":"_authority","type":"address","internalType":"address"}],"stateMutability":"nonpayable"},{"type":"function","name":"ASSET","inputs":[],"outputs":[{"name":"","type":"address","internalType":"contract IERC20"}],"stateMutability":"view"},{"type":"function","name":"DOMAIN_SEPARATOR","inputs":[],"outputs":[{"name":"","type":"bytes32","internalType":"bytes32"}],"stateMutability":"view"},{"type":"function","name":"POOL","inputs":[],"outputs":[{"name":"","type":"address","internalType":"address"}],"stateMutability":"view"},{"type":"function","name":"allowance","inputs":[{"name":"owner","type":"address","internalType":"address"},{"name":"spender","type":"address","internalType":"address"}],"outputs":[{"name":"","type":"uint256","internalType":"uint256"}],"stateMutability":"view"},{"type":"function","name":"approve","inputs":[{"name":"spender","type":"address","internalType":"address"},{"name":"value","type":"uint256","internalType":"uint256"}],"outputs":[{"name":"","type":"bool","internalType":"bool"}],"stateMutability":"nonpayable"},{"type":"function","name":"assetBalanceOf","inputs":[{"name":"user","type":"address","internalType":"address"}],"outputs":[{"name":"","type":"uint256","internalType":"uint256"}],"stateMutability":"view"},{"type":"function","name":"authority","inputs":[],"outputs":[{"name":"","type":"address","internalType":"address"}],"stateMutability":"view"},{"type":"function","name":"balanceOf","inputs":[{"name":"account","type":"address","internalType":"address"}],"outputs":[{"name":"","type":"uint256","internalType":"uint256"}],"stateMutability":"view"},{"type":"function","name":"decimals","inputs":[],"outputs":[{"name":"","type":"uint8","internalType":"uint8"}],"stateMutability":"view"},{"type":"function","name":"deposit","inputs":[{"name":"user","type":"address","internalType":"address"},{"name":"amount","type":"uint256","internalType":"uint256"},{"name":"onBehalfOf","type":"address","internalType":"address"},{"name":"","type":"bytes","internalType":"bytes"}],"outputs":[{"name":"shareAmount","type":"uint256","internalType":"uint256"}],"stateMutability":"nonpayable"},{"type":"function","name":"eip712Domain","inputs":[],"outputs":[{"name":"fields","type":"bytes1","internalType":"bytes1"},{"name":"name","type":"string","internalType":"string"},{"name":"version","type":"string","internalType":"string"},{"name":"chainId","type":"uint256","internalType":"uint256"},{"name":"verifyingContract","type":"address","internalType":"address"},{"name":"salt","type":"bytes32","internalType":"bytes32"},{"name":"extensions","type":"uint256[]","internalType":"uint256[]"}],"stateMutability":"view"},{"type":"function","name":"isConsumingScheduledOp","inputs":[],"outputs":[{"name":"","type":"bytes4","internalType":"bytes4"}],"stateMutability":"view"},{"type":"function","name":"name","inputs":[],"outputs":[{"name":"","type":"string","internalType":"string"}],"stateMutability":"view"},{"type":"function","name":"nonces","inputs":[{"name":"owner","type":"address","internalType":"address"}],"outputs":[{"name":"","type":"uint256","internalType":"uint256"}],"stateMutability":"view"},{"type":"function","name":"permit","inputs":[{"name":"owner","type":"address","internalType":"address"},{"name":"spender","type":"address","internalType":"address"},{"name":"value","type":"uint256","internalType":"uint256"},{"name":"deadline","type":"uint256","internalType":"uint256"},{"name":"v","type":"uint8","internalType":"uint8"},{"name":"r","type":"bytes32","internalType":"bytes32"},{"name":"s","type":"bytes32","internalType":"bytes32"}],"outputs":[],"stateMutability":"nonpayable"},{"type":"function","name":"ratio","inputs":[],"outputs":[{"name":"","type":"uint256","internalType":"uint256"}],"stateMutability":"view"},{"type":"function","name":"setAuthority","inputs":[{"name":"newAuthority","type":"address","internalType":"address"}],"outputs":[],"stateMutability":"nonpayable"},{"type":"function","name":"symbol","inputs":[],"outputs":[{"name":"","type":"string","internalType":"string"}],"stateMutability":"view"},{"type":"function","name":"totalBalance","inputs":[],"outputs":[{"name":"","type":"uint256","internalType":"uint256"}],"stateMutability":"view"},{"type":"function","name":"totalSupply","inputs":[],"outputs":[{"name":"","type":"uint256","internalType":"uint256"}],"stateMutability":"view"},{"type":"function","name":"transfer","inputs":[{"name":"account","type":"address","internalType":"address"},{"name":"amount","type":"uint256","internalType":"uint256"}],"outputs":[{"name":"","type":"bool","internalType":"bool"}],"stateMutability":"nonpayable"},{"type":"function","name":"transferFrom","inputs":[{"name":"sender","type":"address","internalType":"address"},{"name":"recipient","type":"address","internalType":"address"},{"name":"amount","type":"uint256","internalType":"uint256"}],"outputs":[{"name":"","type":"bool","internalType":"bool"}],"stateMutability":"nonpayable"},{"type":"function","name":"withdraw","inputs":[{"name":"user","type":"address","internalType":"address"},{"name":"receiver","type":"address","internalType":"address"},{"name":"amount","type":"uint256","internalType":"uint256"}],"outputs":[],"stateMutability":"nonpayable"},{"type":"event","name":"Approval","inputs":[{"name":"owner","type":"address","indexed":true,"internalType":"address"},{"name":"spender","type":"address","indexed":true,"internalType":"address"},{"name":"value","type":"uint256","indexed":false,"internalType":"uint256"}],"anonymous":false},{"type":"event","name":"AuthorityUpdated","inputs":[{"name":"authority","type":"address","indexed":false,"internalType":"address"}],"anonymous":false},{"type":"event","name":"EIP712DomainChanged","inputs":[],"anonymous":false},{"type":"event","name":"Transfer","inputs":[{"name":"from","type":"address","indexed":true,"internalType":"address"},{"name":"to","type":"address","indexed":true,"internalType":"address"},{"name":"value","type":"uint256","indexed":false,"internalType":"uint256"}],"anonymous":false},{"type":"error","name":"AccessManagedInvalidAuthority","inputs":[{"name":"authority","type":"address","internalType":"address"}]},{"type":"error","name":"AccessManagedRequiredDelay","inputs":[{"name":"caller","type":"address","internalType":"address"},{"name":"delay","type":"uint32","internalType":"uint32"}]},{"type":"error","name":"AccessManagedUnauthorized","inputs":[{"name":"caller","type":"address","internalType":"address"}]},{"type":"error","name":"ECDSAInvalidSignature","inputs":[]},{"type":"error","name":"ECDSAInvalidSignatureLength","inputs":[{"name":"length","type":"uint256","internalType":"uint256"}]},{"type":"error","name":"ECDSAInvalidSignatureS","inputs":[{"name":"s","type":"bytes32","internalType":"bytes32"}]},{"type":"error","name":"ERC20InsufficientAllowance","inputs":[{"name":"spender","type":"address","internalType":"address"},{"name":"allowance","type":"uint256","internalType":"uint256"},{"name":"needed","type":"uint256","internalType":"uint256"}]},{"type":"error","name":"ERC20InsufficientBalance","inputs":[{"name":"sender","type":"address","internalType":"address"},{"name":"balance","type":"uint256","internalType":"uint256"},{"name":"needed","type":"uint256","internalType":"uint256"}]},{"type":"error","name":"ERC20InvalidApprover","inputs":[{"name":"approver","type":"address","internalType":"address"}]},{"type":"error","name":"ERC20InvalidReceiver","inputs":[{"name":"receiver","type":"address","internalType":"address"}]},{"type":"error","name":"ERC20InvalidSender","inputs":[{"name":"sender","type":"address","internalType":"address"}]},{"type":"error","name":"ERC20InvalidSpender","inputs":[{"name":"spender","type":"address","internalType":"address"}]},{"type":"error","name":"ERC2612ExpiredSignature","inputs":[{"name":"deadline","type":"uint256","internalType":"uint256"}]},{"type":"error","name":"ERC2612InvalidSigner","inputs":[{"name":"signer","type":"address","internalType":"address"},{"name":"owner","type":"address","internalType":"address"}]},{"type":"error","name":"InvalidAccountNonce","inputs":[{"name":"account","type":"address","internalType":"address"},{"name":"currentNonce","type":"uint256","internalType":"uint256"}]},{"type":"error","name":"InvalidShortString","inputs":[]},{"type":"error","name":"StringTooLong","inputs":[{"name":"str","type":"string","internalType":"string"}]}],"bytecode":{"object":"0x6101a06040523480156200001257600080fd5b50604051620021ed380380620021ed83398101604081905262000035916200031f565b8480604051806040016040528060018152602001603160f81b81525087878562000065816200015c60201b60201c565b50600462000074838262000452565b50600562000083828262000452565b506200009591508390506006620001b0565b61012052620000a6816007620001b0565b61014052815160208084019190912060e052815190820120610100524660a0526200013460e05161010051604080517f8b73c3c69bb8fe3d512ecc4cf759cc79239f7b179b0ffacaa9a75d522b39400f60208201529081019290925260608201524660808201523060a082015260009060c00160405160208183030381529060405280519060200120905090565b60805250503060c05250506001600160a01b0391821661016052166101805250620005789050565b600080546001600160a01b0319166001600160a01b0383169081179091556040519081527f2f658b440c35314f52658ea8a740e05b284cdc84dc9ae01e891f21b8933e7cad9060200160405180910390a150565b6000602083511015620001d057620001c883620001e9565b9050620001e3565b81620001dd848262000452565b5060ff90505b92915050565b600080829050601f8151111562000220578260405163305a27a960e01b81526004016200021791906200051e565b60405180910390fd5b80516200022d8262000553565b179392505050565b634e487b7160e01b600052604160045260246000fd5b60005b83811015620002685781810151838201526020016200024e565b50506000910152565b600082601f8301126200028357600080fd5b81516001600160401b0380821115620002a057620002a062000235565b604051601f8301601f19908116603f01168101908282118183101715620002cb57620002cb62000235565b81604052838152866020858801011115620002e557600080fd5b620002f88460208301602089016200024b565b9695505050505050565b80516001600160a01b03811681146200031a57600080fd5b919050565b600080600080600060a086880312156200033857600080fd5b85516001600160401b03808211156200035057600080fd5b6200035e89838a0162000271565b965060208801519150808211156200037557600080fd5b50620003848882890162000271565b945050620003956040870162000302565b9250620003a56060870162000302565b9150620003b56080870162000302565b90509295509295909350565b600181811c90821680620003d657607f821691505b602082108103620003f757634e487b7160e01b600052602260045260246000fd5b50919050565b601f8211156200044d576000816000526020600020601f850160051c81016020861015620004285750805b601f850160051c820191505b81811015620004495782815560010162000434565b5050505b505050565b81516001600160401b038111156200046e576200046e62000235565b62000486816200047f8454620003c1565b84620003fd565b602080601f831160018114620004be5760008415620004a55750858301515b600019600386901b1c1916600185901b17855562000449565b600085815260208120601f198616915b82811015620004ef57888601518255948401946001909101908401620004ce565b50858210156200050e5787850151600019600388901b60f8161c191681555b5050505050600190811b01905550565b60208152600082518060208401526200053f8160408501602087016200024b565b601f01601f19169190910160400192915050565b80516020808301519190811015620003f75760001960209190910360031b1b16919050565b60805160a05160c05160e0516101005161012051610140516101605161018051611bda620006136000396000818161026a015281816104ba01526108840152600081816101e7015281816105ac015281816106460152818161094d0152610b6201526000610f0101526000610ed401526000610cf201526000610cca01526000610c2501526000610c4f01526000610c790152611bda6000f3fe608060405234801561001057600080fd5b506004361061014d5760003560e01c80637535d246116100c3578063a9059cbb1161007c578063a9059cbb146102f8578063ad7a672f1461030b578063bf7e214f14610313578063d505accf14610324578063d9caed1214610337578063dd62ed3e1461034a57600080fd5b80637535d246146102655780637a9e5e4b1461028c5780637ecebe00146102a157806384b0196e146102b45780638fb36037146102cf57806395d89b41146102f057600080fd5b8063313ce56711610115578063313ce567146101cb5780633644e515146101da5780634800d97f146101e25780635143a9fe1461022157806370a082311461023457806371ca337d1461025d57600080fd5b806306b3efd61461015257806306fdde0314610178578063095ea7b31461018d57806318160ddd146101b057806323b872dd146101b8575b600080fd5b610165610160366004611659565b610383565b6040519081526020015b60405180910390f35b6101806103e0565b60405161016f91906116c4565b6101a061019b3660046116d7565b610472565b604051901515815260200161016f565b600354610165565b6101a06101c6366004611701565b61048a565b6040516012815260200161016f565b610165610554565b6102097f000000000000000000000000000000000000000000000000000000000000000081565b6040516001600160a01b03909116815260200161016f565b61016561022f366004611753565b610563565b610165610242366004611659565b6001600160a01b031660009081526001602052604090205490565b610165610714565b6102097f000000000000000000000000000000000000000000000000000000000000000081565b61029f61029a366004611659565b61075a565b005b6101656102af366004611659565b6107d4565b6102bc6107f2565b60405161016f979695949392919061182f565b6102d7610838565b6040516001600160e01b0319909116815260200161016f565b61018061085c565b6101a06103063660046116d7565b61086b565b610165610935565b6000546001600160a01b0316610209565b61029f6103323660046118c8565b6109c0565b61029f610345366004611701565b610afa565b61016561035836600461193b565b6001600160a01b03918216600090815260026020908152604080832093909416825291909152205490565b600061038e60035490565b60000361039d57506000919050565b6003546001600160a01b0383166000908152600160205260409020546103c1610935565b6103cb9190611984565b6103d5919061199b565b92915050565b919050565b6060600480546103ef906119bd565b80601f016020809104026020016040519081016040528092919081815260200182805461041b906119bd565b80156104685780601f1061043d57610100808354040283529160200191610468565b820191906000526020600020905b81548152906001019060200180831161044b57829003601f168201915b5050505050905090565b600033610480818585610be2565b5060019392505050565b600080610498858585610bf4565b60405163ca66118760e01b81526001600160a01b0387811660048301529192507f00000000000000000000000000000000000000000000000000000000000000009091169063ca66118790602401602060405180830381865afa158015610503573d6000803e3d6000fd5b505050506040513d601f19601f820116820180604052508101906105279190611a07565b61054c5760405162461bcd60e51b815260040161054390611a22565b60405180910390fd5b949350505050565b600061055e610c18565b905090565b6000610572335b600036610d43565b6001600160a01b038316610584578492505b600019840361061a576040516370a0823160e01b81526001600160a01b0386811660048301527f000000000000000000000000000000000000000000000000000000000000000016906370a0823190602401602060405180830381865afa1580156105f3573d6000803e3d6000fd5b505050506040513d601f19601f820116820180604052508101906106179190611a6c565b93505b6040516323b872dd60e01b81526001600160a01b038681166004830152306024830152604482018690527f000000000000000000000000000000000000000000000000000000000000000016906323b872dd906064016020604051808303816000875af115801561068f573d6000803e3d6000fd5b505050506040513d601f19601f820116820180604052508101906106b39190611a07565b5060006106be610935565b905060006106cb60035490565b9050806000036106e9576106df8587610e43565b859250505061054c565b816106f48288611984565b6106fe919061199b565b925061070a8584610e43565b5050949350505050565b600061071f60035490565b6000036107335750670de0b6b3a764000090565b60035461073e610935565b61075090670de0b6b3a7640000611984565b61055e919061199b565b60005433906001600160a01b031681146107915760405162d1953b60e31b81526001600160a01b0382166004820152602401610543565b816001600160a01b03163b6000036107c7576040516361798f2f60e11b81526001600160a01b0383166004820152602401610543565b6107d082610e79565b5050565b6001600160a01b0381166000908152600860205260408120546103d5565b600060608060008060006060610806610ecd565b61080e610efa565b60408051600080825260208201909252600f60f81b9b939a50919850469750309650945092509050565b60008054600160a01b900460ff166108505750600090565b50638fb3603760e01b90565b6060600580546103ef906119bd565b6000806108788484610f27565b90506001600160a01b037f00000000000000000000000000000000000000000000000000000000000000001663ca661187336040516001600160e01b031960e084901b1681526001600160a01b039091166004820152602401602060405180830381865afa1580156108ee573d6000803e3d6000fd5b505050506040513d601f19601f820116820180604052508101906109129190611a07565b61092e5760405162461bcd60e51b815260040161054390611a22565b9392505050565b6040516370a0823160e01b81523060048201526000907f00000000000000000000000000000000000000000000000000000000000000006001600160a01b0316906370a0823190602401602060405180830381865afa15801561099c573d6000803e3d6000fd5b505050506040513d601f19601f8201168201806040525081019061055e9190611a6c565b834211156109e45760405163313c898160e11b815260048101859052602401610543565b60007f6e71edae12b1b97f4d1f60370fef10105fa2faae0126114a169c64845d6126c9888888610a318c6001600160a01b0316600090815260086020526040902080546001810190915590565b6040805160208101969096526001600160a01b0394851690860152929091166060840152608083015260a082015260c0810186905260e0016040516020818303038152906040528051906020012090506000610a8c82610f35565b90506000610a9c82878787610f62565b9050896001600160a01b0316816001600160a01b031614610ae3576040516325c0072360e11b81526001600160a01b0380831660048301528b166024820152604401610543565b610aee8a8a8a610be2565b50505050505050505050565b610b033361056a565b6000198103610b1857610b1583610383565b90505b6000610b22610935565b600354610b2f9084611984565b610b39919061199b565b60405163a9059cbb60e01b81526001600160a01b038581166004830152602482018590529192507f00000000000000000000000000000000000000000000000000000000000000009091169063a9059cbb906044016020604051808303816000875af1158015610bad573d6000803e3d6000fd5b505050506040513d601f19601f82011682018060405250810190610bd19190611a07565b50610bdc8482610f90565b50505050565b610bef8383836001610fc6565b505050565b600033610c0285828561109b565b610c0d858585611113565b506001949350505050565b6000306001600160a01b037f000000000000000000000000000000000000000000000000000000000000000016148015610c7157507f000000000000000000000000000000000000000000000000000000000000000046145b15610c9b57507f000000000000000000000000000000000000000000000000000000000000000090565b61055e604080517f8b73c3c69bb8fe3d512ecc4cf759cc79239f7b179b0ffacaa9a75d522b39400f60208201527f0000000000000000000000000000000000000000000000000000000000000000918101919091527f000000000000000000000000000000000000000000000000000000000000000060608201524660808201523060a082015260009060c00160405160208183030381529060405280519060200120905090565b600080610d79610d5b6000546001600160a01b031690565b8630610d6b60046000898b611a85565b610d7491611aaf565b611172565b9150915081610e3c5763ffffffff811615610e19576000805460ff60a01b198116600160a01b17909155604051634a63ebf760e11b81526001600160a01b03909116906394c7d7ee90610dd490889088908890600401611adf565b600060405180830381600087803b158015610dee57600080fd5b505af1158015610e02573d6000803e3d6000fd5b50506000805460ff60a01b1916905550610e3c9050565b60405162d1953b60e31b81526001600160a01b0386166004820152602401610543565b5050505050565b6001600160a01b038216610e6d5760405163ec442f0560e01b815260006004820152602401610543565b6107d06000838361127e565b600080546001600160a01b0319166001600160a01b0383169081179091556040519081527f2f658b440c35314f52658ea8a740e05b284cdc84dc9ae01e891f21b8933e7cad9060200160405180910390a150565b606061055e7f000000000000000000000000000000000000000000000000000000000000000060066113a8565b606061055e7f000000000000000000000000000000000000000000000000000000000000000060076113a8565b600033610480818585611113565b60006103d5610f42610c18565b8360405161190160f01b8152600281019290925260228201526042902090565b600080600080610f7488888888611453565b925092509250610f848282611522565b50909695505050505050565b6001600160a01b038216610fba57604051634b637e8f60e11b815260006004820152602401610543565b6107d08260008361127e565b6001600160a01b038416610ff05760405163e602df0560e01b815260006004820152602401610543565b6001600160a01b03831661101a57604051634a1406b160e11b815260006004820152602401610543565b6001600160a01b0380851660009081526002602090815260408083209387168352929052208290558015610bdc57826001600160a01b0316846001600160a01b03167f8c5be1e5ebec7d5bd14f71427d1e84f3dd0314c0f7b2291e5b200ac8c7c3b9258460405161108d91815260200190565b60405180910390a350505050565b6001600160a01b038381166000908152600260209081526040808320938616835292905220546000198114610bdc578181101561110457604051637dc7a0d960e11b81526001600160a01b03841660048201526024810182905260448101839052606401610543565b610bdc84848484036000610fc6565b6001600160a01b03831661113d57604051634b637e8f60e11b815260006004820152602401610543565b6001600160a01b0382166111675760405163ec442f0560e01b815260006004820152602401610543565b610bef83838361127e565b6040516001600160a01b03848116602483015283811660448301526001600160e01b03198316606483015260009182918291829189169060840160408051601f198184030181529181526020820180516001600160e01b031663b700961360e01b179052516111e19190611b1f565b600060405180830381855afa9150503d806000811461121c576040519150601f19603f3d011682016040523d82523d6000602084013e611221565b606091505b5091509150811561127357604081511061125357808060200190518101906112499190611b3b565b9094509250611273565b602081511061127357808060200190518101906112709190611a07565b93505b505094509492505050565b6001600160a01b0383166112a957806003600082825461129e9190611b7b565b9091555061131b9050565b6001600160a01b038316600090815260016020526040902054818110156112fc5760405163391434e360e21b81526001600160a01b03851660048201526024810182905260448101839052606401610543565b6001600160a01b03841660009081526001602052604090209082900390555b6001600160a01b03821661133757600380548290039055611356565b6001600160a01b03821660009081526001602052604090208054820190555b816001600160a01b0316836001600160a01b03167fddf252ad1be2c89b69c2b068fc378daa952ba7f163c4a11628f55a4df523b3ef8360405161139b91815260200190565b60405180910390a3505050565b606060ff83146113c2576113bb836115db565b90506103d5565b8180546113ce906119bd565b80601f01602080910402602001604051908101604052809291908181526020018280546113fa906119bd565b80156114475780601f1061141c57610100808354040283529160200191611447565b820191906000526020600020905b81548152906001019060200180831161142a57829003601f168201915b505050505090506103d5565b600080807f7fffffffffffffffffffffffffffffff5d576e7357a4501ddfe92f46681b20a084111561148e5750600091506003905082611518565b604080516000808252602082018084528a905260ff891692820192909252606081018790526080810186905260019060a0016020604051602081039080840390855afa1580156114e2573d6000803e3d6000fd5b5050604051601f1901519150506001600160a01b03811661150e57506000925060019150829050611518565b9250600091508190505b9450945094915050565b600082600381111561153657611536611b8e565b0361153f575050565b600182600381111561155357611553611b8e565b036115715760405163f645eedf60e01b815260040160405180910390fd5b600282600381111561158557611585611b8e565b036115a65760405163fce698f760e01b815260048101829052602401610543565b60038260038111156115ba576115ba611b8e565b036107d0576040516335e2f38360e21b815260048101829052602401610543565b606060006115e88361161a565b604080516020808252818301909252919250600091906020820181803683375050509182525060208101929092525090565b600060ff8216601f8111156103d557604051632cd44ac360e21b815260040160405180910390fd5b80356001600160a01b03811681146103db57600080fd5b60006020828403121561166b57600080fd5b61092e82611642565b60005b8381101561168f578181015183820152602001611677565b50506000910152565b600081518084526116b0816020860160208601611674565b601f01601f19169290920160200192915050565b60208152600061092e6020830184611698565b600080604083850312156116ea57600080fd5b6116f383611642565b946020939093013593505050565b60008060006060848603121561171657600080fd5b61171f84611642565b925061172d60208501611642565b9150604084013590509250925092565b634e487b7160e01b600052604160045260246000fd5b6000806000806080858703121561176957600080fd5b61177285611642565b93506020850135925061178760408601611642565b9150606085013567ffffffffffffffff808211156117a457600080fd5b818701915087601f8301126117b857600080fd5b8135818111156117ca576117ca61173d565b604051601f8201601f19908116603f011681019083821181831017156117f2576117f261173d565b816040528281528a602084870101111561180b57600080fd5b82602086016020830137600060208483010152809550505050505092959194509250565b60ff60f81b881681526000602060e0602084015261185060e084018a611698565b8381036040850152611862818a611698565b606085018990526001600160a01b038816608086015260a0850187905284810360c08601528551808252602080880193509091019060005b818110156118b65783518352928401929184019160010161189a565b50909c9b505050505050505050505050565b600080600080600080600060e0888a0312156118e357600080fd5b6118ec88611642565b96506118fa60208901611642565b95506040880135945060608801359350608088013560ff8116811461191e57600080fd5b9699959850939692959460a0840135945060c09093013592915050565b6000806040838503121561194e57600080fd5b61195783611642565b915061196560208401611642565b90509250929050565b634e487b7160e01b600052601160045260246000fd5b80820281158282048414176103d5576103d561196e565b6000826119b857634e487b7160e01b600052601260045260246000fd5b500490565b600181811c908216806119d157607f821691505b6020821081036119f157634e487b7160e01b600052602260045260246000fd5b50919050565b805180151581146103db57600080fd5b600060208284031215611a1957600080fd5b61092e826119f7565b6020808252602a908201527f5278506f6f6c3a204163636f756e74206865616c74682062656c6f77204c5456604082015269081d1a1c995cda1bdb1960b21b606082015260800190565b600060208284031215611a7e57600080fd5b5051919050565b60008085851115611a9557600080fd5b83861115611aa257600080fd5b5050820193919092039150565b6001600160e01b03198135818116916004851015611ad75780818660040360031b1b83161692505b505092915050565b6001600160a01b03841681526040602082018190528101829052818360608301376000818301606090810191909152601f909201601f1916010192915050565b60008251611b31818460208701611674565b9190910192915050565b60008060408385031215611b4e57600080fd5b611b57836119f7565b9150602083015163ffffffff81168114611b7057600080fd5b809150509250929050565b808201808211156103d5576103d561196e565b634e487b7160e01b600052602160045260246000fdfea2646970667358221220ecc6267394feccdef0cc3a405085b84d3eecf9be2e76fd76cfccbda2b629c1bf64736f6c63430008170033","linkReferences":{}},"methodIdentifiers":{"ASSET()":"4800d97f","DOMAIN_SEPARATOR()":"3644e515","POOL()":"7535d246","allowance(address,address)":"dd62ed3e","approve(address,uint256)":"095ea7b3","assetBalanceOf(address)":"06b3efd6","authority()":"bf7e214f","balanceOf(address)":"70a08231","decimals()":"313ce567","deposit(address,uint256,address,bytes)":"5143a9fe","eip712Domain()":"84b0196e","isConsumingScheduledOp()":"8fb36037","name()":"06fdde03","nonces(address)":"7ecebe00","permit(address,address,uint256,uint256,uint8,bytes32,bytes32)":"d505accf","ratio()":"71ca337d","setAuthority(address)":"7a9e5e4b","symbol()":"95d89b41","totalBalance()":"ad7a672f","totalSupply()":"18160ddd","transfer(address,uint256)":"a9059cbb","transferFrom(address,address,uint256)":"23b872dd","withdraw(address,address,uint256)":"d9caed12"},"id":76}