{"abi":[{"type":"constructor","inputs":[{"name":"_name","type":"string","internalType":"string"},{"name":"_symbol","type":"string","internalType":"string"},{"name":"_ASSET","type":"address","internalType":"address"},{"name":"_MARKET","type":"address","internalType":"address"}],"stateMutability":"nonpayable"},{"type":"function","name":"ASSET","inputs":[],"outputs":[{"name":"","type":"address","internalType":"contract IERC20"}],"stateMutability":"view"},{"type":"function","name":"DOMAIN_SEPARATOR","inputs":[],"outputs":[{"name":"","type":"bytes32","internalType":"bytes32"}],"stateMutability":"view"},{"type":"function","name":"MARKET","inputs":[],"outputs":[{"name":"","type":"address","internalType":"address"}],"stateMutability":"view"},{"type":"function","name":"allowance","inputs":[{"name":"owner","type":"address","internalType":"address"},{"name":"spender","type":"address","internalType":"address"}],"outputs":[{"name":"","type":"uint256","internalType":"uint256"}],"stateMutability":"view"},{"type":"function","name":"approve","inputs":[{"name":"spender","type":"address","internalType":"address"},{"name":"value","type":"uint256","internalType":"uint256"}],"outputs":[{"name":"","type":"bool","internalType":"bool"}],"stateMutability":"nonpayable"},{"type":"function","name":"assetBalanceOf","inputs":[{"name":"user","type":"address","internalType":"address"}],"outputs":[{"name":"","type":"uint256","internalType":"uint256"}],"stateMutability":"view"},{"type":"function","name":"balanceOf","inputs":[{"name":"account","type":"address","internalType":"address"}],"outputs":[{"name":"","type":"uint256","internalType":"uint256"}],"stateMutability":"view"},{"type":"function","name":"decimals","inputs":[],"outputs":[{"name":"","type":"uint8","internalType":"uint8"}],"stateMutability":"view"},{"type":"function","name":"deposit","inputs":[{"name":"user","type":"address","internalType":"address"},{"name":"amount","type":"uint256","internalType":"uint256"},{"name":"onBehalfOf","type":"address","internalType":"address"}],"outputs":[{"name":"shareAmount","type":"uint256","internalType":"uint256"}],"stateMutability":"nonpayable"},{"type":"function","name":"eip712Domain","inputs":[],"outputs":[{"name":"fields","type":"bytes1","internalType":"bytes1"},{"name":"name","type":"string","internalType":"string"},{"name":"version","type":"string","internalType":"string"},{"name":"chainId","type":"uint256","internalType":"uint256"},{"name":"verifyingContract","type":"address","internalType":"address"},{"name":"salt","type":"bytes32","internalType":"bytes32"},{"name":"extensions","type":"uint256[]","internalType":"uint256[]"}],"stateMutability":"view"},{"type":"function","name":"name","inputs":[],"outputs":[{"name":"","type":"string","internalType":"string"}],"stateMutability":"view"},{"type":"function","name":"nonces","inputs":[{"name":"owner","type":"address","internalType":"address"}],"outputs":[{"name":"","type":"uint256","internalType":"uint256"}],"stateMutability":"view"},{"type":"function","name":"permit","inputs":[{"name":"owner","type":"address","internalType":"address"},{"name":"spender","type":"address","internalType":"address"},{"name":"value","type":"uint256","internalType":"uint256"},{"name":"deadline","type":"uint256","internalType":"uint256"},{"name":"v","type":"uint8","internalType":"uint8"},{"name":"r","type":"bytes32","internalType":"bytes32"},{"name":"s","type":"bytes32","internalType":"bytes32"}],"outputs":[],"stateMutability":"nonpayable"},{"type":"function","name":"ratio","inputs":[],"outputs":[{"name":"","type":"uint256","internalType":"uint256"}],"stateMutability":"view"},{"type":"function","name":"symbol","inputs":[],"outputs":[{"name":"","type":"string","internalType":"string"}],"stateMutability":"view"},{"type":"function","name":"totalBalance","inputs":[],"outputs":[{"name":"","type":"uint256","internalType":"uint256"}],"stateMutability":"view"},{"type":"function","name":"totalSupply","inputs":[],"outputs":[{"name":"","type":"uint256","internalType":"uint256"}],"stateMutability":"view"},{"type":"function","name":"transfer","inputs":[{"name":"account","type":"address","internalType":"address"},{"name":"amount","type":"uint256","internalType":"uint256"}],"outputs":[{"name":"","type":"bool","internalType":"bool"}],"stateMutability":"nonpayable"},{"type":"function","name":"transferFrom","inputs":[{"name":"sender","type":"address","internalType":"address"},{"name":"recipient","type":"address","internalType":"address"},{"name":"amount","type":"uint256","internalType":"uint256"}],"outputs":[{"name":"","type":"bool","internalType":"bool"}],"stateMutability":"nonpayable"},{"type":"function","name":"withdraw","inputs":[{"name":"user","type":"address","internalType":"address"},{"name":"receiver","type":"address","internalType":"address"},{"name":"amount","type":"uint256","internalType":"uint256"}],"outputs":[],"stateMutability":"nonpayable"},{"type":"event","name":"Approval","inputs":[{"name":"owner","type":"address","indexed":true,"internalType":"address"},{"name":"spender","type":"address","indexed":true,"internalType":"address"},{"name":"value","type":"uint256","indexed":false,"internalType":"uint256"}],"anonymous":false},{"type":"event","name":"EIP712DomainChanged","inputs":[],"anonymous":false},{"type":"event","name":"Transfer","inputs":[{"name":"from","type":"address","indexed":true,"internalType":"address"},{"name":"to","type":"address","indexed":true,"internalType":"address"},{"name":"value","type":"uint256","indexed":false,"internalType":"uint256"}],"anonymous":false},{"type":"error","name":"ECDSAInvalidSignature","inputs":[]},{"type":"error","name":"ECDSAInvalidSignatureLength","inputs":[{"name":"length","type":"uint256","internalType":"uint256"}]},{"type":"error","name":"ECDSAInvalidSignatureS","inputs":[{"name":"s","type":"bytes32","internalType":"bytes32"}]},{"type":"error","name":"ERC20InsufficientAllowance","inputs":[{"name":"spender","type":"address","internalType":"address"},{"name":"allowance","type":"uint256","internalType":"uint256"},{"name":"needed","type":"uint256","internalType":"uint256"}]},{"type":"error","name":"ERC20InsufficientBalance","inputs":[{"name":"sender","type":"address","internalType":"address"},{"name":"balance","type":"uint256","internalType":"uint256"},{"name":"needed","type":"uint256","internalType":"uint256"}]},{"type":"error","name":"ERC20InvalidApprover","inputs":[{"name":"approver","type":"address","internalType":"address"}]},{"type":"error","name":"ERC20InvalidReceiver","inputs":[{"name":"receiver","type":"address","internalType":"address"}]},{"type":"error","name":"ERC20InvalidSender","inputs":[{"name":"sender","type":"address","internalType":"address"}]},{"type":"error","name":"ERC20InvalidSpender","inputs":[{"name":"spender","type":"address","internalType":"address"}]},{"type":"error","name":"ERC2612ExpiredSignature","inputs":[{"name":"deadline","type":"uint256","internalType":"uint256"}]},{"type":"error","name":"ERC2612InvalidSigner","inputs":[{"name":"signer","type":"address","internalType":"address"},{"name":"owner","type":"address","internalType":"address"}]},{"type":"error","name":"InvalidAccountNonce","inputs":[{"name":"account","type":"address","internalType":"address"},{"name":"currentNonce","type":"uint256","internalType":"uint256"}]},{"type":"error","name":"InvalidShortString","inputs":[]},{"type":"error","name":"StringTooLong","inputs":[{"name":"str","type":"string","internalType":"string"}]}],"bytecode":{"object":"0x610160604052348015610010575f80fd5b50604051611aa2380380611aa283398101604081905261002f9161027e565b6040805180820190915260018152603160f81b602082015284908190818660036100598382610381565b5060046100668282610381565b506100769150839050600561014f565b6101205261008581600661014f565b61014052815160208084019190912060e052815190820120610100524660a05261011160e05161010051604080517f8b73c3c69bb8fe3d512ecc4cf759cc79239f7b179b0ffacaa9a75d522b39400f60208201529081019290925260608201524660808201523060a08201525f9060c00160405160208183030381529060405280519060200120905090565b60805250503060c05250600880546001600160a01b039384166001600160a01b03199182161790915560098054929093169116179055506104989050565b5f60208351101561016a5761016383610181565b905061017b565b816101758482610381565b5060ff90505b92915050565b5f80829050601f815111156101b4578260405163305a27a960e01b81526004016101ab9190610440565b60405180910390fd5b80516101bf82610475565b179392505050565b634e487b7160e01b5f52604160045260245ffd5b5f82601f8301126101ea575f80fd5b81516001600160401b0380821115610204576102046101c7565b604051601f8301601f19908116603f0116810190828211818310171561022c5761022c6101c7565b81604052838152866020858801011115610244575f80fd5b8360208701602083015e5f602085830101528094505050505092915050565b80516001600160a01b0381168114610279575f80fd5b919050565b5f805f8060808587031215610291575f80fd5b84516001600160401b03808211156102a7575f80fd5b6102b3888389016101db565b955060208701519150808211156102c8575f80fd5b506102d5878288016101db565b9350506102e460408601610263565b91506102f260608601610263565b905092959194509250565b600181811c9082168061031157607f821691505b60208210810361032f57634e487b7160e01b5f52602260045260245ffd5b50919050565b601f82111561037c57805f5260205f20601f840160051c8101602085101561035a5750805b601f840160051c820191505b81811015610379575f8155600101610366565b50505b505050565b81516001600160401b0381111561039a5761039a6101c7565b6103ae816103a884546102fd565b84610335565b602080601f8311600181146103e1575f84156103ca5750858301515b5f19600386901b1c1916600185901b178555610438565b5f85815260208120601f198616915b8281101561040f578886015182559484019460019091019084016103f0565b508582101561042c57878501515f19600388901b60f8161c191681555b505060018460011b0185555b505050505050565b602081525f82518060208401528060208501604085015e5f604082850101526040601f19601f83011684010191505092915050565b8051602080830151919081101561032f575f1960209190910360031b1b16919050565b60805160a05160c05160e0516101005161012051610140516115b96104e95f395f610bdc01525f610baf01525f610b5801525f610b3001525f610a8b01525f610ab501525f610adf01526115b95ff3fe608060405234801561000f575f80fd5b5060043610610127575f3560e01c80637ecebe00116100a9578063d505accf1161006e578063d505accf14610267578063d9caed121461027c578063dd62ed3e1461028f578063f45346dc146102c7578063f46f16c2146102da575f80fd5b80637ecebe001461021657806384b0196e1461022957806395d89b4114610244578063a9059cbb1461024c578063ad7a672f1461025f575f80fd5b8063313ce567116100ef578063313ce567146101a45780633644e515146101b35780634800d97f146101bb57806370a08231146101e657806371ca337d1461020e575f80fd5b806306b3efd61461012b57806306fdde0314610151578063095ea7b31461016657806318160ddd1461018957806323b872dd14610191575b5f80fd5b61013e610139366004611240565b6102ed565b6040519081526020015b60405180910390f35b610159610346565b6040516101489190611287565b610179610174366004611299565b6103d6565b6040519015158152602001610148565b60025461013e565b61017961019f3660046112c1565b6103ed565b60405160128152602001610148565b61013e6104ed565b6008546101ce906001600160a01b031681565b6040516001600160a01b039091168152602001610148565b61013e6101f4366004611240565b6001600160a01b03165f9081526020819052604090205490565b61013e6104fb565b61013e610224366004611240565b61053f565b61023161055c565b60405161014897969594939291906112fa565b61015961059e565b61017961025a366004611299565b6105ad565b61013e6105c1565b61027a610275366004611391565b61062b565b005b61027a61028a3660046112c1565b610761565b61013e61029d3660046113fe565b6001600160a01b039182165f90815260016020908152604080832093909416825291909152205490565b61013e6102d536600461142f565b610884565b6009546101ce906001600160a01b031681565b5f6102f760025490565b5f0361030457505f919050565b6002546001600160a01b0383165f908152602081905260409020546103276105c1565b610331919061147c565b61033b9190611493565b92915050565b919050565b606060038054610355906114b2565b80601f0160208091040260200160405190810160405280929190818152602001828054610381906114b2565b80156103cc5780601f106103a3576101008083540402835291602001916103cc565b820191905f5260205f20905b8154815290600101906020018083116103af57829003601f168201915b5050505050905090565b5f336103e3818585610a4a565b5060019392505050565b5f806103fa858585610a5c565b60095460405160016236769560e01b031981526001600160a01b0388811660048301529293505f929091169063ffc9896b9060240160a060405180830381865afa15801561044a573d5f803e3d5ffd5b505050506040513d601f19601f8201168201806040525081019061046e91906114ea565b945050505050670de0b6b3a764000081116104e25760405162461bcd60e51b815260206004820152602960248201527f5661756c743a204163636f756e74206865616c74682062656c6f77204c5456206044820152681d1a1c995cda1bdb1960ba1b60648201526084015b60405180910390fd5b5090505b9392505050565b5f6104f6610a7f565b905090565b5f61050560025490565b5f036105185750670de0b6b3a764000090565b6002546105236105c1565b61053590670de0b6b3a764000061147c565b6104f69190611493565b6001600160a01b0381165f9081526007602052604081205461033b565b5f6060805f805f606061056d610ba8565b610575610bd5565b604080515f80825260208201909252600f60f81b9b939a50919850469750309650945092509050565b606060048054610355906114b2565b5f806105b98484610c02565b949350505050565b6008546040516370a0823160e01b81523060048201525f916001600160a01b0316906370a0823190602401602060405180830381865afa158015610607573d5f803e3d5ffd5b505050506040513d601f19601f820116820180604052508101906104f69190611526565b8342111561064f5760405163313c898160e11b8152600481018590526024016104d9565b5f7f6e71edae12b1b97f4d1f60370fef10105fa2faae0126114a169c64845d6126c988888861069a8c6001600160a01b03165f90815260076020526040902080546001810190915590565b6040805160208101969096526001600160a01b0394851690860152929091166060840152608083015260a082015260c0810186905260e0016040516020818303038152906040528051906020012090505f6106f482610c0f565b90505f61070382878787610c3b565b9050896001600160a01b0316816001600160a01b03161461074a576040516325c0072360e11b81526001600160a01b0380831660048301528b1660248201526044016104d9565b6107558a8a8a610a4a565b50505050505050505050565b6009546001600160a01b031633146107c95760405162461bcd60e51b815260206004820152602560248201527f5661756c743a204f6e6c7920706f6f6c2063616e206578656375746520776974604482015264686472617760d81b60648201526084016104d9565b5f1981036107dd576107da836102ed565b90505b5f6107e66105c1565b6002546107f3908461147c565b6107fd9190611493565b60085460405163a9059cbb60e01b81526001600160a01b0386811660048301526024820186905292935091169063a9059cbb906044016020604051808303815f875af115801561084f573d5f803e3d5ffd5b505050506040513d601f19601f82011682018060405250810190610873919061153d565b5061087e8482610c67565b50505050565b6009545f906001600160a01b031633146108ec5760405162461bcd60e51b8152602060048201526024808201527f5661756c743a204f6e6c7920706f6f6c2063616e2065786563757465206465706044820152631bdcda5d60e21b60648201526084016104d9565b6001600160a01b0382166108fe578391505b5f198303610975576008546040516370a0823160e01b81526001600160a01b038681166004830152909116906370a0823190602401602060405180830381865afa15801561094e573d5f803e3d5ffd5b505050506040513d601f19601f820116820180604052508101906109729190611526565b92505b5f61097e6105c1565b90505f61098a60025490565b6008546040516323b872dd60e01b81526001600160a01b038981166004830152306024830152604482018990529293509116906323b872dd906064016020604051808303815f875af11580156109e2573d5f803e3d5ffd5b505050506040513d601f19601f82011682018060405250810190610a06919061153d565b50805f03610a2257610a188486610c9f565b84925050506104e6565b81610a2d828761147c565b610a379190611493565b9250610a438484610c9f565b50506104e6565b610a578383836001610cd3565b505050565b5f33610a69858285610da5565b610a74858585610e1a565b506001949350505050565b5f306001600160a01b037f000000000000000000000000000000000000000000000000000000000000000016148015610ad757507f000000000000000000000000000000000000000000000000000000000000000046145b15610b0157507f000000000000000000000000000000000000000000000000000000000000000090565b6104f6604080517f8b73c3c69bb8fe3d512ecc4cf759cc79239f7b179b0ffacaa9a75d522b39400f60208201527f0000000000000000000000000000000000000000000000000000000000000000918101919091527f000000000000000000000000000000000000000000000000000000000000000060608201524660808201523060a08201525f9060c00160405160208183030381529060405280519060200120905090565b60606104f67f00000000000000000000000000000000000000000000000000000000000000006005610e77565b60606104f67f00000000000000000000000000000000000000000000000000000000000000006006610e77565b5f336103e3818585610e1a565b5f61033b610c1b610a7f565b8360405161190160f01b8152600281019290925260228201526042902090565b5f805f80610c4b88888888610f20565b925092509250610c5b8282610fe8565b50909695505050505050565b6001600160a01b038216610c9057604051634b637e8f60e11b81525f60048201526024016104d9565b610c9b825f836110a0565b5050565b6001600160a01b038216610cc85760405163ec442f0560e01b81525f60048201526024016104d9565b610c9b5f83836110a0565b6001600160a01b038416610cfc5760405163e602df0560e01b81525f60048201526024016104d9565b6001600160a01b038316610d2557604051634a1406b160e11b81525f60048201526024016104d9565b6001600160a01b038085165f908152600160209081526040808320938716835292905220829055801561087e57826001600160a01b0316846001600160a01b03167f8c5be1e5ebec7d5bd14f71427d1e84f3dd0314c0f7b2291e5b200ac8c7c3b92584604051610d9791815260200190565b60405180910390a350505050565b6001600160a01b038381165f908152600160209081526040808320938616835292905220545f19811461087e5781811015610e0c57604051637dc7a0d960e11b81526001600160a01b038416600482015260248101829052604481018390526064016104d9565b61087e84848484035f610cd3565b6001600160a01b038316610e4357604051634b637e8f60e11b81525f60048201526024016104d9565b6001600160a01b038216610e6c5760405163ec442f0560e01b81525f60048201526024016104d9565b610a578383836110a0565b606060ff8314610e9157610e8a836111c6565b905061033b565b818054610e9d906114b2565b80601f0160208091040260200160405190810160405280929190818152602001828054610ec9906114b2565b8015610f145780601f10610eeb57610100808354040283529160200191610f14565b820191905f5260205f20905b815481529060010190602001808311610ef757829003601f168201915b5050505050905061033b565b5f80807f7fffffffffffffffffffffffffffffff5d576e7357a4501ddfe92f46681b20a0841115610f5957505f91506003905082610fde565b604080515f808252602082018084528a905260ff891692820192909252606081018790526080810186905260019060a0016020604051602081039080840390855afa158015610faa573d5f803e3d5ffd5b5050604051601f1901519150506001600160a01b038116610fd557505f925060019150829050610fde565b92505f91508190505b9450945094915050565b5f826003811115610ffb57610ffb61155c565b03611004575050565b60018260038111156110185761101861155c565b036110365760405163f645eedf60e01b815260040160405180910390fd5b600282600381111561104a5761104a61155c565b0361106b5760405163fce698f760e01b8152600481018290526024016104d9565b600382600381111561107f5761107f61155c565b03610c9b576040516335e2f38360e21b8152600481018290526024016104d9565b6001600160a01b0383166110ca578060025f8282546110bf9190611570565b9091555061113a9050565b6001600160a01b0383165f908152602081905260409020548181101561111c5760405163391434e360e21b81526001600160a01b038516600482015260248101829052604481018390526064016104d9565b6001600160a01b0384165f9081526020819052604090209082900390555b6001600160a01b03821661115657600280548290039055611174565b6001600160a01b0382165f9081526020819052604090208054820190555b816001600160a01b0316836001600160a01b03167fddf252ad1be2c89b69c2b068fc378daa952ba7f163c4a11628f55a4df523b3ef836040516111b991815260200190565b60405180910390a3505050565b60605f6111d283611203565b6040805160208082528183019092529192505f91906020820181803683375050509182525060208101929092525090565b5f60ff8216601f81111561033b57604051632cd44ac360e21b815260040160405180910390fd5b80356001600160a01b0381168114610341575f80fd5b5f60208284031215611250575f80fd5b6104e68261122a565b5f81518084528060208401602086015e5f602082860101526020601f19601f83011685010191505092915050565b602081525f6104e66020830184611259565b5f80604083850312156112aa575f80fd5b6112b38361122a565b946020939093013593505050565b5f805f606084860312156112d3575f80fd5b6112dc8461122a565b92506112ea6020850161122a565b9150604084013590509250925092565b60ff60f81b881681525f602060e0602084015261131a60e084018a611259565b838103604085015261132c818a611259565b606085018990526001600160a01b038816608086015260a0850187905284810360c0860152855180825260208088019350909101905f5b8181101561137f57835183529284019291840191600101611363565b50909c9b505050505050505050505050565b5f805f805f805f60e0888a0312156113a7575f80fd5b6113b08861122a565b96506113be6020890161122a565b95506040880135945060608801359350608088013560ff811681146113e1575f80fd5b9699959850939692959460a0840135945060c09093013592915050565b5f806040838503121561140f575f80fd5b6114188361122a565b91506114266020840161122a565b90509250929050565b5f805f60608486031215611441575f80fd5b61144a8461122a565b92506020840135915061145f6040850161122a565b90509250925092565b634e487b7160e01b5f52601160045260245ffd5b808202811582820484141761033b5761033b611468565b5f826114ad57634e487b7160e01b5f52601260045260245ffd5b500490565b600181811c908216806114c657607f821691505b6020821081036114e457634e487b7160e01b5f52602260045260245ffd5b50919050565b5f805f805f60a086880312156114fe575f80fd5b5050835160208501516040860151606087015160809097015192989197509594509092509050565b5f60208284031215611536575f80fd5b5051919050565b5f6020828403121561154d575f80fd5b815180151581146104e6575f80fd5b634e487b7160e01b5f52602160045260245ffd5b8082018082111561033b5761033b61146856fea26469706673582212202039b9116a437d3b88a61eabb4942d60855aaf4e88a73091665162d49303ed2d64736f6c63430008190033","linkReferences":{}},"methodIdentifiers":{"ASSET()":"4800d97f","DOMAIN_SEPARATOR()":"3644e515","MARKET()":"f46f16c2","allowance(address,address)":"dd62ed3e","approve(address,uint256)":"095ea7b3","assetBalanceOf(address)":"06b3efd6","balanceOf(address)":"70a08231","decimals()":"313ce567","deposit(address,uint256,address)":"f45346dc","eip712Domain()":"84b0196e","name()":"06fdde03","nonces(address)":"7ecebe00","permit(address,address,uint256,uint256,uint8,bytes32,bytes32)":"d505accf","ratio()":"71ca337d","symbol()":"95d89b41","totalBalance()":"ad7a672f","totalSupply()":"18160ddd","transfer(address,uint256)":"a9059cbb","transferFrom(address,address,uint256)":"23b872dd","withdraw(address,address,uint256)":"d9caed12"},"id":99}