{"abi":[{"type":"constructor","inputs":[{"name":"_name","type":"string","internalType":"string"},{"name":"_symbol","type":"string","internalType":"string"},{"name":"_ASSET","type":"address","internalType":"address"},{"name":"_MARKET","type":"address","internalType":"address"}],"stateMutability":"nonpayable"},{"type":"function","name":"ASSET","inputs":[],"outputs":[{"name":"","type":"address","internalType":"contract IERC20"}],"stateMutability":"view"},{"type":"function","name":"DOMAIN_SEPARATOR","inputs":[],"outputs":[{"name":"","type":"bytes32","internalType":"bytes32"}],"stateMutability":"view"},{"type":"function","name":"MARKET","inputs":[],"outputs":[{"name":"","type":"address","internalType":"address"}],"stateMutability":"view"},{"type":"function","name":"allowance","inputs":[{"name":"owner","type":"address","internalType":"address"},{"name":"spender","type":"address","internalType":"address"}],"outputs":[{"name":"","type":"uint256","internalType":"uint256"}],"stateMutability":"view"},{"type":"function","name":"approve","inputs":[{"name":"spender","type":"address","internalType":"address"},{"name":"value","type":"uint256","internalType":"uint256"}],"outputs":[{"name":"","type":"bool","internalType":"bool"}],"stateMutability":"nonpayable"},{"type":"function","name":"assetBalanceOf","inputs":[{"name":"user","type":"address","internalType":"address"}],"outputs":[{"name":"","type":"uint256","internalType":"uint256"}],"stateMutability":"view"},{"type":"function","name":"balanceOf","inputs":[{"name":"account","type":"address","internalType":"address"}],"outputs":[{"name":"","type":"uint256","internalType":"uint256"}],"stateMutability":"view"},{"type":"function","name":"decimals","inputs":[],"outputs":[{"name":"","type":"uint8","internalType":"uint8"}],"stateMutability":"view"},{"type":"function","name":"deposit","inputs":[{"name":"user","type":"address","internalType":"address"},{"name":"amount","type":"uint256","internalType":"uint256"},{"name":"onBehalfOf","type":"address","internalType":"address"}],"outputs":[{"name":"shareAmount","type":"uint256","internalType":"uint256"}],"stateMutability":"nonpayable"},{"type":"function","name":"eip712Domain","inputs":[],"outputs":[{"name":"fields","type":"bytes1","internalType":"bytes1"},{"name":"name","type":"string","internalType":"string"},{"name":"version","type":"string","internalType":"string"},{"name":"chainId","type":"uint256","internalType":"uint256"},{"name":"verifyingContract","type":"address","internalType":"address"},{"name":"salt","type":"bytes32","internalType":"bytes32"},{"name":"extensions","type":"uint256[]","internalType":"uint256[]"}],"stateMutability":"view"},{"type":"function","name":"name","inputs":[],"outputs":[{"name":"","type":"string","internalType":"string"}],"stateMutability":"view"},{"type":"function","name":"nonces","inputs":[{"name":"owner","type":"address","internalType":"address"}],"outputs":[{"name":"","type":"uint256","internalType":"uint256"}],"stateMutability":"view"},{"type":"function","name":"permit","inputs":[{"name":"owner","type":"address","internalType":"address"},{"name":"spender","type":"address","internalType":"address"},{"name":"value","type":"uint256","internalType":"uint256"},{"name":"deadline","type":"uint256","internalType":"uint256"},{"name":"v","type":"uint8","internalType":"uint8"},{"name":"r","type":"bytes32","internalType":"bytes32"},{"name":"s","type":"bytes32","internalType":"bytes32"}],"outputs":[],"stateMutability":"nonpayable"},{"type":"function","name":"ratio","inputs":[],"outputs":[{"name":"","type":"uint256","internalType":"uint256"}],"stateMutability":"view"},{"type":"function","name":"symbol","inputs":[],"outputs":[{"name":"","type":"string","internalType":"string"}],"stateMutability":"view"},{"type":"function","name":"totalBalance","inputs":[],"outputs":[{"name":"","type":"uint256","internalType":"uint256"}],"stateMutability":"view"},{"type":"function","name":"totalSupply","inputs":[],"outputs":[{"name":"","type":"uint256","internalType":"uint256"}],"stateMutability":"view"},{"type":"function","name":"transfer","inputs":[{"name":"account","type":"address","internalType":"address"},{"name":"amount","type":"uint256","internalType":"uint256"}],"outputs":[{"name":"","type":"bool","internalType":"bool"}],"stateMutability":"nonpayable"},{"type":"function","name":"transferFrom","inputs":[{"name":"sender","type":"address","internalType":"address"},{"name":"recipient","type":"address","internalType":"address"},{"name":"amount","type":"uint256","internalType":"uint256"}],"outputs":[{"name":"","type":"bool","internalType":"bool"}],"stateMutability":"nonpayable"},{"type":"function","name":"withdraw","inputs":[{"name":"user","type":"address","internalType":"address"},{"name":"receiver","type":"address","internalType":"address"},{"name":"amount","type":"uint256","internalType":"uint256"}],"outputs":[],"stateMutability":"nonpayable"},{"type":"event","name":"Approval","inputs":[{"name":"owner","type":"address","indexed":true,"internalType":"address"},{"name":"spender","type":"address","indexed":true,"internalType":"address"},{"name":"value","type":"uint256","indexed":false,"internalType":"uint256"}],"anonymous":false},{"type":"event","name":"EIP712DomainChanged","inputs":[],"anonymous":false},{"type":"event","name":"Transfer","inputs":[{"name":"from","type":"address","indexed":true,"internalType":"address"},{"name":"to","type":"address","indexed":true,"internalType":"address"},{"name":"value","type":"uint256","indexed":false,"internalType":"uint256"}],"anonymous":false},{"type":"error","name":"ECDSAInvalidSignature","inputs":[]},{"type":"error","name":"ECDSAInvalidSignatureLength","inputs":[{"name":"length","type":"uint256","internalType":"uint256"}]},{"type":"error","name":"ECDSAInvalidSignatureS","inputs":[{"name":"s","type":"bytes32","internalType":"bytes32"}]},{"type":"error","name":"ERC20InsufficientAllowance","inputs":[{"name":"spender","type":"address","internalType":"address"},{"name":"allowance","type":"uint256","internalType":"uint256"},{"name":"needed","type":"uint256","internalType":"uint256"}]},{"type":"error","name":"ERC20InsufficientBalance","inputs":[{"name":"sender","type":"address","internalType":"address"},{"name":"balance","type":"uint256","internalType":"uint256"},{"name":"needed","type":"uint256","internalType":"uint256"}]},{"type":"error","name":"ERC20InvalidApprover","inputs":[{"name":"approver","type":"address","internalType":"address"}]},{"type":"error","name":"ERC20InvalidReceiver","inputs":[{"name":"receiver","type":"address","internalType":"address"}]},{"type":"error","name":"ERC20InvalidSender","inputs":[{"name":"sender","type":"address","internalType":"address"}]},{"type":"error","name":"ERC20InvalidSpender","inputs":[{"name":"spender","type":"address","internalType":"address"}]},{"type":"error","name":"ERC2612ExpiredSignature","inputs":[{"name":"deadline","type":"uint256","internalType":"uint256"}]},{"type":"error","name":"ERC2612InvalidSigner","inputs":[{"name":"signer","type":"address","internalType":"address"},{"name":"owner","type":"address","internalType":"address"}]},{"type":"error","name":"InvalidAccountNonce","inputs":[{"name":"account","type":"address","internalType":"address"},{"name":"currentNonce","type":"uint256","internalType":"uint256"}]},{"type":"error","name":"InvalidShortString","inputs":[]},{"type":"error","name":"StringTooLong","inputs":[{"name":"str","type":"string","internalType":"string"}]}],"bytecode":{"object":"0x61016060405234801561001157600080fd5b50604051611b76380380611b76833981016040819052610030916102a8565b6040805180820190915260018152603160f81b6020820152849081908186600361005a83826103b7565b50600461006782826103b7565b5061007791508390506005610151565b61012052610086816006610151565b61014052815160208084019190912060e052815190820120610100524660a05261011360e05161010051604080517f8b73c3c69bb8fe3d512ecc4cf759cc79239f7b179b0ffacaa9a75d522b39400f60208201529081019290925260608201524660808201523060a082015260009060c00160405160208183030381529060405280519060200120905090565b60805250503060c05250600880546001600160a01b039384166001600160a01b03199182161790915560098054929093169116179055506104cd9050565b600060208351101561016d5761016683610184565b905061017e565b8161017884826103b7565b5060ff90505b92915050565b600080829050601f815111156101b8578260405163305a27a960e01b81526004016101af9190610476565b60405180910390fd5b80516101c3826104a9565b179392505050565b634e487b7160e01b600052604160045260246000fd5b60005b838110156101fc5781810151838201526020016101e4565b50506000910152565b600082601f83011261021657600080fd5b81516001600160401b0380821115610230576102306101cb565b604051601f8301601f19908116603f01168101908282118183101715610258576102586101cb565b8160405283815286602085880101111561027157600080fd5b6102828460208301602089016101e1565b9695505050505050565b80516001600160a01b03811681146102a357600080fd5b919050565b600080600080608085870312156102be57600080fd5b84516001600160401b03808211156102d557600080fd5b6102e188838901610205565b955060208701519150808211156102f757600080fd5b5061030487828801610205565b9350506103136040860161028c565b91506103216060860161028c565b905092959194509250565b600181811c9082168061034057607f821691505b60208210810361036057634e487b7160e01b600052602260045260246000fd5b50919050565b601f8211156103b2576000816000526020600020601f850160051c8101602086101561038f5750805b601f850160051c820191505b818110156103ae5782815560010161039b565b5050505b505050565b81516001600160401b038111156103d0576103d06101cb565b6103e4816103de845461032c565b84610366565b602080601f83116001811461041957600084156104015750858301515b600019600386901b1c1916600185901b1785556103ae565b600085815260208120601f198616915b8281101561044857888601518255948401946001909101908401610429565b50858210156104665787850151600019600388901b60f8161c191681555b5050505050600190811b01905550565b60208152600082518060208401526104958160408501602087016101e1565b601f01601f19169190910160400192915050565b805160208083015191908110156103605760001960209190910360031b1b16919050565b60805160a05160c05160e05161010051610120516101405161164f6105276000396000610c1101526000610be401526000610b8c01526000610b6401526000610abf01526000610ae901526000610b13015261164f6000f3fe608060405234801561001057600080fd5b506004361061012c5760003560e01c80637ecebe00116100ad578063d505accf11610071578063d505accf1461026e578063d9caed1214610283578063dd62ed3e14610296578063f45346dc146102cf578063f46f16c2146102e257600080fd5b80637ecebe001461021d57806384b0196e1461023057806395d89b411461024b578063a9059cbb14610253578063ad7a672f1461026657600080fd5b8063313ce567116100f4578063313ce567146101aa5780633644e515146101b95780634800d97f146101c157806370a08231146101ec57806371ca337d1461021557600080fd5b806306b3efd61461013157806306fdde0314610157578063095ea7b31461016c57806318160ddd1461018f57806323b872dd14610197575b600080fd5b61014461013f366004611297565b6102f5565b6040519081526020015b60405180910390f35b61015f610352565b60405161014e91906112f8565b61017f61017a36600461130b565b6103e4565b604051901515815260200161014e565b600254610144565b61017f6101a5366004611335565b6103fc565b6040516012815260200161014e565b610144610500565b6008546101d4906001600160a01b031681565b6040516001600160a01b03909116815260200161014e565b6101446101fa366004611297565b6001600160a01b031660009081526020819052604090205490565b61014461050f565b61014461022b366004611297565b610555565b610238610573565b60405161014e9796959493929190611371565b61015f6105b9565b61017f61026136600461130b565b6105c8565b6101446105dd565b61028161027c36600461140a565b61064a565b005b610281610291366004611335565b610784565b6101446102a436600461147d565b6001600160a01b03918216600090815260016020908152604080832093909416825291909152205490565b6101446102dd3660046114b0565b6108ac565b6009546101d4906001600160a01b031681565b600061030060025490565b60000361030f57506000919050565b6002546001600160a01b0383166000908152602081905260409020546103336105dd565b61033d9190611502565b6103479190611519565b92915050565b919050565b6060600380546103619061153b565b80601f016020809104026020016040519081016040528092919081815260200182805461038d9061153b565b80156103da5780601f106103af576101008083540402835291602001916103da565b820191906000526020600020905b8154815290600101906020018083116103bd57829003601f168201915b5050505050905090565b6000336103f2818585610a7c565b5060019392505050565b60008061040a858585610a8e565b60095460405160016236769560e01b031981526001600160a01b0388811660048301529293506000929091169063ffc9896b9060240160a060405180830381865afa15801561045d573d6000803e3d6000fd5b505050506040513d601f19601f820116820180604052508101906104819190611575565b945050505050670de0b6b3a764000081116104f55760405162461bcd60e51b815260206004820152602960248201527f5661756c743a204163636f756e74206865616c74682062656c6f77204c5456206044820152681d1a1c995cda1bdb1960ba1b60648201526084015b60405180910390fd5b5090505b9392505050565b600061050a610ab2565b905090565b600061051a60025490565b60000361052e5750670de0b6b3a764000090565b6002546105396105dd565b61054b90670de0b6b3a7640000611502565b61050a9190611519565b6001600160a01b038116600090815260076020526040812054610347565b600060608060008060006060610587610bdd565b61058f610c0a565b60408051600080825260208201909252600f60f81b9b939a50919850469750309650945092509050565b6060600480546103619061153b565b6000806105d58484610c37565b949350505050565b6008546040516370a0823160e01b81523060048201526000916001600160a01b0316906370a0823190602401602060405180830381865afa158015610626573d6000803e3d6000fd5b505050506040513d601f19601f8201168201806040525081019061050a91906115b5565b8342111561066e5760405163313c898160e11b8152600481018590526024016104ec565b60007f6e71edae12b1b97f4d1f60370fef10105fa2faae0126114a169c64845d6126c98888886106bb8c6001600160a01b0316600090815260076020526040902080546001810190915590565b6040805160208101969096526001600160a01b0394851690860152929091166060840152608083015260a082015260c0810186905260e001604051602081830303815290604052805190602001209050600061071682610c45565b9050600061072682878787610c72565b9050896001600160a01b0316816001600160a01b03161461076d576040516325c0072360e11b81526001600160a01b0380831660048301528b1660248201526044016104ec565b6107788a8a8a610a7c565b50505050505050505050565b6009546001600160a01b031633146107ec5760405162461bcd60e51b815260206004820152602560248201527f5661756c743a204f6e6c7920706f6f6c2063616e206578656375746520776974604482015264686472617760d81b60648201526084016104ec565b6000198103610801576107fe836102f5565b90505b600061080b6105dd565b6002546108189084611502565b6108229190611519565b60085460405163a9059cbb60e01b81526001600160a01b0386811660048301526024820186905292935091169063a9059cbb906044016020604051808303816000875af1158015610877573d6000803e3d6000fd5b505050506040513d601f19601f8201168201806040525081019061089b91906115ce565b506108a68482610ca0565b50505050565b6009546000906001600160a01b031633146109155760405162461bcd60e51b8152602060048201526024808201527f5661756c743a204f6e6c7920706f6f6c2063616e2065786563757465206465706044820152631bdcda5d60e21b60648201526084016104ec565b6001600160a01b038216610927578391505b60001983036109a1576008546040516370a0823160e01b81526001600160a01b038681166004830152909116906370a0823190602401602060405180830381865afa15801561097a573d6000803e3d6000fd5b505050506040513d601f19601f8201168201806040525081019061099e91906115b5565b92505b60006109ab6105dd565b905060006109b860025490565b6008546040516323b872dd60e01b81526001600160a01b038981166004830152306024830152604482018990529293509116906323b872dd906064016020604051808303816000875af1158015610a13573d6000803e3d6000fd5b505050506040513d601f19601f82011682018060405250810190610a3791906115ce565b5080600003610a5457610a4a8486610cda565b84925050506104f9565b81610a5f8287611502565b610a699190611519565b9250610a758484610cda565b50506104f9565b610a898383836001610d10565b505050565b600033610a9c858285610de5565b610aa7858585610e5d565b506001949350505050565b6000306001600160a01b037f000000000000000000000000000000000000000000000000000000000000000016148015610b0b57507f000000000000000000000000000000000000000000000000000000000000000046145b15610b3557507f000000000000000000000000000000000000000000000000000000000000000090565b61050a604080517f8b73c3c69bb8fe3d512ecc4cf759cc79239f7b179b0ffacaa9a75d522b39400f60208201527f0000000000000000000000000000000000000000000000000000000000000000918101919091527f000000000000000000000000000000000000000000000000000000000000000060608201524660808201523060a082015260009060c00160405160208183030381529060405280519060200120905090565b606061050a7f00000000000000000000000000000000000000000000000000000000000000006005610ebc565b606061050a7f00000000000000000000000000000000000000000000000000000000000000006006610ebc565b6000336103f2818585610e5d565b6000610347610c52610ab2565b8360405161190160f01b8152600281019290925260228201526042902090565b600080600080610c8488888888610f67565b925092509250610c948282611036565b50909695505050505050565b6001600160a01b038216610cca57604051634b637e8f60e11b8152600060048201526024016104ec565b610cd6826000836110ef565b5050565b6001600160a01b038216610d045760405163ec442f0560e01b8152600060048201526024016104ec565b610cd6600083836110ef565b6001600160a01b038416610d3a5760405163e602df0560e01b8152600060048201526024016104ec565b6001600160a01b038316610d6457604051634a1406b160e11b8152600060048201526024016104ec565b6001600160a01b03808516600090815260016020908152604080832093871683529290522082905580156108a657826001600160a01b0316846001600160a01b03167f8c5be1e5ebec7d5bd14f71427d1e84f3dd0314c0f7b2291e5b200ac8c7c3b92584604051610dd791815260200190565b60405180910390a350505050565b6001600160a01b0383811660009081526001602090815260408083209386168352929052205460001981146108a65781811015610e4e57604051637dc7a0d960e11b81526001600160a01b038416600482015260248101829052604481018390526064016104ec565b6108a684848484036000610d10565b6001600160a01b038316610e8757604051634b637e8f60e11b8152600060048201526024016104ec565b6001600160a01b038216610eb15760405163ec442f0560e01b8152600060048201526024016104ec565b610a898383836110ef565b606060ff8314610ed657610ecf83611219565b9050610347565b818054610ee29061153b565b80601f0160208091040260200160405190810160405280929190818152602001828054610f0e9061153b565b8015610f5b5780601f10610f3057610100808354040283529160200191610f5b565b820191906000526020600020905b815481529060010190602001808311610f3e57829003601f168201915b50505050509050610347565b600080807f7fffffffffffffffffffffffffffffff5d576e7357a4501ddfe92f46681b20a0841115610fa2575060009150600390508261102c565b604080516000808252602082018084528a905260ff891692820192909252606081018790526080810186905260019060a0016020604051602081039080840390855afa158015610ff6573d6000803e3d6000fd5b5050604051601f1901519150506001600160a01b0381166110225750600092506001915082905061102c565b9250600091508190505b9450945094915050565b600082600381111561104a5761104a6115f0565b03611053575050565b6001826003811115611067576110676115f0565b036110855760405163f645eedf60e01b815260040160405180910390fd5b6002826003811115611099576110996115f0565b036110ba5760405163fce698f760e01b8152600481018290526024016104ec565b60038260038111156110ce576110ce6115f0565b03610cd6576040516335e2f38360e21b8152600481018290526024016104ec565b6001600160a01b03831661111a57806002600082825461110f9190611606565b9091555061118c9050565b6001600160a01b0383166000908152602081905260409020548181101561116d5760405163391434e360e21b81526001600160a01b038516600482015260248101829052604481018390526064016104ec565b6001600160a01b03841660009081526020819052604090209082900390555b6001600160a01b0382166111a8576002805482900390556111c7565b6001600160a01b03821660009081526020819052604090208054820190555b816001600160a01b0316836001600160a01b03167fddf252ad1be2c89b69c2b068fc378daa952ba7f163c4a11628f55a4df523b3ef8360405161120c91815260200190565b60405180910390a3505050565b6060600061122683611258565b604080516020808252818301909252919250600091906020820181803683375050509182525060208101929092525090565b600060ff8216601f81111561034757604051632cd44ac360e21b815260040160405180910390fd5b80356001600160a01b038116811461034d57600080fd5b6000602082840312156112a957600080fd5b6104f982611280565b6000815180845260005b818110156112d8576020818501810151868301820152016112bc565b506000602082860101526020601f19601f83011685010191505092915050565b6020815260006104f960208301846112b2565b6000806040838503121561131e57600080fd5b61132783611280565b946020939093013593505050565b60008060006060848603121561134a57600080fd5b61135384611280565b925061136160208501611280565b9150604084013590509250925092565b60ff60f81b881681526000602060e0602084015261139260e084018a6112b2565b83810360408501526113a4818a6112b2565b606085018990526001600160a01b038816608086015260a0850187905284810360c08601528551808252602080880193509091019060005b818110156113f8578351835292840192918401916001016113dc565b50909c9b505050505050505050505050565b600080600080600080600060e0888a03121561142557600080fd5b61142e88611280565b965061143c60208901611280565b95506040880135945060608801359350608088013560ff8116811461146057600080fd5b9699959850939692959460a0840135945060c09093013592915050565b6000806040838503121561149057600080fd5b61149983611280565b91506114a760208401611280565b90509250929050565b6000806000606084860312156114c557600080fd5b6114ce84611280565b9250602084013591506114e360408501611280565b90509250925092565b634e487b7160e01b600052601160045260246000fd5b8082028115828204841417610347576103476114ec565b60008261153657634e487b7160e01b600052601260045260246000fd5b500490565b600181811c9082168061154f57607f821691505b60208210810361156f57634e487b7160e01b600052602260045260246000fd5b50919050565b600080600080600060a0868803121561158d57600080fd5b5050835160208501516040860151606087015160809097015192989197509594509092509050565b6000602082840312156115c757600080fd5b5051919050565b6000602082840312156115e057600080fd5b815180151581146104f957600080fd5b634e487b7160e01b600052602160045260246000fd5b80820180821115610347576103476114ec56fea264697066735822122017f1b8c008e0d2cb79831ddba807156fbacddd48121a6c36e993bd1180eabd8964736f6c63430008190033","linkReferences":{}},"methodIdentifiers":{"ASSET()":"4800d97f","DOMAIN_SEPARATOR()":"3644e515","MARKET()":"f46f16c2","allowance(address,address)":"dd62ed3e","approve(address,uint256)":"095ea7b3","assetBalanceOf(address)":"06b3efd6","balanceOf(address)":"70a08231","decimals()":"313ce567","deposit(address,uint256,address)":"f45346dc","eip712Domain()":"84b0196e","name()":"06fdde03","nonces(address)":"7ecebe00","permit(address,address,uint256,uint256,uint8,bytes32,bytes32)":"d505accf","ratio()":"71ca337d","symbol()":"95d89b41","totalBalance()":"ad7a672f","totalSupply()":"18160ddd","transfer(address,uint256)":"a9059cbb","transferFrom(address,address,uint256)":"23b872dd","withdraw(address,address,uint256)":"d9caed12"},"id":74}