{"abi":[{"type":"function","name":"btcMarket","inputs":[{"name":"interestRate","type":"uint256","internalType":"uint256"}],"outputs":[{"name":"","type":"tuple","internalType":"struct MarketsConfig.MarketConfig","components":[{"name":"isMarket","type":"bool","internalType":"bool"},{"name":"reserves","type":"tuple[]","internalType":"struct MarketsConfig.ReserveVault[]","components":[{"name":"asset","type":"address","internalType":"address"},{"name":"baseLTV","type":"uint256","internalType":"uint256"},{"name":"liquidationThreshold","type":"uint256","internalType":"uint256"},{"name":"liquidationBonus","type":"uint256","internalType":"uint256"},{"name":"liquidationFee","type":"uint256","internalType":"uint256"},{"name":"maxDeposits","type":"uint256","internalType":"uint256"},{"name":"pythId","type":"bytes32","internalType":"bytes32"}]},{"name":"interestRate","type":"uint256","internalType":"uint256"}]}],"stateMutability":"nonpayable"},{"type":"function","name":"clpMarket","inputs":[{"name":"interestRate","type":"uint256","internalType":"uint256"}],"outputs":[{"name":"","type":"tuple","internalType":"struct MarketsConfig.MarketConfig","components":[{"name":"isMarket","type":"bool","internalType":"bool"},{"name":"reserves","type":"tuple[]","internalType":"struct MarketsConfig.ReserveVault[]","components":[{"name":"asset","type":"address","internalType":"address"},{"name":"baseLTV","type":"uint256","internalType":"uint256"},{"name":"liquidationThreshold","type":"uint256","internalType":"uint256"},{"name":"liquidationBonus","type":"uint256","internalType":"uint256"},{"name":"liquidationFee","type":"uint256","internalType":"uint256"},{"name":"maxDeposits","type":"uint256","internalType":"uint256"},{"name":"pythId","type":"bytes32","internalType":"bytes32"}]},{"name":"interestRate","type":"uint256","internalType":"uint256"}]}],"stateMutability":"nonpayable"},{"type":"function","name":"ethMarket","inputs":[{"name":"interestRate","type":"uint256","internalType":"uint256"}],"outputs":[{"name":"","type":"tuple","internalType":"struct MarketsConfig.MarketConfig","components":[{"name":"isMarket","type":"bool","internalType":"bool"},{"name":"reserves","type":"tuple[]","internalType":"struct MarketsConfig.ReserveVault[]","components":[{"name":"asset","type":"address","internalType":"address"},{"name":"baseLTV","type":"uint256","internalType":"uint256"},{"name":"liquidationThreshold","type":"uint256","internalType":"uint256"},{"name":"liquidationBonus","type":"uint256","internalType":"uint256"},{"name":"liquidationFee","type":"uint256","internalType":"uint256"},{"name":"maxDeposits","type":"uint256","internalType":"uint256"},{"name":"pythId","type":"bytes32","internalType":"bytes32"}]},{"name":"interestRate","type":"uint256","internalType":"uint256"}]}],"stateMutability":"nonpayable"},{"type":"function","name":"slpMarket","inputs":[{"name":"interestRate","type":"uint256","internalType":"uint256"}],"outputs":[{"name":"","type":"tuple","internalType":"struct MarketsConfig.MarketConfig","components":[{"name":"isMarket","type":"bool","internalType":"bool"},{"name":"reserves","type":"tuple[]","internalType":"struct MarketsConfig.ReserveVault[]","components":[{"name":"asset","type":"address","internalType":"address"},{"name":"baseLTV","type":"uint256","internalType":"uint256"},{"name":"liquidationThreshold","type":"uint256","internalType":"uint256"},{"name":"liquidationBonus","type":"uint256","internalType":"uint256"},{"name":"liquidationFee","type":"uint256","internalType":"uint256"},{"name":"maxDeposits","type":"uint256","internalType":"uint256"},{"name":"pythId","type":"bytes32","internalType":"bytes32"}]},{"name":"interestRate","type":"uint256","internalType":"uint256"}]}],"stateMutability":"nonpayable"},{"type":"function","name":"usdMarket","inputs":[{"name":"interestRate","type":"uint256","internalType":"uint256"}],"outputs":[{"name":"","type":"tuple","internalType":"struct MarketsConfig.MarketConfig","components":[{"name":"isMarket","type":"bool","internalType":"bool"},{"name":"reserves","type":"tuple[]","internalType":"struct MarketsConfig.ReserveVault[]","components":[{"name":"asset","type":"address","internalType":"address"},{"name":"baseLTV","type":"uint256","internalType":"uint256"},{"name":"liquidationThreshold","type":"uint256","internalType":"uint256"},{"name":"liquidationBonus","type":"uint256","internalType":"uint256"},{"name":"liquidationFee","type":"uint256","internalType":"uint256"},{"name":"maxDeposits","type":"uint256","internalType":"uint256"},{"name":"pythId","type":"bytes32","internalType":"bytes32"}]},{"name":"interestRate","type":"uint256","internalType":"uint256"}]}],"stateMutability":"nonpayable"}],"bytecode":{"object":"0x6080604052348015600e575f80fd5b506139238061001c5f395ff3fe608060405234801561000f575f80fd5b5060043610610055575f3560e01c806305b8e49c1461005957806387a9a797146100825780638cfdfe7814610095578063ca2b1c96146100a8578063f1ea34be146100bb575b5f80fd5b61006c6100673660046117a5565b6100ce565b60405161007991906117bc565b60405180910390f35b61006c6100903660046117a5565b6104b1565b61006c6100a33660046117a5565b6107d3565b61006c6100b63660046117a5565b610a5b565b61006c6100c93660046117a5565b610bbb565b6100f260405180606001604052805f15158152602001606081526020015f81525090565b60408051600680825260e082019092525f91816020015b610111611749565b8152602001906001900390816101095790505090506040518060e00160405280610139610e37565b6001600160a01b03168152602001611f40815260200161251c81526020016113888152602001611388815260200168056bc75e2d6310000081526020015f805160206138ce8339815191525f1b815250815f8151811061019b5761019b61186c565b60200260200101819052506040518060e001604052806101b9610f60565b6001600160a01b03168152602001611f40815260200161251c8152602001611388815260200161138881526020016801158e460913d0000081526020017f06c217a791f5c4f988b36629af4cb88fad827b2485400a358f3b02886b54de925f1b8152508160018151811061022f5761022f61186c565b60200260200101819052506040518060e0016040528061024d61107e565b6001600160a01b03168152602001611f40815260200161251c8152602001611388815260200161138881526020016801158e460913d0000081526020017f6df640f3b8963d8f8358f791f352b8364513f6ab1cca5ed3f1f7b5448980e7845f1b815250816002815181106102c3576102c361186c565b60200260200101819052506040518060e001604052806102e161119e565b6001600160a01b03168152602001611f40815260200161251c815260200161138881526020016113888152602001678ac7230489e8000081526020017fc9d8b075a5c69303365ae23633d4e085199bf5c520a3b90fed1322a0342ffc335f1b815250816003815181106103565761035661186c565b60200260200101819052506040518060e001604052806103746112ab565b6001600160a01b0316815260200161251c815260200161264881526020016113888152602001611388815260200169d3c21bcecceda100000081526020017feaa020c61cc479712813461ce153894a96a6c00b21ed0cfc2798d1f9a9e9c94a5f1b815250816004815181106103eb576103eb61186c565b60200260200101819052506040518060e001604052806104096113b3565b6001600160a01b0316815260200161251c815260200161264881526020016113888152602001611388815260200169d3c21bcecceda100000081526020017f2b89b9dc8fdf9f34709a5b106b472f0f39bb6ca9ce04b0fd7f2e971688e2e53b5f1b815250816005815181106104805761048061186c565b6020026020010181905250604051806060016040528060011515815260200182815260200184815250915050919050565b6104d560405180606001604052805f15158152602001606081526020015f81525090565b60408051600580825260c082019092525f91816020015b6104f4611749565b8152602001906001900390816104ec5790505090506040518060e0016040528061051c6112ab565b6001600160a01b0316815260200161251c815260200161264881526020016113888152602001611388815260200169d3c21bcecceda100000081526020017feaa020c61cc479712813461ce153894a96a6c00b21ed0cfc2798d1f9a9e9c94a5f1b815250815f815181106105925761059261186c565b60200260200101819052506040518060e001604052806105b06113b3565b6001600160a01b0316815260200161251c815260200161264881526020016113888152602001611388815260200169d3c21bcecceda100000081526020017f2b89b9dc8fdf9f34709a5b106b472f0f39bb6ca9ce04b0fd7f2e971688e2e53b5f1b815250816001815181106106275761062761186c565b60200260200101819052506040518060e001604052806106456114bd565b6001600160a01b0316815260200161251c815260200161264881526020016113888152602001611388815260200169d3c21bcecceda100000081526020017fb0948a5e5313200c632b51bb5ca32f6de0d36e9950a942d19751e833f70dabfd5f1b815250816002815181106106bc576106bc61186c565b60200260200101819052506040518060e001604052806106da6115c9565b6001600160a01b0316815260200161251c815260200161264881526020016113888152602001611388815260200169d3c21bcecceda100000081526020017f76fa85158bf14ede77087fe3ae472f66213f6ea2f5b411cb2de472794990fa5c5f1b815250816003815181106107515761075161186c565b60200260200101819052506040518060e0016040528061076f610e37565b6001600160a01b03168152602001611d4c815260200161213481526020016113888152602001611388815260200169d3c21bcecceda100000081526020015f805160206138ce8339815191525f1b815250816004815181106104805761048061186c565b6107f760405180606001604052805f15158152602001606081526020015f81525090565b60408051600480825260a082019092525f91816020015b610816611749565b81526020019060019003908161080e5790505090506040518060e0016040528061083e610e37565b6001600160a01b0316815260200161251c815260200161264881526020016113888152602001611388815260200168056bc75e2d6310000081526020015f805160206138ce8339815191525f1b815250815f815181106108a0576108a061186c565b60200260200101819052506040518060e001604052806108be610f60565b6001600160a01b0316815260200161251c81526020016126488152602001611388815260200161138881526020016801158e460913d0000081526020017f06c217a791f5c4f988b36629af4cb88fad827b2485400a358f3b02886b54de925f1b815250816001815181106109345761093461186c565b60200260200101819052506040518060e0016040528061095261107e565b6001600160a01b0316815260200161251c81526020016126488152602001611388815260200161138881526020016801158e460913d0000081526020017f6df640f3b8963d8f8358f791f352b8364513f6ab1cca5ed3f1f7b5448980e7845f1b815250816002815181106109c8576109c861186c565b60200260200101819052506040518060e001604052806109e661119e565b6001600160a01b03168152602001612134815260200161251c815260200161138881526020016113888152602001678ac7230489e8000081526020017fc9d8b075a5c69303365ae23633d4e085199bf5c520a3b90fed1322a0342ffc335f1b815250816003815181106104805761048061186c565b610a7f60405180606001604052805f15158152602001606081526020015f81525090565b604080516002808252606082019092525f91816020015b610a9e611749565b815260200190600190039081610a965790505090506040518060e00160405280610ac661119e565b6001600160a01b0316815260200161251c8152602001612648815260200161138881526020016113888152602001678ac7230489e8000081526020017fc9d8b075a5c69303365ae23633d4e085199bf5c520a3b90fed1322a0342ffc335f1b815250815f81518110610b3a57610b3a61186c565b60200260200101819052506040518060e00160405280610b58610e37565b6001600160a01b03168152602001612134815260200161251c81526020016113888152602001611388815260200168056bc75e2d6310000081526020015f805160206138ce8339815191525f1b815250816001815181106104805761048061186c565b610bdf60405180606001604052805f15158152602001606081526020015f81525090565b60408051600480825260a082019092525f91816020015b610bfe611749565b815260200190600190039081610bf65790505090506040518060e00160405280610c266112ab565b6001600160a01b03168152602001611f40815260200161251c815260200161138881526020016113888152602001606481526020017feaa020c61cc479712813461ce153894a96a6c00b21ed0cfc2798d1f9a9e9c94a5f1b815250815f81518110610c9357610c9361186c565b60200260200101819052506040518060e00160405280610cb16113b3565b6001600160a01b03168152602001611f40815260200161251c815260200161138881526020016113888152602001606481526020017f2b89b9dc8fdf9f34709a5b106b472f0f39bb6ca9ce04b0fd7f2e971688e2e53b5f1b81525081600181518110610d1f57610d1f61186c565b60200260200101819052506040518060e00160405280610d3d6114bd565b6001600160a01b03168152602001611f40815260200161251c815260200161138881526020016113888152602001606481526020017fb0948a5e5313200c632b51bb5ca32f6de0d36e9950a942d19751e833f70dabfd5f1b81525081600281518110610dab57610dab61186c565b60200260200101819052506040518060e00160405280610dc96115c9565b6001600160a01b03168152602001611f40815260200161251c815260200161138881526020016113888152602001606481526020017f76fa85158bf14ede77087fe3ae472f66213f6ea2f5b411cb2de472794990fa5c5f1b815250816003815181106104805761048061186c565b5f80546001600160a01b031615610e5757505f546001600160a01b031690565b6040518060400160405280600581526020016422ba3432b960d91b815250604051602001610e859190611897565b6040516020818303038152906040526040518060400160405280600381526020016208aa8960eb1b815250604051602001610ec091906118ba565b604051602081830303815290604052604051610edb9061178b565b610ee69291906118fd565b604051809103905ff080158015610eff573d5f803e3d5ffd5b505f80546001600160a01b0319166001600160a01b0392909216918217905560408051808201909152601381527202ba2aa241c903232b83637bcb2b21030ba1d1606d1b6020820152610f51916116d4565b505f546001600160a01b031690565b6002545f906001600160a01b031615610f8357506002546001600160a01b031690565b6040517f52656e7a6f2052657374616b656420457468657265756d000000000000000000602082015260370160408051601f19818403018152908290526408ab48aa8960db1b60208301529060250160405160208183030381529060405267016345785d8a0000604051610ff690611798565b6110029392919061192a565b604051809103905ff08015801561101b573d5f803e3d5ffd5b50600280546001600160a01b0319166001600160a01b03929092169182179055604080518082019091526013815272022ad22aa24103232b83637bcb2b21030ba1d1606d1b602082015261106e916116d4565b506002546001600160a01b031690565b6001545f906001600160a01b0316156110a157506001546001600160a01b031690565b6040517f57726170706564205374616b656420457468657265756d000000000000000000602082015260370160408051601f1981840301815290829052650aea6a88aa8960d31b60208301529060260160405160208183030381529060405267016345785d8a000060405161111590611798565b6111219392919061192a565b604051809103905ff08015801561113a573d5f803e3d5ffd5b50600180546001600160a01b0319166001600160a01b0392909216918217905560408051808201909152601481527302ba9aa22aa24103232b83637bcb2b21030ba1d160651b602082015261118e916116d4565b506001546001600160a01b031690565b6003545f906001600160a01b0316156111c157506003546001600160a01b031690565b6040516e2bb930b83832b2102134ba31b7b4b760891b6020820152602f0160408051601f1981840301815290829052635742544360e01b602083015290602401604051602081830303815290604052662386f26fc1000060405161122490611798565b6112309392919061192a565b604051809103905ff080158015611249573d5f803e3d5ffd5b50600380546001600160a01b0319166001600160a01b0392909216918217905560408051808201909152601281527102ba12a21903232b83637bcb2b21030ba1d160751b602082015261129b916116d4565b506003546001600160a01b031690565b6004545f906001600160a01b0316156112ce57506004546001600160a01b031690565b604051672aa9a21021b7b4b760c11b602082015260280160408051601f1981840301815290829052635553444360e01b602083015290602401604051602081830303815290604052683635c9adc5dea0000060405161132c90611798565b6113389392919061192a565b604051809103905ff080158015611351573d5f803e3d5ffd5b50600480546001600160a01b0319166001600160a01b0392909216918217905560408051808201909152601281527102aa9a221903232b83637bcb2b21030ba1d160751b60208201526113a3916116d4565b506004546001600160a01b031690565b6005545f906001600160a01b0316156113d657506005546001600160a01b031690565b6040516915195d1a195c881554d160b21b6020820152602a0160408051601f1981840301815290829052631554d11560e21b602083015290602401604051602081830303815290604052683635c9adc5dea0000060405161143690611798565b6114429392919061192a565b604051809103905ff08015801561145b573d5f803e3d5ffd5b50600580546001600160a01b0319166001600160a01b0392909216918217905560408051808201909152601281527102aa9a22a103232b83637bcb2b21030ba1d160751b60208201526114ad916116d4565b506005546001600160a01b031690565b6006545f906001600160a01b0316156114e057506006546001600160a01b031690565b6040516d2230b49029ba30b13632b1b7b4b760911b6020820152602e0160408051601f19818403018152908290526244414960e81b602083015290602301604051602081830303815290604052683635c9adc5dea0000060405161154390611798565b61154f9392919061192a565b604051809103905ff080158015611568573d5f803e3d5ffd5b50600680546001600160a01b0319166001600160a01b0392909216918217905560408051808201909152601181527002220a4903232b83637bcb2b21030ba1d1607d1b60208201526115b9916116d4565b506006546001600160a01b031690565b6007545f906001600160a01b0316156115ec57506007546001600160a01b031690565b6040516a4575726f20436972636c6560a81b6020820152602b0160408051601f1981840301815290829052634555524360e01b602083015290602401604051602081830303815290604052683635c9adc5dea0000060405161164d90611798565b6116599392919061192a565b604051809103905ff080158015611672573d5f803e3d5ffd5b50600780546001600160a01b0319166001600160a01b03929092169182179055604080518082019091526012815271022aaa921903232b83637bcb2b21030ba1d160751b60208201526116c4916116d4565b506007546001600160a01b031690565b61171982826040516024016116ea92919061195f565b60408051601f198184030181529190526020810180516001600160e01b031663319af33360e01b17905261171d565b5050565b61172681611729565b50565b80516a636f6e736f6c652e6c6f67602083015f808483855afa5050505050565b6040518060e001604052805f6001600160a01b031681526020015f81526020015f81526020015f81526020015f81526020015f81526020015f80191681525090565b610a168061198983390190565b61152f8061239f83390190565b5f602082840312156117b5575f80fd5b5035919050565b5f60208083526080808401855115158386015282860151606060406060604089015283835180865260a0955060a08a01915087850194505f5b8181101561185057855180516001600160a01b03168452898101518a850152848101518585015285810151868501528881015189850152878101518885015260c090810151908401529488019460e0909201916001016117f5565b505060408a015160608a01528097505050505050505092915050565b634e487b7160e01b5f52603260045260245ffd5b5f81518060208401855e5f93019283525090919050565b6702bb930b83832b2160c51b81525f6118b36008830184611880565b9392505050565b605760f81b81525f6118b36001830184611880565b5f81518084528060208401602086015e5f602082860101526020601f19601f83011685010191505092915050565b604081525f61190f60408301856118cf565b828103602084015261192181856118cf565b95945050505050565b606081525f61193c60608301866118cf565b828103602084015261194e81866118cf565b915050826040830152949350505050565b604081525f61197160408301856118cf565b905060018060a01b0383166020830152939250505056fe60806040526002805460ff1916601217905534801561001c575f80fd5b50604051610a16380380610a1683398101604081905261003b916100f7565b5f61004683826101da565b50600161005382826101da565b505050610299565b634e487b7160e01b5f52604160045260245ffd5b5f82601f83011261007e575f80fd5b81516001600160401b03808211156100985761009861005b565b604051601f8301601f19908116603f011681019082821181831017156100c0576100c061005b565b816040528381528660208588010111156100d8575f80fd5b8360208701602083015e5f602085830101528094505050505092915050565b5f8060408385031215610108575f80fd5b82516001600160401b038082111561011e575f80fd5b61012a8683870161006f565b9350602085015191508082111561013f575f80fd5b5061014c8582860161006f565b9150509250929050565b600181811c9082168061016a57607f821691505b60208210810361018857634e487b7160e01b5f52602260045260245ffd5b50919050565b601f8211156101d557805f5260205f20601f840160051c810160208510156101b35750805b601f840160051c820191505b818110156101d2575f81556001016101bf565b50505b505050565b81516001600160401b038111156101f3576101f361005b565b610207816102018454610156565b8461018e565b602080601f83116001811461023a575f84156102235750858301515b5f19600386901b1c1916600185901b178555610291565b5f85815260208120601f198616915b8281101561026857888601518255948401946001909101908401610249565b508582101561028557878501515f19600388901b60f8161c191681555b505060018460011b0185555b505050505050565b610770806102a65f395ff3fe60806040526004361061009d575f3560e01c8063313ce56711610062578063313ce5671461016357806370a082311461018e57806395d89b41146101b9578063a9059cbb146101cd578063d0e30db0146101ec578063dd62ed3e146101f4575f80fd5b806306fdde03146100b0578063095ea7b3146100da57806318160ddd1461010957806323b872dd146101255780632e1a7d4d14610144575f80fd5b366100ac576100aa61022a565b005b5f80fd5b3480156100bb575f80fd5b506100c4610284565b6040516100d191906105b6565b60405180910390f35b3480156100e5575f80fd5b506100f96100f4366004610606565b61030f565b60405190151581526020016100d1565b348015610114575f80fd5b50475b6040519081526020016100d1565b348015610130575f80fd5b506100f961013f36600461062e565b61037b565b34801561014f575f80fd5b506100aa61015e366004610667565b6104f6565b34801561016e575f80fd5b5060025461017c9060ff1681565b60405160ff90911681526020016100d1565b348015610199575f80fd5b506101176101a836600461067e565b60036020525f908152604090205481565b3480156101c4575f80fd5b506100c4610596565b3480156101d8575f80fd5b506100f96101e7366004610606565b6105a3565b6100aa61022a565b3480156101ff575f80fd5b5061011761020e366004610697565b600460209081525f928352604080842090915290825290205481565b335f90815260036020526040812080543492906102489084906106dc565b909155505060405134815233907fe1fffcc4923d04b559f4d29a8bfc6cda04eb5b0d3c460751c2402c5c5cc9109c9060200160405180910390a2565b5f8054610290906106ef565b80601f01602080910402602001604051908101604052809291908181526020018280546102bc906106ef565b80156103075780601f106102de57610100808354040283529160200191610307565b820191905f5260205f20905b8154815290600101906020018083116102ea57829003601f168201915b505050505081565b335f8181526004602090815260408083206001600160a01b038716808552925280832085905551919290917f8c5be1e5ebec7d5bd14f71427d1e84f3dd0314c0f7b2291e5b200ac8c7c3b925906103699086815260200190565b60405180910390a35060015b92915050565b6001600160a01b0383165f9081526003602052604081205482111561039e575f80fd5b6001600160a01b03841633148015906103da57506001600160a01b0384165f9081526004602090815260408083203384529091529020545f1914155b15610445576001600160a01b0384165f90815260046020908152604080832033845290915290205482111561040d575f80fd5b6001600160a01b0384165f9081526004602090815260408083203384529091528120805484929061043f908490610727565b90915550505b6001600160a01b0384165f908152600360205260408120805484929061046c908490610727565b90915550506001600160a01b0383165f90815260036020526040812080548492906104989084906106dc565b92505081905550826001600160a01b0316846001600160a01b03167fddf252ad1be2c89b69c2b068fc378daa952ba7f163c4a11628f55a4df523b3ef846040516104e491815260200190565b60405180910390a35060019392505050565b335f90815260036020526040902054811115610510575f80fd5b335f908152600360205260408120805483929061052e908490610727565b9091555050604051339082156108fc029083905f818181858888f1935050505015801561055d573d5f803e3d5ffd5b5060405181815233907f7fcf532c15f0a6db0bd6d0e038bea71d30d808c7d98cb3bf7268a95bf5081b659060200160405180910390a250565b60018054610290906106ef565b5f6105af33848461037b565b9392505050565b602081525f82518060208401528060208501604085015e5f604082850101526040601f19601f83011684010191505092915050565b80356001600160a01b0381168114610601575f80fd5b919050565b5f8060408385031215610617575f80fd5b610620836105eb565b946020939093013593505050565b5f805f60608486031215610640575f80fd5b610649846105eb565b9250610657602085016105eb565b9150604084013590509250925092565b5f60208284031215610677575f80fd5b5035919050565b5f6020828403121561068e575f80fd5b6105af826105eb565b5f80604083850312156106a8575f80fd5b6106b1836105eb565b91506106bf602084016105eb565b90509250929050565b634e487b7160e01b5f52601160045260245ffd5b80820180821115610375576103756106c8565b600181811c9082168061070357607f821691505b60208210810361072157634e487b7160e01b5f52602260045260245ffd5b50919050565b81810381811115610375576103756106c856fea2646970667358221220a0df6184362b7f5f9d2439e2630eb8ec5b5bfc846e48f6ea7da14e82684fc6bc64736f6c63430008190033610160604052348015610010575f80fd5b5060405161152f38038061152f83398101604081905261002f9161023f565b6040805180820190915260018152603160f81b60208201528390819081856003610059838261032a565b506004610066828261032a565b506100769150839050600561012b565b6101205261008581600661012b565b61014052815160208084019190912060e052815190820120610100524660a05261011160e05161010051604080517f8b73c3c69bb8fe3d512ecc4cf759cc79239f7b179b0ffacaa9a75d522b39400f60208201529081019290925260608201524660808201523060a08201525f9060c00160405160208183030381529060405280519060200120905090565b60805250503060c052506001600855600955506104419050565b5f6020835110156101465761013f8361015d565b9050610157565b81610151848261032a565b5060ff90505b92915050565b5f80829050601f81511115610190578260405163305a27a960e01b815260040161018791906103e9565b60405180910390fd5b805161019b8261041e565b179392505050565b634e487b7160e01b5f52604160045260245ffd5b5f82601f8301126101c6575f80fd5b81516001600160401b03808211156101e0576101e06101a3565b604051601f8301601f19908116603f01168101908282118183101715610208576102086101a3565b81604052838152866020858801011115610220575f80fd5b8360208701602083015e5f602085830101528094505050505092915050565b5f805f60608486031215610251575f80fd5b83516001600160401b0380821115610267575f80fd5b610273878388016101b7565b94506020860151915080821115610288575f80fd5b50610295868287016101b7565b925050604084015190509250925092565b600181811c908216806102ba57607f821691505b6020821081036102d857634e487b7160e01b5f52602260045260245ffd5b50919050565b601f82111561032557805f5260205f20601f840160051c810160208510156103035750805b601f840160051c820191505b81811015610322575f815560010161030f565b50505b505050565b81516001600160401b03811115610343576103436101a3565b6103578161035184546102a6565b846102de565b602080601f83116001811461038a575f84156103735750858301515b5f19600386901b1c1916600185901b1785556103e1565b5f85815260208120601f198616915b828110156103b857888601518255948401946001909101908401610399565b50858210156103d557878501515f19600388901b60f8161c191681555b505060018460011b0185555b505050505050565b602081525f82518060208401528060208501604085015e5f604082850101526040601f19601f83011684010191505092915050565b805160208083015191908110156102d8575f1960209190910360031b1b16919050565b60805160a05160c05160e05161010051610120516101405161109d6104925f395f6108cd01525f6108a001525f61084901525f61082101525f61077c01525f6107a601525f6107d0015261109d5ff3fe608060405234801561000f575f80fd5b5060043610610106575f3560e01c80635a2bcc181161009e57806384b0196e1161006e57806384b0196e146101fe57806395d89b4114610219578063a9059cbb14610221578063d505accf14610234578063dd62ed3e14610247575f80fd5b80635a2bcc18146101b057806370a08231146101b95780637ecebe00146101e157806383ea6e97146101f4575f80fd5b806323b872dd116100d957806323b872dd146101675780632e686d691461017a578063313ce567146101995780633644e515146101a8575f80fd5b806306fdde031461010a578063095ea7b3146101285780631249c58b1461014b57806318160ddd14610155575b5f80fd5b61011261027f565b60405161011f9190610dfe565b60405180910390f35b61013b610136366004610e32565b61030f565b604051901515815260200161011f565b610153610328565b005b6002545b60405190815260200161011f565b61013b610175366004610e5a565b610442565b610159610188366004610e93565b600a6020525f908152604090205481565b6040516012815260200161011f565b610159610465565b61015960095481565b6101596101c7366004610e93565b6001600160a01b03165f9081526020819052604090205490565b6101596101ef366004610e93565b610473565b6101596201518081565b610206610490565b60405161011f9796959493929190610eac565b6101126104d2565b61013b61022f366004610e32565b6104e1565b610153610242366004610f43565b6104ee565b610159610255366004610fb0565b6001600160a01b039182165f90815260016020908152604080832093909416825291909152205490565b60606003805461028e90610fe1565b80601f01602080910402602001604051908101604052809291908181526020018280546102ba90610fe1565b80156103055780601f106102dc57610100808354040283529160200191610305565b820191905f5260205f20905b8154815290600101906020018083116102e857829003601f168201915b5050505050905090565b5f3361031c818585610624565b60019150505b92915050565b610330610636565b335f908152600a6020526040902054620151809061034e904261102d565b10156103b35760405162461bcd60e51b815260206004820152602960248201527f4d6f636b546f6b656e3a2043616e206f6e6c79206d696e74206f6e636520657660448201526865727920323468727360b81b60648201526084015b60405180910390fd5b600b5443036104145760405162461bcd60e51b815260206004820152602760248201527f4d6f636b546f6b656e3a2043616e206f6e6c79206d696e74206f6e63652070656044820152667220626c6f636b60c81b60648201526084016103aa565b335f818152600a6020526040902042905543600b556009546104369190610660565b6104406001600855565b565b5f3361044f858285610698565b61045a858585610713565b506001949350505050565b5f61046e610770565b905090565b6001600160a01b0381165f90815260076020526040812054610322565b5f6060805f805f60606104a1610899565b6104a96108c6565b604080515f80825260208201909252600f60f81b9b939a50919850469750309650945092509050565b60606004805461028e90610fe1565b5f3361031c818585610713565b834211156105125760405163313c898160e11b8152600481018590526024016103aa565b5f7f6e71edae12b1b97f4d1f60370fef10105fa2faae0126114a169c64845d6126c988888861055d8c6001600160a01b03165f90815260076020526040902080546001810190915590565b6040805160208101969096526001600160a01b0394851690860152929091166060840152608083015260a082015260c0810186905260e0016040516020818303038152906040528051906020012090505f6105b7826108f3565b90505f6105c68287878761091f565b9050896001600160a01b0316816001600160a01b03161461060d576040516325c0072360e11b81526001600160a01b0380831660048301528b1660248201526044016103aa565b6106188a8a8a610624565b50505050505050505050565b610631838383600161094b565b505050565b60026008540361065957604051633ee5aeb560e01b815260040160405180910390fd5b6002600855565b6001600160a01b0382166106895760405163ec442f0560e01b81525f60048201526024016103aa565b6106945f8383610a1d565b5050565b6001600160a01b038381165f908152600160209081526040808320938616835292905220545f19811461070d57818110156106ff57604051637dc7a0d960e11b81526001600160a01b038416600482015260248101829052604481018390526064016103aa565b61070d84848484035f61094b565b50505050565b6001600160a01b03831661073c57604051634b637e8f60e11b81525f60048201526024016103aa565b6001600160a01b0382166107655760405163ec442f0560e01b81525f60048201526024016103aa565b610631838383610a1d565b5f306001600160a01b037f0000000000000000000000000000000000000000000000000000000000000000161480156107c857507f000000000000000000000000000000000000000000000000000000000000000046145b156107f257507f000000000000000000000000000000000000000000000000000000000000000090565b61046e604080517f8b73c3c69bb8fe3d512ecc4cf759cc79239f7b179b0ffacaa9a75d522b39400f60208201527f0000000000000000000000000000000000000000000000000000000000000000918101919091527f000000000000000000000000000000000000000000000000000000000000000060608201524660808201523060a08201525f9060c00160405160208183030381529060405280519060200120905090565b606061046e7f00000000000000000000000000000000000000000000000000000000000000006005610b43565b606061046e7f00000000000000000000000000000000000000000000000000000000000000006006610b43565b5f6103226108ff610770565b8360405161190160f01b8152600281019290925260228201526042902090565b5f805f8061092f88888888610bec565b92509250925061093f8282610cb4565b50909695505050505050565b6001600160a01b0384166109745760405163e602df0560e01b81525f60048201526024016103aa565b6001600160a01b03831661099d57604051634a1406b160e11b81525f60048201526024016103aa565b6001600160a01b038085165f908152600160209081526040808320938716835292905220829055801561070d57826001600160a01b0316846001600160a01b03167f8c5be1e5ebec7d5bd14f71427d1e84f3dd0314c0f7b2291e5b200ac8c7c3b92584604051610a0f91815260200190565b60405180910390a350505050565b6001600160a01b038316610a47578060025f828254610a3c9190611040565b90915550610ab79050565b6001600160a01b0383165f9081526020819052604090205481811015610a995760405163391434e360e21b81526001600160a01b038516600482015260248101829052604481018390526064016103aa565b6001600160a01b0384165f9081526020819052604090209082900390555b6001600160a01b038216610ad357600280548290039055610af1565b6001600160a01b0382165f9081526020819052604090208054820190555b816001600160a01b0316836001600160a01b03167fddf252ad1be2c89b69c2b068fc378daa952ba7f163c4a11628f55a4df523b3ef83604051610b3691815260200190565b60405180910390a3505050565b606060ff8314610b5d57610b5683610d6c565b9050610322565b818054610b6990610fe1565b80601f0160208091040260200160405190810160405280929190818152602001828054610b9590610fe1565b8015610be05780601f10610bb757610100808354040283529160200191610be0565b820191905f5260205f20905b815481529060010190602001808311610bc357829003601f168201915b50505050509050610322565b5f80807f7fffffffffffffffffffffffffffffff5d576e7357a4501ddfe92f46681b20a0841115610c2557505f91506003905082610caa565b604080515f808252602082018084528a905260ff891692820192909252606081018790526080810186905260019060a0016020604051602081039080840390855afa158015610c76573d5f803e3d5ffd5b5050604051601f1901519150506001600160a01b038116610ca157505f925060019150829050610caa565b92505f91508190505b9450945094915050565b5f826003811115610cc757610cc7611053565b03610cd0575050565b6001826003811115610ce457610ce4611053565b03610d025760405163f645eedf60e01b815260040160405180910390fd5b6002826003811115610d1657610d16611053565b03610d375760405163fce698f760e01b8152600481018290526024016103aa565b6003826003811115610d4b57610d4b611053565b03610694576040516335e2f38360e21b8152600481018290526024016103aa565b60605f610d7883610da9565b6040805160208082528183019092529192505f91906020820181803683375050509182525060208101929092525090565b5f60ff8216601f81111561032257604051632cd44ac360e21b815260040160405180910390fd5b5f81518084528060208401602086015e5f602082860101526020601f19601f83011685010191505092915050565b602081525f610e106020830184610dd0565b9392505050565b80356001600160a01b0381168114610e2d575f80fd5b919050565b5f8060408385031215610e43575f80fd5b610e4c83610e17565b946020939093013593505050565b5f805f60608486031215610e6c575f80fd5b610e7584610e17565b9250610e8360208501610e17565b9150604084013590509250925092565b5f60208284031215610ea3575f80fd5b610e1082610e17565b60ff60f81b881681525f602060e06020840152610ecc60e084018a610dd0565b8381036040850152610ede818a610dd0565b606085018990526001600160a01b038816608086015260a0850187905284810360c0860152855180825260208088019350909101905f5b81811015610f3157835183529284019291840191600101610f15565b50909c9b505050505050505050505050565b5f805f805f805f60e0888a031215610f59575f80fd5b610f6288610e17565b9650610f7060208901610e17565b95506040880135945060608801359350608088013560ff81168114610f93575f80fd5b9699959850939692959460a0840135945060c09093013592915050565b5f8060408385031215610fc1575f80fd5b610fca83610e17565b9150610fd860208401610e17565b90509250929050565b600181811c90821680610ff557607f821691505b60208210810361101357634e487b7160e01b5f52602260045260245ffd5b50919050565b634e487b7160e01b5f52601160045260245ffd5b8181038181111561032257610322611019565b8082018082111561032257610322611019565b634e487b7160e01b5f52602160045260245ffdfea2646970667358221220773a44d22e24b22f83af2d839dd71a48c63bfbf84aebc9ac54528852e4dbef6e64736f6c634300081900339d4294bbcd1174d6f2003ec365831e64cc31d9f6f15a2b85399db8d5000960f6a2646970667358221220862c7b75a2aee8c8050a81815ec2739bd52b960cf0ab20406b05a127bf846b9264736f6c63430008190033","linkReferences":{}},"methodIdentifiers":{"btcMarket(uint256)":"ca2b1c96","clpMarket(uint256)":"05b8e49c","ethMarket(uint256)":"8cfdfe78","slpMarket(uint256)":"f1ea34be","usdMarket(uint256)":"87a9a797"},"id":74}