{"abi":[{"type":"constructor","inputs":[{"name":"_poolAddress","type":"address","internalType":"address"},{"name":"_authority","type":"address","internalType":"address"}],"stateMutability":"nonpayable"},{"type":"function","name":"_pool","inputs":[],"outputs":[{"name":"","type":"address","internalType":"contract RxPool"}],"stateMutability":"view"},{"type":"function","name":"addMarket","inputs":[{"name":"market","type":"address","internalType":"address"}],"outputs":[],"stateMutability":"nonpayable"},{"type":"function","name":"authority","inputs":[],"outputs":[{"name":"","type":"address","internalType":"address"}],"stateMutability":"view"},{"type":"function","name":"getMarketOfSynth","inputs":[{"name":"synth","type":"address","internalType":"address"}],"outputs":[{"name":"","type":"address","internalType":"address"}],"stateMutability":"view"},{"type":"function","name":"isConsumingScheduledOp","inputs":[],"outputs":[{"name":"","type":"bytes4","internalType":"bytes4"}],"stateMutability":"view"},{"type":"function","name":"mint","inputs":[{"name":"synth","type":"address","internalType":"address"},{"name":"amount","type":"uint256","internalType":"uint256"},{"name":"account","type":"address","internalType":"address"}],"outputs":[],"stateMutability":"nonpayable"},{"type":"function","name":"pluginType","inputs":[],"outputs":[{"name":"","type":"uint8","internalType":"enum Plugin.PluginType"}],"stateMutability":"view"},{"type":"function","name":"removeMarket","inputs":[{"name":"market","type":"address","internalType":"address"}],"outputs":[],"stateMutability":"nonpayable"},{"type":"function","name":"setAuthority","inputs":[{"name":"newAuthority","type":"address","internalType":"address"}],"outputs":[],"stateMutability":"nonpayable"},{"type":"event","name":"AuthorityUpdated","inputs":[{"name":"authority","type":"address","indexed":false,"internalType":"address"}],"anonymous":false},{"type":"error","name":"AccessManagedInvalidAuthority","inputs":[{"name":"authority","type":"address","internalType":"address"}]},{"type":"error","name":"AccessManagedRequiredDelay","inputs":[{"name":"caller","type":"address","internalType":"address"},{"name":"delay","type":"uint32","internalType":"uint32"}]},{"type":"error","name":"AccessManagedUnauthorized","inputs":[{"name":"caller","type":"address","internalType":"address"}]}],"bytecode":{"object":"0x608060405234801561001057600080fd5b50604051610d7c380380610d7c83398101604081905261002f916100fb565b8160008261003c8161008b565b50600180546001600160a01b0319166001600160a01b0384161790556001805482919060ff60a01b1916600160a01b83600281111561007d5761007d61012e565b021790555050505050610144565b600080546001600160a01b0319166001600160a01b0383169081179091556040519081527f2f658b440c35314f52658ea8a740e05b284cdc84dc9ae01e891f21b8933e7cad9060200160405180910390a150565b80516001600160a01b03811681146100f657600080fd5b919050565b6000806040838503121561010e57600080fd5b610117836100df565b9150610125602084016100df565b90509250929050565b634e487b7160e01b600052602160045260246000fd5b610c29806101536000396000f3fe608060405234801561001057600080fd5b50600436106100935760003560e01c80637a9e5e4b116100665780637a9e5e4b1461012e5780638fb360371461014157806393e3063314610162578063bf7e214f14610175578063db9132361461018657600080fd5b80630d4d15131461009857806341de6830146100ad57806360e07923146100d7578063636fc28b1461011b575b600080fd5b6100ab6100a63660046109bc565b610199565b005b6001546100c190600160a01b900460ff1681565b6040516100ce91906109fe565b60405180910390f35b6101036100e5366004610a26565b6001600160a01b039081166000908152600360205260409020541690565b6040516001600160a01b0390911681526020016100ce565b600154610103906001600160a01b031681565b6100ab61013c366004610a26565b610271565b6101496102eb565b6040516001600160e01b031990911681526020016100ce565b6100ab610170366004610a26565b61030f565b6000546001600160a01b0316610103565b6100ab610194366004610a26565b610328565b6001600160a01b038381166000908152600360205260409020541633146101fe5760405162461bcd60e51b815260206004820152601460248201527313db9b1e481b585c9ad95d0818d85b881b5a5b9d60621b60448201526064015b60405180910390fd5b600154604051630d4d151360e01b81526001600160a01b03858116600483015260248201859052838116604483015290911690630d4d151390606401600060405180830381600087803b15801561025457600080fd5b505af1158015610268573d6000803e3d6000fd5b50505050505050565b60005433906001600160a01b031681146102a85760405162d1953b60e31b81526001600160a01b03821660048201526024016101f5565b816001600160a01b03163b6000036102de576040516361798f2f60e11b81526001600160a01b03831660048201526024016101f5565b6102e78261033a565b5050565b60008054600160a01b900460ff166103035750600090565b50638fb3603760e01b90565b61031c335b60003661038e565b6103258161048e565b50565b61033133610314565b61032581610677565b600080546001600160a01b0319166001600160a01b0383169081179091556040519081527f2f658b440c35314f52658ea8a740e05b284cdc84dc9ae01e891f21b8933e7cad9060200160405180910390a150565b6000806103c46103a66000546001600160a01b031690565b86306103b660046000898b610a4a565b6103bf91610a74565b61089b565b91509150816104875763ffffffff811615610464576000805460ff60a01b198116600160a01b17909155604051634a63ebf760e11b81526001600160a01b03909116906394c7d7ee9061041f90889088908890600401610aa4565b600060405180830381600087803b15801561043957600080fd5b505af115801561044d573d6000803e3d6000fd5b50506000805460ff60a01b19169055506104879050565b60405162d1953b60e31b81526001600160a01b03861660048201526024016101f5565b5050505050565b6001600160a01b0381166104d55760405162461bcd60e51b815260206004820152600e60248201526d125b9d985b1a59081b585c9ad95d60921b60448201526064016101f5565b6000816001600160a01b031663115f4fee6040518163ffffffff1660e01b8152600401602060405180830381865afa158015610515573d6000803e3d6000fd5b505050506040513d601f19601f820116820180604052508101906105399190610ae4565b90506001600160a01b0381166105815760405162461bcd60e51b815260206004820152600d60248201526c092dcecc2d8d2c840e6f2dce8d609b1b60448201526064016101f5565b60005b60025481101561060d57826001600160a01b0316600282815481106105ab576105ab610b01565b6000918252602090912001546001600160a01b0316036106055760405162461bcd60e51b81526020600482015260156024820152744d61726b657420616c72656164792065786973747360581b60448201526064016101f5565b600101610584565b5060028054600181019091557f405787fa12a823e0f2b7631cc41b3ba8828b3321ca811111fa75cd3aa3bb5ace0180546001600160a01b039384166001600160a01b0319918216811790925591909216600090815260036020526040902080549091169091179055565b6000805b6002548110156106cd57826001600160a01b0316600282815481106106a2576106a2610b01565b6000918252602090912001546001600160a01b0316036106c557600191506106cd565b60010161067b565b508061070e5760405162461bcd60e51b815260206004820152601060248201526f13585c9ad95d081b9bdd08199bdd5b9960821b60448201526064016101f5565b60005b60025481101561080c57826001600160a01b03166002828154811061073857610738610b01565b6000918252602090912001546001600160a01b031603610804576002805461076290600190610b17565b8154811061077257610772610b01565b600091825260209091200154600280546001600160a01b03909216918390811061079e5761079e610b01565b9060005260206000200160006101000a8154816001600160a01b0302191690836001600160a01b0316021790555060028054806107dd576107dd610b3e565b600082815260209020810160001990810180546001600160a01b031916905501905561080c565b600101610711565b506000826001600160a01b031663115f4fee6040518163ffffffff1660e01b8152600401602060405180830381865afa15801561084d573d6000803e3d6000fd5b505050506040513d601f19601f820116820180604052508101906108719190610ae4565b6001600160a01b0316600090815260036020526040902080546001600160a01b0319169055505050565b6040516001600160a01b03848116602483015283811660448301526001600160e01b03198316606483015260009182918291829189169060840160408051601f198184030181529181526020820180516001600160e01b031663b700961360e01b1790525161090a9190610b54565b600060405180830381855afa9150503d8060008114610945576040519150601f19603f3d011682016040523d82523d6000602084013e61094a565b606091505b5091509150811561099c57604081511061097c57808060200190518101906109729190610b98565b909450925061099c565b602081511061099c57808060200190518101906109999190610bd8565b93505b505094509492505050565b6001600160a01b038116811461032557600080fd5b6000806000606084860312156109d157600080fd5b83356109dc816109a7565b92506020840135915060408401356109f3816109a7565b809150509250925092565b6020810160038310610a2057634e487b7160e01b600052602160045260246000fd5b91905290565b600060208284031215610a3857600080fd5b8135610a43816109a7565b9392505050565b60008085851115610a5a57600080fd5b83861115610a6757600080fd5b5050820193919092039150565b6001600160e01b03198135818116916004851015610a9c5780818660040360031b1b83161692505b505092915050565b6001600160a01b03841681526040602082018190528101829052818360608301376000818301606090810191909152601f909201601f1916010192915050565b600060208284031215610af657600080fd5b8151610a43816109a7565b634e487b7160e01b600052603260045260246000fd5b81810381811115610b3857634e487b7160e01b600052601160045260246000fd5b92915050565b634e487b7160e01b600052603160045260246000fd5b6000825160005b81811015610b755760208186018101518583015201610b5b565b506000920191825250919050565b80518015158114610b9357600080fd5b919050565b60008060408385031215610bab57600080fd5b610bb483610b83565b9150602083015163ffffffff81168114610bcd57600080fd5b809150509250929050565b600060208284031215610bea57600080fd5b610a4382610b8356fea264697066735822122059844298850e4445379bbba7449811d34df3823f9191060e73367e1fce47dea364736f6c63430008190033","linkReferences":{}},"methodIdentifiers":{"_pool()":"636fc28b","addMarket(address)":"93e30633","authority()":"bf7e214f","getMarketOfSynth(address)":"60e07923","isConsumingScheduledOp()":"8fb36037","mint(address,uint256,address)":"0d4d1513","pluginType()":"41de6830","removeMarket(address)":"db913236","setAuthority(address)":"7a9e5e4b"},"id":70}