{"abi":[{"type":"constructor","inputs":[{"name":"_poolAddress","type":"address","internalType":"address"},{"name":"_authority","type":"address","internalType":"address"}],"stateMutability":"nonpayable"},{"type":"function","name":"_pool","inputs":[],"outputs":[{"name":"","type":"address","internalType":"contract RxPool"}],"stateMutability":"view"},{"type":"function","name":"addMarket","inputs":[{"name":"market","type":"address","internalType":"address"}],"outputs":[],"stateMutability":"nonpayable"},{"type":"function","name":"authority","inputs":[],"outputs":[{"name":"","type":"address","internalType":"address"}],"stateMutability":"view"},{"type":"function","name":"getMarketOfSynth","inputs":[{"name":"synth","type":"address","internalType":"address"}],"outputs":[{"name":"","type":"address","internalType":"address"}],"stateMutability":"view"},{"type":"function","name":"isConsumingScheduledOp","inputs":[],"outputs":[{"name":"","type":"bytes4","internalType":"bytes4"}],"stateMutability":"view"},{"type":"function","name":"mint","inputs":[{"name":"synth","type":"address","internalType":"address"},{"name":"amount","type":"uint256","internalType":"uint256"},{"name":"account","type":"address","internalType":"address"}],"outputs":[],"stateMutability":"nonpayable"},{"type":"function","name":"pluginType","inputs":[],"outputs":[{"name":"","type":"uint8","internalType":"enum AbstractPlugin.PluginType"}],"stateMutability":"view"},{"type":"function","name":"removeMarket","inputs":[{"name":"market","type":"address","internalType":"address"}],"outputs":[],"stateMutability":"nonpayable"},{"type":"function","name":"setAuthority","inputs":[{"name":"newAuthority","type":"address","internalType":"address"}],"outputs":[],"stateMutability":"nonpayable"},{"type":"event","name":"AuthorityUpdated","inputs":[{"name":"authority","type":"address","indexed":false,"internalType":"address"}],"anonymous":false},{"type":"error","name":"AccessManagedInvalidAuthority","inputs":[{"name":"authority","type":"address","internalType":"address"}]},{"type":"error","name":"AccessManagedRequiredDelay","inputs":[{"name":"caller","type":"address","internalType":"address"},{"name":"delay","type":"uint32","internalType":"uint32"}]},{"type":"error","name":"AccessManagedUnauthorized","inputs":[{"name":"caller","type":"address","internalType":"address"}]}],"bytecode":{"object":"0x608060405234801561000f575f80fd5b50604051610d03380380610d0383398101604081905261002e916100f8565b815f8261003a81610089565b50603580546001600160a01b0319166001600160a01b0384161790556035805482919060ff60a01b1916600160a01b83600281111561007b5761007b610129565b02179055505050505061013d565b603480546001600160a01b0319166001600160a01b0383169081179091556040519081527f2f658b440c35314f52658ea8a740e05b284cdc84dc9ae01e891f21b8933e7cad9060200160405180910390a150565b80516001600160a01b03811681146100f3575f80fd5b919050565b5f8060408385031215610109575f80fd5b610112836100dd565b9150610120602084016100dd565b90509250929050565b634e487b7160e01b5f52602160045260245ffd5b610bb98061014a5f395ff3fe608060405234801561000f575f80fd5b5060043610610090575f3560e01c80637a9e5e4b116100635780637a9e5e4b146101295780638fb360371461013c57806393e306331461015d578063bf7e214f14610170578063db91323614610181575f80fd5b80630d4d15131461009457806341de6830146100a957806360e07923146100d3578063636fc28b14610116575b5f80fd5b6100a76100a236600461097e565b610194565b005b6035546100bd90600160a01b900460ff1681565b6040516100ca91906109bd565b60405180910390f35b6100fe6100e13660046109e3565b6001600160a01b039081165f908152600160205260409020541690565b6040516001600160a01b0390911681526020016100ca565b6035546100fe906001600160a01b031681565b6100a76101373660046109e3565b610266565b6101446102df565b6040516001600160e01b031990911681526020016100ca565b6100a761016b3660046109e3565b610303565b6034546001600160a01b03166100fe565b6100a761018f3660046109e3565b61031b565b6001600160a01b038381165f908152600160205260409020541633146101f85760405162461bcd60e51b815260206004820152601460248201527313db9b1e481b585c9ad95d0818d85b881b5a5b9d60621b60448201526064015b60405180910390fd5b603554604051630d4d151360e01b81526001600160a01b03858116600483015260248201859052838116604483015290911690630d4d1513906064015f604051808303815f87803b15801561024b575f80fd5b505af115801561025d573d5f803e3d5ffd5b50505050505050565b60345433906001600160a01b0316811461029d5760405162d1953b60e31b81526001600160a01b03821660048201526024016101ef565b816001600160a01b03163b5f036102d2576040516361798f2f60e11b81526001600160a01b03831660048201526024016101ef565b6102db8261032d565b5050565b6034545f90600160a01b900460ff166102f757505f90565b50638fb3603760e01b90565b61030f335b5f36610381565b6103188161047a565b50565b61032433610308565b61031881610658565b603480546001600160a01b0319166001600160a01b0383169081179091556040519081527f2f658b440c35314f52658ea8a740e05b284cdc84dc9ae01e891f21b8933e7cad9060200160405180910390a150565b5f806103b56103986034546001600160a01b031690565b86306103a760045f898b610a05565b6103b091610a2c565b610862565b91509150816104735763ffffffff811615610450576034805460ff60a01b198116600160a01b17909155604051634a63ebf760e11b81526001600160a01b03909116906394c7d7ee9061041090889088908890600401610a5c565b5f604051808303815f87803b158015610427575f80fd5b505af1158015610439573d5f803e3d5ffd5b50506034805460ff60a01b19169055506104739050565b60405162d1953b60e31b81526001600160a01b03861660048201526024016101ef565b5050505050565b6001600160a01b0381166104c15760405162461bcd60e51b815260206004820152600e60248201526d125b9d985b1a59081b585c9ad95d60921b60448201526064016101ef565b5f816001600160a01b031663115f4fee6040518163ffffffff1660e01b8152600401602060405180830381865afa1580156104fe573d5f803e3d5ffd5b505050506040513d601f19601f820116820180604052508101906105229190610a9b565b90506001600160a01b03811661056a5760405162461bcd60e51b815260206004820152600d60248201526c092dcecc2d8d2c840e6f2dce8d609b1b60448201526064016101ef565b5f5b5f548110156105f257826001600160a01b03165f828154811061059157610591610ab6565b5f918252602090912001546001600160a01b0316036105ea5760405162461bcd60e51b81526020600482015260156024820152744d61726b657420616c72656164792065786973747360581b60448201526064016101ef565b60010161056c565b505f8054600181810183557f290decd9548b62a8d60345a988386fc84ba6bc95484008f6362f93160ef3e56390910180546001600160a01b039586166001600160a01b031991821681179092559390941682526020526040902080549091169091179055565b5f805b5f548110156106aa57826001600160a01b03165f828154811061068057610680610ab6565b5f918252602090912001546001600160a01b0316036106a257600191506106aa565b60010161065b565b50806106eb5760405162461bcd60e51b815260206004820152601060248201526f13585c9ad95d081b9bdd08199bdd5b9960821b60448201526064016101ef565b5f5b5f548110156107d757826001600160a01b03165f828154811061071257610712610ab6565b5f918252602090912001546001600160a01b0316036107cf575f805461073a90600190610aca565b8154811061074a5761074a610ab6565b5f91825260208220015481546001600160a01b0390911691908390811061077357610773610ab6565b5f918252602082200180546001600160a01b0319166001600160a01b0393909316929092179091558054806107aa576107aa610aef565b5f8281526020902081015f1990810180546001600160a01b03191690550190556107d7565b6001016106ed565b505f826001600160a01b031663115f4fee6040518163ffffffff1660e01b8152600401602060405180830381865afa158015610815573d5f803e3d5ffd5b505050506040513d601f19601f820116820180604052508101906108399190610a9b565b6001600160a01b03165f90815260016020526040902080546001600160a01b0319169055505050565b6040516001600160a01b03848116602483015283811660448301526001600160e01b0319831660648301525f9182918291829189169060840160408051601f198184030181529181526020820180516001600160e01b031663b700961360e01b179052516108d09190610b03565b5f60405180830381855afa9150503d805f8114610908576040519150601f19603f3d011682016040523d82523d5f602084013e61090d565b606091505b5091509150811561095f57604081511061093f57808060200190518101906109359190610b2d565b909450925061095f565b602081511061095f578080602001905181019061095c9190610b6a565b93505b505094509492505050565b6001600160a01b0381168114610318575f80fd5b5f805f60608486031215610990575f80fd5b833561099b8161096a565b92506020840135915060408401356109b28161096a565b809150509250925092565b60208101600383106109dd57634e487b7160e01b5f52602160045260245ffd5b91905290565b5f602082840312156109f3575f80fd5b81356109fe8161096a565b9392505050565b5f8085851115610a13575f80fd5b83861115610a1f575f80fd5b5050820193919092039150565b6001600160e01b03198135818116916004851015610a545780818660040360031b1b83161692505b505092915050565b6001600160a01b03841681526040602082018190528101829052818360608301375f818301606090810191909152601f909201601f1916010192915050565b5f60208284031215610aab575f80fd5b81516109fe8161096a565b634e487b7160e01b5f52603260045260245ffd5b81810381811115610ae957634e487b7160e01b5f52601160045260245ffd5b92915050565b634e487b7160e01b5f52603160045260245ffd5b5f82518060208501845e5f920191825250919050565b80518015158114610b28575f80fd5b919050565b5f8060408385031215610b3e575f80fd5b610b4783610b19565b9150602083015163ffffffff81168114610b5f575f80fd5b809150509250929050565b5f60208284031215610b7a575f80fd5b6109fe82610b1956fea26469706673582212204bdf378cd2168f756a54453b73e0a5b2c49ae6acc8d513f9128e4d229fc6a62564736f6c63430008190033","linkReferences":{}},"methodIdentifiers":{"_pool()":"636fc28b","addMarket(address)":"93e30633","authority()":"bf7e214f","getMarketOfSynth(address)":"60e07923","isConsumingScheduledOp()":"8fb36037","mint(address,uint256,address)":"0d4d1513","pluginType()":"41de6830","removeMarket(address)":"db913236","setAuthority(address)":"7a9e5e4b"},"id":94}