{"abi":[{"type":"constructor","inputs":[{"name":"initialAdmin","type":"address","internalType":"address"}],"stateMutability":"nonpayable"},{"type":"function","name":"ADMIN_ROLE","inputs":[],"outputs":[{"name":"","type":"uint64","internalType":"uint64"}],"stateMutability":"view"},{"type":"function","name":"PUBLIC_ROLE","inputs":[],"outputs":[{"name":"","type":"uint64","internalType":"uint64"}],"stateMutability":"view"},{"type":"function","name":"canCall","inputs":[{"name":"caller","type":"address","internalType":"address"},{"name":"target","type":"address","internalType":"address"},{"name":"selector","type":"bytes4","internalType":"bytes4"}],"outputs":[{"name":"immediate","type":"bool","internalType":"bool"},{"name":"delay","type":"uint32","internalType":"uint32"}],"stateMutability":"view"},{"type":"function","name":"cancel","inputs":[{"name":"caller","type":"address","internalType":"address"},{"name":"target","type":"address","internalType":"address"},{"name":"data","type":"bytes","internalType":"bytes"}],"outputs":[{"name":"","type":"uint32","internalType":"uint32"}],"stateMutability":"nonpayable"},{"type":"function","name":"consumeScheduledOp","inputs":[{"name":"caller","type":"address","internalType":"address"},{"name":"data","type":"bytes","internalType":"bytes"}],"outputs":[],"stateMutability":"nonpayable"},{"type":"function","name":"execute","inputs":[{"name":"target","type":"address","internalType":"address"},{"name":"data","type":"bytes","internalType":"bytes"}],"outputs":[{"name":"","type":"uint32","internalType":"uint32"}],"stateMutability":"payable"},{"type":"function","name":"expiration","inputs":[],"outputs":[{"name":"","type":"uint32","internalType":"uint32"}],"stateMutability":"view"},{"type":"function","name":"getAccess","inputs":[{"name":"roleId","type":"uint64","internalType":"uint64"},{"name":"account","type":"address","internalType":"address"}],"outputs":[{"name":"since","type":"uint48","internalType":"uint48"},{"name":"currentDelay","type":"uint32","internalType":"uint32"},{"name":"pendingDelay","type":"uint32","internalType":"uint32"},{"name":"effect","type":"uint48","internalType":"uint48"}],"stateMutability":"view"},{"type":"function","name":"getNonce","inputs":[{"name":"id","type":"bytes32","internalType":"bytes32"}],"outputs":[{"name":"","type":"uint32","internalType":"uint32"}],"stateMutability":"view"},{"type":"function","name":"getRoleAdmin","inputs":[{"name":"roleId","type":"uint64","internalType":"uint64"}],"outputs":[{"name":"","type":"uint64","internalType":"uint64"}],"stateMutability":"view"},{"type":"function","name":"getRoleGrantDelay","inputs":[{"name":"roleId","type":"uint64","internalType":"uint64"}],"outputs":[{"name":"","type":"uint32","internalType":"uint32"}],"stateMutability":"view"},{"type":"function","name":"getRoleGuardian","inputs":[{"name":"roleId","type":"uint64","internalType":"uint64"}],"outputs":[{"name":"","type":"uint64","internalType":"uint64"}],"stateMutability":"view"},{"type":"function","name":"getSchedule","inputs":[{"name":"id","type":"bytes32","internalType":"bytes32"}],"outputs":[{"name":"","type":"uint48","internalType":"uint48"}],"stateMutability":"view"},{"type":"function","name":"getTargetAdminDelay","inputs":[{"name":"target","type":"address","internalType":"address"}],"outputs":[{"name":"","type":"uint32","internalType":"uint32"}],"stateMutability":"view"},{"type":"function","name":"getTargetFunctionRole","inputs":[{"name":"target","type":"address","internalType":"address"},{"name":"selector","type":"bytes4","internalType":"bytes4"}],"outputs":[{"name":"","type":"uint64","internalType":"uint64"}],"stateMutability":"view"},{"type":"function","name":"grantRole","inputs":[{"name":"roleId","type":"uint64","internalType":"uint64"},{"name":"account","type":"address","internalType":"address"},{"name":"executionDelay","type":"uint32","internalType":"uint32"}],"outputs":[],"stateMutability":"nonpayable"},{"type":"function","name":"hasRole","inputs":[{"name":"roleId","type":"uint64","internalType":"uint64"},{"name":"account","type":"address","internalType":"address"}],"outputs":[{"name":"isMember","type":"bool","internalType":"bool"},{"name":"executionDelay","type":"uint32","internalType":"uint32"}],"stateMutability":"view"},{"type":"function","name":"hashOperation","inputs":[{"name":"caller","type":"address","internalType":"address"},{"name":"target","type":"address","internalType":"address"},{"name":"data","type":"bytes","internalType":"bytes"}],"outputs":[{"name":"","type":"bytes32","internalType":"bytes32"}],"stateMutability":"view"},{"type":"function","name":"isTargetClosed","inputs":[{"name":"target","type":"address","internalType":"address"}],"outputs":[{"name":"","type":"bool","internalType":"bool"}],"stateMutability":"view"},{"type":"function","name":"labelRole","inputs":[{"name":"roleId","type":"uint64","internalType":"uint64"},{"name":"label","type":"string","internalType":"string"}],"outputs":[],"stateMutability":"nonpayable"},{"type":"function","name":"minSetback","inputs":[],"outputs":[{"name":"","type":"uint32","internalType":"uint32"}],"stateMutability":"view"},{"type":"function","name":"multicall","inputs":[{"name":"data","type":"bytes[]","internalType":"bytes[]"}],"outputs":[{"name":"results","type":"bytes[]","internalType":"bytes[]"}],"stateMutability":"nonpayable"},{"type":"function","name":"renounceRole","inputs":[{"name":"roleId","type":"uint64","internalType":"uint64"},{"name":"callerConfirmation","type":"address","internalType":"address"}],"outputs":[],"stateMutability":"nonpayable"},{"type":"function","name":"revokeRole","inputs":[{"name":"roleId","type":"uint64","internalType":"uint64"},{"name":"account","type":"address","internalType":"address"}],"outputs":[],"stateMutability":"nonpayable"},{"type":"function","name":"schedule","inputs":[{"name":"target","type":"address","internalType":"address"},{"name":"data","type":"bytes","internalType":"bytes"},{"name":"when","type":"uint48","internalType":"uint48"}],"outputs":[{"name":"operationId","type":"bytes32","internalType":"bytes32"},{"name":"nonce","type":"uint32","internalType":"uint32"}],"stateMutability":"nonpayable"},{"type":"function","name":"setGrantDelay","inputs":[{"name":"roleId","type":"uint64","internalType":"uint64"},{"name":"newDelay","type":"uint32","internalType":"uint32"}],"outputs":[],"stateMutability":"nonpayable"},{"type":"function","name":"setRoleAdmin","inputs":[{"name":"roleId","type":"uint64","internalType":"uint64"},{"name":"admin","type":"uint64","internalType":"uint64"}],"outputs":[],"stateMutability":"nonpayable"},{"type":"function","name":"setRoleGuardian","inputs":[{"name":"roleId","type":"uint64","internalType":"uint64"},{"name":"guardian","type":"uint64","internalType":"uint64"}],"outputs":[],"stateMutability":"nonpayable"},{"type":"function","name":"setTargetAdminDelay","inputs":[{"name":"target","type":"address","internalType":"address"},{"name":"newDelay","type":"uint32","internalType":"uint32"}],"outputs":[],"stateMutability":"nonpayable"},{"type":"function","name":"setTargetClosed","inputs":[{"name":"target","type":"address","internalType":"address"},{"name":"closed","type":"bool","internalType":"bool"}],"outputs":[],"stateMutability":"nonpayable"},{"type":"function","name":"setTargetFunctionRole","inputs":[{"name":"target","type":"address","internalType":"address"},{"name":"selectors","type":"bytes4[]","internalType":"bytes4[]"},{"name":"roleId","type":"uint64","internalType":"uint64"}],"outputs":[],"stateMutability":"nonpayable"},{"type":"function","name":"updateAuthority","inputs":[{"name":"target","type":"address","internalType":"address"},{"name":"newAuthority","type":"address","internalType":"address"}],"outputs":[],"stateMutability":"nonpayable"},{"type":"event","name":"OperationCanceled","inputs":[{"name":"operationId","type":"bytes32","indexed":true,"internalType":"bytes32"},{"name":"nonce","type":"uint32","indexed":true,"internalType":"uint32"}],"anonymous":false},{"type":"event","name":"OperationExecuted","inputs":[{"name":"operationId","type":"bytes32","indexed":true,"internalType":"bytes32"},{"name":"nonce","type":"uint32","indexed":true,"internalType":"uint32"}],"anonymous":false},{"type":"event","name":"OperationScheduled","inputs":[{"name":"operationId","type":"bytes32","indexed":true,"internalType":"bytes32"},{"name":"nonce","type":"uint32","indexed":true,"internalType":"uint32"},{"name":"schedule","type":"uint48","indexed":false,"internalType":"uint48"},{"name":"caller","type":"address","indexed":false,"internalType":"address"},{"name":"target","type":"address","indexed":false,"internalType":"address"},{"name":"data","type":"bytes","indexed":false,"internalType":"bytes"}],"anonymous":false},{"type":"event","name":"RoleAdminChanged","inputs":[{"name":"roleId","type":"uint64","indexed":true,"internalType":"uint64"},{"name":"admin","type":"uint64","indexed":true,"internalType":"uint64"}],"anonymous":false},{"type":"event","name":"RoleGrantDelayChanged","inputs":[{"name":"roleId","type":"uint64","indexed":true,"internalType":"uint64"},{"name":"delay","type":"uint32","indexed":false,"internalType":"uint32"},{"name":"since","type":"uint48","indexed":false,"internalType":"uint48"}],"anonymous":false},{"type":"event","name":"RoleGranted","inputs":[{"name":"roleId","type":"uint64","indexed":true,"internalType":"uint64"},{"name":"account","type":"address","indexed":true,"internalType":"address"},{"name":"delay","type":"uint32","indexed":false,"internalType":"uint32"},{"name":"since","type":"uint48","indexed":false,"internalType":"uint48"},{"name":"newMember","type":"bool","indexed":false,"internalType":"bool"}],"anonymous":false},{"type":"event","name":"RoleGuardianChanged","inputs":[{"name":"roleId","type":"uint64","indexed":true,"internalType":"uint64"},{"name":"guardian","type":"uint64","indexed":true,"internalType":"uint64"}],"anonymous":false},{"type":"event","name":"RoleLabel","inputs":[{"name":"roleId","type":"uint64","indexed":true,"internalType":"uint64"},{"name":"label","type":"string","indexed":false,"internalType":"string"}],"anonymous":false},{"type":"event","name":"RoleRevoked","inputs":[{"name":"roleId","type":"uint64","indexed":true,"internalType":"uint64"},{"name":"account","type":"address","indexed":true,"internalType":"address"}],"anonymous":false},{"type":"event","name":"TargetAdminDelayUpdated","inputs":[{"name":"target","type":"address","indexed":true,"internalType":"address"},{"name":"delay","type":"uint32","indexed":false,"internalType":"uint32"},{"name":"since","type":"uint48","indexed":false,"internalType":"uint48"}],"anonymous":false},{"type":"event","name":"TargetClosed","inputs":[{"name":"target","type":"address","indexed":true,"internalType":"address"},{"name":"closed","type":"bool","indexed":false,"internalType":"bool"}],"anonymous":false},{"type":"event","name":"TargetFunctionRoleUpdated","inputs":[{"name":"target","type":"address","indexed":true,"internalType":"address"},{"name":"selector","type":"bytes4","indexed":false,"internalType":"bytes4"},{"name":"roleId","type":"uint64","indexed":true,"internalType":"uint64"}],"anonymous":false},{"type":"error","name":"AccessManagerAlreadyScheduled","inputs":[{"name":"operationId","type":"bytes32","internalType":"bytes32"}]},{"type":"error","name":"AccessManagerBadConfirmation","inputs":[]},{"type":"error","name":"AccessManagerExpired","inputs":[{"name":"operationId","type":"bytes32","internalType":"bytes32"}]},{"type":"error","name":"AccessManagerInvalidInitialAdmin","inputs":[{"name":"initialAdmin","type":"address","internalType":"address"}]},{"type":"error","name":"AccessManagerLockedAccount","inputs":[{"name":"account","type":"address","internalType":"address"}]},{"type":"error","name":"AccessManagerLockedRole","inputs":[{"name":"roleId","type":"uint64","internalType":"uint64"}]},{"type":"error","name":"AccessManagerNotReady","inputs":[{"name":"operationId","type":"bytes32","internalType":"bytes32"}]},{"type":"error","name":"AccessManagerNotScheduled","inputs":[{"name":"operationId","type":"bytes32","internalType":"bytes32"}]},{"type":"error","name":"AccessManagerUnauthorizedAccount","inputs":[{"name":"msgsender","type":"address","internalType":"address"},{"name":"roleId","type":"uint64","internalType":"uint64"}]},{"type":"error","name":"AccessManagerUnauthorizedCall","inputs":[{"name":"caller","type":"address","internalType":"address"},{"name":"target","type":"address","internalType":"address"},{"name":"selector","type":"bytes4","internalType":"bytes4"}]},{"type":"error","name":"AccessManagerUnauthorizedCancel","inputs":[{"name":"msgsender","type":"address","internalType":"address"},{"name":"caller","type":"address","internalType":"address"},{"name":"target","type":"address","internalType":"address"},{"name":"selector","type":"bytes4","internalType":"bytes4"}]},{"type":"error","name":"AccessManagerUnauthorizedConsume","inputs":[{"name":"target","type":"address","internalType":"address"}]},{"type":"error","name":"AddressEmptyCode","inputs":[{"name":"target","type":"address","internalType":"address"}]},{"type":"error","name":"AddressInsufficientBalance","inputs":[{"name":"account","type":"address","internalType":"address"}]},{"type":"error","name":"FailedInnerCall","inputs":[]},{"type":"error","name":"SafeCastOverflowedUintDowncast","inputs":[{"name":"bits","type":"uint8","internalType":"uint8"},{"name":"value","type":"uint256","internalType":"uint256"}]}],"bytecode":{"object":"0x608060405234801561001057600080fd5b50604051612e39380380612e3983398101604081905261002f91610460565b6001600160a01b03811661005e57604051630409d6d160e11b8152600060048201526024015b60405180910390fd5b61006b6000828180610072565b50506104e2565b60006002600160401b03196001600160401b038616016100b05760405163061c6a4360e21b81526001600160401b0386166004820152602401610055565b6001600160401b03851660009081526001602090815260408083206001600160a01b038816845290915281205465ffffffffffff16159081156101a75763ffffffff85166100fc6102bd565b610106919061049f565b905060405180604001604052808265ffffffffffff1681526020016101368663ffffffff166102cd60201b60201c565b6001600160701b039081169091526001600160401b03891660009081526001602090815260408083206001600160a01b038c16845282529091208351815494909201519092166601000000000000026001600160a01b031990931665ffffffffffff9091161791909117905561024f565b6001600160401b03871660009081526001602090815260408083206001600160a01b038a1684529091528120546101f49166010000000000009091046001600160701b03169086906102d6565b6001600160401b03891660009081526001602090815260408083206001600160a01b038c168452909152902080546001600160701b03909316660100000000000002600160301b600160a01b03199093169290921790915590505b6040805163ffffffff8616815265ffffffffffff831660208201528315158183015290516001600160a01b038816916001600160401b038a16917ff98448b987f1428e0e230e1f3c6e2ce15b5693eaf31827fbd0b1ec4b424ae7cf9181900360600190a35095945050505050565b60006102c84261037f565b905090565b63ffffffff1690565b600080806102ec6001600160701b0387166103b6565b905060006103298563ffffffff168763ffffffff168463ffffffff161161031457600061031e565b61031e88856104c5565b63ffffffff166103d5565b905063ffffffff811661033a6102bd565b610344919061049f565b925063ffffffff8616602083901b67ffffffff0000000016604085901b6dffffffffffff000000000000000016171793505050935093915050565b600065ffffffffffff8211156103b2576040516306dfcc6560e41b81526030600482015260248101839052604401610055565b5090565b6000806103cb6001600160701b0384166103ed565b5090949350505050565b60008183116103e457816103e6565b825b9392505050565b60008080610402846103fd6102bd565b61040f565b9250925092509193909250565b600080806001600160501b03602086901c166001600160701b03861665ffffffffffff604088901c811690871681111561044b57828282610450565b816000805b9550955095505050509250925092565b60006020828403121561047257600080fd5b81516001600160a01b03811681146103e657600080fd5b634e487b7160e01b600052601160045260246000fd5b65ffffffffffff8181168382160190808211156104be576104be610489565b5092915050565b63ffffffff8281168282160390808211156104be576104be610489565b612948806104f16000396000f3fe6080604052600436106101e35760003560e01c80636d5115bd11610102578063b700961311610095578063d22b598911610064578063d22b598914610681578063d6bb62c6146106a1578063f801a698146106c1578063fe0776f5146106fb57600080fd5b8063b7009613146105ef578063b7d2b1621461062b578063cc1b6c811461064b578063d1f856ee1461066157600080fd5b8063a166aa89116100d1578063a166aa8914610521578063a64d95ce14610574578063abd9bd2a14610594578063ac9650d8146105c257600080fd5b80636d5115bd146104ac57806375b238fc146104cc578063853551b8146104e157806394c7d7ee1461050157600080fd5b806330cae1871161017a5780634665096d116101495780634665096d146104195780634c1da1e21461042f578063529629521461044f578063530dd4561461046f57600080fd5b806330cae1871461036d5780633adc277a1461038d5780633ca7c02a146103c45780634136a33c146103df57600080fd5b806318ff183c116101b657806318ff183c146102c05780631cff79cd146102e057806325c471a0146102f35780633078f1141461031357600080fd5b806308d6122d146101e85780630b0a93ba1461020a57806312be87271461026b578063167bd395146102a0575b600080fd5b3480156101f457600080fd5b506102086102033660046121b0565b61071b565b005b34801561021657600080fd5b5061024e610225366004612216565b6001600160401b0390811660009081526001602081905260409091200154600160401b90041690565b6040516001600160401b0390911681526020015b60405180910390f35b34801561027757600080fd5b5061028b610286366004612216565b61076e565b60405163ffffffff9091168152602001610262565b3480156102ac57600080fd5b506102086102bb366004612231565b6107a9565b3480156102cc57600080fd5b506102086102db36600461226f565b6107bf565b61028b6102ee3660046122de565b610826565b3480156102ff57600080fd5b5061020861030e366004612346565b610956565b34801561031f57600080fd5b5061033361032e36600461238b565b610978565b604051610262949392919065ffffffffffff948516815263ffffffff93841660208201529190921660408201529116606082015260800190565b34801561037957600080fd5b506102086103883660046123a7565b6109dd565b34801561039957600080fd5b506103ad6103a83660046123da565b6109ef565b60405165ffffffffffff9091168152602001610262565b3480156103d057600080fd5b5061024e6001600160401b0381565b3480156103eb57600080fd5b5061028b6103fa3660046123da565b600090815260026020526040902054600160301b900463ffffffff1690565b34801561042557600080fd5b5062093a8061028b565b34801561043b57600080fd5b5061028b61044a3660046123f3565b610a22565b34801561045b57600080fd5b5061020861046a3660046123a7565b610a50565b34801561047b57600080fd5b5061024e61048a366004612216565b6001600160401b03908116600090815260016020819052604090912001541690565b3480156104b857600080fd5b5061024e6104c7366004612426565b610a62565b3480156104d857600080fd5b5061024e600081565b3480156104ed57600080fd5b506102086104fc366004612454565b610a9d565b34801561050d57600080fd5b5061020861051c3660046122de565b610b34565b34801561052d57600080fd5b5061056461053c3660046123f3565b6001600160a01b0316600090815260208190526040902060010154600160701b900460ff1690565b6040519015158152602001610262565b34801561058057600080fd5b5061020861058f366004612472565b610be0565b3480156105a057600080fd5b506105b46105af36600461249c565b610bf2565b604051908152602001610262565b3480156105ce57600080fd5b506105e26105dd366004612500565b610c2b565b6040516102629190612565565b3480156105fb57600080fd5b5061060f61060a3660046125df565b610d12565b60408051921515835263ffffffff909116602083015201610262565b34801561063757600080fd5b5061020861064636600461238b565b610db5565b34801561065757600080fd5b506206978061028b565b34801561066d57600080fd5b5061060f61067c36600461238b565b610dcc565b34801561068d57600080fd5b5061020861069c36600461262a565b610e49565b3480156106ad57600080fd5b5061028b6106bc36600461249c565b610e5b565b3480156106cd57600080fd5b506106e16106dc366004612648565b610fb5565b6040805192835263ffffffff909116602083015201610262565b34801561070757600080fd5b5061020861071636600461238b565b6110fa565b610723611123565b60005b828110156107675761075f85858584818110610744576107446126ba565b905060200201602081019061075991906126d0565b8461119e565b600101610726565b5050505050565b6001600160401b0381166000908152600160208190526040822001546107a390600160801b90046001600160701b0316611220565b92915050565b6107b1611123565b6107bb828261123f565b5050565b6107c7611123565b604051637a9e5e4b60e01b81526001600160a01b038281166004830152831690637a9e5e4b90602401600060405180830381600087803b15801561080a57600080fd5b505af115801561081e573d6000803e3d6000fd5b505050505050565b6000338180610837838888886112e5565b915091508115801561084d575063ffffffff8116155b156108a057828761085e8888611338565b6040516381c6f24b60e01b81526001600160a01b0393841660048201529290911660248301526001600160e01b03191660448201526064015b60405180910390fd5b60006108ae84898989610bf2565b9050600063ffffffff83161515806108d557506108ca826109ef565b65ffffffffffff1615155b156108e6576108e382611350565b90505b6003546108fc8a6108f78b8b611338565b611450565b6003819055506109448a8a8a8080601f016020809104026020016040519081016040528093929190818152602001838380828437600092019190915250349250611492915050565b506003559450505050505b9392505050565b61095e611123565b610972838361096c8661076e565b8461152f565b50505050565b6001600160401b03821660009081526001602090815260408083206001600160a01b03851684529091528120805465ffffffffffff8116929182918291906109cf90600160301b90046001600160701b031661177a565b969991985096509350505050565b6109e5611123565b6107bb828261179d565b60008181526002602052604081205465ffffffffffff16610a0f81611841565b610a19578061094f565b60009392505050565b6001600160a01b0381166000908152602081905260408120600101546107a3906001600160701b0316611220565b610a58611123565b6107bb8282611870565b6001600160a01b0382166000908152602081815260408083206001600160e01b0319851684529091529020546001600160401b031692915050565b610aa5611123565b6001600160401b0383161580610ac357506001600160401b03838116145b15610aec5760405163061c6a4360e21b81526001600160401b0384166004820152602401610897565b826001600160401b03167f1256f5b5ecb89caec12db449738f2fbcd1ba5806cf38f35413f4e5c15bf6a4508383604051610b27929190612716565b60405180910390a2505050565b60408051638fb3603760e01b80825291513392918391638fb36037916004808201926020929091908290030181865afa158015610b75573d6000803e3d6000fd5b505050506040513d601f19601f82011682018060405250810190610b999190612732565b6001600160e01b03191614610bcc57604051630641fee960e31b81526001600160a01b0382166004820152602401610897565b610767610bdb85838686610bf2565b611350565b610be8611123565b6107bb8282611922565b600084848484604051602001610c0b949392919061274f565b604051602081830303815290604052805190602001209050949350505050565b604080516000815260208101909152606090826001600160401b03811115610c5557610c556127bc565b604051908082528060200260200182016040528015610c8857816020015b6060815260200190600190039081610c735790505b50915060005b83811015610d0a57610ce530868684818110610cac57610cac6126ba565b9050602002810190610cbe91906127d2565b85604051602001610cd193929190612818565b604051602081830303815290604052611a33565b838281518110610cf757610cf76126ba565b6020908102919091010152600101610c8e565b505092915050565b6001600160a01b0382166000908152602081905260408120600101548190600160701b900460ff1615610d4a57506000905080610dad565b306001600160a01b03861603610d6f57610d648484611aa9565b600091509150610dad565b6000610d7b8585610a62565b9050600080610d8a8389610dcc565b9150915081610d9b57600080610da5565b63ffffffff811615815b945094505050505b935093915050565b610dbd611123565b610dc78282611ac0565b505050565b60008067fffffffffffffffe196001600160401b03851601610df45750600190506000610e42565b600080610e018686610978565b5050915091508165ffffffffffff16600014158015610e375750610e23611bad565b65ffffffffffff168265ffffffffffff1611155b93509150610e429050565b9250929050565b610e51611123565b6107bb8282611bbd565b60003381610e698585611338565b90506000610e7988888888610bf2565b60008181526002602052604081205491925065ffffffffffff9091169003610eb75760405163060a299b60e41b815260048101829052602401610897565b826001600160a01b0316886001600160a01b031614610f53576000610edd600085610dcc565b5090506000610ef8610ef26102258b87610a62565b86610dcc565b50905081158015610f07575080155b15610f5057604051630ff89d4760e21b81526001600160a01b038087166004830152808c1660248301528a1660448201526001600160e01b031985166064820152608401610897565b50505b600081815260026020526040808220805465ffffffffffff1916908190559051600160301b90910463ffffffff1691829184917fbd9ac67a6e2f6463b80927326310338bcbb4bdb7936ce1365ea3e01067e7b9f791a398975050505050505050565b6000803381610fc6828989896112e5565b91505060008163ffffffff16610fda611bad565b610fe4919061283f565b905063ffffffff8216158061101b575060008665ffffffffffff1611801561101b57508065ffffffffffff168665ffffffffffff16105b1561102c57828961085e8a8a611338565b6110468665ffffffffffff168265ffffffffffff16611c7a565b9550611054838a8a8a610bf2565b945061105f85611c90565b60008581526002602052604090819020805465ffffffffffff891669ffffffffffffffffffff19821617600160301b9182900463ffffffff90811660010190811692830291909117909255915190955086907f82a2da5dee54ea8021c6545b4444620291e07ee83be6dd57edb175062715f3b4906110e6908a9088908f908f908f90612865565b60405180910390a350505094509492505050565b6001600160a01b0381163314610dbd57604051635f159e6360e01b815260040160405180910390fd5b33600080611132838236611cdd565b9150915081610dc7578063ffffffff1660000361118e5760006111558136611d95565b5060405163f07e038f60e01b81526001600160a01b03871660048201526001600160401b03821660248201529092506044019050610897565b610972610bdb8430600036610bf2565b6001600160a01b0383166000818152602081815260408083206001600160e01b0319871680855290835292819020805467ffffffffffffffff19166001600160401b038716908117909155905192835292917f9ea6790c7dadfd01c9f8b9762b3682607af2c7e79e05a9f9fdf5580dde949151910160405180910390a3505050565b600080611235836001600160701b031661177a565b5090949350505050565b306001600160a01b0383160361127357604051630b40d17960e31b81526001600160a01b0383166004820152602401610897565b6001600160a01b038216600081815260208190526040908190206001018054841515600160701b0260ff60701b19909116179055517f90d4e7bb7e5d933792b3562e1741306f8be94837e1348dacef9b6f1df56eb138906112d990841515815260200190565b60405180910390a25050565b600080306001600160a01b0386160361130c57611303868585611cdd565b9150915061132f565b6004831061132857611323868661060a8787611338565b611303565b5060009050805b94509492505050565b60006113476004828486612792565b61094f916128ab565b60008181526002602052604081205465ffffffffffff811690600160301b900463ffffffff168183036113995760405163060a299b60e41b815260048101859052602401610897565b6113a1611bad565b65ffffffffffff168265ffffffffffff1611156113d457604051630c65b5bd60e11b815260048101859052602401610897565b6113dd82611841565b156113fe57604051631e2975b960e21b815260048101859052602401610897565b600084815260026020526040808220805465ffffffffffff191690555163ffffffff83169186917f76a2a46953689d4861a5d3f6ed883ad7e6af674a21f8e162707159fc9dde614d9190a39392505050565b604080516001600160a01b03939093166020808501919091526001600160e01b0319929092168382015280518084038201815260609093019052815191012090565b6060814710156114b75760405163cd78605960e01b8152306004820152602401610897565b600080856001600160a01b031684866040516114d391906128d9565b60006040518083038185875af1925050503d8060008114611510576040519150601f19603f3d011682016040523d82523d6000602084013e611515565b606091505b5091509150611525868383611f7e565b9695505050505050565b600067fffffffffffffffe196001600160401b0386160161156e5760405163061c6a4360e21b81526001600160401b0386166004820152602401610897565b6001600160401b03851660009081526001602090815260408083206001600160a01b038816845290915281205465ffffffffffff1615908115611660578463ffffffff166115ba611bad565b6115c4919061283f565b905060405180604001604052808265ffffffffffff1681526020016115f28663ffffffff1663ffffffff1690565b6001600160701b039081169091526001600160401b03891660009081526001602090815260408083206001600160a01b038c1684528252909120835181549490920151909216600160301b026001600160a01b031990931665ffffffffffff9091161791909117905561170c565b6001600160401b03871660009081526001602090815260408083206001600160a01b038a1684529091528120546116aa91600160301b9091046001600160701b0316908690611fda565b6001600160401b03891660009081526001602090815260408083206001600160a01b038c168452909152902080546001600160701b03909316600160301b0273ffffffffffffffffffffffffffff000000000000199093169290921790915590505b6040805163ffffffff8616815265ffffffffffff831660208201528315158183015290516001600160a01b038816916001600160401b038a16917ff98448b987f1428e0e230e1f3c6e2ce15b5693eaf31827fbd0b1ec4b424ae7cf9181900360600190a35095945050505050565b60008060006117908461178b611bad565b612084565b9250925092509193909250565b6001600160401b03821615806117bb57506001600160401b03828116145b156117e45760405163061c6a4360e21b81526001600160401b0383166004820152602401610897565b6001600160401b038281166000818152600160208190526040808320909101805467ffffffffffffffff19169486169485179055517f1fd6dd7631312dfac2205b52913f99de03b4d7e381d5d27d3dbfe0713e6e63409190a35050565b600061184b611bad565b65ffffffffffff1661186062093a808461283f565b65ffffffffffff16111592915050565b6001600160401b038216158061188e57506001600160401b03828116145b156118b75760405163061c6a4360e21b81526001600160401b0383166004820152602401610897565b6001600160401b03828116600081815260016020819052604080832090910180546fffffffffffffffff00000000000000001916600160401b958716958602179055517f7a8059630b897b5de4c08ade69f8b90c3ead1f8596d62d10b6c4d14a0afb4ae29190a35050565b67fffffffffffffffe196001600160401b0383160161195f5760405163061c6a4360e21b81526001600160401b0383166004820152602401610897565b6001600160401b03821660009081526001602081905260408220015461199990600160801b90046001600160701b03168362069780611fda565b6001600160401b0385166000818152600160208190526040918290200180546001600160701b03909516600160801b026dffffffffffffffffffffffffffff60801b199095169490941790935591519092507ffeb69018ee8b8fd50ea86348f1267d07673379f72cffdeccec63853ee8ce8b4890610b27908590859063ffffffff92909216825265ffffffffffff16602082015260400190565b6060600080846001600160a01b031684604051611a5091906128d9565b600060405180830381855af49150503d8060008114611a8b576040519150601f19603f3d011682016040523d82523d6000602084013e611a90565b606091505b5091509150611aa0858383611f7e565b95945050505050565b6000611ab58383611450565b600354149392505050565b600067fffffffffffffffe196001600160401b03841601611aff5760405163061c6a4360e21b81526001600160401b0384166004820152602401610897565b6001600160401b03831660009081526001602090815260408083206001600160a01b038616845290915281205465ffffffffffff169003611b42575060006107a3565b6001600160401b03831660008181526001602090815260408083206001600160a01b038716808552925280832080546001600160a01b0319169055519092917ff229baa593af28c41b1d16b748cd7688f0c83aaf92d4be41c44005defe84c16691a350600192915050565b6000611bb8426120d8565b905090565b6001600160a01b038216600090815260208190526040812060010154611bf0906001600160701b03168362069780611fda565b6001600160a01b0385166000818152602081815260409182902060010180546dffffffffffffffffffffffffffff19166001600160701b039690961695909517909455805163ffffffff8716815265ffffffffffff841694810194909452919350917fa56b76017453f399ec2327ba00375dbfb1fd070ff854341ad6191e6a2e2de19c9101610b27565b6000818311611c89578161094f565b5090919050565b60008181526002602052604090205465ffffffffffff168015801590611cbc5750611cba81611841565b155b156107bb5760405163813e945960e01b815260048101839052602401610897565b6000806004831015611cf457506000905080610dad565b306001600160a01b03861603611d1757610d6430611d128686611338565b611aa9565b6000806000611d268787611d95565b92509250925082611d405760008094509450505050610dad565b600080611d4d848b610dcc565b9150915081611d6757600080965096505050505050610dad565b611d7d8363ffffffff168263ffffffff16611c7a565b63ffffffff8116159b909a5098505050505050505050565b600080806004841015611db057506000915081905080611f77565b6000611dbc8686611338565b90506001600160e01b031981166310a6aa3760e31b1480611ded57506001600160e01b031981166330cae18760e01b145b80611e0857506001600160e01b0319811663294b14a960e11b145b80611e2357506001600160e01b03198116635326cae760e11b145b80611e3e57506001600160e01b0319811663d22b598960e01b145b15611e5457600160008093509350935050611f77565b6001600160e01b0319811663063fc60f60e21b1480611e8357506001600160e01b0319811663167bd39560e01b145b80611e9e57506001600160e01b031981166308d6122d60e01b145b15611ee0576000611eb360246004888a612792565b810190611ec091906123f3565b90506000611ecd82610a22565b60019650600095509350611f7792505050565b6001600160e01b0319811663012e238d60e51b1480611f0f57506001600160e01b03198116635be958b160e11b145b15611f6a576000611f2460246004888a612792565b810190611f319190612216565b90506001611f5b826001600160401b03908116600090815260016020819052604090912001541690565b60009450945094505050611f77565b6000806000935093509350505b9250925092565b606082611f9357611f8e8261210f565b61094f565b8151158015611faa57506001600160a01b0384163b155b15611fd357604051639996b31560e01b81526001600160a01b0385166004820152602401610897565b508061094f565b6000806000611ff1866001600160701b0316611220565b9050600061202e8563ffffffff168763ffffffff168463ffffffff1611612019576000612023565b61202388856128f5565b63ffffffff16611c7a565b90508063ffffffff1661203f611bad565b612049919061283f565b925063ffffffff8616602083901b67ffffffff0000000016604085901b6dffffffffffff000000000000000016171793505050935093915050565b6000808069ffffffffffffffffffff602086901c166001600160701b03861665ffffffffffff604088901c81169087168111156120c3578282826120c8565b816000805b9550955095505050509250925092565b600065ffffffffffff82111561210b576040516306dfcc6560e41b81526030600482015260248101839052604401610897565b5090565b80511561211f5780518082602001fd5b604051630a12f52160e11b815260040160405180910390fd5b50565b6001600160a01b038116811461213857600080fd5b60008083601f84011261216257600080fd5b5081356001600160401b0381111561217957600080fd5b6020830191508360208260051b8501011115610e4257600080fd5b80356001600160401b03811681146121ab57600080fd5b919050565b600080600080606085870312156121c657600080fd5b84356121d18161213b565b935060208501356001600160401b038111156121ec57600080fd5b6121f887828801612150565b909450925061220b905060408601612194565b905092959194509250565b60006020828403121561222857600080fd5b61094f82612194565b6000806040838503121561224457600080fd5b823561224f8161213b565b91506020830135801515811461226457600080fd5b809150509250929050565b6000806040838503121561228257600080fd5b823561228d8161213b565b915060208301356122648161213b565b60008083601f8401126122af57600080fd5b5081356001600160401b038111156122c657600080fd5b602083019150836020828501011115610e4257600080fd5b6000806000604084860312156122f357600080fd5b83356122fe8161213b565b925060208401356001600160401b0381111561231957600080fd5b6123258682870161229d565b9497909650939450505050565b803563ffffffff811681146121ab57600080fd5b60008060006060848603121561235b57600080fd5b61236484612194565b925060208401356123748161213b565b915061238260408501612332565b90509250925092565b6000806040838503121561239e57600080fd5b61228d83612194565b600080604083850312156123ba57600080fd5b6123c383612194565b91506123d160208401612194565b90509250929050565b6000602082840312156123ec57600080fd5b5035919050565b60006020828403121561240557600080fd5b813561094f8161213b565b6001600160e01b03198116811461213857600080fd5b6000806040838503121561243957600080fd5b82356124448161213b565b9150602083013561226481612410565b60008060006040848603121561246957600080fd5b6122fe84612194565b6000806040838503121561248557600080fd5b61248e83612194565b91506123d160208401612332565b600080600080606085870312156124b257600080fd5b84356124bd8161213b565b935060208501356124cd8161213b565b925060408501356001600160401b038111156124e857600080fd5b6124f48782880161229d565b95989497509550505050565b6000806020838503121561251357600080fd5b82356001600160401b0381111561252957600080fd5b61253585828601612150565b90969095509350505050565b60005b8381101561255c578181015183820152602001612544565b50506000910152565b6000602080830181845280855180835260408601915060408160051b870101925083870160005b828110156125d257878503603f19018452815180518087526125b3818989018a8501612541565b601f01601f19169590950186019450928501929085019060010161258c565b5092979650505050505050565b6000806000606084860312156125f457600080fd5b83356125ff8161213b565b9250602084013561260f8161213b565b9150604084013561261f81612410565b809150509250925092565b6000806040838503121561263d57600080fd5b823561248e8161213b565b6000806000806060858703121561265e57600080fd5b84356126698161213b565b935060208501356001600160401b0381111561268457600080fd5b6126908782880161229d565b909450925050604085013565ffffffffffff811681146126af57600080fd5b939692955090935050565b634e487b7160e01b600052603260045260246000fd5b6000602082840312156126e257600080fd5b813561094f81612410565b81835281816020850137506000828201602090810191909152601f909101601f19169091010190565b60208152600061272a6020830184866126ed565b949350505050565b60006020828403121561274457600080fd5b815161094f81612410565b6001600160a01b0385811682528416602082015260606040820181905260009061152590830184866126ed565b634e487b7160e01b600052601160045260246000fd5b600080858511156127a257600080fd5b838611156127af57600080fd5b5050820193919092039150565b634e487b7160e01b600052604160045260246000fd5b6000808335601e198436030181126127e957600080fd5b8301803591506001600160401b0382111561280357600080fd5b602001915036819003821315610e4257600080fd5b828482376000838201600081528351612835818360208801612541565b0195945050505050565b65ffffffffffff81811683821601908082111561285e5761285e61277c565b5092915050565b65ffffffffffff861681526001600160a01b038581166020830152841660408201526080606082018190526000906128a090830184866126ed565b979650505050505050565b6001600160e01b03198135818116916004851015610d0a5760049490940360031b84901b1690921692915050565b600082516128eb818460208701612541565b9190910192915050565b63ffffffff82811682821603908082111561285e5761285e61277c56fea264697066735822122084c2357e49bfaf1b8baa187037904f4ac97aeada789fdfcf6104a77da3a9995c64736f6c63430008190033","linkReferences":{}},"methodIdentifiers":{"ADMIN_ROLE()":"75b238fc","PUBLIC_ROLE()":"3ca7c02a","canCall(address,address,bytes4)":"b7009613","cancel(address,address,bytes)":"d6bb62c6","consumeScheduledOp(address,bytes)":"94c7d7ee","execute(address,bytes)":"1cff79cd","expiration()":"4665096d","getAccess(uint64,address)":"3078f114","getNonce(bytes32)":"4136a33c","getRoleAdmin(uint64)":"530dd456","getRoleGrantDelay(uint64)":"12be8727","getRoleGuardian(uint64)":"0b0a93ba","getSchedule(bytes32)":"3adc277a","getTargetAdminDelay(address)":"4c1da1e2","getTargetFunctionRole(address,bytes4)":"6d5115bd","grantRole(uint64,address,uint32)":"25c471a0","hasRole(uint64,address)":"d1f856ee","hashOperation(address,address,bytes)":"abd9bd2a","isTargetClosed(address)":"a166aa89","labelRole(uint64,string)":"853551b8","minSetback()":"cc1b6c81","multicall(bytes[])":"ac9650d8","renounceRole(uint64,address)":"fe0776f5","revokeRole(uint64,address)":"b7d2b162","schedule(address,bytes,uint48)":"f801a698","setGrantDelay(uint64,uint32)":"a64d95ce","setRoleAdmin(uint64,uint64)":"30cae187","setRoleGuardian(uint64,uint64)":"52962952","setTargetAdminDelay(address,uint32)":"d22b5989","setTargetClosed(address,bool)":"167bd395","setTargetFunctionRole(address,bytes4[],uint64)":"08d6122d","updateAuthority(address,address)":"18ff183c"},"id":25}