{"abi":[{"type":"function","name":"_oracle","inputs":[],"outputs":[{"name":"","type":"address","internalType":"contract AbstractOracle"}],"stateMutability":"view"},{"type":"function","name":"getAssetPrice","inputs":[{"name":"asset","type":"address","internalType":"address"}],"outputs":[{"name":"","type":"uint256","internalType":"uint256"}],"stateMutability":"view"},{"type":"function","name":"getAssetPrices","inputs":[{"name":"assets","type":"address[]","internalType":"address[]"}],"outputs":[{"name":"","type":"uint256[]","internalType":"uint256[]"}],"stateMutability":"view"},{"type":"function","name":"getOracle","inputs":[],"outputs":[{"name":"","type":"address","internalType":"contract AbstractOracle"}],"stateMutability":"view"}],"bytecode":{"object":"0x6080604052348015600e575f80fd5b506104418061001c5f395ff3fe608060405234801561000f575f80fd5b506004361061004a575f3560e01c8063053c81b51461004e578063247ac06314610077578063833b1fce146100a1578063b3596f07146100b1575b5f80fd5b61006161005c366004610238565b6100d2565b60405161006e91906102d0565b60405180910390f35b5f54610089906001600160a01b031681565b6040516001600160a01b03909116815260200161006e565b5f546001600160a01b0316610089565b6100c46100bf366004610313565b610149565b60405190815260200161006e565b5f54604051634e91ecf960e11b81526060916001600160a01b031690639d23d9f290610102908590600401610333565b5f60405180830381865afa15801561011c573d5f803e3d5ffd5b505050506040513d5f823e601f3d908101601f191682016040526101439190810190610373565b92915050565b5f805460405163b3596f0760e01b81526001600160a01b0384811660048301529091169063b3596f0790602401602060405180830381865afa158015610191573d5f803e3d5ffd5b505050506040513d601f19601f8201168201806040525081019061014391906103f4565b634e487b7160e01b5f52604160045260245ffd5b604051601f8201601f1916810167ffffffffffffffff811182821017156101f2576101f26101b5565b604052919050565b5f67ffffffffffffffff821115610213576102136101b5565b5060051b60200190565b80356001600160a01b0381168114610233575f80fd5b919050565b5f6020808385031215610249575f80fd5b823567ffffffffffffffff81111561025f575f80fd5b8301601f8101851361026f575f80fd5b803561028261027d826101fa565b6101c9565b81815260059190911b820183019083810190878311156102a0575f80fd5b928401925b828410156102c5576102b68461021d565b825292840192908401906102a5565b979650505050505050565b602080825282518282018190525f9190848201906040850190845b81811015610307578351835292840192918401916001016102eb565b50909695505050505050565b5f60208284031215610323575f80fd5b61032c8261021d565b9392505050565b602080825282518282018190525f9190848201906040850190845b818110156103075783516001600160a01b03168352928401929184019160010161034e565b5f6020808385031215610384575f80fd5b825167ffffffffffffffff81111561039a575f80fd5b8301601f810185136103aa575f80fd5b80516103b861027d826101fa565b81815260059190911b820183019083810190878311156103d6575f80fd5b928401925b828410156102c5578351825292840192908401906103db565b5f60208284031215610404575f80fd5b505191905056fea2646970667358221220f4fe788fa68ad481859b1597370fe69a3fb23ed2bf3a478630ae5a46a2042f9c64736f6c63430008190033","linkReferences":{}},"methodIdentifiers":{"_oracle()":"247ac063","getAssetPrice(address)":"b3596f07","getAssetPrices(address[])":"053c81b5","getOracle()":"833b1fce"},"id":82}