{"abi":[{"type":"constructor","inputs":[{"name":"_name","type":"string","internalType":"string"},{"name":"_symbol","type":"string","internalType":"string"},{"name":"_collateralOracle","type":"address","internalType":"address"},{"name":"_authority","type":"address","internalType":"address"},{"name":"_plugin","type":"address","internalType":"address"},{"name":"_synth","type":"address","internalType":"address"},{"name":"_irModel","type":"address","internalType":"address"}],"stateMutability":"nonpayable"},{"type":"function","name":"DELEGATION_WITH_SIG_TYPEHASH","inputs":[],"outputs":[{"name":"","type":"bytes32","internalType":"bytes32"}],"stateMutability":"view"},{"type":"function","name":"_oracle","inputs":[],"outputs":[{"name":"","type":"address","internalType":"contract AbstractOracle"}],"stateMutability":"view"},{"type":"function","name":"accountIndex","inputs":[{"name":"","type":"address","internalType":"address"}],"outputs":[{"name":"","type":"uint256","internalType":"uint256"}],"stateMutability":"view"},{"type":"function","name":"accrueInterest","inputs":[{"name":"account","type":"address","internalType":"address"}],"outputs":[{"name":"interestAmount","type":"uint256","internalType":"uint256"}],"stateMutability":"nonpayable"},{"type":"function","name":"accumulatedRewards","inputs":[{"name":"reward","type":"address","internalType":"address"},{"name":"account","type":"address","internalType":"address"}],"outputs":[{"name":"rewardAmount","type":"uint256","internalType":"uint256"},{"name":"newIndex","type":"uint256","internalType":"uint256"}],"stateMutability":"view"},{"type":"function","name":"addCollateral","inputs":[{"name":"asset","type":"address","internalType":"address"},{"name":"config","type":"tuple","internalType":"struct ReserveStorage.Collateral","components":[{"name":"vault","type":"address","internalType":"address"},{"name":"baseLTV","type":"uint256","internalType":"uint256"},{"name":"liquidationThreshold","type":"uint256","internalType":"uint256"},{"name":"liquidationBonus","type":"uint256","internalType":"uint256"},{"name":"liquidationFee","type":"uint256","internalType":"uint256"},{"name":"maxDeposits","type":"uint256","internalType":"uint256"},{"name":"active","type":"bool","internalType":"bool"}]}],"outputs":[],"stateMutability":"nonpayable"},{"type":"function","name":"addReward","inputs":[{"name":"reward","type":"address","internalType":"address"},{"name":"speed","type":"uint256","internalType":"uint256"}],"outputs":[],"stateMutability":"nonpayable"},{"type":"function","name":"allCollaterals","inputs":[{"name":"","type":"uint256","internalType":"uint256"}],"outputs":[{"name":"","type":"address","internalType":"address"}],"stateMutability":"view"},{"type":"function","name":"allowance","inputs":[{"name":"owner","type":"address","internalType":"address"},{"name":"spender","type":"address","internalType":"address"}],"outputs":[{"name":"","type":"uint256","internalType":"uint256"}],"stateMutability":"view"},{"type":"function","name":"approve","inputs":[{"name":"spender","type":"address","internalType":"address"},{"name":"amount","type":"uint256","internalType":"uint256"}],"outputs":[{"name":"","type":"bool","internalType":"bool"}],"stateMutability":"nonpayable"},{"type":"function","name":"approveDelegation","inputs":[{"name":"delegatee","type":"address","internalType":"address"},{"name":"amount","type":"uint256","internalType":"uint256"}],"outputs":[],"stateMutability":"nonpayable"},{"type":"function","name":"authority","inputs":[],"outputs":[{"name":"","type":"address","internalType":"address"}],"stateMutability":"view"},{"type":"function","name":"balanceOf","inputs":[{"name":"account","type":"address","internalType":"address"}],"outputs":[{"name":"","type":"uint256","internalType":"uint256"}],"stateMutability":"view"},{"type":"function","name":"burn","inputs":[{"name":"amount","type":"uint256","internalType":"uint256"},{"name":"onBehalfOf","type":"address","internalType":"address"}],"outputs":[],"stateMutability":"nonpayable"},{"type":"function","name":"collaterals","inputs":[{"name":"","type":"address","internalType":"address"}],"outputs":[{"name":"vault","type":"address","internalType":"address"},{"name":"baseLTV","type":"uint256","internalType":"uint256"},{"name":"liquidationThreshold","type":"uint256","internalType":"uint256"},{"name":"liquidationBonus","type":"uint256","internalType":"uint256"},{"name":"liquidationFee","type":"uint256","internalType":"uint256"},{"name":"maxDeposits","type":"uint256","internalType":"uint256"},{"name":"active","type":"bool","internalType":"bool"}],"stateMutability":"view"},{"type":"function","name":"debtAllowance","inputs":[{"name":"delegator","type":"address","internalType":"address"},{"name":"delegatee","type":"address","internalType":"address"}],"outputs":[{"name":"","type":"uint256","internalType":"uint256"}],"stateMutability":"view"},{"type":"function","name":"decimals","inputs":[],"outputs":[{"name":"","type":"uint8","internalType":"uint8"}],"stateMutability":"view"},{"type":"function","name":"delegationWithSig","inputs":[{"name":"delegator","type":"address","internalType":"address"},{"name":"delegatee","type":"address","internalType":"address"},{"name":"value","type":"uint256","internalType":"uint256"},{"name":"deadline","type":"uint256","internalType":"uint256"},{"name":"v","type":"uint8","internalType":"uint8"},{"name":"r","type":"bytes32","internalType":"bytes32"},{"name":"s","type":"bytes32","internalType":"bytes32"}],"outputs":[],"stateMutability":"nonpayable"},{"type":"function","name":"distributeRewards","inputs":[{"name":"account","type":"address","internalType":"address"}],"outputs":[],"stateMutability":"nonpayable"},{"type":"function","name":"eip712Domain","inputs":[],"outputs":[{"name":"fields","type":"bytes1","internalType":"bytes1"},{"name":"name","type":"string","internalType":"string"},{"name":"version","type":"string","internalType":"string"},{"name":"chainId","type":"uint256","internalType":"uint256"},{"name":"verifyingContract","type":"address","internalType":"address"},{"name":"salt","type":"bytes32","internalType":"bytes32"},{"name":"extensions","type":"uint256[]","internalType":"uint256[]"}],"stateMutability":"view"},{"type":"function","name":"enabledCollaterals","inputs":[{"name":"","type":"address","internalType":"address"},{"name":"","type":"uint256","internalType":"uint256"}],"outputs":[{"name":"","type":"address","internalType":"address"}],"stateMutability":"view"},{"type":"function","name":"getAllCollaterals","inputs":[],"outputs":[{"name":"","type":"address[]","internalType":"address[]"}],"stateMutability":"view"},{"type":"function","name":"getAssetPrice","inputs":[{"name":"asset","type":"address","internalType":"address"}],"outputs":[{"name":"","type":"uint256","internalType":"uint256"}],"stateMutability":"view"},{"type":"function","name":"getAssetPrices","inputs":[{"name":"assets","type":"address[]","internalType":"address[]"}],"outputs":[{"name":"","type":"uint256[]","internalType":"uint256[]"}],"stateMutability":"view"},{"type":"function","name":"getCollateralConfig","inputs":[{"name":"asset","type":"address","internalType":"address"}],"outputs":[{"name":"","type":"tuple","internalType":"struct ReserveStorage.Collateral","components":[{"name":"vault","type":"address","internalType":"address"},{"name":"baseLTV","type":"uint256","internalType":"uint256"},{"name":"liquidationThreshold","type":"uint256","internalType":"uint256"},{"name":"liquidationBonus","type":"uint256","internalType":"uint256"},{"name":"liquidationFee","type":"uint256","internalType":"uint256"},{"name":"maxDeposits","type":"uint256","internalType":"uint256"},{"name":"active","type":"bool","internalType":"bool"}]}],"stateMutability":"view"},{"type":"function","name":"getOracle","inputs":[],"outputs":[{"name":"","type":"address","internalType":"contract AbstractOracle"}],"stateMutability":"view"},{"type":"function","name":"getUserAssetsUSD","inputs":[{"name":"user","type":"address","internalType":"address"}],"outputs":[{"name":"totalAssetsUSD","type":"uint256","internalType":"uint256"},{"name":"adjustedUSD","type":"uint256","internalType":"uint256"},{"name":"thresholdUSD","type":"uint256","internalType":"uint256"}],"stateMutability":"view"},{"type":"function","name":"getUserData","inputs":[{"name":"account","type":"address","internalType":"address"}],"outputs":[{"name":"userDebtUSD","type":"uint256","internalType":"uint256"},{"name":"userBalanceUSD","type":"uint256","internalType":"uint256"},{"name":"adjustedBalanceUSD","type":"uint256","internalType":"uint256"},{"name":"thresholdUSD","type":"uint256","internalType":"uint256"},{"name":"accountHealth","type":"uint256","internalType":"uint256"}],"stateMutability":"view"},{"type":"function","name":"getUserDebtUSD","inputs":[{"name":"account","type":"address","internalType":"address"}],"outputs":[{"name":"","type":"uint256","internalType":"uint256"}],"stateMutability":"view"},{"type":"function","name":"irModel","inputs":[],"outputs":[{"name":"","type":"address","internalType":"contract IRModel"}],"stateMutability":"view"},{"type":"function","name":"isConsumingScheduledOp","inputs":[],"outputs":[{"name":"","type":"bytes4","internalType":"bytes4"}],"stateMutability":"view"},{"type":"function","name":"lastUpdated","inputs":[],"outputs":[{"name":"","type":"uint256","internalType":"uint256"}],"stateMutability":"view"},{"type":"function","name":"mint","inputs":[{"name":"amount","type":"uint256","internalType":"uint256"},{"name":"onBehalfOf","type":"address","internalType":"address"},{"name":"receiver","type":"address","internalType":"address"}],"outputs":[],"stateMutability":"nonpayable"},{"type":"function","name":"name","inputs":[],"outputs":[{"name":"","type":"string","internalType":"string"}],"stateMutability":"view"},{"type":"function","name":"nonces","inputs":[{"name":"owner","type":"address","internalType":"address"}],"outputs":[{"name":"","type":"uint256","internalType":"uint256"}],"stateMutability":"view"},{"type":"function","name":"plugin","inputs":[],"outputs":[{"name":"","type":"address","internalType":"contract MarketsPlugin"}],"stateMutability":"view"},{"type":"function","name":"removeCollateral","inputs":[{"name":"asset","type":"address","internalType":"address"}],"outputs":[],"stateMutability":"nonpayable"},{"type":"function","name":"rewards","inputs":[{"name":"","type":"uint256","internalType":"uint256"}],"outputs":[{"name":"","type":"address","internalType":"address"}],"stateMutability":"view"},{"type":"function","name":"setAuthority","inputs":[{"name":"newAuthority","type":"address","internalType":"address"}],"outputs":[],"stateMutability":"nonpayable"},{"type":"function","name":"stake","inputs":[{"name":"asset","type":"address","internalType":"address"},{"name":"amount","type":"uint256","internalType":"uint256"},{"name":"onBehalfOf","type":"address","internalType":"address"}],"outputs":[{"name":"","type":"uint256","internalType":"uint256"}],"stateMutability":"nonpayable"},{"type":"function","name":"stakedBalance","inputs":[{"name":"asset","type":"address","internalType":"address"},{"name":"user","type":"address","internalType":"address"}],"outputs":[{"name":"","type":"uint256","internalType":"uint256"}],"stateMutability":"view"},{"type":"function","name":"symbol","inputs":[],"outputs":[{"name":"","type":"string","internalType":"string"}],"stateMutability":"view"},{"type":"function","name":"synth","inputs":[],"outputs":[{"name":"","type":"address","internalType":"contract Synth"}],"stateMutability":"view"},{"type":"function","name":"totalSupply","inputs":[],"outputs":[{"name":"","type":"uint256","internalType":"uint256"}],"stateMutability":"view"},{"type":"function","name":"transfer","inputs":[{"name":"recipient","type":"address","internalType":"address"},{"name":"amount","type":"uint256","internalType":"uint256"}],"outputs":[{"name":"","type":"bool","internalType":"bool"}],"stateMutability":"nonpayable"},{"type":"function","name":"transferFrom","inputs":[{"name":"sender","type":"address","internalType":"address"},{"name":"recipient","type":"address","internalType":"address"},{"name":"amount","type":"uint256","internalType":"uint256"}],"outputs":[{"name":"","type":"bool","internalType":"bool"}],"stateMutability":"nonpayable"},{"type":"function","name":"unstake","inputs":[{"name":"receiver","type":"address","internalType":"address"},{"name":"asset","type":"address","internalType":"address"},{"name":"amount","type":"uint256","internalType":"uint256"}],"outputs":[{"name":"","type":"uint256","internalType":"uint256"}],"stateMutability":"nonpayable"},{"type":"event","name":"Approval","inputs":[{"name":"owner","type":"address","indexed":true,"internalType":"address"},{"name":"spender","type":"address","indexed":true,"internalType":"address"},{"name":"value","type":"uint256","indexed":false,"internalType":"uint256"}],"anonymous":false},{"type":"event","name":"AuthorityUpdated","inputs":[{"name":"authority","type":"address","indexed":false,"internalType":"address"}],"anonymous":false},{"type":"event","name":"CollateralRemoved","inputs":[{"name":"asset","type":"address","indexed":true,"internalType":"address"}],"anonymous":false},{"type":"event","name":"CollateralUpdated","inputs":[{"name":"asset","type":"address","indexed":true,"internalType":"address"},{"name":"config","type":"tuple","indexed":false,"internalType":"struct ReserveStorage.Collateral","components":[{"name":"vault","type":"address","internalType":"address"},{"name":"baseLTV","type":"uint256","internalType":"uint256"},{"name":"liquidationThreshold","type":"uint256","internalType":"uint256"},{"name":"liquidationBonus","type":"uint256","internalType":"uint256"},{"name":"liquidationFee","type":"uint256","internalType":"uint256"},{"name":"maxDeposits","type":"uint256","internalType":"uint256"},{"name":"active","type":"bool","internalType":"bool"}]}],"anonymous":false},{"type":"event","name":"DebtAllowanceDelegated","inputs":[{"name":"delegator","type":"address","indexed":true,"internalType":"address"},{"name":"delegatee","type":"address","indexed":true,"internalType":"address"},{"name":"value","type":"uint256","indexed":false,"internalType":"uint256"}],"anonymous":false},{"type":"event","name":"EIP712DomainChanged","inputs":[],"anonymous":false},{"type":"event","name":"InterestAccrued","inputs":[{"name":"marketIndex","type":"uint256","indexed":false,"internalType":"uint256"},{"name":"account","type":"address","indexed":true,"internalType":"address"},{"name":"accountIndex","type":"uint256","indexed":false,"internalType":"uint256"}],"anonymous":false},{"type":"event","name":"NewCollateral","inputs":[{"name":"asset","type":"address","indexed":true,"internalType":"address"},{"name":"config","type":"tuple","indexed":false,"internalType":"struct ReserveStorage.Collateral","components":[{"name":"vault","type":"address","internalType":"address"},{"name":"baseLTV","type":"uint256","internalType":"uint256"},{"name":"liquidationThreshold","type":"uint256","internalType":"uint256"},{"name":"liquidationBonus","type":"uint256","internalType":"uint256"},{"name":"liquidationFee","type":"uint256","internalType":"uint256"},{"name":"maxDeposits","type":"uint256","internalType":"uint256"},{"name":"active","type":"bool","internalType":"bool"}]}],"anonymous":false},{"type":"event","name":"Transfer","inputs":[{"name":"from","type":"address","indexed":true,"internalType":"address"},{"name":"to","type":"address","indexed":true,"internalType":"address"},{"name":"value","type":"uint256","indexed":false,"internalType":"uint256"}],"anonymous":false},{"type":"error","name":"AccessManagedInvalidAuthority","inputs":[{"name":"authority","type":"address","internalType":"address"}]},{"type":"error","name":"AccessManagedRequiredDelay","inputs":[{"name":"caller","type":"address","internalType":"address"},{"name":"delay","type":"uint32","internalType":"uint32"}]},{"type":"error","name":"AccessManagedUnauthorized","inputs":[{"name":"caller","type":"address","internalType":"address"}]},{"type":"error","name":"ECDSAInvalidSignature","inputs":[]},{"type":"error","name":"ECDSAInvalidSignatureLength","inputs":[{"name":"length","type":"uint256","internalType":"uint256"}]},{"type":"error","name":"ECDSAInvalidSignatureS","inputs":[{"name":"s","type":"bytes32","internalType":"bytes32"}]},{"type":"error","name":"ERC20InsufficientAllowance","inputs":[{"name":"spender","type":"address","internalType":"address"},{"name":"allowance","type":"uint256","internalType":"uint256"},{"name":"needed","type":"uint256","internalType":"uint256"}]},{"type":"error","name":"ERC20InsufficientBalance","inputs":[{"name":"sender","type":"address","internalType":"address"},{"name":"balance","type":"uint256","internalType":"uint256"},{"name":"needed","type":"uint256","internalType":"uint256"}]},{"type":"error","name":"ERC20InvalidApprover","inputs":[{"name":"approver","type":"address","internalType":"address"}]},{"type":"error","name":"ERC20InvalidReceiver","inputs":[{"name":"receiver","type":"address","internalType":"address"}]},{"type":"error","name":"ERC20InvalidSender","inputs":[{"name":"sender","type":"address","internalType":"address"}]},{"type":"error","name":"ERC20InvalidSpender","inputs":[{"name":"spender","type":"address","internalType":"address"}]},{"type":"error","name":"InvalidAccountNonce","inputs":[{"name":"account","type":"address","internalType":"address"},{"name":"currentNonce","type":"uint256","internalType":"uint256"}]},{"type":"error","name":"InvalidShortString","inputs":[]},{"type":"error","name":"StringTooLong","inputs":[{"name":"str","type":"string","internalType":"string"}]}],"bytecode":{"object":"0x6101a0604052348015610010575f80fd5b50604051613fe4380380613fe483398101604081905261002f91610383565b83878781604051806040016040528060018152602001603160f81b81525083838b61005f8161017d60201b60201c565b50604061006c83826104b6565b50604161007982826104b6565b5061008991508390506042610209565b61012052610098816043610209565b61014052815160208084019190912060e052815190820120610100524660a05261012460e05161010051604080517f8b73c3c69bb8fe3d512ecc4cf759cc79239f7b179b0ffacaa9a75d522b39400f60208201529081019290925260608201524660808201523060a08201525f9060c00160405160208183030381529060405280519060200120905090565b60805250503060c0525061013990508161023b565b506001600160a01b03918216610160525f80546001600160a01b03191691831691909117905516610180525050670de0b6b3a76400006001555050426003556105cd565b6001600160a01b0381166101e75760405162461bcd60e51b815260206004820152602660248201527f4f7261636c6552656769737472793a20496e76616c6964206f7261636c65206160448201526564647265737360d01b60648201526084015b60405180910390fd5b603c80546001600160a01b0319166001600160a01b0392909216919091179055565b5f6020835110156102245761021d8361028f565b9050610235565b8161022f84826104b6565b5060ff90505b92915050565b604680546001600160a01b0319166001600160a01b0383169081179091556040519081527f2f658b440c35314f52658ea8a740e05b284cdc84dc9ae01e891f21b8933e7cad9060200160405180910390a150565b5f80829050601f815111156102b9578260405163305a27a960e01b81526004016101de9190610575565b80516102c4826105aa565b179392505050565b634e487b7160e01b5f52604160045260245ffd5b5f82601f8301126102ef575f80fd5b81516001600160401b0380821115610309576103096102cc565b604051601f8301601f19908116603f01168101908282118183101715610331576103316102cc565b81604052838152866020858801011115610349575f80fd5b8360208701602083015e5f602085830101528094505050505092915050565b80516001600160a01b038116811461037e575f80fd5b919050565b5f805f805f805f60e0888a031215610399575f80fd5b87516001600160401b03808211156103af575f80fd5b6103bb8b838c016102e0565b985060208a01519150808211156103d0575f80fd5b506103dd8a828b016102e0565b9650506103ec60408901610368565b94506103fa60608901610368565b935061040860808901610368565b925061041660a08901610368565b915061042460c08901610368565b905092959891949750929550565b600181811c9082168061044657607f821691505b60208210810361046457634e487b7160e01b5f52602260045260245ffd5b50919050565b601f8211156104b157805f5260205f20601f840160051c8101602085101561048f5750805b601f840160051c820191505b818110156104ae575f815560010161049b565b50505b505050565b81516001600160401b038111156104cf576104cf6102cc565b6104e3816104dd8454610432565b8461046a565b602080601f831160018114610516575f84156104ff5750858301515b5f19600386901b1c1916600185901b17855561056d565b5f85815260208120601f198616915b8281101561054457888601518255948401946001909101908401610525565b508582101561056157878501515f19600388901b60f8161c191681555b505060018460011b0185555b505050505050565b602081525f82518060208401528060208501604085015e5f604082850101526040601f19601f83011684010191505092915050565b80516020808301519190811015610464575f1960209190910360031b1b16919050565b60805160a05160c05160e051610100516101205161014051610160516101805161398f6106555f395f8181610710015281816119760152611ba501525f818161035101528181611a6a01528181611b6e0152611d7a01525f61257101525f61254401525f61297801525f61295001525f6128ab01525f6128d501525f6128ff015261398f5ff3fe608060405234801561000f575f80fd5b506004361061028c575f3560e01c80639198e51511610161578063d0b06f5d116100ca578063ef01df4f11610084578063ef01df4f1461070b578063f301af4214610732578063f3bfc73814610745578063f6a44b381461076c578063fcd3533c1461078c578063ffc9896b1461079f575f80fd5b8063d0b06f5d146105f9578063d28e512d14610602578063d659993414610615578063da39b3e714610628578063dd62ed3e1461063b578063eeb97d3b14610673575f80fd5b8063a9059cbb1161011b578063a9059cbb146102ce578063ace6c09c14610581578063b3596f07146105af578063bf7e214f146105c2578063c04a8a10146105d3578063c99d3a06146105e6575f80fd5b80639198e51514610519578063933d64951461052c57806395d89b411461053f57806395dcf918146105475780639feb8f5014610559578063a41c8c0b1461056c575f80fd5b8063313ce567116102035780637ecebe00116101bd5780637ecebe00146104725780638229084b1461049a578063833b1fce146104ad57806384b0196e146104be578063866b0138146104d95780638fb36037146104f8575f80fd5b8063313ce567146103da57806343636121146103e957806359c6b0381461041157806360829f8a1461042457806370a08231146104375780637a9e5e4b1461045f575f80fd5b8063115f4fee11610254578063115f4fee1461034c57806318160ddd1461038b5780631de9d9b61461039357806323b872dd146103a6578063247ac063146103b4578063294091cd146103c7575f80fd5b8063053c81b51461029057806306fdde03146102b9578063095ea7b3146102ce5780630b2d9070146102f15780630b52d55814610337575b5f80fd5b6102a361029e366004613046565b6107da565b6040516102b0919061311a565b60405180910390f35b6102c1610852565b6040516102b0919061315a565b6102e16102dc36600461316c565b6108e2565b60405190151581526020016102b0565b6103296102ff366004613196565b6001600160a01b039182165f90815260456020908152604080832093909416825291909152205490565b6040519081526020016102b0565b61034a6103453660046131db565b610931565b005b6103737f000000000000000000000000000000000000000000000000000000000000000081565b6040516001600160a01b0390911681526020016102b0565b603f54610329565b61034a6103a1366004613247565b610a8b565b6102e16102dc366004613262565b603c54610373906001600160a01b031681565b6103296103d53660046132a0565b610b8c565b604051601281526020016102b0565b6103fc6103f7366004613196565b610e2c565b604080519283526020830191909152016102b0565b61034a61041f3660046132ec565b610f6f565b610329610432366004613262565b610f85565b610329610445366004613247565b6001600160a01b03165f908152603d602052604090205490565b61034a61046d366004613247565b611225565b610329610480366004613247565b6001600160a01b03165f9081526044602052604090205490565b6103296104a8366004613196565b61129a565b603c546001600160a01b0316610373565b6104c661131b565b6040516102b09796959493929190613388565b6103296104e7366004613247565b60026020525f908152604090205481565b61050061135d565b6040516001600160e01b031990911681526020016102b0565b610329610527366004613247565b611383565b61037361053a3660046133f7565b61153b565b6102c1611563565b5f54610373906001600160a01b031681565b61034a61056736600461316c565b611572565b6105746115f6565b6040516102b0919061340e565b61059461058f366004613247565b611655565b604080519384526020840192909252908201526060016102b0565b6103296105bd366004613247565b6118e6565b6046546001600160a01b0316610373565b61034a6105e136600461316c565b611952565b61034a6105f4366004613247565b61195d565b61032960035481565b610329610610366004613247565b611972565b61037361062336600461316c565b611b10565b61034a61063636600461344e565b611b44565b610329610649366004613196565b6001600160a01b039182165f908152603e6020908152604080832093909416825291909152205490565b6106ca610681366004613247565b60396020525f908152604090208054600182015460028301546003840154600485015460058601546006909601546001600160a01b039095169593949293919290919060ff1687565b604080516001600160a01b0390981688526020880196909652948601939093526060850191909152608084015260a0830152151560c082015260e0016102b0565b6103737f000000000000000000000000000000000000000000000000000000000000000081565b6103736107403660046133f7565b611c85565b6103297f3f8f1584d261c3704820464a741b70ed265924afb92939f833452d3a71c21c9c81565b61077f61077a366004613247565b611c94565b6040516102b09190613482565b61034a61079a3660046134d6565b611d4b565b6107b26107ad366004613247565b611de3565b604080519586526020860194909452928401919091526060830152608082015260a0016102b0565b603c54604051634e91ecf960e11b81526060916001600160a01b031690639d23d9f29061080b90859060040161340e565b5f60405180830381865afa158015610825573d5f803e3d5ffd5b505050506040513d5f823e601f3d908101601f1916820160405261084c91908101906134f9565b92915050565b6060604080546108619061357a565b80601f016020809104026020016040519081016040528092919081815260200182805461088d9061357a565b80156108d85780601f106108af576101008083540402835291602001916108d8565b820191905f5260205f20905b8154815290600101906020018083116108bb57829003601f168201915b5050505050905090565b60405162461bcd60e51b815260206004820152601760248201527f4f5045524154494f4e5f4e4f545f535550504f5254454400000000000000000060448201525f906064015b60405180910390fd5b834211156109765760405162461bcd60e51b815260206004820152601260248201527124a72b20a624a22fa2ac2824a920aa24a7a760711b6044820152606401610928565b6001600160a01b038781165f818152604560209081526040808320948b168084529482528083205481517f3f8f1584d261c3704820464a741b70ed265924afb92939f833452d3a71c21c9c81850152808301959095526060850195909552608084018a905260a084019490945260c08084018990528451808503909101815260e09093019093528151919092012090610a0e82611f85565b90505f610a1d82878787611fb1565b9050896001600160a01b0316816001600160a01b031614610a745760405162461bcd60e51b8152602060048201526011602482015270494e56414c49445f5349474e415455524560781b6044820152606401610928565b610a7f8a8a8a611fdd565b50505050505050505050565b5f5b600854811015610b88575f60088281548110610aab57610aab6135b2565b5f9182526020822001546001600160a01b0316915080610acb8386610e2c565b90925090508115610b485760405163a9059cbb60e01b81526001600160a01b0386811660048301526024820184905284169063a9059cbb906044016020604051808303815f875af1158015610b22573d5f803e3d5ffd5b505050506040513d601f19601f82011682018060405250810190610b4691906135c6565b505b6001600160a01b038086165f9081526006602090815260408083209690931682529485528181209290925560079093529190912042905550600101610a8d565b5050565b5f808311610bac5760405162461bcd60e51b8152600401610928906135e1565b6001600160a01b0384165f908152603960205260409020600681015460ff16610c255760405162461bcd60e51b815260206004820152602560248201527f526573657276654d616e616765723a20436f6c6c61746572616c206e6f742061604482015264637469766560d81b6064820152608401610928565b8054604051630359f7eb60e11b81526001600160a01b038581166004830152909116906306b3efd690602401602060405180830381865afa158015610c6c573d5f803e3d5ffd5b505050506040513d601f19601f82011682018060405250810190610c90919061362e565b5f03610cd4576001600160a01b038381165f908152603a602090815260408220805460018101825590835291200180546001600160a01b0319169187169190911790555b8054604051633d14d1b760e21b8152336004820152602481018690526001600160a01b0385811660448301529091169063f45346dc906064016020604051808303815f875af1158015610d29573d5f803e3d5ffd5b505050506040513d601f19601f82011682018060405250810190610d4d919061362e565b93508060050154815f015f9054906101000a90046001600160a01b03166001600160a01b031663ad7a672f6040518163ffffffff1660e01b8152600401602060405180830381865afa158015610da5573d5f803e3d5ffd5b505050506040513d601f19601f82011682018060405250810190610dc9919061362e565b1115610e235760405162461bcd60e51b8152602060048201526024808201527f526573657276654d616e616765723a2045786365656473206d6178206465706f6044820152637369747360e01b6064820152608401610928565b50919392505050565b6001600160a01b0382165f9081526007602052604081205481908190610e529042613659565b6001600160a01b0386165f908152600460208181526040808420546005835293205491905291925090670de0b6b3a7640000908390610e91908461366c565b610e9b919061366c565b610ea59190613683565b610eaf91906136a2565b9150610eba603f5490565b5f03610ec9575f925050610f68565b6001600160a01b038085165f908152600660209081526040808320938916835292905220548015610f65575f610eff8285613659565b9050610f0a603f5490565b610f1c90670de0b6b3a764000061366c565b81610f3b886001600160a01b03165f908152603d602052604090205490565b610f4d90670de0b6b3a764000061366c565b610f57919061366c565b610f619190613683565b9450505b50505b9250929050565b610f7b335b5f3661203e565b610b888282612137565b6001600160a01b0382165f90815260396020526040812082610fb95760405162461bcd60e51b8152600401610928906135e1565b80546001600160a01b03166110105760405162461bcd60e51b815260206004820152601d60248201527f526573657276654d616e616765723a20496e76616c6964207661756c740000006044820152606401610928565b8054604051636ce5768960e11b81523360048201526001600160a01b038781166024830152604482018690529091169063d9caed12906064015f604051808303815f87803b158015611060575f80fd5b505af1158015611072573d5f803e3d5ffd5b50508254604051630359f7eb60e11b81523360048201526001600160a01b0390911692506306b3efd69150602401602060405180830381865afa1580156110bb573d5f803e3d5ffd5b505050506040513d601f19601f820116820180604052508101906110df919061362e565b5f0361121c575f5b335f908152603a602052604090205481101561121a57335f908152603a6020526040902080546001600160a01b038716919083908110611129576111296135b2565b5f918252602090912001546001600160a01b03160361121257335f908152603a60205260409020805461115e90600190613659565b8154811061116e5761116e6135b2565b5f918252602080832090910154338352603a909152604090912080546001600160a01b0390921691839081106111a6576111a66135b2565b5f91825260208083209190910180546001600160a01b0319166001600160a01b039490941693909317909255338152603a909152604090208054806111ed576111ed6136b5565b5f8281526020902081015f1990810180546001600160a01b031916905501905561121a565b6001016110e7565b505b50909392505050565b60465433906001600160a01b0316811461125c5760405162d1953b60e31b81526001600160a01b0382166004820152602401610928565b816001600160a01b03163b5f03611291576040516361798f2f60e11b81526001600160a01b0383166004820152602401610928565b610b88826124e9565b6001600160a01b038281165f90815260396020526040808220549051630359f7eb60e11b81528484166004820152919216906306b3efd690602401602060405180830381865afa1580156112f0573d5f803e3d5ffd5b505050506040513d601f19601f82011682018060405250810190611314919061362e565b9392505050565b5f6060805f805f606061132c61253d565b61133461256a565b604080515f80825260208201909252600f60f81b9b939a50919850469750309650945092509050565b6046545f90600160a01b900460ff1661137557505f90565b638fb3603760e01b5b905090565b5f80600354426113939190613659565b90505f6001546127106301e133806113ab919061366c565b5f5460408051637c3a00fd60e01b8152905186926001600160a01b031691637c3a00fd9160048083019260209291908290030181865afa1580156113f1573d5f803e3d5ffd5b505050506040513d601f19601f82011682018060405250810190611415919061362e565b600154611422919061366c565b61142c919061366c565b6114369190613683565b61144091906136a2565b6001600160a01b0385165f9081526002602052604090205490915080156114d0576001600160a01b0385165f908152600260205260408120546114839084613659565b9050670de0b6b3a7640000816114ad886001600160a01b03165f908152603d602052604090205490565b6114b7919061366c565b6114c19190613683565b94506114ce868787612597565b505b6001600160a01b0385165f9081526002602090815260408083208590554260035560018590553380845292819020548151868152928301527f9c2eff7525daf0137606868ca6d7903e4d76d5f03defbae3e5d61ea068f09d3f910160405180910390a2505050919050565b603b818154811061154a575f80fd5b5f918252602090912001546001600160a01b0316905081565b6060604180546108619061357a565b61157b33610f74565b60088054600181019091557ff3f7a9fe364faab93b216da50a3214154f22a0a2b415b23a84c8169e8b636ee30180546001600160a01b039093166001600160a01b0319909316831790555f918252600460209081526040808420670de0b6b3a764000090556005825280842092909255600790529020429055565b6060603b8054806020026020016040519081016040528092919081815260200182805480156108d857602002820191905f5260205f20905b81546001600160a01b0316815260019091019060200180831161162e575050505050905090565b5f805f806116db603a5f876001600160a01b03166001600160a01b031681526020019081526020015f208054806020026020016040519081016040528092919081815260200182805480156116d157602002820191905f5260205f20905b81546001600160a01b031681526001909101906020018083116116b3575b50505050506107da565b90505f5b6001600160a01b0386165f908152603a60205260409020548110156118dd576001600160a01b0386165f908152603a60205260408120805483908110611727576117276135b2565b5f9182526020808320909101546001600160a01b0316808352603982526040808420815163313ce56760e01b815291519295509392859263313ce5679260048082019392918290030181865afa158015611783573d5f803e3d5ffd5b505050506040513d601f19601f820116820180604052508101906117a791906136c9565b6117b290600a6137c4565b6117c0906305f5e10061366c565b8585815181106117d2576117d26135b2565b60209081029190910101518354604051630359f7eb60e11b81526001600160a01b038d81166004830152909116906306b3efd690602401602060405180830381865afa158015611824573d5f803e3d5ffd5b505050506040513d601f19601f82011682018060405250810190611848919061362e565b61185a90670de0b6b3a764000061366c565b611864919061366c565b61186e9190613683565b905061187a81896136a2565b975061271082600101548261188f919061366c565b6118999190613683565b6118a390886136a2565b96506127108260020154826118b8919061366c565b6118c29190613683565b6118cc90876136a2565b955050600190920191506116df9050565b50509193909250565b603c5460405163b3596f0760e01b81526001600160a01b0383811660048301525f92169063b3596f0790602401602060405180830381865afa15801561192e573d5f803e3d5ffd5b505050506040513d601f19601f8201168201806040525081019061084c919061362e565b610b88338383611fdd565b61196633610f74565b61196f816125c5565b50565b5f807f00000000000000000000000000000000000000000000000000000000000000006001600160a01b031663636fc28b6040518163ffffffff1660e01b8152600401602060405180830381865afa1580156119d0573d5f803e3d5ffd5b505050506040513d601f19601f820116820180604052508101906119f491906137d2565b6001600160a01b031663247ac0636040518163ffffffff1660e01b8152600401602060405180830381865afa158015611a2f573d5f803e3d5ffd5b505050506040513d601f19601f82011682018060405250810190611a5391906137d2565b60405163b3596f0760e01b81526001600160a01b037f0000000000000000000000000000000000000000000000000000000000000000811660048301529192506305f5e1009183169063b3596f0790602401602060405180830381865afa158015611ac0573d5f803e3d5ffd5b505050506040513d601f19601f82011682018060405250810190611ae4919061362e565b6001600160a01b0385165f908152603d6020526040902054611b06919061366c565b6113149190613683565b603a602052815f5260405f208181548110611b29575f80fd5b5f918252602090912001546001600160a01b03169150829050565b611b4d82611383565b50611b5782610a8b565b604051630d4d151360e01b81526001600160a01b037f0000000000000000000000000000000000000000000000000000000000000000811660048301526024820185905282811660448301527f00000000000000000000000000000000000000000000000000000000000000001690630d4d1513906064015f604051808303815f87803b158015611be6575f80fd5b505af1158015611bf8573d5f803e3d5ffd5b50505050611c07338385612597565b5f611c1183611de3565b945050505050670de0b6b3a7640000811015611c7f5760405162461bcd60e51b815260206004820152602760248201527f4c6971756964697479506c7567696e3a204163636f756e74206865616c74682060448201526662656c6f77203160c81b6064820152608401610928565b50505050565b6008818154811061154a575f80fd5b611cd86040518060e001604052805f6001600160a01b031681526020015f81526020015f81526020015f81526020015f81526020015f81526020015f151581525090565b506001600160a01b039081165f90815260396020908152604091829020825160e081018452815490941684526001810154918401919091526002810154918301919091526003810154606083015260048101546080830152600581015460a08301526006015460ff16151560c082015290565b611d5481611383565b50611d5e81610a8b565b60405163079cc67960e41b8152336004820152602481018390527f00000000000000000000000000000000000000000000000000000000000000006001600160a01b0316906379cc6790906044015f604051808303815f87803b158015611dc3575f80fd5b505af1158015611dd5573d5f803e3d5ffd5b50505050610b888183612783565b5f805f805f611e0e604051806040016040528060058152602001642d2d2d2d2d60d81b81525061278d565b611e3f60405180604001604052806008815260200167026b0b935b2ba1d160c51b815250611e3a610852565b6127d0565b611e6a60405180604001604052806009815260200168020b1b1b7bab73a1d160bd1b81525087612815565b611e7386611972565b9450611ea66040518060400160405280600f81526020016e02ab9b2b9103232b13a102aa9a21d1608d1b8152508661285a565b611eaf86611655565b60408051808201909152601281527102ab9b2b9103130b630b731b2902aa9a21d160751b60208201529296509094509250611eea908561285a565b611f2260405180604001604052806016815260200175020b2353ab9ba32b2103130b630b731b2902aa9a21d160551b8152508461285a565b611f536040518060400160405280600f81526020016e02a343932b9b437b632102aa9a21d1608d1b8152508361285a565b505f198415611f7c5784611f6f84670de0b6b3a764000061366c565b611f799190613683565b90505b91939590929450565b5f61084c611f9161289f565b8360405161190160f01b8152600281019290925260228201526042902090565b5f805f80611fc1888888886129c8565b925092509250611fd18282612a90565b50909695505050505050565b6001600160a01b038381165f8181526045602090815260408083209487168084529482529182902085905590518481527fe840c5397d4cc6701cb0a4091d296f8b9d45f0b6a02edfb20e83d45481db5fc191015b60405180910390a3505050565b5f806120726120556046546001600160a01b031690565b863061206460045f898b6137ed565b61206d91613814565b612b48565b91509150816121305763ffffffff81161561210d576046805460ff60a01b198116600160a01b17909155604051634a63ebf760e11b81526001600160a01b03909116906394c7d7ee906120cd90889088908890600401613844565b5f604051808303815f87803b1580156120e4575f80fd5b505af11580156120f6573d5f803e3d5ffd5b50506046805460ff60a01b19169055506121309050565b60405162d1953b60e31b81526001600160a01b0386166004820152602401610928565b5050505050565b5f8160200151116121a25760405162461bcd60e51b815260206004820152602f60248201527f526573657276654d616e616765723a2042617365204c5456206d75737420626560448201526e02067726561746572207468616e203608c1b6064820152608401610928565b5f81604001511161221b5760405162461bcd60e51b815260206004820152603c60248201527f526573657276654d616e616765723a204c69717569646174696f6e207468726560448201527f73686f6c64206d7573742062652067726561746572207468616e2030000000006064820152608401610928565b8060c0015161227e5760405162461bcd60e51b815260206004820152602960248201527f526573657276654d616e616765723a20436f6c6c61746572616c206d7573742060448201526862652061637469766560b81b6064820152608401610928565b5f8160600151116122f75760405162461bcd60e51b815260206004820152603860248201527f526573657276654d616e616765723a204c69717569646174696f6e20626f6e7560448201527f73206d7573742062652067726561746572207468616e203000000000000000006064820152608401610928565b80516001600160a01b031661234e5760405162461bcd60e51b815260206004820152601d60248201527f526573657276654d616e616765723a20496e76616c6964207661756c740000006044820152606401610928565b6001600160a01b038281165f908152603960209081526040808320855181546001600160a01b03191695169490941784559084015160018401558301516002830155606083015160038301556080830151600483015560a0830151600583015560c08301516006909201805460ff191692151592909217909155805b603b5481101561241b57836001600160a01b0316603b82815481106123f1576123f16135b2565b5f918252602090912001546001600160a01b031603612413576001915061241b565b6001016123ca565b50806124ab57603b80546001810182555f919091527fbbe3212124853f8b0084a66a2d057c2966e251e132af3691db153ab65f0d1a4d0180546001600160a01b0319166001600160a01b0385169081179091556040517f4aaf2a929b9dba2dd62b2b6b66effb3965eaaef79fdb62fb89a6de3acbc0cb4d9061249e908590613482565b60405180910390a2505050565b826001600160a01b03167f865761f7d4b36be681fcc07404e334da0bf6bac1767a28b0aad18fc299b7035f8360405161249e9190613482565b505050565b604680546001600160a01b0319166001600160a01b0383169081179091556040519081527f2f658b440c35314f52658ea8a740e05b284cdc84dc9ae01e891f21b8933e7cad9060200160405180910390a150565b606061137e7f00000000000000000000000000000000000000000000000000000000000000006042612c50565b606061137e7f00000000000000000000000000000000000000000000000000000000000000006043612c50565b816001600160a01b0316836001600160a01b0316146125bb576125bb828483612cf9565b6124e48282612d93565b6001600160a01b0381165f90815260396020526040812080546001600160a01b03191681556001810182905560028101829055600381018290556004810182905560058101829055600601805460ff191690555b335f908152603a602052604090205481101561274c57335f908152603a6020526040902080546001600160a01b03841691908390811061265b5761265b6135b2565b5f918252602090912001546001600160a01b03160361274457335f908152603a60205260409020805461269090600190613659565b815481106126a0576126a06135b2565b5f918252602080832090910154338352603a909152604090912080546001600160a01b0390921691839081106126d8576126d86135b2565b5f91825260208083209190910180546001600160a01b0319166001600160a01b039490941693909317909255338152603a9091526040902080548061271f5761271f6136b5565b5f8281526020902081015f1990810180546001600160a01b031916905501905561274c565b600101612619565b506040516001600160a01b038216907fd89d2ee68ab04dca0193f48a4aff55e20fa5ec0429a8a8c1c51b8dad6178a593905f90a250565b610b888282612dc7565b61196f816040516024016127a1919061315a565b60408051601f198184030181529190526020810180516001600160e01b031663104c13eb60e21b179052612dfb565b610b8882826040516024016127e6929190613883565b60408051601f198184030181529190526020810180516001600160e01b0316634b5c427760e01b179052612dfb565b610b88828260405160240161282b9291906138b0565b60408051601f198184030181529190526020810180516001600160e01b031663319af33360e01b179052612dfb565b610b8882826040516024016128709291906138d9565b60408051601f198184030181529190526020810180516001600160e01b03166309710a9d60e41b179052612dfb565b5f306001600160a01b037f0000000000000000000000000000000000000000000000000000000000000000161480156128f757507f000000000000000000000000000000000000000000000000000000000000000046145b1561292157507f000000000000000000000000000000000000000000000000000000000000000090565b61137e604080517f8b73c3c69bb8fe3d512ecc4cf759cc79239f7b179b0ffacaa9a75d522b39400f60208201527f0000000000000000000000000000000000000000000000000000000000000000918101919091527f000000000000000000000000000000000000000000000000000000000000000060608201524660808201523060a08201525f9060c00160405160208183030381529060405280519060200120905090565b5f80807f7fffffffffffffffffffffffffffffff5d576e7357a4501ddfe92f46681b20a0841115612a0157505f91506003905082612a86565b604080515f808252602082018084528a905260ff891692820192909252606081018790526080810186905260019060a0016020604051602081039080840390855afa158015612a52573d5f803e3d5ffd5b5050604051601f1901519150506001600160a01b038116612a7d57505f925060019150829050612a86565b92505f91508190505b9450945094915050565b5f826003811115612aa357612aa36138fa565b03612aac575050565b6001826003811115612ac057612ac06138fa565b03612ade5760405163f645eedf60e01b815260040160405180910390fd5b6002826003811115612af257612af26138fa565b03612b135760405163fce698f760e01b815260048101829052602401610928565b6003826003811115612b2757612b276138fa565b03610b88576040516335e2f38360e21b815260048101829052602401610928565b6040516001600160a01b03848116602483015283811660448301526001600160e01b0319831660648301525f9182918291829189169060840160408051601f198184030181529181526020820180516001600160e01b031663b700961360e01b17905251612bb6919061390e565b5f60405180830381855afa9150503d805f8114612bee576040519150601f19603f3d011682016040523d82523d5f602084013e612bf3565b606091505b50915091508115612c45576040815110612c255780806020019051810190612c1b9190613924565b9094509250612c45565b6020815110612c455780806020019051810190612c4291906135c6565b93505b505094509492505050565b606060ff8314612c6a57612c6383612e04565b905061084c565b818054612c769061357a565b80601f0160208091040260200160405190810160405280929190818152602001828054612ca29061357a565b8015612ced5780601f10612cc457610100808354040283529160200191612ced565b820191905f5260205f20905b815481529060010190602001808311612cd057829003601f168201915b5050505050905061084c565b6001600160a01b038084165f908152604560209081526040808320938616835292905290812054612d2b908390613659565b6001600160a01b038581165f818152604560209081526040808320948916808452948252918290208590559051848152939450919290917fe840c5397d4cc6701cb0a4091d296f8b9d45f0b6a02edfb20e83d45481db5fc1910160405180910390a350505050565b6001600160a01b038216612dbc5760405163ec442f0560e01b81525f6004820152602401610928565b610b885f8383612e41565b6001600160a01b038216612df057604051634b637e8f60e11b81525f6004820152602401610928565b610b88825f83612e41565b61196f81612f5a565b60605f612e1083612f7a565b6040805160208082528183019092529192505f91906020820181803683375050509182525060208101929092525090565b6001600160a01b038316612e6b5780603f5f828254612e6091906136a2565b90915550612edb9050565b6001600160a01b0383165f908152603d602052604090205481811015612ebd5760405163391434e360e21b81526001600160a01b03851660048201526024810182905260448101839052606401610928565b6001600160a01b0384165f908152603d602052604090209082900390555b6001600160a01b038216612ef757603f80548290039055612f15565b6001600160a01b0382165f908152603d602052604090208054820190555b816001600160a01b0316836001600160a01b03167fddf252ad1be2c89b69c2b068fc378daa952ba7f163c4a11628f55a4df523b3ef8360405161203191815260200190565b80516a636f6e736f6c652e6c6f67602083015f808483855afa5050505050565b5f60ff8216601f81111561084c57604051632cd44ac360e21b815260040160405180910390fd5b634e487b7160e01b5f52604160045260245ffd5b60405160e0810167ffffffffffffffff81118282101715612fd857612fd8612fa1565b60405290565b604051601f8201601f1916810167ffffffffffffffff8111828210171561300757613007612fa1565b604052919050565b5f67ffffffffffffffff82111561302857613028612fa1565b5060051b60200190565b6001600160a01b038116811461196f575f80fd5b5f6020808385031215613057575f80fd5b823567ffffffffffffffff81111561306d575f80fd5b8301601f8101851361307d575f80fd5b803561309061308b8261300f565b612fde565b81815260059190911b820183019083810190878311156130ae575f80fd5b928401925b828410156130d55783356130c681613032565b825292840192908401906130b3565b979650505050505050565b5f815180845260208085019450602084015f5b8381101561310f578151875295820195908201906001016130f3565b509495945050505050565b602081525f61131460208301846130e0565b5f81518084528060208401602086015e5f602082860101526020601f19601f83011685010191505092915050565b602081525f611314602083018461312c565b5f806040838503121561317d575f80fd5b823561318881613032565b946020939093013593505050565b5f80604083850312156131a7575f80fd5b82356131b281613032565b915060208301356131c281613032565b809150509250929050565b60ff8116811461196f575f80fd5b5f805f805f805f60e0888a0312156131f1575f80fd5b87356131fc81613032565b9650602088013561320c81613032565b95506040880135945060608801359350608088013561322a816131cd565b9699959850939692959460a0840135945060c09093013592915050565b5f60208284031215613257575f80fd5b813561131481613032565b5f805f60608486031215613274575f80fd5b833561327f81613032565b9250602084013561328f81613032565b929592945050506040919091013590565b5f805f606084860312156132b2575f80fd5b83356132bd81613032565b92506020840135915060408401356132d481613032565b809150509250925092565b801515811461196f575f80fd5b5f808284036101008112156132ff575f80fd5b833561330a81613032565b925060e0601f198201121561331d575f80fd5b50613326612fb5565b602084013561333481613032565b8082525060408401356020820152606084013560408201526080840135606082015260a0840135608082015260c084013560a082015260e0840135613378816132df565b60c0820152919491935090915050565b60ff60f81b8816815260e060208201525f6133a660e083018961312c565b82810360408401526133b8818961312c565b606084018890526001600160a01b038716608085015260a0840186905283810360c085015290506133e981856130e0565b9a9950505050505050505050565b5f60208284031215613407575f80fd5b5035919050565b602080825282518282018190525f9190848201906040850190845b81811015611fd15783516001600160a01b031683529284019291840191600101613429565b5f805f60608486031215613460575f80fd5b83359250602084013561347281613032565b915060408401356132d481613032565b81516001600160a01b031681526020808301519082015260408083015190820152606080830151908201526080808301519082015260a0828101519082015260c09182015115159181019190915260e00190565b5f80604083850312156134e7575f80fd5b8235915060208301356131c281613032565b5f602080838503121561350a575f80fd5b825167ffffffffffffffff811115613520575f80fd5b8301601f81018513613530575f80fd5b805161353e61308b8261300f565b81815260059190911b8201830190838101908783111561355c575f80fd5b928401925b828410156130d557835182529284019290840190613561565b600181811c9082168061358e57607f821691505b6020821081036135ac57634e487b7160e01b5f52602260045260245ffd5b50919050565b634e487b7160e01b5f52603260045260245ffd5b5f602082840312156135d6575f80fd5b8151611314816132df565b6020808252602d908201527f526573657276654d616e616765723a20416d6f756e74206d757374206265206760408201526c0726561746572207468616e203609c1b606082015260800190565b5f6020828403121561363e575f80fd5b5051919050565b634e487b7160e01b5f52601160045260245ffd5b8181038181111561084c5761084c613645565b808202811582820484141761084c5761084c613645565b5f8261369d57634e487b7160e01b5f52601260045260245ffd5b500490565b8082018082111561084c5761084c613645565b634e487b7160e01b5f52603160045260245ffd5b5f602082840312156136d9575f80fd5b8151611314816131cd565b600181815b8085111561371e57815f190482111561370457613704613645565b8085161561371157918102915b93841c93908002906136e9565b509250929050565b5f826137345750600161084c565b8161374057505f61084c565b816001811461375657600281146137605761377c565b600191505061084c565b60ff84111561377157613771613645565b50506001821b61084c565b5060208310610133831016604e8410600b841016171561379f575081810a61084c565b6137a983836136e4565b805f19048211156137bc576137bc613645565b029392505050565b5f61131460ff841683613726565b5f602082840312156137e2575f80fd5b815161131481613032565b5f80858511156137fb575f80fd5b83861115613807575f80fd5b5050820193919092039150565b6001600160e01b0319813581811691600485101561383c5780818660040360031b1b83161692505b505092915050565b6001600160a01b03841681526040602082018190528101829052818360608301375f818301606090810191909152601f909201601f1916010192915050565b604081525f613895604083018561312c565b82810360208401526138a7818561312c565b95945050505050565b604081525f6138c2604083018561312c565b905060018060a01b03831660208301529392505050565b604081525f6138eb604083018561312c565b90508260208301529392505050565b634e487b7160e01b5f52602160045260245ffd5b5f82518060208501845e5f920191825250919050565b5f8060408385031215613935575f80fd5b8251613940816132df565b602084015190925063ffffffff811681146131c2575f80fdfea2646970667358221220b6e8080f7cfb2cf03521c3a4322af84aba7904e80ca154ee65cc934c07f32f7064736f6c63430008190033","linkReferences":{}},"methodIdentifiers":{"DELEGATION_WITH_SIG_TYPEHASH()":"f3bfc738","_oracle()":"247ac063","accountIndex(address)":"866b0138","accrueInterest(address)":"9198e515","accumulatedRewards(address,address)":"43636121","addCollateral(address,(address,uint256,uint256,uint256,uint256,uint256,bool))":"59c6b038","addReward(address,uint256)":"9feb8f50","allCollaterals(uint256)":"933d6495","allowance(address,address)":"dd62ed3e","approve(address,uint256)":"095ea7b3","approveDelegation(address,uint256)":"c04a8a10","authority()":"bf7e214f","balanceOf(address)":"70a08231","burn(uint256,address)":"fcd3533c","collaterals(address)":"eeb97d3b","debtAllowance(address,address)":"0b2d9070","decimals()":"313ce567","delegationWithSig(address,address,uint256,uint256,uint8,bytes32,bytes32)":"0b52d558","distributeRewards(address)":"1de9d9b6","eip712Domain()":"84b0196e","enabledCollaterals(address,uint256)":"d6599934","getAllCollaterals()":"a41c8c0b","getAssetPrice(address)":"b3596f07","getAssetPrices(address[])":"053c81b5","getCollateralConfig(address)":"f6a44b38","getOracle()":"833b1fce","getUserAssetsUSD(address)":"ace6c09c","getUserData(address)":"ffc9896b","getUserDebtUSD(address)":"d28e512d","irModel()":"95dcf918","isConsumingScheduledOp()":"8fb36037","lastUpdated()":"d0b06f5d","mint(uint256,address,address)":"da39b3e7","name()":"06fdde03","nonces(address)":"7ecebe00","plugin()":"ef01df4f","removeCollateral(address)":"c99d3a06","rewards(uint256)":"f301af42","setAuthority(address)":"7a9e5e4b","stake(address,uint256,address)":"294091cd","stakedBalance(address,address)":"8229084b","symbol()":"95d89b41","synth()":"115f4fee","totalSupply()":"18160ddd","transfer(address,uint256)":"a9059cbb","transferFrom(address,address,uint256)":"23b872dd","unstake(address,address,uint256)":"60829f8a"},"id":91}