{"abi":[{"type":"constructor","inputs":[{"name":"_name","type":"string","internalType":"string"},{"name":"_symbol","type":"string","internalType":"string"},{"name":"_collateralOracle","type":"address","internalType":"address"},{"name":"_authority","type":"address","internalType":"address"},{"name":"_plugin","type":"address","internalType":"address"},{"name":"_synth","type":"address","internalType":"address"},{"name":"_irModel","type":"address","internalType":"address"}],"stateMutability":"nonpayable"},{"type":"function","name":"DELEGATION_WITH_SIG_TYPEHASH","inputs":[],"outputs":[{"name":"","type":"bytes32","internalType":"bytes32"}],"stateMutability":"view"},{"type":"function","name":"accountIndex","inputs":[{"name":"","type":"address","internalType":"address"}],"outputs":[{"name":"","type":"uint256","internalType":"uint256"}],"stateMutability":"view"},{"type":"function","name":"accrueInterest","inputs":[{"name":"account","type":"address","internalType":"address"}],"outputs":[{"name":"interestAmount","type":"uint256","internalType":"uint256"}],"stateMutability":"nonpayable"},{"type":"function","name":"accumulatedRewards","inputs":[{"name":"reward","type":"address","internalType":"address"},{"name":"account","type":"address","internalType":"address"}],"outputs":[{"name":"rewardAmount","type":"uint256","internalType":"uint256"},{"name":"newIndex","type":"uint256","internalType":"uint256"}],"stateMutability":"view"},{"type":"function","name":"addCollateral","inputs":[{"name":"asset","type":"address","internalType":"address"},{"name":"config","type":"tuple","internalType":"struct Reserve.Collateral","components":[{"name":"vault","type":"address","internalType":"address"},{"name":"baseLTV","type":"uint256","internalType":"uint256"},{"name":"liquidationThreshold","type":"uint256","internalType":"uint256"},{"name":"liquidationBonus","type":"uint256","internalType":"uint256"},{"name":"liquidationFee","type":"uint256","internalType":"uint256"},{"name":"maxDeposits","type":"uint256","internalType":"uint256"},{"name":"active","type":"bool","internalType":"bool"}]}],"outputs":[],"stateMutability":"nonpayable"},{"type":"function","name":"addReward","inputs":[{"name":"reward","type":"address","internalType":"address"},{"name":"speed","type":"uint256","internalType":"uint256"}],"outputs":[],"stateMutability":"nonpayable"},{"type":"function","name":"allowance","inputs":[{"name":"owner","type":"address","internalType":"address"},{"name":"spender","type":"address","internalType":"address"}],"outputs":[{"name":"","type":"uint256","internalType":"uint256"}],"stateMutability":"view"},{"type":"function","name":"approve","inputs":[{"name":"spender","type":"address","internalType":"address"},{"name":"amount","type":"uint256","internalType":"uint256"}],"outputs":[{"name":"","type":"bool","internalType":"bool"}],"stateMutability":"nonpayable"},{"type":"function","name":"approveDelegation","inputs":[{"name":"delegatee","type":"address","internalType":"address"},{"name":"amount","type":"uint256","internalType":"uint256"}],"outputs":[],"stateMutability":"nonpayable"},{"type":"function","name":"authority","inputs":[],"outputs":[{"name":"","type":"address","internalType":"address"}],"stateMutability":"view"},{"type":"function","name":"balanceOf","inputs":[{"name":"account","type":"address","internalType":"address"}],"outputs":[{"name":"","type":"uint256","internalType":"uint256"}],"stateMutability":"view"},{"type":"function","name":"burn","inputs":[{"name":"amount","type":"uint256","internalType":"uint256"},{"name":"onBehalfOf","type":"address","internalType":"address"}],"outputs":[],"stateMutability":"nonpayable"},{"type":"function","name":"debtAllowance","inputs":[{"name":"delegator","type":"address","internalType":"address"},{"name":"delegatee","type":"address","internalType":"address"}],"outputs":[{"name":"","type":"uint256","internalType":"uint256"}],"stateMutability":"view"},{"type":"function","name":"decimals","inputs":[],"outputs":[{"name":"","type":"uint8","internalType":"uint8"}],"stateMutability":"view"},{"type":"function","name":"delegationWithSig","inputs":[{"name":"delegator","type":"address","internalType":"address"},{"name":"delegatee","type":"address","internalType":"address"},{"name":"value","type":"uint256","internalType":"uint256"},{"name":"deadline","type":"uint256","internalType":"uint256"},{"name":"v","type":"uint8","internalType":"uint8"},{"name":"r","type":"bytes32","internalType":"bytes32"},{"name":"s","type":"bytes32","internalType":"bytes32"}],"outputs":[],"stateMutability":"nonpayable"},{"type":"function","name":"distributeRewards","inputs":[{"name":"account","type":"address","internalType":"address"}],"outputs":[],"stateMutability":"nonpayable"},{"type":"function","name":"eip712Domain","inputs":[],"outputs":[{"name":"fields","type":"bytes1","internalType":"bytes1"},{"name":"name","type":"string","internalType":"string"},{"name":"version","type":"string","internalType":"string"},{"name":"chainId","type":"uint256","internalType":"uint256"},{"name":"verifyingContract","type":"address","internalType":"address"},{"name":"salt","type":"bytes32","internalType":"bytes32"},{"name":"extensions","type":"uint256[]","internalType":"uint256[]"}],"stateMutability":"view"},{"type":"function","name":"enabledCollaterals","inputs":[{"name":"","type":"address","internalType":"address"},{"name":"","type":"uint256","internalType":"uint256"}],"outputs":[{"name":"","type":"address","internalType":"address"}],"stateMutability":"view"},{"type":"function","name":"getAllCollaterals","inputs":[],"outputs":[{"name":"","type":"address[]","internalType":"address[]"}],"stateMutability":"view"},{"type":"function","name":"getCollateralConfig","inputs":[{"name":"asset","type":"address","internalType":"address"}],"outputs":[{"name":"","type":"tuple","internalType":"struct Reserve.Collateral","components":[{"name":"vault","type":"address","internalType":"address"},{"name":"baseLTV","type":"uint256","internalType":"uint256"},{"name":"liquidationThreshold","type":"uint256","internalType":"uint256"},{"name":"liquidationBonus","type":"uint256","internalType":"uint256"},{"name":"liquidationFee","type":"uint256","internalType":"uint256"},{"name":"maxDeposits","type":"uint256","internalType":"uint256"},{"name":"active","type":"bool","internalType":"bool"}]}],"stateMutability":"view"},{"type":"function","name":"getUserAssetsUSD","inputs":[{"name":"user","type":"address","internalType":"address"}],"outputs":[{"name":"totalAssetsUSD","type":"uint256","internalType":"uint256"},{"name":"adjustedUSD","type":"uint256","internalType":"uint256"},{"name":"thresholdUSD","type":"uint256","internalType":"uint256"}],"stateMutability":"view"},{"type":"function","name":"getUserData","inputs":[{"name":"account","type":"address","internalType":"address"}],"outputs":[{"name":"userDebtUSD","type":"uint256","internalType":"uint256"},{"name":"userBalanceUSD","type":"uint256","internalType":"uint256"},{"name":"adjustedBalanceUSD","type":"uint256","internalType":"uint256"},{"name":"thresholdUSD","type":"uint256","internalType":"uint256"},{"name":"accountHealth","type":"uint256","internalType":"uint256"}],"stateMutability":"view"},{"type":"function","name":"getUserDebtUSD","inputs":[{"name":"account","type":"address","internalType":"address"}],"outputs":[{"name":"","type":"uint256","internalType":"uint256"}],"stateMutability":"view"},{"type":"function","name":"irModel","inputs":[],"outputs":[{"name":"","type":"address","internalType":"contract IRModel"}],"stateMutability":"view"},{"type":"function","name":"isConsumingScheduledOp","inputs":[],"outputs":[{"name":"","type":"bytes4","internalType":"bytes4"}],"stateMutability":"view"},{"type":"function","name":"lastUpdated","inputs":[],"outputs":[{"name":"","type":"uint256","internalType":"uint256"}],"stateMutability":"view"},{"type":"function","name":"mint","inputs":[{"name":"amount","type":"uint256","internalType":"uint256"},{"name":"onBehalfOf","type":"address","internalType":"address"},{"name":"receiver","type":"address","internalType":"address"}],"outputs":[],"stateMutability":"nonpayable"},{"type":"function","name":"name","inputs":[],"outputs":[{"name":"","type":"string","internalType":"string"}],"stateMutability":"view"},{"type":"function","name":"nonces","inputs":[{"name":"owner","type":"address","internalType":"address"}],"outputs":[{"name":"","type":"uint256","internalType":"uint256"}],"stateMutability":"view"},{"type":"function","name":"oracle","inputs":[],"outputs":[{"name":"","type":"address","internalType":"contract Oracle"}],"stateMutability":"view"},{"type":"function","name":"plugin","inputs":[],"outputs":[{"name":"","type":"address","internalType":"contract MarketsPlugin"}],"stateMutability":"view"},{"type":"function","name":"removeCollateral","inputs":[{"name":"asset","type":"address","internalType":"address"}],"outputs":[],"stateMutability":"nonpayable"},{"type":"function","name":"rewards","inputs":[{"name":"","type":"uint256","internalType":"uint256"}],"outputs":[{"name":"","type":"address","internalType":"address"}],"stateMutability":"view"},{"type":"function","name":"setAuthority","inputs":[{"name":"newAuthority","type":"address","internalType":"address"}],"outputs":[],"stateMutability":"nonpayable"},{"type":"function","name":"stake","inputs":[{"name":"asset","type":"address","internalType":"address"},{"name":"amount","type":"uint256","internalType":"uint256"},{"name":"onBehalfOf","type":"address","internalType":"address"}],"outputs":[{"name":"","type":"uint256","internalType":"uint256"}],"stateMutability":"nonpayable"},{"type":"function","name":"stakedBalance","inputs":[{"name":"asset","type":"address","internalType":"address"},{"name":"user","type":"address","internalType":"address"}],"outputs":[{"name":"","type":"uint256","internalType":"uint256"}],"stateMutability":"view"},{"type":"function","name":"symbol","inputs":[],"outputs":[{"name":"","type":"string","internalType":"string"}],"stateMutability":"view"},{"type":"function","name":"synth","inputs":[],"outputs":[{"name":"","type":"address","internalType":"contract Synth"}],"stateMutability":"view"},{"type":"function","name":"totalSupply","inputs":[],"outputs":[{"name":"","type":"uint256","internalType":"uint256"}],"stateMutability":"view"},{"type":"function","name":"transfer","inputs":[{"name":"recipient","type":"address","internalType":"address"},{"name":"amount","type":"uint256","internalType":"uint256"}],"outputs":[{"name":"","type":"bool","internalType":"bool"}],"stateMutability":"nonpayable"},{"type":"function","name":"transferFrom","inputs":[{"name":"sender","type":"address","internalType":"address"},{"name":"recipient","type":"address","internalType":"address"},{"name":"amount","type":"uint256","internalType":"uint256"}],"outputs":[{"name":"","type":"bool","internalType":"bool"}],"stateMutability":"nonpayable"},{"type":"function","name":"unstake","inputs":[{"name":"receiver","type":"address","internalType":"address"},{"name":"asset","type":"address","internalType":"address"},{"name":"amount","type":"uint256","internalType":"uint256"}],"outputs":[{"name":"","type":"uint256","internalType":"uint256"}],"stateMutability":"nonpayable"},{"type":"event","name":"Approval","inputs":[{"name":"owner","type":"address","indexed":true,"internalType":"address"},{"name":"spender","type":"address","indexed":true,"internalType":"address"},{"name":"value","type":"uint256","indexed":false,"internalType":"uint256"}],"anonymous":false},{"type":"event","name":"AuthorityUpdated","inputs":[{"name":"authority","type":"address","indexed":false,"internalType":"address"}],"anonymous":false},{"type":"event","name":"CollateralRemoved","inputs":[{"name":"asset","type":"address","indexed":true,"internalType":"address"}],"anonymous":false},{"type":"event","name":"CollateralUpdated","inputs":[{"name":"asset","type":"address","indexed":true,"internalType":"address"},{"name":"config","type":"tuple","indexed":false,"internalType":"struct Reserve.Collateral","components":[{"name":"vault","type":"address","internalType":"address"},{"name":"baseLTV","type":"uint256","internalType":"uint256"},{"name":"liquidationThreshold","type":"uint256","internalType":"uint256"},{"name":"liquidationBonus","type":"uint256","internalType":"uint256"},{"name":"liquidationFee","type":"uint256","internalType":"uint256"},{"name":"maxDeposits","type":"uint256","internalType":"uint256"},{"name":"active","type":"bool","internalType":"bool"}]}],"anonymous":false},{"type":"event","name":"DebtAllowanceDelegated","inputs":[{"name":"delegator","type":"address","indexed":true,"internalType":"address"},{"name":"delegatee","type":"address","indexed":true,"internalType":"address"},{"name":"value","type":"uint256","indexed":false,"internalType":"uint256"}],"anonymous":false},{"type":"event","name":"EIP712DomainChanged","inputs":[],"anonymous":false},{"type":"event","name":"InterestAccrued","inputs":[{"name":"marketIndex","type":"uint256","indexed":false,"internalType":"uint256"},{"name":"account","type":"address","indexed":true,"internalType":"address"},{"name":"accountIndex","type":"uint256","indexed":false,"internalType":"uint256"}],"anonymous":false},{"type":"event","name":"NewCollateral","inputs":[{"name":"asset","type":"address","indexed":true,"internalType":"address"},{"name":"config","type":"tuple","indexed":false,"internalType":"struct Reserve.Collateral","components":[{"name":"vault","type":"address","internalType":"address"},{"name":"baseLTV","type":"uint256","internalType":"uint256"},{"name":"liquidationThreshold","type":"uint256","internalType":"uint256"},{"name":"liquidationBonus","type":"uint256","internalType":"uint256"},{"name":"liquidationFee","type":"uint256","internalType":"uint256"},{"name":"maxDeposits","type":"uint256","internalType":"uint256"},{"name":"active","type":"bool","internalType":"bool"}]}],"anonymous":false},{"type":"event","name":"Transfer","inputs":[{"name":"from","type":"address","indexed":true,"internalType":"address"},{"name":"to","type":"address","indexed":true,"internalType":"address"},{"name":"value","type":"uint256","indexed":false,"internalType":"uint256"}],"anonymous":false},{"type":"error","name":"AccessManagedInvalidAuthority","inputs":[{"name":"authority","type":"address","internalType":"address"}]},{"type":"error","name":"AccessManagedRequiredDelay","inputs":[{"name":"caller","type":"address","internalType":"address"},{"name":"delay","type":"uint32","internalType":"uint32"}]},{"type":"error","name":"AccessManagedUnauthorized","inputs":[{"name":"caller","type":"address","internalType":"address"}]},{"type":"error","name":"ECDSAInvalidSignature","inputs":[]},{"type":"error","name":"ECDSAInvalidSignatureLength","inputs":[{"name":"length","type":"uint256","internalType":"uint256"}]},{"type":"error","name":"ECDSAInvalidSignatureS","inputs":[{"name":"s","type":"bytes32","internalType":"bytes32"}]},{"type":"error","name":"ERC20InsufficientAllowance","inputs":[{"name":"spender","type":"address","internalType":"address"},{"name":"allowance","type":"uint256","internalType":"uint256"},{"name":"needed","type":"uint256","internalType":"uint256"}]},{"type":"error","name":"ERC20InsufficientBalance","inputs":[{"name":"sender","type":"address","internalType":"address"},{"name":"balance","type":"uint256","internalType":"uint256"},{"name":"needed","type":"uint256","internalType":"uint256"}]},{"type":"error","name":"ERC20InvalidApprover","inputs":[{"name":"approver","type":"address","internalType":"address"}]},{"type":"error","name":"ERC20InvalidReceiver","inputs":[{"name":"receiver","type":"address","internalType":"address"}]},{"type":"error","name":"ERC20InvalidSender","inputs":[{"name":"sender","type":"address","internalType":"address"}]},{"type":"error","name":"ERC20InvalidSpender","inputs":[{"name":"spender","type":"address","internalType":"address"}]},{"type":"error","name":"InvalidAccountNonce","inputs":[{"name":"account","type":"address","internalType":"address"},{"name":"currentNonce","type":"uint256","internalType":"uint256"}]},{"type":"error","name":"InvalidShortString","inputs":[]},{"type":"error","name":"StringTooLong","inputs":[{"name":"str","type":"string","internalType":"string"}]}],"bytecode":{"object":"0x61018060405234801561001157600080fd5b50604051613b06380380613b0683398101604081905261003091610341565b6040805180820190915260018152603160f81b6020820152600080546001600160a01b0319166001600160a01b0388161790558490889088908290818360076100798382610482565b5060086100868282610482565b5061009691508390506009610196565b610120526100a581600a610196565b61014052815160208084019190912060e052815190820120610100524660a05261013260e05161010051604080517f8b73c3c69bb8fe3d512ecc4cf759cc79239f7b179b0ffacaa9a75d522b39400f60208201529081019290925260608201524660808201523060a082015260009060c00160405160208183030381529060405280519060200120905090565b60805250503060c052506101479050816101c9565b506001600160a01b0391821661016052600e80549183166001600160a01b0319928316179055600f80549390921692169190911790555050670de0b6b3a7640000601055505042601255610598565b60006020835110156101b2576101ab8361021d565b90506101c3565b816101bd8482610482565b5060ff90505b92915050565b600d80546001600160a01b0319166001600160a01b0383169081179091556040519081527f2f658b440c35314f52658ea8a740e05b284cdc84dc9ae01e891f21b8933e7cad9060200160405180910390a150565b600080829050601f81511115610251578260405163305a27a960e01b81526004016102489190610541565b60405180910390fd5b805161025c82610574565b179392505050565b634e487b7160e01b600052604160045260246000fd5b60005b8381101561029557818101518382015260200161027d565b50506000910152565b600082601f8301126102af57600080fd5b81516001600160401b03808211156102c9576102c9610264565b604051601f8301601f19908116603f011681019082821181831017156102f1576102f1610264565b8160405283815286602085880101111561030a57600080fd5b61031b84602083016020890161027a565b9695505050505050565b80516001600160a01b038116811461033c57600080fd5b919050565b600080600080600080600060e0888a03121561035c57600080fd5b87516001600160401b038082111561037357600080fd5b61037f8b838c0161029e565b985060208a015191508082111561039557600080fd5b506103a28a828b0161029e565b9650506103b160408901610325565b94506103bf60608901610325565b93506103cd60808901610325565b92506103db60a08901610325565b91506103e960c08901610325565b905092959891949750929550565b600181811c9082168061040b57607f821691505b60208210810361042b57634e487b7160e01b600052602260045260246000fd5b50919050565b601f82111561047d576000816000526020600020601f850160051c8101602086101561045a5750805b601f850160051c820191505b8181101561047957828155600101610466565b5050505b505050565b81516001600160401b0381111561049b5761049b610264565b6104af816104a984546103f7565b84610431565b602080601f8311600181146104e457600084156104cc5750858301515b600019600386901b1c1916600185901b178555610479565b600085815260208120601f198616915b82811015610513578886015182559484019460019091019084016104f4565b50858210156105315787850151600019600388901b60f8161c191681555b5050505050600190811b01905550565b602081526000825180602084015261056081604085016020870161027a565b601f01601f19169190910160400192915050565b8051602080830151919081101561042b5760001960209190910360031b1b16919050565b60805160a05160c05160e051610100516101205161014051610160516134f4610612600039600081816102df01528181611887015281816119950152611ba70152600061226b0152600061223e0152600061256c015260006125440152600061249f015260006124c9015260006124f301526134f46000f3fe608060405234801561001057600080fd5b506004361061025e5760003560e01c80639198e51511610146578063d0b06f5d116100c3578063ef01df4f11610087578063ef01df4f146105cf578063f301af42146105e2578063f3bfc738146105f5578063f6a44b381461061c578063fcd3533c1461063c578063ffc9896b1461064f57600080fd5b8063d0b06f5d14610554578063d28e512d1461055d578063d659993414610570578063da39b3e714610583578063dd62ed3e1461059657600080fd5b8063a9059cbb1161010a578063a9059cbb14610281578063ace6c09c146104ef578063bf7e214f1461051d578063c04a8a101461052e578063c99d3a061461054157600080fd5b80639198e5151461049957806395d89b41146104ac57806395dcf918146104b45780639feb8f50146104c7578063a41c8c0b146104da57600080fd5b806343636121116101df5780637dc0d1d0116101a35780637dc0d1d0146103ee5780637ecebe00146104015780638229084b1461042a57806384b0196e1461043d578063866b0138146104585780638fb360371461047857600080fd5b8063436361211461036457806359c6b0381461038c57806360829f8a1461039f57806370a08231146103b25780637a9e5e4b146103db57600080fd5b806318160ddd1161022657806318160ddd146103195780631de9d9b61461032157806323b872dd14610334578063294091cd14610342578063313ce5671461035557600080fd5b806306fdde0314610263578063095ea7b3146102815780630b2d9070146102a45780630b52d558146102c5578063115f4fee146102da575b600080fd5b61026b61068a565b6040516102789190612bd8565b60405180910390f35b61029461028f366004612c00565b61071c565b6040519015158152602001610278565b6102b76102b2366004612c2c565b61076c565b604051908152602001610278565b6102d86102d3366004612c74565b610799565b005b6103017f000000000000000000000000000000000000000000000000000000000000000081565b6040516001600160a01b039091168152602001610278565b6006546102b7565b6102d861032f366004612ce5565b6108f5565b61029461028f366004612d02565b6102b7610350366004612d43565b6109fd565b60405160128152602001610278565b610377610372366004612c2c565b610caa565b60408051928352602083019190915201610278565b6102d861039a366004612e03565b610df4565b6102b76103ad366004612d02565b610e0b565b6102b76103c0366004612ce5565b6001600160a01b031660009081526004602052604090205490565b6102d86103e9366004612ce5565b6110bd565b600054610301906001600160a01b031681565b6102b761040f366004612ce5565b6001600160a01b03166000908152600b602052604090205490565b6102b7610438366004612c2c565b611133565b6104456111b7565b6040516102789796959493929190612ea2565b6102b7610466366004612ce5565b60116020526000908152604090205481565b6104806111fd565b6040516001600160e01b03199091168152602001610278565b6102b76104a7366004612ce5565b611225565b61026b6113e6565b600e54610301906001600160a01b031681565b6102d86104d5366004612c00565b6113f5565b6104e261147a565b6040516102789190612f3b565b6105026104fd366004612ce5565b6114db565b60408051938452602084019290925290820152606001610278565b600d546001600160a01b0316610301565b6102d861053c366004612c00565b611775565b6102d861054f366004612ce5565b611780565b6102b760125481565b6102b761056b366004612ce5565b611795565b61030161057e366004612c00565b611930565b6102d8610591366004612f7c565b611968565b6102b76105a4366004612c2c565b6001600160a01b03918216600090815260056020908152604080832093909416825291909152205490565b600f54610301906001600160a01b031681565b6103016105f0366004612fb3565b611a93565b6102b77f3f8f1584d261c3704820464a741b70ed265924afb92939f833452d3a71c21c9c81565b61062f61062a366004612ce5565b611abd565b6040516102789190612fcc565b6102d861064a366004613020565b611b78565b61066261065d366004612ce5565b611c15565b604080519586526020860194909452928401919091526060830152608082015260a001610278565b60606007805461069990613045565b80601f01602080910402602001604051908101604052809291908181526020018280546106c590613045565b80156107125780601f106106e757610100808354040283529160200191610712565b820191906000526020600020905b8154815290600101906020018083116106f557829003601f168201915b5050505050905090565b60405162461bcd60e51b815260206004820152601760248201527f4f5045524154494f4e5f4e4f545f535550504f5254454400000000000000000060448201526000906064015b60405180910390fd5b6001600160a01b038083166000908152600c60209081526040808320938516835292905220545b92915050565b834211156107de5760405162461bcd60e51b815260206004820152601260248201527124a72b20a624a22fa2ac2824a920aa24a7a760711b6044820152606401610763565b6001600160a01b038781166000818152600c60209081526040808320948b168084529482528083205481517f3f8f1584d261c3704820464a741b70ed265924afb92939f833452d3a71c21c9c81850152808301959095526060850195909552608084018a905260a084019490945260c08084018990528451808503909101815260e0909301909352815191909201209061087782611c6c565b9050600061088782878787611c99565b9050896001600160a01b0316816001600160a01b0316146108de5760405162461bcd60e51b8152602060048201526011602482015270494e56414c49445f5349474e415455524560781b6044820152606401610763565b6108e98a8a8a611cc7565b50505050505050505050565b60005b6017548110156109f9576000601782815481106109175761091761307f565b60009182526020822001546001600160a01b03169150806109388386610caa565b909250905081156109b85760405163a9059cbb60e01b81526001600160a01b0386811660048301526024820184905284169063a9059cbb906044016020604051808303816000875af1158015610992573d6000803e3d6000fd5b505050506040513d601f19601f820116820180604052508101906109b69190613095565b505b6001600160a01b03808616600090815260156020908152604080832096909316825294855281812092909255601690935291909120429055506001016108f8565b5050565b6000808311610a1e5760405162461bcd60e51b8152600401610763906130b2565b6001600160a01b0384166000908152600160205260409020600681015460ff16610a985760405162461bcd60e51b815260206004820152602560248201527f526573657276654d616e616765723a20436f6c6c61746572616c206e6f742061604482015264637469766560d81b6064820152608401610763565b8054604051630359f7eb60e11b81526001600160a01b038581166004830152909116906306b3efd690602401602060405180830381865afa158015610ae1573d6000803e3d6000fd5b505050506040513d601f19601f82011682018060405250810190610b0591906130ff565b600003610b4b576001600160a01b0383811660009081526002602090815260408220805460018101825590835291200180546001600160a01b0319169187169190911790555b8054604051633d14d1b760e21b8152336004820152602481018690526001600160a01b0385811660448301529091169063f45346dc906064016020604051808303816000875af1158015610ba3573d6000803e3d6000fd5b505050506040513d601f19601f82011682018060405250810190610bc791906130ff565b935080600501548160000160009054906101000a90046001600160a01b03166001600160a01b031663ad7a672f6040518163ffffffff1660e01b8152600401602060405180830381865afa158015610c23573d6000803e3d6000fd5b505050506040513d601f19601f82011682018060405250810190610c4791906130ff565b1115610ca15760405162461bcd60e51b8152602060048201526024808201527f526573657276654d616e616765723a2045786365656473206d6178206465706f6044820152637369747360e01b6064820152608401610763565b50919392505050565b6001600160a01b03821660009081526016602052604081205481908190610cd1904261312e565b6001600160a01b0386166000908152601360208181526040808420546014835293205491905291925090670de0b6b3a7640000908390610d119084613141565b610d1b9190613141565b610d259190613158565b610d2f919061317a565b9150610d3a60065490565b600003610d4b576000925050610ded565b6001600160a01b038085166000908152601560209081526040808320938916835292905220548015610dea576000610d83828561312e565b9050610d8e60065490565b610da090670de0b6b3a7640000613141565b81610dc0886001600160a01b031660009081526004602052604090205490565b610dd290670de0b6b3a7640000613141565b610ddc9190613141565b610de69190613158565b9450505b50505b9250929050565b610e01335b600036611d29565b6109f98282611e29565b6001600160a01b038216600090815260016020526040812082610e405760405162461bcd60e51b8152600401610763906130b2565b80546001600160a01b0316610e975760405162461bcd60e51b815260206004820152601d60248201527f526573657276654d616e616765723a20496e76616c6964207661756c740000006044820152606401610763565b8054604051636ce5768960e11b81523360048201526001600160a01b038781166024830152604482018690529091169063d9caed1290606401600060405180830381600087803b158015610eea57600080fd5b505af1158015610efe573d6000803e3d6000fd5b50508254604051630359f7eb60e11b81523360048201526001600160a01b0390911692506306b3efd69150602401602060405180830381865afa158015610f49573d6000803e3d6000fd5b505050506040513d601f19601f82011682018060405250810190610f6d91906130ff565b6000036110b45760005b336000908152600260205260409020548110156110b25733600090815260026020526040902080546001600160a01b038716919083908110610fbb57610fbb61307f565b6000918252602090912001546001600160a01b0316036110aa573360009081526002602052604090208054610ff29060019061312e565b815481106110025761100261307f565b60009182526020808320909101543383526002909152604090912080546001600160a01b03909216918390811061103b5761103b61307f565b600091825260208083209190910180546001600160a01b0319166001600160a01b0394909416939093179092553381526002909152604090208054806110835761108361318d565b600082815260209020810160001990810180546001600160a01b03191690550190556110b2565b600101610f77565b505b50909392505050565b600d5433906001600160a01b031681146110f45760405162d1953b60e31b81526001600160a01b0382166004820152602401610763565b816001600160a01b03163b60000361112a576040516361798f2f60e11b81526001600160a01b0383166004820152602401610763565b6109f9826121e3565b6001600160a01b03828116600090815260016020526040808220549051630359f7eb60e11b81528484166004820152919216906306b3efd690602401602060405180830381865afa15801561118c573d6000803e3d6000fd5b505050506040513d601f19601f820116820180604052508101906111b091906130ff565b9392505050565b6000606080600080600060606111cb612237565b6111d3612264565b60408051600080825260208201909252600f60f81b9b939a50919850469750309650945092509050565b600d54600090600160a01b900460ff166112175750600090565b638fb3603760e01b5b905090565b60008060125442611236919061312e565b905060006010546127106301e1338061124f9190613141565b600e5460408051637c3a00fd60e01b8152905186926001600160a01b031691637c3a00fd9160048083019260209291908290030181865afa158015611298573d6000803e3d6000fd5b505050506040513d601f19601f820116820180604052508101906112bc91906130ff565b6010546112c99190613141565b6112d39190613141565b6112dd9190613158565b6112e7919061317a565b6001600160a01b038516600090815260116020526040902054909150801561137a576001600160a01b03851660009081526011602052604081205461132c908461312e565b9050670de0b6b3a764000081611357886001600160a01b031660009081526004602052604090205490565b6113619190613141565b61136b9190613158565b9450611378868787612291565b505b6001600160a01b03851660009081526011602090815260408083208590554260125560108590553380845292819020548151868152928301527f9c2eff7525daf0137606868ca6d7903e4d76d5f03defbae3e5d61ea068f09d3f910160405180910390a2505050919050565b60606008805461069990613045565b6113fe33610df9565b60178054600181019091557fc624b66cc0138b8fabc209247f72d758e1cf3343756d543badbf24212bed8c150180546001600160a01b039093166001600160a01b0319909316831790556000918252601360209081526040808420670de0b6b3a764000090556014825280842092909255601690529020429055565b6060600380548060200260200160405190810160405280929190818152602001828054801561071257602002820191906000526020600020905b81546001600160a01b031681526001909101906020018083116114b4575050505050905090565b600080546001600160a01b038381168352600260205260408084209051634e91ecf960e11b8152849384938493911691639d23d9f29161151d916004016131a3565b600060405180830381865afa15801561153a573d6000803e3d6000fd5b505050506040513d6000823e601f3d908101601f1916820160405261156291908101906131e7565b905060005b6001600160a01b03861660009081526002602052604090205481101561176c576001600160a01b03861660009081526002602052604081208054839081106115b1576115b161307f565b60009182526020808320909101546001600160a01b0316808352600182526040808420815163313ce56760e01b815291519295509392859263313ce5679260048082019392918290030181865afa158015611610573d6000803e3d6000fd5b505050506040513d601f19601f82011682018060405250810190611634919061328d565b61163f90600a61338e565b61164d906305f5e100613141565b85858151811061165f5761165f61307f565b60209081029190910101518354604051630359f7eb60e11b81526001600160a01b038d81166004830152909116906306b3efd690602401602060405180830381865afa1580156116b3573d6000803e3d6000fd5b505050506040513d601f19601f820116820180604052508101906116d791906130ff565b6116e990670de0b6b3a7640000613141565b6116f39190613141565b6116fd9190613158565b9050611709818961317a565b975061271082600101548261171e9190613141565b6117289190613158565b611732908861317a565b96506127108260020154826117479190613141565b6117519190613158565b61175b908761317a565b955050600190920191506115679050565b50509193909250565b6109f9338383611cc7565b61178933610df9565b611792816122bf565b50565b600080600f60009054906101000a90046001600160a01b03166001600160a01b031663636fc28b6040518163ffffffff1660e01b8152600401602060405180830381865afa1580156117eb573d6000803e3d6000fd5b505050506040513d601f19601f8201168201806040525081019061180f919061339d565b6001600160a01b031663247ac0636040518163ffffffff1660e01b8152600401602060405180830381865afa15801561184c573d6000803e3d6000fd5b505050506040513d601f19601f82011682018060405250810190611870919061339d565b60405163b3596f0760e01b81526001600160a01b037f0000000000000000000000000000000000000000000000000000000000000000811660048301529192506305f5e1009183169063b3596f0790602401602060405180830381865afa1580156118df573d6000803e3d6000fd5b505050506040513d601f19601f8201168201806040525081019061190391906130ff565b6001600160a01b0385166000908152600460205260409020546119269190613141565b6111b09190613158565b6002602052816000526040600020818154811061194c57600080fd5b6000918252602090912001546001600160a01b03169150829050565b61197182611225565b5061197b826108f5565b600f54604051630d4d151360e01b81526001600160a01b037f00000000000000000000000000000000000000000000000000000000000000008116600483015260248201869052838116604483015290911690630d4d151390606401600060405180830381600087803b1580156119f157600080fd5b505af1158015611a05573d6000803e3d6000fd5b50505050611a14338385612291565b6000611a1f83611c15565b945050505050670de0b6b3a7640000811015611a8d5760405162461bcd60e51b815260206004820152602760248201527f4c6971756964697479506c7567696e3a204163636f756e74206865616c74682060448201526662656c6f77203160c81b6064820152608401610763565b50505050565b60178181548110611aa357600080fd5b6000918252602090912001546001600160a01b0316905081565b611b086040518060e0016040528060006001600160a01b0316815260200160008152602001600081526020016000815260200160008152602001600081526020016000151581525090565b506001600160a01b03908116600090815260016020818152604092839020835160e0810185528154909516855291820154908401526002810154918301919091526003810154606083015260048101546080830152600581015460a08301526006015460ff16151560c082015290565b611b8181611225565b50611b8b816108f5565b60405163079cc67960e41b8152336004820152602481018390527f00000000000000000000000000000000000000000000000000000000000000006001600160a01b0316906379cc679090604401600060405180830381600087803b158015611bf357600080fd5b505af1158015611c07573d6000803e3d6000fd5b505050506109f98183612488565b6000806000806000611c2686611795565b9450611c31866114db565b9195509350915060001990508415611c635784611c5684670de0b6b3a7640000613141565b611c609190613158565b90505b91939590929450565b6000610793611c79612492565b8360405161190160f01b8152600281019290925260228201526042902090565b600080600080611cab888888886125bd565b925092509250611cbb828261268c565b50909695505050505050565b6001600160a01b038381166000818152600c602090815260408083209487168084529482529182902085905590518481527fe840c5397d4cc6701cb0a4091d296f8b9d45f0b6a02edfb20e83d45481db5fc191015b60405180910390a3505050565b600080611d5f611d41600d546001600160a01b031690565b8630611d5160046000898b6133ba565b611d5a916133e4565b612745565b9150915081611e225763ffffffff811615611dff57600d805460ff60a01b198116600160a01b17909155604051634a63ebf760e11b81526001600160a01b03909116906394c7d7ee90611dba90889088908890600401613414565b600060405180830381600087803b158015611dd457600080fd5b505af1158015611de8573d6000803e3d6000fd5b5050600d805460ff60a01b1916905550611e229050565b60405162d1953b60e31b81526001600160a01b0386166004820152602401610763565b5050505050565b6000816020015111611e955760405162461bcd60e51b815260206004820152602f60248201527f526573657276654d616e616765723a2042617365204c5456206d75737420626560448201526e02067726561746572207468616e203608c1b6064820152608401610763565b6000816040015111611f0f5760405162461bcd60e51b815260206004820152603c60248201527f526573657276654d616e616765723a204c69717569646174696f6e207468726560448201527f73686f6c64206d7573742062652067726561746572207468616e2030000000006064820152608401610763565b8060c00151611f725760405162461bcd60e51b815260206004820152602960248201527f526573657276654d616e616765723a20436f6c6c61746572616c206d7573742060448201526862652061637469766560b81b6064820152608401610763565b6000816060015111611fec5760405162461bcd60e51b815260206004820152603860248201527f526573657276654d616e616765723a204c69717569646174696f6e20626f6e7560448201527f73206d7573742062652067726561746572207468616e203000000000000000006064820152608401610763565b80516001600160a01b03166120435760405162461bcd60e51b815260206004820152601d60248201527f526573657276654d616e616765723a20496e76616c6964207661756c740000006044820152606401610763565b6001600160a01b038281166000908152600160208181526040808420865181546001600160a01b031916961695909517855590850151918401919091558301516002830155606083015160038301556080830151600483015560a0830151600583015560c08301516006909201805460ff191692151592909217909155805b60035481101561211457836001600160a01b0316600382815481106120e9576120e961307f565b6000918252602090912001546001600160a01b03160361210c5760019150612114565b6001016120c2565b50806121a557600380546001810182556000919091527fc2575a0e9e593c00f959f8c92f12db2869c3395a3b0502d05e2516446f71f85b0180546001600160a01b0319166001600160a01b0385169081179091556040517f4aaf2a929b9dba2dd62b2b6b66effb3965eaaef79fdb62fb89a6de3acbc0cb4d90612198908590612fcc565b60405180910390a2505050565b826001600160a01b03167f865761f7d4b36be681fcc07404e334da0bf6bac1767a28b0aad18fc299b7035f836040516121989190612fcc565b505050565b600d80546001600160a01b0319166001600160a01b0383169081179091556040519081527f2f658b440c35314f52658ea8a740e05b284cdc84dc9ae01e891f21b8933e7cad9060200160405180910390a150565b60606112207f00000000000000000000000000000000000000000000000000000000000000006009612851565b60606112207f0000000000000000000000000000000000000000000000000000000000000000600a612851565b816001600160a01b0316836001600160a01b0316146122b5576122b58284836128fc565b6121de8282612998565b6001600160a01b0381166000908152600160208190526040822080546001600160a01b031916815590810182905560028101829055600381018290556004810182905560058101829055600601805460ff191690555b336000908152600260205260409020548110156124505733600090815260026020526040902080546001600160a01b0384169190839081106123595761235961307f565b6000918252602090912001546001600160a01b0316036124485733600090815260026020526040902080546123909060019061312e565b815481106123a0576123a061307f565b60009182526020808320909101543383526002909152604090912080546001600160a01b0390921691839081106123d9576123d961307f565b600091825260208083209190910180546001600160a01b0319166001600160a01b0394909416939093179092553381526002909152604090208054806124215761242161318d565b600082815260209020810160001990810180546001600160a01b0319169055019055612450565b600101612315565b506040516001600160a01b038216907fd89d2ee68ab04dca0193f48a4aff55e20fa5ec0429a8a8c1c51b8dad6178a59390600090a250565b6109f982826129ce565b6000306001600160a01b037f0000000000000000000000000000000000000000000000000000000000000000161480156124eb57507f000000000000000000000000000000000000000000000000000000000000000046145b1561251557507f000000000000000000000000000000000000000000000000000000000000000090565b611220604080517f8b73c3c69bb8fe3d512ecc4cf759cc79239f7b179b0ffacaa9a75d522b39400f60208201527f0000000000000000000000000000000000000000000000000000000000000000918101919091527f000000000000000000000000000000000000000000000000000000000000000060608201524660808201523060a082015260009060c00160405160208183030381529060405280519060200120905090565b600080807f7fffffffffffffffffffffffffffffff5d576e7357a4501ddfe92f46681b20a08411156125f85750600091506003905082612682565b604080516000808252602082018084528a905260ff891692820192909252606081018790526080810186905260019060a0016020604051602081039080840390855afa15801561264c573d6000803e3d6000fd5b5050604051601f1901519150506001600160a01b03811661267857506000925060019150829050612682565b9250600091508190505b9450945094915050565b60008260038111156126a0576126a0613454565b036126a9575050565b60018260038111156126bd576126bd613454565b036126db5760405163f645eedf60e01b815260040160405180910390fd5b60028260038111156126ef576126ef613454565b036127105760405163fce698f760e01b815260048101829052602401610763565b600382600381111561272457612724613454565b036109f9576040516335e2f38360e21b815260048101829052602401610763565b6040516001600160a01b03848116602483015283811660448301526001600160e01b03198316606483015260009182918291829189169060840160408051601f198184030181529181526020820180516001600160e01b031663b700961360e01b179052516127b4919061346a565b600060405180830381855afa9150503d80600081146127ef576040519150601f19603f3d011682016040523d82523d6000602084013e6127f4565b606091505b50915091508115612846576040815110612826578080602001905181019061281c9190613486565b9094509250612846565b602081511061284657808060200190518101906128439190613095565b93505b505094509492505050565b606060ff831461286b5761286483612a04565b9050610793565b81805461287790613045565b80601f01602080910402602001604051908101604052809291908181526020018280546128a390613045565b80156128f05780601f106128c5576101008083540402835291602001916128f0565b820191906000526020600020905b8154815290600101906020018083116128d357829003601f168201915b50505050509050610793565b6001600160a01b038084166000908152600c6020908152604080832093861683529290529081205461292f90839061312e565b6001600160a01b038581166000818152600c60209081526040808320948916808452948252918290208590559051848152939450919290917fe840c5397d4cc6701cb0a4091d296f8b9d45f0b6a02edfb20e83d45481db5fc1910160405180910390a350505050565b6001600160a01b0382166129c25760405163ec442f0560e01b815260006004820152602401610763565b6109f960008383612a43565b6001600160a01b0382166129f857604051634b637e8f60e11b815260006004820152602401610763565b6109f982600083612a43565b60606000612a1183612b60565b604080516020808252818301909252919250600091906020820181803683375050509182525060208101929092525090565b6001600160a01b038316612a6e578060066000828254612a63919061317a565b90915550612ae09050565b6001600160a01b03831660009081526004602052604090205481811015612ac15760405163391434e360e21b81526001600160a01b03851660048201526024810182905260448101839052606401610763565b6001600160a01b03841660009081526004602052604090209082900390555b6001600160a01b038216612afc57600680548290039055612b1b565b6001600160a01b03821660009081526004602052604090208054820190555b816001600160a01b0316836001600160a01b03167fddf252ad1be2c89b69c2b068fc378daa952ba7f163c4a11628f55a4df523b3ef83604051611d1c91815260200190565b600060ff8216601f81111561079357604051632cd44ac360e21b815260040160405180910390fd5b60005b83811015612ba3578181015183820152602001612b8b565b50506000910152565b60008151808452612bc4816020860160208601612b88565b601f01601f19169290920160200192915050565b6020815260006111b06020830184612bac565b6001600160a01b038116811461179257600080fd5b60008060408385031215612c1357600080fd5b8235612c1e81612beb565b946020939093013593505050565b60008060408385031215612c3f57600080fd5b8235612c4a81612beb565b91506020830135612c5a81612beb565b809150509250929050565b60ff8116811461179257600080fd5b600080600080600080600060e0888a031215612c8f57600080fd5b8735612c9a81612beb565b96506020880135612caa81612beb565b955060408801359450606088013593506080880135612cc881612c65565b9699959850939692959460a0840135945060c09093013592915050565b600060208284031215612cf757600080fd5b81356111b081612beb565b600080600060608486031215612d1757600080fd5b8335612d2281612beb565b92506020840135612d3281612beb565b929592945050506040919091013590565b600080600060608486031215612d5857600080fd5b8335612d6381612beb565b9250602084013591506040840135612d7a81612beb565b809150509250925092565b634e487b7160e01b600052604160045260246000fd5b60405160e0810167ffffffffffffffff81118282101715612dbe57612dbe612d85565b60405290565b604051601f8201601f1916810167ffffffffffffffff81118282101715612ded57612ded612d85565b604052919050565b801515811461179257600080fd5b600080828403610100811215612e1857600080fd5b8335612e2381612beb565b925060e0601f1982011215612e3757600080fd5b50612e40612d9b565b6020840135612e4e81612beb565b8082525060408401356020820152606084013560408201526080840135606082015260a0840135608082015260c084013560a082015260e0840135612e9281612df5565b60c0820152919491935090915050565b60ff60f81b881681526000602060e06020840152612ec360e084018a612bac565b8381036040850152612ed5818a612bac565b606085018990526001600160a01b038816608086015260a0850187905284810360c08601528551808252602080880193509091019060005b81811015612f2957835183529284019291840191600101612f0d565b50909c9b505050505050505050505050565b6020808252825182820181905260009190848201906040850190845b81811015611cbb5783516001600160a01b031683529284019291840191600101612f57565b600080600060608486031215612f9157600080fd5b833592506020840135612fa381612beb565b91506040840135612d7a81612beb565b600060208284031215612fc557600080fd5b5035919050565b81516001600160a01b031681526020808301519082015260408083015190820152606080830151908201526080808301519082015260a0828101519082015260c09182015115159181019190915260e00190565b6000806040838503121561303357600080fd5b823591506020830135612c5a81612beb565b600181811c9082168061305957607f821691505b60208210810361307957634e487b7160e01b600052602260045260246000fd5b50919050565b634e487b7160e01b600052603260045260246000fd5b6000602082840312156130a757600080fd5b81516111b081612df5565b6020808252602d908201527f526573657276654d616e616765723a20416d6f756e74206d757374206265206760408201526c0726561746572207468616e203609c1b606082015260800190565b60006020828403121561311157600080fd5b5051919050565b634e487b7160e01b600052601160045260246000fd5b8181038181111561079357610793613118565b808202811582820484141761079357610793613118565b60008261317557634e487b7160e01b600052601260045260246000fd5b500490565b8082018082111561079357610793613118565b634e487b7160e01b600052603160045260246000fd5b6020808252825482820181905260008481528281209092916040850190845b81811015611cbb5783546001600160a01b0316835260019384019392850192016131c2565b600060208083850312156131fa57600080fd5b825167ffffffffffffffff8082111561321257600080fd5b818501915085601f83011261322657600080fd5b81518181111561323857613238612d85565b8060051b9150613249848301612dc4565b818152918301840191848101908884111561326357600080fd5b938501935b8385101561328157845182529385019390850190613268565b98975050505050505050565b60006020828403121561329f57600080fd5b81516111b081612c65565b600181815b808511156132e55781600019048211156132cb576132cb613118565b808516156132d857918102915b93841c93908002906132af565b509250929050565b6000826132fc57506001610793565b8161330957506000610793565b816001811461331f576002811461332957613345565b6001915050610793565b60ff84111561333a5761333a613118565b50506001821b610793565b5060208310610133831016604e8410600b8410161715613368575081810a610793565b61337283836132aa565b806000190482111561338657613386613118565b029392505050565b60006111b060ff8416836132ed565b6000602082840312156133af57600080fd5b81516111b081612beb565b600080858511156133ca57600080fd5b838611156133d757600080fd5b5050820193919092039150565b6001600160e01b0319813581811691600485101561340c5780818660040360031b1b83161692505b505092915050565b6001600160a01b03841681526040602082018190528101829052818360608301376000818301606090810191909152601f909201601f1916010192915050565b634e487b7160e01b600052602160045260246000fd5b6000825161347c818460208701612b88565b9190910192915050565b6000806040838503121561349957600080fd5b82516134a481612df5565b602084015190925063ffffffff81168114612c5a57600080fdfea26469706673582212206162baa23d8e24d46ea6eaedaf24d65f89e9f1ca13d239321ea4b5428656042b64736f6c63430008190033","linkReferences":{}},"methodIdentifiers":{"DELEGATION_WITH_SIG_TYPEHASH()":"f3bfc738","accountIndex(address)":"866b0138","accrueInterest(address)":"9198e515","accumulatedRewards(address,address)":"43636121","addCollateral(address,(address,uint256,uint256,uint256,uint256,uint256,bool))":"59c6b038","addReward(address,uint256)":"9feb8f50","allowance(address,address)":"dd62ed3e","approve(address,uint256)":"095ea7b3","approveDelegation(address,uint256)":"c04a8a10","authority()":"bf7e214f","balanceOf(address)":"70a08231","burn(uint256,address)":"fcd3533c","debtAllowance(address,address)":"0b2d9070","decimals()":"313ce567","delegationWithSig(address,address,uint256,uint256,uint8,bytes32,bytes32)":"0b52d558","distributeRewards(address)":"1de9d9b6","eip712Domain()":"84b0196e","enabledCollaterals(address,uint256)":"d6599934","getAllCollaterals()":"a41c8c0b","getCollateralConfig(address)":"f6a44b38","getUserAssetsUSD(address)":"ace6c09c","getUserData(address)":"ffc9896b","getUserDebtUSD(address)":"d28e512d","irModel()":"95dcf918","isConsumingScheduledOp()":"8fb36037","lastUpdated()":"d0b06f5d","mint(uint256,address,address)":"da39b3e7","name()":"06fdde03","nonces(address)":"7ecebe00","oracle()":"7dc0d1d0","plugin()":"ef01df4f","removeCollateral(address)":"c99d3a06","rewards(uint256)":"f301af42","setAuthority(address)":"7a9e5e4b","stake(address,uint256,address)":"294091cd","stakedBalance(address,address)":"8229084b","symbol()":"95d89b41","synth()":"115f4fee","totalSupply()":"18160ddd","transfer(address,uint256)":"a9059cbb","transferFrom(address,address,uint256)":"23b872dd","unstake(address,address,uint256)":"60829f8a"},"id":69}