{"abi":[{"type":"constructor","inputs":[{"name":"_poolAddress","type":"address","internalType":"address"},{"name":"_authority","type":"address","internalType":"address"}],"stateMutability":"nonpayable"},{"type":"function","name":"NAME","inputs":[],"outputs":[{"name":"","type":"string","internalType":"string"}],"stateMutability":"view"},{"type":"function","name":"VERSION","inputs":[],"outputs":[{"name":"","type":"string","internalType":"string"}],"stateMutability":"view"},{"type":"function","name":"_pool","inputs":[],"outputs":[{"name":"","type":"address","internalType":"contract RxPool"}],"stateMutability":"view"},{"type":"function","name":"assetConfig","inputs":[{"name":"","type":"address","internalType":"address"}],"outputs":[{"name":"buyFee","type":"uint256","internalType":"uint256"},{"name":"sellFee","type":"uint256","internalType":"uint256"}],"stateMutability":"view"},{"type":"function","name":"authority","inputs":[],"outputs":[{"name":"","type":"address","internalType":"address"}],"stateMutability":"view"},{"type":"function","name":"isConsumingScheduledOp","inputs":[],"outputs":[{"name":"","type":"bytes4","internalType":"bytes4"}],"stateMutability":"view"},{"type":"function","name":"pluginType","inputs":[],"outputs":[{"name":"","type":"uint8","internalType":"enum AbstractPlugin.PluginType"}],"stateMutability":"view"},{"type":"function","name":"setAuthority","inputs":[{"name":"newAuthority","type":"address","internalType":"address"}],"outputs":[],"stateMutability":"nonpayable"},{"type":"function","name":"swap","inputs":[{"name":"from","type":"address","internalType":"address"},{"name":"to","type":"address","internalType":"address"},{"name":"amount","type":"uint256","internalType":"uint256"},{"name":"toAddress","type":"address","internalType":"address"}],"outputs":[{"name":"","type":"uint256","internalType":"uint256"},{"name":"amountAfterMintFee","type":"uint256","internalType":"uint256"}],"stateMutability":"nonpayable"},{"type":"function","name":"updateSynth","inputs":[{"name":"_synth","type":"address","internalType":"address"},{"name":"config","type":"tuple","internalType":"struct SwapPluginStorage.AssetConfig","components":[{"name":"buyFee","type":"uint256","internalType":"uint256"},{"name":"sellFee","type":"uint256","internalType":"uint256"}]}],"outputs":[],"stateMutability":"nonpayable"},{"type":"event","name":"AssetConfigUpdated","inputs":[{"name":"synth","type":"address","indexed":true,"internalType":"address"},{"name":"config","type":"tuple","indexed":false,"internalType":"struct SwapPluginStorage.AssetConfig","components":[{"name":"buyFee","type":"uint256","internalType":"uint256"},{"name":"sellFee","type":"uint256","internalType":"uint256"}]}],"anonymous":false},{"type":"event","name":"AuthorityUpdated","inputs":[{"name":"authority","type":"address","indexed":false,"internalType":"address"}],"anonymous":false},{"type":"error","name":"AccessManagedInvalidAuthority","inputs":[{"name":"authority","type":"address","internalType":"address"}]},{"type":"error","name":"AccessManagedRequiredDelay","inputs":[{"name":"caller","type":"address","internalType":"address"},{"name":"delay","type":"uint32","internalType":"uint32"}]},{"type":"error","name":"AccessManagedUnauthorized","inputs":[{"name":"caller","type":"address","internalType":"address"}]}],"bytecode":{"object":"0x608060405234801561000f575f80fd5b5060405161104138038061104183398101604081905261002e916100d1565b5f8054600160a01b6001600160a81b03199091166001600160a01b038516171790558061005a81610062565b505050610102565b600180546001600160a01b0319166001600160a01b0383169081179091556040519081527f2f658b440c35314f52658ea8a740e05b284cdc84dc9ae01e891f21b8933e7cad9060200160405180910390a150565b80516001600160a01b03811681146100cc575f80fd5b919050565b5f80604083850312156100e2575f80fd5b6100eb836100b6565b91506100f9602084016100b6565b90509250929050565b610f328061010f5f395ff3fe608060405234801561000f575f80fd5b506004361061009b575f3560e01c80638fb36037116100635780638fb3603714610142578063a3f4df7e14610163578063bf7e214f14610199578063d6dbaf58146101aa578063ffa1ad74146101d0575f80fd5b806341de68301461009f578063636fc28b146100c85780636e81221c146100f25780637191d7551461011a5780637a9e5e4b1461012f575b5f80fd5b5f546100b290600160a01b900460ff1681565b6040516100bf9190610adb565b60405180910390f35b5f546100da906001600160a01b031681565b6040516001600160a01b0390911681526020016100bf565b610105610100366004610b1c565b6101f4565b604080519283526020830191909152016100bf565b61012d610128366004610bab565b610773565b005b61012d61013d366004610c1b565b6107e9565b61014a610862565b6040516001600160e01b031990911681526020016100bf565b61018c6040518060400160405280600a81526020016929bbb0b828363ab3b4b760b11b81525081565b6040516100bf9190610c3b565b6001546001600160a01b03166100da565b6101056101b8366004610c1b565b60026020525f90815260409020805460019091015482565b61018c604051806040016040528060058152602001640312e302e360dc1b81525081565b6040805160028082526060820183525f9283928392909160208301908036833701905050905086815f8151811061022d5761022d610c70565b60200260200101906001600160a01b031690816001600160a01b031681525050858160018151811061026157610261610c70565b6001600160a01b0392831660209182029290920101525f805460405163053c81b560e01b81529192169063053c81b59061029f908590600401610c84565b5f60405180830381865afa1580156102b9573d5f803e3d5ffd5b505050506040513d5f823e601f3d908101601f191682016040526102e09190810190610cd0565b9050866001600160a01b0316886001600160a01b0316036103585760405162461bcd60e51b815260206004820152602760248201527f53796e7468506c7567696e3a2043616e6e6f742073776170207468652073616d6044820152660ca40e6f2dce8d60cb1b60648201526084015b60405180910390fd5b5f86116103ba5760405162461bcd60e51b815260206004820152602a60248201527f53796e7468506c7567696e3a20416d6f756e74206d75737420626520677265616044820152690746572207468616e20360b41b606482015260840161034f565b6001600160a01b0385166104105760405162461bcd60e51b815260206004820152601c60248201527f53796e7468506c7567696e3a20496e76616c6964206164647265737300000000604482015260640161034f565b6001600160a01b038089165f908152600260208181526040808420815180830183528154815260019182015481850152958d168552928252928390208351808501909452805484528201549083015288016104ce576040516370a0823160e01b81523360048201526001600160a01b038b16906370a0823190602401602060405180830381865afa1580156104a7573d5f803e3d5ffd5b505050506040513d601f19601f820116820180604052508101906104cb9190610d71565b97505b5f61271083602001518a6104e29190610d9c565b6104ec9190610db9565b90505f6104f9828b610dd8565b60405163079cc67960e41b8152336004820152602481018c90529091506001600160a01b038d16906379cc6790906044015f604051808303815f87803b158015610541575f80fd5b505af1158015610553573d5f803e3d5ffd5b505050505f8560018151811061056b5761056b610c70565b6020026020010151865f8151811061058557610585610c70565b6020026020010151836105989190610d9c565b6105a29190610db9565b90505f612710855f0151836105b79190610d9c565b6105c19190610db9565b90506105cd8183610dd8565b98505f8054906101000a90046001600160a01b03166001600160a01b0316630d4d15138e8b8e6040518463ffffffff1660e01b815260040161062f939291906001600160a01b0393841681526020810192909252909116604082015260600190565b5f604051808303815f87803b158015610646575f80fd5b505af1158015610658573d5f803e3d5ffd5b505050505f8411156106f2575f8054906101000a90046001600160a01b03166001600160a01b0316630d4d15138f86306040518463ffffffff1660e01b81526004016106c4939291906001600160a01b0393841681526020810192909252909116604082015260600190565b5f604051808303815f87803b1580156106db575f80fd5b505af11580156106ed573d5f803e3d5ffd5b505050505b801561075f575f54604051630d4d151360e01b81526001600160a01b038f811660048301526024820184905230604483015290911690630d4d1513906064015f604051808303815f87803b158015610748575f80fd5b505af115801561075a573d5f803e3d5ffd5b505050505b8b9950505050505050505094509492505050565b61077e335f36610886565b6001600160a01b0382165f818152600260209081526040918290208451808255858301805160019093019290925583519081529051918101919091527f5e5fc369876d5fbafcee6706efa8aafae715cbf714c24f53182993e6ca3c82b6910160405180910390a25050565b60015433906001600160a01b031681146108205760405162d1953b60e31b81526001600160a01b038216600482015260240161034f565b816001600160a01b03163b5f03610855576040516361798f2f60e11b81526001600160a01b038316600482015260240161034f565b61085e8261097f565b5050565b6001545f90600160a01b900460ff1661087a57505f90565b50638fb3603760e01b90565b5f806108ba61089d6001546001600160a01b031690565b86306108ac60045f898b610deb565b6108b591610e12565b6109d3565b91509150816109785763ffffffff811615610955576001805460ff60a01b198116600160a01b17909155604051634a63ebf760e11b81526001600160a01b03909116906394c7d7ee9061091590889088908890600401610e42565b5f604051808303815f87803b15801561092c575f80fd5b505af115801561093e573d5f803e3d5ffd5b50506001805460ff60a01b19169055506109789050565b60405162d1953b60e31b81526001600160a01b038616600482015260240161034f565b5050505050565b600180546001600160a01b0319166001600160a01b0383169081179091556040519081527f2f658b440c35314f52658ea8a740e05b284cdc84dc9ae01e891f21b8933e7cad9060200160405180910390a150565b6040516001600160a01b03848116602483015283811660448301526001600160e01b0319831660648301525f9182918291829189169060840160408051601f198184030181529181526020820180516001600160e01b031663b700961360e01b17905251610a419190610e81565b5f60405180830381855afa9150503d805f8114610a79576040519150601f19603f3d011682016040523d82523d5f602084013e610a7e565b606091505b50915091508115610ad0576040815110610ab05780806020019051810190610aa69190610ea6565b9094509250610ad0565b6020815110610ad05780806020019051810190610acd9190610ee3565b93505b505094509492505050565b6020810160038310610afb57634e487b7160e01b5f52602160045260245ffd5b91905290565b80356001600160a01b0381168114610b17575f80fd5b919050565b5f805f8060808587031215610b2f575f80fd5b610b3885610b01565b9350610b4660208601610b01565b925060408501359150610b5b60608601610b01565b905092959194509250565b634e487b7160e01b5f52604160045260245ffd5b604051601f8201601f1916810167ffffffffffffffff81118282101715610ba357610ba3610b66565b604052919050565b5f808284036060811215610bbd575f80fd5b610bc684610b01565b92506040601f1982011215610bd9575f80fd5b506040516040810181811067ffffffffffffffff82111715610bfd57610bfd610b66565b60409081526020858101358352940135938101939093525092909150565b5f60208284031215610c2b575f80fd5b610c3482610b01565b9392505050565b602081525f82518060208401528060208501604085015e5f604082850101526040601f19601f83011684010191505092915050565b634e487b7160e01b5f52603260045260245ffd5b602080825282518282018190525f9190848201906040850190845b81811015610cc45783516001600160a01b031683529284019291840191600101610c9f565b50909695505050505050565b5f6020808385031215610ce1575f80fd5b825167ffffffffffffffff80821115610cf8575f80fd5b818501915085601f830112610d0b575f80fd5b815181811115610d1d57610d1d610b66565b8060051b9150610d2e848301610b7a565b8181529183018401918481019088841115610d47575f80fd5b938501935b83851015610d6557845182529385019390850190610d4c565b98975050505050505050565b5f60208284031215610d81575f80fd5b5051919050565b634e487b7160e01b5f52601160045260245ffd5b8082028115828204841417610db357610db3610d88565b92915050565b5f82610dd357634e487b7160e01b5f52601260045260245ffd5b500490565b81810381811115610db357610db3610d88565b5f8085851115610df9575f80fd5b83861115610e05575f80fd5b5050820193919092039150565b6001600160e01b03198135818116916004851015610e3a5780818660040360031b1b83161692505b505092915050565b6001600160a01b03841681526040602082018190528101829052818360608301375f818301606090810191909152601f909201601f1916010192915050565b5f82518060208501845e5f920191825250919050565b80518015158114610b17575f80fd5b5f8060408385031215610eb7575f80fd5b610ec083610e97565b9150602083015163ffffffff81168114610ed8575f80fd5b809150509250929050565b5f60208284031215610ef3575f80fd5b610c3482610e9756fea2646970667358221220e3d5b45766dbb323984f81b0497591224110b6fd0ff04c104ec0349a1012d4ab64736f6c63430008190033","linkReferences":{}},"methodIdentifiers":{"NAME()":"a3f4df7e","VERSION()":"ffa1ad74","_pool()":"636fc28b","assetConfig(address)":"d6dbaf58","authority()":"bf7e214f","isConsumingScheduledOp()":"8fb36037","pluginType()":"41de6830","setAuthority(address)":"7a9e5e4b","swap(address,address,uint256,address)":"6e81221c","updateSynth(address,(uint256,uint256))":"7191d755"},"id":104}