{"abi":[{"type":"constructor","inputs":[{"name":"_poolAddress","type":"address","internalType":"address"},{"name":"_authority","type":"address","internalType":"address"}],"stateMutability":"nonpayable"},{"type":"function","name":"_pool","inputs":[],"outputs":[{"name":"","type":"address","internalType":"contract RxPool"}],"stateMutability":"view"},{"type":"function","name":"authority","inputs":[],"outputs":[{"name":"","type":"address","internalType":"address"}],"stateMutability":"view"},{"type":"function","name":"isConsumingScheduledOp","inputs":[],"outputs":[{"name":"","type":"bytes4","internalType":"bytes4"}],"stateMutability":"view"},{"type":"function","name":"pluginType","inputs":[],"outputs":[{"name":"","type":"uint8","internalType":"enum Plugin.PluginType"}],"stateMutability":"view"},{"type":"function","name":"setAuthority","inputs":[{"name":"newAuthority","type":"address","internalType":"address"}],"outputs":[],"stateMutability":"nonpayable"},{"type":"function","name":"swap","inputs":[{"name":"from","type":"address","internalType":"address"},{"name":"to","type":"address","internalType":"address"},{"name":"amount","type":"uint256","internalType":"uint256"},{"name":"toAddress","type":"address","internalType":"address"}],"outputs":[{"name":"","type":"uint256","internalType":"uint256"},{"name":"amountAfterMintFee","type":"uint256","internalType":"uint256"}],"stateMutability":"nonpayable"},{"type":"function","name":"synthFees","inputs":[{"name":"","type":"address","internalType":"address"}],"outputs":[{"name":"mintFee","type":"uint256","internalType":"uint256"},{"name":"burnFee","type":"uint256","internalType":"uint256"}],"stateMutability":"view"},{"type":"function","name":"updateSynth","inputs":[{"name":"_synth","type":"address","internalType":"address"},{"name":"config","type":"tuple","internalType":"struct SwapPlugin.Fee","components":[{"name":"mintFee","type":"uint256","internalType":"uint256"},{"name":"burnFee","type":"uint256","internalType":"uint256"}]}],"outputs":[],"stateMutability":"nonpayable"},{"type":"event","name":"AuthorityUpdated","inputs":[{"name":"authority","type":"address","indexed":false,"internalType":"address"}],"anonymous":false},{"type":"event","name":"FeeUpdated","inputs":[{"name":"synth","type":"address","indexed":true,"internalType":"address"},{"name":"config","type":"tuple","indexed":false,"internalType":"struct SwapPlugin.Fee","components":[{"name":"mintFee","type":"uint256","internalType":"uint256"},{"name":"burnFee","type":"uint256","internalType":"uint256"}]}],"anonymous":false},{"type":"error","name":"AccessManagedInvalidAuthority","inputs":[{"name":"authority","type":"address","internalType":"address"}]},{"type":"error","name":"AccessManagedRequiredDelay","inputs":[{"name":"caller","type":"address","internalType":"address"},{"name":"delay","type":"uint32","internalType":"uint32"}]},{"type":"error","name":"AccessManagedUnauthorized","inputs":[{"name":"caller","type":"address","internalType":"address"}]}],"bytecode":{"object":"0x608060405234801561001057600080fd5b5060405161102238038061102283398101604081905261002f916100d4565b60008054600160a01b6001600160a81b03199091166001600160a01b038516171790558061005c81610064565b505050610107565b600180546001600160a01b0319166001600160a01b0383169081179091556040519081527f2f658b440c35314f52658ea8a740e05b284cdc84dc9ae01e891f21b8933e7cad9060200160405180910390a150565b80516001600160a01b03811681146100cf57600080fd5b919050565b600080604083850312156100e757600080fd5b6100f0836100b8565b91506100fe602084016100b8565b90509250929050565b610f0c806101166000396000f3fe608060405234801561001057600080fd5b50600436106100885760003560e01c80637a9e5e4b1161005b5780637a9e5e4b1461011f5780638fb360371461013257806396d0f4ee14610153578063bf7e214f1461017a57600080fd5b806341de68301461008d578063636fc28b146100b75780636e81221c146100e25780637191d7551461010a575b600080fd5b6000546100a190600160a01b900460ff1681565b6040516100ae9190610aab565b60405180910390f35b6000546100ca906001600160a01b031681565b6040516001600160a01b0390911681526020016100ae565b6100f56100f0366004610aef565b61018b565b604080519283526020830191909152016100ae565b61011d610118366004610b83565b610733565b005b61011d61012d366004610bf6565b6107ab565b61013a610825565b6040516001600160e01b031990911681526020016100ae565b6100f5610161366004610bf6565b6002602052600090815260409020805460019091015482565b6001546001600160a01b03166100ca565b60408051600280825260608201835260009283928392909160208301908036833701905050905086816000815181106101c6576101c6610c18565b60200260200101906001600160a01b031690816001600160a01b03168152505085816001815181106101fa576101fa610c18565b6001600160a01b0392831660209182029290920101526000805460405163053c81b560e01b81529192169063053c81b590610239908590600401610c2e565b600060405180830381865afa158015610256573d6000803e3d6000fd5b505050506040513d6000823e601f3d908101601f1916820160405261027e9190810190610c7b565b9050866001600160a01b0316886001600160a01b0316036102f65760405162461bcd60e51b815260206004820152602760248201527f53796e7468506c7567696e3a2043616e6e6f742073776170207468652073616d6044820152660ca40e6f2dce8d60cb1b60648201526084015b60405180910390fd5b600086116103595760405162461bcd60e51b815260206004820152602a60248201527f53796e7468506c7567696e3a20416d6f756e74206d75737420626520677265616044820152690746572207468616e20360b41b60648201526084016102ed565b6001600160a01b0385166103af5760405162461bcd60e51b815260206004820152601c60248201527f53796e7468506c7567696e3a20496e76616c696420616464726573730000000060448201526064016102ed565b6001600160a01b038089166000908152600260208181526040808420815180830183528154815260019182015481850152958d16855292825292839020835180850190945280548452820154908301528801610470576040516370a0823160e01b81523360048201526001600160a01b038b16906370a0823190602401602060405180830381865afa158015610449573d6000803e3d6000fd5b505050506040513d601f19601f8201168201806040525081019061046d9190610d21565b97505b600061271083602001518a6104859190610d50565b61048f9190610d6d565b9050600061049d828b610d8f565b60405163079cc67960e41b8152336004820152602481018c90529091506001600160a01b038d16906379cc679090604401600060405180830381600087803b1580156104e857600080fd5b505af11580156104fc573d6000803e3d6000fd5b5050505060008560018151811061051557610515610c18565b60200260200101518660008151811061053057610530610c18565b6020026020010151836105439190610d50565b61054d9190610d6d565b905060006127108560000151836105649190610d50565b61056e9190610d6d565b905061057a8183610d8f565b985060008054906101000a90046001600160a01b03166001600160a01b0316630d4d15138e8b8e6040518463ffffffff1660e01b81526004016105dd939291906001600160a01b0393841681526020810192909252909116604082015260600190565b600060405180830381600087803b1580156105f757600080fd5b505af115801561060b573d6000803e3d6000fd5b5050505060008411156106ac5760008054906101000a90046001600160a01b03166001600160a01b0316630d4d15138f86306040518463ffffffff1660e01b8152600401610679939291906001600160a01b0393841681526020810192909252909116604082015260600190565b600060405180830381600087803b15801561069357600080fd5b505af11580156106a7573d6000803e3d6000fd5b505050505b801561071f57600054604051630d4d151360e01b81526001600160a01b038f811660048301526024820184905230604483015290911690630d4d151390606401600060405180830381600087803b15801561070657600080fd5b505af115801561071a573d6000803e3d6000fd5b505050505b8b9950505050505050505094509492505050565b61073f3360003661084b565b6001600160a01b0382166000818152600260209081526040918290208451808255858301805160019093019290925583519081529051918101919091527f3231a37a4a61d2424bb1818c27180b9929e9f2ff5772f20c0bd7f8d8849bc67a910160405180910390a25050565b60015433906001600160a01b031681146107e25760405162d1953b60e31b81526001600160a01b03821660048201526024016102ed565b816001600160a01b03163b600003610818576040516361798f2f60e11b81526001600160a01b03831660048201526024016102ed565b6108218261094b565b5050565b600154600090600160a01b900460ff1661083f5750600090565b50638fb3603760e01b90565b6000806108816108636001546001600160a01b031690565b863061087360046000898b610da2565b61087c91610dcc565b61099f565b91509150816109445763ffffffff811615610921576001805460ff60a01b198116600160a01b17909155604051634a63ebf760e11b81526001600160a01b03909116906394c7d7ee906108dc90889088908890600401610dfc565b600060405180830381600087803b1580156108f657600080fd5b505af115801561090a573d6000803e3d6000fd5b50506001805460ff60a01b19169055506109449050565b60405162d1953b60e31b81526001600160a01b03861660048201526024016102ed565b5050505050565b600180546001600160a01b0319166001600160a01b0383169081179091556040519081527f2f658b440c35314f52658ea8a740e05b284cdc84dc9ae01e891f21b8933e7cad9060200160405180910390a150565b6040516001600160a01b03848116602483015283811660448301526001600160e01b03198316606483015260009182918291829189169060840160408051601f198184030181529181526020820180516001600160e01b031663b700961360e01b17905251610a0e9190610e3c565b600060405180830381855afa9150503d8060008114610a49576040519150601f19603f3d011682016040523d82523d6000602084013e610a4e565b606091505b50915091508115610aa0576040815110610a805780806020019051810190610a769190610e7b565b9094509250610aa0565b6020815110610aa05780806020019051810190610a9d9190610ebb565b93505b505094509492505050565b6020810160038310610acd57634e487b7160e01b600052602160045260246000fd5b91905290565b80356001600160a01b0381168114610aea57600080fd5b919050565b60008060008060808587031215610b0557600080fd5b610b0e85610ad3565b9350610b1c60208601610ad3565b925060408501359150610b3160608601610ad3565b905092959194509250565b634e487b7160e01b600052604160045260246000fd5b604051601f8201601f1916810167ffffffffffffffff81118282101715610b7b57610b7b610b3c565b604052919050565b6000808284036060811215610b9757600080fd5b610ba084610ad3565b92506040601f1982011215610bb457600080fd5b506040516040810181811067ffffffffffffffff82111715610bd857610bd8610b3c565b60409081526020858101358352940135938101939093525092909150565b600060208284031215610c0857600080fd5b610c1182610ad3565b9392505050565b634e487b7160e01b600052603260045260246000fd5b6020808252825182820181905260009190848201906040850190845b81811015610c6f5783516001600160a01b031683529284019291840191600101610c4a565b50909695505050505050565b60006020808385031215610c8e57600080fd5b825167ffffffffffffffff80821115610ca657600080fd5b818501915085601f830112610cba57600080fd5b815181811115610ccc57610ccc610b3c565b8060051b9150610cdd848301610b52565b8181529183018401918481019088841115610cf757600080fd5b938501935b83851015610d1557845182529385019390850190610cfc565b98975050505050505050565b600060208284031215610d3357600080fd5b5051919050565b634e487b7160e01b600052601160045260246000fd5b8082028115828204841417610d6757610d67610d3a565b92915050565b600082610d8a57634e487b7160e01b600052601260045260246000fd5b500490565b81810381811115610d6757610d67610d3a565b60008085851115610db257600080fd5b83861115610dbf57600080fd5b5050820193919092039150565b6001600160e01b03198135818116916004851015610df45780818660040360031b1b83161692505b505092915050565b6001600160a01b03841681526040602082018190528101829052818360608301376000818301606090810191909152601f909201601f1916010192915050565b6000825160005b81811015610e5d5760208186018101518583015201610e43565b506000920191825250919050565b80518015158114610aea57600080fd5b60008060408385031215610e8e57600080fd5b610e9783610e6b565b9150602083015163ffffffff81168114610eb057600080fd5b809150509250929050565b600060208284031215610ecd57600080fd5b610c1182610e6b56fea26469706673582212206d360e2177dc583670bdd6c7184b55d515c11af76c72993e7ae765a1bcd58afd64736f6c63430008190033","linkReferences":{}},"methodIdentifiers":{"_pool()":"636fc28b","authority()":"bf7e214f","isConsumingScheduledOp()":"8fb36037","pluginType()":"41de6830","setAuthority(address)":"7a9e5e4b","swap(address,address,uint256,address)":"6e81221c","synthFees(address)":"96d0f4ee","updateSynth(address,(uint256,uint256))":"7191d755"},"id":73}