{"abi":[{"type":"constructor","inputs":[{"name":"_pyth","type":"address","internalType":"address"},{"name":"_pool","type":"address","internalType":"address"},{"name":"_swapPlugin","type":"address","internalType":"address"},{"name":"_weth","type":"address","internalType":"address payable"}],"stateMutability":"nonpayable"},{"type":"function","name":"burn","inputs":[{"name":"market","type":"address","internalType":"address"},{"name":"amount","type":"uint256","internalType":"uint256"},{"name":"onBehalfOf","type":"address","internalType":"address"}],"outputs":[],"stateMutability":"payable"},{"type":"function","name":"mint","inputs":[{"name":"market","type":"address","internalType":"address"},{"name":"amount","type":"uint256","internalType":"uint256"},{"name":"onBehalfOf","type":"address","internalType":"address"},{"name":"receiver","type":"address","internalType":"address"}],"outputs":[],"stateMutability":"payable"},{"type":"function","name":"multicall","inputs":[{"name":"data","type":"bytes[]","internalType":"bytes[]"}],"outputs":[{"name":"results","type":"bytes[]","internalType":"bytes[]"}],"stateMutability":"payable"},{"type":"function","name":"permit","inputs":[{"name":"owner","type":"address","internalType":"address"},{"name":"spender","type":"address","internalType":"address"},{"name":"token","type":"address","internalType":"address"},{"name":"amount","type":"uint256","internalType":"uint256"},{"name":"deadline","type":"uint256","internalType":"uint256"},{"name":"v","type":"uint8","internalType":"uint8"},{"name":"r","type":"bytes32","internalType":"bytes32"},{"name":"s","type":"bytes32","internalType":"bytes32"}],"outputs":[],"stateMutability":"payable"},{"type":"function","name":"permitDelegation","inputs":[{"name":"delegator","type":"address","internalType":"address"},{"name":"delegatee","type":"address","internalType":"address"},{"name":"token","type":"address","internalType":"address"},{"name":"amount","type":"uint256","internalType":"uint256"},{"name":"deadline","type":"uint256","internalType":"uint256"},{"name":"v","type":"uint8","internalType":"uint8"},{"name":"r","type":"bytes32","internalType":"bytes32"},{"name":"s","type":"bytes32","internalType":"bytes32"}],"outputs":[],"stateMutability":"payable"},{"type":"function","name":"pool","inputs":[],"outputs":[{"name":"","type":"address","internalType":"contract RxPool"}],"stateMutability":"view"},{"type":"function","name":"pyth","inputs":[],"outputs":[{"name":"","type":"address","internalType":"contract IPyth"}],"stateMutability":"view"},{"type":"function","name":"stake","inputs":[{"name":"market","type":"address","internalType":"address"},{"name":"token","type":"address","internalType":"address"},{"name":"amount","type":"uint256","internalType":"uint256"}],"outputs":[],"stateMutability":"payable"},{"type":"function","name":"stakeEth","inputs":[{"name":"market","type":"address","internalType":"address"},{"name":"amount","type":"uint256","internalType":"uint256"}],"outputs":[],"stateMutability":"payable"},{"type":"function","name":"swap","inputs":[{"name":"from","type":"address","internalType":"address"},{"name":"to","type":"address","internalType":"address"},{"name":"amount","type":"uint256","internalType":"uint256"},{"name":"toAddress","type":"address","internalType":"address"}],"outputs":[],"stateMutability":"payable"},{"type":"function","name":"swapPlugin","inputs":[],"outputs":[{"name":"","type":"address","internalType":"contract SwapPlugin"}],"stateMutability":"view"},{"type":"function","name":"unstake","inputs":[{"name":"market","type":"address","internalType":"address"},{"name":"token","type":"address","internalType":"address"},{"name":"amount","type":"uint256","internalType":"uint256"}],"outputs":[],"stateMutability":"payable"},{"type":"function","name":"updateOracleData","inputs":[{"name":"updateData","type":"bytes[]","internalType":"bytes[]"}],"outputs":[],"stateMutability":"payable"},{"type":"function","name":"weth","inputs":[],"outputs":[{"name":"","type":"address","internalType":"contract WETH9"}],"stateMutability":"view"},{"type":"error","name":"AddressEmptyCode","inputs":[{"name":"target","type":"address","internalType":"address"}]},{"type":"error","name":"FailedCall","inputs":[]}],"bytecode":{"object":"0x60e060405234801561000f575f80fd5b50604051611f0b380380611f0b83398101604081905261002e91610078565b6001600160a01b0393841660805291831660a0525f80546001600160a01b0319169184169190911790551660c0526100d4565b6001600160a01b0381168114610075575f80fd5b50565b5f805f806080858703121561008b575f80fd5b845161009681610061565b60208601519094506100a781610061565b60408601519093506100b881610061565b60608601519092506100c981610061565b939692955090935050565b60805160a05160c051611ddc61012f5f395f81816101660152818161129b0152818161131d015281816113be015261144001525f8181610103015261046401525f818161025c01528181610297015261030f0152611ddc5ff3fe6080604052600436106100d9575f3560e01c8063ac9650d81161007c578063ca66a9c511610057578063ca66a9c514610207578063d339056d14610225578063e7f43cca14610238578063f98d06f01461024b575f80fd5b8063ac9650d8146101c1578063b8ce670d146101e1578063bf6eac2f146101f4575f80fd5b80633fc8cef3116100b75780633fc8cef31461015557806360829f8a146101885780636e81221c1461019b5780637f0b32db146101ae575f80fd5b806308f90f5c146100dd57806316f0115b146100f25780633a4d2cd114610142575b5f80fd5b6100f06100eb366004611607565b61027e565b005b3480156100fd575f80fd5b506101257f000000000000000000000000000000000000000000000000000000000000000081565b6040516001600160a01b0390911681526020015b60405180910390f35b6100f0610150366004611729565b61038c565b348015610160575f80fd5b506101257f000000000000000000000000000000000000000000000000000000000000000081565b6100f0610196366004611779565b610649565b6100f06101a93660046117b7565b610a20565b6100f06101bc36600461180a565b610b87565b6101d46101cf366004611888565b610bf6565b60405161013991906118f7565b6100f06101ef36600461196e565b610cdd565b6100f0610202366004611779565b611016565b348015610212575f80fd5b505f54610125906001600160a01b031681565b6100f061023336600461180a565b611256565b6100f06102463660046119ad565b61128e565b348015610256575f80fd5b506101257f000000000000000000000000000000000000000000000000000000000000000081565b60405163d47eed4560e01b81525f906001600160a01b037f0000000000000000000000000000000000000000000000000000000000000000169063d47eed45906102cc9085906004016118f7565b602060405180830381865afa1580156102e7573d5f803e3d5ffd5b505050506040513d601f19601f8201168201806040525081019061030b91906119d7565b90507f00000000000000000000000000000000000000000000000000000000000000006001600160a01b031663ef9e5e2882846040518363ffffffff1660e01b815260040161035a91906118f7565b5f604051808303818588803b158015610371575f80fd5b505af1158015610383573d5f803e3d5ffd5b50505050505050565b5f1983036105de5760405160016236769560e01b031981526001600160a01b0383811660048301525f91829187169063ffc9896b9060240160a060405180830381865afa1580156103df573d5f803e3d5ffd5b505050506040513d601f19601f8201168201806040525081019061040391906119ee565b505092505091508181116104555760405162461bcd60e51b81526020600482015260146024820152734e6f20617661696c61626c652062616c616e636560601b60448201526064015b60405180910390fd5b61045f8282611a3e565b94505f7f00000000000000000000000000000000000000000000000000000000000000006001600160a01b031663833b1fce6040518163ffffffff1660e01b8152600401602060405180830381865afa1580156104be573d5f803e3d5ffd5b505050506040513d601f19601f820116820180604052508101906104e29190611a51565b6001600160a01b031663b3596f07886001600160a01b031663115f4fee6040518163ffffffff1660e01b8152600401602060405180830381865afa15801561052c573d5f803e3d5ffd5b505050506040513d601f19601f820116820180604052508101906105509190611a51565b6040516001600160e01b031960e084901b1681526001600160a01b039091166004820152602401602060405180830381865afa158015610592573d5f803e3d5ffd5b505050506040513d601f19601f820116820180604052508101906105b691906119d7565b905080156105da57806105cd876305f5e100611a6c565b6105d79190611a83565b95505b5050505b60405163da39b3e760e01b8152600481018490526001600160a01b038381166024830152828116604483015285169063da39b3e7906064015f604051808303815f87803b15801561062d575f80fd5b505af115801561063f573d5f803e3d5ffd5b5050505050505050565b604051631ed4896760e31b81526001600160a01b0383811660048301525f919085169063f6a44b389060240160e060405180830381865afa158015610690573d5f803e3d5ffd5b505050506040513d601f19601f820116820180604052508101906106b49190611ab6565b90505f1982036108b15760405160016236769560e01b031981523360048201525f9081906001600160a01b0387169063ffc9896b9060240160a060405180830381865afa158015610707573d5f803e3d5ffd5b505050506040513d601f19601f8201168201806040525081019061072b91906119ee565b505092505091505f836020015183836107449190611a3e565b61075090612710611a6c565b61075a9190611a83565b90505f81116107a25760405162461bcd60e51b81526020600482015260146024820152734e6f20617661696c61626c652062616c616e636560601b604482015260640161044c565b60405163b3596f0760e01b81526001600160a01b0387811660048301525f919089169063b3596f0790602401602060405180830381865afa1580156107e9573d5f803e3d5ffd5b505050506040513d601f19601f8201168201806040525081019061080d91906119d7565b90508061081e836305f5e100611a6c565b6108289190611a83565b9550866001600160a01b031663313ce5676040518163ffffffff1660e01b8152600401602060405180830381865afa158015610866573d5f803e3d5ffd5b505050506040513d601f19601f8201168201806040525081019061088a9190611b45565b610895906012611b60565b6108a090600a611c59565b6108aa9087611a83565b9550505050505b5f670de0b6b3a764000083835f01516001600160a01b03166371ca337d6040518163ffffffff1660e01b8152600401602060405180830381865afa1580156108fb573d5f803e3d5ffd5b505050506040513d601f19601f8201168201806040525081019061091f91906119d7565b6109299190611a6c565b6109339190611a83565b82516040516323b872dd60e01b81529192506001600160a01b0316906323b872dd9061096790339030908690600401611c67565b6020604051808303815f875af1158015610983573d5f803e3d5ffd5b505050506040513d601f19601f820116820180604052508101906109a79190611c8b565b506040516330414fc560e11b81526001600160a01b038616906360829f8a906109d890339088908890600401611c67565b6020604051808303815f875af11580156109f4573d5f803e3d5ffd5b505050506040513d601f19601f82011682018060405250810190610a1891906119d7565b505050505050565b6040516323b872dd60e01b81526001600160a01b038516906323b872dd90610a5090339030908790600401611c67565b6020604051808303815f875af1158015610a6c573d5f803e3d5ffd5b505050506040513d601f19601f82011682018060405250810190610a909190611c8b565b505f5460405163095ea7b360e01b81526001600160a01b039182166004820152602481018490529085169063095ea7b3906044016020604051808303815f875af1158015610ae0573d5f803e3d5ffd5b505050506040513d601f19601f82011682018060405250810190610b049190611c8b565b505f54604051631ba0488760e21b81526001600160a01b038681166004830152858116602483015260448201859052838116606483015290911690636e81221c9060840160408051808303815f875af1158015610b63573d5f803e3d5ffd5b505050506040513d601f19601f82011682018060405250810190610a189190611ca4565b60405163016a5aab60e31b81526001600160a01b03871690630b52d55890610bbf908b908b908a908a908a908a908a90600401611cc6565b5f604051808303815f87803b158015610bd6575f80fd5b505af1158015610be8573d5f803e3d5ffd5b505050505050505050505050565b604080515f8152602081019091526060908267ffffffffffffffff811115610c2057610c206115c2565b604051908082528060200260200182016040528015610c5357816020015b6060815260200190600190039081610c3e5790505b5091505f5b83811015610cd457610caf30868684818110610c7657610c76611d07565b9050602002810190610c889190611d1b565b85604051602001610c9b93929190611d7c565b6040516020818303038152906040526114c5565b838281518110610cc157610cc1611d07565b6020908102919091010152600101610c58565b50505b92915050565b5f198203610e2c576040516370a0823160e01b81523360048201525f906001600160a01b038516906370a0823190602401602060405180830381865afa158015610d29573d5f803e3d5ffd5b505050506040513d601f19601f82011682018060405250810190610d4d91906119d7565b90505f846001600160a01b031663115f4fee6040518163ffffffff1660e01b8152600401602060405180830381865afa158015610d8c573d5f803e3d5ffd5b505050506040513d601f19601f82011682018060405250810190610db09190611a51565b6040516370a0823160e01b81523360048201526001600160a01b0391909116906370a0823190602401602060405180830381865afa158015610df4573d5f803e3d5ffd5b505050506040513d601f19601f82011682018060405250810190610e1891906119d7565b905081935080841115610e29578093505b50505b826001600160a01b031663115f4fee6040518163ffffffff1660e01b8152600401602060405180830381865afa158015610e68573d5f803e3d5ffd5b505050506040513d601f19601f82011682018060405250810190610e8c9190611a51565b6001600160a01b03166323b872dd3330856040518463ffffffff1660e01b8152600401610ebb93929190611c67565b6020604051808303815f875af1158015610ed7573d5f803e3d5ffd5b505050506040513d601f19601f82011682018060405250810190610efb9190611c8b565b50826001600160a01b031663115f4fee6040518163ffffffff1660e01b8152600401602060405180830381865afa158015610f38573d5f803e3d5ffd5b505050506040513d601f19601f82011682018060405250810190610f5c9190611a51565b60405163095ea7b360e01b81526001600160a01b03858116600483015260248201859052919091169063095ea7b3906044016020604051808303815f875af1158015610faa573d5f803e3d5ffd5b505050506040513d601f19601f82011682018060405250810190610fce9190611c8b565b50604051633f34d4cf60e21b8152600481018390526001600160a01b03828116602483015284169063fcd3533c906044015f604051808303815f87803b158015610371575f80fd5b5f198103611087576040516370a0823160e01b81523360048201526001600160a01b038316906370a0823190602401602060405180830381865afa158015611060573d5f803e3d5ffd5b505050506040513d601f19601f8201168201806040525081019061108491906119d7565b90505b6040516323b872dd60e01b81526001600160a01b038316906323b872dd906110b790339030908690600401611c67565b6020604051808303815f875af11580156110d3573d5f803e3d5ffd5b505050506040513d601f19601f820116820180604052508101906110f79190611c8b565b50604051631ed4896760e31b81526001600160a01b0383811660048301525f919085169063f6a44b389060240160e060405180830381865afa15801561113f573d5f803e3d5ffd5b505050506040513d601f19601f820116820180604052508101906111639190611ab6565b805160405163095ea7b360e01b81526001600160a01b0391821660048201526024810185905291925084169063095ea7b3906044016020604051808303815f875af11580156111b4573d5f803e3d5ffd5b505050506040513d601f19601f820116820180604052508101906111d89190611c8b565b5060405163294091cd60e01b81526001600160a01b0384811660048301526024820184905233604483015285169063294091cd906064016020604051808303815f875af115801561122b573d5f803e3d5ffd5b505050506040513d601f19601f8201168201806040525081019061124f91906119d7565b5050505050565b60405163d505accf60e01b81526001600160a01b0387169063d505accf90610bbf908b908b908a908a908a908a908a90600401611cc6565b5f1981036112995750475b7f00000000000000000000000000000000000000000000000000000000000000006001600160a01b031663d0e30db0826040518263ffffffff1660e01b81526004015f604051808303818588803b1580156112f2575f80fd5b505af1158015611304573d5f803e3d5ffd5b5050604051631ed4896760e31b81526001600160a01b037f0000000000000000000000000000000000000000000000000000000000000000811660048301525f94508616925063f6a44b38915060240160e060405180830381865afa15801561136f573d5f803e3d5ffd5b505050506040513d601f19601f820116820180604052508101906113939190611ab6565b805160405163095ea7b360e01b81526001600160a01b039182166004820152602481018590529192507f0000000000000000000000000000000000000000000000000000000000000000169063095ea7b3906044016020604051808303815f875af1158015611404573d5f803e3d5ffd5b505050506040513d601f19601f820116820180604052508101906114289190611c8b565b5060405163294091cd60e01b81526001600160a01b037f0000000000000000000000000000000000000000000000000000000000000000811660048301526024820184905233604483015284169063294091cd906064016020604051808303815f875af115801561149b573d5f803e3d5ffd5b505050506040513d601f19601f820116820180604052508101906114bf91906119d7565b50505050565b60605f80846001600160a01b0316846040516114e19190611d9b565b5f60405180830381855af49150503d805f8114611519576040519150601f19603f3d011682016040523d82523d5f602084013e61151e565b606091505b509150915061152e858383611537565b95945050505050565b60608261154c5761154782611596565b61158f565b815115801561156357506001600160a01b0384163b155b1561158c57604051639996b31560e01b81526001600160a01b038516600482015260240161044c565b50805b9392505050565b8051156115a65780518082602001fd5b60405163d6bda27560e01b815260040160405180910390fd5b50565b634e487b7160e01b5f52604160045260245ffd5b604051601f8201601f1916810167ffffffffffffffff811182821017156115ff576115ff6115c2565b604052919050565b5f6020808385031215611618575f80fd5b823567ffffffffffffffff8082111561162f575f80fd5b8185019150601f86601f840112611644575f80fd5b823582811115611656576116566115c2565b8060051b6116658682016115d6565b918252848101860191868101908a84111561167e575f80fd5b87870192505b838310156117075782358681111561169a575f80fd5b8701603f81018c136116aa575f80fd5b888101356040888211156116c0576116c06115c2565b6116d1828901601f19168c016115d6565b8281528e828486010111156116e4575f80fd5b828285018d8301375f9281018c0192909252508352509187019190870190611684565b9a9950505050505050505050565b6001600160a01b03811681146115bf575f80fd5b5f805f806080858703121561173c575f80fd5b843561174781611715565b935060208501359250604085013561175e81611715565b9150606085013561176e81611715565b939692955090935050565b5f805f6060848603121561178b575f80fd5b833561179681611715565b925060208401356117a681611715565b929592945050506040919091013590565b5f805f80608085870312156117ca575f80fd5b84356117d581611715565b935060208501356117e581611715565b925060408501359150606085013561176e81611715565b60ff811681146115bf575f80fd5b5f805f805f805f80610100898b031215611822575f80fd5b883561182d81611715565b9750602089013561183d81611715565b9650604089013561184d81611715565b9550606089013594506080890135935060a089013561186b816117fc565b979a969950949793969295929450505060c08201359160e0013590565b5f8060208385031215611899575f80fd5b823567ffffffffffffffff808211156118b0575f80fd5b818501915085601f8301126118c3575f80fd5b8135818111156118d1575f80fd5b8660208260051b85010111156118e5575f80fd5b60209290920196919550909350505050565b5f602080830181845280855180835260408601915060408160051b87010192508387015f5b8281101561196157878503603f1901845281518051808752808883018989015e5f878201890152601f01601f191690950186019450928501929085019060010161191c565b5092979650505050505050565b5f805f60608486031215611980575f80fd5b833561198b81611715565b92506020840135915060408401356119a281611715565b809150509250925092565b5f80604083850312156119be575f80fd5b82356119c981611715565b946020939093013593505050565b5f602082840312156119e7575f80fd5b5051919050565b5f805f805f60a08688031215611a02575f80fd5b5050835160208501516040860151606087015160809097015192989197509594509092509050565b634e487b7160e01b5f52601160045260245ffd5b81810381811115610cd757610cd7611a2a565b5f60208284031215611a61575f80fd5b815161158f81611715565b8082028115828204841417610cd757610cd7611a2a565b5f82611a9d57634e487b7160e01b5f52601260045260245ffd5b500490565b80518015158114611ab1575f80fd5b919050565b5f60e08284031215611ac6575f80fd5b60405160e0810181811067ffffffffffffffff82111715611ae957611ae96115c2565b6040528251611af781611715565b808252506020830151602082015260408301516040820152606083015160608201526080830151608082015260a083015160a0820152611b3960c08401611aa2565b60c08201529392505050565b5f60208284031215611b55575f80fd5b815161158f816117fc565b60ff8281168282160390811115610cd757610cd7611a2a565b600181815b80851115611bb357815f1904821115611b9957611b99611a2a565b80851615611ba657918102915b93841c9390800290611b7e565b509250929050565b5f82611bc957506001610cd7565b81611bd557505f610cd7565b8160018114611beb5760028114611bf557611c11565b6001915050610cd7565b60ff841115611c0657611c06611a2a565b50506001821b610cd7565b5060208310610133831016604e8410600b8410161715611c34575081810a610cd7565b611c3e8383611b79565b805f1904821115611c5157611c51611a2a565b029392505050565b5f61158f60ff841683611bbb565b6001600160a01b039384168152919092166020820152604081019190915260600190565b5f60208284031215611c9b575f80fd5b61158f82611aa2565b5f8060408385031215611cb5575f80fd5b505080516020909101519092909150565b6001600160a01b0397881681529590961660208601526040850193909352606084019190915260ff16608083015260a082015260c081019190915260e00190565b634e487b7160e01b5f52603260045260245ffd5b5f808335601e19843603018112611d30575f80fd5b83018035915067ffffffffffffffff821115611d4a575f80fd5b602001915036819003821315611d5e575f80fd5b9250929050565b5f81518060208401855e5f93019283525090919050565b828482375f8382015f8152611d918185611d65565b9695505050505050565b5f61158f8284611d6556fea2646970667358221220829ecbf05410e9a82493217528ecd7bde77e23094b892fa14dcc065a1bb4cc2364736f6c63430008190033","linkReferences":{}},"methodIdentifiers":{"burn(address,uint256,address)":"b8ce670d","mint(address,uint256,address,address)":"3a4d2cd1","multicall(bytes[])":"ac9650d8","permit(address,address,address,uint256,uint256,uint8,bytes32,bytes32)":"d339056d","permitDelegation(address,address,address,uint256,uint256,uint8,bytes32,bytes32)":"7f0b32db","pool()":"16f0115b","pyth()":"f98d06f0","stake(address,address,uint256)":"bf6eac2f","stakeEth(address,uint256)":"e7f43cca","swap(address,address,uint256,address)":"6e81221c","swapPlugin()":"ca66a9c5","unstake(address,address,uint256)":"60829f8a","updateOracleData(bytes[])":"08f90f5c","weth()":"3fc8cef3"},"id":76}