{"abi":[{"type":"constructor","inputs":[{"name":"_pyth","type":"address","internalType":"address"},{"name":"_pool","type":"address","internalType":"address"},{"name":"_swapPlugin","type":"address","internalType":"address"},{"name":"_weth","type":"address","internalType":"address payable"}],"stateMutability":"nonpayable"},{"type":"function","name":"burn","inputs":[{"name":"market","type":"address","internalType":"address"},{"name":"amount","type":"uint256","internalType":"uint256"},{"name":"onBehalfOf","type":"address","internalType":"address"}],"outputs":[],"stateMutability":"payable"},{"type":"function","name":"mint","inputs":[{"name":"market","type":"address","internalType":"address"},{"name":"amount","type":"uint256","internalType":"uint256"},{"name":"onBehalfOf","type":"address","internalType":"address"},{"name":"receiver","type":"address","internalType":"address"}],"outputs":[],"stateMutability":"payable"},{"type":"function","name":"multicall","inputs":[{"name":"data","type":"bytes[]","internalType":"bytes[]"}],"outputs":[{"name":"results","type":"bytes[]","internalType":"bytes[]"}],"stateMutability":"payable"},{"type":"function","name":"permit","inputs":[{"name":"owner","type":"address","internalType":"address"},{"name":"spender","type":"address","internalType":"address"},{"name":"token","type":"address","internalType":"address"},{"name":"amount","type":"uint256","internalType":"uint256"},{"name":"deadline","type":"uint256","internalType":"uint256"},{"name":"v","type":"uint8","internalType":"uint8"},{"name":"r","type":"bytes32","internalType":"bytes32"},{"name":"s","type":"bytes32","internalType":"bytes32"}],"outputs":[],"stateMutability":"payable"},{"type":"function","name":"permitDelegation","inputs":[{"name":"delegator","type":"address","internalType":"address"},{"name":"delegatee","type":"address","internalType":"address"},{"name":"token","type":"address","internalType":"address"},{"name":"amount","type":"uint256","internalType":"uint256"},{"name":"deadline","type":"uint256","internalType":"uint256"},{"name":"v","type":"uint8","internalType":"uint8"},{"name":"r","type":"bytes32","internalType":"bytes32"},{"name":"s","type":"bytes32","internalType":"bytes32"}],"outputs":[],"stateMutability":"payable"},{"type":"function","name":"pool","inputs":[],"outputs":[{"name":"","type":"address","internalType":"contract RxPool"}],"stateMutability":"view"},{"type":"function","name":"pyth","inputs":[],"outputs":[{"name":"","type":"address","internalType":"contract IPyth"}],"stateMutability":"view"},{"type":"function","name":"stake","inputs":[{"name":"market","type":"address","internalType":"address"},{"name":"token","type":"address","internalType":"address"},{"name":"amount","type":"uint256","internalType":"uint256"}],"outputs":[],"stateMutability":"payable"},{"type":"function","name":"stakeEth","inputs":[{"name":"market","type":"address","internalType":"address"},{"name":"amount","type":"uint256","internalType":"uint256"}],"outputs":[],"stateMutability":"payable"},{"type":"function","name":"swap","inputs":[{"name":"from","type":"address","internalType":"address"},{"name":"to","type":"address","internalType":"address"},{"name":"amount","type":"uint256","internalType":"uint256"},{"name":"toAddress","type":"address","internalType":"address"}],"outputs":[],"stateMutability":"payable"},{"type":"function","name":"swapPlugin","inputs":[],"outputs":[{"name":"","type":"address","internalType":"contract SwapPlugin"}],"stateMutability":"view"},{"type":"function","name":"unstake","inputs":[{"name":"market","type":"address","internalType":"address"},{"name":"token","type":"address","internalType":"address"},{"name":"amount","type":"uint256","internalType":"uint256"}],"outputs":[],"stateMutability":"payable"},{"type":"function","name":"updateOracleData","inputs":[{"name":"updateData","type":"bytes[]","internalType":"bytes[]"}],"outputs":[],"stateMutability":"payable"},{"type":"function","name":"weth","inputs":[],"outputs":[{"name":"","type":"address","internalType":"contract WETH9"}],"stateMutability":"view"},{"type":"error","name":"AddressEmptyCode","inputs":[{"name":"target","type":"address","internalType":"address"}]},{"type":"error","name":"FailedInnerCall","inputs":[]}],"bytecode":{"object":"0x60e060405234801561001057600080fd5b5060405161206d38038061206d83398101604081905261002f9161007b565b6001600160a01b0393841660805291831660a052600080546001600160a01b0319169184169190911790551660c0526100da565b6001600160a01b038116811461007857600080fd5b50565b6000806000806080858703121561009157600080fd5b845161009c81610063565b60208601519094506100ad81610063565b60408601519093506100be81610063565b60608601519092506100cf81610063565b939692955090935050565b60805160a05160c051611f3361013a6000396000818161016d0152818161136e015281816113f401528181611498015261151d015260008181610109015261047a015260008181610266015281816102a2015261031c0152611f336000f3fe6080604052600436106100dd5760003560e01c8063ac9650d81161007f578063ca66a9c511610059578063ca66a9c51461020e578063d339056d1461022e578063e7f43cca14610241578063f98d06f01461025457600080fd5b8063ac9650d8146101c8578063b8ce670d146101e8578063bf6eac2f146101fb57600080fd5b80633fc8cef3116100bb5780633fc8cef31461015b57806360829f8a1461018f5780636e81221c146101a25780637f0b32db146101b557600080fd5b806308f90f5c146100e257806316f0115b146100f75780633a4d2cd114610148575b600080fd5b6100f56100f03660046116ed565b610288565b005b34801561010357600080fd5b5061012b7f000000000000000000000000000000000000000000000000000000000000000081565b6040516001600160a01b0390911681526020015b60405180910390f35b6100f561015636600461181c565b61039d565b34801561016757600080fd5b5061012b7f000000000000000000000000000000000000000000000000000000000000000081565b6100f561019d36600461186f565b61066a565b6100f56101b03660046118b0565b610abb565b6100f56101c3366004611907565b610c2d565b6101db6101d636600461198a565b610ca1565b60405161013f9190611a23565b6100f56101f6366004611a9d565b610d8a565b6100f561020936600461186f565b6110d9565b34801561021a57600080fd5b5060005461012b906001600160a01b031681565b6100f561023c366004611907565b611328565b6100f561024f366004611adf565b611360565b34801561026057600080fd5b5061012b7f000000000000000000000000000000000000000000000000000000000000000081565b60405163d47eed4560e01b81526000906001600160a01b037f0000000000000000000000000000000000000000000000000000000000000000169063d47eed45906102d7908590600401611a23565b602060405180830381865afa1580156102f4573d6000803e3d6000fd5b505050506040513d601f19601f820116820180604052508101906103189190611b0b565b90507f00000000000000000000000000000000000000000000000000000000000000006001600160a01b031663ef9e5e2882846040518363ffffffff1660e01b81526004016103679190611a23565b6000604051808303818588803b15801561038057600080fd5b505af1158015610394573d6000803e3d6000fd5b50505050505050565b60001983036105fa5760405160016236769560e01b031981526001600160a01b038381166004830152600091829187169063ffc9896b9060240160a060405180830381865afa1580156103f4573d6000803e3d6000fd5b505050506040513d601f19601f820116820180604052508101906104189190611b24565b5050925050915081811161046a5760405162461bcd60e51b81526020600482015260146024820152734e6f20617661696c61626c652062616c616e636560601b60448201526064015b60405180910390fd5b6104748282611b7a565b945060007f00000000000000000000000000000000000000000000000000000000000000006001600160a01b031663833b1fce6040518163ffffffff1660e01b8152600401602060405180830381865afa1580156104d6573d6000803e3d6000fd5b505050506040513d601f19601f820116820180604052508101906104fa9190611b8d565b6001600160a01b031663b3596f07886001600160a01b031663115f4fee6040518163ffffffff1660e01b8152600401602060405180830381865afa158015610546573d6000803e3d6000fd5b505050506040513d601f19601f8201168201806040525081019061056a9190611b8d565b6040516001600160e01b031960e084901b1681526001600160a01b039091166004820152602401602060405180830381865afa1580156105ae573d6000803e3d6000fd5b505050506040513d601f19601f820116820180604052508101906105d29190611b0b565b905080156105f657806105e9876305f5e100611baa565b6105f39190611bc1565b95505b5050505b60405163da39b3e760e01b8152600481018490526001600160a01b038381166024830152828116604483015285169063da39b3e790606401600060405180830381600087803b15801561064c57600080fd5b505af1158015610660573d6000803e3d6000fd5b5050505050505050565b604051631ed4896760e31b81526001600160a01b0383811660048301526000919085169063f6a44b389060240160e060405180830381865afa1580156106b4573d6000803e3d6000fd5b505050506040513d601f19601f820116820180604052508101906106d89190611bf8565b905060001982036109425760405160016236769560e01b0319815233600482015260009081906001600160a01b0387169063ffc9896b9060240160a060405180830381865afa15801561072f573d6000803e3d6000fd5b505050506040513d601f19601f820116820180604052508101906107539190611b24565b5050925050915060008360200151838361076d9190611b7a565b61077990612710611baa565b6107839190611bc1565b9050600081116107cc5760405162461bcd60e51b81526020600482015260146024820152734e6f20617661696c61626c652062616c616e636560601b6044820152606401610461565b6000876001600160a01b0316637dc0d1d06040518163ffffffff1660e01b8152600401602060405180830381865afa15801561080c573d6000803e3d6000fd5b505050506040513d601f19601f820116820180604052508101906108309190611b8d565b60405163b3596f0760e01b81526001600160a01b038981166004830152919091169063b3596f0790602401602060405180830381865afa158015610878573d6000803e3d6000fd5b505050506040513d601f19601f8201168201806040525081019061089c9190611b0b565b9050806108ad836305f5e100611baa565b6108b79190611bc1565b9550866001600160a01b031663313ce5676040518163ffffffff1660e01b8152600401602060405180830381865afa1580156108f7573d6000803e3d6000fd5b505050506040513d601f19601f8201168201806040525081019061091b9190611c89565b610926906012611ca6565b61093190600a611da3565b61093b9087611bc1565b9550505050505b6000670de0b6b3a76400008383600001516001600160a01b03166371ca337d6040518163ffffffff1660e01b8152600401602060405180830381865afa158015610990573d6000803e3d6000fd5b505050506040513d601f19601f820116820180604052508101906109b49190611b0b565b6109be9190611baa565b6109c89190611bc1565b82516040516323b872dd60e01b81529192506001600160a01b0316906323b872dd906109fc90339030908690600401611db2565b6020604051808303816000875af1158015610a1b573d6000803e3d6000fd5b505050506040513d601f19601f82011682018060405250810190610a3f9190611dd6565b506040516330414fc560e11b81526001600160a01b038616906360829f8a90610a7090339088908890600401611db2565b6020604051808303816000875af1158015610a8f573d6000803e3d6000fd5b505050506040513d601f19601f82011682018060405250810190610ab39190611b0b565b505050505050565b6040516323b872dd60e01b81526001600160a01b038516906323b872dd90610aeb90339030908790600401611db2565b6020604051808303816000875af1158015610b0a573d6000803e3d6000fd5b505050506040513d601f19601f82011682018060405250810190610b2e9190611dd6565b5060005460405163095ea7b360e01b81526001600160a01b039182166004820152602481018490529085169063095ea7b3906044016020604051808303816000875af1158015610b82573d6000803e3d6000fd5b505050506040513d601f19601f82011682018060405250810190610ba69190611dd6565b50600054604051631ba0488760e21b81526001600160a01b038681166004830152858116602483015260448201859052838116606483015290911690636e81221c9060840160408051808303816000875af1158015610c09573d6000803e3d6000fd5b505050506040513d601f19601f82011682018060405250810190610ab39190611df1565b60405163016a5aab60e31b81526001600160a01b03871690630b52d55890610c65908b908b908a908a908a908a908a90600401611e15565b600060405180830381600087803b158015610c7f57600080fd5b505af1158015610c93573d6000803e3d6000fd5b505050505050505050505050565b6040805160008152602081019091526060908267ffffffffffffffff811115610ccc57610ccc6116a6565b604051908082528060200260200182016040528015610cff57816020015b6060815260200190600190039081610cea5790505b50915060005b83811015610d8157610d5c30868684818110610d2357610d23611e56565b9050602002810190610d359190611e6c565b85604051602001610d4893929190611eba565b6040516020818303038152906040526115a5565b838281518110610d6e57610d6e611e56565b6020908102919091010152600101610d05565b50505b92915050565b6000198203610ee2576040516370a0823160e01b81523360048201526000906001600160a01b038516906370a0823190602401602060405180830381865afa158015610dda573d6000803e3d6000fd5b505050506040513d601f19601f82011682018060405250810190610dfe9190611b0b565b90506000846001600160a01b031663115f4fee6040518163ffffffff1660e01b8152600401602060405180830381865afa158015610e40573d6000803e3d6000fd5b505050506040513d601f19601f82011682018060405250810190610e649190611b8d565b6040516370a0823160e01b81523360048201526001600160a01b0391909116906370a0823190602401602060405180830381865afa158015610eaa573d6000803e3d6000fd5b505050506040513d601f19601f82011682018060405250810190610ece9190611b0b565b905081935080841115610edf578093505b50505b826001600160a01b031663115f4fee6040518163ffffffff1660e01b8152600401602060405180830381865afa158015610f20573d6000803e3d6000fd5b505050506040513d601f19601f82011682018060405250810190610f449190611b8d565b6001600160a01b03166323b872dd3330856040518463ffffffff1660e01b8152600401610f7393929190611db2565b6020604051808303816000875af1158015610f92573d6000803e3d6000fd5b505050506040513d601f19601f82011682018060405250810190610fb69190611dd6565b50826001600160a01b031663115f4fee6040518163ffffffff1660e01b8152600401602060405180830381865afa158015610ff5573d6000803e3d6000fd5b505050506040513d601f19601f820116820180604052508101906110199190611b8d565b60405163095ea7b360e01b81526001600160a01b03858116600483015260248201859052919091169063095ea7b3906044016020604051808303816000875af115801561106a573d6000803e3d6000fd5b505050506040513d601f19601f8201168201806040525081019061108e9190611dd6565b50604051633f34d4cf60e21b8152600481018390526001600160a01b03828116602483015284169063fcd3533c90604401600060405180830381600087803b15801561038057600080fd5b600019810361114d576040516370a0823160e01b81523360048201526001600160a01b038316906370a0823190602401602060405180830381865afa158015611126573d6000803e3d6000fd5b505050506040513d601f19601f8201168201806040525081019061114a9190611b0b565b90505b6040516323b872dd60e01b81526001600160a01b038316906323b872dd9061117d90339030908690600401611db2565b6020604051808303816000875af115801561119c573d6000803e3d6000fd5b505050506040513d601f19601f820116820180604052508101906111c09190611dd6565b50604051631ed4896760e31b81526001600160a01b0383811660048301526000919085169063f6a44b389060240160e060405180830381865afa15801561120b573d6000803e3d6000fd5b505050506040513d601f19601f8201168201806040525081019061122f9190611bf8565b805160405163095ea7b360e01b81526001600160a01b0391821660048201526024810185905291925084169063095ea7b3906044016020604051808303816000875af1158015611283573d6000803e3d6000fd5b505050506040513d601f19601f820116820180604052508101906112a79190611dd6565b5060405163294091cd60e01b81526001600160a01b0384811660048301526024820184905233604483015285169063294091cd906064016020604051808303816000875af11580156112fd573d6000803e3d6000fd5b505050506040513d601f19601f820116820180604052508101906113219190611b0b565b5050505050565b60405163d505accf60e01b81526001600160a01b0387169063d505accf90610c65908b908b908a908a908a908a908a90600401611e15565b600019810361136c5750475b7f00000000000000000000000000000000000000000000000000000000000000006001600160a01b031663d0e30db0826040518263ffffffff1660e01b81526004016000604051808303818588803b1580156113c757600080fd5b505af11580156113db573d6000803e3d6000fd5b5050604051631ed4896760e31b81526001600160a01b037f000000000000000000000000000000000000000000000000000000000000000081166004830152600094508616925063f6a44b38915060240160e060405180830381865afa158015611449573d6000803e3d6000fd5b505050506040513d601f19601f8201168201806040525081019061146d9190611bf8565b805160405163095ea7b360e01b81526001600160a01b039182166004820152602481018590529192507f0000000000000000000000000000000000000000000000000000000000000000169063095ea7b3906044016020604051808303816000875af11580156114e1573d6000803e3d6000fd5b505050506040513d601f19601f820116820180604052508101906115059190611dd6565b5060405163294091cd60e01b81526001600160a01b037f0000000000000000000000000000000000000000000000000000000000000000811660048301526024820184905233604483015284169063294091cd906064016020604051808303816000875af115801561157b573d6000803e3d6000fd5b505050506040513d601f19601f8201168201806040525081019061159f9190611b0b565b50505050565b6060600080846001600160a01b0316846040516115c29190611ee1565b600060405180830381855af49150503d80600081146115fd576040519150601f19603f3d011682016040523d82523d6000602084013e611602565b606091505b509150915061161285838361161b565b95945050505050565b6060826116305761162b8261167a565b611673565b815115801561164757506001600160a01b0384163b155b1561167057604051639996b31560e01b81526001600160a01b0385166004820152602401610461565b50805b9392505050565b80511561168a5780518082602001fd5b604051630a12f52160e11b815260040160405180910390fd5b50565b634e487b7160e01b600052604160045260246000fd5b604051601f8201601f1916810167ffffffffffffffff811182821017156116e5576116e56116a6565b604052919050565b6000602080838503121561170057600080fd5b823567ffffffffffffffff8082111561171857600080fd5b8185019150601f86601f84011261172e57600080fd5b823582811115611740576117406116a6565b8060051b61174f8682016116bc565b918252848101860191868101908a84111561176957600080fd5b87870192505b838310156117f9578235868111156117875760008081fd5b8701603f81018c136117995760008081fd5b888101356040888211156117af576117af6116a6565b6117c0828901601f19168c016116bc565b8281528e828486010111156117d55760008081fd5b828285018d83013760009281018c019290925250835250918701919087019061176f565b9a9950505050505050505050565b6001600160a01b03811681146116a357600080fd5b6000806000806080858703121561183257600080fd5b843561183d81611807565b935060208501359250604085013561185481611807565b9150606085013561186481611807565b939692955090935050565b60008060006060848603121561188457600080fd5b833561188f81611807565b9250602084013561189f81611807565b929592945050506040919091013590565b600080600080608085870312156118c657600080fd5b84356118d181611807565b935060208501356118e181611807565b925060408501359150606085013561186481611807565b60ff811681146116a357600080fd5b600080600080600080600080610100898b03121561192457600080fd5b883561192f81611807565b9750602089013561193f81611807565b9650604089013561194f81611807565b9550606089013594506080890135935060a089013561196d816118f8565b979a969950949793969295929450505060c08201359160e0013590565b6000806020838503121561199d57600080fd5b823567ffffffffffffffff808211156119b557600080fd5b818501915085601f8301126119c957600080fd5b8135818111156119d857600080fd5b8660208260051b85010111156119ed57600080fd5b60209290920196919550909350505050565b60005b83811015611a1a578181015183820152602001611a02565b50506000910152565b6000602080830181845280855180835260408601915060408160051b870101925083870160005b82811015611a9057878503603f1901845281518051808752611a71818989018a85016119ff565b601f01601f191695909501860194509285019290850190600101611a4a565b5092979650505050505050565b600080600060608486031215611ab257600080fd5b8335611abd81611807565b9250602084013591506040840135611ad481611807565b809150509250925092565b60008060408385031215611af257600080fd5b8235611afd81611807565b946020939093013593505050565b600060208284031215611b1d57600080fd5b5051919050565b600080600080600060a08688031215611b3c57600080fd5b5050835160208501516040860151606087015160809097015192989197509594509092509050565b634e487b7160e01b600052601160045260246000fd5b81810381811115610d8457610d84611b64565b600060208284031215611b9f57600080fd5b815161167381611807565b8082028115828204841417610d8457610d84611b64565b600082611bde57634e487b7160e01b600052601260045260246000fd5b500490565b80518015158114611bf357600080fd5b919050565b600060e08284031215611c0a57600080fd5b60405160e0810181811067ffffffffffffffff82111715611c2d57611c2d6116a6565b6040528251611c3b81611807565b808252506020830151602082015260408301516040820152606083015160608201526080830151608082015260a083015160a0820152611c7d60c08401611be3565b60c08201529392505050565b600060208284031215611c9b57600080fd5b8151611673816118f8565b60ff8281168282160390811115610d8457610d84611b64565b600181815b80851115611cfa578160001904821115611ce057611ce0611b64565b80851615611ced57918102915b93841c9390800290611cc4565b509250929050565b600082611d1157506001610d84565b81611d1e57506000610d84565b8160018114611d345760028114611d3e57611d5a565b6001915050610d84565b60ff841115611d4f57611d4f611b64565b50506001821b610d84565b5060208310610133831016604e8410600b8410161715611d7d575081810a610d84565b611d878383611cbf565b8060001904821115611d9b57611d9b611b64565b029392505050565b600061167360ff841683611d02565b6001600160a01b039384168152919092166020820152604081019190915260600190565b600060208284031215611de857600080fd5b61167382611be3565b60008060408385031215611e0457600080fd5b505080516020909101519092909150565b6001600160a01b0397881681529590961660208601526040850193909352606084019190915260ff16608083015260a082015260c081019190915260e00190565b634e487b7160e01b600052603260045260246000fd5b6000808335601e19843603018112611e8357600080fd5b83018035915067ffffffffffffffff821115611e9e57600080fd5b602001915036819003821315611eb357600080fd5b9250929050565b828482376000838201600081528351611ed78183602088016119ff565b0195945050505050565b60008251611ef38184602087016119ff565b919091019291505056fea26469706673582212202ebb14b301ab10725cb27b02d60cf4fd0d11db10c2da6491944e84d06bb4497464736f6c63430008190033","linkReferences":{}},"methodIdentifiers":{"burn(address,uint256,address)":"b8ce670d","mint(address,uint256,address,address)":"3a4d2cd1","multicall(bytes[])":"ac9650d8","permit(address,address,address,uint256,uint256,uint8,bytes32,bytes32)":"d339056d","permitDelegation(address,address,address,uint256,uint256,uint8,bytes32,bytes32)":"7f0b32db","pool()":"16f0115b","pyth()":"f98d06f0","stake(address,address,uint256)":"bf6eac2f","stakeEth(address,uint256)":"e7f43cca","swap(address,address,uint256,address)":"6e81221c","swapPlugin()":"ca66a9c5","unstake(address,address,uint256)":"60829f8a","updateOracleData(bytes[])":"08f90f5c","weth()":"3fc8cef3"},"id":60}