{"abi":[{"type":"constructor","inputs":[{"name":"_pyth","type":"address","internalType":"address"},{"name":"_pool","type":"address","internalType":"address"},{"name":"_weth","type":"address","internalType":"address payable"}],"stateMutability":"nonpayable"},{"type":"function","name":"burn","inputs":[{"name":"onBehalfOf","type":"address","internalType":"address"},{"name":"amount","type":"uint256","internalType":"uint256"}],"outputs":[],"stateMutability":"payable"},{"type":"function","name":"liquidity","inputs":[],"outputs":[{"name":"","type":"address","internalType":"contract Liquidity"}],"stateMutability":"view"},{"type":"function","name":"mint","inputs":[{"name":"amount","type":"uint256","internalType":"uint256"},{"name":"onBehalfOf","type":"address","internalType":"address"},{"name":"receiver","type":"address","internalType":"address"}],"outputs":[],"stateMutability":"payable"},{"type":"function","name":"multicall","inputs":[{"name":"data","type":"bytes[]","internalType":"bytes[]"}],"outputs":[{"name":"results","type":"bytes[]","internalType":"bytes[]"}],"stateMutability":"payable"},{"type":"function","name":"permit","inputs":[{"name":"owner","type":"address","internalType":"address"},{"name":"spender","type":"address","internalType":"address"},{"name":"token","type":"address","internalType":"address"},{"name":"amount","type":"uint256","internalType":"uint256"},{"name":"deadline","type":"uint256","internalType":"uint256"},{"name":"v","type":"uint8","internalType":"uint8"},{"name":"r","type":"bytes32","internalType":"bytes32"},{"name":"s","type":"bytes32","internalType":"bytes32"}],"outputs":[],"stateMutability":"payable"},{"type":"function","name":"permitDelegation","inputs":[{"name":"delegator","type":"address","internalType":"address"},{"name":"delegatee","type":"address","internalType":"address"},{"name":"token","type":"address","internalType":"address"},{"name":"amount","type":"uint256","internalType":"uint256"},{"name":"deadline","type":"uint256","internalType":"uint256"},{"name":"v","type":"uint8","internalType":"uint8"},{"name":"r","type":"bytes32","internalType":"bytes32"},{"name":"s","type":"bytes32","internalType":"bytes32"}],"outputs":[],"stateMutability":"payable"},{"type":"function","name":"pool","inputs":[],"outputs":[{"name":"","type":"address","internalType":"contract RxPool"}],"stateMutability":"view"},{"type":"function","name":"pyth","inputs":[],"outputs":[{"name":"","type":"address","internalType":"contract IPyth"}],"stateMutability":"view"},{"type":"function","name":"reserve","inputs":[],"outputs":[{"name":"","type":"address","internalType":"contract Reserve"}],"stateMutability":"view"},{"type":"function","name":"stake","inputs":[{"name":"token","type":"address","internalType":"address"},{"name":"amount","type":"uint256","internalType":"uint256"}],"outputs":[],"stateMutability":"payable"},{"type":"function","name":"stakeEth","inputs":[{"name":"amount","type":"uint256","internalType":"uint256"}],"outputs":[],"stateMutability":"payable"},{"type":"function","name":"swap","inputs":[{"name":"from","type":"address","internalType":"address"},{"name":"to","type":"address","internalType":"address"},{"name":"amount","type":"uint256","internalType":"uint256"},{"name":"toAddress","type":"address","internalType":"address"}],"outputs":[],"stateMutability":"payable"},{"type":"function","name":"synthPlugin","inputs":[],"outputs":[{"name":"","type":"address","internalType":"contract SynthPlugin"}],"stateMutability":"view"},{"type":"function","name":"unstake","inputs":[{"name":"token","type":"address","internalType":"address"},{"name":"amount","type":"uint256","internalType":"uint256"}],"outputs":[],"stateMutability":"payable"},{"type":"function","name":"updateOracleData","inputs":[{"name":"updateData","type":"bytes[]","internalType":"bytes[]"}],"outputs":[],"stateMutability":"payable"},{"type":"function","name":"weth","inputs":[],"outputs":[{"name":"","type":"address","internalType":"contract WETH9"}],"stateMutability":"view"},{"type":"error","name":"AddressEmptyCode","inputs":[{"name":"target","type":"address","internalType":"address"}]},{"type":"error","name":"FailedInnerCall","inputs":[]}],"bytecode":{"object":"0x6101406040523480156200001257600080fd5b50604051620021a6380380620021a68339810160408190526200003591620001d7565b6001600160a01b03808416608052821660a081905260408051630d34328160e11b81529051631a686502916004808201926020929091908290030181865afa15801562000086573d6000803e3d6000fd5b505050506040513d601f19601f82011682018060405250810190620000ac91906200022b565b6001600160a01b031660c0816001600160a01b03168152505060a0516001600160a01b031663cd3293de6040518163ffffffff1660e01b8152600401602060405180830381865afa15801562000106573d6000803e3d6000fd5b505050506040513d601f19601f820116820180604052508101906200012c91906200022b565b6001600160a01b0390811660e05260c05160405163f0a317eb60e01b81526000600482015291169063f0a317eb90602401602060405180830381865afa1580156200017b573d6000803e3d6000fd5b505050506040513d601f19601f82011682018060405250810190620001a191906200022b565b6001600160a01b0390811661010052166101205250620002529050565b6001600160a01b0381168114620001d457600080fd5b50565b600080600060608486031215620001ed57600080fd5b8351620001fa81620001be565b60208501519093506200020d81620001be565b60408501519092506200022081620001be565b809150509250925092565b6000602082840312156200023e57600080fd5b81516200024b81620001be565b9392505050565b60805160a05160c05160e0516101005161012051611e476200035f600039600081816101a4015281816108970152818161091d015281816109e10152610a930152600081816101fe015281816104ba015281816105ff0152818161073b01526107a001526000818161029e015281816109490152818161103a015281816111ac0152611492015260008181610170015281816105390152818161067501528181610af801528181610be701528181610cdc01528181610d73015281816113fc015261156501526000818161011f01528181610a6601528181610e18015281816111370152818161133001526116390152600081816102f80152818161033401526103ae0152611e476000f3fe6080604052600436106100f35760003560e01c80639dc29fac1161008a578063cd3293de11610059578063cd3293de1461028c578063d339056d146102c0578063da39b3e7146102d3578063f98d06f0146102e657600080fd5b80639dc29fac14610233578063ac9650d814610246578063adc9772e14610266578063c2a672e01461027957600080fd5b80636e81221c116100c65780636e81221c146101c65780637f0b32db146101d9578063813b4a42146101ec57806396db582a1461022057600080fd5b806308f90f5c146100f857806316f0115b1461010d5780631a6865021461015e5780633fc8cef314610192575b600080fd5b61010b6101063660046117b0565b61031a565b005b34801561011957600080fd5b506101417f000000000000000000000000000000000000000000000000000000000000000081565b6040516001600160a01b0390911681526020015b60405180910390f35b34801561016a57600080fd5b506101417f000000000000000000000000000000000000000000000000000000000000000081565b34801561019e57600080fd5b506101417f000000000000000000000000000000000000000000000000000000000000000081565b61010b6101d43660046118df565b61042f565b61010b6101e7366004611932565b610815565b3480156101f857600080fd5b506101417f000000000000000000000000000000000000000000000000000000000000000081565b61010b61022e3660046119bb565b610889565b61010b6102413660046119d4565b610aed565b610259610254366004611a00565b610e47565b6040516101559190611a99565b61010b6102743660046119d4565b610f30565b61010b6102873660046119d4565b61118a565b34801561029857600080fd5b506101417f000000000000000000000000000000000000000000000000000000000000000081565b61010b6102ce366004611932565b6113a3565b61010b6102e1366004611b13565b6113db565b3480156102f257600080fd5b506101417f000000000000000000000000000000000000000000000000000000000000000081565b60405163d47eed4560e01b81526000906001600160a01b037f0000000000000000000000000000000000000000000000000000000000000000169063d47eed4590610369908590600401611a99565b602060405180830381865afa158015610386573d6000803e3d6000fd5b505050506040513d601f19601f820116820180604052508101906103aa9190611b55565b90507f00000000000000000000000000000000000000000000000000000000000000006001600160a01b031663ef9e5e2882846040518363ffffffff1660e01b81526004016103f99190611a99565b6000604051808303818588803b15801561041257600080fd5b505af1158015610426573d6000803e3d6000fd5b50505050505050565b6040516323b872dd60e01b81526001600160a01b038516906323b872dd9061045f90339030908790600401611b6e565b6020604051808303816000875af115801561047e573d6000803e3d6000fd5b505050506040513d601f19601f820116820180604052508101906104a29190611ba7565b5060405163095ea7b360e01b81526001600160a01b037f0000000000000000000000000000000000000000000000000000000000000000811660048301526024820184905285169063095ea7b3906044016020604051808303816000875af1158015610512573d6000803e3d6000fd5b505050506040513d601f19601f820116820180604052508101906105369190611ba7565b507f00000000000000000000000000000000000000000000000000000000000000006001600160a01b0316635fcbd2856040518163ffffffff1660e01b8152600401602060405180830381865afa158015610595573d6000803e3d6000fd5b505050506040513d601f19601f820116820180604052508101906105b99190611bc2565b6001600160a01b0316846001600160a01b03160361067357604051633f3c271b60e21b81526001600160a01b0384811660048301526024820184905282811660448301527f0000000000000000000000000000000000000000000000000000000000000000169063fcf09c6c906064015b60408051808303816000875af1158015610648573d6000803e3d6000fd5b505050506040513d601f19601f8201168201806040525081019061066c9190611bdf565b505061080f565b7f00000000000000000000000000000000000000000000000000000000000000006001600160a01b0316635fcbd2856040518163ffffffff1660e01b8152600401602060405180830381865afa1580156106d1573d6000803e3d6000fd5b505050506040513d601f19601f820116820180604052508101906106f59190611bc2565b6001600160a01b0316836001600160a01b03160361076a57604051630d2a695560e21b81526001600160a01b0385811660048301526024820184905282811660448301527f000000000000000000000000000000000000000000000000000000000000000016906334a9a5549060640161062a565b604051631ba0488760e21b81526001600160a01b03858116600483015284811660248301526044820184905282811660648301527f00000000000000000000000000000000000000000000000000000000000000001690636e81221c9060840160408051808303816000875af11580156107e8573d6000803e3d6000fd5b505050506040513d601f19601f8201168201806040525081019061080c9190611bdf565b50505b50505050565b60405163016a5aab60e31b81526001600160a01b03871690630b52d5589061084d908b908b908a908a908a908a908a90600401611c03565b600060405180830381600087803b15801561086757600080fd5b505af115801561087b573d6000803e3d6000fd5b505050505050505050505050565b60001981036108955750475b7f00000000000000000000000000000000000000000000000000000000000000006001600160a01b031663d0e30db0826040518263ffffffff1660e01b81526004016000604051808303818588803b1580156108f057600080fd5b505af1158015610904573d6000803e3d6000fd5b5050604051631ed4896760e31b81526001600160a01b037f000000000000000000000000000000000000000000000000000000000000000081166004830152600094507f000000000000000000000000000000000000000000000000000000000000000016925063f6a44b38915060240160e060405180830381865afa158015610992573d6000803e3d6000fd5b505050506040513d601f19601f820116820180604052508101906109b69190611c44565b805160405163095ea7b360e01b81526001600160a01b039182166004820152602481018590529192507f0000000000000000000000000000000000000000000000000000000000000000169063095ea7b3906044016020604051808303816000875af1158015610a2a573d6000803e3d6000fd5b505050506040513d601f19601f82011682018060405250810190610a4e9190611ba7565b50604051634854b14360e01b81526001600160a01b037f00000000000000000000000000000000000000000000000000000000000000001690634854b14390610abf907f00000000000000000000000000000000000000000000000000000000000000009033908790600401611cd5565b600060405180830381600087803b158015610ad957600080fd5b505af115801561080c573d6000803e3d6000fd5b6000198103610be5577f00000000000000000000000000000000000000000000000000000000000000006001600160a01b031663f8d898986040518163ffffffff1660e01b8152600401602060405180830381865afa158015610b54573d6000803e3d6000fd5b505050506040513d601f19601f82011682018060405250810190610b789190611bc2565b6040516370a0823160e01b81523360048201526001600160a01b0391909116906370a0823190602401602060405180830381865afa158015610bbe573d6000803e3d6000fd5b505050506040513d601f19601f82011682018060405250810190610be29190611b55565b90505b7f00000000000000000000000000000000000000000000000000000000000000006001600160a01b0316635fcbd2856040518163ffffffff1660e01b8152600401602060405180830381865afa158015610c43573d6000803e3d6000fd5b505050506040513d601f19601f82011682018060405250810190610c679190611bc2565b6001600160a01b03166323b872dd3330846040518463ffffffff1660e01b8152600401610c9693929190611b6e565b6020604051808303816000875af1158015610cb5573d6000803e3d6000fd5b505050506040513d601f19601f82011682018060405250810190610cd99190611ba7565b507f00000000000000000000000000000000000000000000000000000000000000006001600160a01b0316635fcbd2856040518163ffffffff1660e01b8152600401602060405180830381865afa158015610d38573d6000803e3d6000fd5b505050506040513d601f19601f82011682018060405250810190610d5c9190611bc2565b60405163095ea7b360e01b81526001600160a01b037f00000000000000000000000000000000000000000000000000000000000000008116600483015260248201849052919091169063095ea7b3906044016020604051808303816000875af1158015610dcd573d6000803e3d6000fd5b505050506040513d601f19601f82011682018060405250810190610df19190611ba7565b50604051632770a7eb60e21b81526001600160a01b038381166004830152602482018390527f00000000000000000000000000000000000000000000000000000000000000001690639dc29fac90604401610abf565b6040805160008152602081019091526060908267ffffffffffffffff811115610e7257610e72611769565b604051908082528060200260200182016040528015610ea557816020015b6060815260200190600190039081610e905790505b50915060005b83811015610f2757610f0230868684818110610ec957610ec9611d31565b9050602002810190610edb9190611d47565b85604051602001610eee93929190611d95565b604051602081830303815290604052611668565b838281518110610f1457610f14611d31565b6020908102919091010152600101610eab565b50505b92915050565b6000198103610fa4576040516370a0823160e01b81523360048201526001600160a01b038316906370a0823190602401602060405180830381865afa158015610f7d573d6000803e3d6000fd5b505050506040513d601f19601f82011682018060405250810190610fa19190611b55565b90505b6040516323b872dd60e01b81526001600160a01b038316906323b872dd90610fd490339030908690600401611b6e565b6020604051808303816000875af1158015610ff3573d6000803e3d6000fd5b505050506040513d601f19601f820116820180604052508101906110179190611ba7565b50604051631ed4896760e31b81526001600160a01b0383811660048301526000917f00000000000000000000000000000000000000000000000000000000000000009091169063f6a44b389060240160e060405180830381865afa158015611083573d6000803e3d6000fd5b505050506040513d601f19601f820116820180604052508101906110a79190611c44565b805160405163095ea7b360e01b81526001600160a01b0391821660048201526024810185905291925084169063095ea7b3906044016020604051808303816000875af11580156110fb573d6000803e3d6000fd5b505050506040513d601f19601f8201168201806040525081019061111f9190611ba7565b50604051634854b14360e01b81526001600160a01b037f00000000000000000000000000000000000000000000000000000000000000001690634854b1439061117090869033908790600401611cd5565b600060405180830381600087803b15801561041257600080fd5b604051631ed4896760e31b81526001600160a01b0383811660048301526000917f00000000000000000000000000000000000000000000000000000000000000009091169063f6a44b389060240160e060405180830381865afa1580156111f5573d6000803e3d6000fd5b505050506040513d601f19601f820116820180604052508101906112199190611c44565b90506000670de0b6b3a76400008383600001516001600160a01b03166371ca337d6040518163ffffffff1660e01b8152600401602060405180830381865afa158015611269573d6000803e3d6000fd5b505050506040513d601f19601f8201168201806040525081019061128d9190611b55565b6112979190611dbc565b6112a19190611dd3565b82516040516323b872dd60e01b81529192506001600160a01b0316906323b872dd906112d590339030908690600401611b6e565b6020604051808303816000875af11580156112f4573d6000803e3d6000fd5b505050506040513d601f19601f820116820180604052508101906113189190611ba7565b5060405163c148cf8560e01b81526001600160a01b037f0000000000000000000000000000000000000000000000000000000000000000169063c148cf859061136b908790339060001990600401611cd5565b600060405180830381600087803b15801561138557600080fd5b505af1158015611399573d6000803e3d6000fd5b5050505050505050565b60405163d505accf60e01b81526001600160a01b0387169063d505accf9061084d908b908b908a908a908a908a908a90600401611c03565b600019830361160b5760405163d28e512d60e01b81523360048201526000907f00000000000000000000000000000000000000000000000000000000000000006001600160a01b03169063d28e512d90602401602060405180830381865afa15801561144b573d6000803e3d6000fd5b505050506040513d601f19601f8201168201806040525081019061146f9190611b55565b604051632b39b02760e21b81523360048201529091506000906001600160a01b037f0000000000000000000000000000000000000000000000000000000000000000169063ace6c09c90602401602060405180830381865afa1580156114d9573d6000803e3d6000fd5b505050506040513d601f19601f820116820180604052508101906114fd9190611b55565b90508082106115535760405162461bcd60e51b815260206004820152601f60248201527f52656178526f757465723a20496e73756666696369656e74206173736574730060448201526064015b60405180910390fd5b600061155f8383611d1e565b905060007f00000000000000000000000000000000000000000000000000000000000000006001600160a01b0316634c7198f46040518163ffffffff1660e01b8152600401602060405180830381865afa1580156115c1573d6000803e3d6000fd5b505050506040513d601f19601f820116820180604052508101906115e59190611b55565b9050806115fa83670de0b6b3a7640000611dbc565b6116049190611dd3565b9650505050505b60405163da39b3e760e01b8152600481018490526001600160a01b03838116602483015282811660448301527f0000000000000000000000000000000000000000000000000000000000000000169063da39b3e790606401611170565b6060600080846001600160a01b0316846040516116859190611df5565b600060405180830381855af49150503d80600081146116c0576040519150601f19603f3d011682016040523d82523d6000602084013e6116c5565b606091505b50915091506116d58583836116de565b95945050505050565b6060826116f3576116ee8261173d565b611736565b815115801561170a57506001600160a01b0384163b155b1561173357604051639996b31560e01b81526001600160a01b038516600482015260240161154a565b50805b9392505050565b80511561174d5780518082602001fd5b604051630a12f52160e11b815260040160405180910390fd5b50565b634e487b7160e01b600052604160045260246000fd5b604051601f8201601f1916810167ffffffffffffffff811182821017156117a8576117a8611769565b604052919050565b600060208083850312156117c357600080fd5b823567ffffffffffffffff808211156117db57600080fd5b8185019150601f86601f8401126117f157600080fd5b82358281111561180357611803611769565b8060051b61181286820161177f565b918252848101860191868101908a84111561182c57600080fd5b87870192505b838310156118bc5782358681111561184a5760008081fd5b8701603f81018c1361185c5760008081fd5b8881013560408882111561187257611872611769565b611883828901601f19168c0161177f565b8281528e828486010111156118985760008081fd5b828285018d83013760009281018c0192909252508352509187019190870190611832565b9a9950505050505050505050565b6001600160a01b038116811461176657600080fd5b600080600080608085870312156118f557600080fd5b8435611900816118ca565b93506020850135611910816118ca565b9250604085013591506060850135611927816118ca565b939692955090935050565b600080600080600080600080610100898b03121561194f57600080fd5b883561195a816118ca565b9750602089013561196a816118ca565b9650604089013561197a816118ca565b9550606089013594506080890135935060a089013560ff8116811461199e57600080fd5b979a969950949793969295929450505060c08201359160e0013590565b6000602082840312156119cd57600080fd5b5035919050565b600080604083850312156119e757600080fd5b82356119f2816118ca565b946020939093013593505050565b60008060208385031215611a1357600080fd5b823567ffffffffffffffff80821115611a2b57600080fd5b818501915085601f830112611a3f57600080fd5b813581811115611a4e57600080fd5b8660208260051b8501011115611a6357600080fd5b60209290920196919550909350505050565b60005b83811015611a90578181015183820152602001611a78565b50506000910152565b6000602080830181845280855180835260408601915060408160051b870101925083870160005b82811015611b0657878503603f1901845281518051808752611ae7818989018a8501611a75565b601f01601f191695909501860194509285019290850190600101611ac0565b5092979650505050505050565b600080600060608486031215611b2857600080fd5b833592506020840135611b3a816118ca565b91506040840135611b4a816118ca565b809150509250925092565b600060208284031215611b6757600080fd5b5051919050565b6001600160a01b039384168152919092166020820152604081019190915260600190565b80518015158114611ba257600080fd5b919050565b600060208284031215611bb957600080fd5b61173682611b92565b600060208284031215611bd457600080fd5b8151611736816118ca565b60008060408385031215611bf257600080fd5b505080516020909101519092909150565b6001600160a01b0397881681529590961660208601526040850193909352606084019190915260ff16608083015260a082015260c081019190915260e00190565b600060e08284031215611c5657600080fd5b60405160e0810181811067ffffffffffffffff82111715611c7957611c79611769565b6040528251611c87816118ca565b808252506020830151602082015260408301516040820152606083015160608201526080830151608082015260a083015160a0820152611cc960c08401611b92565b60c08201529392505050565b6001600160a01b039384168152919092166020820152604081019190915260806060820181905260009082015260a00190565b634e487b7160e01b600052601160045260246000fd5b81810381811115610f2a57610f2a611d08565b634e487b7160e01b600052603260045260246000fd5b6000808335601e19843603018112611d5e57600080fd5b83018035915067ffffffffffffffff821115611d7957600080fd5b602001915036819003821315611d8e57600080fd5b9250929050565b828482376000838201600081528351611db2818360208801611a75565b0195945050505050565b8082028115828204841417610f2a57610f2a611d08565b600082611df057634e487b7160e01b600052601260045260246000fd5b500490565b60008251611e07818460208701611a75565b919091019291505056fea264697066735822122064eaca7cd0e96634d32cd475abdab91abf2fc76463861af854c3d65304ab109064736f6c63430008170033","linkReferences":{}},"methodIdentifiers":{"burn(address,uint256)":"9dc29fac","liquidity()":"1a686502","mint(uint256,address,address)":"da39b3e7","multicall(bytes[])":"ac9650d8","permit(address,address,address,uint256,uint256,uint8,bytes32,bytes32)":"d339056d","permitDelegation(address,address,address,uint256,uint256,uint8,bytes32,bytes32)":"7f0b32db","pool()":"16f0115b","pyth()":"f98d06f0","reserve()":"cd3293de","stake(address,uint256)":"adc9772e","stakeEth(uint256)":"96db582a","swap(address,address,uint256,address)":"6e81221c","synthPlugin()":"813b4a42","unstake(address,uint256)":"c2a672e0","updateOracleData(bytes[])":"08f90f5c","weth()":"3fc8cef3"},"id":62}