{"abi":[{"type":"function","name":"allCollaterals","inputs":[{"name":"","type":"uint256","internalType":"uint256"}],"outputs":[{"name":"","type":"address","internalType":"address"}],"stateMutability":"view"},{"type":"function","name":"collaterals","inputs":[{"name":"","type":"address","internalType":"address"}],"outputs":[{"name":"vault","type":"address","internalType":"address"},{"name":"baseLTV","type":"uint256","internalType":"uint256"},{"name":"liquidationThreshold","type":"uint256","internalType":"uint256"},{"name":"liquidationBonus","type":"uint256","internalType":"uint256"},{"name":"liquidationFee","type":"uint256","internalType":"uint256"},{"name":"maxDeposits","type":"uint256","internalType":"uint256"},{"name":"active","type":"bool","internalType":"bool"}],"stateMutability":"view"},{"type":"function","name":"enabledCollaterals","inputs":[{"name":"","type":"address","internalType":"address"},{"name":"","type":"uint256","internalType":"uint256"}],"outputs":[{"name":"","type":"address","internalType":"address"}],"stateMutability":"view"},{"type":"event","name":"CollateralRemoved","inputs":[{"name":"asset","type":"address","indexed":true,"internalType":"address"}],"anonymous":false},{"type":"event","name":"CollateralUpdated","inputs":[{"name":"asset","type":"address","indexed":true,"internalType":"address"},{"name":"config","type":"tuple","indexed":false,"internalType":"struct ReserveStorage.Collateral","components":[{"name":"vault","type":"address","internalType":"address"},{"name":"baseLTV","type":"uint256","internalType":"uint256"},{"name":"liquidationThreshold","type":"uint256","internalType":"uint256"},{"name":"liquidationBonus","type":"uint256","internalType":"uint256"},{"name":"liquidationFee","type":"uint256","internalType":"uint256"},{"name":"maxDeposits","type":"uint256","internalType":"uint256"},{"name":"active","type":"bool","internalType":"bool"}]}],"anonymous":false},{"type":"event","name":"NewCollateral","inputs":[{"name":"asset","type":"address","indexed":true,"internalType":"address"},{"name":"config","type":"tuple","indexed":false,"internalType":"struct ReserveStorage.Collateral","components":[{"name":"vault","type":"address","internalType":"address"},{"name":"baseLTV","type":"uint256","internalType":"uint256"},{"name":"liquidationThreshold","type":"uint256","internalType":"uint256"},{"name":"liquidationBonus","type":"uint256","internalType":"uint256"},{"name":"liquidationFee","type":"uint256","internalType":"uint256"},{"name":"maxDeposits","type":"uint256","internalType":"uint256"},{"name":"active","type":"bool","internalType":"bool"}]}],"anonymous":false}],"bytecode":{"object":"0x6080604052348015600e575f80fd5b5061022a8061001c5f395ff3fe608060405234801561000f575f80fd5b506004361061003f575f3560e01c8063933d649514610043578063d659993414610073578063eeb97d3b14610086575b5f80fd5b61005661005136600461017a565b61011e565b6040516001600160a01b0390911681526020015b60405180910390f35b6100566100813660046101ac565b610146565b6100dd6100943660046101d4565b5f6020819052908152604090208054600182015460028301546003840154600485015460058601546006909601546001600160a01b039095169593949293919290919060ff1687565b604080516001600160a01b0390981688526020880196909652948601939093526060850191909152608084015260a0830152151560c082015260e00161006a565b6002818154811061012d575f80fd5b5f918252602090912001546001600160a01b0316905081565b6001602052815f5260405f20818154811061015f575f80fd5b5f918252602090912001546001600160a01b03169150829050565b5f6020828403121561018a575f80fd5b5035919050565b80356001600160a01b03811681146101a7575f80fd5b919050565b5f80604083850312156101bd575f80fd5b6101c683610191565b946020939093013593505050565b5f602082840312156101e4575f80fd5b6101ed82610191565b939250505056fea2646970667358221220b5c90e00c7f0d97de84acd7eec383b3aafdd6d4795f455f1105b60ecde1c896f64736f6c63430008190033","linkReferences":{}},"methodIdentifiers":{"allCollaterals(uint256)":"933d6495","collaterals(address)":"eeb97d3b","enabledCollaterals(address,uint256)":"d6599934"},"id":98}