{"abi":[{"type":"function","name":"_pluginConfig","inputs":[{"name":"","type":"address","internalType":"address"}],"outputs":[{"name":"active","type":"bool","internalType":"bool"}],"stateMutability":"view"},{"type":"function","name":"_plugins","inputs":[{"name":"","type":"uint256","internalType":"uint256"}],"outputs":[{"name":"","type":"address","internalType":"address"}],"stateMutability":"view"},{"type":"event","name":"PluginAdded","inputs":[{"name":"plugin","type":"address","indexed":false,"internalType":"address"}],"anonymous":false},{"type":"event","name":"PluginRemoved","inputs":[{"name":"plugin","type":"address","indexed":false,"internalType":"address"}],"anonymous":false}],"bytecode":{"object":"0x6080604052348015600e575f80fd5b5061013c8061001c5f395ff3fe608060405234801561000f575f80fd5b5060043610610034575f3560e01c8063590ceaaa14610038578063b471b6011461006f575b5f80fd5b61005a6100463660046100c2565b5f6020819052908152604090205460ff1681565b60405190151581526020015b60405180910390f35b61008261007d3660046100ef565b61009a565b6040516001600160a01b039091168152602001610066565b600181815481106100a9575f80fd5b5f918252602090912001546001600160a01b0316905081565b5f602082840312156100d2575f80fd5b81356001600160a01b03811681146100e8575f80fd5b9392505050565b5f602082840312156100ff575f80fd5b503591905056fea26469706673582212208dfa327a88cd014f86efb4145198fc74dae0451d186c66aaa40ea05c0ddf14a864736f6c63430008190033","linkReferences":{}},"methodIdentifiers":{"_pluginConfig(address)":"590ceaaa","_plugins(uint256)":"b471b601"},"id":90}