{"abi":[{"type":"constructor","inputs":[{"name":"_name","type":"string","internalType":"string"},{"name":"_symbol","type":"string","internalType":"string"},{"name":"_mintAmount","type":"uint256","internalType":"uint256"}],"stateMutability":"nonpayable"},{"type":"function","name":"DOMAIN_SEPARATOR","inputs":[],"outputs":[{"name":"","type":"bytes32","internalType":"bytes32"}],"stateMutability":"view"},{"type":"function","name":"MINT_PERIOD","inputs":[],"outputs":[{"name":"","type":"uint256","internalType":"uint256"}],"stateMutability":"view"},{"type":"function","name":"allowance","inputs":[{"name":"owner","type":"address","internalType":"address"},{"name":"spender","type":"address","internalType":"address"}],"outputs":[{"name":"","type":"uint256","internalType":"uint256"}],"stateMutability":"view"},{"type":"function","name":"approve","inputs":[{"name":"spender","type":"address","internalType":"address"},{"name":"value","type":"uint256","internalType":"uint256"}],"outputs":[{"name":"","type":"bool","internalType":"bool"}],"stateMutability":"nonpayable"},{"type":"function","name":"balanceOf","inputs":[{"name":"account","type":"address","internalType":"address"}],"outputs":[{"name":"","type":"uint256","internalType":"uint256"}],"stateMutability":"view"},{"type":"function","name":"decimals","inputs":[],"outputs":[{"name":"","type":"uint8","internalType":"uint8"}],"stateMutability":"view"},{"type":"function","name":"eip712Domain","inputs":[],"outputs":[{"name":"fields","type":"bytes1","internalType":"bytes1"},{"name":"name","type":"string","internalType":"string"},{"name":"version","type":"string","internalType":"string"},{"name":"chainId","type":"uint256","internalType":"uint256"},{"name":"verifyingContract","type":"address","internalType":"address"},{"name":"salt","type":"bytes32","internalType":"bytes32"},{"name":"extensions","type":"uint256[]","internalType":"uint256[]"}],"stateMutability":"view"},{"type":"function","name":"lastMinted","inputs":[{"name":"","type":"address","internalType":"address"}],"outputs":[{"name":"","type":"uint256","internalType":"uint256"}],"stateMutability":"view"},{"type":"function","name":"mint","inputs":[],"outputs":[],"stateMutability":"nonpayable"},{"type":"function","name":"mintAmount","inputs":[],"outputs":[{"name":"","type":"uint256","internalType":"uint256"}],"stateMutability":"view"},{"type":"function","name":"name","inputs":[],"outputs":[{"name":"","type":"string","internalType":"string"}],"stateMutability":"view"},{"type":"function","name":"nonces","inputs":[{"name":"owner","type":"address","internalType":"address"}],"outputs":[{"name":"","type":"uint256","internalType":"uint256"}],"stateMutability":"view"},{"type":"function","name":"permit","inputs":[{"name":"owner","type":"address","internalType":"address"},{"name":"spender","type":"address","internalType":"address"},{"name":"value","type":"uint256","internalType":"uint256"},{"name":"deadline","type":"uint256","internalType":"uint256"},{"name":"v","type":"uint8","internalType":"uint8"},{"name":"r","type":"bytes32","internalType":"bytes32"},{"name":"s","type":"bytes32","internalType":"bytes32"}],"outputs":[],"stateMutability":"nonpayable"},{"type":"function","name":"symbol","inputs":[],"outputs":[{"name":"","type":"string","internalType":"string"}],"stateMutability":"view"},{"type":"function","name":"totalSupply","inputs":[],"outputs":[{"name":"","type":"uint256","internalType":"uint256"}],"stateMutability":"view"},{"type":"function","name":"transfer","inputs":[{"name":"to","type":"address","internalType":"address"},{"name":"value","type":"uint256","internalType":"uint256"}],"outputs":[{"name":"","type":"bool","internalType":"bool"}],"stateMutability":"nonpayable"},{"type":"function","name":"transferFrom","inputs":[{"name":"from","type":"address","internalType":"address"},{"name":"to","type":"address","internalType":"address"},{"name":"value","type":"uint256","internalType":"uint256"}],"outputs":[{"name":"","type":"bool","internalType":"bool"}],"stateMutability":"nonpayable"},{"type":"event","name":"Approval","inputs":[{"name":"owner","type":"address","indexed":true,"internalType":"address"},{"name":"spender","type":"address","indexed":true,"internalType":"address"},{"name":"value","type":"uint256","indexed":false,"internalType":"uint256"}],"anonymous":false},{"type":"event","name":"EIP712DomainChanged","inputs":[],"anonymous":false},{"type":"event","name":"Transfer","inputs":[{"name":"from","type":"address","indexed":true,"internalType":"address"},{"name":"to","type":"address","indexed":true,"internalType":"address"},{"name":"value","type":"uint256","indexed":false,"internalType":"uint256"}],"anonymous":false},{"type":"error","name":"ECDSAInvalidSignature","inputs":[]},{"type":"error","name":"ECDSAInvalidSignatureLength","inputs":[{"name":"length","type":"uint256","internalType":"uint256"}]},{"type":"error","name":"ECDSAInvalidSignatureS","inputs":[{"name":"s","type":"bytes32","internalType":"bytes32"}]},{"type":"error","name":"ERC20InsufficientAllowance","inputs":[{"name":"spender","type":"address","internalType":"address"},{"name":"allowance","type":"uint256","internalType":"uint256"},{"name":"needed","type":"uint256","internalType":"uint256"}]},{"type":"error","name":"ERC20InsufficientBalance","inputs":[{"name":"sender","type":"address","internalType":"address"},{"name":"balance","type":"uint256","internalType":"uint256"},{"name":"needed","type":"uint256","internalType":"uint256"}]},{"type":"error","name":"ERC20InvalidApprover","inputs":[{"name":"approver","type":"address","internalType":"address"}]},{"type":"error","name":"ERC20InvalidReceiver","inputs":[{"name":"receiver","type":"address","internalType":"address"}]},{"type":"error","name":"ERC20InvalidSender","inputs":[{"name":"sender","type":"address","internalType":"address"}]},{"type":"error","name":"ERC20InvalidSpender","inputs":[{"name":"spender","type":"address","internalType":"address"}]},{"type":"error","name":"ERC2612ExpiredSignature","inputs":[{"name":"deadline","type":"uint256","internalType":"uint256"}]},{"type":"error","name":"ERC2612InvalidSigner","inputs":[{"name":"signer","type":"address","internalType":"address"},{"name":"owner","type":"address","internalType":"address"}]},{"type":"error","name":"InvalidAccountNonce","inputs":[{"name":"account","type":"address","internalType":"address"},{"name":"currentNonce","type":"uint256","internalType":"uint256"}]},{"type":"error","name":"InvalidShortString","inputs":[]},{"type":"error","name":"ReentrancyGuardReentrantCall","inputs":[]},{"type":"error","name":"StringTooLong","inputs":[{"name":"str","type":"string","internalType":"string"}]}],"bytecode":{"object":"0x610160604052348015610010575f80fd5b5060405161152f38038061152f83398101604081905261002f9161023f565b6040805180820190915260018152603160f81b60208201528390819081856003610059838261032a565b506004610066828261032a565b506100769150839050600561012b565b6101205261008581600661012b565b61014052815160208084019190912060e052815190820120610100524660a05261011160e05161010051604080517f8b73c3c69bb8fe3d512ecc4cf759cc79239f7b179b0ffacaa9a75d522b39400f60208201529081019290925260608201524660808201523060a08201525f9060c00160405160208183030381529060405280519060200120905090565b60805250503060c052506001600855600955506104419050565b5f6020835110156101465761013f8361015d565b9050610157565b81610151848261032a565b5060ff90505b92915050565b5f80829050601f81511115610190578260405163305a27a960e01b815260040161018791906103e9565b60405180910390fd5b805161019b8261041e565b179392505050565b634e487b7160e01b5f52604160045260245ffd5b5f82601f8301126101c6575f80fd5b81516001600160401b03808211156101e0576101e06101a3565b604051601f8301601f19908116603f01168101908282118183101715610208576102086101a3565b81604052838152866020858801011115610220575f80fd5b8360208701602083015e5f602085830101528094505050505092915050565b5f805f60608486031215610251575f80fd5b83516001600160401b0380821115610267575f80fd5b610273878388016101b7565b94506020860151915080821115610288575f80fd5b50610295868287016101b7565b925050604084015190509250925092565b600181811c908216806102ba57607f821691505b6020821081036102d857634e487b7160e01b5f52602260045260245ffd5b50919050565b601f82111561032557805f5260205f20601f840160051c810160208510156103035750805b601f840160051c820191505b81811015610322575f815560010161030f565b50505b505050565b81516001600160401b03811115610343576103436101a3565b6103578161035184546102a6565b846102de565b602080601f83116001811461038a575f84156103735750858301515b5f19600386901b1c1916600185901b1785556103e1565b5f85815260208120601f198616915b828110156103b857888601518255948401946001909101908401610399565b50858210156103d557878501515f19600388901b60f8161c191681555b505060018460011b0185555b505050505050565b602081525f82518060208401528060208501604085015e5f604082850101526040601f19601f83011684010191505092915050565b805160208083015191908110156102d8575f1960209190910360031b1b16919050565b60805160a05160c05160e05161010051610120516101405161109d6104925f395f6108cd01525f6108a001525f61084901525f61082101525f61077c01525f6107a601525f6107d0015261109d5ff3fe608060405234801561000f575f80fd5b5060043610610106575f3560e01c80635a2bcc181161009e57806384b0196e1161006e57806384b0196e146101fe57806395d89b4114610219578063a9059cbb14610221578063d505accf14610234578063dd62ed3e14610247575f80fd5b80635a2bcc18146101b057806370a08231146101b95780637ecebe00146101e157806383ea6e97146101f4575f80fd5b806323b872dd116100d957806323b872dd146101675780632e686d691461017a578063313ce567146101995780633644e515146101a8575f80fd5b806306fdde031461010a578063095ea7b3146101285780631249c58b1461014b57806318160ddd14610155575b5f80fd5b61011261027f565b60405161011f9190610dfe565b60405180910390f35b61013b610136366004610e32565b61030f565b604051901515815260200161011f565b610153610328565b005b6002545b60405190815260200161011f565b61013b610175366004610e5a565b610442565b610159610188366004610e93565b600a6020525f908152604090205481565b6040516012815260200161011f565b610159610465565b61015960095481565b6101596101c7366004610e93565b6001600160a01b03165f9081526020819052604090205490565b6101596101ef366004610e93565b610473565b6101596201518081565b610206610490565b60405161011f9796959493929190610eac565b6101126104d2565b61013b61022f366004610e32565b6104e1565b610153610242366004610f43565b6104ee565b610159610255366004610fb0565b6001600160a01b039182165f90815260016020908152604080832093909416825291909152205490565b60606003805461028e90610fe1565b80601f01602080910402602001604051908101604052809291908181526020018280546102ba90610fe1565b80156103055780601f106102dc57610100808354040283529160200191610305565b820191905f5260205f20905b8154815290600101906020018083116102e857829003601f168201915b5050505050905090565b5f3361031c818585610624565b60019150505b92915050565b610330610636565b335f908152600a6020526040902054620151809061034e904261102d565b10156103b35760405162461bcd60e51b815260206004820152602960248201527f4d6f636b546f6b656e3a2043616e206f6e6c79206d696e74206f6e636520657660448201526865727920323468727360b81b60648201526084015b60405180910390fd5b600b5443036104145760405162461bcd60e51b815260206004820152602760248201527f4d6f636b546f6b656e3a2043616e206f6e6c79206d696e74206f6e63652070656044820152667220626c6f636b60c81b60648201526084016103aa565b335f818152600a6020526040902042905543600b556009546104369190610660565b6104406001600855565b565b5f3361044f858285610698565b61045a858585610713565b506001949350505050565b5f61046e610770565b905090565b6001600160a01b0381165f90815260076020526040812054610322565b5f6060805f805f60606104a1610899565b6104a96108c6565b604080515f80825260208201909252600f60f81b9b939a50919850469750309650945092509050565b60606004805461028e90610fe1565b5f3361031c818585610713565b834211156105125760405163313c898160e11b8152600481018590526024016103aa565b5f7f6e71edae12b1b97f4d1f60370fef10105fa2faae0126114a169c64845d6126c988888861055d8c6001600160a01b03165f90815260076020526040902080546001810190915590565b6040805160208101969096526001600160a01b0394851690860152929091166060840152608083015260a082015260c0810186905260e0016040516020818303038152906040528051906020012090505f6105b7826108f3565b90505f6105c68287878761091f565b9050896001600160a01b0316816001600160a01b03161461060d576040516325c0072360e11b81526001600160a01b0380831660048301528b1660248201526044016103aa565b6106188a8a8a610624565b50505050505050505050565b610631838383600161094b565b505050565b60026008540361065957604051633ee5aeb560e01b815260040160405180910390fd5b6002600855565b6001600160a01b0382166106895760405163ec442f0560e01b81525f60048201526024016103aa565b6106945f8383610a1d565b5050565b6001600160a01b038381165f908152600160209081526040808320938616835292905220545f19811461070d57818110156106ff57604051637dc7a0d960e11b81526001600160a01b038416600482015260248101829052604481018390526064016103aa565b61070d84848484035f61094b565b50505050565b6001600160a01b03831661073c57604051634b637e8f60e11b81525f60048201526024016103aa565b6001600160a01b0382166107655760405163ec442f0560e01b81525f60048201526024016103aa565b610631838383610a1d565b5f306001600160a01b037f0000000000000000000000000000000000000000000000000000000000000000161480156107c857507f000000000000000000000000000000000000000000000000000000000000000046145b156107f257507f000000000000000000000000000000000000000000000000000000000000000090565b61046e604080517f8b73c3c69bb8fe3d512ecc4cf759cc79239f7b179b0ffacaa9a75d522b39400f60208201527f0000000000000000000000000000000000000000000000000000000000000000918101919091527f000000000000000000000000000000000000000000000000000000000000000060608201524660808201523060a08201525f9060c00160405160208183030381529060405280519060200120905090565b606061046e7f00000000000000000000000000000000000000000000000000000000000000006005610b43565b606061046e7f00000000000000000000000000000000000000000000000000000000000000006006610b43565b5f6103226108ff610770565b8360405161190160f01b8152600281019290925260228201526042902090565b5f805f8061092f88888888610bec565b92509250925061093f8282610cb4565b50909695505050505050565b6001600160a01b0384166109745760405163e602df0560e01b81525f60048201526024016103aa565b6001600160a01b03831661099d57604051634a1406b160e11b81525f60048201526024016103aa565b6001600160a01b038085165f908152600160209081526040808320938716835292905220829055801561070d57826001600160a01b0316846001600160a01b03167f8c5be1e5ebec7d5bd14f71427d1e84f3dd0314c0f7b2291e5b200ac8c7c3b92584604051610a0f91815260200190565b60405180910390a350505050565b6001600160a01b038316610a47578060025f828254610a3c9190611040565b90915550610ab79050565b6001600160a01b0383165f9081526020819052604090205481811015610a995760405163391434e360e21b81526001600160a01b038516600482015260248101829052604481018390526064016103aa565b6001600160a01b0384165f9081526020819052604090209082900390555b6001600160a01b038216610ad357600280548290039055610af1565b6001600160a01b0382165f9081526020819052604090208054820190555b816001600160a01b0316836001600160a01b03167fddf252ad1be2c89b69c2b068fc378daa952ba7f163c4a11628f55a4df523b3ef83604051610b3691815260200190565b60405180910390a3505050565b606060ff8314610b5d57610b5683610d6c565b9050610322565b818054610b6990610fe1565b80601f0160208091040260200160405190810160405280929190818152602001828054610b9590610fe1565b8015610be05780601f10610bb757610100808354040283529160200191610be0565b820191905f5260205f20905b815481529060010190602001808311610bc357829003601f168201915b50505050509050610322565b5f80807f7fffffffffffffffffffffffffffffff5d576e7357a4501ddfe92f46681b20a0841115610c2557505f91506003905082610caa565b604080515f808252602082018084528a905260ff891692820192909252606081018790526080810186905260019060a0016020604051602081039080840390855afa158015610c76573d5f803e3d5ffd5b5050604051601f1901519150506001600160a01b038116610ca157505f925060019150829050610caa565b92505f91508190505b9450945094915050565b5f826003811115610cc757610cc7611053565b03610cd0575050565b6001826003811115610ce457610ce4611053565b03610d025760405163f645eedf60e01b815260040160405180910390fd5b6002826003811115610d1657610d16611053565b03610d375760405163fce698f760e01b8152600481018290526024016103aa565b6003826003811115610d4b57610d4b611053565b03610694576040516335e2f38360e21b8152600481018290526024016103aa565b60605f610d7883610da9565b6040805160208082528183019092529192505f91906020820181803683375050509182525060208101929092525090565b5f60ff8216601f81111561032257604051632cd44ac360e21b815260040160405180910390fd5b5f81518084528060208401602086015e5f602082860101526020601f19601f83011685010191505092915050565b602081525f610e106020830184610dd0565b9392505050565b80356001600160a01b0381168114610e2d575f80fd5b919050565b5f8060408385031215610e43575f80fd5b610e4c83610e17565b946020939093013593505050565b5f805f60608486031215610e6c575f80fd5b610e7584610e17565b9250610e8360208501610e17565b9150604084013590509250925092565b5f60208284031215610ea3575f80fd5b610e1082610e17565b60ff60f81b881681525f602060e06020840152610ecc60e084018a610dd0565b8381036040850152610ede818a610dd0565b606085018990526001600160a01b038816608086015260a0850187905284810360c0860152855180825260208088019350909101905f5b81811015610f3157835183529284019291840191600101610f15565b50909c9b505050505050505050505050565b5f805f805f805f60e0888a031215610f59575f80fd5b610f6288610e17565b9650610f7060208901610e17565b95506040880135945060608801359350608088013560ff81168114610f93575f80fd5b9699959850939692959460a0840135945060c09093013592915050565b5f8060408385031215610fc1575f80fd5b610fca83610e17565b9150610fd860208401610e17565b90509250929050565b600181811c90821680610ff557607f821691505b60208210810361101357634e487b7160e01b5f52602260045260245ffd5b50919050565b634e487b7160e01b5f52601160045260245ffd5b8181038181111561032257610322611019565b8082018082111561032257610322611019565b634e487b7160e01b5f52602160045260245ffdfea2646970667358221220773a44d22e24b22f83af2d839dd71a48c63bfbf84aebc9ac54528852e4dbef6e64736f6c63430008190033","linkReferences":{}},"methodIdentifiers":{"DOMAIN_SEPARATOR()":"3644e515","MINT_PERIOD()":"83ea6e97","allowance(address,address)":"dd62ed3e","approve(address,uint256)":"095ea7b3","balanceOf(address)":"70a08231","decimals()":"313ce567","eip712Domain()":"84b0196e","lastMinted(address)":"2e686d69","mint()":"1249c58b","mintAmount()":"5a2bcc18","name()":"06fdde03","nonces(address)":"7ecebe00","permit(address,address,uint256,uint256,uint8,bytes32,bytes32)":"d505accf","symbol()":"95d89b41","totalSupply()":"18160ddd","transfer(address,uint256)":"a9059cbb","transferFrom(address,address,uint256)":"23b872dd"},"id":79}