{
    "abi": [
        {
            "type": "constructor",
            "inputs": [
                {
                    "name": "_name",
                    "type": "string",
                    "internalType": "string"
                },
                {
                    "name": "_symbol",
                    "type": "string",
                    "internalType": "string"
                },
                {
                    "name": "_mintAmount",
                    "type": "uint256",
                    "internalType": "uint256"
                }
            ],
            "stateMutability": "nonpayable"
        },
        {
            "type": "function",
            "name": "DOMAIN_SEPARATOR",
            "inputs": [],
            "outputs": [
                {
                    "name": "",
                    "type": "bytes32",
                    "internalType": "bytes32"
                }
            ],
            "stateMutability": "view"
        },
        {
            "type": "function",
            "name": "MINT_PERIOD",
            "inputs": [],
            "outputs": [
                {
                    "name": "",
                    "type": "uint256",
                    "internalType": "uint256"
                }
            ],
            "stateMutability": "view"
        },
        {
            "type": "function",
            "name": "allowance",
            "inputs": [
                {
                    "name": "owner",
                    "type": "address",
                    "internalType": "address"
                },
                {
                    "name": "spender",
                    "type": "address",
                    "internalType": "address"
                }
            ],
            "outputs": [
                {
                    "name": "",
                    "type": "uint256",
                    "internalType": "uint256"
                }
            ],
            "stateMutability": "view"
        },
        {
            "type": "function",
            "name": "approve",
            "inputs": [
                {
                    "name": "spender",
                    "type": "address",
                    "internalType": "address"
                },
                {
                    "name": "value",
                    "type": "uint256",
                    "internalType": "uint256"
                }
            ],
            "outputs": [
                {
                    "name": "",
                    "type": "bool",
                    "internalType": "bool"
                }
            ],
            "stateMutability": "nonpayable"
        },
        {
            "type": "function",
            "name": "balanceOf",
            "inputs": [
                {
                    "name": "account",
                    "type": "address",
                    "internalType": "address"
                }
            ],
            "outputs": [
                {
                    "name": "",
                    "type": "uint256",
                    "internalType": "uint256"
                }
            ],
            "stateMutability": "view"
        },
        {
            "type": "function",
            "name": "decimals",
            "inputs": [],
            "outputs": [
                {
                    "name": "",
                    "type": "uint8",
                    "internalType": "uint8"
                }
            ],
            "stateMutability": "view"
        },
        {
            "type": "function",
            "name": "eip712Domain",
            "inputs": [],
            "outputs": [
                {
                    "name": "fields",
                    "type": "bytes1",
                    "internalType": "bytes1"
                },
                {
                    "name": "name",
                    "type": "string",
                    "internalType": "string"
                },
                {
                    "name": "version",
                    "type": "string",
                    "internalType": "string"
                },
                {
                    "name": "chainId",
                    "type": "uint256",
                    "internalType": "uint256"
                },
                {
                    "name": "verifyingContract",
                    "type": "address",
                    "internalType": "address"
                },
                {
                    "name": "salt",
                    "type": "bytes32",
                    "internalType": "bytes32"
                },
                {
                    "name": "extensions",
                    "type": "uint256[]",
                    "internalType": "uint256[]"
                }
            ],
            "stateMutability": "view"
        },
        {
            "type": "function",
            "name": "lastMinted",
            "inputs": [
                {
                    "name": "",
                    "type": "address",
                    "internalType": "address"
                }
            ],
            "outputs": [
                {
                    "name": "",
                    "type": "uint256",
                    "internalType": "uint256"
                }
            ],
            "stateMutability": "view"
        },
        {
            "type": "function",
            "name": "mint",
            "inputs": [],
            "outputs": [],
            "stateMutability": "nonpayable"
        },
        {
            "type": "function",
            "name": "mintAmount",
            "inputs": [],
            "outputs": [
                {
                    "name": "",
                    "type": "uint256",
                    "internalType": "uint256"
                }
            ],
            "stateMutability": "view"
        },
        {
            "type": "function",
            "name": "name",
            "inputs": [],
            "outputs": [
                {
                    "name": "",
                    "type": "string",
                    "internalType": "string"
                }
            ],
            "stateMutability": "view"
        },
        {
            "type": "function",
            "name": "nonces",
            "inputs": [
                {
                    "name": "owner",
                    "type": "address",
                    "internalType": "address"
                }
            ],
            "outputs": [
                {
                    "name": "",
                    "type": "uint256",
                    "internalType": "uint256"
                }
            ],
            "stateMutability": "view"
        },
        {
            "type": "function",
            "name": "permit",
            "inputs": [
                {
                    "name": "owner",
                    "type": "address",
                    "internalType": "address"
                },
                {
                    "name": "spender",
                    "type": "address",
                    "internalType": "address"
                },
                {
                    "name": "value",
                    "type": "uint256",
                    "internalType": "uint256"
                },
                {
                    "name": "deadline",
                    "type": "uint256",
                    "internalType": "uint256"
                },
                {
                    "name": "v",
                    "type": "uint8",
                    "internalType": "uint8"
                },
                {
                    "name": "r",
                    "type": "bytes32",
                    "internalType": "bytes32"
                },
                {
                    "name": "s",
                    "type": "bytes32",
                    "internalType": "bytes32"
                }
            ],
            "outputs": [],
            "stateMutability": "nonpayable"
        },
        {
            "type": "function",
            "name": "symbol",
            "inputs": [],
            "outputs": [
                {
                    "name": "",
                    "type": "string",
                    "internalType": "string"
                }
            ],
            "stateMutability": "view"
        },
        {
            "type": "function",
            "name": "totalSupply",
            "inputs": [],
            "outputs": [
                {
                    "name": "",
                    "type": "uint256",
                    "internalType": "uint256"
                }
            ],
            "stateMutability": "view"
        },
        {
            "type": "function",
            "name": "transfer",
            "inputs": [
                {
                    "name": "to",
                    "type": "address",
                    "internalType": "address"
                },
                {
                    "name": "value",
                    "type": "uint256",
                    "internalType": "uint256"
                }
            ],
            "outputs": [
                {
                    "name": "",
                    "type": "bool",
                    "internalType": "bool"
                }
            ],
            "stateMutability": "nonpayable"
        },
        {
            "type": "function",
            "name": "transferFrom",
            "inputs": [
                {
                    "name": "from",
                    "type": "address",
                    "internalType": "address"
                },
                {
                    "name": "to",
                    "type": "address",
                    "internalType": "address"
                },
                {
                    "name": "value",
                    "type": "uint256",
                    "internalType": "uint256"
                }
            ],
            "outputs": [
                {
                    "name": "",
                    "type": "bool",
                    "internalType": "bool"
                }
            ],
            "stateMutability": "nonpayable"
        },
        {
            "type": "event",
            "name": "Approval",
            "inputs": [
                {
                    "name": "owner",
                    "type": "address",
                    "indexed": true,
                    "internalType": "address"
                },
                {
                    "name": "spender",
                    "type": "address",
                    "indexed": true,
                    "internalType": "address"
                },
                {
                    "name": "value",
                    "type": "uint256",
                    "indexed": false,
                    "internalType": "uint256"
                }
            ],
            "anonymous": false
        },
        {
            "type": "event",
            "name": "EIP712DomainChanged",
            "inputs": [],
            "anonymous": false
        },
        {
            "type": "event",
            "name": "Transfer",
            "inputs": [
                {
                    "name": "from",
                    "type": "address",
                    "indexed": true,
                    "internalType": "address"
                },
                {
                    "name": "to",
                    "type": "address",
                    "indexed": true,
                    "internalType": "address"
                },
                {
                    "name": "value",
                    "type": "uint256",
                    "indexed": false,
                    "internalType": "uint256"
                }
            ],
            "anonymous": false
        },
        {
            "type": "error",
            "name": "ECDSAInvalidSignature",
            "inputs": []
        },
        {
            "type": "error",
            "name": "ECDSAInvalidSignatureLength",
            "inputs": [
                {
                    "name": "length",
                    "type": "uint256",
                    "internalType": "uint256"
                }
            ]
        },
        {
            "type": "error",
            "name": "ECDSAInvalidSignatureS",
            "inputs": [
                {
                    "name": "s",
                    "type": "bytes32",
                    "internalType": "bytes32"
                }
            ]
        },
        {
            "type": "error",
            "name": "ERC20InsufficientAllowance",
            "inputs": [
                {
                    "name": "spender",
                    "type": "address",
                    "internalType": "address"
                },
                {
                    "name": "allowance",
                    "type": "uint256",
                    "internalType": "uint256"
                },
                {
                    "name": "needed",
                    "type": "uint256",
                    "internalType": "uint256"
                }
            ]
        },
        {
            "type": "error",
            "name": "ERC20InsufficientBalance",
            "inputs": [
                {
                    "name": "sender",
                    "type": "address",
                    "internalType": "address"
                },
                {
                    "name": "balance",
                    "type": "uint256",
                    "internalType": "uint256"
                },
                {
                    "name": "needed",
                    "type": "uint256",
                    "internalType": "uint256"
                }
            ]
        },
        {
            "type": "error",
            "name": "ERC20InvalidApprover",
            "inputs": [
                {
                    "name": "approver",
                    "type": "address",
                    "internalType": "address"
                }
            ]
        },
        {
            "type": "error",
            "name": "ERC20InvalidReceiver",
            "inputs": [
                {
                    "name": "receiver",
                    "type": "address",
                    "internalType": "address"
                }
            ]
        },
        {
            "type": "error",
            "name": "ERC20InvalidSender",
            "inputs": [
                {
                    "name": "sender",
                    "type": "address",
                    "internalType": "address"
                }
            ]
        },
        {
            "type": "error",
            "name": "ERC20InvalidSpender",
            "inputs": [
                {
                    "name": "spender",
                    "type": "address",
                    "internalType": "address"
                }
            ]
        },
        {
            "type": "error",
            "name": "ERC2612ExpiredSignature",
            "inputs": [
                {
                    "name": "deadline",
                    "type": "uint256",
                    "internalType": "uint256"
                }
            ]
        },
        {
            "type": "error",
            "name": "ERC2612InvalidSigner",
            "inputs": [
                {
                    "name": "signer",
                    "type": "address",
                    "internalType": "address"
                },
                {
                    "name": "owner",
                    "type": "address",
                    "internalType": "address"
                }
            ]
        },
        {
            "type": "error",
            "name": "InvalidAccountNonce",
            "inputs": [
                {
                    "name": "account",
                    "type": "address",
                    "internalType": "address"
                },
                {
                    "name": "currentNonce",
                    "type": "uint256",
                    "internalType": "uint256"
                }
            ]
        },
        {
            "type": "error",
            "name": "InvalidShortString",
            "inputs": []
        },
        {
            "type": "error",
            "name": "StringTooLong",
            "inputs": [
                {
                    "name": "str",
                    "type": "string",
                    "internalType": "string"
                }
            ]
        }
    ],
    "bytecode": {
        "object": "0x6101606040523480156200001257600080fd5b50604051620015da380380620015da833981016040819052620000359162000289565b6040805180820190915260018152603160f81b602082015283908190818560036200006183826200038d565b5060046200007082826200038d565b50620000829150839050600562000137565b610120526200009381600662000137565b61014052815160208084019190912060e052815190820120610100524660a0526200012160e05161010051604080517f8b73c3c69bb8fe3d512ecc4cf759cc79239f7b179b0ffacaa9a75d522b39400f60208201529081019290925260608201524660808201523060a082015260009060c00160405160208183030381529060405280519060200120905090565b60805250503060c0525060085550620004b39050565b600060208351101562000157576200014f8362000170565b90506200016a565b816200016484826200038d565b5060ff90505b92915050565b600080829050601f81511115620001a7578260405163305a27a960e01b81526004016200019e919062000459565b60405180910390fd5b8051620001b4826200048e565b179392505050565b634e487b7160e01b600052604160045260246000fd5b60005b83811015620001ef578181015183820152602001620001d5565b50506000910152565b600082601f8301126200020a57600080fd5b81516001600160401b0380821115620002275762000227620001bc565b604051601f8301601f19908116603f01168101908282118183101715620002525762000252620001bc565b816040528381528660208588010111156200026c57600080fd5b6200027f846020830160208901620001d2565b9695505050505050565b6000806000606084860312156200029f57600080fd5b83516001600160401b0380821115620002b757600080fd5b620002c587838801620001f8565b94506020860151915080821115620002dc57600080fd5b50620002eb86828701620001f8565b925050604084015190509250925092565b600181811c908216806200031157607f821691505b6020821081036200033257634e487b7160e01b600052602260045260246000fd5b50919050565b601f82111562000388576000816000526020600020601f850160051c81016020861015620003635750805b601f850160051c820191505b8181101562000384578281556001016200036f565b5050505b505050565b81516001600160401b03811115620003a957620003a9620001bc565b620003c181620003ba8454620002fc565b8462000338565b602080601f831160018114620003f95760008415620003e05750858301515b600019600386901b1c1916600185901b17855562000384565b600085815260208120601f198616915b828110156200042a5788860151825594840194600190910190840162000409565b5085821015620004495787850151600019600388901b60f8161c191681555b5050505050600190811b01905550565b60208152600082518060208401526200047a816040850160208701620001d2565b601f01601f19169190910160400192915050565b80516020808301519190811015620003325760001960209190910360031b1b16919050565b60805160a05160c05160e0516101005161012051610140516110cc6200050e60003960006108b4015260006108870152600061082f01526000610807015260006107620152600061078c015260006107b601526110cc6000f3fe608060405234801561001057600080fd5b506004361061010b5760003560e01c80635a2bcc18116100a257806384b0196e1161007157806384b0196e1461020657806395d89b4114610221578063a9059cbb14610229578063d505accf1461023c578063dd62ed3e1461024f57600080fd5b80635a2bcc18146101b757806370a08231146101c05780637ecebe00146101e957806383ea6e97146101fc57600080fd5b806323b872dd116100de57806323b872dd1461016d5780632e686d6914610180578063313ce567146101a05780633644e515146101af57600080fd5b806306fdde0314610110578063095ea7b31461012e5780631249c58b1461015157806318160ddd1461015b575b600080fd5b610118610288565b6040516101259190610e14565b60405180910390f35b61014161013c366004610e4a565b61031a565b6040519015158152602001610125565b610159610334565b005b6002545b604051908152602001610125565b61014161017b366004610e74565b61043e565b61015f61018e366004610eb0565b60096020526000908152604090205481565b60405160128152602001610125565b61015f610462565b61015f60085481565b61015f6101ce366004610eb0565b6001600160a01b031660009081526020819052604090205490565b61015f6101f7366004610eb0565b610471565b61015f6201518081565b61020e61048f565b6040516101259796959493929190610ecb565b6101186104d5565b610141610237366004610e4a565b6104e4565b61015961024a366004610f64565b6104f2565b61015f61025d366004610fd7565b6001600160a01b03918216600090815260016020908152604080832093909416825291909152205490565b6060600380546102979061100a565b80601f01602080910402602001604051908101604052809291908181526020018280546102c39061100a565b80156103105780601f106102e557610100808354040283529160200191610310565b820191906000526020600020905b8154815290600101906020018083116102f357829003601f168201915b5050505050905090565b60003361032881858561062c565b60019150505b92915050565b336000908152600960205260409020546201518090610353904261105a565b10156103b85760405162461bcd60e51b815260206004820152602960248201527f4d6f636b546f6b656e3a2043616e206f6e6c79206d696e74206f6e636520657660448201526865727920323468727360b81b60648201526084015b60405180910390fd5b600a5443036104195760405162461bcd60e51b815260206004820152602760248201527f4d6f636b546f6b656e3a2043616e206f6e6c79206d696e74206f6e63652070656044820152667220626c6f636b60c81b60648201526084016103af565b33600081815260096020526040902042905543600a5560085461043c919061063e565b565b60003361044c858285610678565b6104578585856106f6565b506001949350505050565b600061046c610755565b905090565b6001600160a01b03811660009081526007602052604081205461032e565b6000606080600080600060606104a3610880565b6104ab6108ad565b60408051600080825260208201909252600f60f81b9b939a50919850469750309650945092509050565b6060600480546102979061100a565b6000336103288185856106f6565b834211156105165760405163313c898160e11b8152600481018590526024016103af565b60007f6e71edae12b1b97f4d1f60370fef10105fa2faae0126114a169c64845d6126c98888886105638c6001600160a01b0316600090815260076020526040902080546001810190915590565b6040805160208101969096526001600160a01b0394851690860152929091166060840152608083015260a082015260c0810186905260e00160405160208183030381529060405280519060200120905060006105be826108da565b905060006105ce82878787610907565b9050896001600160a01b0316816001600160a01b031614610615576040516325c0072360e11b81526001600160a01b0380831660048301528b1660248201526044016103af565b6106208a8a8a61062c565b50505050505050505050565b6106398383836001610935565b505050565b6001600160a01b0382166106685760405163ec442f0560e01b8152600060048201526024016103af565b61067460008383610a0a565b5050565b6001600160a01b0383811660009081526001602090815260408083209386168352929052205460001981146106f057818110156106e157604051637dc7a0d960e11b81526001600160a01b038416600482015260248101829052604481018390526064016103af565b6106f084848484036000610935565b50505050565b6001600160a01b03831661072057604051634b637e8f60e11b8152600060048201526024016103af565b6001600160a01b03821661074a5760405163ec442f0560e01b8152600060048201526024016103af565b610639838383610a0a565b6000306001600160a01b037f0000000000000000000000000000000000000000000000000000000000000000161480156107ae57507f000000000000000000000000000000000000000000000000000000000000000046145b156107d857507f000000000000000000000000000000000000000000000000000000000000000090565b61046c604080517f8b73c3c69bb8fe3d512ecc4cf759cc79239f7b179b0ffacaa9a75d522b39400f60208201527f0000000000000000000000000000000000000000000000000000000000000000918101919091527f000000000000000000000000000000000000000000000000000000000000000060608201524660808201523060a082015260009060c00160405160208183030381529060405280519060200120905090565b606061046c7f00000000000000000000000000000000000000000000000000000000000000006005610b34565b606061046c7f00000000000000000000000000000000000000000000000000000000000000006006610b34565b600061032e6108e7610755565b8360405161190160f01b8152600281019290925260228201526042902090565b60008060008061091988888888610bdf565b9250925092506109298282610cae565b50909695505050505050565b6001600160a01b03841661095f5760405163e602df0560e01b8152600060048201526024016103af565b6001600160a01b03831661098957604051634a1406b160e11b8152600060048201526024016103af565b6001600160a01b03808516600090815260016020908152604080832093871683529290522082905580156106f057826001600160a01b0316846001600160a01b03167f8c5be1e5ebec7d5bd14f71427d1e84f3dd0314c0f7b2291e5b200ac8c7c3b925846040516109fc91815260200190565b60405180910390a350505050565b6001600160a01b038316610a35578060026000828254610a2a919061106d565b90915550610aa79050565b6001600160a01b03831660009081526020819052604090205481811015610a885760405163391434e360e21b81526001600160a01b038516600482015260248101829052604481018390526064016103af565b6001600160a01b03841660009081526020819052604090209082900390555b6001600160a01b038216610ac357600280548290039055610ae2565b6001600160a01b03821660009081526020819052604090208054820190555b816001600160a01b0316836001600160a01b03167fddf252ad1be2c89b69c2b068fc378daa952ba7f163c4a11628f55a4df523b3ef83604051610b2791815260200190565b60405180910390a3505050565b606060ff8314610b4e57610b4783610d67565b905061032e565b818054610b5a9061100a565b80601f0160208091040260200160405190810160405280929190818152602001828054610b869061100a565b8015610bd35780601f10610ba857610100808354040283529160200191610bd3565b820191906000526020600020905b815481529060010190602001808311610bb657829003601f168201915b5050505050905061032e565b600080807f7fffffffffffffffffffffffffffffff5d576e7357a4501ddfe92f46681b20a0841115610c1a5750600091506003905082610ca4565b604080516000808252602082018084528a905260ff891692820192909252606081018790526080810186905260019060a0016020604051602081039080840390855afa158015610c6e573d6000803e3d6000fd5b5050604051601f1901519150506001600160a01b038116610c9a57506000925060019150829050610ca4565b9250600091508190505b9450945094915050565b6000826003811115610cc257610cc2611080565b03610ccb575050565b6001826003811115610cdf57610cdf611080565b03610cfd5760405163f645eedf60e01b815260040160405180910390fd5b6002826003811115610d1157610d11611080565b03610d325760405163fce698f760e01b8152600481018290526024016103af565b6003826003811115610d4657610d46611080565b03610674576040516335e2f38360e21b8152600481018290526024016103af565b60606000610d7483610da6565b604080516020808252818301909252919250600091906020820181803683375050509182525060208101929092525090565b600060ff8216601f81111561032e57604051632cd44ac360e21b815260040160405180910390fd5b6000815180845260005b81811015610df457602081850181015186830182015201610dd8565b506000602082860101526020601f19601f83011685010191505092915050565b602081526000610e276020830184610dce565b9392505050565b80356001600160a01b0381168114610e4557600080fd5b919050565b60008060408385031215610e5d57600080fd5b610e6683610e2e565b946020939093013593505050565b600080600060608486031215610e8957600080fd5b610e9284610e2e565b9250610ea060208501610e2e565b9150604084013590509250925092565b600060208284031215610ec257600080fd5b610e2782610e2e565b60ff60f81b881681526000602060e06020840152610eec60e084018a610dce565b8381036040850152610efe818a610dce565b606085018990526001600160a01b038816608086015260a0850187905284810360c08601528551808252602080880193509091019060005b81811015610f5257835183529284019291840191600101610f36565b50909c9b505050505050505050505050565b600080600080600080600060e0888a031215610f7f57600080fd5b610f8888610e2e565b9650610f9660208901610e2e565b95506040880135945060608801359350608088013560ff81168114610fba57600080fd5b9699959850939692959460a0840135945060c09093013592915050565b60008060408385031215610fea57600080fd5b610ff383610e2e565b915061100160208401610e2e565b90509250929050565b600181811c9082168061101e57607f821691505b60208210810361103e57634e487b7160e01b600052602260045260246000fd5b50919050565b634e487b7160e01b600052601160045260246000fd5b8181038181111561032e5761032e611044565b8082018082111561032e5761032e611044565b634e487b7160e01b600052602160045260246000fdfea2646970667358221220d9322742ea534be3ef63eafa6f12ab97955aa343b89fc87160297986de23379364736f6c63430008170033",
        "linkReferences": {}
    },
    "methodIdentifiers": {
        "DOMAIN_SEPARATOR()": "3644e515",
        "MINT_PERIOD()": "83ea6e97",
        "allowance(address,address)": "dd62ed3e",
        "approve(address,uint256)": "095ea7b3",
        "balanceOf(address)": "70a08231",
        "decimals()": "313ce567",
        "eip712Domain()": "84b0196e",
        "lastMinted(address)": "2e686d69",
        "mint()": "1249c58b",
        "mintAmount()": "5a2bcc18",
        "name()": "06fdde03",
        "nonces(address)": "7ecebe00",
        "permit(address,address,uint256,uint256,uint8,bytes32,bytes32)": "d505accf",
        "symbol()": "95d89b41",
        "totalSupply()": "18160ddd",
        "transfer(address,uint256)": "a9059cbb",
        "transferFrom(address,address,uint256)": "23b872dd"
    },
    "id": 64
}