{"abi":[{"type":"constructor","inputs":[{"name":"_name","type":"string","internalType":"string"},{"name":"_symbol","type":"string","internalType":"string"},{"name":"_authority","type":"address","internalType":"address"}],"stateMutability":"nonpayable"},{"type":"function","name":"DOMAIN_SEPARATOR","inputs":[],"outputs":[{"name":"","type":"bytes32","internalType":"bytes32"}],"stateMutability":"view"},{"type":"function","name":"allowance","inputs":[{"name":"owner","type":"address","internalType":"address"},{"name":"spender","type":"address","internalType":"address"}],"outputs":[{"name":"","type":"uint256","internalType":"uint256"}],"stateMutability":"view"},{"type":"function","name":"approve","inputs":[{"name":"spender","type":"address","internalType":"address"},{"name":"value","type":"uint256","internalType":"uint256"}],"outputs":[{"name":"","type":"bool","internalType":"bool"}],"stateMutability":"nonpayable"},{"type":"function","name":"authority","inputs":[],"outputs":[{"name":"","type":"address","internalType":"address"}],"stateMutability":"view"},{"type":"function","name":"balanceOf","inputs":[{"name":"account","type":"address","internalType":"address"}],"outputs":[{"name":"","type":"uint256","internalType":"uint256"}],"stateMutability":"view"},{"type":"function","name":"burn","inputs":[{"name":"value","type":"uint256","internalType":"uint256"}],"outputs":[],"stateMutability":"nonpayable"},{"type":"function","name":"burnFrom","inputs":[{"name":"account","type":"address","internalType":"address"},{"name":"value","type":"uint256","internalType":"uint256"}],"outputs":[],"stateMutability":"nonpayable"},{"type":"function","name":"decimals","inputs":[],"outputs":[{"name":"","type":"uint8","internalType":"uint8"}],"stateMutability":"view"},{"type":"function","name":"eip712Domain","inputs":[],"outputs":[{"name":"fields","type":"bytes1","internalType":"bytes1"},{"name":"name","type":"string","internalType":"string"},{"name":"version","type":"string","internalType":"string"},{"name":"chainId","type":"uint256","internalType":"uint256"},{"name":"verifyingContract","type":"address","internalType":"address"},{"name":"salt","type":"bytes32","internalType":"bytes32"},{"name":"extensions","type":"uint256[]","internalType":"uint256[]"}],"stateMutability":"view"},{"type":"function","name":"isConsumingScheduledOp","inputs":[],"outputs":[{"name":"","type":"bytes4","internalType":"bytes4"}],"stateMutability":"view"},{"type":"function","name":"mint","inputs":[{"name":"amount","type":"uint256","internalType":"uint256"},{"name":"account","type":"address","internalType":"address"}],"outputs":[],"stateMutability":"nonpayable"},{"type":"function","name":"name","inputs":[],"outputs":[{"name":"","type":"string","internalType":"string"}],"stateMutability":"view"},{"type":"function","name":"nonces","inputs":[{"name":"owner","type":"address","internalType":"address"}],"outputs":[{"name":"","type":"uint256","internalType":"uint256"}],"stateMutability":"view"},{"type":"function","name":"permit","inputs":[{"name":"owner","type":"address","internalType":"address"},{"name":"spender","type":"address","internalType":"address"},{"name":"value","type":"uint256","internalType":"uint256"},{"name":"deadline","type":"uint256","internalType":"uint256"},{"name":"v","type":"uint8","internalType":"uint8"},{"name":"r","type":"bytes32","internalType":"bytes32"},{"name":"s","type":"bytes32","internalType":"bytes32"}],"outputs":[],"stateMutability":"nonpayable"},{"type":"function","name":"setAuthority","inputs":[{"name":"newAuthority","type":"address","internalType":"address"}],"outputs":[],"stateMutability":"nonpayable"},{"type":"function","name":"symbol","inputs":[],"outputs":[{"name":"","type":"string","internalType":"string"}],"stateMutability":"view"},{"type":"function","name":"totalSupply","inputs":[],"outputs":[{"name":"","type":"uint256","internalType":"uint256"}],"stateMutability":"view"},{"type":"function","name":"transfer","inputs":[{"name":"to","type":"address","internalType":"address"},{"name":"value","type":"uint256","internalType":"uint256"}],"outputs":[{"name":"","type":"bool","internalType":"bool"}],"stateMutability":"nonpayable"},{"type":"function","name":"transferFrom","inputs":[{"name":"from","type":"address","internalType":"address"},{"name":"to","type":"address","internalType":"address"},{"name":"value","type":"uint256","internalType":"uint256"}],"outputs":[{"name":"","type":"bool","internalType":"bool"}],"stateMutability":"nonpayable"},{"type":"event","name":"Approval","inputs":[{"name":"owner","type":"address","indexed":true,"internalType":"address"},{"name":"spender","type":"address","indexed":true,"internalType":"address"},{"name":"value","type":"uint256","indexed":false,"internalType":"uint256"}],"anonymous":false},{"type":"event","name":"AuthorityUpdated","inputs":[{"name":"authority","type":"address","indexed":false,"internalType":"address"}],"anonymous":false},{"type":"event","name":"EIP712DomainChanged","inputs":[],"anonymous":false},{"type":"event","name":"Transfer","inputs":[{"name":"from","type":"address","indexed":true,"internalType":"address"},{"name":"to","type":"address","indexed":true,"internalType":"address"},{"name":"value","type":"uint256","indexed":false,"internalType":"uint256"}],"anonymous":false},{"type":"error","name":"AccessManagedInvalidAuthority","inputs":[{"name":"authority","type":"address","internalType":"address"}]},{"type":"error","name":"AccessManagedRequiredDelay","inputs":[{"name":"caller","type":"address","internalType":"address"},{"name":"delay","type":"uint32","internalType":"uint32"}]},{"type":"error","name":"AccessManagedUnauthorized","inputs":[{"name":"caller","type":"address","internalType":"address"}]},{"type":"error","name":"ECDSAInvalidSignature","inputs":[]},{"type":"error","name":"ECDSAInvalidSignatureLength","inputs":[{"name":"length","type":"uint256","internalType":"uint256"}]},{"type":"error","name":"ECDSAInvalidSignatureS","inputs":[{"name":"s","type":"bytes32","internalType":"bytes32"}]},{"type":"error","name":"ERC20InsufficientAllowance","inputs":[{"name":"spender","type":"address","internalType":"address"},{"name":"allowance","type":"uint256","internalType":"uint256"},{"name":"needed","type":"uint256","internalType":"uint256"}]},{"type":"error","name":"ERC20InsufficientBalance","inputs":[{"name":"sender","type":"address","internalType":"address"},{"name":"balance","type":"uint256","internalType":"uint256"},{"name":"needed","type":"uint256","internalType":"uint256"}]},{"type":"error","name":"ERC20InvalidApprover","inputs":[{"name":"approver","type":"address","internalType":"address"}]},{"type":"error","name":"ERC20InvalidReceiver","inputs":[{"name":"receiver","type":"address","internalType":"address"}]},{"type":"error","name":"ERC20InvalidSender","inputs":[{"name":"sender","type":"address","internalType":"address"}]},{"type":"error","name":"ERC20InvalidSpender","inputs":[{"name":"spender","type":"address","internalType":"address"}]},{"type":"error","name":"ERC2612ExpiredSignature","inputs":[{"name":"deadline","type":"uint256","internalType":"uint256"}]},{"type":"error","name":"ERC2612InvalidSigner","inputs":[{"name":"signer","type":"address","internalType":"address"},{"name":"owner","type":"address","internalType":"address"}]},{"type":"error","name":"InvalidAccountNonce","inputs":[{"name":"account","type":"address","internalType":"address"},{"name":"currentNonce","type":"uint256","internalType":"uint256"}]},{"type":"error","name":"InvalidShortString","inputs":[]},{"type":"error","name":"StringTooLong","inputs":[{"name":"str","type":"string","internalType":"string"}]}],"bytecode":{"object":"0x61016060405234801561001157600080fd5b50604051611a24380380611a24833981016040819052610030916102c6565b8280604051806040016040528060018152602001603160f81b81525085858561005e8161013760201b60201c565b50600461006b83826103d6565b50600561007882826103d6565b506100889150839050600661018b565b6101205261009781600761018b565b61014052815160208084019190912060e052815190820120610100524660a05261012460e05161010051604080517f8b73c3c69bb8fe3d512ecc4cf759cc79239f7b179b0ffacaa9a75d522b39400f60208201529081019290925260608201524660808201523060a082015260009060c00160405160208183030381529060405280519060200120905090565b60805250503060c052506104ec92505050565b600080546001600160a01b0319166001600160a01b0383169081179091556040519081527f2f658b440c35314f52658ea8a740e05b284cdc84dc9ae01e891f21b8933e7cad9060200160405180910390a150565b60006020835110156101a7576101a0836101be565b90506101b8565b816101b284826103d6565b5060ff90505b92915050565b600080829050601f815111156101f2578260405163305a27a960e01b81526004016101e99190610495565b60405180910390fd5b80516101fd826104c8565b179392505050565b634e487b7160e01b600052604160045260246000fd5b60005b8381101561023657818101518382015260200161021e565b50506000910152565b600082601f83011261025057600080fd5b81516001600160401b038082111561026a5761026a610205565b604051601f8301601f19908116603f0116810190828211818310171561029257610292610205565b816040528381528660208588010111156102ab57600080fd5b6102bc84602083016020890161021b565b9695505050505050565b6000806000606084860312156102db57600080fd5b83516001600160401b03808211156102f257600080fd5b6102fe8783880161023f565b9450602086015191508082111561031457600080fd5b506103218682870161023f565b604086015190935090506001600160a01b038116811461034057600080fd5b809150509250925092565b600181811c9082168061035f57607f821691505b60208210810361037f57634e487b7160e01b600052602260045260246000fd5b50919050565b601f8211156103d1576000816000526020600020601f850160051c810160208610156103ae5750805b601f850160051c820191505b818110156103cd578281556001016103ba565b5050505b505050565b81516001600160401b038111156103ef576103ef610205565b610403816103fd845461034b565b84610385565b602080601f83116001811461043857600084156104205750858301515b600019600386901b1c1916600185901b1785556103cd565b600085815260208120601f198616915b8281101561046757888601518255948401946001909101908401610448565b50858210156104855787850151600019600388901b60f8161c191681555b5050505050600190811b01905550565b60208152600082518060208401526104b481604085016020870161021b565b601f01601f19169190910160400192915050565b8051602080830151919081101561037f5760001960209190910360031b1b16919050565b60805160a05160c05160e0516101005161012051610140516114de61054660003960006109380152600061090b01526000610829015260006108010152600061075c01526000610786015260006107b001526114de6000f3fe608060405234801561001057600080fd5b50600436106101215760003560e01c80637a9e5e4b116100ad57806395d89b411161007157806395d89b4114610269578063a9059cbb14610271578063bf7e214f14610284578063d505accf1461029f578063dd62ed3e146102b257600080fd5b80637a9e5e4b146101f45780637ecebe001461020757806384b0196e1461021a5780638fb360371461023557806394bf804d1461025657600080fd5b8063313ce567116100f4578063313ce5671461018c5780633644e5151461019b57806342966c68146101a357806370a08231146101b857806379cc6790146101e157600080fd5b806306fdde0314610126578063095ea7b31461014457806318160ddd1461016757806323b872dd14610179575b600080fd5b61012e6102eb565b60405161013b91906110e4565b60405180910390f35b61015761015236600461111a565b61037d565b604051901515815260200161013b565b6003545b60405190815260200161013b565b610157610187366004611144565b610397565b6040516012815260200161013b565b61016b6103bb565b6101b66101b1366004611180565b6103ca565b005b61016b6101c6366004611199565b6001600160a01b031660009081526001602052604090205490565b6101b66101ef36600461111a565b6103d7565b6101b6610202366004611199565b6103f0565b61016b610215366004611199565b61046b565b610222610489565b60405161013b97969594939291906111b4565b61023d6104cf565b6040516001600160e01b0319909116815260200161013b565b6101b661026436600461124d565b6104f3565b61012e610509565b61015761027f36600461111a565b610518565b6000546040516001600160a01b03909116815260200161013b565b6101b66102ad366004611279565b610526565b61016b6102c03660046112ec565b6001600160a01b03918216600090815260026020908152604080832093909416825291909152205490565b6060600480546102fa90611316565b80601f016020809104026020016040519081016040528092919081815260200182805461032690611316565b80156103735780601f1061034857610100808354040283529160200191610373565b820191906000526020600020905b81548152906001019060200180831161035657829003601f168201915b5050505050905090565b60003361038b818585610660565b60019150505b92915050565b6000336103a5858285610672565b6103b08585856106f0565b506001949350505050565b60006103c561074f565b905090565b6103d4338261087a565b50565b6103e2823383610672565b6103ec828261087a565b5050565b60005433906001600160a01b0316811461042c5760405162d1953b60e31b81526001600160a01b03821660048201526024015b60405180910390fd5b816001600160a01b03163b600003610462576040516361798f2f60e11b81526001600160a01b0383166004820152602401610423565b6103ec826108b0565b6001600160a01b038116600090815260086020526040812054610391565b60006060806000806000606061049d610904565b6104a5610931565b60408051600080825260208201909252600f60f81b9b939a50919850469750309650945092509050565b60008054600160a01b900460ff166104e75750600090565b50638fb3603760e01b90565b6104ff3360003661095e565b6103ec8183610a5e565b6060600580546102fa90611316565b60003361038b8185856106f0565b8342111561054a5760405163313c898160e11b815260048101859052602401610423565b60007f6e71edae12b1b97f4d1f60370fef10105fa2faae0126114a169c64845d6126c98888886105978c6001600160a01b0316600090815260086020526040902080546001810190915590565b6040805160208101969096526001600160a01b0394851690860152929091166060840152608083015260a082015260c0810186905260e00160405160208183030381529060405280519060200120905060006105f282610a94565b9050600061060282878787610ac1565b9050896001600160a01b0316816001600160a01b031614610649576040516325c0072360e11b81526001600160a01b0380831660048301528b166024820152604401610423565b6106548a8a8a610660565b50505050505050505050565b61066d8383836001610aef565b505050565b6001600160a01b0383811660009081526002602090815260408083209386168352929052205460001981146106ea57818110156106db57604051637dc7a0d960e11b81526001600160a01b03841660048201526024810182905260448101839052606401610423565b6106ea84848484036000610aef565b50505050565b6001600160a01b03831661071a57604051634b637e8f60e11b815260006004820152602401610423565b6001600160a01b0382166107445760405163ec442f0560e01b815260006004820152602401610423565b61066d838383610bc4565b6000306001600160a01b037f0000000000000000000000000000000000000000000000000000000000000000161480156107a857507f000000000000000000000000000000000000000000000000000000000000000046145b156107d257507f000000000000000000000000000000000000000000000000000000000000000090565b6103c5604080517f8b73c3c69bb8fe3d512ecc4cf759cc79239f7b179b0ffacaa9a75d522b39400f60208201527f0000000000000000000000000000000000000000000000000000000000000000918101919091527f000000000000000000000000000000000000000000000000000000000000000060608201524660808201523060a082015260009060c00160405160208183030381529060405280519060200120905090565b6001600160a01b0382166108a457604051634b637e8f60e11b815260006004820152602401610423565b6103ec82600083610bc4565b600080546001600160a01b0319166001600160a01b0383169081179091556040519081527f2f658b440c35314f52658ea8a740e05b284cdc84dc9ae01e891f21b8933e7cad9060200160405180910390a150565b60606103c57f00000000000000000000000000000000000000000000000000000000000000006006610cee565b60606103c57f00000000000000000000000000000000000000000000000000000000000000006007610cee565b6000806109946109766000546001600160a01b031690565b863061098660046000898b611350565b61098f9161137a565b610d99565b9150915081610a575763ffffffff811615610a34576000805460ff60a01b198116600160a01b17909155604051634a63ebf760e11b81526001600160a01b03909116906394c7d7ee906109ef908890889088906004016113aa565b600060405180830381600087803b158015610a0957600080fd5b505af1158015610a1d573d6000803e3d6000fd5b50506000805460ff60a01b1916905550610a579050565b60405162d1953b60e31b81526001600160a01b0386166004820152602401610423565b5050505050565b6001600160a01b038216610a885760405163ec442f0560e01b815260006004820152602401610423565b6103ec60008383610bc4565b6000610391610aa161074f565b8360405161190160f01b8152600281019290925260228201526042902090565b600080600080610ad388888888610ea5565b925092509250610ae38282610f74565b50909695505050505050565b6001600160a01b038416610b195760405163e602df0560e01b815260006004820152602401610423565b6001600160a01b038316610b4357604051634a1406b160e11b815260006004820152602401610423565b6001600160a01b03808516600090815260026020908152604080832093871683529290522082905580156106ea57826001600160a01b0316846001600160a01b03167f8c5be1e5ebec7d5bd14f71427d1e84f3dd0314c0f7b2291e5b200ac8c7c3b92584604051610bb691815260200190565b60405180910390a350505050565b6001600160a01b038316610bef578060036000828254610be491906113ea565b90915550610c619050565b6001600160a01b03831660009081526001602052604090205481811015610c425760405163391434e360e21b81526001600160a01b03851660048201526024810182905260448101839052606401610423565b6001600160a01b03841660009081526001602052604090209082900390555b6001600160a01b038216610c7d57600380548290039055610c9c565b6001600160a01b03821660009081526001602052604090208054820190555b816001600160a01b0316836001600160a01b03167fddf252ad1be2c89b69c2b068fc378daa952ba7f163c4a11628f55a4df523b3ef83604051610ce191815260200190565b60405180910390a3505050565b606060ff8314610d0857610d018361102d565b9050610391565b818054610d1490611316565b80601f0160208091040260200160405190810160405280929190818152602001828054610d4090611316565b8015610d8d5780601f10610d6257610100808354040283529160200191610d8d565b820191906000526020600020905b815481529060010190602001808311610d7057829003601f168201915b50505050509050610391565b6040516001600160a01b03848116602483015283811660448301526001600160e01b03198316606483015260009182918291829189169060840160408051601f198184030181529181526020820180516001600160e01b031663b700961360e01b17905251610e08919061140b565b600060405180830381855afa9150503d8060008114610e43576040519150601f19603f3d011682016040523d82523d6000602084013e610e48565b606091505b50915091508115610e9a576040815110610e7a5780806020019051810190610e709190611437565b9094509250610e9a565b6020815110610e9a5780806020019051810190610e979190611477565b93505b505094509492505050565b600080807f7fffffffffffffffffffffffffffffff5d576e7357a4501ddfe92f46681b20a0841115610ee05750600091506003905082610f6a565b604080516000808252602082018084528a905260ff891692820192909252606081018790526080810186905260019060a0016020604051602081039080840390855afa158015610f34573d6000803e3d6000fd5b5050604051601f1901519150506001600160a01b038116610f6057506000925060019150829050610f6a565b9250600091508190505b9450945094915050565b6000826003811115610f8857610f88611492565b03610f91575050565b6001826003811115610fa557610fa5611492565b03610fc35760405163f645eedf60e01b815260040160405180910390fd5b6002826003811115610fd757610fd7611492565b03610ff85760405163fce698f760e01b815260048101829052602401610423565b600382600381111561100c5761100c611492565b036103ec576040516335e2f38360e21b815260048101829052602401610423565b6060600061103a8361106c565b604080516020808252818301909252919250600091906020820181803683375050509182525060208101929092525090565b600060ff8216601f81111561039157604051632cd44ac360e21b815260040160405180910390fd5b60005b838110156110af578181015183820152602001611097565b50506000910152565b600081518084526110d0816020860160208601611094565b601f01601f19169290920160200192915050565b6020815260006110f760208301846110b8565b9392505050565b80356001600160a01b038116811461111557600080fd5b919050565b6000806040838503121561112d57600080fd5b611136836110fe565b946020939093013593505050565b60008060006060848603121561115957600080fd5b611162846110fe565b9250611170602085016110fe565b9150604084013590509250925092565b60006020828403121561119257600080fd5b5035919050565b6000602082840312156111ab57600080fd5b6110f7826110fe565b60ff60f81b881681526000602060e060208401526111d560e084018a6110b8565b83810360408501526111e7818a6110b8565b606085018990526001600160a01b038816608086015260a0850187905284810360c08601528551808252602080880193509091019060005b8181101561123b5783518352928401929184019160010161121f565b50909c9b505050505050505050505050565b6000806040838503121561126057600080fd5b82359150611270602084016110fe565b90509250929050565b600080600080600080600060e0888a03121561129457600080fd5b61129d886110fe565b96506112ab602089016110fe565b95506040880135945060608801359350608088013560ff811681146112cf57600080fd5b9699959850939692959460a0840135945060c09093013592915050565b600080604083850312156112ff57600080fd5b611308836110fe565b9150611270602084016110fe565b600181811c9082168061132a57607f821691505b60208210810361134a57634e487b7160e01b600052602260045260246000fd5b50919050565b6000808585111561136057600080fd5b8386111561136d57600080fd5b5050820193919092039150565b6001600160e01b031981358181169160048510156113a25780818660040360031b1b83161692505b505092915050565b6001600160a01b03841681526040602082018190528101829052818360608301376000818301606090810191909152601f909201601f1916010192915050565b8082018082111561039157634e487b7160e01b600052601160045260246000fd5b6000825161141d818460208701611094565b9190910192915050565b8051801515811461111557600080fd5b6000806040838503121561144a57600080fd5b61145383611427565b9150602083015163ffffffff8116811461146c57600080fd5b809150509250929050565b60006020828403121561148957600080fd5b6110f782611427565b634e487b7160e01b600052602160045260246000fdfea2646970667358221220ef6388215adfed76bb77ef7753c5298c081405ba121b13339f7da84e93e0f90564736f6c63430008190033","linkReferences":{}},"methodIdentifiers":{"DOMAIN_SEPARATOR()":"3644e515","allowance(address,address)":"dd62ed3e","approve(address,uint256)":"095ea7b3","authority()":"bf7e214f","balanceOf(address)":"70a08231","burn(uint256)":"42966c68","burnFrom(address,uint256)":"79cc6790","decimals()":"313ce567","eip712Domain()":"84b0196e","isConsumingScheduledOp()":"8fb36037","mint(uint256,address)":"94bf804d","name()":"06fdde03","nonces(address)":"7ecebe00","permit(address,address,uint256,uint256,uint8,bytes32,bytes32)":"d505accf","setAuthority(address)":"7a9e5e4b","symbol()":"95d89b41","totalSupply()":"18160ddd","transfer(address,uint256)":"a9059cbb","transferFrom(address,address,uint256)":"23b872dd"},"id":82}