{"abi":[{"type":"constructor","inputs":[{"name":"_name","type":"string","internalType":"string"},{"name":"_symbol","type":"string","internalType":"string"},{"name":"_authority","type":"address","internalType":"address"}],"stateMutability":"nonpayable"},{"type":"function","name":"DOMAIN_SEPARATOR","inputs":[],"outputs":[{"name":"","type":"bytes32","internalType":"bytes32"}],"stateMutability":"view"},{"type":"function","name":"allowance","inputs":[{"name":"owner","type":"address","internalType":"address"},{"name":"spender","type":"address","internalType":"address"}],"outputs":[{"name":"","type":"uint256","internalType":"uint256"}],"stateMutability":"view"},{"type":"function","name":"approve","inputs":[{"name":"spender","type":"address","internalType":"address"},{"name":"value","type":"uint256","internalType":"uint256"}],"outputs":[{"name":"","type":"bool","internalType":"bool"}],"stateMutability":"nonpayable"},{"type":"function","name":"authority","inputs":[],"outputs":[{"name":"","type":"address","internalType":"address"}],"stateMutability":"view"},{"type":"function","name":"balanceOf","inputs":[{"name":"account","type":"address","internalType":"address"}],"outputs":[{"name":"","type":"uint256","internalType":"uint256"}],"stateMutability":"view"},{"type":"function","name":"burn","inputs":[{"name":"value","type":"uint256","internalType":"uint256"}],"outputs":[],"stateMutability":"nonpayable"},{"type":"function","name":"burnFrom","inputs":[{"name":"account","type":"address","internalType":"address"},{"name":"value","type":"uint256","internalType":"uint256"}],"outputs":[],"stateMutability":"nonpayable"},{"type":"function","name":"decimals","inputs":[],"outputs":[{"name":"","type":"uint8","internalType":"uint8"}],"stateMutability":"view"},{"type":"function","name":"eip712Domain","inputs":[],"outputs":[{"name":"fields","type":"bytes1","internalType":"bytes1"},{"name":"name","type":"string","internalType":"string"},{"name":"version","type":"string","internalType":"string"},{"name":"chainId","type":"uint256","internalType":"uint256"},{"name":"verifyingContract","type":"address","internalType":"address"},{"name":"salt","type":"bytes32","internalType":"bytes32"},{"name":"extensions","type":"uint256[]","internalType":"uint256[]"}],"stateMutability":"view"},{"type":"function","name":"flashFee","inputs":[{"name":"token","type":"address","internalType":"address"},{"name":"value","type":"uint256","internalType":"uint256"}],"outputs":[{"name":"","type":"uint256","internalType":"uint256"}],"stateMutability":"view"},{"type":"function","name":"flashLoan","inputs":[{"name":"receiver","type":"address","internalType":"contract IERC3156FlashBorrower"},{"name":"token","type":"address","internalType":"address"},{"name":"value","type":"uint256","internalType":"uint256"},{"name":"data","type":"bytes","internalType":"bytes"}],"outputs":[{"name":"","type":"bool","internalType":"bool"}],"stateMutability":"nonpayable"},{"type":"function","name":"isConsumingScheduledOp","inputs":[],"outputs":[{"name":"","type":"bytes4","internalType":"bytes4"}],"stateMutability":"view"},{"type":"function","name":"maxFlashLoan","inputs":[{"name":"token","type":"address","internalType":"address"}],"outputs":[{"name":"","type":"uint256","internalType":"uint256"}],"stateMutability":"view"},{"type":"function","name":"mint","inputs":[{"name":"amount","type":"uint256","internalType":"uint256"},{"name":"account","type":"address","internalType":"address"}],"outputs":[],"stateMutability":"nonpayable"},{"type":"function","name":"name","inputs":[],"outputs":[{"name":"","type":"string","internalType":"string"}],"stateMutability":"view"},{"type":"function","name":"nonces","inputs":[{"name":"owner","type":"address","internalType":"address"}],"outputs":[{"name":"","type":"uint256","internalType":"uint256"}],"stateMutability":"view"},{"type":"function","name":"permit","inputs":[{"name":"owner","type":"address","internalType":"address"},{"name":"spender","type":"address","internalType":"address"},{"name":"value","type":"uint256","internalType":"uint256"},{"name":"deadline","type":"uint256","internalType":"uint256"},{"name":"v","type":"uint8","internalType":"uint8"},{"name":"r","type":"bytes32","internalType":"bytes32"},{"name":"s","type":"bytes32","internalType":"bytes32"}],"outputs":[],"stateMutability":"nonpayable"},{"type":"function","name":"setAuthority","inputs":[{"name":"newAuthority","type":"address","internalType":"address"}],"outputs":[],"stateMutability":"nonpayable"},{"type":"function","name":"symbol","inputs":[],"outputs":[{"name":"","type":"string","internalType":"string"}],"stateMutability":"view"},{"type":"function","name":"totalSupply","inputs":[],"outputs":[{"name":"","type":"uint256","internalType":"uint256"}],"stateMutability":"view"},{"type":"function","name":"transfer","inputs":[{"name":"to","type":"address","internalType":"address"},{"name":"value","type":"uint256","internalType":"uint256"}],"outputs":[{"name":"","type":"bool","internalType":"bool"}],"stateMutability":"nonpayable"},{"type":"function","name":"transferFrom","inputs":[{"name":"from","type":"address","internalType":"address"},{"name":"to","type":"address","internalType":"address"},{"name":"value","type":"uint256","internalType":"uint256"}],"outputs":[{"name":"","type":"bool","internalType":"bool"}],"stateMutability":"nonpayable"},{"type":"event","name":"Approval","inputs":[{"name":"owner","type":"address","indexed":true,"internalType":"address"},{"name":"spender","type":"address","indexed":true,"internalType":"address"},{"name":"value","type":"uint256","indexed":false,"internalType":"uint256"}],"anonymous":false},{"type":"event","name":"AuthorityUpdated","inputs":[{"name":"authority","type":"address","indexed":false,"internalType":"address"}],"anonymous":false},{"type":"event","name":"EIP712DomainChanged","inputs":[],"anonymous":false},{"type":"event","name":"Transfer","inputs":[{"name":"from","type":"address","indexed":true,"internalType":"address"},{"name":"to","type":"address","indexed":true,"internalType":"address"},{"name":"value","type":"uint256","indexed":false,"internalType":"uint256"}],"anonymous":false},{"type":"error","name":"AccessManagedInvalidAuthority","inputs":[{"name":"authority","type":"address","internalType":"address"}]},{"type":"error","name":"AccessManagedRequiredDelay","inputs":[{"name":"caller","type":"address","internalType":"address"},{"name":"delay","type":"uint32","internalType":"uint32"}]},{"type":"error","name":"AccessManagedUnauthorized","inputs":[{"name":"caller","type":"address","internalType":"address"}]},{"type":"error","name":"ECDSAInvalidSignature","inputs":[]},{"type":"error","name":"ECDSAInvalidSignatureLength","inputs":[{"name":"length","type":"uint256","internalType":"uint256"}]},{"type":"error","name":"ECDSAInvalidSignatureS","inputs":[{"name":"s","type":"bytes32","internalType":"bytes32"}]},{"type":"error","name":"ERC20InsufficientAllowance","inputs":[{"name":"spender","type":"address","internalType":"address"},{"name":"allowance","type":"uint256","internalType":"uint256"},{"name":"needed","type":"uint256","internalType":"uint256"}]},{"type":"error","name":"ERC20InsufficientBalance","inputs":[{"name":"sender","type":"address","internalType":"address"},{"name":"balance","type":"uint256","internalType":"uint256"},{"name":"needed","type":"uint256","internalType":"uint256"}]},{"type":"error","name":"ERC20InvalidApprover","inputs":[{"name":"approver","type":"address","internalType":"address"}]},{"type":"error","name":"ERC20InvalidReceiver","inputs":[{"name":"receiver","type":"address","internalType":"address"}]},{"type":"error","name":"ERC20InvalidSender","inputs":[{"name":"sender","type":"address","internalType":"address"}]},{"type":"error","name":"ERC20InvalidSpender","inputs":[{"name":"spender","type":"address","internalType":"address"}]},{"type":"error","name":"ERC2612ExpiredSignature","inputs":[{"name":"deadline","type":"uint256","internalType":"uint256"}]},{"type":"error","name":"ERC2612InvalidSigner","inputs":[{"name":"signer","type":"address","internalType":"address"},{"name":"owner","type":"address","internalType":"address"}]},{"type":"error","name":"ERC3156ExceededMaxLoan","inputs":[{"name":"maxLoan","type":"uint256","internalType":"uint256"}]},{"type":"error","name":"ERC3156InvalidReceiver","inputs":[{"name":"receiver","type":"address","internalType":"address"}]},{"type":"error","name":"ERC3156UnsupportedToken","inputs":[{"name":"token","type":"address","internalType":"address"}]},{"type":"error","name":"InvalidAccountNonce","inputs":[{"name":"account","type":"address","internalType":"address"},{"name":"currentNonce","type":"uint256","internalType":"uint256"}]},{"type":"error","name":"InvalidShortString","inputs":[]},{"type":"error","name":"StringTooLong","inputs":[{"name":"str","type":"string","internalType":"string"}]}],"bytecode":{"object":"0x610160604052348015610010575f80fd5b50604051611c9d380380611c9d83398101604081905261002f9161029c565b8280604051806040016040528060018152602001603160f81b81525085858561005d8161013560201b60201c565b50600461006a838261039f565b506005610077828261039f565b5061008791508390506006610188565b61012052610096816007610188565b61014052815160208084019190912060e052815190820120610100524660a05261012260e05161010051604080517f8b73c3c69bb8fe3d512ecc4cf759cc79239f7b179b0ffacaa9a75d522b39400f60208201529081019290925260608201524660808201523060a08201525f9060c00160405160208183030381529060405280519060200120905090565b60805250503060c052506104b692505050565b5f80546001600160a01b0319166001600160a01b0383169081179091556040519081527f2f658b440c35314f52658ea8a740e05b284cdc84dc9ae01e891f21b8933e7cad9060200160405180910390a150565b5f6020835110156101a35761019c836101ba565b90506101b4565b816101ae848261039f565b5060ff90505b92915050565b5f80829050601f815111156101ed578260405163305a27a960e01b81526004016101e4919061045e565b60405180910390fd5b80516101f882610493565b179392505050565b634e487b7160e01b5f52604160045260245ffd5b5f82601f830112610223575f80fd5b81516001600160401b038082111561023d5761023d610200565b604051601f8301601f19908116603f0116810190828211818310171561026557610265610200565b8160405283815286602085880101111561027d575f80fd5b8360208701602083015e5f602085830101528094505050505092915050565b5f805f606084860312156102ae575f80fd5b83516001600160401b03808211156102c4575f80fd5b6102d087838801610214565b945060208601519150808211156102e5575f80fd5b506102f286828701610214565b604086015190935090506001600160a01b0381168114610310575f80fd5b809150509250925092565b600181811c9082168061032f57607f821691505b60208210810361034d57634e487b7160e01b5f52602260045260245ffd5b50919050565b601f82111561039a57805f5260205f20601f840160051c810160208510156103785750805b601f840160051c820191505b81811015610397575f8155600101610384565b50505b505050565b81516001600160401b038111156103b8576103b8610200565b6103cc816103c6845461031b565b84610353565b602080601f8311600181146103ff575f84156103e85750858301515b5f19600386901b1c1916600185901b178555610456565b5f85815260208120601f198616915b8281101561042d5788860151825594840194600190910190840161040e565b508582101561044a57878501515f19600388901b60f8161c191681555b505060018460011b0185555b505050505050565b602081525f82518060208401528060208501604085015e5f604082850101526040601f19601f83011684010191505092915050565b8051602080830151919081101561034d575f1960209190910360031b1b16919050565b60805160a05160c05160e0516101005161012051610140516117966105075f395f610b7401525f610b4701525f610a3501525f610a0d01525f61096801525f61099201525f6109bc01526117965ff3fe608060405234801561000f575f80fd5b506004361061013d575f3560e01c80637a9e5e4b116100b457806395d89b411161007957806395d89b41146102a9578063a9059cbb146102b1578063bf7e214f146102c4578063d505accf146102de578063d9d98ce4146102f1578063dd62ed3e14610304575f80fd5b80637a9e5e4b146102345780637ecebe001461024757806384b0196e1461025a5780638fb360371461027557806394bf804d14610296575f80fd5b80633644e515116101055780633644e515146101b657806342966c68146101be5780635cffe9de146101d3578063613255ab146101e657806370a08231146101f957806379cc679014610221575f80fd5b806306fdde0314610141578063095ea7b31461015f57806318160ddd1461018257806323b872dd14610194578063313ce567146101a7575b5f80fd5b61014961033c565b60405161015691906112a3565b60405180910390f35b61017261016d3660046112c9565b6103cc565b6040519015158152602001610156565b6003545b604051908152602001610156565b6101726101a23660046112f3565b6103e5565b60405160128152602001610156565b610186610408565b6101d16101cc366004611331565b610416565b005b6101726101e1366004611348565b610423565b6101866101f43660046113df565b61059a565b6101866102073660046113df565b6001600160a01b03165f9081526001602052604090205490565b6101d161022f3660046112c9565b6105bf565b6101d16102423660046113df565b6105d8565b6101866102553660046113df565b61064c565b610262610669565b60405161015697969594939291906113fa565b61027d6106ab565b6040516001600160e01b03199091168152602001610156565b6101d16102a4366004611491565b6106cd565b6101496106e2565b6101726102bf3660046112c9565b6106f1565b5f546040516001600160a01b039091168152602001610156565b6101d16102ec3660046114bf565b6106fe565b6101866102ff3660046112c9565b610834565b610186610312366004611530565b6001600160a01b039182165f90815260026020908152604080832093909416825291909152205490565b60606004805461034b9061155c565b80601f01602080910402602001604051908101604052809291908181526020018280546103779061155c565b80156103c25780601f10610399576101008083540402835291602001916103c2565b820191905f5260205f20905b8154815290600101906020018083116103a557829003601f168201915b5050505050905090565b5f336103d9818585610872565b60019150505b92915050565b5f336103f2858285610884565b6103fd8585856108ff565b506001949350505050565b5f61041161095c565b905090565b6104203382610a85565b50565b5f8061042e8661059a565b9050808511156104595760405163fd9a760960e01b8152600481018290526024015b60405180910390fd5b5f6104648787610834565b90506104708887610ab9565b6040516323e30c8b60e01b81527f439148f0bbc682ca079e46d6e2c2f0c1e3b820f1a291b069d8882abf8cf18dd9906001600160a01b038a16906323e30c8b906104c89033908c908c9088908d908d906004016115bc565b6020604051808303815f875af11580156104e4573d5f803e3d5ffd5b505050506040513d601f19601f820116820180604052508101906105089190611602565b146105305760405162678c5b60e81b81526001600160a01b0389166004820152602401610450565b5f6105458930610540858b61162d565b610884565b81158061055957506001600160a01b038116155b15610576576105718961056c848a61162d565b610a85565b61058b565b6105808988610a85565b61058b8982846108ff565b50600198975050505050505050565b5f6001600160a01b03821630146105b1575f6103df565b6003546103df905f19611640565b6105ca823383610884565b6105d48282610a85565b5050565b5f5433906001600160a01b0316811461060e5760405162d1953b60e31b81526001600160a01b0382166004820152602401610450565b816001600160a01b03163b5f03610643576040516361798f2f60e11b81526001600160a01b0383166004820152602401610450565b6105d482610aed565b6001600160a01b0381165f908152600860205260408120546103df565b5f6060805f805f606061067a610b40565b610682610b6d565b604080515f80825260208201909252600f60f81b9b939a50919850469750309650945092509050565b5f8054600160a01b900460ff166106c157505f90565b50638fb3603760e01b90565b6106d8335f36610b9a565b6105d48183610ab9565b60606005805461034b9061155c565b5f336103d98185856108ff565b834211156107225760405163313c898160e11b815260048101859052602401610450565b5f7f6e71edae12b1b97f4d1f60370fef10105fa2faae0126114a169c64845d6126c988888861076d8c6001600160a01b03165f90815260086020526040902080546001810190915590565b6040805160208101969096526001600160a01b0394851690860152929091166060840152608083015260a082015260c0810186905260e0016040516020818303038152906040528051906020012090505f6107c782610c90565b90505f6107d682878787610cbc565b9050896001600160a01b0316816001600160a01b03161461081d576040516325c0072360e11b81526001600160a01b0380831660048301528b166024820152604401610450565b6108288a8a8a610872565b50505050505050505050565b5f6001600160a01b038316301461086957604051635ad3edc960e11b81526001600160a01b0384166004820152602401610450565b5f5b9392505050565b61087f8383836001610ce8565b505050565b6001600160a01b038381165f908152600260209081526040808320938616835292905220545f1981146108f957818110156108eb57604051637dc7a0d960e11b81526001600160a01b03841660048201526024810182905260448101839052606401610450565b6108f984848484035f610ce8565b50505050565b6001600160a01b03831661092857604051634b637e8f60e11b81525f6004820152602401610450565b6001600160a01b0382166109515760405163ec442f0560e01b81525f6004820152602401610450565b61087f838383610dba565b5f306001600160a01b037f0000000000000000000000000000000000000000000000000000000000000000161480156109b457507f000000000000000000000000000000000000000000000000000000000000000046145b156109de57507f000000000000000000000000000000000000000000000000000000000000000090565b610411604080517f8b73c3c69bb8fe3d512ecc4cf759cc79239f7b179b0ffacaa9a75d522b39400f60208201527f0000000000000000000000000000000000000000000000000000000000000000918101919091527f000000000000000000000000000000000000000000000000000000000000000060608201524660808201523060a08201525f9060c00160405160208183030381529060405280519060200120905090565b6001600160a01b038216610aae57604051634b637e8f60e11b81525f6004820152602401610450565b6105d4825f83610dba565b6001600160a01b038216610ae25760405163ec442f0560e01b81525f6004820152602401610450565b6105d45f8383610dba565b5f80546001600160a01b0319166001600160a01b0383169081179091556040519081527f2f658b440c35314f52658ea8a740e05b284cdc84dc9ae01e891f21b8933e7cad9060200160405180910390a150565b60606104117f00000000000000000000000000000000000000000000000000000000000000006006610ee0565b60606104117f00000000000000000000000000000000000000000000000000000000000000006007610ee0565b5f80610bcd610bb05f546001600160a01b031690565b8630610bbf60045f898b611653565b610bc89161167a565b610f89565b9150915081610c895763ffffffff811615610c66575f805460ff60a01b198116600160a01b17909155604051634a63ebf760e11b81526001600160a01b03909116906394c7d7ee90610c27908890889088906004016116aa565b5f604051808303815f87803b158015610c3e575f80fd5b505af1158015610c50573d5f803e3d5ffd5b50505f805460ff60a01b1916905550610c899050565b60405162d1953b60e31b81526001600160a01b0386166004820152602401610450565b5050505050565b5f6103df610c9c61095c565b8360405161190160f01b8152600281019290925260228201526042902090565b5f805f80610ccc88888888611091565b925092509250610cdc8282611159565b50909695505050505050565b6001600160a01b038416610d115760405163e602df0560e01b81525f6004820152602401610450565b6001600160a01b038316610d3a57604051634a1406b160e11b81525f6004820152602401610450565b6001600160a01b038085165f90815260026020908152604080832093871683529290522082905580156108f957826001600160a01b0316846001600160a01b03167f8c5be1e5ebec7d5bd14f71427d1e84f3dd0314c0f7b2291e5b200ac8c7c3b92584604051610dac91815260200190565b60405180910390a350505050565b6001600160a01b038316610de4578060035f828254610dd9919061162d565b90915550610e549050565b6001600160a01b0383165f9081526001602052604090205481811015610e365760405163391434e360e21b81526001600160a01b03851660048201526024810182905260448101839052606401610450565b6001600160a01b0384165f9081526001602052604090209082900390555b6001600160a01b038216610e7057600380548290039055610e8e565b6001600160a01b0382165f9081526001602052604090208054820190555b816001600160a01b0316836001600160a01b03167fddf252ad1be2c89b69c2b068fc378daa952ba7f163c4a11628f55a4df523b3ef83604051610ed391815260200190565b60405180910390a3505050565b606060ff8314610efa57610ef383611211565b90506103df565b818054610f069061155c565b80601f0160208091040260200160405190810160405280929190818152602001828054610f329061155c565b8015610f7d5780601f10610f5457610100808354040283529160200191610f7d565b820191905f5260205f20905b815481529060010190602001808311610f6057829003601f168201915b505050505090506103df565b6040516001600160a01b03848116602483015283811660448301526001600160e01b0319831660648301525f9182918291829189169060840160408051601f198184030181529181526020820180516001600160e01b031663b700961360e01b17905251610ff791906116d7565b5f60405180830381855afa9150503d805f811461102f576040519150601f19603f3d011682016040523d82523d5f602084013e611034565b606091505b50915091508115611086576040815110611066578080602001905181019061105c9190611701565b9094509250611086565b602081511061108657808060200190518101906110839190611733565b93505b505094509492505050565b5f80807f7fffffffffffffffffffffffffffffff5d576e7357a4501ddfe92f46681b20a08411156110ca57505f9150600390508261114f565b604080515f808252602082018084528a905260ff891692820192909252606081018790526080810186905260019060a0016020604051602081039080840390855afa15801561111b573d5f803e3d5ffd5b5050604051601f1901519150506001600160a01b03811661114657505f92506001915082905061114f565b92505f91508190505b9450945094915050565b5f82600381111561116c5761116c61174c565b03611175575050565b60018260038111156111895761118961174c565b036111a75760405163f645eedf60e01b815260040160405180910390fd5b60028260038111156111bb576111bb61174c565b036111dc5760405163fce698f760e01b815260048101829052602401610450565b60038260038111156111f0576111f061174c565b036105d4576040516335e2f38360e21b815260048101829052602401610450565b60605f61121d8361124e565b6040805160208082528183019092529192505f91906020820181803683375050509182525060208101929092525090565b5f60ff8216601f8111156103df57604051632cd44ac360e21b815260040160405180910390fd5b5f81518084528060208401602086015e5f602082860101526020601f19601f83011685010191505092915050565b602081525f61086b6020830184611275565b6001600160a01b0381168114610420575f80fd5b5f80604083850312156112da575f80fd5b82356112e5816112b5565b946020939093013593505050565b5f805f60608486031215611305575f80fd5b8335611310816112b5565b92506020840135611320816112b5565b929592945050506040919091013590565b5f60208284031215611341575f80fd5b5035919050565b5f805f805f6080868803121561135c575f80fd5b8535611367816112b5565b94506020860135611377816112b5565b935060408601359250606086013567ffffffffffffffff8082111561139a575f80fd5b818801915088601f8301126113ad575f80fd5b8135818111156113bb575f80fd5b8960208285010111156113cc575f80fd5b9699959850939650602001949392505050565b5f602082840312156113ef575f80fd5b813561086b816112b5565b60ff60f81b881681525f602060e0602084015261141a60e084018a611275565b838103604085015261142c818a611275565b606085018990526001600160a01b038816608086015260a0850187905284810360c0860152855180825260208088019350909101905f5b8181101561147f57835183529284019291840191600101611463565b50909c9b505050505050505050505050565b5f80604083850312156114a2575f80fd5b8235915060208301356114b4816112b5565b809150509250929050565b5f805f805f805f60e0888a0312156114d5575f80fd5b87356114e0816112b5565b965060208801356114f0816112b5565b95506040880135945060608801359350608088013560ff81168114611513575f80fd5b9699959850939692959460a0840135945060c09093013592915050565b5f8060408385031215611541575f80fd5b823561154c816112b5565b915060208301356114b4816112b5565b600181811c9082168061157057607f821691505b60208210810361158e57634e487b7160e01b5f52602260045260245ffd5b50919050565b81835281816020850137505f828201602090810191909152601f909101601f19169091010190565b6001600160a01b03878116825286166020820152604081018590526060810184905260a0608082018190525f906115f69083018486611594565b98975050505050505050565b5f60208284031215611612575f80fd5b5051919050565b634e487b7160e01b5f52601160045260245ffd5b808201808211156103df576103df611619565b818103818111156103df576103df611619565b5f8085851115611661575f80fd5b8386111561166d575f80fd5b5050820193919092039150565b6001600160e01b031981358181169160048510156116a25780818660040360031b1b83161692505b505092915050565b6001600160a01b03841681526040602082018190525f906116ce9083018486611594565b95945050505050565b5f82518060208501845e5f920191825250919050565b805180151581146116fc575f80fd5b919050565b5f8060408385031215611712575f80fd5b61171b836116ed565b9150602083015163ffffffff811681146114b4575f80fd5b5f60208284031215611743575f80fd5b61086b826116ed565b634e487b7160e01b5f52602160045260245ffdfea264697066735822122002ba3222bb6b2d11b9effdb807ca1685d3fffe0ef02d70bcc3637ba9d3b5f80564736f6c63430008190033","linkReferences":{}},"methodIdentifiers":{"DOMAIN_SEPARATOR()":"3644e515","allowance(address,address)":"dd62ed3e","approve(address,uint256)":"095ea7b3","authority()":"bf7e214f","balanceOf(address)":"70a08231","burn(uint256)":"42966c68","burnFrom(address,uint256)":"79cc6790","decimals()":"313ce567","eip712Domain()":"84b0196e","flashFee(address,uint256)":"d9d98ce4","flashLoan(address,address,uint256,bytes)":"5cffe9de","isConsumingScheduledOp()":"8fb36037","maxFlashLoan(address)":"613255ab","mint(uint256,address)":"94bf804d","name()":"06fdde03","nonces(address)":"7ecebe00","permit(address,address,uint256,uint256,uint8,bytes32,bytes32)":"d505accf","setAuthority(address)":"7a9e5e4b","symbol()":"95d89b41","totalSupply()":"18160ddd","transfer(address,uint256)":"a9059cbb","transferFrom(address,address,uint256)":"23b872dd"},"id":108}