{"abi":[{"type":"constructor","inputs":[{"name":"_name","type":"string","internalType":"string"},{"name":"_symbol","type":"string","internalType":"string"},{"name":"_collateralOracle","type":"address","internalType":"address"},{"name":"_authority","type":"address","internalType":"address"},{"name":"_poolAddress","type":"address","internalType":"address"},{"name":"_synth","type":"address","internalType":"address"},{"name":"_irModel","type":"address","internalType":"address"}],"stateMutability":"nonpayable"},{"type":"function","name":"DELEGATION_WITH_SIG_TYPEHASH","inputs":[],"outputs":[{"name":"","type":"bytes32","internalType":"bytes32"}],"stateMutability":"view"},{"type":"function","name":"_pool","inputs":[],"outputs":[{"name":"","type":"address","internalType":"contract RxPool"}],"stateMutability":"view"},{"type":"function","name":"accountHealth","inputs":[{"name":"account","type":"address","internalType":"address"}],"outputs":[{"name":"","type":"uint256","internalType":"uint256"}],"stateMutability":"view"},{"type":"function","name":"accountIndex","inputs":[{"name":"","type":"address","internalType":"address"}],"outputs":[{"name":"","type":"uint256","internalType":"uint256"}],"stateMutability":"view"},{"type":"function","name":"accrueInterest","inputs":[{"name":"account","type":"address","internalType":"address"}],"outputs":[{"name":"interestAmount","type":"uint256","internalType":"uint256"}],"stateMutability":"nonpayable"},{"type":"function","name":"accumulatedRewards","inputs":[{"name":"reward","type":"address","internalType":"address"},{"name":"account","type":"address","internalType":"address"}],"outputs":[{"name":"rewardAmount","type":"uint256","internalType":"uint256"},{"name":"newIndex","type":"uint256","internalType":"uint256"}],"stateMutability":"view"},{"type":"function","name":"addCollateral","inputs":[{"name":"asset","type":"address","internalType":"address"},{"name":"config","type":"tuple","internalType":"struct Reserve.Collateral","components":[{"name":"vault","type":"address","internalType":"address"},{"name":"baseLTV","type":"uint256","internalType":"uint256"},{"name":"liquidationThreshold","type":"uint256","internalType":"uint256"},{"name":"liquidationBonus","type":"uint256","internalType":"uint256"},{"name":"liquidationFee","type":"uint256","internalType":"uint256"},{"name":"maxDeposits","type":"uint256","internalType":"uint256"},{"name":"active","type":"bool","internalType":"bool"}]}],"outputs":[],"stateMutability":"nonpayable"},{"type":"function","name":"addReward","inputs":[{"name":"reward","type":"address","internalType":"address"},{"name":"speed","type":"uint256","internalType":"uint256"}],"outputs":[],"stateMutability":"nonpayable"},{"type":"function","name":"allowance","inputs":[{"name":"owner","type":"address","internalType":"address"},{"name":"spender","type":"address","internalType":"address"}],"outputs":[{"name":"","type":"uint256","internalType":"uint256"}],"stateMutability":"view"},{"type":"function","name":"approve","inputs":[{"name":"spender","type":"address","internalType":"address"},{"name":"amount","type":"uint256","internalType":"uint256"}],"outputs":[{"name":"","type":"bool","internalType":"bool"}],"stateMutability":"nonpayable"},{"type":"function","name":"approveDelegation","inputs":[{"name":"delegatee","type":"address","internalType":"address"},{"name":"amount","type":"uint256","internalType":"uint256"}],"outputs":[],"stateMutability":"nonpayable"},{"type":"function","name":"authority","inputs":[],"outputs":[{"name":"","type":"address","internalType":"address"}],"stateMutability":"view"},{"type":"function","name":"balanceOf","inputs":[{"name":"account","type":"address","internalType":"address"}],"outputs":[{"name":"","type":"uint256","internalType":"uint256"}],"stateMutability":"view"},{"type":"function","name":"burn","inputs":[{"name":"amount","type":"uint256","internalType":"uint256"},{"name":"onBehalfOf","type":"address","internalType":"address"}],"outputs":[],"stateMutability":"nonpayable"},{"type":"function","name":"debtAllowance","inputs":[{"name":"delegator","type":"address","internalType":"address"},{"name":"delegatee","type":"address","internalType":"address"}],"outputs":[{"name":"","type":"uint256","internalType":"uint256"}],"stateMutability":"view"},{"type":"function","name":"decimals","inputs":[],"outputs":[{"name":"","type":"uint8","internalType":"uint8"}],"stateMutability":"view"},{"type":"function","name":"delegationWithSig","inputs":[{"name":"delegator","type":"address","internalType":"address"},{"name":"delegatee","type":"address","internalType":"address"},{"name":"value","type":"uint256","internalType":"uint256"},{"name":"deadline","type":"uint256","internalType":"uint256"},{"name":"v","type":"uint8","internalType":"uint8"},{"name":"r","type":"bytes32","internalType":"bytes32"},{"name":"s","type":"bytes32","internalType":"bytes32"}],"outputs":[],"stateMutability":"nonpayable"},{"type":"function","name":"distributeRewards","inputs":[{"name":"account","type":"address","internalType":"address"}],"outputs":[],"stateMutability":"nonpayable"},{"type":"function","name":"eip712Domain","inputs":[],"outputs":[{"name":"fields","type":"bytes1","internalType":"bytes1"},{"name":"name","type":"string","internalType":"string"},{"name":"version","type":"string","internalType":"string"},{"name":"chainId","type":"uint256","internalType":"uint256"},{"name":"verifyingContract","type":"address","internalType":"address"},{"name":"salt","type":"bytes32","internalType":"bytes32"},{"name":"extensions","type":"uint256[]","internalType":"uint256[]"}],"stateMutability":"view"},{"type":"function","name":"enabledCollaterals","inputs":[{"name":"","type":"address","internalType":"address"},{"name":"","type":"uint256","internalType":"uint256"}],"outputs":[{"name":"","type":"address","internalType":"address"}],"stateMutability":"view"},{"type":"function","name":"getAllCollaterals","inputs":[],"outputs":[{"name":"","type":"address[]","internalType":"address[]"}],"stateMutability":"view"},{"type":"function","name":"getCollateralConfig","inputs":[{"name":"asset","type":"address","internalType":"address"}],"outputs":[{"name":"","type":"tuple","internalType":"struct Reserve.Collateral","components":[{"name":"vault","type":"address","internalType":"address"},{"name":"baseLTV","type":"uint256","internalType":"uint256"},{"name":"liquidationThreshold","type":"uint256","internalType":"uint256"},{"name":"liquidationBonus","type":"uint256","internalType":"uint256"},{"name":"liquidationFee","type":"uint256","internalType":"uint256"},{"name":"maxDeposits","type":"uint256","internalType":"uint256"},{"name":"active","type":"bool","internalType":"bool"}]}],"stateMutability":"view"},{"type":"function","name":"getLiquidity","inputs":[],"outputs":[{"name":"totalLiquidity","type":"int256","internalType":"int256"}],"stateMutability":"view"},{"type":"function","name":"getUserAssetsUSD","inputs":[{"name":"user","type":"address","internalType":"address"}],"outputs":[{"name":"totalAssetsUSD","type":"uint256","internalType":"uint256"},{"name":"adjustedUSD","type":"uint256","internalType":"uint256"},{"name":"thresholdUSD","type":"uint256","internalType":"uint256"}],"stateMutability":"view"},{"type":"function","name":"getUserData","inputs":[{"name":"account","type":"address","internalType":"address"}],"outputs":[{"name":"userDebtUSD","type":"uint256","internalType":"uint256"},{"name":"userBalanceUSD","type":"uint256","internalType":"uint256"},{"name":"adjustedBalanceUSD","type":"uint256","internalType":"uint256"},{"name":"availableToMintUSD","type":"int256","internalType":"int256"}],"stateMutability":"view"},{"type":"function","name":"getUserDebtUSD","inputs":[{"name":"account","type":"address","internalType":"address"}],"outputs":[{"name":"","type":"uint256","internalType":"uint256"}],"stateMutability":"view"},{"type":"function","name":"irModel","inputs":[],"outputs":[{"name":"","type":"address","internalType":"contract IRModel"}],"stateMutability":"view"},{"type":"function","name":"isConsumingScheduledOp","inputs":[],"outputs":[{"name":"","type":"bytes4","internalType":"bytes4"}],"stateMutability":"view"},{"type":"function","name":"lastUpdated","inputs":[],"outputs":[{"name":"","type":"uint256","internalType":"uint256"}],"stateMutability":"view"},{"type":"function","name":"mint","inputs":[{"name":"amount","type":"uint256","internalType":"uint256"},{"name":"onBehalfOf","type":"address","internalType":"address"},{"name":"receiver","type":"address","internalType":"address"}],"outputs":[],"stateMutability":"nonpayable"},{"type":"function","name":"name","inputs":[],"outputs":[{"name":"","type":"string","internalType":"string"}],"stateMutability":"view"},{"type":"function","name":"nonces","inputs":[{"name":"owner","type":"address","internalType":"address"}],"outputs":[{"name":"","type":"uint256","internalType":"uint256"}],"stateMutability":"view"},{"type":"function","name":"oracle","inputs":[],"outputs":[{"name":"","type":"address","internalType":"contract Oracle"}],"stateMutability":"view"},{"type":"function","name":"removeCollateral","inputs":[{"name":"asset","type":"address","internalType":"address"}],"outputs":[],"stateMutability":"nonpayable"},{"type":"function","name":"rewards","inputs":[{"name":"","type":"uint256","internalType":"uint256"}],"outputs":[{"name":"","type":"address","internalType":"address"}],"stateMutability":"view"},{"type":"function","name":"setAuthority","inputs":[{"name":"newAuthority","type":"address","internalType":"address"}],"outputs":[],"stateMutability":"nonpayable"},{"type":"function","name":"stake","inputs":[{"name":"asset","type":"address","internalType":"address"},{"name":"amount","type":"uint256","internalType":"uint256"},{"name":"onBehalfOf","type":"address","internalType":"address"}],"outputs":[{"name":"","type":"uint256","internalType":"uint256"}],"stateMutability":"nonpayable"},{"type":"function","name":"stakedBalance","inputs":[{"name":"asset","type":"address","internalType":"address"},{"name":"user","type":"address","internalType":"address"}],"outputs":[{"name":"","type":"uint256","internalType":"uint256"}],"stateMutability":"view"},{"type":"function","name":"symbol","inputs":[],"outputs":[{"name":"","type":"string","internalType":"string"}],"stateMutability":"view"},{"type":"function","name":"synth","inputs":[],"outputs":[{"name":"","type":"address","internalType":"contract Synth"}],"stateMutability":"view"},{"type":"function","name":"totalDebt","inputs":[],"outputs":[{"name":"","type":"uint256","internalType":"uint256"}],"stateMutability":"view"},{"type":"function","name":"totalSupply","inputs":[],"outputs":[{"name":"","type":"uint256","internalType":"uint256"}],"stateMutability":"view"},{"type":"function","name":"transfer","inputs":[{"name":"recipient","type":"address","internalType":"address"},{"name":"amount","type":"uint256","internalType":"uint256"}],"outputs":[{"name":"","type":"bool","internalType":"bool"}],"stateMutability":"nonpayable"},{"type":"function","name":"transferFrom","inputs":[{"name":"sender","type":"address","internalType":"address"},{"name":"recipient","type":"address","internalType":"address"},{"name":"amount","type":"uint256","internalType":"uint256"}],"outputs":[{"name":"","type":"bool","internalType":"bool"}],"stateMutability":"nonpayable"},{"type":"function","name":"unstake","inputs":[{"name":"receiver","type":"address","internalType":"address"},{"name":"asset","type":"address","internalType":"address"},{"name":"amount","type":"uint256","internalType":"uint256"}],"outputs":[{"name":"","type":"uint256","internalType":"uint256"}],"stateMutability":"nonpayable"},{"type":"event","name":"Approval","inputs":[{"name":"owner","type":"address","indexed":true,"internalType":"address"},{"name":"spender","type":"address","indexed":true,"internalType":"address"},{"name":"value","type":"uint256","indexed":false,"internalType":"uint256"}],"anonymous":false},{"type":"event","name":"AuthorityUpdated","inputs":[{"name":"authority","type":"address","indexed":false,"internalType":"address"}],"anonymous":false},{"type":"event","name":"CollateralRemoved","inputs":[{"name":"asset","type":"address","indexed":true,"internalType":"address"}],"anonymous":false},{"type":"event","name":"CollateralUpdated","inputs":[{"name":"asset","type":"address","indexed":true,"internalType":"address"},{"name":"config","type":"tuple","indexed":false,"internalType":"struct Reserve.Collateral","components":[{"name":"vault","type":"address","internalType":"address"},{"name":"baseLTV","type":"uint256","internalType":"uint256"},{"name":"liquidationThreshold","type":"uint256","internalType":"uint256"},{"name":"liquidationBonus","type":"uint256","internalType":"uint256"},{"name":"liquidationFee","type":"uint256","internalType":"uint256"},{"name":"maxDeposits","type":"uint256","internalType":"uint256"},{"name":"active","type":"bool","internalType":"bool"}]}],"anonymous":false},{"type":"event","name":"DebtAllowanceDelegated","inputs":[{"name":"delegator","type":"address","indexed":true,"internalType":"address"},{"name":"delegatee","type":"address","indexed":true,"internalType":"address"},{"name":"value","type":"uint256","indexed":false,"internalType":"uint256"}],"anonymous":false},{"type":"event","name":"EIP712DomainChanged","inputs":[],"anonymous":false},{"type":"event","name":"InterestAccrued","inputs":[{"name":"marketIndex","type":"uint256","indexed":false,"internalType":"uint256"},{"name":"account","type":"address","indexed":true,"internalType":"address"},{"name":"accountIndex","type":"uint256","indexed":false,"internalType":"uint256"}],"anonymous":false},{"type":"event","name":"NewCollateral","inputs":[{"name":"asset","type":"address","indexed":true,"internalType":"address"},{"name":"config","type":"tuple","indexed":false,"internalType":"struct Reserve.Collateral","components":[{"name":"vault","type":"address","internalType":"address"},{"name":"baseLTV","type":"uint256","internalType":"uint256"},{"name":"liquidationThreshold","type":"uint256","internalType":"uint256"},{"name":"liquidationBonus","type":"uint256","internalType":"uint256"},{"name":"liquidationFee","type":"uint256","internalType":"uint256"},{"name":"maxDeposits","type":"uint256","internalType":"uint256"},{"name":"active","type":"bool","internalType":"bool"}]}],"anonymous":false},{"type":"event","name":"Transfer","inputs":[{"name":"from","type":"address","indexed":true,"internalType":"address"},{"name":"to","type":"address","indexed":true,"internalType":"address"},{"name":"value","type":"uint256","indexed":false,"internalType":"uint256"}],"anonymous":false},{"type":"error","name":"AccessManagedInvalidAuthority","inputs":[{"name":"authority","type":"address","internalType":"address"}]},{"type":"error","name":"AccessManagedRequiredDelay","inputs":[{"name":"caller","type":"address","internalType":"address"},{"name":"delay","type":"uint32","internalType":"uint32"}]},{"type":"error","name":"AccessManagedUnauthorized","inputs":[{"name":"caller","type":"address","internalType":"address"}]},{"type":"error","name":"ECDSAInvalidSignature","inputs":[]},{"type":"error","name":"ECDSAInvalidSignatureLength","inputs":[{"name":"length","type":"uint256","internalType":"uint256"}]},{"type":"error","name":"ECDSAInvalidSignatureS","inputs":[{"name":"s","type":"bytes32","internalType":"bytes32"}]},{"type":"error","name":"ERC20InsufficientAllowance","inputs":[{"name":"spender","type":"address","internalType":"address"},{"name":"allowance","type":"uint256","internalType":"uint256"},{"name":"needed","type":"uint256","internalType":"uint256"}]},{"type":"error","name":"ERC20InsufficientBalance","inputs":[{"name":"sender","type":"address","internalType":"address"},{"name":"balance","type":"uint256","internalType":"uint256"},{"name":"needed","type":"uint256","internalType":"uint256"}]},{"type":"error","name":"ERC20InvalidApprover","inputs":[{"name":"approver","type":"address","internalType":"address"}]},{"type":"error","name":"ERC20InvalidReceiver","inputs":[{"name":"receiver","type":"address","internalType":"address"}]},{"type":"error","name":"ERC20InvalidSender","inputs":[{"name":"sender","type":"address","internalType":"address"}]},{"type":"error","name":"ERC20InvalidSpender","inputs":[{"name":"spender","type":"address","internalType":"address"}]},{"type":"error","name":"InvalidAccountNonce","inputs":[{"name":"account","type":"address","internalType":"address"},{"name":"currentNonce","type":"uint256","internalType":"uint256"}]},{"type":"error","name":"InvalidShortString","inputs":[]},{"type":"error","name":"StringTooLong","inputs":[{"name":"str","type":"string","internalType":"string"}]}],"bytecode":{"object":"0x61016060405234801561001157600080fd5b50604051613cf5380380613cf583398101604081905261003091610361565b6040805180820190915260018152603160f81b6020820152600080546001600160a01b0319166001600160a01b038816179055849088908890829081838961009481600480546001600160a01b0319166001600160a01b0392909216919091179055565b5060086100a183826104a2565b5060096100ae82826104a2565b506100be9150839050600a6101b6565b610120526100cd81600b6101b6565b61014052815160208084019190912060e052815190820120610100524660a05261015a60e05161010051604080517f8b73c3c69bb8fe3d512ecc4cf759cc79239f7b179b0ffacaa9a75d522b39400f60208201529081019290925260608201524660808201523060a082015260009060c00160405160208183030381529060405280519060200120905090565b60805250503060c0525061016f9050816101e9565b50600f80546001600160a01b039384166001600160a01b031991821617909155601080549290931691161790555050670de0b6b3a7640000601155505042601355506105b8565b60006020835110156101d2576101cb8361023d565b90506101e3565b816101dd84826104a2565b5060ff90505b92915050565b600e80546001600160a01b0319166001600160a01b0383169081179091556040519081527f2f658b440c35314f52658ea8a740e05b284cdc84dc9ae01e891f21b8933e7cad9060200160405180910390a150565b600080829050601f81511115610271578260405163305a27a960e01b81526004016102689190610561565b60405180910390fd5b805161027c82610594565b179392505050565b634e487b7160e01b600052604160045260246000fd5b60005b838110156102b557818101518382015260200161029d565b50506000910152565b600082601f8301126102cf57600080fd5b81516001600160401b03808211156102e9576102e9610284565b604051601f8301601f19908116603f0116810190828211818310171561031157610311610284565b8160405283815286602085880101111561032a57600080fd5b61033b84602083016020890161029a565b9695505050505050565b80516001600160a01b038116811461035c57600080fd5b919050565b600080600080600080600060e0888a03121561037c57600080fd5b87516001600160401b038082111561039357600080fd5b61039f8b838c016102be565b985060208a01519150808211156103b557600080fd5b506103c28a828b016102be565b9650506103d160408901610345565b94506103df60608901610345565b93506103ed60808901610345565b92506103fb60a08901610345565b915061040960c08901610345565b905092959891949750929550565b600181811c9082168061042b57607f821691505b60208210810361044b57634e487b7160e01b600052602260045260246000fd5b50919050565b601f82111561049d576000816000526020600020601f850160051c8101602086101561047a5750805b601f850160051c820191505b8181101561049957828155600101610486565b5050505b505050565b81516001600160401b038111156104bb576104bb610284565b6104cf816104c98454610417565b84610451565b602080601f83116001811461050457600084156104ec5750858301515b600019600386901b1c1916600185901b178555610499565b600085815260208120601f198616915b8281101561053357888601518255948401946001909101908401610514565b50858210156105515787850151600019600388901b60f8161c191681555b5050505050600190811b01905550565b602081526000825180602084015261058081604085016020870161029a565b601f01601f19169190910160400192915050565b8051602080830151919081101561044b5760001960209190910360031b1b16919050565b60805160a05160c05160e0516101005161012051610140516136e3610612600039600061236c0152600061233f015260006126b20152600061268a015260006125e50152600061260f0152600061263901526136e36000f3fe608060405234801561001057600080fd5b506004361061027f5760003560e01c80638b96b2801161015c578063c99d3a06116100ce578063f301af4211610087578063f301af42146105da578063f3bfc738146105ed578063f6a44b3814610614578063fc7b9c1814610634578063fcd3533c1461063c578063ffc9896b1461064f57600080fd5b8063c99d3a0614610577578063d0b06f5d1461058a578063d28e512d14610593578063d6599934146105a6578063da39b3e7146105b9578063dd62ed3e146105cc57600080fd5b80639feb8f50116101205780639feb8f50146104fd578063a41c8c0b14610510578063a9059cbb146102b3578063ace6c09c14610525578063bf7e214f14610553578063c04a8a101461056457600080fd5b80638b96b2801461049b5780638fb36037146104ae5780639198e515146104cf57806395d89b41146104e257806395dcf918146104ea57600080fd5b806343636121116101f55780637a9e5e4b116101b95780637a9e5e4b146103fe5780637dc0d1d0146104115780637ecebe00146104245780638229084b1461044d57806384b0196e14610460578063866b01381461047b57600080fd5b8063436361211461037457806359c6b0381461039c57806360829f8a146103af578063636fc28b146103c257806370a08231146103d557600080fd5b8063115f4fee11610247578063115f4fee146102fe57806318160ddd146103295780631de9d9b61461033157806323b872dd14610344578063294091cd14610352578063313ce5671461036557600080fd5b806306fdde03146102845780630910a510146102a2578063095ea7b3146102b35780630b2d9070146102d65780630b52d558146102e9575b600080fd5b61028c610682565b6040516102999190612d84565b60405180910390f35b60005b604051908152602001610299565b6102c66102c1366004612db3565b610714565b6040519015158152602001610299565b6102a56102e4366004612ddd565b610764565b6102fc6102f7366004612e1f565b610791565b005b600f54610311906001600160a01b031681565b6040516001600160a01b039091168152602001610299565b6007546102a5565b6102fc61033f366004612e8c565b6108ed565b6102c66102c1366004612ea7565b6102a5610360366004612ee3565b6109f5565b60405160128152602001610299565b610387610382366004612ddd565b610ca2565b60408051928352602083019190915201610299565b6102fc6103aa366004612f9d565b610dec565b6102a56103bd366004612ea7565b610e03565b600454610311906001600160a01b031681565b6102a56103e3366004612e8c565b6001600160a01b031660009081526005602052604090205490565b6102fc61040c366004612e8c565b6110b5565b600054610311906001600160a01b031681565b6102a5610432366004612e8c565b6001600160a01b03166000908152600c602052604090205490565b6102a561045b366004612ddd565b61112b565b6104686111af565b6040516102999796959493929190613036565b6102a5610489366004612e8c565b60126020526000908152604090205481565b6102a56104a9366004612e8c565b6111f5565b6104b66112a5565b6040516001600160e01b03199091168152602001610299565b6102a56104dd366004612e8c565b6112cd565b61028c61148e565b601054610311906001600160a01b031681565b6102fc61050b366004612db3565b61149d565b610518611522565b60405161029991906130cf565b610538610533366004612e8c565b611583565b60408051938452602084019290925290820152606001610299565b600e546001600160a01b0316610311565b6102fc610572366004612db3565b61181d565b6102fc610585366004612e8c565b611828565b6102a560135481565b6102a56105a1366004612e8c565b61183d565b6103116105b4366004612db3565b611953565b6102fc6105c7366004613110565b61198b565b6102a56102c1366004612ddd565b6103116105e8366004613143565b611a8f565b6102a57f3f8f1584d261c3704820464a741b70ed265924afb92939f833452d3a71c21c9c81565b610627610622366004612e8c565b611ab9565b604051610299919061315c565b6102a5611b74565b6102fc61064a3660046131b0565b611c85565b61066261065d366004612e8c565b611d06565b604080519485526020850193909352918301526060820152608001610299565b606060088054610691906131d3565b80601f01602080910402602001604051908101604052809291908181526020018280546106bd906131d3565b801561070a5780601f106106df5761010080835404028352916020019161070a565b820191906000526020600020905b8154815290600101906020018083116106ed57829003601f168201915b5050505050905090565b60405162461bcd60e51b815260206004820152601760248201527f4f5045524154494f4e5f4e4f545f535550504f5254454400000000000000000060448201526000906064015b60405180910390fd5b6001600160a01b038083166000908152600d60209081526040808320938516835292905220545b92915050565b834211156107d65760405162461bcd60e51b815260206004820152601260248201527124a72b20a624a22fa2ac2824a920aa24a7a760711b604482015260640161075b565b6001600160a01b038781166000818152600d60209081526040808320948b168084529482528083205481517f3f8f1584d261c3704820464a741b70ed265924afb92939f833452d3a71c21c9c81850152808301959095526060850195909552608084018a905260a084019490945260c08084018990528451808503909101815260e0909301909352815191909201209061086f82611d39565b9050600061087f82878787611d66565b9050896001600160a01b0316816001600160a01b0316146108d65760405162461bcd60e51b8152602060048201526011602482015270494e56414c49445f5349474e415455524560781b604482015260640161075b565b6108e18a8a8a611d94565b50505050505050505050565b60005b6018548110156109f15760006018828154811061090f5761090f61320d565b60009182526020822001546001600160a01b03169150806109308386610ca2565b909250905081156109b05760405163a9059cbb60e01b81526001600160a01b0386811660048301526024820184905284169063a9059cbb906044016020604051808303816000875af115801561098a573d6000803e3d6000fd5b505050506040513d601f19601f820116820180604052508101906109ae9190613223565b505b6001600160a01b03808616600090815260166020908152604080832096909316825294855281812092909255601790935291909120429055506001016108f0565b5050565b6000808311610a165760405162461bcd60e51b815260040161075b90613240565b6001600160a01b0384166000908152600160205260409020600681015460ff16610a905760405162461bcd60e51b815260206004820152602560248201527f526573657276654d616e616765723a20436f6c6c61746572616c206e6f742061604482015264637469766560d81b606482015260840161075b565b8054604051630359f7eb60e11b81526001600160a01b038581166004830152909116906306b3efd690602401602060405180830381865afa158015610ad9573d6000803e3d6000fd5b505050506040513d601f19601f82011682018060405250810190610afd919061328d565b600003610b43576001600160a01b0383811660009081526002602090815260408220805460018101825590835291200180546001600160a01b0319169187169190911790555b8054604051633d14d1b760e21b8152336004820152602481018690526001600160a01b0385811660448301529091169063f45346dc906064016020604051808303816000875af1158015610b9b573d6000803e3d6000fd5b505050506040513d601f19601f82011682018060405250810190610bbf919061328d565b935080600501548160000160009054906101000a90046001600160a01b03166001600160a01b031663ad7a672f6040518163ffffffff1660e01b8152600401602060405180830381865afa158015610c1b573d6000803e3d6000fd5b505050506040513d601f19601f82011682018060405250810190610c3f919061328d565b1115610c995760405162461bcd60e51b8152602060048201526024808201527f526573657276654d616e616765723a2045786365656473206d6178206465706f6044820152637369747360e01b606482015260840161075b565b50919392505050565b6001600160a01b03821660009081526017602052604081205481908190610cc990426132bc565b6001600160a01b0386166000908152601460208181526040808420546015835293205491905291925090670de0b6b3a7640000908390610d0990846132cf565b610d1391906132cf565b610d1d91906132e6565b610d279190613308565b9150610d3260075490565b600003610d43576000925050610de5565b6001600160a01b038085166000908152601660209081526040808320938916835292905220548015610de2576000610d7b82856132bc565b9050610d8660075490565b610d9890670de0b6b3a76400006132cf565b81610db8886001600160a01b031660009081526005602052604090205490565b610dca90670de0b6b3a76400006132cf565b610dd491906132cf565b610dde91906132e6565b9450505b50505b9250929050565b610df9335b600036611df6565b6109f18282611ef6565b6001600160a01b038216600090815260016020526040812082610e385760405162461bcd60e51b815260040161075b90613240565b80546001600160a01b0316610e8f5760405162461bcd60e51b815260206004820152601d60248201527f526573657276654d616e616765723a20496e76616c6964207661756c74000000604482015260640161075b565b8054604051636ce5768960e11b81523360048201526001600160a01b038781166024830152604482018690529091169063d9caed1290606401600060405180830381600087803b158015610ee257600080fd5b505af1158015610ef6573d6000803e3d6000fd5b50508254604051630359f7eb60e11b81523360048201526001600160a01b0390911692506306b3efd69150602401602060405180830381865afa158015610f41573d6000803e3d6000fd5b505050506040513d601f19601f82011682018060405250810190610f65919061328d565b6000036110ac5760005b336000908152600260205260409020548110156110aa5733600090815260026020526040902080546001600160a01b038716919083908110610fb357610fb361320d565b6000918252602090912001546001600160a01b0316036110a2573360009081526002602052604090208054610fea906001906132bc565b81548110610ffa57610ffa61320d565b60009182526020808320909101543383526002909152604090912080546001600160a01b0390921691839081106110335761103361320d565b600091825260208083209190910180546001600160a01b0319166001600160a01b03949094169390931790925533815260029091526040902080548061107b5761107b61331b565b600082815260209020810160001990810180546001600160a01b03191690550190556110aa565b600101610f6f565b505b50909392505050565b600e5433906001600160a01b031681146110ec5760405162d1953b60e31b81526001600160a01b038216600482015260240161075b565b816001600160a01b03163b600003611122576040516361798f2f60e11b81526001600160a01b038316600482015260240161075b565b6109f1826122e4565b6001600160a01b03828116600090815260016020526040808220549051630359f7eb60e11b81528484166004820152919216906306b3efd690602401602060405180830381865afa158015611184573d6000803e3d6000fd5b505050506040513d601f19601f820116820180604052508101906111a8919061328d565b9392505050565b6000606080600080600060606111c3612338565b6111cb612365565b60408051600080825260208201909252600f60f81b9b939a50919850469750309650945092509050565b60008061120183611583565b5091505060006112108461183d565b90508060000361122557506000199392505050565b61125860405180604001604052806011815260200170020b2353ab9ba32b21020b9b9b2ba399d1607d1b81525083612392565b6112806040518060400160405280600681526020016502232b13a1d160d51b81525082612392565b8061129383670de0b6b3a76400006132cf565b61129d91906132e6565b949350505050565b600e54600090600160a01b900460ff166112bf5750600090565b638fb3603760e01b5b905090565b600080601354426112de91906132bc565b905060006011546127106301e133806112f791906132cf565b60105460408051637c3a00fd60e01b8152905186926001600160a01b031691637c3a00fd9160048083019260209291908290030181865afa158015611340573d6000803e3d6000fd5b505050506040513d601f19601f82011682018060405250810190611364919061328d565b60115461137191906132cf565b61137b91906132cf565b61138591906132e6565b61138f9190613308565b6001600160a01b0385166000908152601260205260409020549091508015611422576001600160a01b0385166000908152601260205260408120546113d490846132bc565b9050670de0b6b3a7640000816113ff886001600160a01b031660009081526005602052604090205490565b61140991906132cf565b61141391906132e6565b94506114208687876123d7565b505b6001600160a01b03851660009081526012602090815260408083208590554260135560118590553380845292819020548151868152928301527f9c2eff7525daf0137606868ca6d7903e4d76d5f03defbae3e5d61ea068f09d3f910160405180910390a2505050919050565b606060098054610691906131d3565b6114a633610df1565b60188054600181019091557fb13d2d76d1f4b7be834882e410b3e3a8afaf69f83600ae24db354391d2378d2e0180546001600160a01b039093166001600160a01b0319909316831790556000918252601460209081526040808420670de0b6b3a764000090556015825280842092909255601790529020429055565b6060600380548060200260200160405190810160405280929190818152602001828054801561070a57602002820191906000526020600020905b81546001600160a01b0316815260019091019060200180831161155c575050505050905090565b600080546001600160a01b038381168352600260205260408084209051634e91ecf960e11b8152849384938493911691639d23d9f2916115c591600401613331565b600060405180830381865afa1580156115e2573d6000803e3d6000fd5b505050506040513d6000823e601f3d908101601f1916820160405261160a9190810190613375565b905060005b6001600160a01b038616600090815260026020526040902054811015611814576001600160a01b03861660009081526002602052604081208054839081106116595761165961320d565b60009182526020808320909101546001600160a01b0316808352600182526040808420815163313ce56760e01b815291519295509392859263313ce5679260048082019392918290030181865afa1580156116b8573d6000803e3d6000fd5b505050506040513d601f19601f820116820180604052508101906116dc919061341b565b6116e790600a61351c565b6116f5906305f5e1006132cf565b8585815181106117075761170761320d565b60209081029190910101518354604051630359f7eb60e11b81526001600160a01b038d81166004830152909116906306b3efd690602401602060405180830381865afa15801561175b573d6000803e3d6000fd5b505050506040513d601f19601f8201168201806040525081019061177f919061328d565b61179190670de0b6b3a76400006132cf565b61179b91906132cf565b6117a591906132e6565b90506117b18189613308565b97506127108260010154826117c691906132cf565b6117d091906132e6565b6117da9088613308565b96506127108260020154826117ef91906132cf565b6117f991906132e6565b6118039087613308565b9550506001909201915061160f9050565b50509193909250565b6109f1338383611d94565b61183133610df1565b61183a81612405565b50565b604080516001808252818301909252600091829190602080830190803683375050600f5482519293506001600160a01b0316918391506000906118825761188261320d565b6001600160a01b0392831660209182029290920101526004805460405163053c81b560e01b8152600093919091169163053c81b5916118c3918691016130cf565b600060405180830381865afa1580156118e0573d6000803e3d6000fd5b505050506040513d6000823e601f3d908101601f191682016040526119089190810190613375565b90506305f5e100816000815181106119225761192261320d565b6020026020010151611949866001600160a01b031660009081526005602052604090205490565b61129391906132cf565b6002602052816000526040600020818154811061196f57600080fd5b6000918252602090912001546001600160a01b03169150829050565b611994826112cd565b5061199e826108ed565b60048054600f54604051630d4d151360e01b81526001600160a01b03918216938101939093526024830186905283811660448401521690630d4d151390606401600060405180830381600087803b1580156119f857600080fd5b505af1158015611a0c573d6000803e3d6000fd5b50505050611a1b3383856123d7565b670de0b6b3a7640000611a2d336111f5565b11611a8a5760405162461bcd60e51b815260206004820152602760248201527f4c6971756964697479506c7567696e3a204163636f756e74206865616c74682060448201526662656c6f77203160c81b606482015260840161075b565b505050565b60188181548110611a9f57600080fd5b6000918252602090912001546001600160a01b0316905081565b611b046040518060e0016040528060006001600160a01b0316815260200160008152602001600081526020016000815260200160008152602001600081526020016000151581525090565b506001600160a01b03908116600090815260016020818152604092839020835160e0810185528154909516855291820154908401526002810154918301919091526003810154606083015260048101546080830152600581015460a08301526006015460ff16151560c082015290565b604080516001808252818301909252600091829190602080830190803683375050600f5482519293506001600160a01b031691839150600090611bb957611bb961320d565b6001600160a01b0392831660209182029290920101526004805460405163053c81b560e01b8152600093919091169163053c81b591611bfa918691016130cf565b600060405180830381865afa158015611c17573d6000803e3d6000fd5b505050506040513d6000823e601f3d908101601f19168201604052611c3f9190810190613375565b90506305f5e10081600081518110611c5957611c5961320d565b6020026020010151611c6a60075490565b611c7491906132cf565b611c7e91906132e6565b9250505090565b611c8e816112cd565b50611c98816108ed565b600f5460405163079cc67960e41b8152336004820152602481018490526001600160a01b03909116906379cc679090604401600060405180830381600087803b158015611ce457600080fd5b505af1158015611cf8573d6000803e3d6000fd5b505050506109f181836125ce565b600080600080611d158561183d565b9350611d2085611583565b509093509150611d30848361352b565b90509193509193565b600061078b611d466125d8565b8360405161190160f01b8152600281019290925260228201526042902090565b600080600080611d7888888888612703565b925092509250611d8882826127d2565b50909695505050505050565b6001600160a01b038381166000818152600d602090815260408083209487168084529482529182902085905590518481527fe840c5397d4cc6701cb0a4091d296f8b9d45f0b6a02edfb20e83d45481db5fc191015b60405180910390a3505050565b600080611e2c611e0e600e546001600160a01b031690565b8630611e1e60046000898b613552565b611e279161357c565b61288b565b9150915081611eef5763ffffffff811615611ecc57600e805460ff60a01b198116600160a01b17909155604051634a63ebf760e11b81526001600160a01b03909116906394c7d7ee90611e87908890889088906004016135ac565b600060405180830381600087803b158015611ea157600080fd5b505af1158015611eb5573d6000803e3d6000fd5b5050600e805460ff60a01b1916905550611eef9050565b60405162d1953b60e31b81526001600160a01b038616600482015260240161075b565b5050505050565b6000816020015111611f625760405162461bcd60e51b815260206004820152602f60248201527f526573657276654d616e616765723a2042617365204c5456206d75737420626560448201526e02067726561746572207468616e203608c1b606482015260840161075b565b6000816040015111611fdc5760405162461bcd60e51b815260206004820152603c60248201527f526573657276654d616e616765723a204c69717569646174696f6e207468726560448201527f73686f6c64206d7573742062652067726561746572207468616e203000000000606482015260840161075b565b8060c0015161203f5760405162461bcd60e51b815260206004820152602960248201527f526573657276654d616e616765723a20436f6c6c61746572616c206d7573742060448201526862652061637469766560b81b606482015260840161075b565b60008160600151116120b95760405162461bcd60e51b815260206004820152603860248201527f526573657276654d616e616765723a204c69717569646174696f6e20626f6e7560448201527f73206d7573742062652067726561746572207468616e20300000000000000000606482015260840161075b565b80516001600160a01b03166121105760405162461bcd60e51b815260206004820152601d60248201527f526573657276654d616e616765723a20496e76616c6964207661756c74000000604482015260640161075b565b6001600160a01b03828116600090815260016020818152604092839020855181546001600160a01b03191695169490941784558481015191840191909155838201516002840155606084015160038401556080840151600484015560a0840151600584015560c08401516006909301805460ff19169315159390931790925580518082019091526014815273436f6c6c61746572616c2061646465643a20257360601b918101919091526121c49083612997565b6000805b60035481101561221a57836001600160a01b0316600382815481106121ef576121ef61320d565b6000918252602090912001546001600160a01b031603612212576001915061221a565b6001016121c8565b50806122ab57600380546001810182556000919091527fc2575a0e9e593c00f959f8c92f12db2869c3395a3b0502d05e2516446f71f85b0180546001600160a01b0319166001600160a01b0385169081179091556040517f4aaf2a929b9dba2dd62b2b6b66effb3965eaaef79fdb62fb89a6de3acbc0cb4d9061229e90859061315c565b60405180910390a2505050565b826001600160a01b03167f865761f7d4b36be681fcc07404e334da0bf6bac1767a28b0aad18fc299b7035f8360405161229e919061315c565b600e80546001600160a01b0319166001600160a01b0383169081179091556040519081527f2f658b440c35314f52658ea8a740e05b284cdc84dc9ae01e891f21b8933e7cad9060200160405180910390a150565b60606112c87f0000000000000000000000000000000000000000000000000000000000000000600a6129dc565b60606112c87f0000000000000000000000000000000000000000000000000000000000000000600b6129dc565b6109f182826040516024016123a89291906135ec565b60408051601f198184030181529190526020810180516001600160e01b03166309710a9d60e41b179052612a87565b816001600160a01b0316836001600160a01b0316146123fb576123fb828483612aa8565b611a8a8282612b44565b6001600160a01b0381166000908152600160208190526040822080546001600160a01b031916815590810182905560028101829055600381018290556004810182905560058101829055600601805460ff191690555b336000908152600260205260409020548110156125965733600090815260026020526040902080546001600160a01b03841691908390811061249f5761249f61320d565b6000918252602090912001546001600160a01b03160361258e5733600090815260026020526040902080546124d6906001906132bc565b815481106124e6576124e661320d565b60009182526020808320909101543383526002909152604090912080546001600160a01b03909216918390811061251f5761251f61320d565b600091825260208083209190910180546001600160a01b0319166001600160a01b0394909416939093179092553381526002909152604090208054806125675761256761331b565b600082815260209020810160001990810180546001600160a01b0319169055019055612596565b60010161245b565b506040516001600160a01b038216907fd89d2ee68ab04dca0193f48a4aff55e20fa5ec0429a8a8c1c51b8dad6178a59390600090a250565b6109f18282612b7a565b6000306001600160a01b037f00000000000000000000000000000000000000000000000000000000000000001614801561263157507f000000000000000000000000000000000000000000000000000000000000000046145b1561265b57507f000000000000000000000000000000000000000000000000000000000000000090565b6112c8604080517f8b73c3c69bb8fe3d512ecc4cf759cc79239f7b179b0ffacaa9a75d522b39400f60208201527f0000000000000000000000000000000000000000000000000000000000000000918101919091527f000000000000000000000000000000000000000000000000000000000000000060608201524660808201523060a082015260009060c00160405160208183030381529060405280519060200120905090565b600080807f7fffffffffffffffffffffffffffffff5d576e7357a4501ddfe92f46681b20a084111561273e57506000915060039050826127c8565b604080516000808252602082018084528a905260ff891692820192909252606081018790526080810186905260019060a0016020604051602081039080840390855afa158015612792573d6000803e3d6000fd5b5050604051601f1901519150506001600160a01b0381166127be575060009250600191508290506127c8565b9250600091508190505b9450945094915050565b60008260038111156127e6576127e661360e565b036127ef575050565b60018260038111156128035761280361360e565b036128215760405163f645eedf60e01b815260040160405180910390fd5b60028260038111156128355761283561360e565b036128565760405163fce698f760e01b81526004810182905260240161075b565b600382600381111561286a5761286a61360e565b036109f1576040516335e2f38360e21b81526004810182905260240161075b565b6040516001600160a01b03848116602483015283811660448301526001600160e01b03198316606483015260009182918291829189169060840160408051601f198184030181529181526020820180516001600160e01b031663b700961360e01b179052516128fa9190613624565b600060405180830381855afa9150503d8060008114612935576040519150601f19603f3d011682016040523d82523d6000602084013e61293a565b606091505b5091509150811561298c57604081511061296c57808060200190518101906129629190613640565b909450925061298c565b602081511061298c57808060200190518101906129899190613223565b93505b505094509492505050565b6109f182826040516024016129ad929190613683565b60408051601f198184030181529190526020810180516001600160e01b031663319af33360e01b179052612a87565b606060ff83146129f6576129ef83612bb0565b905061078b565b818054612a02906131d3565b80601f0160208091040260200160405190810160405280929190818152602001828054612a2e906131d3565b8015612a7b5780601f10612a5057610100808354040283529160200191612a7b565b820191906000526020600020905b815481529060010190602001808311612a5e57829003601f168201915b5050505050905061078b565b80516a636f6e736f6c652e6c6f67602083016000808483855afa5050505050565b6001600160a01b038084166000908152600d60209081526040808320938616835292905290812054612adb9083906132bc565b6001600160a01b038581166000818152600d60209081526040808320948916808452948252918290208590559051848152939450919290917fe840c5397d4cc6701cb0a4091d296f8b9d45f0b6a02edfb20e83d45481db5fc1910160405180910390a350505050565b6001600160a01b038216612b6e5760405163ec442f0560e01b81526000600482015260240161075b565b6109f160008383612bef565b6001600160a01b038216612ba457604051634b637e8f60e11b81526000600482015260240161075b565b6109f182600083612bef565b60606000612bbd83612d0c565b604080516020808252818301909252919250600091906020820181803683375050509182525060208101929092525090565b6001600160a01b038316612c1a578060076000828254612c0f9190613308565b90915550612c8c9050565b6001600160a01b03831660009081526005602052604090205481811015612c6d5760405163391434e360e21b81526001600160a01b0385166004820152602481018290526044810183905260640161075b565b6001600160a01b03841660009081526005602052604090209082900390555b6001600160a01b038216612ca857600780548290039055612cc7565b6001600160a01b03821660009081526005602052604090208054820190555b816001600160a01b0316836001600160a01b03167fddf252ad1be2c89b69c2b068fc378daa952ba7f163c4a11628f55a4df523b3ef83604051611de991815260200190565b600060ff8216601f81111561078b57604051632cd44ac360e21b815260040160405180910390fd5b60005b83811015612d4f578181015183820152602001612d37565b50506000910152565b60008151808452612d70816020860160208601612d34565b601f01601f19169290920160200192915050565b6020815260006111a86020830184612d58565b80356001600160a01b0381168114612dae57600080fd5b919050565b60008060408385031215612dc657600080fd5b612dcf83612d97565b946020939093013593505050565b60008060408385031215612df057600080fd5b612df983612d97565b9150612e0760208401612d97565b90509250929050565b60ff8116811461183a57600080fd5b600080600080600080600060e0888a031215612e3a57600080fd5b612e4388612d97565b9650612e5160208901612d97565b955060408801359450606088013593506080880135612e6f81612e10565b9699959850939692959460a0840135945060c09093013592915050565b600060208284031215612e9e57600080fd5b6111a882612d97565b600080600060608486031215612ebc57600080fd5b612ec584612d97565b9250612ed360208501612d97565b9150604084013590509250925092565b600080600060608486031215612ef857600080fd5b612f0184612d97565b925060208401359150612f1660408501612d97565b90509250925092565b634e487b7160e01b600052604160045260246000fd5b60405160e0810167ffffffffffffffff81118282101715612f5857612f58612f1f565b60405290565b604051601f8201601f1916810167ffffffffffffffff81118282101715612f8757612f87612f1f565b604052919050565b801515811461183a57600080fd5b600080828403610100811215612fb257600080fd5b612fbb84612d97565b925060e0601f1982011215612fcf57600080fd5b50612fd8612f35565b612fe460208501612d97565b815260408401356020820152606084013560408201526080840135606082015260a0840135608082015260c084013560a082015260e084013561302681612f8f565b60c0820152919491935090915050565b60ff60f81b881681526000602060e0602084015261305760e084018a612d58565b8381036040850152613069818a612d58565b606085018990526001600160a01b038816608086015260a0850187905284810360c08601528551808252602080880193509091019060005b818110156130bd578351835292840192918401916001016130a1565b50909c9b505050505050505050505050565b6020808252825182820181905260009190848201906040850190845b81811015611d885783516001600160a01b0316835292840192918401916001016130eb565b60008060006060848603121561312557600080fd5b8335925061313560208501612d97565b9150612f1660408501612d97565b60006020828403121561315557600080fd5b5035919050565b81516001600160a01b031681526020808301519082015260408083015190820152606080830151908201526080808301519082015260a0828101519082015260c09182015115159181019190915260e00190565b600080604083850312156131c357600080fd5b82359150612e0760208401612d97565b600181811c908216806131e757607f821691505b60208210810361320757634e487b7160e01b600052602260045260246000fd5b50919050565b634e487b7160e01b600052603260045260246000fd5b60006020828403121561323557600080fd5b81516111a881612f8f565b6020808252602d908201527f526573657276654d616e616765723a20416d6f756e74206d757374206265206760408201526c0726561746572207468616e203609c1b606082015260800190565b60006020828403121561329f57600080fd5b5051919050565b634e487b7160e01b600052601160045260246000fd5b8181038181111561078b5761078b6132a6565b808202811582820484141761078b5761078b6132a6565b60008261330357634e487b7160e01b600052601260045260246000fd5b500490565b8082018082111561078b5761078b6132a6565b634e487b7160e01b600052603160045260246000fd5b6020808252825482820181905260008481528281209092916040850190845b81811015611d885783546001600160a01b031683526001938401939285019201613350565b6000602080838503121561338857600080fd5b825167ffffffffffffffff808211156133a057600080fd5b818501915085601f8301126133b457600080fd5b8151818111156133c6576133c6612f1f565b8060051b91506133d7848301612f5e565b81815291830184019184810190888411156133f157600080fd5b938501935b8385101561340f578451825293850193908501906133f6565b98975050505050505050565b60006020828403121561342d57600080fd5b81516111a881612e10565b600181815b80851115613473578160001904821115613459576134596132a6565b8085161561346657918102915b93841c939080029061343d565b509250929050565b60008261348a5750600161078b565b816134975750600061078b565b81600181146134ad57600281146134b7576134d3565b600191505061078b565b60ff8411156134c8576134c86132a6565b50506001821b61078b565b5060208310610133831016604e8410600b84101617156134f6575081810a61078b565b6135008383613438565b8060001904821115613514576135146132a6565b029392505050565b60006111a860ff84168361347b565b818103600083128015838313168383128216171561354b5761354b6132a6565b5092915050565b6000808585111561356257600080fd5b8386111561356f57600080fd5b5050820193919092039150565b6001600160e01b031981358181169160048510156135a45780818660040360031b1b83161692505b505092915050565b6001600160a01b03841681526040602082018190528101829052818360608301376000818301606090810191909152601f909201601f1916010192915050565b6040815260006135ff6040830185612d58565b90508260208301529392505050565b634e487b7160e01b600052602160045260246000fd5b60008251613636818460208701612d34565b9190910192915050565b6000806040838503121561365357600080fd5b825161365e81612f8f565b602084015190925063ffffffff8116811461367857600080fd5b809150509250929050565b6040815260006136966040830185612d58565b905060018060a01b0383166020830152939250505056fea2646970667358221220379c09a4380345fdb4c34db4f5b15b415685072abb43f524d6eb863e4e8aa70964736f6c63430008190033","linkReferences":{}},"methodIdentifiers":{"DELEGATION_WITH_SIG_TYPEHASH()":"f3bfc738","_pool()":"636fc28b","accountHealth(address)":"8b96b280","accountIndex(address)":"866b0138","accrueInterest(address)":"9198e515","accumulatedRewards(address,address)":"43636121","addCollateral(address,(address,uint256,uint256,uint256,uint256,uint256,bool))":"59c6b038","addReward(address,uint256)":"9feb8f50","allowance(address,address)":"dd62ed3e","approve(address,uint256)":"095ea7b3","approveDelegation(address,uint256)":"c04a8a10","authority()":"bf7e214f","balanceOf(address)":"70a08231","burn(uint256,address)":"fcd3533c","debtAllowance(address,address)":"0b2d9070","decimals()":"313ce567","delegationWithSig(address,address,uint256,uint256,uint8,bytes32,bytes32)":"0b52d558","distributeRewards(address)":"1de9d9b6","eip712Domain()":"84b0196e","enabledCollaterals(address,uint256)":"d6599934","getAllCollaterals()":"a41c8c0b","getCollateralConfig(address)":"f6a44b38","getLiquidity()":"0910a510","getUserAssetsUSD(address)":"ace6c09c","getUserData(address)":"ffc9896b","getUserDebtUSD(address)":"d28e512d","irModel()":"95dcf918","isConsumingScheduledOp()":"8fb36037","lastUpdated()":"d0b06f5d","mint(uint256,address,address)":"da39b3e7","name()":"06fdde03","nonces(address)":"7ecebe00","oracle()":"7dc0d1d0","removeCollateral(address)":"c99d3a06","rewards(uint256)":"f301af42","setAuthority(address)":"7a9e5e4b","stake(address,uint256,address)":"294091cd","stakedBalance(address,address)":"8229084b","symbol()":"95d89b41","synth()":"115f4fee","totalDebt()":"fc7b9c18","totalSupply()":"18160ddd","transfer(address,uint256)":"a9059cbb","transferFrom(address,address,uint256)":"23b872dd","unstake(address,address,uint256)":"60829f8a"},"id":67}