{"abi":[{"type":"function","name":"_oracle","inputs":[],"outputs":[{"name":"","type":"address","internalType":"contract Oracle"}],"stateMutability":"view"},{"type":"function","name":"_plugins","inputs":[{"name":"","type":"uint256","internalType":"uint256"}],"outputs":[{"name":"","type":"address","internalType":"address"}],"stateMutability":"view"},{"type":"function","name":"_synthConfig","inputs":[{"name":"","type":"address","internalType":"address"}],"outputs":[{"name":"maxSupply","type":"uint256","internalType":"uint256"},{"name":"active","type":"bool","internalType":"bool"}],"stateMutability":"view"},{"type":"function","name":"_synths","inputs":[{"name":"","type":"uint256","internalType":"uint256"}],"outputs":[{"name":"","type":"address","internalType":"address"}],"stateMutability":"view"},{"type":"event","name":"SynthAdded","inputs":[{"name":"synth","type":"address","indexed":false,"internalType":"address"}],"anonymous":false},{"type":"event","name":"SynthRemoved","inputs":[{"name":"synth","type":"address","indexed":false,"internalType":"address"}],"anonymous":false},{"type":"event","name":"SynthUpdated","inputs":[{"name":"synth","type":"address","indexed":false,"internalType":"address"},{"name":"config","type":"tuple","indexed":false,"internalType":"struct RxPoolStorage.SynthConfig","components":[{"name":"maxSupply","type":"uint256","internalType":"uint256"},{"name":"active","type":"bool","internalType":"bool"}]}],"anonymous":false}],"bytecode":{"object":"0x6080604052348015600f57600080fd5b5061019f8061001f6000396000f3fe608060405234801561001057600080fd5b506004361061004c5760003560e01c8063212f893414610051578063247ac063146100815780637a4f12be14610094578063b471b601146100d3575b600080fd5b61006461005f366004610120565b6100e6565b6040516001600160a01b0390911681526020015b60405180910390f35b600054610064906001600160a01b031681565b6100be6100a2366004610139565b6003602052600090815260409020805460019091015460ff1682565b60408051928352901515602083015201610078565b6100646100e1366004610120565b610110565b600281815481106100f657600080fd5b6000918252602090912001546001600160a01b0316905081565b600181815481106100f657600080fd5b60006020828403121561013257600080fd5b5035919050565b60006020828403121561014b57600080fd5b81356001600160a01b038116811461016257600080fd5b939250505056fea26469706673582212201c730ffd5daec1d5d5c08f906b90beaf8eed6da9399e80bb01784c1eaee55f1f64736f6c63430008190033","linkReferences":{}},"methodIdentifiers":{"_oracle()":"247ac063","_plugins(uint256)":"b471b601","_synthConfig(address)":"7a4f12be","_synths(uint256)":"212f8934"},"id":78}