{"abi":[{"type":"function","name":"liquidity","inputs":[],"outputs":[{"name":"","type":"address","internalType":"contract Liquidity"}],"stateMutability":"view"},{"type":"function","name":"reserve","inputs":[],"outputs":[{"name":"","type":"address","internalType":"contract Reserve"}],"stateMutability":"view"}],"bytecode":{"object":"0x6080604052348015600f57600080fd5b5060ad8061001e6000396000f3fe6080604052348015600f57600080fd5b506004361060325760003560e01c80631a686502146037578063cd3293de146065575b600080fd5b6001546049906001600160a01b031681565b6040516001600160a01b03909116815260200160405180910390f35b6000546049906001600160a01b03168156fea2646970667358221220ac16a72e8cdd9efbb527bb061a761c601f4ed626a19ba92955227a65321bcf5264736f6c63430008170033","linkReferences":{}},"methodIdentifiers":{"liquidity()":"1a686502","reserve()":"cd3293de"},"id":78}