{"abi":[{"type":"function","name":"_pluginConfig","inputs":[{"name":"","type":"address","internalType":"address"}],"outputs":[{"name":"active","type":"bool","internalType":"bool"}],"stateMutability":"view"},{"type":"function","name":"_plugins","inputs":[{"name":"","type":"uint256","internalType":"uint256"}],"outputs":[{"name":"","type":"address","internalType":"address"}],"stateMutability":"view"},{"type":"function","name":"getAllPlugins","inputs":[],"outputs":[{"name":"","type":"address[]","internalType":"address[]"}],"stateMutability":"view"},{"type":"event","name":"PluginAdded","inputs":[{"name":"plugin","type":"address","indexed":false,"internalType":"address"}],"anonymous":false},{"type":"event","name":"PluginRemoved","inputs":[{"name":"plugin","type":"address","indexed":false,"internalType":"address"}],"anonymous":false}],"bytecode":{"object":"0x6080604052348015600e575f80fd5b506102088061001c5f395ff3fe608060405234801561000f575f80fd5b506004361061003f575f3560e01c8063590ceaaa146100435780636b86400e1461007a578063b471b6011461008f575b5f80fd5b610065610051366004610142565b5f6020819052908152604090205460ff1681565b60405190151581526020015b60405180910390f35b6100826100ba565b604051610071919061016f565b6100a261009d3660046101bb565b61011a565b6040516001600160a01b039091168152602001610071565b6060600180548060200260200160405190810160405280929190818152602001828054801561011057602002820191905f5260205f20905b81546001600160a01b031681526001909101906020018083116100f2575b5050505050905090565b60018181548110610129575f80fd5b5f918252602090912001546001600160a01b0316905081565b5f60208284031215610152575f80fd5b81356001600160a01b0381168114610168575f80fd5b9392505050565b602080825282518282018190525f9190848201906040850190845b818110156101af5783516001600160a01b03168352928401929184019160010161018a565b50909695505050505050565b5f602082840312156101cb575f80fd5b503591905056fea264697066735822122075de39b56a556701ee6e9ce243f12fb88842156682516a11c6246c71005c311a64736f6c63430008190033","linkReferences":{}},"methodIdentifiers":{"_pluginConfig(address)":"590ceaaa","_plugins(uint256)":"b471b601","getAllPlugins()":"6b86400e"},"id":89}