{"abi":[{"type":"constructor","inputs":[{"name":"_pyth","type":"address","internalType":"address"},{"name":"_safeUpdateDelay","type":"uint256","internalType":"uint256"},{"name":"assets","type":"address[]","internalType":"address[]"},{"name":"sources","type":"bytes32[]","internalType":"bytes32[]"},{"name":"_fallbackOracle","type":"address","internalType":"address"},{"name":"baseCurrency","type":"address","internalType":"address"},{"name":"baseCurrencyUnit","type":"uint256","internalType":"uint256"},{"name":"_authority","type":"address","internalType":"address"}],"stateMutability":"nonpayable"},{"type":"receive","stateMutability":"payable"},{"type":"function","name":"BASE_CURRENCY","inputs":[],"outputs":[{"name":"","type":"address","internalType":"address"}],"stateMutability":"view"},{"type":"function","name":"BASE_CURRENCY_UNIT","inputs":[],"outputs":[{"name":"","type":"uint256","internalType":"uint256"}],"stateMutability":"view"},{"type":"function","name":"ORACLE_TYPE","inputs":[],"outputs":[{"name":"","type":"uint8","internalType":"enum AbstractOracle.ORACLE_TYPES"}],"stateMutability":"view"},{"type":"function","name":"authority","inputs":[],"outputs":[{"name":"","type":"address","internalType":"address"}],"stateMutability":"view"},{"type":"function","name":"fallbackOracle","inputs":[],"outputs":[{"name":"","type":"address","internalType":"contract AbstractOracle"}],"stateMutability":"view"},{"type":"function","name":"getAssetPrice","inputs":[{"name":"asset","type":"address","internalType":"address"}],"outputs":[{"name":"","type":"uint256","internalType":"uint256"}],"stateMutability":"view"},{"type":"function","name":"getAssetsPrices","inputs":[{"name":"assets","type":"address[]","internalType":"address[]"}],"outputs":[{"name":"","type":"uint256[]","internalType":"uint256[]"}],"stateMutability":"view"},{"type":"function","name":"getSourceOfAsset","inputs":[{"name":"asset","type":"address","internalType":"address"}],"outputs":[{"name":"","type":"bytes32","internalType":"bytes32"}],"stateMutability":"view"},{"type":"function","name":"isConsumingScheduledOp","inputs":[],"outputs":[{"name":"","type":"bytes4","internalType":"bytes4"}],"stateMutability":"view"},{"type":"function","name":"pyth","inputs":[],"outputs":[{"name":"","type":"address","internalType":"contract IPyth"}],"stateMutability":"view"},{"type":"function","name":"safeUpdateDelay","inputs":[],"outputs":[{"name":"","type":"uint256","internalType":"uint256"}],"stateMutability":"view"},{"type":"function","name":"setAssetSources","inputs":[{"name":"assets","type":"address[]","internalType":"address[]"},{"name":"sources","type":"bytes32[]","internalType":"bytes32[]"}],"outputs":[],"stateMutability":"nonpayable"},{"type":"function","name":"setAuthority","inputs":[{"name":"newAuthority","type":"address","internalType":"address"}],"outputs":[],"stateMutability":"nonpayable"},{"type":"function","name":"setFallbackOracle","inputs":[{"name":"_fallbackOracle","type":"address","internalType":"address"}],"outputs":[],"stateMutability":"nonpayable"},{"type":"event","name":"AssetSourceUpdated","inputs":[{"name":"asset","type":"address","indexed":false,"internalType":"address"},{"name":"source","type":"bytes32","indexed":false,"internalType":"bytes32"}],"anonymous":false},{"type":"event","name":"AuthorityUpdated","inputs":[{"name":"authority","type":"address","indexed":false,"internalType":"address"}],"anonymous":false},{"type":"event","name":"BaseCurrencySet","inputs":[{"name":"baseCurrency","type":"address","indexed":false,"internalType":"address"},{"name":"baseCurrencyUnit","type":"uint256","indexed":false,"internalType":"uint256"}],"anonymous":false},{"type":"event","name":"FallbackOracleUpdated","inputs":[{"name":"fallbackOracle","type":"address","indexed":false,"internalType":"address"}],"anonymous":false},{"type":"error","name":"AccessManagedInvalidAuthority","inputs":[{"name":"authority","type":"address","internalType":"address"}]},{"type":"error","name":"AccessManagedRequiredDelay","inputs":[{"name":"caller","type":"address","internalType":"address"},{"name":"delay","type":"uint32","internalType":"uint32"}]},{"type":"error","name":"AccessManagedUnauthorized","inputs":[{"name":"caller","type":"address","internalType":"address"}]}],"bytecode":{"object":"0x60e060405234801561000f575f80fd5b506040516114b33803806114b383398101604081905261002e916103c9565b6001838386848061003e81610101565b50846002811115610051576100516104da565b6080816002811115610065576100656104da565b9052506001600160a01b03841660a05260c083905261008382610155565b604080516001600160a01b0386168152602081018590527fe27c4c1372396a3d15a9922f74f9dfc7c72b1ad6d63868470787249c356454c1910160405180910390a15050600280546001600160a01b0319166001600160a01b038d1617905550505060048790556100f486866101a3565b5050505050505050610502565b5f80546001600160a01b0319166001600160a01b0383169081179091556040519081527f2f658b440c35314f52658ea8a740e05b284cdc84dc9ae01e891f21b8933e7cad906020015b60405180910390a150565b600180546001600160a01b0319166001600160a01b0383169081179091556040519081527fce7a780d33665b1ea097af5f155e3821b809ecbaa839d3b33aa83ba28168cefb9060200161014a565b80518251146101eb5760405162461bcd60e51b815260206004820152601060248201526f1253959053125117d05491d55351539560821b604482015260640160405180910390fd5b5f5b82518110156102d757818181518110610208576102086104ee565b602002602001015160035f858481518110610225576102256104ee565b60200260200101516001600160a01b03166001600160a01b031681526020019081526020015f20819055507fdcb94a871091cc58901744f251f3df654c2e3c2a5745ed991e2e2457255324b9838281518110610283576102836104ee565b602002602001015183838151811061029d5761029d6104ee565b60200260200101516040516102c79291906001600160a01b03929092168252602082015260400190565b60405180910390a16001016101ed565b505050565b80516001600160a01b03811681146102f2575f80fd5b919050565b634e487b7160e01b5f52604160045260245ffd5b604051601f8201601f191681016001600160401b0381118282101715610333576103336102f7565b604052919050565b5f6001600160401b03821115610353576103536102f7565b5060051b60200190565b5f82601f83011261036c575f80fd5b8151602061038161037c8361033b565b61030b565b8083825260208201915060208460051b8701019350868411156103a2575f80fd5b602086015b848110156103be57805183529183019183016103a7565b509695505050505050565b5f805f805f805f80610100898b0312156103e1575f80fd5b6103ea896102dc565b60208a81015160408c0151929a509850906001600160401b038082111561040f575f80fd5b818c0191508c601f830112610422575f80fd5b815161043061037c8261033b565b81815260059190911b8301840190848101908f83111561044e575f80fd5b938501935b8285101561047357610464856102dc565b82529385019390850190610453565b60608f0151909b50945050508083111561048b575f80fd5b50506104998b828c0161035d565b9550506104a860808a016102dc565b93506104b660a08a016102dc565b925060c089015191506104cb60e08a016102dc565b90509295985092959890939650565b634e487b7160e01b5f52602160045260245ffd5b634e487b7160e01b5f52603260045260245ffd5b60805160a05160c051610f7961053a5f395f81816101d701526105c301525f81816102f5015261059801525f6101190152610f795ff3fe6080604052600436106100dc575f3560e01c806392bf2be01161007c578063b3596f0711610057578063b3596f07146102a9578063bf7e214f146102c8578063e19f4700146102e4578063f98d06f014610317575f80fd5b806392bf2be014610234578063934275cb146102685780639d23d9f21461027d575f80fd5b8063629838e5116100b7578063629838e5146101705780637a9e5e4b146101a75780638c89b64f146101c65780638fb3603714610207575f80fd5b8063170aee73146100e75780632c5426f314610108578063574b5c3314610151575f80fd5b366100e357005b5f80fd5b3480156100f2575f80fd5b50610106610101366004610bbe565b610336565b005b348015610113575f80fd5b5061013b7f000000000000000000000000000000000000000000000000000000000000000081565b6040516101489190610be4565b60405180910390f35b34801561015c575f80fd5b5061010661016b366004610c52565b61034e565b34801561017b575f80fd5b5060015461018f906001600160a01b031681565b6040516001600160a01b039091168152602001610148565b3480156101b2575f80fd5b506101066101c1366004610bbe565b6103c8565b3480156101d1575f80fd5b506101f97f000000000000000000000000000000000000000000000000000000000000000081565b604051908152602001610148565b348015610212575f80fd5b5061021b610445565b6040516001600160e01b03199091168152602001610148565b34801561023f575f80fd5b506101f961024e366004610bbe565b6001600160a01b03165f9081526003602052604090205490565b348015610273575f80fd5b506101f960045481565b348015610288575f80fd5b5061029c610297366004610cb9565b610467565b6040516101489190610cf8565b3480156102b4575f80fd5b506101f96102c3366004610bbe565b610579565b3480156102d3575f80fd5b505f546001600160a01b031661018f565b3480156102ef575f80fd5b5061018f7f000000000000000000000000000000000000000000000000000000000000000081565b348015610322575f80fd5b5060025461018f906001600160a01b031681565b610342335b5f366107e9565b61034b816108df565b50565b6103573361033b565b6103c28484808060200260200160405190810160405280939291908181526020018383602002808284375f92019190915250506040805160208088028281018201909352878252909350879250869182918501908490808284375f9201919091525061093492505050565b50505050565b5f5433906001600160a01b031681146104035760405162d1953b60e31b81526001600160a01b03821660048201526024015b60405180910390fd5b816001600160a01b03163b5f03610438576040516361798f2f60e11b81526001600160a01b03831660048201526024016103fa565b61044182610a69565b5050565b5f8054600160a01b900460ff1661045b57505f90565b50638fb3603760e01b90565b60605f8267ffffffffffffffff81111561048357610483610d3b565b6040519080825280602002602001820160405280156104ac578160200160208202803683370190505b5090505f5b83811015610571573063b3596f078686848181106104d1576104d1610d4f565b90506020020160208101906104e69190610bbe565b6040516001600160e01b031960e084901b1681526001600160a01b039091166004820152602401602060405180830381865afa158015610528573d5f803e3d5ffd5b505050506040513d601f19601f8201168201806040525081019061054c9190610d63565b82828151811061055e5761055e610d4f565b60209081029190910101526001016104b1565b509392505050565b6001600160a01b038082165f81815260036020526040812054909290917f000000000000000000000000000000000000000000000000000000000000000090911690036105e857507f000000000000000000000000000000000000000000000000000000000000000092915050565b806106605760015460405163b3596f0760e01b81526001600160a01b0385811660048301529091169063b3596f0790602401602060405180830381865afa158015610635573d5f803e3d5ffd5b505050506040513d601f19601f820116820180604052508101906106599190610d63565b9392505050565b6002546004805460405163052571af60e51b815291820184905260248201525f916001600160a01b03169063a4ae35e090604401608060405180830381865afa1580156106af573d5f803e3d5ffd5b505050506040513d601f19601f820116820180604052508101906106d39190610da7565b80516040808301519051635aaa915960e11b815260079290920b600483015260030b6024820152600860448201529091505f9073__$65759db3abb9c68754ca4eab7e42deed6d$__9063b55522b290606401602060405180830381865af4158015610740573d5f803e3d5ffd5b505050506040513d601f19601f820116820180604052508101906107649190610d63565b9050801561077457949350505050565b60015460405163b3596f0760e01b81526001600160a01b0387811660048301529091169063b3596f0790602401602060405180830381865afa1580156107bc573d5f803e3d5ffd5b505050506040513d601f19601f820116820180604052508101906107e09190610d63565b95945050505050565b5f8061081c6107ff5f546001600160a01b031690565b863061080e60045f898b610e32565b61081791610e59565b610ab6565b91509150816108d85763ffffffff8116156108b5575f805460ff60a01b198116600160a01b17909155604051634a63ebf760e11b81526001600160a01b03909116906394c7d7ee9061087690889088908890600401610e89565b5f604051808303815f87803b15801561088d575f80fd5b505af115801561089f573d5f803e3d5ffd5b50505f805460ff60a01b19169055506108d89050565b60405162d1953b60e31b81526001600160a01b03861660048201526024016103fa565b5050505050565b600180546001600160a01b0319166001600160a01b0383169081179091556040519081527fce7a780d33665b1ea097af5f155e3821b809ecbaa839d3b33aa83ba28168cefb906020015b60405180910390a150565b80518251146109785760405162461bcd60e51b815260206004820152601060248201526f1253959053125117d05491d55351539560821b60448201526064016103fa565b5f5b8251811015610a645781818151811061099557610995610d4f565b602002602001015160035f8584815181106109b2576109b2610d4f565b60200260200101516001600160a01b03166001600160a01b031681526020019081526020015f20819055507fdcb94a871091cc58901744f251f3df654c2e3c2a5745ed991e2e2457255324b9838281518110610a1057610a10610d4f565b6020026020010151838381518110610a2a57610a2a610d4f565b6020026020010151604051610a549291906001600160a01b03929092168252602082015260400190565b60405180910390a160010161097a565b505050565b5f80546001600160a01b0319166001600160a01b0383169081179091556040519081527f2f658b440c35314f52658ea8a740e05b284cdc84dc9ae01e891f21b8933e7cad90602001610929565b6040516001600160a01b03848116602483015283811660448301526001600160e01b0319831660648301525f9182918291829189169060840160408051601f198184030181529181526020820180516001600160e01b031663b700961360e01b17905251610b249190610ec8565b5f60405180830381855afa9150503d805f8114610b5c576040519150601f19603f3d011682016040523d82523d5f602084013e610b61565b606091505b50915091508115610bb3576040815110610b935780806020019051810190610b899190610eed565b9094509250610bb3565b6020815110610bb35780806020019051810190610bb09190610f2a565b93505b505094509492505050565b5f60208284031215610bce575f80fd5b81356001600160a01b0381168114610659575f80fd5b6020810160038310610c0457634e487b7160e01b5f52602160045260245ffd5b91905290565b5f8083601f840112610c1a575f80fd5b50813567ffffffffffffffff811115610c31575f80fd5b6020830191508360208260051b8501011115610c4b575f80fd5b9250929050565b5f805f8060408587031215610c65575f80fd5b843567ffffffffffffffff80821115610c7c575f80fd5b610c8888838901610c0a565b90965094506020870135915080821115610ca0575f80fd5b50610cad87828801610c0a565b95989497509550505050565b5f8060208385031215610cca575f80fd5b823567ffffffffffffffff811115610ce0575f80fd5b610cec85828601610c0a565b90969095509350505050565b602080825282518282018190525f9190848201906040850190845b81811015610d2f57835183529284019291840191600101610d13565b50909695505050505050565b634e487b7160e01b5f52604160045260245ffd5b634e487b7160e01b5f52603260045260245ffd5b5f60208284031215610d73575f80fd5b5051919050565b805167ffffffffffffffff81168114610d91575f80fd5b919050565b8051600381900b8114610d91575f80fd5b5f60808284031215610db7575f80fd5b6040516080810181811067ffffffffffffffff82111715610de657634e487b7160e01b5f52604160045260245ffd5b6040528251600781900b8114610dfa575f80fd5b8152610e0860208401610d7a565b6020820152610e1960408401610d96565b6040820152606083015160608201528091505092915050565b5f8085851115610e40575f80fd5b83861115610e4c575f80fd5b5050820193919092039150565b6001600160e01b03198135818116916004851015610e815780818660040360031b1b83161692505b505092915050565b6001600160a01b03841681526040602082018190528101829052818360608301375f818301606090810191909152601f909201601f1916010192915050565b5f82518060208501845e5f920191825250919050565b80518015158114610d91575f80fd5b5f8060408385031215610efe575f80fd5b610f0783610ede565b9150602083015163ffffffff81168114610f1f575f80fd5b809150509250929050565b5f60208284031215610f3a575f80fd5b61065982610ede56fea26469706673582212202783a1c17264c4bd71c2dbe7f9129408760785c97208a2ec7bcc6914704c320164736f6c63430008190033","linkReferences":{"node_modules/@pythnetwork/pyth-sdk-solidity/PythUtils.sol":{"PythUtils":[{"start":3138,"length":20}]}}},"methodIdentifiers":{"BASE_CURRENCY()":"e19f4700","BASE_CURRENCY_UNIT()":"8c89b64f","ORACLE_TYPE()":"2c5426f3","authority()":"bf7e214f","fallbackOracle()":"629838e5","getAssetPrice(address)":"b3596f07","getAssetsPrices(address[])":"9d23d9f2","getSourceOfAsset(address)":"92bf2be0","isConsumingScheduledOp()":"8fb36037","pyth()":"f98d06f0","safeUpdateDelay()":"934275cb","setAssetSources(address[],bytes32[])":"574b5c33","setAuthority(address)":"7a9e5e4b","setFallbackOracle(address)":"170aee73"},"id":87}