{"abi":[{"type":"constructor","inputs":[{"name":"_pyth","type":"address","internalType":"address"},{"name":"_safeUpdateDelay","type":"uint256","internalType":"uint256"},{"name":"assets","type":"address[]","internalType":"address[]"},{"name":"sources","type":"bytes32[]","internalType":"bytes32[]"},{"name":"_fallbackOracle","type":"address","internalType":"address"},{"name":"baseCurrency","type":"address","internalType":"address"},{"name":"baseCurrencyUnit","type":"uint256","internalType":"uint256"},{"name":"_authority","type":"address","internalType":"address"}],"stateMutability":"payable"},{"type":"receive","stateMutability":"payable"},{"type":"function","name":"BASE_CURRENCY","inputs":[],"outputs":[{"name":"","type":"address","internalType":"address"}],"stateMutability":"view"},{"type":"function","name":"BASE_CURRENCY_UNIT","inputs":[],"outputs":[{"name":"","type":"uint256","internalType":"uint256"}],"stateMutability":"view"},{"type":"function","name":"ORACLE_TYPE","inputs":[],"outputs":[{"name":"","type":"uint8","internalType":"enum Oracle.ORACLE_TYPES"}],"stateMutability":"view"},{"type":"function","name":"authority","inputs":[],"outputs":[{"name":"","type":"address","internalType":"address"}],"stateMutability":"view"},{"type":"function","name":"fallbackOracle","inputs":[],"outputs":[{"name":"","type":"address","internalType":"contract Oracle"}],"stateMutability":"view"},{"type":"function","name":"getAssetPrice","inputs":[{"name":"asset","type":"address","internalType":"address"}],"outputs":[{"name":"","type":"uint256","internalType":"uint256"}],"stateMutability":"view"},{"type":"function","name":"getAssetsPrices","inputs":[{"name":"assets","type":"address[]","internalType":"address[]"}],"outputs":[{"name":"","type":"uint256[]","internalType":"uint256[]"}],"stateMutability":"view"},{"type":"function","name":"getSourceOfAsset","inputs":[{"name":"asset","type":"address","internalType":"address"}],"outputs":[{"name":"","type":"bytes32","internalType":"bytes32"}],"stateMutability":"view"},{"type":"function","name":"isConsumingScheduledOp","inputs":[],"outputs":[{"name":"","type":"bytes4","internalType":"bytes4"}],"stateMutability":"view"},{"type":"function","name":"pyth","inputs":[],"outputs":[{"name":"","type":"address","internalType":"contract IPyth"}],"stateMutability":"view"},{"type":"function","name":"safeUpdateDelay","inputs":[],"outputs":[{"name":"","type":"uint256","internalType":"uint256"}],"stateMutability":"view"},{"type":"function","name":"setAssetSources","inputs":[{"name":"assets","type":"address[]","internalType":"address[]"},{"name":"sources","type":"bytes32[]","internalType":"bytes32[]"}],"outputs":[],"stateMutability":"nonpayable"},{"type":"function","name":"setAuthority","inputs":[{"name":"newAuthority","type":"address","internalType":"address"}],"outputs":[],"stateMutability":"nonpayable"},{"type":"function","name":"setFallbackOracle","inputs":[{"name":"_fallbackOracle","type":"address","internalType":"address"}],"outputs":[],"stateMutability":"nonpayable"},{"type":"event","name":"AssetSourceUpdated","inputs":[{"name":"asset","type":"address","indexed":false,"internalType":"address"},{"name":"source","type":"bytes32","indexed":false,"internalType":"bytes32"}],"anonymous":false},{"type":"event","name":"AuthorityUpdated","inputs":[{"name":"authority","type":"address","indexed":false,"internalType":"address"}],"anonymous":false},{"type":"event","name":"BaseCurrencySet","inputs":[{"name":"baseCurrency","type":"address","indexed":false,"internalType":"address"},{"name":"baseCurrencyUnit","type":"uint256","indexed":false,"internalType":"uint256"}],"anonymous":false},{"type":"event","name":"FallbackOracleUpdated","inputs":[{"name":"fallbackOracle","type":"address","indexed":false,"internalType":"address"}],"anonymous":false},{"type":"error","name":"AccessManagedInvalidAuthority","inputs":[{"name":"authority","type":"address","internalType":"address"}]},{"type":"error","name":"AccessManagedRequiredDelay","inputs":[{"name":"caller","type":"address","internalType":"address"},{"name":"delay","type":"uint32","internalType":"uint32"}]},{"type":"error","name":"AccessManagedUnauthorized","inputs":[{"name":"caller","type":"address","internalType":"address"}]}],"bytecode":{"object":"0x60e060405260405162001584380380620015848339810160408190526200002691620003f9565b60018383868480620000388162000106565b508460028111156200004e576200004e62000529565b608081600281111562000065576200006562000529565b9052506001600160a01b03841660a05260c083905262000085826200015b565b604080516001600160a01b0386168152602081018590527fe27c4c1372396a3d15a9922f74f9dfc7c72b1ad6d63868470787249c356454c1910160405180910390a15050600280546001600160a01b0319166001600160a01b038d161790555050506004879055620000f88686620001aa565b505050505050505062000555565b600080546001600160a01b0319166001600160a01b0383169081179091556040519081527f2f658b440c35314f52658ea8a740e05b284cdc84dc9ae01e891f21b8933e7cad906020015b60405180910390a150565b600180546001600160a01b0319166001600160a01b0383169081179091556040519081527fce7a780d33665b1ea097af5f155e3821b809ecbaa839d3b33aa83ba28168cefb9060200162000150565b8051825114620001f35760405162461bcd60e51b815260206004820152601060248201526f1253959053125117d05491d55351539560821b604482015260640160405180910390fd5b60005b8251811015620002f1578181815181106200021557620002156200053f565b6020026020010151600360008584815181106200023657620002366200053f565b60200260200101516001600160a01b03166001600160a01b03168152602001908152602001600020819055507fdcb94a871091cc58901744f251f3df654c2e3c2a5745ed991e2e2457255324b98382815181106200029857620002986200053f565b6020026020010151838381518110620002b557620002b56200053f565b6020026020010151604051620002e09291906001600160a01b03929092168252602082015260400190565b60405180910390a1600101620001f6565b505050565b80516001600160a01b03811681146200030e57600080fd5b919050565b634e487b7160e01b600052604160045260246000fd5b604051601f8201601f191681016001600160401b038111828210171562000354576200035462000313565b604052919050565b60006001600160401b0382111562000378576200037862000313565b5060051b60200190565b600082601f8301126200039457600080fd5b81516020620003ad620003a7836200035c565b62000329565b8083825260208201915060208460051b870101935086841115620003d057600080fd5b602086015b84811015620003ee5780518352918301918301620003d5565b509695505050505050565b600080600080600080600080610100898b0312156200041757600080fd5b6200042289620002f6565b60208a81015160408c0151929a509850906001600160401b03808211156200044957600080fd5b818c0191508c601f8301126200045e57600080fd5b81516200046f620003a7826200035c565b81815260059190911b8301840190848101908f8311156200048f57600080fd5b938501935b82851015620004b857620004a885620002f6565b8252938501939085019062000494565b60608f0151909b509450505080831115620004d257600080fd5b5050620004e28b828c0162000382565b955050620004f360808a01620002f6565b93506200050360a08a01620002f6565b925060c089015191506200051a60e08a01620002f6565b90509295985092959890939650565b634e487b7160e01b600052602160045260246000fd5b634e487b7160e01b600052603260045260246000fd5b60805160a05160c051610ff162000593600039600081816101e301526105e501526000818161030a01526105ba015260006101210152610ff16000f3fe6080604052600436106100e15760003560e01c806392bf2be01161007f578063b3596f0711610059578063b3596f07146102ba578063bf7e214f146102da578063e19f4700146102f8578063f98d06f01461032c57600080fd5b806392bf2be014610241578063934275cb146102775780639d23d9f21461028d57600080fd5b8063629838e5116100bb578063629838e5146101795780637a9e5e4b146101b15780638c89b64f146101d15780638fb360371461021357600080fd5b8063170aee73146100ed5780632c5426f31461010f578063574b5c331461015957600080fd5b366100e857005b600080fd5b3480156100f957600080fd5b5061010d610108366004610bf4565b61034c565b005b34801561011b57600080fd5b506101437f000000000000000000000000000000000000000000000000000000000000000081565b6040516101509190610c1d565b60405180910390f35b34801561016557600080fd5b5061010d610174366004610c91565b610365565b34801561018557600080fd5b50600154610199906001600160a01b031681565b6040516001600160a01b039091168152602001610150565b3480156101bd57600080fd5b5061010d6101cc366004610bf4565b6103e1565b3480156101dd57600080fd5b506102057f000000000000000000000000000000000000000000000000000000000000000081565b604051908152602001610150565b34801561021f57600080fd5b50610228610460565b6040516001600160e01b03199091168152602001610150565b34801561024d57600080fd5b5061020561025c366004610bf4565b6001600160a01b031660009081526003602052604090205490565b34801561028357600080fd5b5061020560045481565b34801561029957600080fd5b506102ad6102a8366004610cfd565b610484565b6040516101509190610d3f565b3480156102c657600080fd5b506102056102d5366004610bf4565b61059a565b3480156102e657600080fd5b506000546001600160a01b0316610199565b34801561030457600080fd5b506101997f000000000000000000000000000000000000000000000000000000000000000081565b34801561033857600080fd5b50600254610199906001600160a01b031681565b610359335b60003661080d565b6103628161090d565b50565b61036e33610351565b6103db8484808060200260200160405190810160405280939291908181526020018383602002808284376000920191909152505060408051602080880282810182019093528782529093508792508691829185019084908082843760009201919091525061096292505050565b50505050565b60005433906001600160a01b0316811461041d5760405162d1953b60e31b81526001600160a01b03821660048201526024015b60405180910390fd5b816001600160a01b03163b600003610453576040516361798f2f60e11b81526001600160a01b0383166004820152602401610414565b61045c82610a9a565b5050565b60008054600160a01b900460ff166104785750600090565b50638fb3603760e01b90565b606060008267ffffffffffffffff8111156104a1576104a1610d83565b6040519080825280602002602001820160405280156104ca578160200160208202803683370190505b50905060005b83811015610592573063b3596f078686848181106104f0576104f0610d99565b90506020020160208101906105059190610bf4565b6040516001600160e01b031960e084901b1681526001600160a01b039091166004820152602401602060405180830381865afa158015610549573d6000803e3d6000fd5b505050506040513d601f19601f8201168201806040525081019061056d9190610daf565b82828151811061057f5761057f610d99565b60209081029190910101526001016104d0565b509392505050565b6001600160a01b03808216600081815260036020526040812054909290917f0000000000000000000000000000000000000000000000000000000000000000909116900361060a57507f000000000000000000000000000000000000000000000000000000000000000092915050565b806106845760015460405163b3596f0760e01b81526001600160a01b0385811660048301529091169063b3596f0790602401602060405180830381865afa158015610659573d6000803e3d6000fd5b505050506040513d601f19601f8201168201806040525081019061067d9190610daf565b9392505050565b6002546040516396834ad360e01b8152600481018390526000916001600160a01b0316906396834ad390602401608060405180830381865afa1580156106ce573d6000803e3d6000fd5b505050506040513d601f19601f820116820180604052508101906106f29190610df7565b80516040808301519051635aaa915960e11b815260079290920b600483015260030b60248201526008604482015290915060009073__$65759db3abb9c68754ca4eab7e42deed6d$__9063b55522b290606401602060405180830381865af4158015610762573d6000803e3d6000fd5b505050506040513d601f19601f820116820180604052508101906107869190610daf565b9050801561079657949350505050565b60015460405163b3596f0760e01b81526001600160a01b0387811660048301529091169063b3596f0790602401602060405180830381865afa1580156107e0573d6000803e3d6000fd5b505050506040513d601f19601f820116820180604052508101906108049190610daf565b95945050505050565b6000806108436108256000546001600160a01b031690565b863061083560046000898b610e87565b61083e91610eb1565b610ae8565b91509150816109065763ffffffff8116156108e3576000805460ff60a01b198116600160a01b17909155604051634a63ebf760e11b81526001600160a01b03909116906394c7d7ee9061089e90889088908890600401610ee1565b600060405180830381600087803b1580156108b857600080fd5b505af11580156108cc573d6000803e3d6000fd5b50506000805460ff60a01b19169055506109069050565b60405162d1953b60e31b81526001600160a01b0386166004820152602401610414565b5050505050565b600180546001600160a01b0319166001600160a01b0383169081179091556040519081527fce7a780d33665b1ea097af5f155e3821b809ecbaa839d3b33aa83ba28168cefb906020015b60405180910390a150565b80518251146109a65760405162461bcd60e51b815260206004820152601060248201526f1253959053125117d05491d55351539560821b6044820152606401610414565b60005b8251811015610a95578181815181106109c4576109c4610d99565b6020026020010151600360008584815181106109e2576109e2610d99565b60200260200101516001600160a01b03166001600160a01b03168152602001908152602001600020819055507fdcb94a871091cc58901744f251f3df654c2e3c2a5745ed991e2e2457255324b9838281518110610a4157610a41610d99565b6020026020010151838381518110610a5b57610a5b610d99565b6020026020010151604051610a859291906001600160a01b03929092168252602082015260400190565b60405180910390a16001016109a9565b505050565b600080546001600160a01b0319166001600160a01b0383169081179091556040519081527f2f658b440c35314f52658ea8a740e05b284cdc84dc9ae01e891f21b8933e7cad90602001610957565b6040516001600160a01b03848116602483015283811660448301526001600160e01b03198316606483015260009182918291829189169060840160408051601f198184030181529181526020820180516001600160e01b031663b700961360e01b17905251610b579190610f21565b600060405180830381855afa9150503d8060008114610b92576040519150601f19603f3d011682016040523d82523d6000602084013e610b97565b606091505b50915091508115610be9576040815110610bc95780806020019051810190610bbf9190610f60565b9094509250610be9565b6020815110610be95780806020019051810190610be69190610fa0565b93505b505094509492505050565b600060208284031215610c0657600080fd5b81356001600160a01b038116811461067d57600080fd5b6020810160038310610c3f57634e487b7160e01b600052602160045260246000fd5b91905290565b60008083601f840112610c5757600080fd5b50813567ffffffffffffffff811115610c6f57600080fd5b6020830191508360208260051b8501011115610c8a57600080fd5b9250929050565b60008060008060408587031215610ca757600080fd5b843567ffffffffffffffff80821115610cbf57600080fd5b610ccb88838901610c45565b90965094506020870135915080821115610ce457600080fd5b50610cf187828801610c45565b95989497509550505050565b60008060208385031215610d1057600080fd5b823567ffffffffffffffff811115610d2757600080fd5b610d3385828601610c45565b90969095509350505050565b6020808252825182820181905260009190848201906040850190845b81811015610d7757835183529284019291840191600101610d5b565b50909695505050505050565b634e487b7160e01b600052604160045260246000fd5b634e487b7160e01b600052603260045260246000fd5b600060208284031215610dc157600080fd5b5051919050565b805167ffffffffffffffff81168114610de057600080fd5b919050565b8051600381900b8114610de057600080fd5b600060808284031215610e0957600080fd5b6040516080810181811067ffffffffffffffff82111715610e3a57634e487b7160e01b600052604160045260246000fd5b6040528251600781900b8114610e4f57600080fd5b8152610e5d60208401610dc8565b6020820152610e6e60408401610de5565b6040820152606083015160608201528091505092915050565b60008085851115610e9757600080fd5b83861115610ea457600080fd5b5050820193919092039150565b6001600160e01b03198135818116916004851015610ed95780818660040360031b1b83161692505b505092915050565b6001600160a01b03841681526040602082018190528101829052818360608301376000818301606090810191909152601f909201601f1916010192915050565b6000825160005b81811015610f425760208186018101518583015201610f28565b506000920191825250919050565b80518015158114610de057600080fd5b60008060408385031215610f7357600080fd5b610f7c83610f50565b9150602083015163ffffffff81168114610f9557600080fd5b809150509250929050565b600060208284031215610fb257600080fd5b61067d82610f5056fea2646970667358221220e1acb1886bbe74b1f26c0929e18b944e71af310c085b0ddecc4a4dfdabbba31f64736f6c63430008170033","linkReferences":{"node_modules/@pythnetwork/pyth-sdk-solidity/PythUtils.sol":{"PythUtils":[{"start":3259,"length":20}]}}},"methodIdentifiers":{"BASE_CURRENCY()":"e19f4700","BASE_CURRENCY_UNIT()":"8c89b64f","ORACLE_TYPE()":"2c5426f3","authority()":"bf7e214f","fallbackOracle()":"629838e5","getAssetPrice(address)":"b3596f07","getAssetsPrices(address[])":"9d23d9f2","getSourceOfAsset(address)":"92bf2be0","isConsumingScheduledOp()":"8fb36037","pyth()":"f98d06f0","safeUpdateDelay()":"934275cb","setAssetSources(address[],bytes32[])":"574b5c33","setAuthority(address)":"7a9e5e4b","setFallbackOracle(address)":"170aee73"},"id":55}