{"abi":[{"type":"constructor","inputs":[{"name":"_pool","type":"address","internalType":"address"},{"name":"_router","type":"address","internalType":"address"}],"stateMutability":"nonpayable"},{"type":"receive","stateMutability":"payable"},{"type":"function","name":"getAllData","inputs":[{"name":"user","type":"address","internalType":"address"}],"outputs":[{"name":"","type":"tuple","internalType":"struct UIDataProvider.UIData","components":[{"name":"reserveData","type":"tuple","internalType":"struct UIDataProvider.ReserveData","components":[{"name":"totalAssetsUSD","type":"uint256","internalType":"uint256"},{"name":"userTotalBalanceUSD","type":"uint256","internalType":"uint256"},{"name":"userAdjustedBalanceUSD","type":"uint256","internalType":"uint256"},{"name":"userThresholdBalanceUSD","type":"uint256","internalType":"uint256"},{"name":"vaults","type":"tuple[]","internalType":"struct UIDataProvider.VaultData[]","components":[{"name":"asset","type":"tuple","internalType":"struct UIDataProvider.AssetData","components":[{"name":"id","type":"address","internalType":"address"},{"name":"name","type":"string","internalType":"string"},{"name":"symbol","type":"string","internalType":"string"},{"name":"decimals","type":"uint8","internalType":"uint8"},{"name":"totalSupply","type":"uint256","internalType":"uint256"},{"name":"pythId","type":"bytes32","internalType":"bytes32"},{"name":"price","type":"uint256","internalType":"uint256"},{"name":"balance","type":"uint256","internalType":"uint256"},{"name":"approvalToRouter","type":"uint256","internalType":"uint256"}]},{"name":"vaultToken","type":"tuple","internalType":"struct UIDataProvider.AssetData","components":[{"name":"id","type":"address","internalType":"address"},{"name":"name","type":"string","internalType":"string"},{"name":"symbol","type":"string","internalType":"string"},{"name":"decimals","type":"uint8","internalType":"uint8"},{"name":"totalSupply","type":"uint256","internalType":"uint256"},{"name":"pythId","type":"bytes32","internalType":"bytes32"},{"name":"price","type":"uint256","internalType":"uint256"},{"name":"balance","type":"uint256","internalType":"uint256"},{"name":"approvalToRouter","type":"uint256","internalType":"uint256"}]},{"name":"totalAssets","type":"uint256","internalType":"uint256"},{"name":"userBalance","type":"uint256","internalType":"uint256"},{"name":"config","type":"tuple","internalType":"struct Reserve.Collateral","components":[{"name":"vault","type":"address","internalType":"address"},{"name":"baseLTV","type":"uint256","internalType":"uint256"},{"name":"liquidationThreshold","type":"uint256","internalType":"uint256"},{"name":"liquidationBonus","type":"uint256","internalType":"uint256"},{"name":"liquidationFee","type":"uint256","internalType":"uint256"},{"name":"maxDeposits","type":"uint256","internalType":"uint256"},{"name":"active","type":"bool","internalType":"bool"}]}]}]},{"name":"liquidityData","type":"tuple","internalType":"struct UIDataProvider.LiquidityData","components":[{"name":"totalDebtUSD","type":"uint256","internalType":"uint256"},{"name":"userTotalDebtUSD","type":"uint256","internalType":"uint256"},{"name":"lpToken","type":"tuple","internalType":"struct UIDataProvider.AssetData","components":[{"name":"id","type":"address","internalType":"address"},{"name":"name","type":"string","internalType":"string"},{"name":"symbol","type":"string","internalType":"string"},{"name":"decimals","type":"uint8","internalType":"uint8"},{"name":"totalSupply","type":"uint256","internalType":"uint256"},{"name":"pythId","type":"bytes32","internalType":"bytes32"},{"name":"price","type":"uint256","internalType":"uint256"},{"name":"balance","type":"uint256","internalType":"uint256"},{"name":"approvalToRouter","type":"uint256","internalType":"uint256"}]},{"name":"debtToken","type":"tuple","internalType":"struct UIDataProvider.AssetData","components":[{"name":"id","type":"address","internalType":"address"},{"name":"name","type":"string","internalType":"string"},{"name":"symbol","type":"string","internalType":"string"},{"name":"decimals","type":"uint8","internalType":"uint8"},{"name":"totalSupply","type":"uint256","internalType":"uint256"},{"name":"pythId","type":"bytes32","internalType":"bytes32"},{"name":"price","type":"uint256","internalType":"uint256"},{"name":"balance","type":"uint256","internalType":"uint256"},{"name":"approvalToRouter","type":"uint256","internalType":"uint256"}]},{"name":"synths","type":"tuple[]","internalType":"struct UIDataProvider.AssetData[]","components":[{"name":"id","type":"address","internalType":"address"},{"name":"name","type":"string","internalType":"string"},{"name":"symbol","type":"string","internalType":"string"},{"name":"decimals","type":"uint8","internalType":"uint8"},{"name":"totalSupply","type":"uint256","internalType":"uint256"},{"name":"pythId","type":"bytes32","internalType":"bytes32"},{"name":"price","type":"uint256","internalType":"uint256"},{"name":"balance","type":"uint256","internalType":"uint256"},{"name":"approvalToRouter","type":"uint256","internalType":"uint256"}]}]},{"name":"healthFactor","type":"uint256","internalType":"uint256"},{"name":"availableToMintUSD","type":"uint256","internalType":"uint256"}]}],"stateMutability":"view"},{"type":"function","name":"getLiquidityData","inputs":[{"name":"user","type":"address","internalType":"address"}],"outputs":[{"name":"","type":"tuple","internalType":"struct UIDataProvider.LiquidityData","components":[{"name":"totalDebtUSD","type":"uint256","internalType":"uint256"},{"name":"userTotalDebtUSD","type":"uint256","internalType":"uint256"},{"name":"lpToken","type":"tuple","internalType":"struct UIDataProvider.AssetData","components":[{"name":"id","type":"address","internalType":"address"},{"name":"name","type":"string","internalType":"string"},{"name":"symbol","type":"string","internalType":"string"},{"name":"decimals","type":"uint8","internalType":"uint8"},{"name":"totalSupply","type":"uint256","internalType":"uint256"},{"name":"pythId","type":"bytes32","internalType":"bytes32"},{"name":"price","type":"uint256","internalType":"uint256"},{"name":"balance","type":"uint256","internalType":"uint256"},{"name":"approvalToRouter","type":"uint256","internalType":"uint256"}]},{"name":"debtToken","type":"tuple","internalType":"struct UIDataProvider.AssetData","components":[{"name":"id","type":"address","internalType":"address"},{"name":"name","type":"string","internalType":"string"},{"name":"symbol","type":"string","internalType":"string"},{"name":"decimals","type":"uint8","internalType":"uint8"},{"name":"totalSupply","type":"uint256","internalType":"uint256"},{"name":"pythId","type":"bytes32","internalType":"bytes32"},{"name":"price","type":"uint256","internalType":"uint256"},{"name":"balance","type":"uint256","internalType":"uint256"},{"name":"approvalToRouter","type":"uint256","internalType":"uint256"}]},{"name":"synths","type":"tuple[]","internalType":"struct UIDataProvider.AssetData[]","components":[{"name":"id","type":"address","internalType":"address"},{"name":"name","type":"string","internalType":"string"},{"name":"symbol","type":"string","internalType":"string"},{"name":"decimals","type":"uint8","internalType":"uint8"},{"name":"totalSupply","type":"uint256","internalType":"uint256"},{"name":"pythId","type":"bytes32","internalType":"bytes32"},{"name":"price","type":"uint256","internalType":"uint256"},{"name":"balance","type":"uint256","internalType":"uint256"},{"name":"approvalToRouter","type":"uint256","internalType":"uint256"}]}]}],"stateMutability":"view"},{"type":"function","name":"getReserveData","inputs":[{"name":"user","type":"address","internalType":"address"}],"outputs":[{"name":"","type":"tuple","internalType":"struct UIDataProvider.ReserveData","components":[{"name":"totalAssetsUSD","type":"uint256","internalType":"uint256"},{"name":"userTotalBalanceUSD","type":"uint256","internalType":"uint256"},{"name":"userAdjustedBalanceUSD","type":"uint256","internalType":"uint256"},{"name":"userThresholdBalanceUSD","type":"uint256","internalType":"uint256"},{"name":"vaults","type":"tuple[]","internalType":"struct UIDataProvider.VaultData[]","components":[{"name":"asset","type":"tuple","internalType":"struct UIDataProvider.AssetData","components":[{"name":"id","type":"address","internalType":"address"},{"name":"name","type":"string","internalType":"string"},{"name":"symbol","type":"string","internalType":"string"},{"name":"decimals","type":"uint8","internalType":"uint8"},{"name":"totalSupply","type":"uint256","internalType":"uint256"},{"name":"pythId","type":"bytes32","internalType":"bytes32"},{"name":"price","type":"uint256","internalType":"uint256"},{"name":"balance","type":"uint256","internalType":"uint256"},{"name":"approvalToRouter","type":"uint256","internalType":"uint256"}]},{"name":"vaultToken","type":"tuple","internalType":"struct UIDataProvider.AssetData","components":[{"name":"id","type":"address","internalType":"address"},{"name":"name","type":"string","internalType":"string"},{"name":"symbol","type":"string","internalType":"string"},{"name":"decimals","type":"uint8","internalType":"uint8"},{"name":"totalSupply","type":"uint256","internalType":"uint256"},{"name":"pythId","type":"bytes32","internalType":"bytes32"},{"name":"price","type":"uint256","internalType":"uint256"},{"name":"balance","type":"uint256","internalType":"uint256"},{"name":"approvalToRouter","type":"uint256","internalType":"uint256"}]},{"name":"totalAssets","type":"uint256","internalType":"uint256"},{"name":"userBalance","type":"uint256","internalType":"uint256"},{"name":"config","type":"tuple","internalType":"struct Reserve.Collateral","components":[{"name":"vault","type":"address","internalType":"address"},{"name":"baseLTV","type":"uint256","internalType":"uint256"},{"name":"liquidationThreshold","type":"uint256","internalType":"uint256"},{"name":"liquidationBonus","type":"uint256","internalType":"uint256"},{"name":"liquidationFee","type":"uint256","internalType":"uint256"},{"name":"maxDeposits","type":"uint256","internalType":"uint256"},{"name":"active","type":"bool","internalType":"bool"}]}]}]}],"stateMutability":"view"},{"type":"function","name":"liquidity","inputs":[],"outputs":[{"name":"","type":"address","internalType":"contract Liquidity"}],"stateMutability":"view"},{"type":"function","name":"multicall","inputs":[{"name":"data","type":"bytes[]","internalType":"bytes[]"}],"outputs":[{"name":"results","type":"bytes[]","internalType":"bytes[]"}],"stateMutability":"nonpayable"},{"type":"function","name":"pool","inputs":[],"outputs":[{"name":"","type":"address","internalType":"contract RxPool"}],"stateMutability":"view"},{"type":"function","name":"pyth","inputs":[],"outputs":[{"name":"","type":"address","internalType":"contract IPyth"}],"stateMutability":"view"},{"type":"function","name":"reserve","inputs":[],"outputs":[{"name":"","type":"address","internalType":"contract Reserve"}],"stateMutability":"view"},{"type":"function","name":"router","inputs":[],"outputs":[{"name":"","type":"address","internalType":"address"}],"stateMutability":"view"},{"type":"function","name":"synthPlugin","inputs":[],"outputs":[{"name":"","type":"address","internalType":"contract SynthPlugin"}],"stateMutability":"view"},{"type":"function","name":"updatePythData","inputs":[{"name":"updateData","type":"bytes[]","internalType":"bytes[]"}],"outputs":[],"stateMutability":"nonpayable"},{"type":"error","name":"AddressEmptyCode","inputs":[{"name":"target","type":"address","internalType":"address"}]},{"type":"error","name":"FailedInnerCall","inputs":[]}],"bytecode":{"object":"0x6101406040523480156200001257600080fd5b5060405162003f0738038062003f07833981016040819052620000359162000242565b6001600160a01b038216608081905260408051630d34328160e11b81529051631a686502916004808201926020929091908290030181865afa15801562000080573d6000803e3d6000fd5b505050506040513d601f19601f82011682018060405250810190620000a6919062000281565b6001600160a01b031660a0816001600160a01b0316815250506080516001600160a01b031663cd3293de6040518163ffffffff1660e01b8152600401602060405180830381865afa15801562000100573d6000803e3d6000fd5b505050506040513d601f19601f8201168201806040525081019062000126919062000281565b6001600160a01b0390811660c05260a05160405163f0a317eb60e01b81526000600482015291169063f0a317eb90602401602060405180830381865afa15801562000175573d6000803e3d6000fd5b505050506040513d601f19601f820116820180604052508101906200019b919062000281565b6001600160a01b0390811660e052811661012081905260408051630f98d06f60e41b8152905163f98d06f0916004808201926020929091908290030181865afa158015620001ed573d6000803e3d6000fd5b505050506040513d601f19601f8201168201806040525081019062000213919062000281565b6001600160a01b03166101005250620002a89050565b6001600160a01b03811681146200023f57600080fd5b50565b600080604083850312156200025657600080fd5b8251620002638162000229565b6020840151909250620002768162000229565b809150509250929050565b6000602082840312156200029457600080fd5b8151620002a18162000229565b9392505050565b60805160a05160c05160e0516101005161012051613b4c620003bb6000396000818161028101528181610a2201528181610dc60152818161125201528181611ce40152818161234e01526127a60152600081816102b501528181612d730152612def01526000818161019d01526123d201526000818161024d0152818161036b01528181610494015261050e01526000818161010f01528181611525015281816116770152818161170701528181611797015281816118830152818161196f01528181611a5a01528181611b5201528181611c4501528181611d7201528181611e0201528181611eee01528181611fda015281816120c5015281816121bd01526122b00152600060be0152613b4c6000f3fe6080604052600436106100a05760003560e01c80638bc52f5c116100645780638bc52f5c146101bf578063ac9650d8146101ec578063bcfb99fa14610219578063cd3293de1461023b578063f887ea401461026f578063f98d06f0146102a357600080fd5b806316f0115b146100ac5780631a686502146100fd57806335ea6a751461013157806367e737f71461015e578063813b4a421461018b57600080fd5b366100a757005b600080fd5b3480156100b857600080fd5b506100e07f000000000000000000000000000000000000000000000000000000000000000081565b6040516001600160a01b0390911681526020015b60405180910390f35b34801561010957600080fd5b506100e07f000000000000000000000000000000000000000000000000000000000000000081565b34801561013d57600080fd5b5061015161014c366004613100565b6102d7565b6040516100f49190613321565b34801561016a57600080fd5b5061017e610179366004613100565b61145c565b6040516100f491906133dc565b34801561019757600080fd5b506100e07f000000000000000000000000000000000000000000000000000000000000000081565b3480156101cb57600080fd5b506101df6101da366004613100565b611506565b6040516100f49190613436565b3480156101f857600080fd5b5061020c610207366004613449565b612c71565b6040516100f491906134be565b34801561022557600080fd5b50610239610234366004613449565b612d59565b005b34801561024757600080fd5b506100e07f000000000000000000000000000000000000000000000000000000000000000081565b34801561027b57600080fd5b506100e07f000000000000000000000000000000000000000000000000000000000000000081565b3480156102af57600080fd5b506100e07f000000000000000000000000000000000000000000000000000000000000000081565b6103096040518060a0016040528060008152602001600081526020016000815260200160008152602001606081525090565b61033b6040518060a0016040528060008152602001600081526020016000815260200160008152602001606081525090565b600060208201819052604080830182905260608301829052805163a41c8c0b60e01b815290516001600160a01b037f0000000000000000000000000000000000000000000000000000000000000000169163a41c8c0b91600480830192869291908290030181865afa1580156103b5573d6000803e3d6000fd5b505050506040513d6000823e601f3d908101601f191682016040526103dd9190810190613592565b9050805160016103ed919061365a565b67ffffffffffffffff81111561040557610405613522565b60405190808252806020026020018201604052801561043e57816020015b61042b612f74565b8152602001906001900390816104235790505b50608083015260005b81518110156114535760008282815181106104645761046461366d565b6020908102919091010151604051631ed4896760e31b81526001600160a01b0380831660048301529192506000917f0000000000000000000000000000000000000000000000000000000000000000169063f6a44b389060240160e060405180830381865afa1580156104db573d6000803e3d6000fd5b505050506040513d601f19601f820116820180604052508101906104ff9190613683565b905060008160000151905060007f00000000000000000000000000000000000000000000000000000000000000006001600160a01b0316637dc0d1d06040518163ffffffff1660e01b8152600401602060405180830381865afa15801561056a573d6000803e3d6000fd5b505050506040513d601f19601f8201168201806040525081019061058e91906136fd565b90506000816001600160a01b031663f98d06f06040518163ffffffff1660e01b8152600401602060405180830381865afa1580156105d0573d6000803e3d6000fd5b505050506040513d601f19601f820116820180604052508101906105f491906136fd565b604051630495f95f60e51b81526001600160a01b038781166004830152918216916396834ad391908516906392bf2be090602401602060405180830381865afa158015610645573d6000803e3d6000fd5b505050506040513d601f19601f82011682018060405250810190610669919061371a565b6040518263ffffffff1660e01b815260040161068791815260200190565b608060405180830381865afa1580156106a4573d6000803e3d6000fd5b505050506040513d601f19601f820116820180604052508101906106c89190613733565b9050604051806101200160405280866001600160a01b03168152602001866001600160a01b03166306fdde036040518163ffffffff1660e01b8152600401600060405180830381865afa158015610723573d6000803e3d6000fd5b505050506040513d6000823e601f3d908101601f1916820160405261074b91908101906137ca565b8152602001866001600160a01b03166395d89b416040518163ffffffff1660e01b8152600401600060405180830381865afa15801561078e573d6000803e3d6000fd5b505050506040513d6000823e601f3d908101601f191682016040526107b691908101906137ca565b8152602001866001600160a01b031663313ce5676040518163ffffffff1660e01b8152600401602060405180830381865afa1580156107f9573d6000803e3d6000fd5b505050506040513d601f19601f8201168201806040525081019061081d919061385e565b60ff168152602001866001600160a01b03166318160ddd6040518163ffffffff1660e01b8152600401602060405180830381865afa158015610863573d6000803e3d6000fd5b505050506040513d601f19601f82011682018060405250810190610887919061371a565b8152604051630495f95f60e51b81526001600160a01b0388811660048301526020909201918516906392bf2be090602401602060405180830381865afa1580156108d5573d6000803e3d6000fd5b505050506040513d601f19601f820116820180604052508101906108f9919061371a565b815282516040808501519051635aaa915960e11b815260079290920b600483015260030b60248201526008604482015260209091019073__$65759db3abb9c68754ca4eab7e42deed6d$__9063b55522b290606401602060405180830381865af415801561096b573d6000803e3d6000fd5b505050506040513d601f19601f8201168201806040525081019061098f919061371a565b81526040516370a0823160e01b81526001600160a01b038d811660048301526020909201918816906370a0823190602401602060405180830381865afa1580156109dd573d6000803e3d6000fd5b505050506040513d601f19601f82011682018060405250810190610a01919061371a565b8152604051636eb1769f60e11b81526001600160a01b038d811660048301527f00000000000000000000000000000000000000000000000000000000000000008116602483015260209092019188169063dd62ed3e90604401602060405180830381865afa158015610a77573d6000803e3d6000fd5b505050506040513d601f19601f82011682018060405250810190610a9b919061371a565b81525088608001518781518110610ab457610ab461366d565b602002602001015160000181905250604051806101200160405280846001600160a01b03168152602001846001600160a01b03166306fdde036040518163ffffffff1660e01b8152600401600060405180830381865afa158015610b1c573d6000803e3d6000fd5b505050506040513d6000823e601f3d908101601f19168201604052610b4491908101906137ca565b8152602001846001600160a01b03166395d89b416040518163ffffffff1660e01b8152600401600060405180830381865afa158015610b87573d6000803e3d6000fd5b505050506040513d6000823e601f3d908101601f19168201604052610baf91908101906137ca565b8152602001846001600160a01b031663313ce5676040518163ffffffff1660e01b8152600401602060405180830381865afa158015610bf2573d6000803e3d6000fd5b505050506040513d601f19601f82011682018060405250810190610c16919061385e565b60ff168152602001846001600160a01b03166318160ddd6040518163ffffffff1660e01b8152600401602060405180830381865afa158015610c5c573d6000803e3d6000fd5b505050506040513d601f19601f82011682018060405250810190610c80919061371a565b81526020016000801b8152602001670de0b6b3a76400008a608001518981518110610cad57610cad61366d565b60200260200101516000015160c00151866001600160a01b03166371ca337d6040518163ffffffff1660e01b8152600401602060405180830381865afa158015610cfb573d6000803e3d6000fd5b505050506040513d601f19601f82011682018060405250810190610d1f919061371a565b610d299190613881565b610d339190613898565b81526040516370a0823160e01b81526001600160a01b038d811660048301526020909201918616906370a0823190602401602060405180830381865afa158015610d81573d6000803e3d6000fd5b505050506040513d601f19601f82011682018060405250810190610da5919061371a565b8152604051636eb1769f60e11b81526001600160a01b038d811660048301527f00000000000000000000000000000000000000000000000000000000000000008116602483015260209092019186169063dd62ed3e90604401602060405180830381865afa158015610e1b573d6000803e3d6000fd5b505050506040513d601f19601f82011682018060405250810190610e3f919061371a565b81525088608001518781518110610e5857610e5861366d565b602002602001015160200181905250826001600160a01b031663ad7a672f6040518163ffffffff1660e01b8152600401602060405180830381865afa158015610ea5573d6000803e3d6000fd5b505050506040513d601f19601f82011682018060405250810190610ec9919061371a565b88608001518781518110610edf57610edf61366d565b602090810291909101015160409081019190915251630359f7eb60e11b81526001600160a01b038b811660048301528416906306b3efd690602401602060405180830381865afa158015610f37573d6000803e3d6000fd5b505050506040513d601f19601f82011682018060405250810190610f5b919061371a565b88608001518781518110610f7157610f7161366d565b602002602001015160600181815250508388608001518781518110610f9857610f9861366d565b602002602001015160800181905250846001600160a01b031663313ce5676040518163ffffffff1660e01b8152600401602060405180830381865afa158015610fe5573d6000803e3d6000fd5b505050506040513d601f19601f82011682018060405250810190611009919061385e565b61101490600a61399e565b611022906305f5e100613881565b856001600160a01b03166318160ddd6040518163ffffffff1660e01b8152600401602060405180830381865afa158015611060573d6000803e3d6000fd5b505050506040513d601f19601f82011682018060405250810190611084919061371a565b8960800151888151811061109a5761109a61366d565b60200260200101516000015160c00151670de0b6b3a76400006110bd9190613881565b6110c79190613881565b6110d19190613898565b885189906110e090839061365a565b915081815250506000856001600160a01b031663313ce5676040518163ffffffff1660e01b8152600401602060405180830381865afa158015611127573d6000803e3d6000fd5b505050506040513d601f19601f8201168201806040525081019061114b919061385e565b61115690600a61399e565b611164906305f5e100613881565b8960800151888151811061117a5761117a61366d565b6020026020010151606001518a60800151898151811061119c5761119c61366d565b60200260200101516000015160c00151670de0b6b3a76400006111bf9190613881565b6111c99190613881565b6111d39190613898565b905080896020018181516111e7919061365a565b9052506020850151612710906111fd9083613881565b6112079190613898565b89604001818151611218919061365a565b90525060408501516127109061122e9083613881565b6112389190613898565b89606001818151611249919061365a565b915081815250507f00000000000000000000000000000000000000000000000000000000000000006001600160a01b0316633fc8cef36040518163ffffffff1660e01b8152600401602060405180830381865afa1580156112ae573d6000803e3d6000fd5b505050506040513d601f19601f820116820180604052508101906112d291906136fd565b6001600160a01b0316896080015188815181106112f1576112f161366d565b602002602001015160000151600001516001600160a01b031603611441576040518060a0016040528060405180610120016040528060006001600160a01b0316815260200160405180604001604052806008815260200167457468657265756d60c01b81525081526020016040518060400160405280600381526020016208aa8960eb1b8152508152602001601260ff168152602001600081526020016000801b81526020018c608001518b815181106113ad576113ad61366d565b60200260200101516000015160c0015181526020018e6001600160a01b0316318152602001600081525081526020018a6080015189815181106113f2576113f261366d565b6020026020010151602001518152602001600081526020018c6001600160a01b03163181526020018681525089608001518951815181106114355761143561366d565b60200260200101819052505b50506001909401935061044792505050565b50909392505050565b611464612ff7565b61146c612ff7565b611475836102d7565b815261148083611506565b602080830182905260001960408401520151156114c75760208082015101518151606001516114b790670de0b6b3a7640000613881565b6114c19190613898565b60408201525b60006060820152602080820151015181516040015111156115005760208082015101518151604001516114fa91906139ad565b60608201525b92915050565b61150e613055565b611516613055565b600081600001818152505060007f00000000000000000000000000000000000000000000000000000000000000006001600160a01b0316637dc0d1d06040518163ffffffff1660e01b8152600401602060405180830381865afa158015611581573d6000803e3d6000fd5b505050506040513d601f19601f820116820180604052508101906115a591906136fd565b90506000816001600160a01b031663e19f47006040518163ffffffff1660e01b8152600401602060405180830381865afa1580156115e7573d6000803e3d6000fd5b505050506040513d601f19601f8201168201806040525081019061160b91906136fd565b90506000826001600160a01b031663f98d06f06040518163ffffffff1660e01b8152600401602060405180830381865afa15801561164d573d6000803e3d6000fd5b505050506040513d601f19601f8201168201806040525081019061167191906136fd565b905060007f00000000000000000000000000000000000000000000000000000000000000006001600160a01b0316635fcbd2856040518163ffffffff1660e01b8152600401602060405180830381865afa1580156116d3573d6000803e3d6000fd5b505050506040513d601f19601f820116820180604052508101906116f791906136fd565b90506040518061012001604052807f00000000000000000000000000000000000000000000000000000000000000006001600160a01b0316635fcbd2856040518163ffffffff1660e01b8152600401602060405180830381865afa158015611763573d6000803e3d6000fd5b505050506040513d601f19601f8201168201806040525081019061178791906136fd565b6001600160a01b031681526020017f00000000000000000000000000000000000000000000000000000000000000006001600160a01b0316635fcbd2856040518163ffffffff1660e01b8152600401602060405180830381865afa1580156117f3573d6000803e3d6000fd5b505050506040513d601f19601f8201168201806040525081019061181791906136fd565b6001600160a01b03166306fdde036040518163ffffffff1660e01b8152600401600060405180830381865afa158015611854573d6000803e3d6000fd5b505050506040513d6000823e601f3d908101601f1916820160405261187c91908101906137ca565b81526020017f00000000000000000000000000000000000000000000000000000000000000006001600160a01b0316635fcbd2856040518163ffffffff1660e01b8152600401602060405180830381865afa1580156118df573d6000803e3d6000fd5b505050506040513d601f19601f8201168201806040525081019061190391906136fd565b6001600160a01b03166395d89b416040518163ffffffff1660e01b8152600401600060405180830381865afa158015611940573d6000803e3d6000fd5b505050506040513d6000823e601f3d908101601f1916820160405261196891908101906137ca565b81526020017f00000000000000000000000000000000000000000000000000000000000000006001600160a01b0316635fcbd2856040518163ffffffff1660e01b8152600401602060405180830381865afa1580156119cb573d6000803e3d6000fd5b505050506040513d601f19601f820116820180604052508101906119ef91906136fd565b6001600160a01b031663313ce5676040518163ffffffff1660e01b8152600401602060405180830381865afa158015611a2c573d6000803e3d6000fd5b505050506040513d601f19601f82011682018060405250810190611a50919061385e565b60ff1681526020017f00000000000000000000000000000000000000000000000000000000000000006001600160a01b0316635fcbd2856040518163ffffffff1660e01b8152600401602060405180830381865afa158015611ab6573d6000803e3d6000fd5b505050506040513d601f19601f82011682018060405250810190611ada91906136fd565b6001600160a01b03166318160ddd6040518163ffffffff1660e01b8152600401602060405180830381865afa158015611b17573d6000803e3d6000fd5b505050506040513d601f19601f82011682018060405250810190611b3b919061371a565b81526020016000801b8152602001600081526020017f00000000000000000000000000000000000000000000000000000000000000006001600160a01b0316635fcbd2856040518163ffffffff1660e01b8152600401602060405180830381865afa158015611bae573d6000803e3d6000fd5b505050506040513d601f19601f82011682018060405250810190611bd291906136fd565b6040516370a0823160e01b81526001600160a01b038b8116600483015291909116906370a0823190602401602060405180830381865afa158015611c1a573d6000803e3d6000fd5b505050506040513d601f19601f82011682018060405250810190611c3e919061371a565b81526020017f00000000000000000000000000000000000000000000000000000000000000006001600160a01b0316635fcbd2856040518163ffffffff1660e01b8152600401602060405180830381865afa158015611ca1573d6000803e3d6000fd5b505050506040513d601f19601f82011682018060405250810190611cc591906136fd565b604051636eb1769f60e11b81526001600160a01b038b811660048301527f000000000000000000000000000000000000000000000000000000000000000081166024830152919091169063dd62ed3e90604401602060405180830381865afa158015611d35573d6000803e3d6000fd5b505050506040513d601f19601f82011682018060405250810190611d59919061371a565b81525085604001819052506040518061012001604052807f00000000000000000000000000000000000000000000000000000000000000006001600160a01b031663f8d898986040518163ffffffff1660e01b8152600401602060405180830381865afa158015611dce573d6000803e3d6000fd5b505050506040513d601f19601f82011682018060405250810190611df291906136fd565b6001600160a01b031681526020017f00000000000000000000000000000000000000000000000000000000000000006001600160a01b031663f8d898986040518163ffffffff1660e01b8152600401602060405180830381865afa158015611e5e573d6000803e3d6000fd5b505050506040513d601f19601f82011682018060405250810190611e8291906136fd565b6001600160a01b03166306fdde036040518163ffffffff1660e01b8152600401600060405180830381865afa158015611ebf573d6000803e3d6000fd5b505050506040513d6000823e601f3d908101601f19168201604052611ee791908101906137ca565b81526020017f00000000000000000000000000000000000000000000000000000000000000006001600160a01b031663f8d898986040518163ffffffff1660e01b8152600401602060405180830381865afa158015611f4a573d6000803e3d6000fd5b505050506040513d601f19601f82011682018060405250810190611f6e91906136fd565b6001600160a01b03166395d89b416040518163ffffffff1660e01b8152600401600060405180830381865afa158015611fab573d6000803e3d6000fd5b505050506040513d6000823e601f3d908101601f19168201604052611fd391908101906137ca565b81526020017f00000000000000000000000000000000000000000000000000000000000000006001600160a01b031663f8d898986040518163ffffffff1660e01b8152600401602060405180830381865afa158015612036573d6000803e3d6000fd5b505050506040513d601f19601f8201168201806040525081019061205a91906136fd565b6001600160a01b031663313ce5676040518163ffffffff1660e01b8152600401602060405180830381865afa158015612097573d6000803e3d6000fd5b505050506040513d601f19601f820116820180604052508101906120bb919061385e565b60ff1681526020017f00000000000000000000000000000000000000000000000000000000000000006001600160a01b031663f8d898986040518163ffffffff1660e01b8152600401602060405180830381865afa158015612121573d6000803e3d6000fd5b505050506040513d601f19601f8201168201806040525081019061214591906136fd565b6001600160a01b03166318160ddd6040518163ffffffff1660e01b8152600401602060405180830381865afa158015612182573d6000803e3d6000fd5b505050506040513d601f19601f820116820180604052508101906121a6919061371a565b81526020016000801b8152602001600081526020017f00000000000000000000000000000000000000000000000000000000000000006001600160a01b031663f8d898986040518163ffffffff1660e01b8152600401602060405180830381865afa158015612219573d6000803e3d6000fd5b505050506040513d601f19601f8201168201806040525081019061223d91906136fd565b6040516370a0823160e01b81526001600160a01b038b8116600483015291909116906370a0823190602401602060405180830381865afa158015612285573d6000803e3d6000fd5b505050506040513d601f19601f820116820180604052508101906122a9919061371a565b81526020017f00000000000000000000000000000000000000000000000000000000000000006001600160a01b031663f8d898986040518163ffffffff1660e01b8152600401602060405180830381865afa15801561230c573d6000803e3d6000fd5b505050506040513d601f19601f8201168201806040525081019061233091906136fd565b60405162b2d90760e41b81526001600160a01b038b811660048301527f0000000000000000000000000000000000000000000000000000000000000000811660248301529190911690630b2d907090604401602060405180830381865afa15801561239f573d6000803e3d6000fd5b505050506040513d601f19601f820116820180604052508101906123c3919061371a565b815250856060018190525060007f00000000000000000000000000000000000000000000000000000000000000006001600160a01b03166319b12aec6040518163ffffffff1660e01b8152600401600060405180830381865afa15801561242e573d6000803e3d6000fd5b505050506040513d6000823e601f3d908101601f191682016040526124569190810190613592565b9050805167ffffffffffffffff81111561247257612472613522565b6040519080825280602002602001820160405280156124ab57816020015b612498613090565b8152602001906001900390816124905790505b5060808701526000805b8251811015612b7e5760008382815181106124d2576124d261366d565b60200260200101519050604051806101200160405280826001600160a01b03168152602001826001600160a01b03166306fdde036040518163ffffffff1660e01b8152600401600060405180830381865afa158015612535573d6000803e3d6000fd5b505050506040513d6000823e601f3d908101601f1916820160405261255d91908101906137ca565b8152602001826001600160a01b03166395d89b416040518163ffffffff1660e01b8152600401600060405180830381865afa1580156125a0573d6000803e3d6000fd5b505050506040513d6000823e601f3d908101601f191682016040526125c891908101906137ca565b8152602001826001600160a01b031663313ce5676040518163ffffffff1660e01b8152600401602060405180830381865afa15801561260b573d6000803e3d6000fd5b505050506040513d601f19601f8201168201806040525081019061262f919061385e565b60ff168152602001826001600160a01b03166318160ddd6040518163ffffffff1660e01b8152600401602060405180830381865afa158015612675573d6000803e3d6000fd5b505050506040513d601f19601f82011682018060405250810190612699919061371a565b8152604051630495f95f60e51b81526001600160a01b0384811660048301526020909201918b16906392bf2be090602401602060405180830381865afa1580156126e7573d6000803e3d6000fd5b505050506040513d601f19601f8201168201806040525081019061270b919061371a565b815260006020820152604080516370a0823160e01b81526001600160a01b038f811660048301529190920191908416906370a0823190602401602060405180830381865afa158015612761573d6000803e3d6000fd5b505050506040513d601f19601f82011682018060405250810190612785919061371a565b8152604051636eb1769f60e11b81526001600160a01b038e811660048301527f00000000000000000000000000000000000000000000000000000000000000008116602483015260209092019184169063dd62ed3e90604401602060405180830381865afa1580156127fb573d6000803e3d6000fd5b505050506040513d601f19601f8201168201806040525081019061281f919061371a565b815250896080015183815181106128385761283861366d565b6020026020010181905250866001600160a01b0316816001600160a01b0316036128f15760405163b3596f0760e01b81526001600160a01b03828116600483015289169063b3596f0790602401602060405180830381865afa1580156128a2573d6000803e3d6000fd5b505050506040513d601f19601f820116820180604052508101906128c6919061371a565b896080015183815181106128dc576128dc61366d565b602002602001015160c0018181525050612acc565b6000801b8960800151838151811061290b5761290b61366d565b602002602001015160a0015114612a6b576000866001600160a01b03166396834ad38b6080015185815181106129435761294361366d565b602002602001015160a001516040518263ffffffff1660e01b815260040161296d91815260200190565b608060405180830381865afa15801561298a573d6000803e3d6000fd5b505050506040513d601f19601f820116820180604052508101906129ae9190613733565b80516040808301519051635aaa915960e11b815260079290920b600483015260030b60248201526008604482015290915073__$65759db3abb9c68754ca4eab7e42deed6d$__9063b55522b290606401602060405180830381865af4158015612a1b573d6000803e3d6000fd5b505050506040513d601f19601f82011682018060405250810190612a3f919061371a565b8a608001518481518110612a5557612a5561366d565b602002602001015160c001818152505050612acc565b60405162461bcd60e51b815260206004820152602b60248201527f55494461746150726f76696465723a205072696365206461746120736f75726360448201526a19481b9bdd08199bdd5b9960aa1b60648201526084015b60405180910390fd5b6305f5e10089608001518381518110612ae757612ae761366d565b602002602001015160c00151826001600160a01b03166318160ddd6040518163ffffffff1660e01b8152600401602060405180830381865afa158015612b31573d6000803e3d6000fd5b505050506040513d601f19601f82011682018060405250810190612b55919061371a565b612b5f9190613881565b612b699190613898565b612b73908461365a565b9250506001016124b5565b50670de0b6b3a76400008115801590612b9e575060608801516080015115155b8015612bba575087604001516080015188606001516080015114155b15612bfa57876040015160800151886060015160800151612bdb91906139ad565b612bed83670de0b6b3a7640000613881565b612bf79190613898565b90505b604088015160c001819052606088015160e00151670de0b6b3a764000090612c23908390613881565b612c2d9190613898565b6020890152604088015160c00151606089015160800151670de0b6b3a764000091612c5791613881565b612c619190613898565b8852509598975050505050505050565b6040805160008152602081019091526060908267ffffffffffffffff811115612c9c57612c9c613522565b604051908082528060200260200182016040528015612ccf57816020015b6060815260200190600190039081612cba5790505b50915060005b83811015612d5157612d2c30868684818110612cf357612cf361366d565b9050602002810190612d0591906139c0565b85604051602001612d1893929190613a0e565b604051602081830303815290604052612e73565b838281518110612d3e57612d3e61366d565b6020908102919091010152600101612cd5565b505092915050565b60405163d47eed4560e01b81526000906001600160a01b037f0000000000000000000000000000000000000000000000000000000000000000169063d47eed4590612daa9086908690600401613a5e565b602060405180830381865afa158015612dc7573d6000803e3d6000fd5b505050506040513d601f19601f82011682018060405250810190612deb919061371a565b90507f00000000000000000000000000000000000000000000000000000000000000006001600160a01b031663ef9e5e288285856040518463ffffffff1660e01b8152600401612e3c929190613a5e565b6000604051808303818588803b158015612e5557600080fd5b505af1158015612e69573d6000803e3d6000fd5b5050505050505050565b6060600080846001600160a01b031684604051612e909190613afa565b600060405180830381855af49150503d8060008114612ecb576040519150601f19603f3d011682016040523d82523d6000602084013e612ed0565b606091505b5091509150612ee0858383612ee9565b95945050505050565b606082612efe57612ef982612f48565b612f41565b8151158015612f1557506001600160a01b0384163b155b15612f3e57604051639996b31560e01b81526001600160a01b0385166004820152602401612ac3565b50805b9392505050565b805115612f585780518082602001fd5b604051630a12f52160e11b815260040160405180910390fd5b50565b6040518060a00160405280612f87613090565b8152602001612f94613090565b81526020016000815260200160008152602001612ff26040518060e0016040528060006001600160a01b0316815260200160008152602001600081526020016000815260200160008152602001600081526020016000151581525090565b905290565b60405180608001604052806130346040518060a0016040528060008152602001600081526020016000815260200160008152602001606081525090565b8152602001613041613055565b815260200160008152602001600081525090565b6040518060a001604052806000815260200160008152602001613076613090565b8152602001613083613090565b8152602001606081525090565b60405180610120016040528060006001600160a01b031681526020016060815260200160608152602001600060ff16815260200160008152602001600080191681526020016000815260200160008152602001600081525090565b6001600160a01b0381168114612f7157600080fd5b60006020828403121561311257600080fd5b8135612f41816130eb565b60005b83811015613138578181015183820152602001613120565b50506000910152565b6000815180845261315981602086016020860161311d565b601f01601f19169290920160200192915050565b80516001600160a01b031682526000610120602083015181602086015261319682860182613141565b915050604083015184820360408601526131b08282613141565b91505060608301516131c7606086018260ff169052565b506080830151608085015260a083015160a085015260c083015160c085015260e083015160e08501526101008084015181860152508091505092915050565b600060a080840183518552602080850151818701526040808601516040880152606080870151606089015260808088015160a060808b015285815180885260c0975060c08c01915060c08160051b8d0101878401935060005b828110156133105760bf198e8303018452845161016081518185526132868286018261316d565b9150508a8201518482038c86015261329e828261316d565b838c0151868d01528a8401518b8701529289015180516001600160a01b03168a8701528c8101518f870152808c01518e870152808b015160e0870152808a01516101008701528e8101516101208701528d0151151561014090950194909452509489019493890193915060010161325f565b509c9b505050505050505050505050565b602081526000612f416020830184613206565b80518252600060208083015181850152604083015160a0604086015261335d60a086018261316d565b905060608401518582036060870152613376828261316d565b915050608084015185820360808701528181518084528484019150848160051b850101858401935060005b828110156133cf57601f198683030184526133bd82865161316d565b948701949387019391506001016133a1565b5098975050505050505050565b6020815260008251608060208401526133f860a0840182613206565b90506020840151601f198483030160408501526134158282613334565b91505060408401516060840152606084015160808401528091505092915050565b602081526000612f416020830184613334565b6000806020838503121561345c57600080fd5b823567ffffffffffffffff8082111561347457600080fd5b818501915085601f83011261348857600080fd5b81358181111561349757600080fd5b8660208260051b85010111156134ac57600080fd5b60209290920196919550909350505050565b600060208083016020845280855180835260408601915060408160051b87010192506020870160005b8281101561351557603f19888603018452613503858351613141565b945092850192908501906001016134e7565b5092979650505050505050565b634e487b7160e01b600052604160045260246000fd5b60405160e0810167ffffffffffffffff8111828210171561355b5761355b613522565b60405290565b604051601f8201601f1916810167ffffffffffffffff8111828210171561358a5761358a613522565b604052919050565b600060208083850312156135a557600080fd5b825167ffffffffffffffff808211156135bd57600080fd5b818501915085601f8301126135d157600080fd5b8151818111156135e3576135e3613522565b8060051b91506135f4848301613561565b818152918301840191848101908884111561360e57600080fd5b938501935b838510156136385784519250613628836130eb565b8282529385019390850190613613565b98975050505050505050565b634e487b7160e01b600052601160045260246000fd5b8082018082111561150057611500613644565b634e487b7160e01b600052603260045260246000fd5b600060e0828403121561369557600080fd5b61369d613538565b82516136a8816130eb565b808252506020830151602082015260408301516040820152606083015160608201526080830151608082015260a083015160a082015260c083015180151581146136f157600080fd5b60c08201529392505050565b60006020828403121561370f57600080fd5b8151612f41816130eb565b60006020828403121561372c57600080fd5b5051919050565b60006080828403121561374557600080fd5b6040516080810167ffffffffffffffff828210818311171561376957613769613522565b81604052845191508160070b821461378057600080fd5b908252602084015190808216821461379757600080fd5b5060208201526040830151600381900b81146137b257600080fd5b60408201526060928301519281019290925250919050565b6000602082840312156137dc57600080fd5b815167ffffffffffffffff808211156137f457600080fd5b818401915084601f83011261380857600080fd5b81518181111561381a5761381a613522565b61382d601f8201601f1916602001613561565b915080825285602082850101111561384457600080fd5b61385581602084016020860161311d565b50949350505050565b60006020828403121561387057600080fd5b815160ff81168114612f4157600080fd5b808202811582820484141761150057611500613644565b6000826138b557634e487b7160e01b600052601260045260246000fd5b500490565b600181815b808511156138f55781600019048211156138db576138db613644565b808516156138e857918102915b93841c93908002906138bf565b509250929050565b60008261390c57506001611500565b8161391957506000611500565b816001811461392f576002811461393957613955565b6001915050611500565b60ff84111561394a5761394a613644565b50506001821b611500565b5060208310610133831016604e8410600b8410161715613978575081810a611500565b61398283836138ba565b806000190482111561399657613996613644565b029392505050565b6000612f4160ff8416836138fd565b8181038181111561150057611500613644565b6000808335601e198436030181126139d757600080fd5b83018035915067ffffffffffffffff8211156139f257600080fd5b602001915036819003821315613a0757600080fd5b9250929050565b828482376000838201600081528351613a2b81836020880161311d565b0195945050505050565b81835281816020850137506000828201602090810191909152601f909101601f19169091010190565b60208082528181018390526000906040600585901b8401810190840186845b87811015613aed57868403603f190183528135368a9003601e19018112613aa357600080fd5b8901858101903567ffffffffffffffff811115613abf57600080fd5b803603821315613ace57600080fd5b613ad9868284613a35565b955050509184019190840190600101613a7d565b5091979650505050505050565b60008251613b0c81846020870161311d565b919091019291505056fea26469706673582212205effffaf631c0d421ac8186aba87cc527b00b86639bf63476b5fbdedbbbf1aaa64736f6c63430008170033","linkReferences":{"node_modules/@pythnetwork/pyth-sdk-solidity/PythUtils.sol":{"PythUtils":[{"start":3308,"length":20},{"start":11676,"length":20}]}}},"methodIdentifiers":{"getAllData(address)":"67e737f7","getLiquidityData(address)":"8bc52f5c","getReserveData(address)":"35ea6a75","liquidity()":"1a686502","multicall(bytes[])":"ac9650d8","pool()":"16f0115b","pyth()":"f98d06f0","reserve()":"cd3293de","router()":"f887ea40","synthPlugin()":"813b4a42","updatePythData(bytes[])":"bcfb99fa"},"id":63}