{"abi":[{"type":"constructor","inputs":[{"name":"_marketsPlugin","type":"address","internalType":"address"},{"name":"_router","type":"address","internalType":"address"}],"stateMutability":"payable"},{"type":"receive","stateMutability":"payable"},{"type":"function","name":"getAllData","inputs":[{"name":"user","type":"address","internalType":"address"},{"name":"safe","type":"bool","internalType":"bool"}],"outputs":[{"name":"data","type":"tuple","internalType":"struct UIDataProvider.UIData","components":[{"name":"synths","type":"tuple[]","internalType":"struct UIDataProvider.SynthData[]","components":[{"name":"synth","type":"tuple","internalType":"struct UIDataProvider.AssetData","components":[{"name":"id","type":"address","internalType":"address"},{"name":"name","type":"string","internalType":"string"},{"name":"symbol","type":"string","internalType":"string"},{"name":"decimals","type":"uint8","internalType":"uint8"},{"name":"totalSupply","type":"uint256","internalType":"uint256"},{"name":"pythId","type":"bytes32","internalType":"bytes32"},{"name":"price","type":"uint256","internalType":"uint256"},{"name":"walletBalance","type":"uint256","internalType":"uint256"},{"name":"approvalToRouter","type":"uint256","internalType":"uint256"}]},{"name":"market","type":"tuple","internalType":"struct UIDataProvider.MarketData","components":[{"name":"exists","type":"bool","internalType":"bool"},{"name":"totalAssetsUSD","type":"uint256","internalType":"uint256"},{"name":"totalDebtUSD","type":"uint256","internalType":"uint256"},{"name":"userTotalBalanceUSD","type":"uint256","internalType":"uint256"},{"name":"userAdjustedBalanceUSD","type":"uint256","internalType":"uint256"},{"name":"userThresholdBalanceUSD","type":"uint256","internalType":"uint256"},{"name":"userDebtUSD","type":"uint256","internalType":"uint256"},{"name":"accountHealth","type":"uint256","internalType":"uint256"},{"name":"interestRate","type":"uint256","internalType":"uint256"},{"name":"debtToken","type":"tuple","internalType":"struct UIDataProvider.AssetData","components":[{"name":"id","type":"address","internalType":"address"},{"name":"name","type":"string","internalType":"string"},{"name":"symbol","type":"string","internalType":"string"},{"name":"decimals","type":"uint8","internalType":"uint8"},{"name":"totalSupply","type":"uint256","internalType":"uint256"},{"name":"pythId","type":"bytes32","internalType":"bytes32"},{"name":"price","type":"uint256","internalType":"uint256"},{"name":"walletBalance","type":"uint256","internalType":"uint256"},{"name":"approvalToRouter","type":"uint256","internalType":"uint256"}]},{"name":"vaults","type":"tuple[]","internalType":"struct UIDataProvider.VaultData[]","components":[{"name":"asset","type":"tuple","internalType":"struct UIDataProvider.AssetData","components":[{"name":"id","type":"address","internalType":"address"},{"name":"name","type":"string","internalType":"string"},{"name":"symbol","type":"string","internalType":"string"},{"name":"decimals","type":"uint8","internalType":"uint8"},{"name":"totalSupply","type":"uint256","internalType":"uint256"},{"name":"pythId","type":"bytes32","internalType":"bytes32"},{"name":"price","type":"uint256","internalType":"uint256"},{"name":"walletBalance","type":"uint256","internalType":"uint256"},{"name":"approvalToRouter","type":"uint256","internalType":"uint256"}]},{"name":"vaultToken","type":"tuple","internalType":"struct UIDataProvider.AssetData","components":[{"name":"id","type":"address","internalType":"address"},{"name":"name","type":"string","internalType":"string"},{"name":"symbol","type":"string","internalType":"string"},{"name":"decimals","type":"uint8","internalType":"uint8"},{"name":"totalSupply","type":"uint256","internalType":"uint256"},{"name":"pythId","type":"bytes32","internalType":"bytes32"},{"name":"price","type":"uint256","internalType":"uint256"},{"name":"walletBalance","type":"uint256","internalType":"uint256"},{"name":"approvalToRouter","type":"uint256","internalType":"uint256"}]},{"name":"ratio","type":"uint256","internalType":"uint256"},{"name":"config","type":"tuple","internalType":"struct ReserveStorage.Collateral","components":[{"name":"vault","type":"address","internalType":"address"},{"name":"baseLTV","type":"uint256","internalType":"uint256"},{"name":"liquidationThreshold","type":"uint256","internalType":"uint256"},{"name":"liquidationBonus","type":"uint256","internalType":"uint256"},{"name":"liquidationFee","type":"uint256","internalType":"uint256"},{"name":"maxDeposits","type":"uint256","internalType":"uint256"},{"name":"active","type":"bool","internalType":"bool"}]}]}]}]},{"name":"router","type":"address","internalType":"address"},{"name":"blockNumber","type":"uint256","internalType":"uint256"}]}],"stateMutability":"view"},{"type":"function","name":"getAssetData","inputs":[{"name":"asset","type":"address","internalType":"address"},{"name":"user","type":"address","internalType":"address"}],"outputs":[{"name":"data","type":"tuple","internalType":"struct UIDataProvider.AssetData","components":[{"name":"id","type":"address","internalType":"address"},{"name":"name","type":"string","internalType":"string"},{"name":"symbol","type":"string","internalType":"string"},{"name":"decimals","type":"uint8","internalType":"uint8"},{"name":"totalSupply","type":"uint256","internalType":"uint256"},{"name":"pythId","type":"bytes32","internalType":"bytes32"},{"name":"price","type":"uint256","internalType":"uint256"},{"name":"walletBalance","type":"uint256","internalType":"uint256"},{"name":"approvalToRouter","type":"uint256","internalType":"uint256"}]}],"stateMutability":"view"},{"type":"function","name":"getMarketData","inputs":[{"name":"user","type":"address","internalType":"address"},{"name":"synth","type":"address","internalType":"address"},{"name":"safe","type":"bool","internalType":"bool"}],"outputs":[{"name":"data","type":"tuple","internalType":"struct UIDataProvider.MarketData","components":[{"name":"exists","type":"bool","internalType":"bool"},{"name":"totalAssetsUSD","type":"uint256","internalType":"uint256"},{"name":"totalDebtUSD","type":"uint256","internalType":"uint256"},{"name":"userTotalBalanceUSD","type":"uint256","internalType":"uint256"},{"name":"userAdjustedBalanceUSD","type":"uint256","internalType":"uint256"},{"name":"userThresholdBalanceUSD","type":"uint256","internalType":"uint256"},{"name":"userDebtUSD","type":"uint256","internalType":"uint256"},{"name":"accountHealth","type":"uint256","internalType":"uint256"},{"name":"interestRate","type":"uint256","internalType":"uint256"},{"name":"debtToken","type":"tuple","internalType":"struct UIDataProvider.AssetData","components":[{"name":"id","type":"address","internalType":"address"},{"name":"name","type":"string","internalType":"string"},{"name":"symbol","type":"string","internalType":"string"},{"name":"decimals","type":"uint8","internalType":"uint8"},{"name":"totalSupply","type":"uint256","internalType":"uint256"},{"name":"pythId","type":"bytes32","internalType":"bytes32"},{"name":"price","type":"uint256","internalType":"uint256"},{"name":"walletBalance","type":"uint256","internalType":"uint256"},{"name":"approvalToRouter","type":"uint256","internalType":"uint256"}]},{"name":"vaults","type":"tuple[]","internalType":"struct UIDataProvider.VaultData[]","components":[{"name":"asset","type":"tuple","internalType":"struct UIDataProvider.AssetData","components":[{"name":"id","type":"address","internalType":"address"},{"name":"name","type":"string","internalType":"string"},{"name":"symbol","type":"string","internalType":"string"},{"name":"decimals","type":"uint8","internalType":"uint8"},{"name":"totalSupply","type":"uint256","internalType":"uint256"},{"name":"pythId","type":"bytes32","internalType":"bytes32"},{"name":"price","type":"uint256","internalType":"uint256"},{"name":"walletBalance","type":"uint256","internalType":"uint256"},{"name":"approvalToRouter","type":"uint256","internalType":"uint256"}]},{"name":"vaultToken","type":"tuple","internalType":"struct UIDataProvider.AssetData","components":[{"name":"id","type":"address","internalType":"address"},{"name":"name","type":"string","internalType":"string"},{"name":"symbol","type":"string","internalType":"string"},{"name":"decimals","type":"uint8","internalType":"uint8"},{"name":"totalSupply","type":"uint256","internalType":"uint256"},{"name":"pythId","type":"bytes32","internalType":"bytes32"},{"name":"price","type":"uint256","internalType":"uint256"},{"name":"walletBalance","type":"uint256","internalType":"uint256"},{"name":"approvalToRouter","type":"uint256","internalType":"uint256"}]},{"name":"ratio","type":"uint256","internalType":"uint256"},{"name":"config","type":"tuple","internalType":"struct ReserveStorage.Collateral","components":[{"name":"vault","type":"address","internalType":"address"},{"name":"baseLTV","type":"uint256","internalType":"uint256"},{"name":"liquidationThreshold","type":"uint256","internalType":"uint256"},{"name":"liquidationBonus","type":"uint256","internalType":"uint256"},{"name":"liquidationFee","type":"uint256","internalType":"uint256"},{"name":"maxDeposits","type":"uint256","internalType":"uint256"},{"name":"active","type":"bool","internalType":"bool"}]}]}]}],"stateMutability":"view"},{"type":"function","name":"getSynths","inputs":[{"name":"user","type":"address","internalType":"address"},{"name":"safe","type":"bool","internalType":"bool"}],"outputs":[{"name":"","type":"tuple[]","internalType":"struct UIDataProvider.SynthData[]","components":[{"name":"synth","type":"tuple","internalType":"struct UIDataProvider.AssetData","components":[{"name":"id","type":"address","internalType":"address"},{"name":"name","type":"string","internalType":"string"},{"name":"symbol","type":"string","internalType":"string"},{"name":"decimals","type":"uint8","internalType":"uint8"},{"name":"totalSupply","type":"uint256","internalType":"uint256"},{"name":"pythId","type":"bytes32","internalType":"bytes32"},{"name":"price","type":"uint256","internalType":"uint256"},{"name":"walletBalance","type":"uint256","internalType":"uint256"},{"name":"approvalToRouter","type":"uint256","internalType":"uint256"}]},{"name":"market","type":"tuple","internalType":"struct UIDataProvider.MarketData","components":[{"name":"exists","type":"bool","internalType":"bool"},{"name":"totalAssetsUSD","type":"uint256","internalType":"uint256"},{"name":"totalDebtUSD","type":"uint256","internalType":"uint256"},{"name":"userTotalBalanceUSD","type":"uint256","internalType":"uint256"},{"name":"userAdjustedBalanceUSD","type":"uint256","internalType":"uint256"},{"name":"userThresholdBalanceUSD","type":"uint256","internalType":"uint256"},{"name":"userDebtUSD","type":"uint256","internalType":"uint256"},{"name":"accountHealth","type":"uint256","internalType":"uint256"},{"name":"interestRate","type":"uint256","internalType":"uint256"},{"name":"debtToken","type":"tuple","internalType":"struct UIDataProvider.AssetData","components":[{"name":"id","type":"address","internalType":"address"},{"name":"name","type":"string","internalType":"string"},{"name":"symbol","type":"string","internalType":"string"},{"name":"decimals","type":"uint8","internalType":"uint8"},{"name":"totalSupply","type":"uint256","internalType":"uint256"},{"name":"pythId","type":"bytes32","internalType":"bytes32"},{"name":"price","type":"uint256","internalType":"uint256"},{"name":"walletBalance","type":"uint256","internalType":"uint256"},{"name":"approvalToRouter","type":"uint256","internalType":"uint256"}]},{"name":"vaults","type":"tuple[]","internalType":"struct UIDataProvider.VaultData[]","components":[{"name":"asset","type":"tuple","internalType":"struct UIDataProvider.AssetData","components":[{"name":"id","type":"address","internalType":"address"},{"name":"name","type":"string","internalType":"string"},{"name":"symbol","type":"string","internalType":"string"},{"name":"decimals","type":"uint8","internalType":"uint8"},{"name":"totalSupply","type":"uint256","internalType":"uint256"},{"name":"pythId","type":"bytes32","internalType":"bytes32"},{"name":"price","type":"uint256","internalType":"uint256"},{"name":"walletBalance","type":"uint256","internalType":"uint256"},{"name":"approvalToRouter","type":"uint256","internalType":"uint256"}]},{"name":"vaultToken","type":"tuple","internalType":"struct UIDataProvider.AssetData","components":[{"name":"id","type":"address","internalType":"address"},{"name":"name","type":"string","internalType":"string"},{"name":"symbol","type":"string","internalType":"string"},{"name":"decimals","type":"uint8","internalType":"uint8"},{"name":"totalSupply","type":"uint256","internalType":"uint256"},{"name":"pythId","type":"bytes32","internalType":"bytes32"},{"name":"price","type":"uint256","internalType":"uint256"},{"name":"walletBalance","type":"uint256","internalType":"uint256"},{"name":"approvalToRouter","type":"uint256","internalType":"uint256"}]},{"name":"ratio","type":"uint256","internalType":"uint256"},{"name":"config","type":"tuple","internalType":"struct ReserveStorage.Collateral","components":[{"name":"vault","type":"address","internalType":"address"},{"name":"baseLTV","type":"uint256","internalType":"uint256"},{"name":"liquidationThreshold","type":"uint256","internalType":"uint256"},{"name":"liquidationBonus","type":"uint256","internalType":"uint256"},{"name":"liquidationFee","type":"uint256","internalType":"uint256"},{"name":"maxDeposits","type":"uint256","internalType":"uint256"},{"name":"active","type":"bool","internalType":"bool"}]}]}]}]}],"stateMutability":"view"},{"type":"function","name":"getVaults","inputs":[{"name":"user","type":"address","internalType":"address"},{"name":"market","type":"address","internalType":"contract Market"},{"name":"safe","type":"bool","internalType":"bool"}],"outputs":[{"name":"","type":"tuple[]","internalType":"struct UIDataProvider.VaultData[]","components":[{"name":"asset","type":"tuple","internalType":"struct UIDataProvider.AssetData","components":[{"name":"id","type":"address","internalType":"address"},{"name":"name","type":"string","internalType":"string"},{"name":"symbol","type":"string","internalType":"string"},{"name":"decimals","type":"uint8","internalType":"uint8"},{"name":"totalSupply","type":"uint256","internalType":"uint256"},{"name":"pythId","type":"bytes32","internalType":"bytes32"},{"name":"price","type":"uint256","internalType":"uint256"},{"name":"walletBalance","type":"uint256","internalType":"uint256"},{"name":"approvalToRouter","type":"uint256","internalType":"uint256"}]},{"name":"vaultToken","type":"tuple","internalType":"struct UIDataProvider.AssetData","components":[{"name":"id","type":"address","internalType":"address"},{"name":"name","type":"string","internalType":"string"},{"name":"symbol","type":"string","internalType":"string"},{"name":"decimals","type":"uint8","internalType":"uint8"},{"name":"totalSupply","type":"uint256","internalType":"uint256"},{"name":"pythId","type":"bytes32","internalType":"bytes32"},{"name":"price","type":"uint256","internalType":"uint256"},{"name":"walletBalance","type":"uint256","internalType":"uint256"},{"name":"approvalToRouter","type":"uint256","internalType":"uint256"}]},{"name":"ratio","type":"uint256","internalType":"uint256"},{"name":"config","type":"tuple","internalType":"struct ReserveStorage.Collateral","components":[{"name":"vault","type":"address","internalType":"address"},{"name":"baseLTV","type":"uint256","internalType":"uint256"},{"name":"liquidationThreshold","type":"uint256","internalType":"uint256"},{"name":"liquidationBonus","type":"uint256","internalType":"uint256"},{"name":"liquidationFee","type":"uint256","internalType":"uint256"},{"name":"maxDeposits","type":"uint256","internalType":"uint256"},{"name":"active","type":"bool","internalType":"bool"}]}]},{"name":"totalAssetsUSD","type":"uint256","internalType":"uint256"}],"stateMutability":"view"},{"type":"function","name":"marketsPlugin","inputs":[],"outputs":[{"name":"","type":"address","internalType":"contract MarketsPlugin"}],"stateMutability":"view"},{"type":"function","name":"multicall","inputs":[{"name":"data","type":"bytes[]","internalType":"bytes[]"}],"outputs":[{"name":"results","type":"bytes[]","internalType":"bytes[]"}],"stateMutability":"nonpayable"},{"type":"function","name":"pool","inputs":[],"outputs":[{"name":"","type":"address","internalType":"contract RxPool"}],"stateMutability":"view"},{"type":"function","name":"pyth","inputs":[],"outputs":[{"name":"","type":"address","internalType":"contract IPyth"}],"stateMutability":"view"},{"type":"function","name":"router","inputs":[],"outputs":[{"name":"","type":"address","internalType":"address"}],"stateMutability":"view"},{"type":"function","name":"updatePythData","inputs":[{"name":"updateData","type":"bytes[]","internalType":"bytes[]"}],"outputs":[],"stateMutability":"nonpayable"},{"type":"error","name":"AddressEmptyCode","inputs":[{"name":"target","type":"address","internalType":"address"}]},{"type":"error","name":"FailedCall","inputs":[]}],"bytecode":{"object":"0x61010060405260405161268c38038061268c8339810160408190526100239161012c565b6001600160a01b03821660a08190526040805163636fc28b60e01b8152905163636fc28b916004808201926020929091908290030181865afa15801561006b573d5f803e3d5ffd5b505050506040513d601f19601f8201168201806040525081019061008f9190610164565b6001600160a01b03908116608052811660e081905260408051630f98d06f60e41b8152905163f98d06f0916004808201926020929091908290030181865afa1580156100dd573d5f803e3d5ffd5b505050506040513d601f19601f820116820180604052508101906101019190610164565b6001600160a01b031660c052506101869050565b6001600160a01b0381168114610129575f80fd5b50565b5f806040838503121561013d575f80fd5b825161014881610115565b602084015190925061015981610115565b809150509250929050565b5f60208284031215610174575f80fd5b815161017f81610115565b9392505050565b60805160a05160c05160e0516124956101f75f395f818161026601528181610cd001528181610ea30152818161111601526116a201525f8181610299015281816112a6015261132001525f81816101090152610efd01525f818160b9015281816102c0015261039c01526124955ff3fe60806040526004361061009d575f3560e01c80637dd4fbcd116100625780637dd4fbcd146101b0578063ac9650d8146101dc578063bcfb99fa14610208578063e90f8c1b14610229578063f887ea4014610255578063f98d06f014610288575f80fd5b806316f0115b146100a85780632443de4c146100f8578063521282131461012b57806354765f32146101575780636863482214610184575f80fd5b366100a457005b5f80fd5b3480156100b3575f80fd5b506100db7f000000000000000000000000000000000000000000000000000000000000000081565b6040516001600160a01b0390911681526020015b60405180910390f35b348015610103575f80fd5b506100db7f000000000000000000000000000000000000000000000000000000000000000081565b348015610136575f80fd5b5061014a610145366004611982565b6102bb565b6040516100ef9190611c6b565b348015610162575f80fd5b50610176610171366004611c7d565b6106ac565b6040516100ef929190611cc5565b34801561018f575f80fd5b506101a361019e366004611982565b610e62565b6040516100ef9190611db8565b3480156101bb575f80fd5b506101cf6101ca366004611c7d565b610ed4565b6040516100ef9190611dfe565b3480156101e7575f80fd5b506101fb6101f6366004611e10565b61119b565b6040516100ef9190611e7f565b348015610213575f80fd5b50610227610222366004611e10565b611281565b005b348015610234575f80fd5b50610248610243366004611ee1565b6113a0565b6040516100ef9190611f0d565b348015610260575f80fd5b506100db7f000000000000000000000000000000000000000000000000000000000000000081565b348015610293575f80fd5b506100db7f000000000000000000000000000000000000000000000000000000000000000081565b60605f7f00000000000000000000000000000000000000000000000000000000000000006001600160a01b03166319b12aec6040518163ffffffff1660e01b81526004015f60405180830381865afa158015610319573d5f803e3d5ffd5b505050506040513d5f823e601f3d908101601f191682016040526103409190810190611f64565b90505f815167ffffffffffffffff81111561035d5761035d611f1f565b60405190808252806020026020018201604052801561039657816020015b610383611820565b81526020019060019003908161037b5790505b5090505f7f00000000000000000000000000000000000000000000000000000000000000006001600160a01b031663833b1fce6040518163ffffffff1660e01b8152600401602060405180830381865afa1580156103f6573d5f803e3d5ffd5b505050506040513d601f19601f8201168201806040525081019061041a9190612011565b90505f5b835181101561069f5760405180604001604052806104558684815181106104475761044761202c565b60200260200101518a6113a0565b815260200161047e898785815181106104705761047061202c565b60200260200101518a610ed4565b8152508382815181106104935761049361202c565b6020026020010181905250851561055a57816001600160a01b031663b3596f078583815181106104c5576104c561202c565b60200260200101516040518263ffffffff1660e01b81526004016104f891906001600160a01b0391909116815260200190565b602060405180830381865afa158015610513573d5f803e3d5ffd5b505050506040513d601f19601f820116820180604052508101906105379190612040565b8382815181106105495761054961202c565b60209081029190910101515160c001525b816001600160a01b03166392bf2be085838151811061057b5761057b61202c565b60200260200101516040518263ffffffff1660e01b81526004016105ae91906001600160a01b0391909116815260200190565b602060405180830381865afa1580156105c9573d5f803e3d5ffd5b505050506040513d601f19601f820116820180604052508101906105ed9190612040565b8382815181106105ff576105ff61202c565b60200260200101515f015160a00181815250506305f5e1008382815181106106295761062961202c565b60200260200101515f015160c0015184838151811061064a5761064a61202c565b602002602001015160200151610120015160800151610669919061206b565b6106739190612082565b8382815181106106855761068561202c565b60209081029190910181015101516040015260010161041e565b5090925050505b92915050565b60605f80846001600160a01b031663a41c8c0b6040518163ffffffff1660e01b81526004015f60405180830381865afa1580156106eb573d5f803e3d5ffd5b505050506040513d5f823e601f3d908101601f191682016040526107129190810190611f64565b90505f8151600161072391906120a1565b67ffffffffffffffff81111561073b5761073b611f1f565b60405190808252806020026020018201604052801561077457816020015b610761611845565b8152602001906001900390816107595790505b5090505f5b8251811015610e56575f876001600160a01b031663f6a44b388584815181106107a4576107a461202c565b60200260200101516040518263ffffffff1660e01b81526004016107d791906001600160a01b0391909116815260200190565b60e060405180830381865afa1580156107f2573d5f803e3d5ffd5b505050506040513d601f19601f8201168201806040525081019061081691906120b4565b90505f886001600160a01b031663247ac0636040518163ffffffff1660e01b8152600401602060405180830381865afa158015610855573d5f803e3d5ffd5b505050506040513d601f19601f820116820180604052508101906108799190612011565b905061089e8584815181106108905761089061202c565b60200260200101518b6113a0565b8484815181106108b0576108b061202c565b602090810291909101015152871561097857806001600160a01b031663b3596f078685815181106108e3576108e361202c565b60200260200101516040518263ffffffff1660e01b815260040161091691906001600160a01b0391909116815260200190565b602060405180830381865afa158015610931573d5f803e3d5ffd5b505050506040513d601f19601f820116820180604052508101906109559190612040565b8484815181106109675761096761202c565b60209081029190910101515160c001525b806001600160a01b03166392bf2be08685815181106109995761099961202c565b60200260200101516040518263ffffffff1660e01b81526004016109cc91906001600160a01b0391909116815260200190565b602060405180830381865afa1580156109e7573d5f803e3d5ffd5b505050506040513d601f19601f82011682018060405250810190610a0b9190612040565b848481518110610a1d57610a1d61202c565b60200260200101515f015160a0018181525050815f01516001600160a01b03166371ca337d6040518163ffffffff1660e01b8152600401602060405180830381865afa158015610a6f573d5f803e3d5ffd5b505050506040513d601f19601f82011682018060405250810190610a939190612040565b848481518110610aa557610aa561202c565b6020908102919091010151604001528151610ac0908b6113a0565b848481518110610ad257610ad261202c565b602002602001015160200181905250670de0b6b3a7640000848481518110610afc57610afc61202c565b60200260200101515f015160c00151858581518110610b1d57610b1d61202c565b602002602001015160400151610b33919061206b565b610b3d9190612082565b848481518110610b4f57610b4f61202c565b60200260200101516020015160c001818152505081848481518110610b7657610b7661202c565b602002602001015160600181905250848381518110610b9757610b9761202c565b60200260200101516001600160a01b031663313ce5676040518163ffffffff1660e01b8152600401602060405180830381865afa158015610bda573d5f803e3d5ffd5b505050506040513d601f19601f82011682018060405250810190610bfe9190612145565b610c0990600a612245565b610c17906305f5e10061206b565b825f01516001600160a01b031663ad7a672f6040518163ffffffff1660e01b8152600401602060405180830381865afa158015610c56573d5f803e3d5ffd5b505050506040513d601f19601f82011682018060405250810190610c7a9190612040565b858581518110610c8c57610c8c61202c565b60200260200101515f015160c00151670de0b6b3a7640000610cae919061206b565b610cb8919061206b565b610cc29190612082565b610ccc90876120a1565b95507f00000000000000000000000000000000000000000000000000000000000000006001600160a01b0316633fc8cef36040518163ffffffff1660e01b8152600401602060405180830381865afa158015610d2a573d5f803e3d5ffd5b505050506040513d601f19601f82011682018060405250810190610d4e9190612011565b6001600160a01b0316848481518110610d6957610d6961202c565b60200260200101515f01515f01516001600160a01b031603610e4c576040518060800160405280610d9a5f8d6113a0565b8152602001858581518110610db157610db161202c565b6020026020010151602001518152602001858581518110610dd457610dd461202c565b60200260200101516040015181526020018381525084865181518110610dfc57610dfc61202c565b6020026020010181905250838381518110610e1957610e1961202c565b60200260200101515f015160c0015184865181518110610e3b57610e3b61202c565b60209081029190910101515160c001525b5050600101610779565b50925050935093915050565b610e8d6040518060600160405280606081526020015f6001600160a01b031681526020015f81525090565b610e9783836102bb565b81526001600160a01b037f000000000000000000000000000000000000000000000000000000000000000016602082015243604082015292915050565b610edc6118b4565b6040516360e0792360e01b81526001600160a01b0384811660048301525f917f0000000000000000000000000000000000000000000000000000000000000000909116906360e0792390602401602060405180830381865afa158015610f44573d5f803e3d5ffd5b505050506040513d601f19601f82011682018060405250810190610f689190612011565b90506001600160a01b038116610f7e5750611194565b6001825260405160016236769560e01b031981526001600160a01b03868116600483015282169063ffc9896b9060240160a060405180830381865afa158015610fc9573d5f803e3d5ffd5b505050506040513d601f19601f82011682018060405250810190610fed9190612253565b60e087015260a08601526080850152606084015260c0830152604080516312bb9f2360e31b815290516001600160a01b038316916395dcf9189160048083019260209291908290030181865afa158015611049573d5f803e3d5ffd5b505050506040513d601f19601f8201168201806040525081019061106d9190612011565b6001600160a01b0316637c3a00fd6040518163ffffffff1660e01b8152600401602060405180830381865afa1580156110a8573d5f803e3d5ffd5b505050506040513d601f19601f820116820180604052508101906110cc9190612040565b6101008301526110dd8582856106ac565b60208401526101408301526110f281866113a0565b61012083015260405162b2d90760e41b81526001600160a01b0386811660048301527f000000000000000000000000000000000000000000000000000000000000000081166024830152821690630b2d907090604401602060405180830381865afa158015611163573d5f803e3d5ffd5b505050506040513d601f19601f820116820180604052508101906111879190612040565b6101208301516101000152505b9392505050565b604080515f8152602081019091526060908267ffffffffffffffff8111156111c5576111c5611f1f565b6040519080825280602002602001820160405280156111f857816020015b60608152602001906001900390816111e35790505b5091505f5b83811015611279576112543086868481811061121b5761121b61202c565b905060200281019061122d919061228f565b85604051602001611240939291906122f0565b604051602081830303815290604052611722565b8382815181106112665761126661202c565b60209081029190910101526001016111fd565b505092915050565b5f81900361128d575050565b60405163d47eed4560e01b81525f906001600160a01b037f0000000000000000000000000000000000000000000000000000000000000000169063d47eed45906112dd908690869060040161232d565b602060405180830381865afa1580156112f8573d5f803e3d5ffd5b505050506040513d601f19601f8201168201806040525081019061131c9190612040565b90507f00000000000000000000000000000000000000000000000000000000000000006001600160a01b031663ef9e5e288285856040518463ffffffff1660e01b815260040161136d92919061232d565b5f604051808303818588803b158015611384575f80fd5b505af1158015611396573d5f803e3d5ffd5b5050505050505050565b6113a861190d565b6001600160a01b03831661145157604051806101200160405280846001600160a01b0316815260200160405180604001604052806008815260200167457468657265756d60c01b81525081526020016040518060400160405280600381526020016208aa8960eb1b8152508152602001601260ff1681526020015f81526020015f801b81526020015f8152602001836001600160a01b03163181526020015f81525090506106a6565b604051806101200160405280846001600160a01b03168152602001846001600160a01b03166306fdde036040518163ffffffff1660e01b81526004015f60405180830381865afa1580156114a7573d5f803e3d5ffd5b505050506040513d5f823e601f3d908101601f191682016040526114ce91908101906123c5565b8152602001846001600160a01b03166395d89b416040518163ffffffff1660e01b81526004015f60405180830381865afa15801561150e573d5f803e3d5ffd5b505050506040513d5f823e601f3d908101601f1916820160405261153591908101906123c5565b8152602001846001600160a01b031663313ce5676040518163ffffffff1660e01b8152600401602060405180830381865afa158015611576573d5f803e3d5ffd5b505050506040513d601f19601f8201168201806040525081019061159a9190612145565b60ff168152602001846001600160a01b03166318160ddd6040518163ffffffff1660e01b8152600401602060405180830381865afa1580156115de573d5f803e3d5ffd5b505050506040513d601f19601f820116820180604052508101906116029190612040565b81525f60208201819052604080830191909152516370a0823160e01b81526001600160a01b0385811660048301526060909201918616906370a0823190602401602060405180830381865afa15801561165d573d5f803e3d5ffd5b505050506040513d601f19601f820116820180604052508101906116819190612040565b8152604051636eb1769f60e11b81526001600160a01b0385811660048301527f00000000000000000000000000000000000000000000000000000000000000008116602483015260209092019186169063dd62ed3e90604401602060405180830381865afa1580156116f5573d5f803e3d5ffd5b505050506040513d601f19601f820116820180604052508101906117199190612040565b90529392505050565b60605f80846001600160a01b03168460405161173e9190612454565b5f60405180830381855af49150503d805f8114611776576040519150601f19603f3d011682016040523d82523d5f602084013e61177b565b606091505b509150915061178b858383611794565b95945050505050565b6060826117a9576117a4826117f4565b611194565b81511580156117c057506001600160a01b0384163b155b156117ed57604051639996b31560e01b81526001600160a01b038516600482015260240160405180910390fd5b5080611194565b8051156118045780518082602001fd5b60405163d6bda27560e01b815260040160405180910390fd5b50565b604051806040016040528061183361190d565b81526020016118406118b4565b905290565b604051806080016040528061185861190d565b815260200161186561190d565b81526020015f81526020016118406040518060e001604052805f6001600160a01b031681526020015f81526020015f81526020015f81526020015f81526020015f81526020015f151581525090565b6040518061016001604052805f151581526020015f81526020015f81526020015f81526020015f81526020015f81526020015f81526020015f81526020015f815260200161190061190d565b8152602001606081525090565b6040518061012001604052805f6001600160a01b0316815260200160608152602001606081526020015f60ff1681526020015f81526020015f80191681526020015f81526020015f81526020015f81525090565b6001600160a01b038116811461181d575f80fd5b801515811461181d575f80fd5b5f8060408385031215611993575f80fd5b823561199e81611961565b915060208301356119ae81611975565b809150509250929050565b5f81518084528060208401602086015e5f602082860101526020601f19601f83011685010191505092915050565b80516001600160a01b031682525f6101206020830151816020860152611a0f828601826119b9565b91505060408301518482036040860152611a2982826119b9565b9150506060830151611a40606086018260ff169052565b506080830151608085015260a083015160a085015260c083015160c085015260e083015160e08501526101008084015181860152508091505092915050565b5f82825180855260208086019550808260051b8401018186015f5b84811015611b5557601f1986840301895281516101408151818652611ac1828701826119e7565b9150508582015185820387870152611ad982826119e7565b6040848101518882015260609485015180516001600160a01b0316868a0152898101516080808b01919091529181015160a0808b01919091529581015160c0808b01919091529181015160e08a015294850151610100890152909301511515610120909601959095525098840198925090830190600101611a9a565b5090979650505050505050565b8051151582525f6101606020830151602085015260408301516040850152606083015160608501526080830151608085015260a083015160a085015260c083015160c085015260e083015160e0850152610100808401518186015250610120808401518282870152611bd6838701826119e7565b925050506101408084015185830382870152611bf28382611a7f565b9695505050505050565b5f82825180855260208086019550808260051b8401018186015f5b84811015611b5557601f19868403018952815160408151818652611c3d828701826119e7565b91505085820151915084810386860152611c578183611b62565b9a86019a9450505090830190600101611c17565b602081525f6111946020830184611bfc565b5f805f60608486031215611c8f575f80fd5b8335611c9a81611961565b92506020840135611caa81611961565b91506040840135611cba81611975565b809150509250925092565b5f6040808301604084528086518083526060925060608601915060608160051b8701016020808a015f5b84811015611da357605f198a850301865281516101408151818752611d16828801826119e7565b9150508482015186820386880152611d2e82826119e7565b838c0151888d0152928a015180516001600160a01b03168b890152868101516080808a0191909152818d015160a0808b0191909152828d015160c0808c01919091529183015160e08b01528201516101008a015201511515610120909701969096525095830195935090820190600101611cef565b50509690960196909652509295945050505050565b602081525f825160606020840152611dd36080840182611bfc565b60208501516001600160a01b0316604085810191909152909401516060909301929092525090919050565b602081525f6111946020830184611b62565b5f8060208385031215611e21575f80fd5b823567ffffffffffffffff80821115611e38575f80fd5b818501915085601f830112611e4b575f80fd5b813581811115611e59575f80fd5b8660208260051b8501011115611e6d575f80fd5b60209290920196919550909350505050565b5f60208083016020845280855180835260408601915060408160051b8701019250602087015f5b82811015611ed457603f19888603018452611ec28583516119b9565b94509285019290850190600101611ea6565b5092979650505050505050565b5f8060408385031215611ef2575f80fd5b8235611efd81611961565b915060208301356119ae81611961565b602081525f61119460208301846119e7565b634e487b7160e01b5f52604160045260245ffd5b604051601f8201601f1916810167ffffffffffffffff81118282101715611f5c57611f5c611f1f565b604052919050565b5f6020808385031215611f75575f80fd5b825167ffffffffffffffff80821115611f8c575f80fd5b818501915085601f830112611f9f575f80fd5b815181811115611fb157611fb1611f1f565b8060051b9150611fc2848301611f33565b8181529183018401918481019088841115611fdb575f80fd5b938501935b838510156120055784519250611ff583611961565b8282529385019390850190611fe0565b98975050505050505050565b5f60208284031215612021575f80fd5b815161119481611961565b634e487b7160e01b5f52603260045260245ffd5b5f60208284031215612050575f80fd5b5051919050565b634e487b7160e01b5f52601160045260245ffd5b80820281158282048414176106a6576106a6612057565b5f8261209c57634e487b7160e01b5f52601260045260245ffd5b500490565b808201808211156106a6576106a6612057565b5f60e082840312156120c4575f80fd5b60405160e0810181811067ffffffffffffffff821117156120e7576120e7611f1f565b60405282516120f581611961565b808252506020830151602082015260408301516040820152606083015160608201526080830151608082015260a083015160a082015260c083015161213981611975565b60c08201529392505050565b5f60208284031215612155575f80fd5b815160ff81168114611194575f80fd5b600181815b8085111561219f57815f190482111561218557612185612057565b8085161561219257918102915b93841c939080029061216a565b509250929050565b5f826121b5575060016106a6565b816121c157505f6106a6565b81600181146121d757600281146121e1576121fd565b60019150506106a6565b60ff8411156121f2576121f2612057565b50506001821b6106a6565b5060208310610133831016604e8410600b8410161715612220575081810a6106a6565b61222a8383612165565b805f190482111561223d5761223d612057565b029392505050565b5f61119460ff8416836121a7565b5f805f805f60a08688031215612267575f80fd5b5050835160208501516040860151606087015160809097015192989197509594509092509050565b5f808335601e198436030181126122a4575f80fd5b83018035915067ffffffffffffffff8211156122be575f80fd5b6020019150368190038213156122d2575f80fd5b9250929050565b5f81518060208401855e5f93019283525090919050565b828482375f8382015f8152611bf281856122d9565b81835281816020850137505f828201602090810191909152601f909101601f19169091010190565b60208082528181018390525f906040600585901b8401810190840186845b878110156123b857868403603f190183528135368a9003601e19018112612370575f80fd5b8901858101903567ffffffffffffffff81111561238b575f80fd5b803603821315612399575f80fd5b6123a4868284612305565b95505050918401919084019060010161234b565b5091979650505050505050565b5f60208083850312156123d6575f80fd5b825167ffffffffffffffff808211156123ed575f80fd5b818501915085601f830112612400575f80fd5b81518181111561241257612412611f1f565b612424601f8201601f19168501611f33565b91508082528684828501011115612439575f80fd5b808484018584015e5f90820190930192909252509392505050565b5f61119482846122d956fea2646970667358221220f6a4ab63167d55fffdd6f46340ca39a26b097e1a63bf4787a9fed2dd8d63989f64736f6c63430008190033","linkReferences":{}},"methodIdentifiers":{"getAllData(address,bool)":"68634822","getAssetData(address,address)":"e90f8c1b","getMarketData(address,address,bool)":"7dd4fbcd","getSynths(address,bool)":"52128213","getVaults(address,address,bool)":"54765f32","marketsPlugin()":"2443de4c","multicall(bytes[])":"ac9650d8","pool()":"16f0115b","pyth()":"f98d06f0","router()":"f887ea40","updatePythData(bytes[])":"bcfb99fa"},"id":77}