{"abi":[{"type":"constructor","inputs":[{"name":"_marketsPlugin","type":"address","internalType":"address"},{"name":"_router","type":"address","internalType":"address"}],"stateMutability":"payable"},{"type":"receive","stateMutability":"payable"},{"type":"function","name":"getAllData","inputs":[{"name":"user","type":"address","internalType":"address"},{"name":"safe","type":"bool","internalType":"bool"}],"outputs":[{"name":"data","type":"tuple","internalType":"struct UIDataProvider.UIData","components":[{"name":"synths","type":"tuple[]","internalType":"struct UIDataProvider.SynthData[]","components":[{"name":"synth","type":"tuple","internalType":"struct UIDataProvider.AssetData","components":[{"name":"id","type":"address","internalType":"address"},{"name":"name","type":"string","internalType":"string"},{"name":"symbol","type":"string","internalType":"string"},{"name":"decimals","type":"uint8","internalType":"uint8"},{"name":"totalSupply","type":"uint256","internalType":"uint256"},{"name":"pythId","type":"bytes32","internalType":"bytes32"},{"name":"price","type":"uint256","internalType":"uint256"},{"name":"walletBalance","type":"uint256","internalType":"uint256"},{"name":"approvalToRouter","type":"uint256","internalType":"uint256"}]},{"name":"market","type":"tuple","internalType":"struct UIDataProvider.MarketData","components":[{"name":"exists","type":"bool","internalType":"bool"},{"name":"totalAssetsUSD","type":"uint256","internalType":"uint256"},{"name":"totalDebtUSD","type":"uint256","internalType":"uint256"},{"name":"userTotalBalanceUSD","type":"uint256","internalType":"uint256"},{"name":"userAdjustedBalanceUSD","type":"uint256","internalType":"uint256"},{"name":"userThresholdBalanceUSD","type":"uint256","internalType":"uint256"},{"name":"userDebtUSD","type":"uint256","internalType":"uint256"},{"name":"accountHealth","type":"uint256","internalType":"uint256"},{"name":"interestRate","type":"uint256","internalType":"uint256"},{"name":"debtToken","type":"tuple","internalType":"struct UIDataProvider.AssetData","components":[{"name":"id","type":"address","internalType":"address"},{"name":"name","type":"string","internalType":"string"},{"name":"symbol","type":"string","internalType":"string"},{"name":"decimals","type":"uint8","internalType":"uint8"},{"name":"totalSupply","type":"uint256","internalType":"uint256"},{"name":"pythId","type":"bytes32","internalType":"bytes32"},{"name":"price","type":"uint256","internalType":"uint256"},{"name":"walletBalance","type":"uint256","internalType":"uint256"},{"name":"approvalToRouter","type":"uint256","internalType":"uint256"}]},{"name":"vaults","type":"tuple[]","internalType":"struct UIDataProvider.VaultData[]","components":[{"name":"asset","type":"tuple","internalType":"struct UIDataProvider.AssetData","components":[{"name":"id","type":"address","internalType":"address"},{"name":"name","type":"string","internalType":"string"},{"name":"symbol","type":"string","internalType":"string"},{"name":"decimals","type":"uint8","internalType":"uint8"},{"name":"totalSupply","type":"uint256","internalType":"uint256"},{"name":"pythId","type":"bytes32","internalType":"bytes32"},{"name":"price","type":"uint256","internalType":"uint256"},{"name":"walletBalance","type":"uint256","internalType":"uint256"},{"name":"approvalToRouter","type":"uint256","internalType":"uint256"}]},{"name":"vaultToken","type":"tuple","internalType":"struct UIDataProvider.AssetData","components":[{"name":"id","type":"address","internalType":"address"},{"name":"name","type":"string","internalType":"string"},{"name":"symbol","type":"string","internalType":"string"},{"name":"decimals","type":"uint8","internalType":"uint8"},{"name":"totalSupply","type":"uint256","internalType":"uint256"},{"name":"pythId","type":"bytes32","internalType":"bytes32"},{"name":"price","type":"uint256","internalType":"uint256"},{"name":"walletBalance","type":"uint256","internalType":"uint256"},{"name":"approvalToRouter","type":"uint256","internalType":"uint256"}]},{"name":"ratio","type":"uint256","internalType":"uint256"},{"name":"config","type":"tuple","internalType":"struct Reserve.Collateral","components":[{"name":"vault","type":"address","internalType":"address"},{"name":"baseLTV","type":"uint256","internalType":"uint256"},{"name":"liquidationThreshold","type":"uint256","internalType":"uint256"},{"name":"liquidationBonus","type":"uint256","internalType":"uint256"},{"name":"liquidationFee","type":"uint256","internalType":"uint256"},{"name":"maxDeposits","type":"uint256","internalType":"uint256"},{"name":"active","type":"bool","internalType":"bool"}]}]}]}]},{"name":"router","type":"address","internalType":"address"},{"name":"blockNumber","type":"uint256","internalType":"uint256"}]}],"stateMutability":"view"},{"type":"function","name":"getAssetData","inputs":[{"name":"asset","type":"address","internalType":"address"},{"name":"user","type":"address","internalType":"address"}],"outputs":[{"name":"data","type":"tuple","internalType":"struct UIDataProvider.AssetData","components":[{"name":"id","type":"address","internalType":"address"},{"name":"name","type":"string","internalType":"string"},{"name":"symbol","type":"string","internalType":"string"},{"name":"decimals","type":"uint8","internalType":"uint8"},{"name":"totalSupply","type":"uint256","internalType":"uint256"},{"name":"pythId","type":"bytes32","internalType":"bytes32"},{"name":"price","type":"uint256","internalType":"uint256"},{"name":"walletBalance","type":"uint256","internalType":"uint256"},{"name":"approvalToRouter","type":"uint256","internalType":"uint256"}]}],"stateMutability":"view"},{"type":"function","name":"getMarketData","inputs":[{"name":"user","type":"address","internalType":"address"},{"name":"synth","type":"address","internalType":"address"},{"name":"safe","type":"bool","internalType":"bool"}],"outputs":[{"name":"data","type":"tuple","internalType":"struct UIDataProvider.MarketData","components":[{"name":"exists","type":"bool","internalType":"bool"},{"name":"totalAssetsUSD","type":"uint256","internalType":"uint256"},{"name":"totalDebtUSD","type":"uint256","internalType":"uint256"},{"name":"userTotalBalanceUSD","type":"uint256","internalType":"uint256"},{"name":"userAdjustedBalanceUSD","type":"uint256","internalType":"uint256"},{"name":"userThresholdBalanceUSD","type":"uint256","internalType":"uint256"},{"name":"userDebtUSD","type":"uint256","internalType":"uint256"},{"name":"accountHealth","type":"uint256","internalType":"uint256"},{"name":"interestRate","type":"uint256","internalType":"uint256"},{"name":"debtToken","type":"tuple","internalType":"struct UIDataProvider.AssetData","components":[{"name":"id","type":"address","internalType":"address"},{"name":"name","type":"string","internalType":"string"},{"name":"symbol","type":"string","internalType":"string"},{"name":"decimals","type":"uint8","internalType":"uint8"},{"name":"totalSupply","type":"uint256","internalType":"uint256"},{"name":"pythId","type":"bytes32","internalType":"bytes32"},{"name":"price","type":"uint256","internalType":"uint256"},{"name":"walletBalance","type":"uint256","internalType":"uint256"},{"name":"approvalToRouter","type":"uint256","internalType":"uint256"}]},{"name":"vaults","type":"tuple[]","internalType":"struct UIDataProvider.VaultData[]","components":[{"name":"asset","type":"tuple","internalType":"struct UIDataProvider.AssetData","components":[{"name":"id","type":"address","internalType":"address"},{"name":"name","type":"string","internalType":"string"},{"name":"symbol","type":"string","internalType":"string"},{"name":"decimals","type":"uint8","internalType":"uint8"},{"name":"totalSupply","type":"uint256","internalType":"uint256"},{"name":"pythId","type":"bytes32","internalType":"bytes32"},{"name":"price","type":"uint256","internalType":"uint256"},{"name":"walletBalance","type":"uint256","internalType":"uint256"},{"name":"approvalToRouter","type":"uint256","internalType":"uint256"}]},{"name":"vaultToken","type":"tuple","internalType":"struct UIDataProvider.AssetData","components":[{"name":"id","type":"address","internalType":"address"},{"name":"name","type":"string","internalType":"string"},{"name":"symbol","type":"string","internalType":"string"},{"name":"decimals","type":"uint8","internalType":"uint8"},{"name":"totalSupply","type":"uint256","internalType":"uint256"},{"name":"pythId","type":"bytes32","internalType":"bytes32"},{"name":"price","type":"uint256","internalType":"uint256"},{"name":"walletBalance","type":"uint256","internalType":"uint256"},{"name":"approvalToRouter","type":"uint256","internalType":"uint256"}]},{"name":"ratio","type":"uint256","internalType":"uint256"},{"name":"config","type":"tuple","internalType":"struct Reserve.Collateral","components":[{"name":"vault","type":"address","internalType":"address"},{"name":"baseLTV","type":"uint256","internalType":"uint256"},{"name":"liquidationThreshold","type":"uint256","internalType":"uint256"},{"name":"liquidationBonus","type":"uint256","internalType":"uint256"},{"name":"liquidationFee","type":"uint256","internalType":"uint256"},{"name":"maxDeposits","type":"uint256","internalType":"uint256"},{"name":"active","type":"bool","internalType":"bool"}]}]}]}],"stateMutability":"view"},{"type":"function","name":"getSynths","inputs":[{"name":"user","type":"address","internalType":"address"},{"name":"safe","type":"bool","internalType":"bool"}],"outputs":[{"name":"","type":"tuple[]","internalType":"struct UIDataProvider.SynthData[]","components":[{"name":"synth","type":"tuple","internalType":"struct UIDataProvider.AssetData","components":[{"name":"id","type":"address","internalType":"address"},{"name":"name","type":"string","internalType":"string"},{"name":"symbol","type":"string","internalType":"string"},{"name":"decimals","type":"uint8","internalType":"uint8"},{"name":"totalSupply","type":"uint256","internalType":"uint256"},{"name":"pythId","type":"bytes32","internalType":"bytes32"},{"name":"price","type":"uint256","internalType":"uint256"},{"name":"walletBalance","type":"uint256","internalType":"uint256"},{"name":"approvalToRouter","type":"uint256","internalType":"uint256"}]},{"name":"market","type":"tuple","internalType":"struct UIDataProvider.MarketData","components":[{"name":"exists","type":"bool","internalType":"bool"},{"name":"totalAssetsUSD","type":"uint256","internalType":"uint256"},{"name":"totalDebtUSD","type":"uint256","internalType":"uint256"},{"name":"userTotalBalanceUSD","type":"uint256","internalType":"uint256"},{"name":"userAdjustedBalanceUSD","type":"uint256","internalType":"uint256"},{"name":"userThresholdBalanceUSD","type":"uint256","internalType":"uint256"},{"name":"userDebtUSD","type":"uint256","internalType":"uint256"},{"name":"accountHealth","type":"uint256","internalType":"uint256"},{"name":"interestRate","type":"uint256","internalType":"uint256"},{"name":"debtToken","type":"tuple","internalType":"struct UIDataProvider.AssetData","components":[{"name":"id","type":"address","internalType":"address"},{"name":"name","type":"string","internalType":"string"},{"name":"symbol","type":"string","internalType":"string"},{"name":"decimals","type":"uint8","internalType":"uint8"},{"name":"totalSupply","type":"uint256","internalType":"uint256"},{"name":"pythId","type":"bytes32","internalType":"bytes32"},{"name":"price","type":"uint256","internalType":"uint256"},{"name":"walletBalance","type":"uint256","internalType":"uint256"},{"name":"approvalToRouter","type":"uint256","internalType":"uint256"}]},{"name":"vaults","type":"tuple[]","internalType":"struct UIDataProvider.VaultData[]","components":[{"name":"asset","type":"tuple","internalType":"struct UIDataProvider.AssetData","components":[{"name":"id","type":"address","internalType":"address"},{"name":"name","type":"string","internalType":"string"},{"name":"symbol","type":"string","internalType":"string"},{"name":"decimals","type":"uint8","internalType":"uint8"},{"name":"totalSupply","type":"uint256","internalType":"uint256"},{"name":"pythId","type":"bytes32","internalType":"bytes32"},{"name":"price","type":"uint256","internalType":"uint256"},{"name":"walletBalance","type":"uint256","internalType":"uint256"},{"name":"approvalToRouter","type":"uint256","internalType":"uint256"}]},{"name":"vaultToken","type":"tuple","internalType":"struct UIDataProvider.AssetData","components":[{"name":"id","type":"address","internalType":"address"},{"name":"name","type":"string","internalType":"string"},{"name":"symbol","type":"string","internalType":"string"},{"name":"decimals","type":"uint8","internalType":"uint8"},{"name":"totalSupply","type":"uint256","internalType":"uint256"},{"name":"pythId","type":"bytes32","internalType":"bytes32"},{"name":"price","type":"uint256","internalType":"uint256"},{"name":"walletBalance","type":"uint256","internalType":"uint256"},{"name":"approvalToRouter","type":"uint256","internalType":"uint256"}]},{"name":"ratio","type":"uint256","internalType":"uint256"},{"name":"config","type":"tuple","internalType":"struct Reserve.Collateral","components":[{"name":"vault","type":"address","internalType":"address"},{"name":"baseLTV","type":"uint256","internalType":"uint256"},{"name":"liquidationThreshold","type":"uint256","internalType":"uint256"},{"name":"liquidationBonus","type":"uint256","internalType":"uint256"},{"name":"liquidationFee","type":"uint256","internalType":"uint256"},{"name":"maxDeposits","type":"uint256","internalType":"uint256"},{"name":"active","type":"bool","internalType":"bool"}]}]}]}]}],"stateMutability":"view"},{"type":"function","name":"getVaults","inputs":[{"name":"user","type":"address","internalType":"address"},{"name":"market","type":"address","internalType":"contract Market"},{"name":"safe","type":"bool","internalType":"bool"}],"outputs":[{"name":"","type":"tuple[]","internalType":"struct UIDataProvider.VaultData[]","components":[{"name":"asset","type":"tuple","internalType":"struct UIDataProvider.AssetData","components":[{"name":"id","type":"address","internalType":"address"},{"name":"name","type":"string","internalType":"string"},{"name":"symbol","type":"string","internalType":"string"},{"name":"decimals","type":"uint8","internalType":"uint8"},{"name":"totalSupply","type":"uint256","internalType":"uint256"},{"name":"pythId","type":"bytes32","internalType":"bytes32"},{"name":"price","type":"uint256","internalType":"uint256"},{"name":"walletBalance","type":"uint256","internalType":"uint256"},{"name":"approvalToRouter","type":"uint256","internalType":"uint256"}]},{"name":"vaultToken","type":"tuple","internalType":"struct UIDataProvider.AssetData","components":[{"name":"id","type":"address","internalType":"address"},{"name":"name","type":"string","internalType":"string"},{"name":"symbol","type":"string","internalType":"string"},{"name":"decimals","type":"uint8","internalType":"uint8"},{"name":"totalSupply","type":"uint256","internalType":"uint256"},{"name":"pythId","type":"bytes32","internalType":"bytes32"},{"name":"price","type":"uint256","internalType":"uint256"},{"name":"walletBalance","type":"uint256","internalType":"uint256"},{"name":"approvalToRouter","type":"uint256","internalType":"uint256"}]},{"name":"ratio","type":"uint256","internalType":"uint256"},{"name":"config","type":"tuple","internalType":"struct Reserve.Collateral","components":[{"name":"vault","type":"address","internalType":"address"},{"name":"baseLTV","type":"uint256","internalType":"uint256"},{"name":"liquidationThreshold","type":"uint256","internalType":"uint256"},{"name":"liquidationBonus","type":"uint256","internalType":"uint256"},{"name":"liquidationFee","type":"uint256","internalType":"uint256"},{"name":"maxDeposits","type":"uint256","internalType":"uint256"},{"name":"active","type":"bool","internalType":"bool"}]}]},{"name":"totalAssetsUSD","type":"uint256","internalType":"uint256"}],"stateMutability":"view"},{"type":"function","name":"marketsPlugin","inputs":[],"outputs":[{"name":"","type":"address","internalType":"contract MarketsPlugin"}],"stateMutability":"view"},{"type":"function","name":"multicall","inputs":[{"name":"data","type":"bytes[]","internalType":"bytes[]"}],"outputs":[{"name":"results","type":"bytes[]","internalType":"bytes[]"}],"stateMutability":"nonpayable"},{"type":"function","name":"pool","inputs":[],"outputs":[{"name":"","type":"address","internalType":"contract RxPool"}],"stateMutability":"view"},{"type":"function","name":"pyth","inputs":[],"outputs":[{"name":"","type":"address","internalType":"contract IPyth"}],"stateMutability":"view"},{"type":"function","name":"router","inputs":[],"outputs":[{"name":"","type":"address","internalType":"address"}],"stateMutability":"view"},{"type":"function","name":"updatePythData","inputs":[{"name":"updateData","type":"bytes[]","internalType":"bytes[]"}],"outputs":[],"stateMutability":"nonpayable"},{"type":"error","name":"AddressEmptyCode","inputs":[{"name":"target","type":"address","internalType":"address"}]},{"type":"error","name":"FailedInnerCall","inputs":[]}],"bytecode":{"object":"0x61010060405260405161262738038061262783398101604081905261002391610131565b6001600160a01b03821660a08190526040805163636fc28b60e01b8152905163636fc28b916004808201926020929091908290030181865afa15801561006d573d6000803e3d6000fd5b505050506040513d601f19601f82011682018060405250810190610091919061016b565b6001600160a01b03908116608052811660e081905260408051630f98d06f60e41b8152905163f98d06f0916004808201926020929091908290030181865afa1580156100e1573d6000803e3d6000fd5b505050506040513d601f19601f82011682018060405250810190610105919061016b565b6001600160a01b031660c0525061018f9050565b6001600160a01b038116811461012e57600080fd5b50565b6000806040838503121561014457600080fd5b825161014f81610119565b602084015190925061016081610119565b809150509250929050565b60006020828403121561017d57600080fd5b815161018881610119565b9392505050565b60805160a05160c05160e0516124286101ff6000396000818161027401528181610d0b01528181610ee601526116710152600081816102a80152818161125c01526112d801526000818161010f0152610f4101526000818160be015281816102d001526103b201526124286000f3fe6080604052600436106100a05760003560e01c80637dd4fbcd116100645780637dd4fbcd146101b9578063ac9650d8146101e6578063bcfb99fa14610213578063e90f8c1b14610235578063f887ea4014610262578063f98d06f01461029657600080fd5b806316f0115b146100ac5780632443de4c146100fd578063521282131461013157806354765f321461015e578063686348221461018c57600080fd5b366100a757005b600080fd5b3480156100b857600080fd5b506100e07f000000000000000000000000000000000000000000000000000000000000000081565b6040516001600160a01b0390911681526020015b60405180910390f35b34801561010957600080fd5b506100e07f000000000000000000000000000000000000000000000000000000000000000081565b34801561013d57600080fd5b5061015161014c366004611971565b6102ca565b6040516100f49190611c84565b34801561016a57600080fd5b5061017e610179366004611c97565b6106cb565b6040516100f4929190611ce2565b34801561019857600080fd5b506101ac6101a7366004611971565b610ea3565b6040516100f49190611d04565b3480156101c557600080fd5b506101d96101d4366004611c97565b610f17565b6040516100f49190611d4b565b3480156101f257600080fd5b50610206610201366004611d5e565b61114d565b6040516100f49190611dd3565b34801561021f57600080fd5b5061023361022e366004611d5e565b611235565b005b34801561024157600080fd5b50610255610250366004611e37565b61135c565b6040516100f49190611e65565b34801561026e57600080fd5b506100e07f000000000000000000000000000000000000000000000000000000000000000081565b3480156102a257600080fd5b506100e07f000000000000000000000000000000000000000000000000000000000000000081565b606060007f00000000000000000000000000000000000000000000000000000000000000006001600160a01b03166319b12aec6040518163ffffffff1660e01b8152600401600060405180830381865afa15801561032c573d6000803e3d6000fd5b505050506040513d6000823e601f3d908101601f191682016040526103549190810190611ebf565b90506000815167ffffffffffffffff81111561037257610372611e78565b6040519080825280602002602001820160405280156103ab57816020015b6103986117f5565b8152602001906001900390816103905790505b50905060007f00000000000000000000000000000000000000000000000000000000000000006001600160a01b031663833b1fce6040518163ffffffff1660e01b8152600401602060405180830381865afa15801561040e573d6000803e3d6000fd5b505050506040513d601f19601f820116820180604052508101906104329190611f71565b905060005b83518110156106be57604051806040016040528061046e86848151811061046057610460611f8e565b60200260200101518a61135c565b81526020016104978987858151811061048957610489611f8e565b60200260200101518a610f17565b8152508382815181106104ac576104ac611f8e565b6020026020010181905250851561057557816001600160a01b031663b3596f078583815181106104de576104de611f8e565b60200260200101516040518263ffffffff1660e01b815260040161051191906001600160a01b0391909116815260200190565b602060405180830381865afa15801561052e573d6000803e3d6000fd5b505050506040513d601f19601f820116820180604052508101906105529190611fa4565b83828151811061056457610564611f8e565b60209081029190910101515160c001525b816001600160a01b03166392bf2be085838151811061059657610596611f8e565b60200260200101516040518263ffffffff1660e01b81526004016105c991906001600160a01b0391909116815260200190565b602060405180830381865afa1580156105e6573d6000803e3d6000fd5b505050506040513d601f19601f8201168201806040525081019061060a9190611fa4565b83828151811061061c5761061c611f8e565b60200260200101516000015160a00181815250506305f5e10083828151811061064757610647611f8e565b60200260200101516000015160c0015184838151811061066957610669611f8e565b6020026020010151602001516101200151608001516106889190611fd3565b6106929190611fea565b8382815181106106a4576106a4611f8e565b602090810291909101810151015160400152600101610437565b5090925050505b92915050565b6060600080846001600160a01b031663a41c8c0b6040518163ffffffff1660e01b8152600401600060405180830381865afa15801561070e573d6000803e3d6000fd5b505050506040513d6000823e601f3d908101601f191682016040526107369190810190611ebf565b9050600081516001610748919061200c565b67ffffffffffffffff81111561076057610760611e78565b60405190808252806020026020018201604052801561079957816020015b61078661181a565b81526020019060019003908161077e5790505b50905060005b8251811015610e97576000876001600160a01b031663f6a44b388584815181106107cb576107cb611f8e565b60200260200101516040518263ffffffff1660e01b81526004016107fe91906001600160a01b0391909116815260200190565b60e060405180830381865afa15801561081b573d6000803e3d6000fd5b505050506040513d601f19601f8201168201806040525081019061083f919061201f565b90506000886001600160a01b0316637dc0d1d06040518163ffffffff1660e01b8152600401602060405180830381865afa158015610881573d6000803e3d6000fd5b505050506040513d601f19601f820116820180604052508101906108a59190611f71565b90506108ca8584815181106108bc576108bc611f8e565b60200260200101518b61135c565b8484815181106108dc576108dc611f8e565b60209081029190910101515287156109a657806001600160a01b031663b3596f0786858151811061090f5761090f611f8e565b60200260200101516040518263ffffffff1660e01b815260040161094291906001600160a01b0391909116815260200190565b602060405180830381865afa15801561095f573d6000803e3d6000fd5b505050506040513d601f19601f820116820180604052508101906109839190611fa4565b84848151811061099557610995611f8e565b60209081029190910101515160c001525b806001600160a01b03166392bf2be08685815181106109c7576109c7611f8e565b60200260200101516040518263ffffffff1660e01b81526004016109fa91906001600160a01b0391909116815260200190565b602060405180830381865afa158015610a17573d6000803e3d6000fd5b505050506040513d601f19601f82011682018060405250810190610a3b9190611fa4565b848481518110610a4d57610a4d611f8e565b60200260200101516000015160a001818152505081600001516001600160a01b03166371ca337d6040518163ffffffff1660e01b8152600401602060405180830381865afa158015610aa3573d6000803e3d6000fd5b505050506040513d601f19601f82011682018060405250810190610ac79190611fa4565b848481518110610ad957610ad9611f8e565b6020908102919091010151604001528151610af4908b61135c565b848481518110610b0657610b06611f8e565b602002602001015160200181905250670de0b6b3a7640000848481518110610b3057610b30611f8e565b60200260200101516000015160c00151858581518110610b5257610b52611f8e565b602002602001015160400151610b689190611fd3565b610b729190611fea565b848481518110610b8457610b84611f8e565b60200260200101516020015160c001818152505081848481518110610bab57610bab611f8e565b602002602001015160600181905250848381518110610bcc57610bcc611f8e565b60200260200101516001600160a01b031663313ce5676040518163ffffffff1660e01b8152600401602060405180830381865afa158015610c11573d6000803e3d6000fd5b505050506040513d601f19601f82011682018060405250810190610c3591906120b2565b610c4090600a6121b9565b610c4e906305f5e100611fd3565b82600001516001600160a01b031663ad7a672f6040518163ffffffff1660e01b8152600401602060405180830381865afa158015610c90573d6000803e3d6000fd5b505050506040513d601f19601f82011682018060405250810190610cb49190611fa4565b858581518110610cc657610cc6611f8e565b60200260200101516000015160c00151670de0b6b3a7640000610ce99190611fd3565b610cf39190611fd3565b610cfd9190611fea565b610d07908761200c565b95507f00000000000000000000000000000000000000000000000000000000000000006001600160a01b0316633fc8cef36040518163ffffffff1660e01b8152600401602060405180830381865afa158015610d67573d6000803e3d6000fd5b505050506040513d601f19601f82011682018060405250810190610d8b9190611f71565b6001600160a01b0316848481518110610da657610da6611f8e565b602002602001015160000151600001516001600160a01b031603610e8d576040518060800160405280610dda60008d61135c565b8152602001858581518110610df157610df1611f8e565b6020026020010151602001518152602001858581518110610e1457610e14611f8e565b60200260200101516040015181526020018381525084865181518110610e3c57610e3c611f8e565b6020026020010181905250838381518110610e5957610e59611f8e565b60200260200101516000015160c0015184865181518110610e7c57610e7c611f8e565b60209081029190910101515160c001525b505060010161079f565b50925050935093915050565b610ed060405180606001604052806060815260200160006001600160a01b03168152602001600081525090565b610eda83836102ca565b81526001600160a01b037f000000000000000000000000000000000000000000000000000000000000000016602082015243604082015292915050565b610f1f611891565b6040516360e0792360e01b81526001600160a01b0384811660048301526000917f0000000000000000000000000000000000000000000000000000000000000000909116906360e0792390602401602060405180830381865afa158015610f8a573d6000803e3d6000fd5b505050506040513d601f19601f82011682018060405250810190610fae9190611f71565b90506001600160a01b038116610fc45750611146565b6001825260405160016236769560e01b031981526001600160a01b03868116600483015282169063ffc9896b9060240160a060405180830381865afa158015611011573d6000803e3d6000fd5b505050506040513d601f19601f8201168201806040525081019061103591906121c8565b60e087015260a08601526080850152606084015260c0830152604080516312bb9f2360e31b815290516001600160a01b038316916395dcf9189160048083019260209291908290030181865afa158015611093573d6000803e3d6000fd5b505050506040513d601f19601f820116820180604052508101906110b79190611f71565b6001600160a01b0316637c3a00fd6040518163ffffffff1660e01b8152600401602060405180830381865afa1580156110f4573d6000803e3d6000fd5b505050506040513d601f19601f820116820180604052508101906111189190611fa4565b6101008301526111298582856106cb565b602084015261014083015261113e818661135c565b610120830152505b9392505050565b6040805160008152602081019091526060908267ffffffffffffffff81111561117857611178611e78565b6040519080825280602002602001820160405280156111ab57816020015b60608152602001906001900390816111965790505b50915060005b8381101561122d57611208308686848181106111cf576111cf611f8e565b90506020028101906111e19190612208565b856040516020016111f493929190612256565b6040516020818303038152906040526116f3565b83828151811061121a5761121a611f8e565b60209081029190910101526001016111b1565b505092915050565b6000819003611242575050565b60405163d47eed4560e01b81526000906001600160a01b037f0000000000000000000000000000000000000000000000000000000000000000169063d47eed459061129390869086906004016122a6565b602060405180830381865afa1580156112b0573d6000803e3d6000fd5b505050506040513d601f19601f820116820180604052508101906112d49190611fa4565b90507f00000000000000000000000000000000000000000000000000000000000000006001600160a01b031663ef9e5e288285856040518463ffffffff1660e01b81526004016113259291906122a6565b6000604051808303818588803b15801561133e57600080fd5b505af1158015611352573d6000803e3d6000fd5b5050505050505050565b6113646118f3565b6001600160a01b03831661141157604051806101200160405280846001600160a01b0316815260200160405180604001604052806008815260200167457468657265756d60c01b81525081526020016040518060400160405280600381526020016208aa8960eb1b8152508152602001601260ff168152602001600081526020016000801b815260200160008152602001836001600160a01b0316318152602001600081525090506106c5565b604051806101200160405280846001600160a01b03168152602001846001600160a01b03166306fdde036040518163ffffffff1660e01b8152600401600060405180830381865afa15801561146a573d6000803e3d6000fd5b505050506040513d6000823e601f3d908101601f191682016040526114929190810190612342565b8152602001846001600160a01b03166395d89b416040518163ffffffff1660e01b8152600401600060405180830381865afa1580156114d5573d6000803e3d6000fd5b505050506040513d6000823e601f3d908101601f191682016040526114fd9190810190612342565b8152602001846001600160a01b031663313ce5676040518163ffffffff1660e01b8152600401602060405180830381865afa158015611540573d6000803e3d6000fd5b505050506040513d601f19601f8201168201806040525081019061156491906120b2565b60ff168152602001846001600160a01b03166318160ddd6040518163ffffffff1660e01b8152600401602060405180830381865afa1580156115aa573d6000803e3d6000fd5b505050506040513d601f19601f820116820180604052508101906115ce9190611fa4565b8152600060208201819052604080830191909152516370a0823160e01b81526001600160a01b0385811660048301526060909201918616906370a0823190602401602060405180830381865afa15801561162c573d6000803e3d6000fd5b505050506040513d601f19601f820116820180604052508101906116509190611fa4565b8152604051636eb1769f60e11b81526001600160a01b0385811660048301527f00000000000000000000000000000000000000000000000000000000000000008116602483015260209092019186169063dd62ed3e90604401602060405180830381865afa1580156116c6573d6000803e3d6000fd5b505050506040513d601f19601f820116820180604052508101906116ea9190611fa4565b90529392505050565b6060600080846001600160a01b03168460405161171091906123d6565b600060405180830381855af49150503d806000811461174b576040519150601f19603f3d011682016040523d82523d6000602084013e611750565b606091505b5091509150611760858383611769565b95945050505050565b60608261177e57611779826117c9565b611146565b815115801561179557506001600160a01b0384163b155b156117c257604051639996b31560e01b81526001600160a01b038516600482015260240160405180910390fd5b5080611146565b8051156117d95780518082602001fd5b604051630a12f52160e11b815260040160405180910390fd5b50565b60405180604001604052806118086118f3565b8152602001611815611891565b905290565b604051806080016040528061182d6118f3565b815260200161183a6118f3565b8152602001600081526020016118156040518060e0016040528060006001600160a01b0316815260200160008152602001600081526020016000815260200160008152602001600081526020016000151581525090565b60405180610160016040528060001515815260200160008152602001600081526020016000815260200160008152602001600081526020016000815260200160008152602001600081526020016118e66118f3565b8152602001606081525090565b60405180610120016040528060006001600160a01b031681526020016060815260200160608152602001600060ff16815260200160008152602001600080191681526020016000815260200160008152602001600081525090565b6001600160a01b03811681146117f257600080fd5b80151581146117f257600080fd5b6000806040838503121561198457600080fd5b823561198f8161194e565b9150602083013561199f81611963565b809150509250929050565b60005b838110156119c55781810151838201526020016119ad565b50506000910152565b600081518084526119e68160208601602086016119aa565b601f01601f19169290920160200192915050565b80516001600160a01b0316825260006101206020830151816020860152611a23828601826119ce565b91505060408301518482036040860152611a3d82826119ce565b9150506060830151611a54606086018260ff169052565b506080830151608085015260a083015160a085015260c083015160c085015260e083015160e08501526101008084015181860152508091505092915050565b600082825180855260208086019550808260051b84010181860160005b84811015611b6b57601f1986840301895281516101408151818652611ad7828701826119fa565b9150508582015185820387870152611aef82826119fa565b6040848101518882015260609485015180516001600160a01b0316868a0152898101516080808b01919091529181015160a0808b01919091529581015160c0808b01919091529181015160e08a015294850151610100890152909301511515610120909601959095525098840198925090830190600101611ab0565b5090979650505050505050565b80511515825260006101606020830151602085015260408301516040850152606083015160608501526080830151608085015260a083015160a085015260c083015160c085015260e083015160e0850152610100808401518186015250610120808401518282870152611bed838701826119fa565b925050506101408084015185830382870152611c098382611a93565b9695505050505050565b600082825180855260208086019550808260051b84010181860160005b84811015611b6b57601f19868403018952815160408151818652611c56828701826119fa565b91505085820151915084810386860152611c708183611b78565b9a86019a9450505090830190600101611c30565b6020815260006111466020830184611c13565b600080600060608486031215611cac57600080fd5b8335611cb78161194e565b92506020840135611cc78161194e565b91506040840135611cd781611963565b809150509250925092565b604081526000611cf56040830185611a93565b90508260208301529392505050565b602081526000825160606020840152611d206080840182611c13565b60208501516001600160a01b0316604085810191909152909401516060909301929092525090919050565b6020815260006111466020830184611b78565b60008060208385031215611d7157600080fd5b823567ffffffffffffffff80821115611d8957600080fd5b818501915085601f830112611d9d57600080fd5b813581811115611dac57600080fd5b8660208260051b8501011115611dc157600080fd5b60209290920196919550909350505050565b600060208083016020845280855180835260408601915060408160051b87010192506020870160005b82811015611e2a57603f19888603018452611e188583516119ce565b94509285019290850190600101611dfc565b5092979650505050505050565b60008060408385031215611e4a57600080fd5b8235611e558161194e565b9150602083013561199f8161194e565b60208152600061114660208301846119fa565b634e487b7160e01b600052604160045260246000fd5b604051601f8201601f1916810167ffffffffffffffff81118282101715611eb757611eb7611e78565b604052919050565b60006020808385031215611ed257600080fd5b825167ffffffffffffffff80821115611eea57600080fd5b818501915085601f830112611efe57600080fd5b815181811115611f1057611f10611e78565b8060051b9150611f21848301611e8e565b8181529183018401918481019088841115611f3b57600080fd5b938501935b83851015611f655784519250611f558361194e565b8282529385019390850190611f40565b98975050505050505050565b600060208284031215611f8357600080fd5b81516111468161194e565b634e487b7160e01b600052603260045260246000fd5b600060208284031215611fb657600080fd5b5051919050565b634e487b7160e01b600052601160045260246000fd5b80820281158282048414176106c5576106c5611fbd565b60008261200757634e487b7160e01b600052601260045260246000fd5b500490565b808201808211156106c5576106c5611fbd565b600060e0828403121561203157600080fd5b60405160e0810181811067ffffffffffffffff8211171561205457612054611e78565b60405282516120628161194e565b808252506020830151602082015260408301516040820152606083015160608201526080830151608082015260a083015160a082015260c08301516120a681611963565b60c08201529392505050565b6000602082840312156120c457600080fd5b815160ff8116811461114657600080fd5b600181815b808511156121105781600019048211156120f6576120f6611fbd565b8085161561210357918102915b93841c93908002906120da565b509250929050565b600082612127575060016106c5565b81612134575060006106c5565b816001811461214a576002811461215457612170565b60019150506106c5565b60ff84111561216557612165611fbd565b50506001821b6106c5565b5060208310610133831016604e8410600b8410161715612193575081810a6106c5565b61219d83836120d5565b80600019048211156121b1576121b1611fbd565b029392505050565b600061114660ff841683612118565b600080600080600060a086880312156121e057600080fd5b5050835160208501516040860151606087015160809097015192989197509594509092509050565b6000808335601e1984360301811261221f57600080fd5b83018035915067ffffffffffffffff82111561223a57600080fd5b60200191503681900382131561224f57600080fd5b9250929050565b8284823760008382016000815283516122738183602088016119aa565b0195945050505050565b81835281816020850137506000828201602090810191909152601f909101601f19169091010190565b60208082528181018390526000906040600585901b8401810190840186845b8781101561233557868403603f190183528135368a9003601e190181126122eb57600080fd5b8901858101903567ffffffffffffffff81111561230757600080fd5b80360382131561231657600080fd5b61232186828461227d565b9550505091840191908401906001016122c5565b5091979650505050505050565b60006020828403121561235457600080fd5b815167ffffffffffffffff8082111561236c57600080fd5b818401915084601f83011261238057600080fd5b81518181111561239257612392611e78565b6123a5601f8201601f1916602001611e8e565b91508082528560208285010111156123bc57600080fd5b6123cd8160208401602086016119aa565b50949350505050565b600082516123e88184602087016119aa565b919091019291505056fea26469706673582212201ba7337ca8f6b9f1e96a3a50a82fb545f6d833a87b03d693034f5aa16f1c5f5964736f6c63430008190033","linkReferences":{}},"methodIdentifiers":{"getAllData(address,bool)":"68634822","getAssetData(address,address)":"e90f8c1b","getMarketData(address,address,bool)":"7dd4fbcd","getSynths(address,bool)":"52128213","getVaults(address,address,bool)":"54765f32","marketsPlugin()":"2443de4c","multicall(bytes[])":"ac9650d8","pool()":"16f0115b","pyth()":"f98d06f0","router()":"f887ea40","updatePythData(bytes[])":"bcfb99fa"},"id":61}