{"abi":[{"type":"constructor","inputs":[{"name":"_pool","type":"address","internalType":"address"},{"name":"_router","type":"address","internalType":"address"}],"stateMutability":"nonpayable"},{"type":"function","name":"getAllData","inputs":[{"name":"user","type":"address","internalType":"address"}],"outputs":[{"name":"","type":"tuple","internalType":"struct UIDataProvider.UIData","components":[{"name":"reserveData","type":"tuple","internalType":"struct UIDataProvider.ReserveData","components":[{"name":"totalAssetsUSD","type":"uint256","internalType":"uint256"},{"name":"userTotalBalanceUSD","type":"uint256","internalType":"uint256"},{"name":"userAdjustedBalanceUSD","type":"uint256","internalType":"uint256"},{"name":"userThresholdBalanceUSD","type":"uint256","internalType":"uint256"},{"name":"vaults","type":"tuple[]","internalType":"struct UIDataProvider.VaultData[]","components":[{"name":"asset","type":"tuple","internalType":"struct UIDataProvider.AssetData","components":[{"name":"id","type":"address","internalType":"address"},{"name":"name","type":"string","internalType":"string"},{"name":"symbol","type":"string","internalType":"string"},{"name":"decimals","type":"uint8","internalType":"uint8"},{"name":"totalSupply","type":"uint256","internalType":"uint256"},{"name":"pythId","type":"bytes32","internalType":"bytes32"},{"name":"price","type":"uint256","internalType":"uint256"},{"name":"balance","type":"uint256","internalType":"uint256"},{"name":"approvalToRouter","type":"uint256","internalType":"uint256"}]},{"name":"vaultToken","type":"tuple","internalType":"struct UIDataProvider.AssetData","components":[{"name":"id","type":"address","internalType":"address"},{"name":"name","type":"string","internalType":"string"},{"name":"symbol","type":"string","internalType":"string"},{"name":"decimals","type":"uint8","internalType":"uint8"},{"name":"totalSupply","type":"uint256","internalType":"uint256"},{"name":"pythId","type":"bytes32","internalType":"bytes32"},{"name":"price","type":"uint256","internalType":"uint256"},{"name":"balance","type":"uint256","internalType":"uint256"},{"name":"approvalToRouter","type":"uint256","internalType":"uint256"}]},{"name":"totalAssets","type":"uint256","internalType":"uint256"},{"name":"userBalance","type":"uint256","internalType":"uint256"},{"name":"config","type":"tuple","internalType":"struct Reserve.Collateral","components":[{"name":"vault","type":"address","internalType":"address"},{"name":"baseLTV","type":"uint256","internalType":"uint256"},{"name":"liquidationThreshold","type":"uint256","internalType":"uint256"},{"name":"liquidationBonus","type":"uint256","internalType":"uint256"},{"name":"liquidationFee","type":"uint256","internalType":"uint256"},{"name":"maxDeposits","type":"uint256","internalType":"uint256"},{"name":"active","type":"bool","internalType":"bool"}]}]}]},{"name":"liquidityData","type":"tuple","internalType":"struct UIDataProvider.LiquidityData","components":[{"name":"totalDebtUSD","type":"uint256","internalType":"uint256"},{"name":"userTotalDebtUSD","type":"uint256","internalType":"uint256"},{"name":"lpToken","type":"tuple","internalType":"struct UIDataProvider.AssetData","components":[{"name":"id","type":"address","internalType":"address"},{"name":"name","type":"string","internalType":"string"},{"name":"symbol","type":"string","internalType":"string"},{"name":"decimals","type":"uint8","internalType":"uint8"},{"name":"totalSupply","type":"uint256","internalType":"uint256"},{"name":"pythId","type":"bytes32","internalType":"bytes32"},{"name":"price","type":"uint256","internalType":"uint256"},{"name":"balance","type":"uint256","internalType":"uint256"},{"name":"approvalToRouter","type":"uint256","internalType":"uint256"}]},{"name":"debtToken","type":"tuple","internalType":"struct UIDataProvider.AssetData","components":[{"name":"id","type":"address","internalType":"address"},{"name":"name","type":"string","internalType":"string"},{"name":"symbol","type":"string","internalType":"string"},{"name":"decimals","type":"uint8","internalType":"uint8"},{"name":"totalSupply","type":"uint256","internalType":"uint256"},{"name":"pythId","type":"bytes32","internalType":"bytes32"},{"name":"price","type":"uint256","internalType":"uint256"},{"name":"balance","type":"uint256","internalType":"uint256"},{"name":"approvalToRouter","type":"uint256","internalType":"uint256"}]},{"name":"synths","type":"tuple[]","internalType":"struct UIDataProvider.AssetData[]","components":[{"name":"id","type":"address","internalType":"address"},{"name":"name","type":"string","internalType":"string"},{"name":"symbol","type":"string","internalType":"string"},{"name":"decimals","type":"uint8","internalType":"uint8"},{"name":"totalSupply","type":"uint256","internalType":"uint256"},{"name":"pythId","type":"bytes32","internalType":"bytes32"},{"name":"price","type":"uint256","internalType":"uint256"},{"name":"balance","type":"uint256","internalType":"uint256"},{"name":"approvalToRouter","type":"uint256","internalType":"uint256"}]}]},{"name":"healthFactor","type":"uint256","internalType":"uint256"},{"name":"availableToMintUSD","type":"uint256","internalType":"uint256"}]}],"stateMutability":"view"},{"type":"function","name":"getLiquidityData","inputs":[{"name":"user","type":"address","internalType":"address"}],"outputs":[{"name":"","type":"tuple","internalType":"struct UIDataProvider.LiquidityData","components":[{"name":"totalDebtUSD","type":"uint256","internalType":"uint256"},{"name":"userTotalDebtUSD","type":"uint256","internalType":"uint256"},{"name":"lpToken","type":"tuple","internalType":"struct UIDataProvider.AssetData","components":[{"name":"id","type":"address","internalType":"address"},{"name":"name","type":"string","internalType":"string"},{"name":"symbol","type":"string","internalType":"string"},{"name":"decimals","type":"uint8","internalType":"uint8"},{"name":"totalSupply","type":"uint256","internalType":"uint256"},{"name":"pythId","type":"bytes32","internalType":"bytes32"},{"name":"price","type":"uint256","internalType":"uint256"},{"name":"balance","type":"uint256","internalType":"uint256"},{"name":"approvalToRouter","type":"uint256","internalType":"uint256"}]},{"name":"debtToken","type":"tuple","internalType":"struct UIDataProvider.AssetData","components":[{"name":"id","type":"address","internalType":"address"},{"name":"name","type":"string","internalType":"string"},{"name":"symbol","type":"string","internalType":"string"},{"name":"decimals","type":"uint8","internalType":"uint8"},{"name":"totalSupply","type":"uint256","internalType":"uint256"},{"name":"pythId","type":"bytes32","internalType":"bytes32"},{"name":"price","type":"uint256","internalType":"uint256"},{"name":"balance","type":"uint256","internalType":"uint256"},{"name":"approvalToRouter","type":"uint256","internalType":"uint256"}]},{"name":"synths","type":"tuple[]","internalType":"struct UIDataProvider.AssetData[]","components":[{"name":"id","type":"address","internalType":"address"},{"name":"name","type":"string","internalType":"string"},{"name":"symbol","type":"string","internalType":"string"},{"name":"decimals","type":"uint8","internalType":"uint8"},{"name":"totalSupply","type":"uint256","internalType":"uint256"},{"name":"pythId","type":"bytes32","internalType":"bytes32"},{"name":"price","type":"uint256","internalType":"uint256"},{"name":"balance","type":"uint256","internalType":"uint256"},{"name":"approvalToRouter","type":"uint256","internalType":"uint256"}]}]}],"stateMutability":"view"},{"type":"function","name":"getReserveData","inputs":[{"name":"user","type":"address","internalType":"address"}],"outputs":[{"name":"","type":"tuple","internalType":"struct UIDataProvider.ReserveData","components":[{"name":"totalAssetsUSD","type":"uint256","internalType":"uint256"},{"name":"userTotalBalanceUSD","type":"uint256","internalType":"uint256"},{"name":"userAdjustedBalanceUSD","type":"uint256","internalType":"uint256"},{"name":"userThresholdBalanceUSD","type":"uint256","internalType":"uint256"},{"name":"vaults","type":"tuple[]","internalType":"struct UIDataProvider.VaultData[]","components":[{"name":"asset","type":"tuple","internalType":"struct UIDataProvider.AssetData","components":[{"name":"id","type":"address","internalType":"address"},{"name":"name","type":"string","internalType":"string"},{"name":"symbol","type":"string","internalType":"string"},{"name":"decimals","type":"uint8","internalType":"uint8"},{"name":"totalSupply","type":"uint256","internalType":"uint256"},{"name":"pythId","type":"bytes32","internalType":"bytes32"},{"name":"price","type":"uint256","internalType":"uint256"},{"name":"balance","type":"uint256","internalType":"uint256"},{"name":"approvalToRouter","type":"uint256","internalType":"uint256"}]},{"name":"vaultToken","type":"tuple","internalType":"struct UIDataProvider.AssetData","components":[{"name":"id","type":"address","internalType":"address"},{"name":"name","type":"string","internalType":"string"},{"name":"symbol","type":"string","internalType":"string"},{"name":"decimals","type":"uint8","internalType":"uint8"},{"name":"totalSupply","type":"uint256","internalType":"uint256"},{"name":"pythId","type":"bytes32","internalType":"bytes32"},{"name":"price","type":"uint256","internalType":"uint256"},{"name":"balance","type":"uint256","internalType":"uint256"},{"name":"approvalToRouter","type":"uint256","internalType":"uint256"}]},{"name":"totalAssets","type":"uint256","internalType":"uint256"},{"name":"userBalance","type":"uint256","internalType":"uint256"},{"name":"config","type":"tuple","internalType":"struct Reserve.Collateral","components":[{"name":"vault","type":"address","internalType":"address"},{"name":"baseLTV","type":"uint256","internalType":"uint256"},{"name":"liquidationThreshold","type":"uint256","internalType":"uint256"},{"name":"liquidationBonus","type":"uint256","internalType":"uint256"},{"name":"liquidationFee","type":"uint256","internalType":"uint256"},{"name":"maxDeposits","type":"uint256","internalType":"uint256"},{"name":"active","type":"bool","internalType":"bool"}]}]}]}],"stateMutability":"view"},{"type":"function","name":"liquidity","inputs":[],"outputs":[{"name":"","type":"address","internalType":"contract Liquidity"}],"stateMutability":"view"},{"type":"function","name":"multicall","inputs":[{"name":"data","type":"bytes[]","internalType":"bytes[]"}],"outputs":[{"name":"results","type":"bytes[]","internalType":"bytes[]"}],"stateMutability":"nonpayable"},{"type":"function","name":"pool","inputs":[],"outputs":[{"name":"","type":"address","internalType":"contract RxPool"}],"stateMutability":"view"},{"type":"function","name":"reserve","inputs":[],"outputs":[{"name":"","type":"address","internalType":"contract Reserve"}],"stateMutability":"view"},{"type":"function","name":"router","inputs":[],"outputs":[{"name":"","type":"address","internalType":"address"}],"stateMutability":"view"},{"type":"function","name":"synthPlugin","inputs":[],"outputs":[{"name":"","type":"address","internalType":"contract SynthPlugin"}],"stateMutability":"view"},{"type":"error","name":"AddressEmptyCode","inputs":[{"name":"target","type":"address","internalType":"address"}]},{"type":"error","name":"FailedInnerCall","inputs":[]}],"bytecode":{"object":"0x6101206040523480156200001257600080fd5b5060405162003ba438038062003ba48339810160408190526200003591620001ce565b6001600160a01b038216608081905260408051630d34328160e11b81529051631a686502916004808201926020929091908290030181865afa15801562000080573d6000803e3d6000fd5b505050506040513d601f19601f82011682018060405250810190620000a691906200020d565b6001600160a01b031660a0816001600160a01b0316815250506080516001600160a01b031663cd3293de6040518163ffffffff1660e01b8152600401602060405180830381865afa15801562000100573d6000803e3d6000fd5b505050506040513d601f19601f820116820180604052508101906200012691906200020d565b6001600160a01b0390811660c05260a05160405163f0a317eb60e01b81526000600482015291169063f0a317eb90602401602060405180830381865afa15801562000175573d6000803e3d6000fd5b505050506040513d601f19601f820116820180604052508101906200019b91906200020d565b6001600160a01b0390811660e05216610100525062000234565b6001600160a01b0381168114620001cb57600080fd5b50565b60008060408385031215620001e257600080fd5b8251620001ef81620001b5565b60208401519092506200020281620001b5565b809150509250929050565b6000602082840312156200022057600080fd5b81516200022d81620001b5565b9392505050565b60805160a05160c05160e051610100516138776200032d600039600081816101d60152818161094301528181610ce70152818161117301528181611bfd0152818161226701526126bf01526000818161014801526122eb0152600081816101af0152818161028c015281816103b5015261042f01526000818160e10152818161143e0152818161159001528181611620015281816116b00152818161179c015281816118880152818161197301528181611a6b01528181611b5e01528181611c8b01528181611d1b01528181611e0701528181611ef301528181611fde015281816120d601526121c901526000609d01526138776000f3fe608060405234801561001057600080fd5b50600436106100935760003560e01c8063813b4a4211610066578063813b4a42146101435780638bc52f5c1461016a578063ac9650d81461018a578063cd3293de146101aa578063f887ea40146101d157600080fd5b806316f0115b146100985780631a686502146100dc57806335ea6a751461010357806367e737f714610123575b600080fd5b6100bf7f000000000000000000000000000000000000000000000000000000000000000081565b6040516001600160a01b0390911681526020015b60405180910390f35b6100bf7f000000000000000000000000000000000000000000000000000000000000000081565b610116610111366004612ef0565b6101f8565b6040516100d39190613111565b610136610131366004612ef0565b61137d565b6040516100d391906131cc565b6100bf7f000000000000000000000000000000000000000000000000000000000000000081565b61017d610178366004612ef0565b61141f565b6040516100d39190613226565b61019d610198366004613239565b612b7b565b6040516100d391906132ae565b6100bf7f000000000000000000000000000000000000000000000000000000000000000081565b6100bf7f000000000000000000000000000000000000000000000000000000000000000081565b61022a6040518060a0016040528060008152602001600081526020016000815260200160008152602001606081525090565b61025c6040518060a0016040528060008152602001600081526020016000815260200160008152602001606081525090565b600060208201819052604080830182905260608301829052805163a41c8c0b60e01b815290516001600160a01b037f0000000000000000000000000000000000000000000000000000000000000000169163a41c8c0b91600480830192869291908290030181865afa1580156102d6573d6000803e3d6000fd5b505050506040513d6000823e601f3d908101601f191682016040526102fe9190810190613382565b90508051600161030e919061344a565b67ffffffffffffffff81111561032657610326613312565b60405190808252806020026020018201604052801561035f57816020015b61034c612d64565b8152602001906001900390816103445790505b50608083015260005b81518110156113745760008282815181106103855761038561345d565b6020908102919091010151604051631ed4896760e31b81526001600160a01b0380831660048301529192506000917f0000000000000000000000000000000000000000000000000000000000000000169063f6a44b389060240160e060405180830381865afa1580156103fc573d6000803e3d6000fd5b505050506040513d601f19601f820116820180604052508101906104209190613473565b905060008160000151905060007f00000000000000000000000000000000000000000000000000000000000000006001600160a01b0316637dc0d1d06040518163ffffffff1660e01b8152600401602060405180830381865afa15801561048b573d6000803e3d6000fd5b505050506040513d601f19601f820116820180604052508101906104af91906134ed565b90506000816001600160a01b031663f98d06f06040518163ffffffff1660e01b8152600401602060405180830381865afa1580156104f1573d6000803e3d6000fd5b505050506040513d601f19601f8201168201806040525081019061051591906134ed565b604051630495f95f60e51b81526001600160a01b038781166004830152918216916396834ad391908516906392bf2be090602401602060405180830381865afa158015610566573d6000803e3d6000fd5b505050506040513d601f19601f8201168201806040525081019061058a919061350a565b6040518263ffffffff1660e01b81526004016105a891815260200190565b608060405180830381865afa1580156105c5573d6000803e3d6000fd5b505050506040513d601f19601f820116820180604052508101906105e99190613523565b9050604051806101200160405280866001600160a01b03168152602001866001600160a01b03166306fdde036040518163ffffffff1660e01b8152600401600060405180830381865afa158015610644573d6000803e3d6000fd5b505050506040513d6000823e601f3d908101601f1916820160405261066c91908101906135ba565b8152602001866001600160a01b03166395d89b416040518163ffffffff1660e01b8152600401600060405180830381865afa1580156106af573d6000803e3d6000fd5b505050506040513d6000823e601f3d908101601f191682016040526106d791908101906135ba565b8152602001866001600160a01b031663313ce5676040518163ffffffff1660e01b8152600401602060405180830381865afa15801561071a573d6000803e3d6000fd5b505050506040513d601f19601f8201168201806040525081019061073e919061364e565b60ff168152602001866001600160a01b03166318160ddd6040518163ffffffff1660e01b8152600401602060405180830381865afa158015610784573d6000803e3d6000fd5b505050506040513d601f19601f820116820180604052508101906107a8919061350a565b8152604051630495f95f60e51b81526001600160a01b0388811660048301526020909201918516906392bf2be090602401602060405180830381865afa1580156107f6573d6000803e3d6000fd5b505050506040513d601f19601f8201168201806040525081019061081a919061350a565b815282516040808501519051635aaa915960e11b815260079290920b600483015260030b60248201526008604482015260209091019073__$65759db3abb9c68754ca4eab7e42deed6d$__9063b55522b290606401602060405180830381865af415801561088c573d6000803e3d6000fd5b505050506040513d601f19601f820116820180604052508101906108b0919061350a565b81526040516370a0823160e01b81526001600160a01b038d811660048301526020909201918816906370a0823190602401602060405180830381865afa1580156108fe573d6000803e3d6000fd5b505050506040513d601f19601f82011682018060405250810190610922919061350a565b8152604051636eb1769f60e11b81526001600160a01b038d811660048301527f00000000000000000000000000000000000000000000000000000000000000008116602483015260209092019188169063dd62ed3e90604401602060405180830381865afa158015610998573d6000803e3d6000fd5b505050506040513d601f19601f820116820180604052508101906109bc919061350a565b815250886080015187815181106109d5576109d561345d565b602002602001015160000181905250604051806101200160405280846001600160a01b03168152602001846001600160a01b03166306fdde036040518163ffffffff1660e01b8152600401600060405180830381865afa158015610a3d573d6000803e3d6000fd5b505050506040513d6000823e601f3d908101601f19168201604052610a6591908101906135ba565b8152602001846001600160a01b03166395d89b416040518163ffffffff1660e01b8152600401600060405180830381865afa158015610aa8573d6000803e3d6000fd5b505050506040513d6000823e601f3d908101601f19168201604052610ad091908101906135ba565b8152602001846001600160a01b031663313ce5676040518163ffffffff1660e01b8152600401602060405180830381865afa158015610b13573d6000803e3d6000fd5b505050506040513d601f19601f82011682018060405250810190610b37919061364e565b60ff168152602001846001600160a01b03166318160ddd6040518163ffffffff1660e01b8152600401602060405180830381865afa158015610b7d573d6000803e3d6000fd5b505050506040513d601f19601f82011682018060405250810190610ba1919061350a565b81526020016000801b8152602001670de0b6b3a76400008a608001518981518110610bce57610bce61345d565b60200260200101516000015160c00151866001600160a01b03166371ca337d6040518163ffffffff1660e01b8152600401602060405180830381865afa158015610c1c573d6000803e3d6000fd5b505050506040513d601f19601f82011682018060405250810190610c40919061350a565b610c4a9190613671565b610c549190613688565b81526040516370a0823160e01b81526001600160a01b038d811660048301526020909201918616906370a0823190602401602060405180830381865afa158015610ca2573d6000803e3d6000fd5b505050506040513d601f19601f82011682018060405250810190610cc6919061350a565b8152604051636eb1769f60e11b81526001600160a01b038d811660048301527f00000000000000000000000000000000000000000000000000000000000000008116602483015260209092019186169063dd62ed3e90604401602060405180830381865afa158015610d3c573d6000803e3d6000fd5b505050506040513d601f19601f82011682018060405250810190610d60919061350a565b81525088608001518781518110610d7957610d7961345d565b602002602001015160200181905250826001600160a01b031663ad7a672f6040518163ffffffff1660e01b8152600401602060405180830381865afa158015610dc6573d6000803e3d6000fd5b505050506040513d601f19601f82011682018060405250810190610dea919061350a565b88608001518781518110610e0057610e0061345d565b602090810291909101015160409081019190915251630359f7eb60e11b81526001600160a01b038b811660048301528416906306b3efd690602401602060405180830381865afa158015610e58573d6000803e3d6000fd5b505050506040513d601f19601f82011682018060405250810190610e7c919061350a565b88608001518781518110610e9257610e9261345d565b602002602001015160600181815250508388608001518781518110610eb957610eb961345d565b602002602001015160800181905250846001600160a01b031663313ce5676040518163ffffffff1660e01b8152600401602060405180830381865afa158015610f06573d6000803e3d6000fd5b505050506040513d601f19601f82011682018060405250810190610f2a919061364e565b610f3590600a61378e565b610f43906305f5e100613671565b856001600160a01b03166318160ddd6040518163ffffffff1660e01b8152600401602060405180830381865afa158015610f81573d6000803e3d6000fd5b505050506040513d601f19601f82011682018060405250810190610fa5919061350a565b89608001518881518110610fbb57610fbb61345d565b60200260200101516000015160c00151670de0b6b3a7640000610fde9190613671565b610fe89190613671565b610ff29190613688565b8851899061100190839061344a565b915081815250506000856001600160a01b031663313ce5676040518163ffffffff1660e01b8152600401602060405180830381865afa158015611048573d6000803e3d6000fd5b505050506040513d601f19601f8201168201806040525081019061106c919061364e565b61107790600a61378e565b611085906305f5e100613671565b8960800151888151811061109b5761109b61345d565b6020026020010151606001518a6080015189815181106110bd576110bd61345d565b60200260200101516000015160c00151670de0b6b3a76400006110e09190613671565b6110ea9190613671565b6110f49190613688565b90508089602001818151611108919061344a565b90525060208501516127109061111e9083613671565b6111289190613688565b89604001818151611139919061344a565b90525060408501516127109061114f9083613671565b6111599190613688565b8960600181815161116a919061344a565b915081815250507f00000000000000000000000000000000000000000000000000000000000000006001600160a01b0316633fc8cef36040518163ffffffff1660e01b8152600401602060405180830381865afa1580156111cf573d6000803e3d6000fd5b505050506040513d601f19601f820116820180604052508101906111f391906134ed565b6001600160a01b0316896080015188815181106112125761121261345d565b602002602001015160000151600001516001600160a01b031603611362576040518060a0016040528060405180610120016040528060006001600160a01b0316815260200160405180604001604052806008815260200167457468657265756d60c01b81525081526020016040518060400160405280600381526020016208aa8960eb1b8152508152602001601260ff168152602001600081526020016000801b81526020018c608001518b815181106112ce576112ce61345d565b60200260200101516000015160c0015181526020018e6001600160a01b0316318152602001600081525081526020018a6080015189815181106113135761131361345d565b6020026020010151602001518152602001600081526020018c6001600160a01b03163181526020018681525089608001518951815181106113565761135661345d565b60200260200101819052505b50506001909401935061036892505050565b50909392505050565b611385612de7565b61138d612de7565b611396836101f8565b81526113a18361141f565b60208201819052600019604083015251156113e4576020810151518151606001516113d490670de0b6b3a7640000613671565b6113de9190613688565b60408201525b60006060820152602081015151815160400151111561141957602081015151815160400151611413919061379d565b60608201525b92915050565b611427612e45565b61142f612e45565b600081600001818152505060007f00000000000000000000000000000000000000000000000000000000000000006001600160a01b0316637dc0d1d06040518163ffffffff1660e01b8152600401602060405180830381865afa15801561149a573d6000803e3d6000fd5b505050506040513d601f19601f820116820180604052508101906114be91906134ed565b90506000816001600160a01b031663e19f47006040518163ffffffff1660e01b8152600401602060405180830381865afa158015611500573d6000803e3d6000fd5b505050506040513d601f19601f8201168201806040525081019061152491906134ed565b90506000826001600160a01b031663f98d06f06040518163ffffffff1660e01b8152600401602060405180830381865afa158015611566573d6000803e3d6000fd5b505050506040513d601f19601f8201168201806040525081019061158a91906134ed565b905060007f00000000000000000000000000000000000000000000000000000000000000006001600160a01b0316635fcbd2856040518163ffffffff1660e01b8152600401602060405180830381865afa1580156115ec573d6000803e3d6000fd5b505050506040513d601f19601f8201168201806040525081019061161091906134ed565b90506040518061012001604052807f00000000000000000000000000000000000000000000000000000000000000006001600160a01b0316635fcbd2856040518163ffffffff1660e01b8152600401602060405180830381865afa15801561167c573d6000803e3d6000fd5b505050506040513d601f19601f820116820180604052508101906116a091906134ed565b6001600160a01b031681526020017f00000000000000000000000000000000000000000000000000000000000000006001600160a01b0316635fcbd2856040518163ffffffff1660e01b8152600401602060405180830381865afa15801561170c573d6000803e3d6000fd5b505050506040513d601f19601f8201168201806040525081019061173091906134ed565b6001600160a01b03166306fdde036040518163ffffffff1660e01b8152600401600060405180830381865afa15801561176d573d6000803e3d6000fd5b505050506040513d6000823e601f3d908101601f1916820160405261179591908101906135ba565b81526020017f00000000000000000000000000000000000000000000000000000000000000006001600160a01b0316635fcbd2856040518163ffffffff1660e01b8152600401602060405180830381865afa1580156117f8573d6000803e3d6000fd5b505050506040513d601f19601f8201168201806040525081019061181c91906134ed565b6001600160a01b03166395d89b416040518163ffffffff1660e01b8152600401600060405180830381865afa158015611859573d6000803e3d6000fd5b505050506040513d6000823e601f3d908101601f1916820160405261188191908101906135ba565b81526020017f00000000000000000000000000000000000000000000000000000000000000006001600160a01b0316635fcbd2856040518163ffffffff1660e01b8152600401602060405180830381865afa1580156118e4573d6000803e3d6000fd5b505050506040513d601f19601f8201168201806040525081019061190891906134ed565b6001600160a01b031663313ce5676040518163ffffffff1660e01b8152600401602060405180830381865afa158015611945573d6000803e3d6000fd5b505050506040513d601f19601f82011682018060405250810190611969919061364e565b60ff1681526020017f00000000000000000000000000000000000000000000000000000000000000006001600160a01b0316635fcbd2856040518163ffffffff1660e01b8152600401602060405180830381865afa1580156119cf573d6000803e3d6000fd5b505050506040513d601f19601f820116820180604052508101906119f391906134ed565b6001600160a01b03166318160ddd6040518163ffffffff1660e01b8152600401602060405180830381865afa158015611a30573d6000803e3d6000fd5b505050506040513d601f19601f82011682018060405250810190611a54919061350a565b81526020016000801b8152602001600081526020017f00000000000000000000000000000000000000000000000000000000000000006001600160a01b0316635fcbd2856040518163ffffffff1660e01b8152600401602060405180830381865afa158015611ac7573d6000803e3d6000fd5b505050506040513d601f19601f82011682018060405250810190611aeb91906134ed565b6040516370a0823160e01b81526001600160a01b038b8116600483015291909116906370a0823190602401602060405180830381865afa158015611b33573d6000803e3d6000fd5b505050506040513d601f19601f82011682018060405250810190611b57919061350a565b81526020017f00000000000000000000000000000000000000000000000000000000000000006001600160a01b0316635fcbd2856040518163ffffffff1660e01b8152600401602060405180830381865afa158015611bba573d6000803e3d6000fd5b505050506040513d601f19601f82011682018060405250810190611bde91906134ed565b604051636eb1769f60e11b81526001600160a01b038b811660048301527f000000000000000000000000000000000000000000000000000000000000000081166024830152919091169063dd62ed3e90604401602060405180830381865afa158015611c4e573d6000803e3d6000fd5b505050506040513d601f19601f82011682018060405250810190611c72919061350a565b81525085604001819052506040518061012001604052807f00000000000000000000000000000000000000000000000000000000000000006001600160a01b031663f8d898986040518163ffffffff1660e01b8152600401602060405180830381865afa158015611ce7573d6000803e3d6000fd5b505050506040513d601f19601f82011682018060405250810190611d0b91906134ed565b6001600160a01b031681526020017f00000000000000000000000000000000000000000000000000000000000000006001600160a01b031663f8d898986040518163ffffffff1660e01b8152600401602060405180830381865afa158015611d77573d6000803e3d6000fd5b505050506040513d601f19601f82011682018060405250810190611d9b91906134ed565b6001600160a01b03166306fdde036040518163ffffffff1660e01b8152600401600060405180830381865afa158015611dd8573d6000803e3d6000fd5b505050506040513d6000823e601f3d908101601f19168201604052611e0091908101906135ba565b81526020017f00000000000000000000000000000000000000000000000000000000000000006001600160a01b031663f8d898986040518163ffffffff1660e01b8152600401602060405180830381865afa158015611e63573d6000803e3d6000fd5b505050506040513d601f19601f82011682018060405250810190611e8791906134ed565b6001600160a01b03166395d89b416040518163ffffffff1660e01b8152600401600060405180830381865afa158015611ec4573d6000803e3d6000fd5b505050506040513d6000823e601f3d908101601f19168201604052611eec91908101906135ba565b81526020017f00000000000000000000000000000000000000000000000000000000000000006001600160a01b031663f8d898986040518163ffffffff1660e01b8152600401602060405180830381865afa158015611f4f573d6000803e3d6000fd5b505050506040513d601f19601f82011682018060405250810190611f7391906134ed565b6001600160a01b031663313ce5676040518163ffffffff1660e01b8152600401602060405180830381865afa158015611fb0573d6000803e3d6000fd5b505050506040513d601f19601f82011682018060405250810190611fd4919061364e565b60ff1681526020017f00000000000000000000000000000000000000000000000000000000000000006001600160a01b031663f8d898986040518163ffffffff1660e01b8152600401602060405180830381865afa15801561203a573d6000803e3d6000fd5b505050506040513d601f19601f8201168201806040525081019061205e91906134ed565b6001600160a01b03166318160ddd6040518163ffffffff1660e01b8152600401602060405180830381865afa15801561209b573d6000803e3d6000fd5b505050506040513d601f19601f820116820180604052508101906120bf919061350a565b81526020016000801b8152602001600081526020017f00000000000000000000000000000000000000000000000000000000000000006001600160a01b031663f8d898986040518163ffffffff1660e01b8152600401602060405180830381865afa158015612132573d6000803e3d6000fd5b505050506040513d601f19601f8201168201806040525081019061215691906134ed565b6040516370a0823160e01b81526001600160a01b038b8116600483015291909116906370a0823190602401602060405180830381865afa15801561219e573d6000803e3d6000fd5b505050506040513d601f19601f820116820180604052508101906121c2919061350a565b81526020017f00000000000000000000000000000000000000000000000000000000000000006001600160a01b031663f8d898986040518163ffffffff1660e01b8152600401602060405180830381865afa158015612225573d6000803e3d6000fd5b505050506040513d601f19601f8201168201806040525081019061224991906134ed565b60405162b2d90760e41b81526001600160a01b038b811660048301527f0000000000000000000000000000000000000000000000000000000000000000811660248301529190911690630b2d907090604401602060405180830381865afa1580156122b8573d6000803e3d6000fd5b505050506040513d601f19601f820116820180604052508101906122dc919061350a565b815250856060018190525060007f00000000000000000000000000000000000000000000000000000000000000006001600160a01b03166319b12aec6040518163ffffffff1660e01b8152600401600060405180830381865afa158015612347573d6000803e3d6000fd5b505050506040513d6000823e601f3d908101601f1916820160405261236f9190810190613382565b9050805167ffffffffffffffff81111561238b5761238b613312565b6040519080825280602002602001820160405280156123c457816020015b6123b1612e80565b8152602001906001900390816123a95790505b5060808701526000805b8251811015612a885760008382815181106123eb576123eb61345d565b60200260200101519050604051806101200160405280826001600160a01b03168152602001826001600160a01b03166306fdde036040518163ffffffff1660e01b8152600401600060405180830381865afa15801561244e573d6000803e3d6000fd5b505050506040513d6000823e601f3d908101601f1916820160405261247691908101906135ba565b8152602001826001600160a01b03166395d89b416040518163ffffffff1660e01b8152600401600060405180830381865afa1580156124b9573d6000803e3d6000fd5b505050506040513d6000823e601f3d908101601f191682016040526124e191908101906135ba565b8152602001826001600160a01b031663313ce5676040518163ffffffff1660e01b8152600401602060405180830381865afa158015612524573d6000803e3d6000fd5b505050506040513d601f19601f82011682018060405250810190612548919061364e565b60ff168152602001826001600160a01b03166318160ddd6040518163ffffffff1660e01b8152600401602060405180830381865afa15801561258e573d6000803e3d6000fd5b505050506040513d601f19601f820116820180604052508101906125b2919061350a565b8152604051630495f95f60e51b81526001600160a01b0384811660048301526020909201918b16906392bf2be090602401602060405180830381865afa158015612600573d6000803e3d6000fd5b505050506040513d601f19601f82011682018060405250810190612624919061350a565b815260006020820152604080516370a0823160e01b81526001600160a01b038f811660048301529190920191908416906370a0823190602401602060405180830381865afa15801561267a573d6000803e3d6000fd5b505050506040513d601f19601f8201168201806040525081019061269e919061350a565b8152604051636eb1769f60e11b81526001600160a01b038e811660048301527f00000000000000000000000000000000000000000000000000000000000000008116602483015260209092019184169063dd62ed3e90604401602060405180830381865afa158015612714573d6000803e3d6000fd5b505050506040513d601f19601f82011682018060405250810190612738919061350a565b815250896080015183815181106127515761275161345d565b6020026020010181905250866001600160a01b0316816001600160a01b03160361280a5760405163b3596f0760e01b81526001600160a01b03828116600483015289169063b3596f0790602401602060405180830381865afa1580156127bb573d6000803e3d6000fd5b505050506040513d601f19601f820116820180604052508101906127df919061350a565b896080015183815181106127f5576127f561345d565b602002602001015160c00181815250506129e5565b6000801b896080015183815181106128245761282461345d565b602002602001015160a0015114612984576000866001600160a01b03166396834ad38b60800151858151811061285c5761285c61345d565b602002602001015160a001516040518263ffffffff1660e01b815260040161288691815260200190565b608060405180830381865afa1580156128a3573d6000803e3d6000fd5b505050506040513d601f19601f820116820180604052508101906128c79190613523565b80516040808301519051635aaa915960e11b815260079290920b600483015260030b60248201526008604482015290915073__$65759db3abb9c68754ca4eab7e42deed6d$__9063b55522b290606401602060405180830381865af4158015612934573d6000803e3d6000fd5b505050506040513d601f19601f82011682018060405250810190612958919061350a565b8a60800151848151811061296e5761296e61345d565b602002602001015160c0018181525050506129e5565b60405162461bcd60e51b815260206004820152602b60248201527f55494461746150726f76696465723a205072696365206461746120736f75726360448201526a19481b9bdd08199bdd5b9960aa1b60648201526084015b60405180910390fd5b886080015182815181106129fb576129fb61345d565b602002602001015160c00151816001600160a01b03166318160ddd6040518163ffffffff1660e01b8152600401602060405180830381865afa158015612a45573d6000803e3d6000fd5b505050506040513d601f19601f82011682018060405250810190612a69919061350a565b612a739190613671565b612a7d908461344a565b9250506001016123ce565b50670de0b6b3a76400008115801590612aa8575060608801516080015115155b8015612ac4575087604001516080015188606001516080015114155b15612b0457876040015160800151886060015160800151612ae5919061379d565b612af783670de0b6b3a7640000613671565b612b019190613688565b90505b604088015160c001819052606088015160e00151670de0b6b3a764000090612b2d908390613671565b612b379190613688565b6020890152604088015160c00151606089015160800151670de0b6b3a764000091612b6191613671565b612b6b9190613688565b8852509598975050505050505050565b6040805160008152602081019091526060908267ffffffffffffffff811115612ba657612ba6613312565b604051908082528060200260200182016040528015612bd957816020015b6060815260200190600190039081612bc45790505b50915060005b83811015612c5b57612c3630868684818110612bfd57612bfd61345d565b9050602002810190612c0f91906137b0565b85604051602001612c22939291906137fe565b604051602081830303815290604052612c63565b838281518110612c4857612c4861345d565b6020908102919091010152600101612bdf565b505092915050565b6060600080846001600160a01b031684604051612c809190613825565b600060405180830381855af49150503d8060008114612cbb576040519150601f19603f3d011682016040523d82523d6000602084013e612cc0565b606091505b5091509150612cd0858383612cd9565b95945050505050565b606082612cee57612ce982612d38565b612d31565b8151158015612d0557506001600160a01b0384163b155b15612d2e57604051639996b31560e01b81526001600160a01b03851660048201526024016129dc565b50805b9392505050565b805115612d485780518082602001fd5b604051630a12f52160e11b815260040160405180910390fd5b50565b6040518060a00160405280612d77612e80565b8152602001612d84612e80565b81526020016000815260200160008152602001612de26040518060e0016040528060006001600160a01b0316815260200160008152602001600081526020016000815260200160008152602001600081526020016000151581525090565b905290565b6040518060800160405280612e246040518060a0016040528060008152602001600081526020016000815260200160008152602001606081525090565b8152602001612e31612e45565b815260200160008152602001600081525090565b6040518060a001604052806000815260200160008152602001612e66612e80565b8152602001612e73612e80565b8152602001606081525090565b60405180610120016040528060006001600160a01b031681526020016060815260200160608152602001600060ff16815260200160008152602001600080191681526020016000815260200160008152602001600081525090565b6001600160a01b0381168114612d6157600080fd5b600060208284031215612f0257600080fd5b8135612d3181612edb565b60005b83811015612f28578181015183820152602001612f10565b50506000910152565b60008151808452612f49816020860160208601612f0d565b601f01601f19169290920160200192915050565b80516001600160a01b0316825260006101206020830151816020860152612f8682860182612f31565b91505060408301518482036040860152612fa08282612f31565b9150506060830151612fb7606086018260ff169052565b506080830151608085015260a083015160a085015260c083015160c085015260e083015160e08501526101008084015181860152508091505092915050565b600060a080840183518552602080850151818701526040808601516040880152606080870151606089015260808088015160a060808b015285815180885260c0975060c08c01915060c08160051b8d0101878401935060005b828110156131005760bf198e83030184528451610160815181855261307682860182612f5d565b9150508a8201518482038c86015261308e8282612f5d565b838c0151868d01528a8401518b8701529289015180516001600160a01b03168a8701528c8101518f870152808c01518e870152808b015160e0870152808a01516101008701528e8101516101208701528d0151151561014090950194909452509489019493890193915060010161304f565b509c9b505050505050505050505050565b602081526000612d316020830184612ff6565b80518252600060208083015181850152604083015160a0604086015261314d60a0860182612f5d565b9050606084015185820360608701526131668282612f5d565b915050608084015185820360808701528181518084528484019150848160051b850101858401935060005b828110156131bf57601f198683030184526131ad828651612f5d565b94870194938701939150600101613191565b5098975050505050505050565b6020815260008251608060208401526131e860a0840182612ff6565b90506020840151601f198483030160408501526132058282613124565b91505060408401516060840152606084015160808401528091505092915050565b602081526000612d316020830184613124565b6000806020838503121561324c57600080fd5b823567ffffffffffffffff8082111561326457600080fd5b818501915085601f83011261327857600080fd5b81358181111561328757600080fd5b8660208260051b850101111561329c57600080fd5b60209290920196919550909350505050565b600060208083016020845280855180835260408601915060408160051b87010192506020870160005b8281101561330557603f198886030184526132f3858351612f31565b945092850192908501906001016132d7565b5092979650505050505050565b634e487b7160e01b600052604160045260246000fd5b60405160e0810167ffffffffffffffff8111828210171561334b5761334b613312565b60405290565b604051601f8201601f1916810167ffffffffffffffff8111828210171561337a5761337a613312565b604052919050565b6000602080838503121561339557600080fd5b825167ffffffffffffffff808211156133ad57600080fd5b818501915085601f8301126133c157600080fd5b8151818111156133d3576133d3613312565b8060051b91506133e4848301613351565b81815291830184019184810190888411156133fe57600080fd5b938501935b83851015613428578451925061341883612edb565b8282529385019390850190613403565b98975050505050505050565b634e487b7160e01b600052601160045260246000fd5b8082018082111561141957611419613434565b634e487b7160e01b600052603260045260246000fd5b600060e0828403121561348557600080fd5b61348d613328565b825161349881612edb565b808252506020830151602082015260408301516040820152606083015160608201526080830151608082015260a083015160a082015260c083015180151581146134e157600080fd5b60c08201529392505050565b6000602082840312156134ff57600080fd5b8151612d3181612edb565b60006020828403121561351c57600080fd5b5051919050565b60006080828403121561353557600080fd5b6040516080810167ffffffffffffffff828210818311171561355957613559613312565b81604052845191508160070b821461357057600080fd5b908252602084015190808216821461358757600080fd5b5060208201526040830151600381900b81146135a257600080fd5b60408201526060928301519281019290925250919050565b6000602082840312156135cc57600080fd5b815167ffffffffffffffff808211156135e457600080fd5b818401915084601f8301126135f857600080fd5b81518181111561360a5761360a613312565b61361d601f8201601f1916602001613351565b915080825285602082850101111561363457600080fd5b613645816020840160208601612f0d565b50949350505050565b60006020828403121561366057600080fd5b815160ff81168114612d3157600080fd5b808202811582820484141761141957611419613434565b6000826136a557634e487b7160e01b600052601260045260246000fd5b500490565b600181815b808511156136e55781600019048211156136cb576136cb613434565b808516156136d857918102915b93841c93908002906136af565b509250929050565b6000826136fc57506001611419565b8161370957506000611419565b816001811461371f576002811461372957613745565b6001915050611419565b60ff84111561373a5761373a613434565b50506001821b611419565b5060208310610133831016604e8410600b8410161715613768575081810a611419565b61377283836136aa565b806000190482111561378657613786613434565b029392505050565b6000612d3160ff8416836136ed565b8181038181111561141957611419613434565b6000808335601e198436030181126137c757600080fd5b83018035915067ffffffffffffffff8211156137e257600080fd5b6020019150368190038213156137f757600080fd5b9250929050565b82848237600083820160008152835161381b818360208801612f0d565b0195945050505050565b60008251613837818460208701612f0d565b919091019291505056fea2646970667358221220f9adeca9e0b5d8b5adfe1ba9b0a43a6449a5cba067e0054b3c42241d8ccd2a6a64736f6c63430008170033","linkReferences":{"node_modules/@pythnetwork/pyth-sdk-solidity/PythUtils.sol":{"PythUtils":[{"start":2943,"length":20},{"start":11303,"length":20}]}}},"methodIdentifiers":{"getAllData(address)":"67e737f7","getLiquidityData(address)":"8bc52f5c","getReserveData(address)":"35ea6a75","liquidity()":"1a686502","multicall(bytes[])":"ac9650d8","pool()":"16f0115b","reserve()":"cd3293de","router()":"f887ea40","synthPlugin()":"813b4a42"},"id":63}