{"abi":[{"type":"function","name":"convertToUint","inputs":[{"name":"price","type":"int64","internalType":"int64"},{"name":"expo","type":"int32","internalType":"int32"},{"name":"targetDecimals","type":"uint8","internalType":"uint8"}],"outputs":[{"name":"","type":"uint256","internalType":"uint256"}],"stateMutability":"pure"}],"bytecode":{"object":"0x610319610034600b8282823980515f1a607314602857634e487b7160e01b5f525f60045260245ffd5b305f52607381538281f3fe7300000000000000000000000000000000000000003014608060405260043610610034575f3560e01c8063b55522b214610038575b5f80fd5b61004b61004636600461010b565b61005d565b60405190815260200160405180910390f35b5f808460070b128061007157505f8360030b135b80610080575060fe198360030b125b15610089575f80fd5b5f610095845f19610177565b90508060ff168360ff16106100d8576100ae818461019d565b6100bc9060ff16600a61029c565b6100d09067ffffffffffffffff87166102ad565b915050610104565b6100e2838261019d565b6100f09060ff16600a61029c565b6100d09067ffffffffffffffff87166102c4565b9392505050565b5f805f6060848603121561011d575f80fd5b83358060070b811461012d575f80fd5b92506020840135600381900b8114610143575f80fd5b9150604084013560ff81168114610158575f80fd5b809150509250925092565b634e487b7160e01b5f52601160045260245ffd5b5f8260030b8260030b028060030b915080821461019657610196610163565b5092915050565b60ff82811682821603908111156101b6576101b6610163565b92915050565b600181815b808511156101f657815f19048211156101dc576101dc610163565b808516156101e957918102915b93841c93908002906101c1565b509250929050565b5f8261020c575060016101b6565b8161021857505f6101b6565b816001811461022e576002811461023857610254565b60019150506101b6565b60ff84111561024957610249610163565b50506001821b6101b6565b5060208310610133831016604e8410600b8410161715610277575081810a6101b6565b61028183836101bc565b805f190482111561029457610294610163565b029392505050565b5f61010463ffffffff8416836101fe565b80820281158282048414176101b6576101b6610163565b5f826102de57634e487b7160e01b5f52601260045260245ffd5b50049056fea264697066735822122011b974178dea0f43921b5bcd0a3f0189838492edc977d91b13209c8d143d27f464736f6c63430008190033","linkReferences":{}},"methodIdentifiers":{"convertToUint(int64,int32,uint8)":"b55522b2"},"id":70}