{"abi":[{"type":"constructor","inputs":[],"stateMutability":"nonpayable"},{"type":"function","name":"admin","inputs":[],"outputs":[{"name":"","type":"address","internalType":"address"}],"stateMutability":"view"},{"type":"function","name":"btcMarket","inputs":[{"name":"interestRate","type":"uint256","internalType":"uint256"}],"outputs":[{"name":"","type":"tuple","internalType":"struct MarketsConfig.MarketConfig","components":[{"name":"isMarket","type":"bool","internalType":"bool"},{"name":"reserves","type":"tuple[]","internalType":"struct MarketsConfig.ReserveVault[]","components":[{"name":"asset","type":"address","internalType":"address"},{"name":"baseLTV","type":"uint256","internalType":"uint256"},{"name":"liquidationThreshold","type":"uint256","internalType":"uint256"},{"name":"liquidationBonus","type":"uint256","internalType":"uint256"},{"name":"liquidationFee","type":"uint256","internalType":"uint256"},{"name":"maxDeposits","type":"uint256","internalType":"uint256"},{"name":"pythId","type":"bytes32","internalType":"bytes32"}]},{"name":"interestRate","type":"uint256","internalType":"uint256"}]}],"stateMutability":"nonpayable"},{"type":"function","name":"clpMarket","inputs":[{"name":"interestRate","type":"uint256","internalType":"uint256"}],"outputs":[{"name":"","type":"tuple","internalType":"struct MarketsConfig.MarketConfig","components":[{"name":"isMarket","type":"bool","internalType":"bool"},{"name":"reserves","type":"tuple[]","internalType":"struct MarketsConfig.ReserveVault[]","components":[{"name":"asset","type":"address","internalType":"address"},{"name":"baseLTV","type":"uint256","internalType":"uint256"},{"name":"liquidationThreshold","type":"uint256","internalType":"uint256"},{"name":"liquidationBonus","type":"uint256","internalType":"uint256"},{"name":"liquidationFee","type":"uint256","internalType":"uint256"},{"name":"maxDeposits","type":"uint256","internalType":"uint256"},{"name":"pythId","type":"bytes32","internalType":"bytes32"}]},{"name":"interestRate","type":"uint256","internalType":"uint256"}]}],"stateMutability":"nonpayable"},{"type":"function","name":"ethMarket","inputs":[{"name":"interestRate","type":"uint256","internalType":"uint256"}],"outputs":[{"name":"","type":"tuple","internalType":"struct MarketsConfig.MarketConfig","components":[{"name":"isMarket","type":"bool","internalType":"bool"},{"name":"reserves","type":"tuple[]","internalType":"struct MarketsConfig.ReserveVault[]","components":[{"name":"asset","type":"address","internalType":"address"},{"name":"baseLTV","type":"uint256","internalType":"uint256"},{"name":"liquidationThreshold","type":"uint256","internalType":"uint256"},{"name":"liquidationBonus","type":"uint256","internalType":"uint256"},{"name":"liquidationFee","type":"uint256","internalType":"uint256"},{"name":"maxDeposits","type":"uint256","internalType":"uint256"},{"name":"pythId","type":"bytes32","internalType":"bytes32"}]},{"name":"interestRate","type":"uint256","internalType":"uint256"}]}],"stateMutability":"nonpayable"},{"type":"function","name":"getChainID","inputs":[],"outputs":[{"name":"","type":"uint256","internalType":"uint256"}],"stateMutability":"view"},{"type":"function","name":"getConfig","inputs":[{"name":"env","type":"string","internalType":"string"}],"outputs":[{"name":"","type":"tuple[]","internalType":"struct DeployState.PoolConfig[]","components":[{"name":"synths","type":"tuple[]","internalType":"struct DeployState.SynthConfig[]","components":[{"name":"name","type":"string","internalType":"string"},{"name":"symbol","type":"string","internalType":"string"},{"name":"pythId","type":"bytes32","internalType":"bytes32"},{"name":"market","type":"tuple","internalType":"struct MarketsConfig.MarketConfig","components":[{"name":"isMarket","type":"bool","internalType":"bool"},{"name":"reserves","type":"tuple[]","internalType":"struct MarketsConfig.ReserveVault[]","components":[{"name":"asset","type":"address","internalType":"address"},{"name":"baseLTV","type":"uint256","internalType":"uint256"},{"name":"liquidationThreshold","type":"uint256","internalType":"uint256"},{"name":"liquidationBonus","type":"uint256","internalType":"uint256"},{"name":"liquidationFee","type":"uint256","internalType":"uint256"},{"name":"maxDeposits","type":"uint256","internalType":"uint256"},{"name":"pythId","type":"bytes32","internalType":"bytes32"}]},{"name":"interestRate","type":"uint256","internalType":"uint256"}]},{"name":"isPerp","type":"bool","internalType":"bool"}]},{"name":"name","type":"string","internalType":"string"},{"name":"symbol","type":"string","internalType":"string"},{"name":"oracleType","type":"uint8","internalType":"enum AbstractOracle.ORACLE_TYPES"},{"name":"namePrefix","type":"string","internalType":"string"},{"name":"symbolPrefix","type":"string","internalType":"string"},{"name":"lp","type":"tuple","internalType":"struct MarketsConfig.MarketConfig","components":[{"name":"isMarket","type":"bool","internalType":"bool"},{"name":"reserves","type":"tuple[]","internalType":"struct MarketsConfig.ReserveVault[]","components":[{"name":"asset","type":"address","internalType":"address"},{"name":"baseLTV","type":"uint256","internalType":"uint256"},{"name":"liquidationThreshold","type":"uint256","internalType":"uint256"},{"name":"liquidationBonus","type":"uint256","internalType":"uint256"},{"name":"liquidationFee","type":"uint256","internalType":"uint256"},{"name":"maxDeposits","type":"uint256","internalType":"uint256"},{"name":"pythId","type":"bytes32","internalType":"bytes32"}]},{"name":"interestRate","type":"uint256","internalType":"uint256"}]},{"name":"usd","type":"tuple","internalType":"struct MarketsConfig.MarketConfig","components":[{"name":"isMarket","type":"bool","internalType":"bool"},{"name":"reserves","type":"tuple[]","internalType":"struct MarketsConfig.ReserveVault[]","components":[{"name":"asset","type":"address","internalType":"address"},{"name":"baseLTV","type":"uint256","internalType":"uint256"},{"name":"liquidationThreshold","type":"uint256","internalType":"uint256"},{"name":"liquidationBonus","type":"uint256","internalType":"uint256"},{"name":"liquidationFee","type":"uint256","internalType":"uint256"},{"name":"maxDeposits","type":"uint256","internalType":"uint256"},{"name":"pythId","type":"bytes32","internalType":"bytes32"}]},{"name":"interestRate","type":"uint256","internalType":"uint256"}]},{"name":"supportsSwapsPlugins","type":"bool","internalType":"bool"},{"name":"supportsMarketsPlugins","type":"bool","internalType":"bool"}]}],"stateMutability":"nonpayable"},{"type":"function","name":"getMainnetConfig","inputs":[],"outputs":[{"name":"pools","type":"tuple[]","internalType":"struct DeployState.PoolConfig[]","components":[{"name":"synths","type":"tuple[]","internalType":"struct DeployState.SynthConfig[]","components":[{"name":"name","type":"string","internalType":"string"},{"name":"symbol","type":"string","internalType":"string"},{"name":"pythId","type":"bytes32","internalType":"bytes32"},{"name":"market","type":"tuple","internalType":"struct MarketsConfig.MarketConfig","components":[{"name":"isMarket","type":"bool","internalType":"bool"},{"name":"reserves","type":"tuple[]","internalType":"struct MarketsConfig.ReserveVault[]","components":[{"name":"asset","type":"address","internalType":"address"},{"name":"baseLTV","type":"uint256","internalType":"uint256"},{"name":"liquidationThreshold","type":"uint256","internalType":"uint256"},{"name":"liquidationBonus","type":"uint256","internalType":"uint256"},{"name":"liquidationFee","type":"uint256","internalType":"uint256"},{"name":"maxDeposits","type":"uint256","internalType":"uint256"},{"name":"pythId","type":"bytes32","internalType":"bytes32"}]},{"name":"interestRate","type":"uint256","internalType":"uint256"}]},{"name":"isPerp","type":"bool","internalType":"bool"}]},{"name":"name","type":"string","internalType":"string"},{"name":"symbol","type":"string","internalType":"string"},{"name":"oracleType","type":"uint8","internalType":"enum AbstractOracle.ORACLE_TYPES"},{"name":"namePrefix","type":"string","internalType":"string"},{"name":"symbolPrefix","type":"string","internalType":"string"},{"name":"lp","type":"tuple","internalType":"struct MarketsConfig.MarketConfig","components":[{"name":"isMarket","type":"bool","internalType":"bool"},{"name":"reserves","type":"tuple[]","internalType":"struct MarketsConfig.ReserveVault[]","components":[{"name":"asset","type":"address","internalType":"address"},{"name":"baseLTV","type":"uint256","internalType":"uint256"},{"name":"liquidationThreshold","type":"uint256","internalType":"uint256"},{"name":"liquidationBonus","type":"uint256","internalType":"uint256"},{"name":"liquidationFee","type":"uint256","internalType":"uint256"},{"name":"maxDeposits","type":"uint256","internalType":"uint256"},{"name":"pythId","type":"bytes32","internalType":"bytes32"}]},{"name":"interestRate","type":"uint256","internalType":"uint256"}]},{"name":"usd","type":"tuple","internalType":"struct MarketsConfig.MarketConfig","components":[{"name":"isMarket","type":"bool","internalType":"bool"},{"name":"reserves","type":"tuple[]","internalType":"struct MarketsConfig.ReserveVault[]","components":[{"name":"asset","type":"address","internalType":"address"},{"name":"baseLTV","type":"uint256","internalType":"uint256"},{"name":"liquidationThreshold","type":"uint256","internalType":"uint256"},{"name":"liquidationBonus","type":"uint256","internalType":"uint256"},{"name":"liquidationFee","type":"uint256","internalType":"uint256"},{"name":"maxDeposits","type":"uint256","internalType":"uint256"},{"name":"pythId","type":"bytes32","internalType":"bytes32"}]},{"name":"interestRate","type":"uint256","internalType":"uint256"}]},{"name":"supportsSwapsPlugins","type":"bool","internalType":"bool"},{"name":"supportsMarketsPlugins","type":"bool","internalType":"bool"}]}],"stateMutability":"nonpayable"},{"type":"function","name":"getPythAddress","inputs":[{"name":"chainId","type":"uint256","internalType":"uint256"}],"outputs":[{"name":"","type":"address","internalType":"address"}],"stateMutability":"pure"},{"type":"function","name":"getPythValidity","inputs":[{"name":"env","type":"string","internalType":"string"}],"outputs":[{"name":"","type":"uint256","internalType":"uint256"}],"stateMutability":"pure"},{"type":"function","name":"getTestConfig","inputs":[],"outputs":[{"name":"pools","type":"tuple[]","internalType":"struct DeployState.PoolConfig[]","components":[{"name":"synths","type":"tuple[]","internalType":"struct DeployState.SynthConfig[]","components":[{"name":"name","type":"string","internalType":"string"},{"name":"symbol","type":"string","internalType":"string"},{"name":"pythId","type":"bytes32","internalType":"bytes32"},{"name":"market","type":"tuple","internalType":"struct MarketsConfig.MarketConfig","components":[{"name":"isMarket","type":"bool","internalType":"bool"},{"name":"reserves","type":"tuple[]","internalType":"struct MarketsConfig.ReserveVault[]","components":[{"name":"asset","type":"address","internalType":"address"},{"name":"baseLTV","type":"uint256","internalType":"uint256"},{"name":"liquidationThreshold","type":"uint256","internalType":"uint256"},{"name":"liquidationBonus","type":"uint256","internalType":"uint256"},{"name":"liquidationFee","type":"uint256","internalType":"uint256"},{"name":"maxDeposits","type":"uint256","internalType":"uint256"},{"name":"pythId","type":"bytes32","internalType":"bytes32"}]},{"name":"interestRate","type":"uint256","internalType":"uint256"}]},{"name":"isPerp","type":"bool","internalType":"bool"}]},{"name":"name","type":"string","internalType":"string"},{"name":"symbol","type":"string","internalType":"string"},{"name":"oracleType","type":"uint8","internalType":"enum AbstractOracle.ORACLE_TYPES"},{"name":"namePrefix","type":"string","internalType":"string"},{"name":"symbolPrefix","type":"string","internalType":"string"},{"name":"lp","type":"tuple","internalType":"struct MarketsConfig.MarketConfig","components":[{"name":"isMarket","type":"bool","internalType":"bool"},{"name":"reserves","type":"tuple[]","internalType":"struct MarketsConfig.ReserveVault[]","components":[{"name":"asset","type":"address","internalType":"address"},{"name":"baseLTV","type":"uint256","internalType":"uint256"},{"name":"liquidationThreshold","type":"uint256","internalType":"uint256"},{"name":"liquidationBonus","type":"uint256","internalType":"uint256"},{"name":"liquidationFee","type":"uint256","internalType":"uint256"},{"name":"maxDeposits","type":"uint256","internalType":"uint256"},{"name":"pythId","type":"bytes32","internalType":"bytes32"}]},{"name":"interestRate","type":"uint256","internalType":"uint256"}]},{"name":"usd","type":"tuple","internalType":"struct MarketsConfig.MarketConfig","components":[{"name":"isMarket","type":"bool","internalType":"bool"},{"name":"reserves","type":"tuple[]","internalType":"struct MarketsConfig.ReserveVault[]","components":[{"name":"asset","type":"address","internalType":"address"},{"name":"baseLTV","type":"uint256","internalType":"uint256"},{"name":"liquidationThreshold","type":"uint256","internalType":"uint256"},{"name":"liquidationBonus","type":"uint256","internalType":"uint256"},{"name":"liquidationFee","type":"uint256","internalType":"uint256"},{"name":"maxDeposits","type":"uint256","internalType":"uint256"},{"name":"pythId","type":"bytes32","internalType":"bytes32"}]},{"name":"interestRate","type":"uint256","internalType":"uint256"}]},{"name":"supportsSwapsPlugins","type":"bool","internalType":"bool"},{"name":"supportsMarketsPlugins","type":"bool","internalType":"bool"}]}],"stateMutability":"nonpayable"},{"type":"function","name":"nullMarket","inputs":[],"outputs":[{"name":"","type":"tuple","internalType":"struct MarketsConfig.MarketConfig","components":[{"name":"isMarket","type":"bool","internalType":"bool"},{"name":"reserves","type":"tuple[]","internalType":"struct MarketsConfig.ReserveVault[]","components":[{"name":"asset","type":"address","internalType":"address"},{"name":"baseLTV","type":"uint256","internalType":"uint256"},{"name":"liquidationThreshold","type":"uint256","internalType":"uint256"},{"name":"liquidationBonus","type":"uint256","internalType":"uint256"},{"name":"liquidationFee","type":"uint256","internalType":"uint256"},{"name":"maxDeposits","type":"uint256","internalType":"uint256"},{"name":"pythId","type":"bytes32","internalType":"bytes32"}]},{"name":"interestRate","type":"uint256","internalType":"uint256"}]}],"stateMutability":"pure"},{"type":"function","name":"pyth","inputs":[],"outputs":[{"name":"","type":"address","internalType":"address"}],"stateMutability":"view"},{"type":"function","name":"slpMarket","inputs":[{"name":"interestRate","type":"uint256","internalType":"uint256"}],"outputs":[{"name":"","type":"tuple","internalType":"struct MarketsConfig.MarketConfig","components":[{"name":"isMarket","type":"bool","internalType":"bool"},{"name":"reserves","type":"tuple[]","internalType":"struct MarketsConfig.ReserveVault[]","components":[{"name":"asset","type":"address","internalType":"address"},{"name":"baseLTV","type":"uint256","internalType":"uint256"},{"name":"liquidationThreshold","type":"uint256","internalType":"uint256"},{"name":"liquidationBonus","type":"uint256","internalType":"uint256"},{"name":"liquidationFee","type":"uint256","internalType":"uint256"},{"name":"maxDeposits","type":"uint256","internalType":"uint256"},{"name":"pythId","type":"bytes32","internalType":"bytes32"}]},{"name":"interestRate","type":"uint256","internalType":"uint256"}]}],"stateMutability":"nonpayable"},{"type":"function","name":"usdMarket","inputs":[{"name":"interestRate","type":"uint256","internalType":"uint256"}],"outputs":[{"name":"","type":"tuple","internalType":"struct MarketsConfig.MarketConfig","components":[{"name":"isMarket","type":"bool","internalType":"bool"},{"name":"reserves","type":"tuple[]","internalType":"struct MarketsConfig.ReserveVault[]","components":[{"name":"asset","type":"address","internalType":"address"},{"name":"baseLTV","type":"uint256","internalType":"uint256"},{"name":"liquidationThreshold","type":"uint256","internalType":"uint256"},{"name":"liquidationBonus","type":"uint256","internalType":"uint256"},{"name":"liquidationFee","type":"uint256","internalType":"uint256"},{"name":"maxDeposits","type":"uint256","internalType":"uint256"},{"name":"pythId","type":"bytes32","internalType":"bytes32"}]},{"name":"interestRate","type":"uint256","internalType":"uint256"}]}],"stateMutability":"nonpayable"}],"bytecode":{"object":"0x6080604052600880546001600160a01b03191661dead179055348015610023575f80fd5b5061002d466100bb565b600980546001600160a01b0319166001600160a01b039290921691821790556100b65760405162461bcd60e51b815260206004820152603160248201527f507974682061646472657373206e6f7420666f756e642c20706c6561736520636044820152701a1958dac81d1a194818da185a5b881251607a1b606482015260840160405180910390fd5b6101e5565b5f8162014a34036100e1575073a2aa501b19aff244d90cc15a4cf739d2725b5729919050565b816101520361010557507336825bf3fbdf5a29e2d5148bfe7dcf7b5639e320919050565b8161138b0361012957507398046bd286715d3b0bc227dd7a956b83d8978603919050565b8162066eee0361014e5750734374e5a8b9c22271e9eb878a2aa31de97df15daf919050565b8162aa36a703610173575073dd24f84d36bf92c65f92307595335bdfab5bbd21919050565b81602903610196575073dd24f84d36bf92c65f92307595335bdfab5bbd21919050565b81610152036101ba57507336825bf3fbdf5a29e2d5148bfe7dcf7b5639e320919050565b81610539036101de575073a2aa501b19aff244d90cc15a4cf739d2725b5729919050565b505f919050565b615d5b806101f25f395ff3fe608060405234801561000f575f80fd5b50600436106100e5575f3560e01c8063905ec5b211610088578063ced2037011610063578063ced20370146101c9578063f1ea34be146101d1578063f851a440146101e4578063f98d06f0146101f7575f80fd5b8063905ec5b214610178578063b44bd51d146101a3578063ca2b1c96146101b6575f80fd5b8063564b81ef116100c3578063564b81ef1461012f578063595268771461013f57806387a9a797146101525780638cfdfe7814610165575f80fd5b806305b8e49c146100e9578063283d486b1461011257806339d2050b14610127575b5f80fd5b6100fc6100f73660046138e0565b61020a565b604051610109919061399f565b60405180910390f35b61011a6105ed565b6040516101099190613ac9565b6100fc611ec9565b465b604051908152602001610109565b61013161014d366004613c23565b611f3d565b6100fc6101603660046138e0565b612013565b6100fc6101733660046138e0565b612335565b61018b6101863660046138e0565b6125bd565b6040516001600160a01b039091168152602001610109565b61011a6101b1366004613c23565b6126e7565b6100fc6101c43660046138e0565b6127bf565b61011a61291f565b6100fc6101df3660046138e0565b612bfe565b60085461018b906001600160a01b031681565b60095461018b906001600160a01b031681565b61022e60405180606001604052805f15158152602001606081526020015f81525090565b60408051600680825260e082019092525f91816020015b61024d61378c565b8152602001906001900390816102455790505090506040518060e00160405280610275612e7a565b6001600160a01b03168152602001611f40815260200161251c81526020016113888152602001611388815260200168056bc75e2d6310000081526020015f80516020615d068339815191525f1b815250815f815181106102d7576102d7613cce565b60200260200101819052506040518060e001604052806102f5612fa3565b6001600160a01b03168152602001611f40815260200161251c8152602001611388815260200161138881526020016801158e460913d0000081526020017f06c217a791f5c4f988b36629af4cb88fad827b2485400a358f3b02886b54de925f1b8152508160018151811061036b5761036b613cce565b60200260200101819052506040518060e001604052806103896130c1565b6001600160a01b03168152602001611f40815260200161251c8152602001611388815260200161138881526020016801158e460913d0000081526020017f6df640f3b8963d8f8358f791f352b8364513f6ab1cca5ed3f1f7b5448980e7845f1b815250816002815181106103ff576103ff613cce565b60200260200101819052506040518060e0016040528061041d6131e1565b6001600160a01b03168152602001611f40815260200161251c815260200161138881526020016113888152602001678ac7230489e8000081526020017fc9d8b075a5c69303365ae23633d4e085199bf5c520a3b90fed1322a0342ffc335f1b8152508160038151811061049257610492613cce565b60200260200101819052506040518060e001604052806104b06132ee565b6001600160a01b0316815260200161251c815260200161264881526020016113888152602001611388815260200169d3c21bcecceda100000081526020017feaa020c61cc479712813461ce153894a96a6c00b21ed0cfc2798d1f9a9e9c94a5f1b8152508160048151811061052757610527613cce565b60200260200101819052506040518060e001604052806105456133f6565b6001600160a01b0316815260200161251c815260200161264881526020016113888152602001611388815260200169d3c21bcecceda100000081526020017f2b89b9dc8fdf9f34709a5b106b472f0f39bb6ca9ce04b0fd7f2e971688e2e53b5f1b815250816005815181106105bc576105bc613cce565b6020026020010181905250604051806060016040528060011515815260200182815260200184815250915050919050565b60408051600380825260808201909252606091816020015b61060d6137ce565b81526020019060019003908161060557505060408051600d610140820181815261030083019093529293509182919061016083015b61064a613874565b8152602001906001900390816106425790505081526020016040518060400160405280600681526020016543727970746f60d01b8152508152602001604051806040016040528060018152602001604360f81b8152508152602001600160028111156106b8576106b8613a95565b8152602001604051806040016040528060048152602001630a4cac2f60e31b8152508152602001604051806040016040528060028152602001610a4b60f31b81525081526020016107085f61020a565b8152602001610718610258612013565b8152600160208201819052604090910152815182905f9061073b5761073b613cce565b60200260200101819052506040518060a0016040528060405180604001604052806008815260200167457468657265756d60c01b81525081526020016040518060400160405280600381526020016208aa8960eb1b81525081526020017fff61491a931112ddf1bd8147cd1b641375f79f5825126d665480874634fd0ace5f1b81526020016107ca60c8612335565b815260200160011515815250815f815181106107e8576107e8613cce565b60200260200101515f01515f8151811061080457610804613cce565b60200260200101819052506040518060a00160405280604051806040016040528060078152602001662134ba31b7b4b760c91b81525081526020016040518060400160405280600381526020016242544360e81b81525081526020017fe62df6c8b4a85fe1a67db44dc12de5db330f7ac66b72dc658afedf0f4a415b435f1b815260200161089260c86127bf565b815260200160011515815250815f815181106108b0576108b0613cce565b60200260200101515f01516001815181106108cd576108cd613cce565b60200260200101819052506040518060a0016040528060405180604001604052806006815260200165536f6c616e6160d01b81525081526020016040518060400160405280600381526020016214d3d360ea1b81525081526020017fef0d8b6fda2ceba41da15d4095d1da392a0d2f8ed0c6c7bc0f4cfac8c280b56d5f1b8152602001610958611ec9565b81526020015f1515815250815f8151811061097557610975613cce565b60200260200101515f015160028151811061099257610992613cce565b60200260200101819052506040518060a001604052806040518060400160405280600c81526020016b2134b730b731b29021b7b4b760a11b81525081526020016040518060400160405280600381526020016221272160e91b81525081526020017f2f95862b045670cd22bee3114c39763a4a08beeb663b145d283c31d7d1101c4f5f1b8152602001610a23611ec9565b81526020015f1515815250815f81518110610a4057610a40613cce565b60200260200101515f0151600381518110610a5d57610a5d613cce565b60200260200101819052506040518060a00160405280604051806040016040528060088152602001672237b3b2b1b7b4b760c11b815250815260200160405180604001604052806004815260200163444f474560e01b81525081526020017fdcef50dd0a4cd2dcc17e45df1676dcb336a11a61c69df7a0299b0150c672d25c5f1b8152602001610aeb611ec9565b81526020015f1515815250815f81518110610b0857610b08613cce565b60200260200101515f0151600481518110610b2557610b25613cce565b60200260200101819052506040518060a0016040528060405180604001604052806008815260200167141bdb1ad8591bdd60c21b8152508152602001604051806040016040528060038152602001621113d560ea1b81525081526020017fca3eed9b267293f6595901c734c7525ce8ef49adafe8284606ceb307afa2ca5b5f1b8152602001610bb2611ec9565b81526020015f1515815250815f81518110610bcf57610bcf613cce565b60200260200101515f0151600581518110610bec57610bec613cce565b60200260200101819052506040518060a001604052806040518060400160405280600c81526020016b50797468204e6574776f726b60a01b8152508152602001604051806040016040528060048152602001630a0f2e8d60e31b81525081526020017f0bbf28e9a841a1cc788f6a361b17ca072d0ea3098a1e5df1c3922d06719579ff5f1b8152602001610c7e611ec9565b81526020015f1515815250815f81518110610c9b57610c9b613cce565b60200260200101515f0151600681518110610cb857610cb8613cce565b60200260200101819052506040518060a001604052806040518060400160405280600681526020016543726f6e6f7360d01b81525081526020016040518060400160405280600381526020016243524f60e81b81525081526020017f23199c2bcb1303f667e733b9934db9eca5991e765b45f5ed18bc4b231415f2fe5f1b8152602001610d43611ec9565b81526020015f1515815250815f81518110610d6057610d60613cce565b60200260200101515f0151600781518110610d7d57610d7d613cce565b60200260200101819052506040518060a00160405280604051806040016040528060068152602001654d616e746c6560d01b81525081526020016040518060400160405280600381526020016213539560ea1b81525081526020017f4e3037c822d852d79af3ac80e35eb420ee3b870dca49f9344a38ef4773fb05855f1b8152602001610e08611ec9565b81526020015f1515815250815f81518110610e2557610e25613cce565b60200260200101515f0151600881518110610e4257610e42613cce565b60200260200101819052506040518060a0016040528060405180604001604052806008815260200167417262697472756d60c01b81525081526020016040518060400160405280600381526020016220a92160e91b81525081526020017f3fa4252848f9f0a1480be62745a4629d9eb1322aebab8a791e344b3b9c1adcf55f1b8152602001610ecf611ec9565b81526020015f1515815250815f81518110610eec57610eec613cce565b60200260200101515f0151600981518110610f0957610f09613cce565b60200260200101819052506040518060a00160405280604051806040016040528060038152602001622a37b760e91b8152508152602001604051806040016040528060038152602001622a27a760e91b81525081526020017f8963217838ab4cf5cadc172203c1f0b763fbaa45f346d8ee50ba994bbcac30265f1b8152602001610f91611ec9565b81526020015f1515815250815f81518110610fae57610fae613cce565b60200260200101515f0151600a81518110610fcb57610fcb613cce565b60200260200101819052506040518060a0016040528060405180604001604052806006815260200165526970706c6560d01b81525081526020016040518060400160405280600381526020016205852560ec1b81525081526020017fec5d399846a9209f3fe5881d70aae9268c94339ff9817e8d18ff19fa05eea1c85f1b8152602001611056611ec9565b81526020015f1515815250815f8151811061107357611073613cce565b60200260200101515f0151600b8151811061109057611090613cce565b60200260200101819052506040518060a001604052806040518060400160405280600c81526020016b084d2e8c6ded2dc4086c2e6d60a31b81525081526020016040518060400160405280600381526020016208486960eb1b81525081526020017f3dd2b63686a450ec7290df3a1e0b583c0481f651351edfa7636f39aed55cf8a35f1b8152602001611121611ec9565b81526020015f1515815250815f8151811061113e5761113e613cce565b60200260200101515f0151600c8151811061115b5761115b613cce565b602090810291909101015260408051600a61014082018181526102a0830190935290918291816020015b61118d613874565b8152602001906001900390816111855790505081526020016040518060400160405280600681526020016553746f636b7360d01b8152508152602001604051806040016040528060018152602001605360f81b8152508152602001600160028111156111fb576111fb613a95565b8152602001604051806040016040528060048152602001630a4cac2f60e31b8152508152602001604051806040016040528060028152602001610a4b60f31b815250815260200161124b5f612bfe565b815260200161125b610226612013565b8152602001600115158152602001600115158152508160018151811061128357611283613cce565b60200260200101819052506040518060a00160405280604051806040016040528060058152602001645465736c6160d81b81525081526020016040518060400160405280600481526020016354534c4160e01b81525081526020017f16dad506d7db8da01c87581c87ca897a012a153557d4d578c3b9c9e1bc0632f15f1b8152602001611311610320612bfe565b8152602001600115158152508160018151811061133057611330613cce565b60200260200101515f01515f8151811061134c5761134c613cce565b60200260200101819052506040518060a00160405280604051806040016040528060058152602001644170706c6560d81b8152508152602001604051806040016040528060048152602001631050541360e21b81525081526020017f49f6b65cb1de6b10eaf75e7c03ca029c306d0357e91b5311b175084a5ad556885f1b81526020016113da610320612bfe565b815260200160011515815250816001815181106113f9576113f9613cce565b60200260200101515f015160018151811061141657611416613cce565b60200260200101819052506040518060a001604052806040518060400160405280600681526020016520b6b0bd37b760d11b81525081526020016040518060400160405280600481526020016320a6ad2760e11b81525081526020017fb5d0e0fa58a1f8b81498ae670ce93c872d14434b72c364885d4fa1b257cbb07a5f1b81526020016114a2611ec9565b81526020015f1515815250816001815181106114c0576114c0613cce565b60200260200101515f01516002815181106114dd576114dd613cce565b60200260200101819052506040518060a0016040528060405180604001604052806006815260200165476f6f676c6560d01b815250815260200160405180604001604052806004815260200163474f4f4760e01b81525081526020017fe65ff435be42630439c96396653a342829e877e2aafaeaf1a10d0ee5fd2cf3f25f1b8152602001611569611ec9565b81526020015f15158152508160018151811061158757611587613cce565b60200260200101515f01516003815181106115a4576115a4613cce565b60200260200101819052506040518060a00160405280604051806040016040528060048152602001634d65746160e01b8152508152602001604051806040016040528060048152602001634d45544160e01b81525081526020017f78a3e3b8e676a8f73c439f5d749737034b139bbbe899ba5775216fba596607fe5f1b815260200161162e611ec9565b81526020015f15158152508160018151811061164c5761164c613cce565b60200260200101515f015160048151811061166957611669613cce565b60200260200101819052506040518060a0016040528060405180604001604052806009815260200168135a58dc9bdcdbd99d60ba1b8152508152602001604051806040016040528060048152602001631354d19560e21b81525081526020017fd0ca23c1cc005e004ccf1db5bf76aeb6a49218f43dac3d4b275e92de12ded4d15f1b81526020016116f8611ec9565b81526020015f15158152508160018151811061171657611716613cce565b60200260200101515f015160058151811061173357611733613cce565b60200260200101819052506040518060a001604052806040518060400160405280600781526020016609ccae8ccd8d2f60cb1b81525081526020016040518060400160405280600481526020016309c8c98b60e31b81525081526020017f8376cfd7ca8bcdf372ced05307b24dced1f15b1afafdeff715664598f15a3dd25f1b81526020016117c0611ec9565b81526020015f1515815250816001815181106117de576117de613cce565b60200260200101515f01516006815181106117fb576117fb613cce565b60200260200101819052506040518060a0016040528060405180604001604052806008815260200167436f696e6261736560c01b81525081526020016040518060400160405280600481526020016321a7a4a760e11b81525081526020017ffee33f2a978bf32dd6b662b65ba8083c6773b494f8401194ec1870c6408602455f1b815260200161188c6103e861020a565b815260200160011515815250816001815181106118ab576118ab613cce565b60200260200101515f01516007815181106118c8576118c8613cce565b60200260200101819052506040518060a001604052806040518060400160405280600d81526020016c4d6963726f737472617465677960981b81525081526020016040518060400160405280600481526020016326a9aa2960e11b81525081526020017fe1e80251e5f5184f2195008382538e847fafc36f751896889dd3d1b1f6111f095f1b815260200161195b611ec9565b81526020015f15158152508160018151811061197957611979613cce565b60200260200101515f015160088151811061199657611996613cce565b60200260200101819052506040518060a0016040528060405180604001604052806008815260200167047616d6573746f760c41b815250815260200160405180604001604052806003815260200162474d4560e81b81525081526020017f6f9cd89ef1b7fd39f667101a91ad578b6c6ace4579d5f7f285a4b06aa4504be65f1b8152602001611a23611ec9565b81526020015f151581525081600181518110611a4157611a41613cce565b60200260200101515f0151600981518110611a5e57611a5e613cce565b602090810291909101015260408051600461014082018181526101e0830190935290918291816020015b611a90613874565b815260200190600190039081611a885790505081526020016040518060400160405280600581526020016408cdee4caf60db1b8152508152602001604051806040016040528060018152602001602360f91b815250815260200160016002811115611afd57611afd613a95565b8152602001604051806040016040528060048152602001630a4cac2f60e31b8152508152602001604051806040016040528060028152602001610a4b60f31b8152508152602001611b4d5f612013565b8152602001611b5d610190612013565b8152600160208201819052604090910152815182906002908110611b8357611b83613cce565b60200260200101819052506040518060a00160405280604051806040016040528060048152602001634575726f60e01b81525081526020016040518060400160405280600381526020016222aaa960e91b81525081526020017fa995d00bb36a63cef7fd2c287dc105fc8f3d93779f062f09551b0af3e81ec30b5f1b8152602001611c0f610190612013565b81526020016001151581525081600281518110611c2e57611c2e613cce565b60200260200101515f01515f81518110611c4a57611c4a613cce565b60200260200101819052506040518060a001604052806040518060400160405280601181526020017020bab9ba3930b634b0b7102237b63630b960791b81525081526020016040518060400160405280600381526020016210555160ea1b81525081526020017f67a6f93030420c1c9e3fe37c1ab6b77966af82f995944a9fefce357a22854a805f1b8152602001611ce0611ec9565b81526020015f151581525081600281518110611cfe57611cfe613cce565b60200260200101515f0151600181518110611d1b57611d1b613cce565b60200260200101819052506040518060a00160405280604051806040016040528060128152602001712732bb902d32b0b630b732102237b63630b960711b81525081526020016040518060400160405280600381526020016213969160ea1b81525081526020017f92eea8ba1b00078cdc2ef6f64f091f262e8c7d0576ee4677572f314ebfafa4c75f1b8152602001611db2611ec9565b81526020015f151581525081600281518110611dd057611dd0613cce565b60200260200101515f0151600281518110611ded57611ded613cce565b60200260200101819052506040518060a001604052806040518060400160405280600e81526020016d506f756e6420737465726c696e6760901b81525081526020016040518060400160405280600381526020016204742560ec1b81525081526020017f84c2dde9633d93d1bcad84e7dc41c9d56578b7ec52fabedc1f335d673df0a7c15f1b8152602001611e80611ec9565b81526020015f151581525081600281518110611e9e57611e9e613cce565b60200260200101515f0151600381518110611ebb57611ebb613cce565b602002602001018190525090565b611eed60405180606001604052805f15158152602001606081526020015f81525090565b604080516060810182525f80825282518181526020818101909452919283019190611f2e565b611f1b61378c565b815260200190600190039081611f135790505b5081526020015f815250905090565b6040516a19195d995b1bdc1b595b9d60aa1b60208201525f90602b016040516020818303038152906040528051906020012082604051602001611f809190613cf9565b6040516020818303038152906040528051906020012003611fa55750624f1a00919050565b60405169383937b23ab1ba34b7b760b11b6020820152602a016040516020818303038152906040528051906020012082604051602001611fe59190613cf9565b6040516020818303038152906040528051906020012003612009575061012c919050565b50624f1a00919050565b61203760405180606001604052805f15158152602001606081526020015f81525090565b60408051600580825260c082019092525f91816020015b61205661378c565b81526020019060019003908161204e5790505090506040518060e0016040528061207e6132ee565b6001600160a01b0316815260200161251c815260200161264881526020016113888152602001611388815260200169d3c21bcecceda100000081526020017feaa020c61cc479712813461ce153894a96a6c00b21ed0cfc2798d1f9a9e9c94a5f1b815250815f815181106120f4576120f4613cce565b60200260200101819052506040518060e001604052806121126133f6565b6001600160a01b0316815260200161251c815260200161264881526020016113888152602001611388815260200169d3c21bcecceda100000081526020017f2b89b9dc8fdf9f34709a5b106b472f0f39bb6ca9ce04b0fd7f2e971688e2e53b5f1b8152508160018151811061218957612189613cce565b60200260200101819052506040518060e001604052806121a7613500565b6001600160a01b0316815260200161251c815260200161264881526020016113888152602001611388815260200169d3c21bcecceda100000081526020017fb0948a5e5313200c632b51bb5ca32f6de0d36e9950a942d19751e833f70dabfd5f1b8152508160028151811061221e5761221e613cce565b60200260200101819052506040518060e0016040528061223c61360c565b6001600160a01b0316815260200161251c815260200161264881526020016113888152602001611388815260200169d3c21bcecceda100000081526020017f76fa85158bf14ede77087fe3ae472f66213f6ea2f5b411cb2de472794990fa5c5f1b815250816003815181106122b3576122b3613cce565b60200260200101819052506040518060e001604052806122d1612e7a565b6001600160a01b03168152602001611d4c815260200161213481526020016113888152602001611388815260200169d3c21bcecceda100000081526020015f80516020615d068339815191525f1b815250816004815181106105bc576105bc613cce565b61235960405180606001604052805f15158152602001606081526020015f81525090565b60408051600480825260a082019092525f91816020015b61237861378c565b8152602001906001900390816123705790505090506040518060e001604052806123a0612e7a565b6001600160a01b0316815260200161251c815260200161264881526020016113888152602001611388815260200168056bc75e2d6310000081526020015f80516020615d068339815191525f1b815250815f8151811061240257612402613cce565b60200260200101819052506040518060e00160405280612420612fa3565b6001600160a01b0316815260200161251c81526020016126488152602001611388815260200161138881526020016801158e460913d0000081526020017f06c217a791f5c4f988b36629af4cb88fad827b2485400a358f3b02886b54de925f1b8152508160018151811061249657612496613cce565b60200260200101819052506040518060e001604052806124b46130c1565b6001600160a01b0316815260200161251c81526020016126488152602001611388815260200161138881526020016801158e460913d0000081526020017f6df640f3b8963d8f8358f791f352b8364513f6ab1cca5ed3f1f7b5448980e7845f1b8152508160028151811061252a5761252a613cce565b60200260200101819052506040518060e001604052806125486131e1565b6001600160a01b03168152602001612134815260200161251c815260200161138881526020016113888152602001678ac7230489e8000081526020017fc9d8b075a5c69303365ae23633d4e085199bf5c520a3b90fed1322a0342ffc335f1b815250816003815181106105bc576105bc613cce565b5f8162014a34036125e3575073a2aa501b19aff244d90cc15a4cf739d2725b5729919050565b816101520361260757507336825bf3fbdf5a29e2d5148bfe7dcf7b5639e320919050565b8161138b0361262b57507398046bd286715d3b0bc227dd7a956b83d8978603919050565b8162066eee036126505750734374e5a8b9c22271e9eb878a2aa31de97df15daf919050565b8162aa36a703612675575073dd24f84d36bf92c65f92307595335bdfab5bbd21919050565b81602903612698575073dd24f84d36bf92c65f92307595335bdfab5bbd21919050565b81610152036126bc57507336825bf3fbdf5a29e2d5148bfe7dcf7b5639e320919050565b81610539036126e0575073a2aa501b19aff244d90cc15a4cf739d2725b5729919050565b505f919050565b6040516a19195d995b1bdc1b595b9d60aa1b6020820152606090602b01604051602081830303815290604052805190602001208260405160200161272b9190613cf9565b60405160208183030381529060405280519060200120036127545761274e61291f565b92915050565b60405169383937b23ab1ba34b7b760b11b6020820152602a0160405160208183030381529060405280519060200120826040516020016127949190613cf9565b60405160208183030381529060405280519060200120036127b75761274e6105ed565b61274e61291f565b6127e360405180606001604052805f15158152602001606081526020015f81525090565b604080516002808252606082019092525f91816020015b61280261378c565b8152602001906001900390816127fa5790505090506040518060e0016040528061282a6131e1565b6001600160a01b0316815260200161251c8152602001612648815260200161138881526020016113888152602001678ac7230489e8000081526020017fc9d8b075a5c69303365ae23633d4e085199bf5c520a3b90fed1322a0342ffc335f1b815250815f8151811061289e5761289e613cce565b60200260200101819052506040518060e001604052806128bc612e7a565b6001600160a01b03168152602001612134815260200161251c81526020016113888152602001611388815260200168056bc75e2d6310000081526020015f80516020615d068339815191525f1b815250816001815181106105bc576105bc613cce565b604080516001808252818301909252606091816020015b61293e6137ce565b81526020019060019003908161293657505060408051600261014082018181526101a083019093529293509182919061016083015b61297b613874565b8152602001906001900390816129735790505081526020016040518060400160405280600681526020016543727970746f60d01b8152508152602001604051806040016040528060018152602001604360f81b8152508152602001600160028111156129e9576129e9613a95565b8152602001604051806040016040528060048152602001630a4cac2f60e31b8152508152602001604051806040016040528060028152602001610a4b60f31b8152508152602001612a395f61020a565b8152602001612a49610258612013565b8152600160208201819052604090910152815182905f90612a6c57612a6c613cce565b60200260200101819052506040518060a00160405280604051806040016040528060078152602001662134ba31b7b4b760c91b81525081526020016040518060400160405280600381526020016242544360e81b81525081526020017fe62df6c8b4a85fe1a67db44dc12de5db330f7ac66b72dc658afedf0f4a415b435f1b8152602001612afa60c86127bf565b815260200160011515815250815f81518110612b1857612b18613cce565b60200260200101515f01515f81518110612b3457612b34613cce565b60200260200101819052506040518060a0016040528060405180604001604052806008815260200167457468657265756d60c01b81525081526020016040518060400160405280600381526020016208aa8960eb1b81525081526020017fff61491a931112ddf1bd8147cd1b641375f79f5825126d665480874634fd0ace5f1b8152602001612bc360c8612335565b815260200160011515815250815f81518110612be157612be1613cce565b60200260200101515f0151600181518110611ebb57611ebb613cce565b612c2260405180606001604052805f15158152602001606081526020015f81525090565b60408051600480825260a082019092525f91816020015b612c4161378c565b815260200190600190039081612c395790505090506040518060e00160405280612c696132ee565b6001600160a01b03168152602001611f40815260200161251c815260200161138881526020016113888152602001606481526020017feaa020c61cc479712813461ce153894a96a6c00b21ed0cfc2798d1f9a9e9c94a5f1b815250815f81518110612cd657612cd6613cce565b60200260200101819052506040518060e00160405280612cf46133f6565b6001600160a01b03168152602001611f40815260200161251c815260200161138881526020016113888152602001606481526020017f2b89b9dc8fdf9f34709a5b106b472f0f39bb6ca9ce04b0fd7f2e971688e2e53b5f1b81525081600181518110612d6257612d62613cce565b60200260200101819052506040518060e00160405280612d80613500565b6001600160a01b03168152602001611f40815260200161251c815260200161138881526020016113888152602001606481526020017fb0948a5e5313200c632b51bb5ca32f6de0d36e9950a942d19751e833f70dabfd5f1b81525081600281518110612dee57612dee613cce565b60200260200101819052506040518060e00160405280612e0c61360c565b6001600160a01b03168152602001611f40815260200161251c815260200161138881526020016113888152602001606481526020017f76fa85158bf14ede77087fe3ae472f66213f6ea2f5b411cb2de472794990fa5c5f1b815250816003815181106105bc576105bc613cce565b5f80546001600160a01b031615612e9a57505f546001600160a01b031690565b6040518060400160405280600581526020016422ba3432b960d91b815250604051602001612ec89190613d04565b6040516020818303038152906040526040518060400160405280600381526020016208aa8960eb1b815250604051602001612f039190613d20565b604051602081830303815290604052604051612f1e906138c6565b612f29929190613d35565b604051809103905ff080158015612f42573d5f803e3d5ffd5b505f80546001600160a01b0319166001600160a01b0392909216918217905560408051808201909152601381527202ba2aa241c903232b83637bcb2b21030ba1d1606d1b6020820152612f9491613717565b505f546001600160a01b031690565b6002545f906001600160a01b031615612fc657506002546001600160a01b031690565b6040517f52656e7a6f2052657374616b656420457468657265756d000000000000000000602082015260370160408051601f19818403018152908290526408ab48aa8960db1b60208301529060250160405160208183030381529060405267016345785d8a0000604051613039906138d3565b61304593929190613d62565b604051809103905ff08015801561305e573d5f803e3d5ffd5b50600280546001600160a01b0319166001600160a01b03929092169182179055604080518082019091526013815272022ad22aa24103232b83637bcb2b21030ba1d1606d1b60208201526130b191613717565b506002546001600160a01b031690565b6001545f906001600160a01b0316156130e457506001546001600160a01b031690565b6040517f57726170706564205374616b656420457468657265756d000000000000000000602082015260370160408051601f1981840301815290829052650aea6a88aa8960d31b60208301529060260160405160208183030381529060405267016345785d8a0000604051613158906138d3565b61316493929190613d62565b604051809103905ff08015801561317d573d5f803e3d5ffd5b50600180546001600160a01b0319166001600160a01b0392909216918217905560408051808201909152601481527302ba9aa22aa24103232b83637bcb2b21030ba1d160651b60208201526131d191613717565b506001546001600160a01b031690565b6003545f906001600160a01b03161561320457506003546001600160a01b031690565b6040516e2bb930b83832b2102134ba31b7b4b760891b6020820152602f0160408051601f1981840301815290829052635742544360e01b602083015290602401604051602081830303815290604052662386f26fc10000604051613267906138d3565b61327393929190613d62565b604051809103905ff08015801561328c573d5f803e3d5ffd5b50600380546001600160a01b0319166001600160a01b0392909216918217905560408051808201909152601281527102ba12a21903232b83637bcb2b21030ba1d160751b60208201526132de91613717565b506003546001600160a01b031690565b6004545f906001600160a01b03161561331157506004546001600160a01b031690565b604051672aa9a21021b7b4b760c11b602082015260280160408051601f1981840301815290829052635553444360e01b602083015290602401604051602081830303815290604052683635c9adc5dea0000060405161336f906138d3565b61337b93929190613d62565b604051809103905ff080158015613394573d5f803e3d5ffd5b50600480546001600160a01b0319166001600160a01b0392909216918217905560408051808201909152601281527102aa9a221903232b83637bcb2b21030ba1d160751b60208201526133e691613717565b506004546001600160a01b031690565b6005545f906001600160a01b03161561341957506005546001600160a01b031690565b6040516915195d1a195c881554d160b21b6020820152602a0160408051601f1981840301815290829052631554d11560e21b602083015290602401604051602081830303815290604052683635c9adc5dea00000604051613479906138d3565b61348593929190613d62565b604051809103905ff08015801561349e573d5f803e3d5ffd5b50600580546001600160a01b0319166001600160a01b0392909216918217905560408051808201909152601281527102aa9a22a103232b83637bcb2b21030ba1d160751b60208201526134f091613717565b506005546001600160a01b031690565b6006545f906001600160a01b03161561352357506006546001600160a01b031690565b6040516d2230b49029ba30b13632b1b7b4b760911b6020820152602e0160408051601f19818403018152908290526244414960e81b602083015290602301604051602081830303815290604052683635c9adc5dea00000604051613586906138d3565b61359293929190613d62565b604051809103905ff0801580156135ab573d5f803e3d5ffd5b50600680546001600160a01b0319166001600160a01b0392909216918217905560408051808201909152601181527002220a4903232b83637bcb2b21030ba1d1607d1b60208201526135fc91613717565b506006546001600160a01b031690565b6007545f906001600160a01b03161561362f57506007546001600160a01b031690565b6040516a4575726f20436972636c6560a81b6020820152602b0160408051601f1981840301815290829052634555524360e01b602083015290602401604051602081830303815290604052683635c9adc5dea00000604051613690906138d3565b61369c93929190613d62565b604051809103905ff0801580156136b5573d5f803e3d5ffd5b50600780546001600160a01b0319166001600160a01b03929092169182179055604080518082019091526012815271022aaa921903232b83637bcb2b21030ba1d160751b602082015261370791613717565b506007546001600160a01b031690565b61375c828260405160240161372d929190613d97565b60408051601f198184030181529190526020810180516001600160e01b031663319af33360e01b179052613760565b5050565b6137698161376c565b50565b80516a636f6e736f6c652e6c6f67602083015f808483855afa5050505050565b6040518060e001604052805f6001600160a01b031681526020015f81526020015f81526020015f81526020015f81526020015f81526020015f80191681525090565b6040518061014001604052806060815260200160608152602001606081526020015f600281111561380157613801613a95565b8152602001606081526020016060815260200161383860405180606001604052805f15158152602001606081526020015f81525090565b815260200161386160405180606001604052805f15158152602001606081526020015f81525090565b81525f6020820181905260409091015290565b6040518060a0016040528060608152602001606081526020015f80191681526020016138ba60405180606001604052805f15158152602001606081526020015f81525090565b81525f60209091015290565b610a1680613dc183390190565b61152f806147d783390190565b5f602082840312156138f0575f80fd5b5035919050565b5f60608084018351151585526020808501516060828801528281518085526080945060808901915083830192505f5b8181101561398557835180516001600160a01b031684528581015186850152604080820151908501528781015188850152868101518785015260a0808201519085015260c090810151908401529284019260e090920191600101613926565b505060408701516040890152809550505050505092915050565b602081525f6139b160208301846138f7565b9392505050565b5f81518084528060208401602086015e5f602082860101526020601f19601f83011685010191505092915050565b5f82825180855260208086019550808260051b8401018186015f5b84811015613a8857601f19868403018952815160a08151818652613a27828701826139b8565b9150508582015185820387870152613a3f82826139b8565b915050604080830151818701525060608083015186830382880152613a6483826138f7565b60809485015115159790940196909652505098840198925090830190600101613a01565b5090979650505050505050565b634e487b7160e01b5f52602160045260245ffd5b60038110613ac557634e487b7160e01b5f52602160045260245ffd5b9052565b5f60208083018184528085518083526040925060408601915060408160051b8701018488015f5b83811015613c0157603f1989840301855281516101408151818652613b17828701826139e6565b915050888201518582038a870152613b2f82826139b8565b9150508782015185820389870152613b4782826139b8565b915050606080830151613b5c82880182613aa9565b505060808083015186830382880152613b7583826139b8565b9250505060a08083015186830382880152613b9083826139b8565b9250505060c08083015186830382880152613bab83826138f7565b9250505060e08083015186830382880152613bc683826138f7565b9250505061010080830151613bde8288018215159052565b505061012091820151151594909101939093529386019390860190600101613af0565b509098975050505050505050565b634e487b7160e01b5f52604160045260245ffd5b5f60208284031215613c33575f80fd5b813567ffffffffffffffff80821115613c4a575f80fd5b818401915084601f830112613c5d575f80fd5b813581811115613c6f57613c6f613c0f565b604051601f8201601f19908116603f01168101908382118183101715613c9757613c97613c0f565b81604052828152876020848701011115613caf575f80fd5b826020860160208301375f928101602001929092525095945050505050565b634e487b7160e01b5f52603260045260245ffd5b5f81518060208401855e5f93019283525090919050565b5f6139b18284613ce2565b6702bb930b83832b2160c51b81525f6139b16008830184613ce2565b605760f81b81525f6139b16001830184613ce2565b604081525f613d4760408301856139b8565b8281036020840152613d5981856139b8565b95945050505050565b606081525f613d7460608301866139b8565b8281036020840152613d8681866139b8565b915050826040830152949350505050565b604081525f613da960408301856139b8565b905060018060a01b0383166020830152939250505056fe60806040526002805460ff1916601217905534801561001c575f80fd5b50604051610a16380380610a1683398101604081905261003b916100f7565b5f61004683826101da565b50600161005382826101da565b505050610299565b634e487b7160e01b5f52604160045260245ffd5b5f82601f83011261007e575f80fd5b81516001600160401b03808211156100985761009861005b565b604051601f8301601f19908116603f011681019082821181831017156100c0576100c061005b565b816040528381528660208588010111156100d8575f80fd5b8360208701602083015e5f602085830101528094505050505092915050565b5f8060408385031215610108575f80fd5b82516001600160401b038082111561011e575f80fd5b61012a8683870161006f565b9350602085015191508082111561013f575f80fd5b5061014c8582860161006f565b9150509250929050565b600181811c9082168061016a57607f821691505b60208210810361018857634e487b7160e01b5f52602260045260245ffd5b50919050565b601f8211156101d557805f5260205f20601f840160051c810160208510156101b35750805b601f840160051c820191505b818110156101d2575f81556001016101bf565b50505b505050565b81516001600160401b038111156101f3576101f361005b565b610207816102018454610156565b8461018e565b602080601f83116001811461023a575f84156102235750858301515b5f19600386901b1c1916600185901b178555610291565b5f85815260208120601f198616915b8281101561026857888601518255948401946001909101908401610249565b508582101561028557878501515f19600388901b60f8161c191681555b505060018460011b0185555b505050505050565b610770806102a65f395ff3fe60806040526004361061009d575f3560e01c8063313ce56711610062578063313ce5671461016357806370a082311461018e57806395d89b41146101b9578063a9059cbb146101cd578063d0e30db0146101ec578063dd62ed3e146101f4575f80fd5b806306fdde03146100b0578063095ea7b3146100da57806318160ddd1461010957806323b872dd146101255780632e1a7d4d14610144575f80fd5b366100ac576100aa61022a565b005b5f80fd5b3480156100bb575f80fd5b506100c4610284565b6040516100d191906105b6565b60405180910390f35b3480156100e5575f80fd5b506100f96100f4366004610606565b61030f565b60405190151581526020016100d1565b348015610114575f80fd5b50475b6040519081526020016100d1565b348015610130575f80fd5b506100f961013f36600461062e565b61037b565b34801561014f575f80fd5b506100aa61015e366004610667565b6104f6565b34801561016e575f80fd5b5060025461017c9060ff1681565b60405160ff90911681526020016100d1565b348015610199575f80fd5b506101176101a836600461067e565b60036020525f908152604090205481565b3480156101c4575f80fd5b506100c4610596565b3480156101d8575f80fd5b506100f96101e7366004610606565b6105a3565b6100aa61022a565b3480156101ff575f80fd5b5061011761020e366004610697565b600460209081525f928352604080842090915290825290205481565b335f90815260036020526040812080543492906102489084906106dc565b909155505060405134815233907fe1fffcc4923d04b559f4d29a8bfc6cda04eb5b0d3c460751c2402c5c5cc9109c9060200160405180910390a2565b5f8054610290906106ef565b80601f01602080910402602001604051908101604052809291908181526020018280546102bc906106ef565b80156103075780601f106102de57610100808354040283529160200191610307565b820191905f5260205f20905b8154815290600101906020018083116102ea57829003601f168201915b505050505081565b335f8181526004602090815260408083206001600160a01b038716808552925280832085905551919290917f8c5be1e5ebec7d5bd14f71427d1e84f3dd0314c0f7b2291e5b200ac8c7c3b925906103699086815260200190565b60405180910390a35060015b92915050565b6001600160a01b0383165f9081526003602052604081205482111561039e575f80fd5b6001600160a01b03841633148015906103da57506001600160a01b0384165f9081526004602090815260408083203384529091529020545f1914155b15610445576001600160a01b0384165f90815260046020908152604080832033845290915290205482111561040d575f80fd5b6001600160a01b0384165f9081526004602090815260408083203384529091528120805484929061043f908490610727565b90915550505b6001600160a01b0384165f908152600360205260408120805484929061046c908490610727565b90915550506001600160a01b0383165f90815260036020526040812080548492906104989084906106dc565b92505081905550826001600160a01b0316846001600160a01b03167fddf252ad1be2c89b69c2b068fc378daa952ba7f163c4a11628f55a4df523b3ef846040516104e491815260200190565b60405180910390a35060019392505050565b335f90815260036020526040902054811115610510575f80fd5b335f908152600360205260408120805483929061052e908490610727565b9091555050604051339082156108fc029083905f818181858888f1935050505015801561055d573d5f803e3d5ffd5b5060405181815233907f7fcf532c15f0a6db0bd6d0e038bea71d30d808c7d98cb3bf7268a95bf5081b659060200160405180910390a250565b60018054610290906106ef565b5f6105af33848461037b565b9392505050565b602081525f82518060208401528060208501604085015e5f604082850101526040601f19601f83011684010191505092915050565b80356001600160a01b0381168114610601575f80fd5b919050565b5f8060408385031215610617575f80fd5b610620836105eb565b946020939093013593505050565b5f805f60608486031215610640575f80fd5b610649846105eb565b9250610657602085016105eb565b9150604084013590509250925092565b5f60208284031215610677575f80fd5b5035919050565b5f6020828403121561068e575f80fd5b6105af826105eb565b5f80604083850312156106a8575f80fd5b6106b1836105eb565b91506106bf602084016105eb565b90509250929050565b634e487b7160e01b5f52601160045260245ffd5b80820180821115610375576103756106c8565b600181811c9082168061070357607f821691505b60208210810361072157634e487b7160e01b5f52602260045260245ffd5b50919050565b81810381811115610375576103756106c856fea2646970667358221220a0df6184362b7f5f9d2439e2630eb8ec5b5bfc846e48f6ea7da14e82684fc6bc64736f6c63430008190033610160604052348015610010575f80fd5b5060405161152f38038061152f83398101604081905261002f9161023f565b6040805180820190915260018152603160f81b60208201528390819081856003610059838261032a565b506004610066828261032a565b506100769150839050600561012b565b6101205261008581600661012b565b61014052815160208084019190912060e052815190820120610100524660a05261011160e05161010051604080517f8b73c3c69bb8fe3d512ecc4cf759cc79239f7b179b0ffacaa9a75d522b39400f60208201529081019290925260608201524660808201523060a08201525f9060c00160405160208183030381529060405280519060200120905090565b60805250503060c052506001600855600955506104419050565b5f6020835110156101465761013f8361015d565b9050610157565b81610151848261032a565b5060ff90505b92915050565b5f80829050601f81511115610190578260405163305a27a960e01b815260040161018791906103e9565b60405180910390fd5b805161019b8261041e565b179392505050565b634e487b7160e01b5f52604160045260245ffd5b5f82601f8301126101c6575f80fd5b81516001600160401b03808211156101e0576101e06101a3565b604051601f8301601f19908116603f01168101908282118183101715610208576102086101a3565b81604052838152866020858801011115610220575f80fd5b8360208701602083015e5f602085830101528094505050505092915050565b5f805f60608486031215610251575f80fd5b83516001600160401b0380821115610267575f80fd5b610273878388016101b7565b94506020860151915080821115610288575f80fd5b50610295868287016101b7565b925050604084015190509250925092565b600181811c908216806102ba57607f821691505b6020821081036102d857634e487b7160e01b5f52602260045260245ffd5b50919050565b601f82111561032557805f5260205f20601f840160051c810160208510156103035750805b601f840160051c820191505b81811015610322575f815560010161030f565b50505b505050565b81516001600160401b03811115610343576103436101a3565b6103578161035184546102a6565b846102de565b602080601f83116001811461038a575f84156103735750858301515b5f19600386901b1c1916600185901b1785556103e1565b5f85815260208120601f198616915b828110156103b857888601518255948401946001909101908401610399565b50858210156103d557878501515f19600388901b60f8161c191681555b505060018460011b0185555b505050505050565b602081525f82518060208401528060208501604085015e5f604082850101526040601f19601f83011684010191505092915050565b805160208083015191908110156102d8575f1960209190910360031b1b16919050565b60805160a05160c05160e05161010051610120516101405161109d6104925f395f6108cd01525f6108a001525f61084901525f61082101525f61077c01525f6107a601525f6107d0015261109d5ff3fe608060405234801561000f575f80fd5b5060043610610106575f3560e01c80635a2bcc181161009e57806384b0196e1161006e57806384b0196e146101fe57806395d89b4114610219578063a9059cbb14610221578063d505accf14610234578063dd62ed3e14610247575f80fd5b80635a2bcc18146101b057806370a08231146101b95780637ecebe00146101e157806383ea6e97146101f4575f80fd5b806323b872dd116100d957806323b872dd146101675780632e686d691461017a578063313ce567146101995780633644e515146101a8575f80fd5b806306fdde031461010a578063095ea7b3146101285780631249c58b1461014b57806318160ddd14610155575b5f80fd5b61011261027f565b60405161011f9190610dfe565b60405180910390f35b61013b610136366004610e32565b61030f565b604051901515815260200161011f565b610153610328565b005b6002545b60405190815260200161011f565b61013b610175366004610e5a565b610442565b610159610188366004610e93565b600a6020525f908152604090205481565b6040516012815260200161011f565b610159610465565b61015960095481565b6101596101c7366004610e93565b6001600160a01b03165f9081526020819052604090205490565b6101596101ef366004610e93565b610473565b6101596201518081565b610206610490565b60405161011f9796959493929190610eac565b6101126104d2565b61013b61022f366004610e32565b6104e1565b610153610242366004610f43565b6104ee565b610159610255366004610fb0565b6001600160a01b039182165f90815260016020908152604080832093909416825291909152205490565b60606003805461028e90610fe1565b80601f01602080910402602001604051908101604052809291908181526020018280546102ba90610fe1565b80156103055780601f106102dc57610100808354040283529160200191610305565b820191905f5260205f20905b8154815290600101906020018083116102e857829003601f168201915b5050505050905090565b5f3361031c818585610624565b60019150505b92915050565b610330610636565b335f908152600a6020526040902054620151809061034e904261102d565b10156103b35760405162461bcd60e51b815260206004820152602960248201527f4d6f636b546f6b656e3a2043616e206f6e6c79206d696e74206f6e636520657660448201526865727920323468727360b81b60648201526084015b60405180910390fd5b600b5443036104145760405162461bcd60e51b815260206004820152602760248201527f4d6f636b546f6b656e3a2043616e206f6e6c79206d696e74206f6e63652070656044820152667220626c6f636b60c81b60648201526084016103aa565b335f818152600a6020526040902042905543600b556009546104369190610660565b6104406001600855565b565b5f3361044f858285610698565b61045a858585610713565b506001949350505050565b5f61046e610770565b905090565b6001600160a01b0381165f90815260076020526040812054610322565b5f6060805f805f60606104a1610899565b6104a96108c6565b604080515f80825260208201909252600f60f81b9b939a50919850469750309650945092509050565b60606004805461028e90610fe1565b5f3361031c818585610713565b834211156105125760405163313c898160e11b8152600481018590526024016103aa565b5f7f6e71edae12b1b97f4d1f60370fef10105fa2faae0126114a169c64845d6126c988888861055d8c6001600160a01b03165f90815260076020526040902080546001810190915590565b6040805160208101969096526001600160a01b0394851690860152929091166060840152608083015260a082015260c0810186905260e0016040516020818303038152906040528051906020012090505f6105b7826108f3565b90505f6105c68287878761091f565b9050896001600160a01b0316816001600160a01b03161461060d576040516325c0072360e11b81526001600160a01b0380831660048301528b1660248201526044016103aa565b6106188a8a8a610624565b50505050505050505050565b610631838383600161094b565b505050565b60026008540361065957604051633ee5aeb560e01b815260040160405180910390fd5b6002600855565b6001600160a01b0382166106895760405163ec442f0560e01b81525f60048201526024016103aa565b6106945f8383610a1d565b5050565b6001600160a01b038381165f908152600160209081526040808320938616835292905220545f19811461070d57818110156106ff57604051637dc7a0d960e11b81526001600160a01b038416600482015260248101829052604481018390526064016103aa565b61070d84848484035f61094b565b50505050565b6001600160a01b03831661073c57604051634b637e8f60e11b81525f60048201526024016103aa565b6001600160a01b0382166107655760405163ec442f0560e01b81525f60048201526024016103aa565b610631838383610a1d565b5f306001600160a01b037f0000000000000000000000000000000000000000000000000000000000000000161480156107c857507f000000000000000000000000000000000000000000000000000000000000000046145b156107f257507f000000000000000000000000000000000000000000000000000000000000000090565b61046e604080517f8b73c3c69bb8fe3d512ecc4cf759cc79239f7b179b0ffacaa9a75d522b39400f60208201527f0000000000000000000000000000000000000000000000000000000000000000918101919091527f000000000000000000000000000000000000000000000000000000000000000060608201524660808201523060a08201525f9060c00160405160208183030381529060405280519060200120905090565b606061046e7f00000000000000000000000000000000000000000000000000000000000000006005610b43565b606061046e7f00000000000000000000000000000000000000000000000000000000000000006006610b43565b5f6103226108ff610770565b8360405161190160f01b8152600281019290925260228201526042902090565b5f805f8061092f88888888610bec565b92509250925061093f8282610cb4565b50909695505050505050565b6001600160a01b0384166109745760405163e602df0560e01b81525f60048201526024016103aa565b6001600160a01b03831661099d57604051634a1406b160e11b81525f60048201526024016103aa565b6001600160a01b038085165f908152600160209081526040808320938716835292905220829055801561070d57826001600160a01b0316846001600160a01b03167f8c5be1e5ebec7d5bd14f71427d1e84f3dd0314c0f7b2291e5b200ac8c7c3b92584604051610a0f91815260200190565b60405180910390a350505050565b6001600160a01b038316610a47578060025f828254610a3c9190611040565b90915550610ab79050565b6001600160a01b0383165f9081526020819052604090205481811015610a995760405163391434e360e21b81526001600160a01b038516600482015260248101829052604481018390526064016103aa565b6001600160a01b0384165f9081526020819052604090209082900390555b6001600160a01b038216610ad357600280548290039055610af1565b6001600160a01b0382165f9081526020819052604090208054820190555b816001600160a01b0316836001600160a01b03167fddf252ad1be2c89b69c2b068fc378daa952ba7f163c4a11628f55a4df523b3ef83604051610b3691815260200190565b60405180910390a3505050565b606060ff8314610b5d57610b5683610d6c565b9050610322565b818054610b6990610fe1565b80601f0160208091040260200160405190810160405280929190818152602001828054610b9590610fe1565b8015610be05780601f10610bb757610100808354040283529160200191610be0565b820191905f5260205f20905b815481529060010190602001808311610bc357829003601f168201915b50505050509050610322565b5f80807f7fffffffffffffffffffffffffffffff5d576e7357a4501ddfe92f46681b20a0841115610c2557505f91506003905082610caa565b604080515f808252602082018084528a905260ff891692820192909252606081018790526080810186905260019060a0016020604051602081039080840390855afa158015610c76573d5f803e3d5ffd5b5050604051601f1901519150506001600160a01b038116610ca157505f925060019150829050610caa565b92505f91508190505b9450945094915050565b5f826003811115610cc757610cc7611053565b03610cd0575050565b6001826003811115610ce457610ce4611053565b03610d025760405163f645eedf60e01b815260040160405180910390fd5b6002826003811115610d1657610d16611053565b03610d375760405163fce698f760e01b8152600481018290526024016103aa565b6003826003811115610d4b57610d4b611053565b03610694576040516335e2f38360e21b8152600481018290526024016103aa565b60605f610d7883610da9565b6040805160208082528183019092529192505f91906020820181803683375050509182525060208101929092525090565b5f60ff8216601f81111561032257604051632cd44ac360e21b815260040160405180910390fd5b5f81518084528060208401602086015e5f602082860101526020601f19601f83011685010191505092915050565b602081525f610e106020830184610dd0565b9392505050565b80356001600160a01b0381168114610e2d575f80fd5b919050565b5f8060408385031215610e43575f80fd5b610e4c83610e17565b946020939093013593505050565b5f805f60608486031215610e6c575f80fd5b610e7584610e17565b9250610e8360208501610e17565b9150604084013590509250925092565b5f60208284031215610ea3575f80fd5b610e1082610e17565b60ff60f81b881681525f602060e06020840152610ecc60e084018a610dd0565b8381036040850152610ede818a610dd0565b606085018990526001600160a01b038816608086015260a0850187905284810360c0860152855180825260208088019350909101905f5b81811015610f3157835183529284019291840191600101610f15565b50909c9b505050505050505050505050565b5f805f805f805f60e0888a031215610f59575f80fd5b610f6288610e17565b9650610f7060208901610e17565b95506040880135945060608801359350608088013560ff81168114610f93575f80fd5b9699959850939692959460a0840135945060c09093013592915050565b5f8060408385031215610fc1575f80fd5b610fca83610e17565b9150610fd860208401610e17565b90509250929050565b600181811c90821680610ff557607f821691505b60208210810361101357634e487b7160e01b5f52602260045260245ffd5b50919050565b634e487b7160e01b5f52601160045260245ffd5b8181038181111561032257610322611019565b8082018082111561032257610322611019565b634e487b7160e01b5f52602160045260245ffdfea2646970667358221220773a44d22e24b22f83af2d839dd71a48c63bfbf84aebc9ac54528852e4dbef6e64736f6c634300081900339d4294bbcd1174d6f2003ec365831e64cc31d9f6f15a2b85399db8d5000960f6a264697066735822122076b8d522bfdfaea9b3d827129e97e9bd5a3619cff27833e53a3058cb8752d12164736f6c63430008190033","linkReferences":{}},"methodIdentifiers":{"admin()":"f851a440","btcMarket(uint256)":"ca2b1c96","clpMarket(uint256)":"05b8e49c","ethMarket(uint256)":"8cfdfe78","getChainID()":"564b81ef","getConfig(string)":"b44bd51d","getMainnetConfig()":"283d486b","getPythAddress(uint256)":"905ec5b2","getPythValidity(string)":"59526877","getTestConfig()":"ced20370","nullMarket()":"39d2050b","pyth()":"f98d06f0","slpMarket(uint256)":"f1ea34be","usdMarket(uint256)":"87a9a797"},"id":73}